{
  "_format": "hh-sol-artifact-1",
  "contractName": "Organization",
  "sourceName": "contracts/Organization.sol",
  "abi": [
    {
      "inputs": [
        {
          "internalType": "address",
          "name": "_dao",
          "type": "address"
        }
      ],
      "stateMutability": "nonpayable",
      "type": "constructor"
    },
    {
      "inputs": [
        {
          "internalType": "address payable",
          "name": "_walletAddress",
          "type": "address"
        },
        {
          "internalType": "string",
          "name": "_organizationName",
          "type": "string"
        },
        {
          "internalType": "string",
          "name": "_organisationDescription",
          "type": "string"
        }
      ],
      "name": "createOrganizationData",
      "outputs": [],
      "stateMutability": "nonpayable",
      "type": "function"
    },
    {
      "inputs": [],
      "name": "dao",
      "outputs": [
        {
          "internalType": "address",
          "name": "",
          "type": "address"
        }
      ],
      "stateMutability": "view",
      "type": "function"
    },
    {
      "inputs": [
        {
          "internalType": "address",
          "name": "_walletAddress",
          "type": "address"
        }
      ],
      "name": "getOrganizationData",
      "outputs": [
        {
          "components": [
            {
              "internalType": "address payable",
              "name": "walletAddress",
              "type": "address"
            },
            {
              "internalType": "string",
              "name": "organizationName",
              "type": "string"
            },
            {
              "internalType": "string",
              "name": "organisationDescription",
              "type": "string"
            },
            {
              "internalType": "enum OrganizationState",
              "name": "state",
              "type": "uint8"
            }
          ],
          "internalType": "struct OrganizationData",
          "name": "",
          "type": "tuple"
        }
      ],
      "stateMutability": "view",
      "type": "function"
    },
    {
      "inputs": [
        {
          "internalType": "address",
          "name": "",
          "type": "address"
        }
      ],
      "name": "organizations",
      "outputs": [
        {
          "internalType": "address payable",
          "name": "walletAddress",
          "type": "address"
        },
        {
          "internalType": "string",
          "name": "organizationName",
          "type": "string"
        },
        {
          "internalType": "string",
          "name": "organisationDescription",
          "type": "string"
        },
        {
          "internalType": "enum OrganizationState",
          "name": "state",
          "type": "uint8"
        }
      ],
      "stateMutability": "view",
      "type": "function"
    },
    {
      "inputs": [
        {
          "internalType": "address",
          "name": "_walletAddress",
          "type": "address"
        },
        {
          "internalType": "enum OrganizationState",
          "name": "_state",
          "type": "uint8"
        }
      ],
      "name": "setOrganizationState",
      "outputs": [],
      "stateMutability": "nonpayable",
      "type": "function"
    }
  ],
  "bytecode": "0x60806040523480156200001157600080fd5b5060405162001225380380620012258339818101604052810190620000379190620000e8565b806000806101000a81548173ffffffffffffffffffffffffffffffffffffffff021916908373ffffffffffffffffffffffffffffffffffffffff160217905550506200011a565b600080fd5b600073ffffffffffffffffffffffffffffffffffffffff82169050919050565b6000620000b08262000083565b9050919050565b620000c281620000a3565b8114620000ce57600080fd5b50565b600081519050620000e281620000b7565b92915050565b6000602082840312156200010157620001006200007e565b5b60006200011184828501620000d1565b91505092915050565b6110fb806200012a6000396000f3fe608060405234801561001057600080fd5b50600436106100575760003560e01c80634162169f1461005c5780635a1f74061461007a57806369ad9617146100ad57806389f066a2146100dd578063b80bf827146100f9575b600080fd5b610064610115565b6040516100719190610803565b60405180910390f35b610094600480360381019061008f919061085e565b610139565b6040516100a494939291906109b3565b60405180910390f35b6100c760048036038101906100c2919061085e565b6102a6565b6040516100d49190610ad8565b60405180910390f35b6100f760048036038101906100f29190610b1f565b6104b4565b005b610113600480360381019061010e9190610cc0565b6105b0565b005b60008054906101000a900473ffffffffffffffffffffffffffffffffffffffff1681565b60016020528060005260406000206000915090508060000160009054906101000a900473ffffffffffffffffffffffffffffffffffffffff169080600101805461018290610d7a565b80601f01602080910402602001604051908101604052809291908181526020018280546101ae90610d7a565b80156101fb5780601f106101d0576101008083540402835291602001916101fb565b820191906000526020600020905b8154815290600101906020018083116101de57829003601f168201915b50505050509080600201805461021090610d7a565b80601f016020809104026020016040519081016040528092919081815260200182805461023c90610d7a565b80156102895780601f1061025e57610100808354040283529160200191610289565b820191906000526020600020905b81548152906001019060200180831161026c57829003601f168201915b5050505050908060030160009054906101000a900460ff16905084565b6102ae610772565b600160008373ffffffffffffffffffffffffffffffffffffffff1673ffffffffffffffffffffffffffffffffffffffff1681526020019081526020016000206040518060800160405290816000820160009054906101000a900473ffffffffffffffffffffffffffffffffffffffff1673ffffffffffffffffffffffffffffffffffffffff1673ffffffffffffffffffffffffffffffffffffffff16815260200160018201805461035e90610d7a565b80601f016020809104026020016040519081016040528092919081815260200182805461038a90610d7a565b80156103d75780601f106103ac576101008083540402835291602001916103d7565b820191906000526020600020905b8154815290600101906020018083116103ba57829003601f168201915b505050505081526020016002820180546103f090610d7a565b80601f016020809104026020016040519081016040528092919081815260200182805461041c90610d7a565b80156104695780601f1061043e57610100808354040283529160200191610469565b820191906000526020600020905b81548152906001019060200180831161044c57829003601f168201915b505050505081526020016003820160009054906101000a900460ff1660038111156104975761049661093c565b5b60038111156104a9576104a861093c565b5b815250509050919050565b60008054906101000a900473ffffffffffffffffffffffffffffffffffffffff1673ffffffffffffffffffffffffffffffffffffffff163373ffffffffffffffffffffffffffffffffffffffff1614610542576040517f08c379a000000000000000000000000000000000000000000000000000000000815260040161053990610e1d565b60405180910390fd5b80600160008473ffffffffffffffffffffffffffffffffffffffff1673ffffffffffffffffffffffffffffffffffffffff16815260200190815260200160002060030160006101000a81548160ff021916908360038111156105a7576105a661093c565b5b02179055505050565b60008054906101000a900473ffffffffffffffffffffffffffffffffffffffff1673ffffffffffffffffffffffffffffffffffffffff163373ffffffffffffffffffffffffffffffffffffffff161461063e576040517f08c379a000000000000000000000000000000000000000000000000000000000815260040161063590610e1d565b60405180910390fd5b60405180608001604052808473ffffffffffffffffffffffffffffffffffffffff168152602001838152602001828152602001600060038111156106855761068461093c565b5b815250600160008573ffffffffffffffffffffffffffffffffffffffff1673ffffffffffffffffffffffffffffffffffffffff16815260200190815260200160002060008201518160000160006101000a81548173ffffffffffffffffffffffffffffffffffffffff021916908373ffffffffffffffffffffffffffffffffffffffff16021790555060208201518160010190816107239190610ff3565b5060408201518160020190816107399190610ff3565b5060608201518160030160006101000a81548160ff021916908360038111156107655761076461093c565b5b0217905550905050505050565b6040518060800160405280600073ffffffffffffffffffffffffffffffffffffffff1681526020016060815260200160608152602001600060038111156107bc576107bb61093c565b5b81525090565b600073ffffffffffffffffffffffffffffffffffffffff82169050919050565b60006107ed826107c2565b9050919050565b6107fd816107e2565b82525050565b600060208201905061081860008301846107f4565b92915050565b6000604051905090565b600080fd5b600080fd5b61083b816107e2565b811461084657600080fd5b50565b60008135905061085881610832565b92915050565b60006020828403121561087457610873610828565b5b600061088284828501610849565b91505092915050565b6000610896826107c2565b9050919050565b6108a68161088b565b82525050565b600081519050919050565b600082825260208201905092915050565b60005b838110156108e65780820151818401526020810190506108cb565b60008484015250505050565b6000601f19601f8301169050919050565b600061090e826108ac565b61091881856108b7565b93506109288185602086016108c8565b610931816108f2565b840191505092915050565b7f4e487b7100000000000000000000000000000000000000000000000000000000600052602160045260246000fd5b6004811061097c5761097b61093c565b5b50565b600081905061098d8261096b565b919050565b600061099d8261097f565b9050919050565b6109ad81610992565b82525050565b60006080820190506109c8600083018761089d565b81810360208301526109da8186610903565b905081810360408301526109ee8185610903565b90506109fd60608301846109a4565b95945050505050565b610a0f8161088b565b82525050565b600082825260208201905092915050565b6000610a31826108ac565b610a3b8185610a15565b9350610a4b8185602086016108c8565b610a54816108f2565b840191505092915050565b610a6881610992565b82525050565b6000608083016000830151610a866000860182610a06565b5060208301518482036020860152610a9e8282610a26565b91505060408301518482036040860152610ab88282610a26565b9150506060830151610acd6060860182610a5f565b508091505092915050565b60006020820190508181036000830152610af28184610a6e565b905092915050565b60048110610b0757600080fd5b50565b600081359050610b1981610afa565b92915050565b60008060408385031215610b3657610b35610828565b5b6000610b4485828601610849565b9250506020610b5585828601610b0a565b9150509250929050565b610b688161088b565b8114610b7357600080fd5b50565b600081359050610b8581610b5f565b92915050565b600080fd5b600080fd5b7f4e487b7100000000000000000000000000000000000000000000000000000000600052604160045260246000fd5b610bcd826108f2565b810181811067ffffffffffffffff82111715610bec57610beb610b95565b5b80604052505050565b6000610bff61081e565b9050610c0b8282610bc4565b919050565b600067ffffffffffffffff821115610c2b57610c2a610b95565b5b610c34826108f2565b9050602081019050919050565b82818337600083830152505050565b6000610c63610c5e84610c10565b610bf5565b905082815260208101848484011115610c7f57610c7e610b90565b5b610c8a848285610c41565b509392505050565b600082601f830112610ca757610ca6610b8b565b5b8135610cb7848260208601610c50565b91505092915050565b600080600060608486031215610cd957610cd8610828565b5b6000610ce786828701610b76565b935050602084013567ffffffffffffffff811115610d0857610d0761082d565b5b610d1486828701610c92565b925050604084013567ffffffffffffffff811115610d3557610d3461082d565b5b610d4186828701610c92565b9150509250925092565b7f4e487b7100000000000000000000000000000000000000000000000000000000600052602260045260246000fd5b60006002820490506001821680610d9257607f821691505b602082108103610da557610da4610d4b565b5b50919050565b7f43616e206f6e6c792062652063616c6c65642066726f6d2074686520534c522060008201527f44414f0000000000000000000000000000000000000000000000000000000000602082015250565b6000610e076023836108b7565b9150610e1282610dab565b604082019050919050565b60006020820190508181036000830152610e3681610dfa565b9050919050565b60008190508160005260206000209050919050565b60006020601f8301049050919050565b600082821b905092915050565b600060088302610e9f7fffffffffffffffffffffffffffffffffffffffffffffffffffffffffffffffff82610e62565b610ea98683610e62565b95508019841693508086168417925050509392505050565b6000819050919050565b6000819050919050565b6000610ef0610eeb610ee684610ec1565b610ecb565b610ec1565b9050919050565b6000819050919050565b610f0a83610ed5565b610f1e610f1682610ef7565b848454610e6f565b825550505050565b600090565b610f33610f26565b610f3e818484610f01565b505050565b5b81811015610f6257610f57600082610f2b565b600181019050610f44565b5050565b601f821115610fa757610f7881610e3d565b610f8184610e52565b81016020851015610f90578190505b610fa4610f9c85610e52565b830182610f43565b50505b505050565b600082821c905092915050565b6000610fca60001984600802610fac565b1980831691505092915050565b6000610fe38383610fb9565b9150826002028217905092915050565b610ffc826108ac565b67ffffffffffffffff81111561101557611014610b95565b5b61101f8254610d7a565b61102a828285610f66565b600060209050601f83116001811461105d576000841561104b578287015190505b6110558582610fd7565b8655506110bd565b601f19841661106b86610e3d565b60005b828110156110935784890151825560018201915060208501945060208101905061106e565b868310156110b057848901516110ac601f891682610fb9565b8355505b6001600288020188555050505b50505050505056fea26469706673582212201c104195625426a9c49f0244afab5c4d5ff725974c7ad3cf640ed83889025ca764736f6c63430008180033",
  "linkReferences": {},
  "deployedLinkReferences": {}
}