{"contracts/DonationReceipt.sol":{"DonationReceipt":{"abi":[{"inputs":[{"internalType":"address","name":"_dao","type":"address"}],"stateMutability":"nonpayable","type":"constructor"},{"inputs":[{"internalType":"address","name":"sender","type":"address"},{"internalType":"uint256","name":"tokenId","type":"uint256"},{"internalType":"address","name":"owner","type":"address"}],"name":"ERC721IncorrectOwner","type":"error"},{"inputs":[{"internalType":"address","name":"operator","type":"address"},{"internalType":"uint256","name":"tokenId","type":"uint256"}],"name":"ERC721InsufficientApproval","type":"error"},{"inputs":[{"internalType":"address","name":"approver","type":"address"}],"name":"ERC721InvalidApprover","type":"error"},{"inputs":[{"internalType":"address","name":"operator","type":"address"}],"name":"ERC721InvalidOperator","type":"error"},{"inputs":[{"internalType":"address","name":"owner","type":"address"}],"name":"ERC721InvalidOwner","type":"error"},{"inputs":[{"internalType":"address","name":"receiver","type":"address"}],"name":"ERC721InvalidReceiver","type":"error"},{"inputs":[{"internalType":"address","name":"sender","type":"address"}],"name":"ERC721InvalidSender","type":"error"},{"inputs":[{"internalType":"uint256","name":"tokenId","type":"uint256"}],"name":"ERC721NonexistentToken","type":"error"},{"inputs":[{"internalType":"uint256","name":"value","type":"uint256"},{"internalType":"uint256","name":"length","type":"uint256"}],"name":"StringsInsufficientHexLength","type":"error"},{"anonymous":false,"inputs":[{"indexed":true,"internalType":"address","name":"owner","type":"address"},{"indexed":true,"internalType":"address","name":"approved","type":"address"},{"indexed":true,"internalType":"uint256","name":"tokenId","type":"uint256"}],"name":"Approval","type":"event"},{"anonymous":false,"inputs":[{"indexed":true,"internalType":"address","name":"owner","type":"address"},{"indexed":true,"internalType":"address","name":"operator","type":"address"},{"indexed":false,"internalType":"bool","name":"approved","type":"bool"}],"name":"ApprovalForAll","type":"event"},{"anonymous":false,"inputs":[{"indexed":false,"internalType":"uint256","name":"_fromTokenId","type":"uint256"},{"indexed":false,"internalType":"uint256","name":"_toTokenId","type":"uint256"}],"name":"BatchMetadataUpdate","type":"event"},{"anonymous":false,"inputs":[{"indexed":false,"internalType":"uint256","name":"_tokenId","type":"uint256"}],"name":"MetadataUpdate","type":"event"},{"anonymous":false,"inputs":[{"indexed":true,"internalType":"address","name":"from","type":"address"},{"indexed":true,"internalType":"address","name":"to","type":"address"},{"indexed":true,"internalType":"uint256","name":"tokenId","type":"uint256"}],"name":"Transfer","type":"event"},{"inputs":[{"internalType":"address","name":"to","type":"address"},{"internalType":"uint256","name":"tokenId","type":"uint256"}],"name":"approve","outputs":[],"stateMutability":"nonpayable","type":"function"},{"inputs":[{"internalType":"address","name":"owner","type":"address"}],"name":"balanceOf","outputs":[{"internalType":"uint256","name":"","type":"uint256"}],"stateMutability":"view","type":"function"},{"inputs":[{"internalType":"address","name":"_recipient","type":"address"},{"internalType":"uint256","name":"_projectId","type":"uint256"},{"internalType":"uint256","name":"_donationAmount","type":"uint256"},{"internalType":"uint256","name":"_timestamp","type":"uint256"}],"name":"createDonationReceipt","outputs":[],"stateMutability":"nonpayable","type":"function"},{"inputs":[],"name":"dao","outputs":[{"internalType":"address payable","name":"","type":"address"}],"stateMutability":"view","type":"function"},{"inputs":[{"internalType":"uint256","name":"tokenId","type":"uint256"}],"name":"getApproved","outputs":[{"internalType":"address","name":"","type":"address"}],"stateMutability":"view","type":"function"},{"inputs":[{"internalType":"address","name":"owner","type":"address"},{"internalType":"address","name":"operator","type":"address"}],"name":"isApprovedForAll","outputs":[{"internalType":"bool","name":"","type":"bool"}],"stateMutability":"view","type":"function"},{"inputs":[],"name":"name","outputs":[{"internalType":"string","name":"","type":"string"}],"stateMutability":"view","type":"function"},{"inputs":[{"internalType":"bytes32","name":"","type":"bytes32"}],"name":"nftsCreated","outputs":[{"internalType":"bool","name":"","type":"bool"}],"stateMutability":"view","type":"function"},{"inputs":[{"internalType":"uint256","name":"tokenId","type":"uint256"}],"name":"ownerOf","outputs":[{"internalType":"address","name":"","type":"address"}],"stateMutability":"view","type":"function"},{"inputs":[{"internalType":"address","name":"from","type":"address"},{"internalType":"address","name":"to","type":"address"},{"internalType":"uint256","name":"tokenId","type":"uint256"}],"name":"safeTransferFrom","outputs":[],"stateMutability":"nonpayable","type":"function"},{"inputs":[{"internalType":"address","name":"from","type":"address"},{"internalType":"address","name":"to","type":"address"},{"internalType":"uint256","name":"tokenId","type":"uint256"},{"internalType":"bytes","name":"data","type":"bytes"}],"name":"safeTransferFrom","outputs":[],"stateMutability":"nonpayable","type":"function"},{"inputs":[{"internalType":"address","name":"operator","type":"address"},{"internalType":"bool","name":"approved","type":"bool"}],"name":"setApprovalForAll","outputs":[],"stateMutability":"nonpayable","type":"function"},{"inputs":[{"internalType":"bytes4","name":"interfaceId","type":"bytes4"}],"name":"supportsInterface","outputs":[{"internalType":"bool","name":"","type":"bool"}],"stateMutability":"view","type":"function"},{"inputs":[],"name":"symbol","outputs":[{"internalType":"string","name":"","type":"string"}],"stateMutability":"view","type":"function"},{"inputs":[{"internalType":"uint256","name":"tokenId","type":"uint256"}],"name":"tokenURI","outputs":[{"internalType":"string","name":"","type":"string"}],"stateMutability":"view","type":"function"},{"inputs":[{"internalType":"address","name":"from","type":"address"},{"internalType":"address","name":"to","type":"address"},{"internalType":"uint256","name":"tokenId","type":"uint256"}],"name":"transferFrom","outputs":[],"stateMutability":"nonpayable","type":"function"}],"evm":{"bytecode":{"linkReferences":{},"object":"60806040523480156200001157600080fd5b50604051620031e4380380620031e4833981810160405281019062000037919062000183565b6040518060400160405280601381526020017f534c522d446f6e6174696f6e52656365697074000000000000000000000000008152506040518060400160405280600681526020017f534c522d445200000000000000000000000000000000000000000000000000008152508160009081620000b491906200042f565b508060019081620000c691906200042f565b50505080600860006101000a81548173ffffffffffffffffffffffffffffffffffffffff021916908373ffffffffffffffffffffffffffffffffffffffff16021790555060006007819055505062000516565b600080fd5b600073ffffffffffffffffffffffffffffffffffffffff82169050919050565b60006200014b826200011e565b9050919050565b6200015d816200013e565b81146200016957600080fd5b50565b6000815190506200017d8162000152565b92915050565b6000602082840312156200019c576200019b62000119565b5b6000620001ac848285016200016c565b91505092915050565b600081519050919050565b7f4e487b7100000000000000000000000000000000000000000000000000000000600052604160045260246000fd5b7f4e487b7100000000000000000000000000000000000000000000000000000000600052602260045260246000fd5b600060028204905060018216806200023757607f821691505b6020821081036200024d576200024c620001ef565b5b50919050565b60008190508160005260206000209050919050565b60006020601f8301049050919050565b600082821b905092915050565b600060088302620002b77fffffffffffffffffffffffffffffffffffffffffffffffffffffffffffffffff8262000278565b620002c3868362000278565b95508019841693508086168417925050509392505050565b6000819050919050565b6000819050919050565b6000620003106200030a6200030484620002db565b620002e5565b620002db565b9050919050565b6000819050919050565b6200032c83620002ef565b620003446200033b8262000317565b84845462000285565b825550505050565b600090565b6200035b6200034c565b6200036881848462000321565b505050565b5b8181101562000390576200038460008262000351565b6001810190506200036e565b5050565b601f821115620003df57620003a98162000253565b620003b48462000268565b81016020851015620003c4578190505b620003dc620003d38562000268565b8301826200036d565b50505b505050565b600082821c905092915050565b60006200040460001984600802620003e4565b1980831691505092915050565b60006200041f8383620003f1565b9150826002028217905092915050565b6200043a82620001b5565b67ffffffffffffffff811115620004565762000455620001c0565b5b6200046282546200021e565b6200046f82828562000394565b600060209050601f831160018114620004a7576000841562000492578287015190505b6200049e858262000411565b8655506200050e565b601f198416620004b78662000253565b60005b82811015620004e157848901518255600182019150602085019450602081019050620004ba565b86831015620005015784890151620004fd601f891682620003f1565b8355505b6001600288020188555050505b505050505050565b612cbe80620005266000396000f3fe608060405234801561001057600080fd5b50600436106101005760003560e01c806370a0823111610097578063b88d4fde11610066578063b88d4fde146102ab578063c87b56dd146102c7578063e985e9c5146102f7578063f97203af1461032757610100565b806370a082311461022557806395d89b4114610255578063a16297a014610273578063a22cb4651461028f57610100565b806323b872dd116100d357806323b872dd1461019f5780634162169f146101bb57806342842e0e146101d95780636352211e146101f557610100565b806301ffc9a71461010557806306fdde0314610135578063081812fc14610153578063095ea7b314610183575b600080fd5b61011f600480360381019061011a9190611d29565b610357565b60405161012c9190611d71565b60405180910390f35b61013d6103b8565b60405161014a9190611e1c565b60405180910390f35b61016d60048036038101906101689190611e74565b61044a565b60405161017a9190611ee2565b60405180910390f35b61019d60048036038101906101989190611f29565b610466565b005b6101b960048036038101906101b49190611f69565b61047c565b005b6101c361057e565b6040516101d09190611fdd565b60405180910390f35b6101f360048036038101906101ee9190611f69565b6105a4565b005b61020f600480360381019061020a9190611e74565b6105c4565b60405161021c9190611ee2565b60405180910390f35b61023f600480360381019061023a9190611ff8565b6105d6565b60405161024c9190612034565b60405180910390f35b61025d610690565b60405161026a9190611e1c565b60405180910390f35b61028d6004803603810190610288919061204f565b610722565b005b6102a960048036038101906102a491906120e2565b6108d5565b005b6102c560048036038101906102c09190612257565b6108eb565b005b6102e160048036038101906102dc9190611e74565b610908565b6040516102ee9190611e1c565b60405180910390f35b610311600480360381019061030c91906122da565b610a1b565b60405161031e9190611d71565b60405180910390f35b610341600480360381019061033c9190612350565b610aaf565b60405161034e9190611d71565b60405180910390f35b6000634906490660e01b7bffffffffffffffffffffffffffffffffffffffffffffffffffffffff1916827bffffffffffffffffffffffffffffffffffffffffffffffffffffffff191614806103b157506103b082610acf565b5b9050919050565b6060600080546103c7906123ac565b80601f01602080910402602001604051908101604052809291908181526020018280546103f3906123ac565b80156104405780601f1061041557610100808354040283529160200191610440565b820191906000526020600020905b81548152906001019060200180831161042357829003601f168201915b5050505050905090565b600061045582610bb1565b5061045f82610c39565b9050919050565b6104788282610473610c76565b610c7e565b5050565b600073ffffffffffffffffffffffffffffffffffffffff168273ffffffffffffffffffffffffffffffffffffffff16036104ee5760006040517f64a0ae920000000000000000000000000000000000000000000000000000000081526004016104e59190611ee2565b60405180910390fd5b600061050283836104fd610c76565b610c90565b90508373ffffffffffffffffffffffffffffffffffffffff168173ffffffffffffffffffffffffffffffffffffffff1614610578578382826040517f64283d7b00000000000000000000000000000000000000000000000000000000815260040161056f939291906123dd565b60405180910390fd5b50505050565b600860009054906101000a900473ffffffffffffffffffffffffffffffffffffffff1681565b6105bf838383604051806020016040528060008152506108eb565b505050565b60006105cf82610bb1565b9050919050565b60008073ffffffffffffffffffffffffffffffffffffffff168273ffffffffffffffffffffffffffffffffffffffff16036106495760006040517f89c62b640000000000000000000000000000000000000000000000000000000081526004016106409190611ee2565b60405180910390fd5b600360008373ffffffffffffffffffffffffffffffffffffffff1673ffffffffffffffffffffffffffffffffffffffff168152602001908152602001600020549050919050565b60606001805461069f906123ac565b80601f01602080910402602001604051908101604052809291908181526020018280546106cb906123ac565b80156107185780601f106106ed57610100808354040283529160200191610718565b820191906000526020600020905b8154815290600101906020018083116106fb57829003601f168201915b5050505050905090565b600860009054906101000a900473ffffffffffffffffffffffffffffffffffffffff1673ffffffffffffffffffffffffffffffffffffffff163373ffffffffffffffffffffffffffffffffffffffff16146107b2576040517f08c379a00000000000000000000000000000000000000000000000000000000081526004016107a990612486565b60405180910390fd5b60006107e86107d88673ffffffffffffffffffffffffffffffffffffffff166014610eaa565b6107e1866110f0565b85856111be565b90506009600082815260200190815260200160002060009054906101000a900460ff161561084b576040517f08c379a0000000000000000000000000000000000000000000000000000000008152600401610842906124f2565b60405180910390fd5b60016009600083815260200190815260200160002060006101000a81548160ff02191690831515021790555061088385600754611244565b6000836040516020016108969190612648565b60405160208183030381529060405290506108b360075482611262565b6001600760008282546108c691906126a8565b92505081905550505050505050565b6108e76108e0610c76565b83836112be565b5050565b6108f684848461047c565b6109028484848461142d565b50505050565b606061091382610bb1565b506000600660008481526020019081526020016000208054610934906123ac565b80601f0160208091040260200160405190810160405280929190818152602001828054610960906123ac565b80156109ad5780601f10610982576101008083540402835291602001916109ad565b820191906000526020600020905b81548152906001019060200180831161099057829003601f168201915b5050505050905060006109be6115e4565b905060008151036109d3578192505050610a16565b600082511115610a085780826040516020016109f092919061270d565b60405160208183030381529060405292505050610a16565b610a11846115fb565b925050505b919050565b6000600560008473ffffffffffffffffffffffffffffffffffffffff1673ffffffffffffffffffffffffffffffffffffffff16815260200190815260200160002060008373ffffffffffffffffffffffffffffffffffffffff1673ffffffffffffffffffffffffffffffffffffffff16815260200190815260200160002060009054906101000a900460ff16905092915050565b60096020528060005260406000206000915054906101000a900460ff1681565b60007f80ac58cd000000000000000000000000000000000000000000000000000000007bffffffffffffffffffffffffffffffffffffffffffffffffffffffff1916827bffffffffffffffffffffffffffffffffffffffffffffffffffffffff19161480610b9a57507f5b5e139f000000000000000000000000000000000000000000000000000000007bffffffffffffffffffffffffffffffffffffffffffffffffffffffff1916827bffffffffffffffffffffffffffffffffffffffffffffffffffffffff1916145b80610baa5750610ba982611664565b5b9050919050565b600080610bbd836116ce565b9050600073ffffffffffffffffffffffffffffffffffffffff168173ffffffffffffffffffffffffffffffffffffffff1603610c3057826040517f7e273289000000000000000000000000000000000000000000000000000000008152600401610c279190612034565b60405180910390fd5b80915050919050565b60006004600083815260200190815260200160002060009054906101000a900473ffffffffffffffffffffffffffffffffffffffff169050919050565b600033905090565b610c8b838383600161170b565b505050565b600080610c9c846116ce565b9050600073ffffffffffffffffffffffffffffffffffffffff168373ffffffffffffffffffffffffffffffffffffffff1614610cde57610cdd8184866118d0565b5b600073ffffffffffffffffffffffffffffffffffffffff168173ffffffffffffffffffffffffffffffffffffffff1614610d6f57610d2060008560008061170b565b6001600360008373ffffffffffffffffffffffffffffffffffffffff1673ffffffffffffffffffffffffffffffffffffffff168152602001908152602001600020600082825403925050819055505b600073ffffffffffffffffffffffffffffffffffffffff168573ffffffffffffffffffffffffffffffffffffffff1614610df2576001600360008773ffffffffffffffffffffffffffffffffffffffff1673ffffffffffffffffffffffffffffffffffffffff168152602001908152602001600020600082825401925050819055505b846002600086815260200190815260200160002060006101000a81548173ffffffffffffffffffffffffffffffffffffffff021916908373ffffffffffffffffffffffffffffffffffffffff160217905550838573ffffffffffffffffffffffffffffffffffffffff168273ffffffffffffffffffffffffffffffffffffffff167fddf252ad1be2c89b69c2b068fc378daa952ba7f163c4a11628f55a4df523b3ef60405160405180910390a4809150509392505050565b6060600083905060006002846002610ec29190612731565b610ecc91906126a8565b67ffffffffffffffff811115610ee557610ee461212c565b5b6040519080825280601f01601f191660200182016040528015610f175781602001600182028036833780820191505090505b5090507f300000000000000000000000000000000000000000000000000000000000000081600081518110610f4f57610f4e612773565b5b60200101907effffffffffffffffffffffffffffffffffffffffffffffffffffffffffffff1916908160001a9053507f780000000000000000000000000000000000000000000000000000000000000081600181518110610fb357610fb2612773565b5b60200101907effffffffffffffffffffffffffffffffffffffffffffffffffffffffffffff1916908160001a90535060006001856002610ff39190612731565b610ffd91906126a8565b90505b600181111561109d577f3031323334353637383961626364656600000000000000000000000000000000600f84166010811061103f5761103e612773565b5b1a60f81b82828151811061105657611055612773565b5b60200101907effffffffffffffffffffffffffffffffffffffffffffffffffffffffffffff1916908160001a905350600483901c925080611096906127a2565b9050611000565b50600082146110e55784846040517fe22e27eb0000000000000000000000000000000000000000000000000000000081526004016110dc9291906127cb565b60405180910390fd5b809250505092915050565b6060600060016110ff84611994565b01905060008167ffffffffffffffff81111561111e5761111d61212c565b5b6040519080825280601f01601f1916602001820160405280156111505781602001600182028036833780820191505090505b509050600082602001820190505b6001156111b3578080600190039150507f3031323334353637383961626364656600000000000000000000000000000000600a86061a8153600a85816111a7576111a66127f4565b5b0494506000850361115e575b819350505050919050565b600080858585856040516020016111d89493929190612823565b60405160208183030381529060405290506002816040516111f991906128b0565b602060405180830381855afa158015611216573d6000803e3d6000fd5b5050506040513d601f19601f8201168201806040525081019061123991906128dc565b915050949350505050565b61125e828260405180602001604052806000815250611ae7565b5050565b806006600084815260200190815260200160002090816112829190612ab5565b507ff8e1a15aba9398e019f0b49df1a4fde98ee17ae345cb5f6b5e2c27f5033e8ce7826040516112b29190612034565b60405180910390a15050565b600073ffffffffffffffffffffffffffffffffffffffff168273ffffffffffffffffffffffffffffffffffffffff160361132f57816040517f5b08ba180000000000000000000000000000000000000000000000000000000081526004016113269190611ee2565b60405180910390fd5b80600560008573ffffffffffffffffffffffffffffffffffffffff1673ffffffffffffffffffffffffffffffffffffffff16815260200190815260200160002060008473ffffffffffffffffffffffffffffffffffffffff1673ffffffffffffffffffffffffffffffffffffffff16815260200190815260200160002060006101000a81548160ff0219169083151502179055508173ffffffffffffffffffffffffffffffffffffffff168373ffffffffffffffffffffffffffffffffffffffff167f17307eab39ab6107e8899845ad3d59bd9653f200f220920489ca2b5937696c31836040516114209190611d71565b60405180910390a3505050565b60008373ffffffffffffffffffffffffffffffffffffffff163b11156115de578273ffffffffffffffffffffffffffffffffffffffff1663150b7a02611471610c76565b8685856040518563ffffffff1660e01b81526004016114939493929190612bd1565b6020604051808303816000875af19250505080156114cf57506040513d601f19601f820116820180604052508101906114cc9190612c32565b60015b611553573d80600081146114ff576040519150601f19603f3d011682016040523d82523d6000602084013e611504565b606091505b50600081510361154b57836040517f64a0ae920000000000000000000000000000000000000000000000000000000081526004016115429190611ee2565b60405180910390fd5b805181602001fd5b63150b7a0260e01b7bffffffffffffffffffffffffffffffffffffffffffffffffffffffff1916817bffffffffffffffffffffffffffffffffffffffffffffffffffffffff1916146115dc57836040517f64a0ae920000000000000000000000000000000000000000000000000000000081526004016115d39190611ee2565b60405180910390fd5b505b50505050565b606060405180602001604052806000815250905090565b606061160682610bb1565b5060006116116115e4565b90506000815111611631576040518060200160405280600081525061165c565b8061163b846110f0565b60405160200161164c92919061270d565b6040516020818303038152906040525b915050919050565b60007f01ffc9a7000000000000000000000000000000000000000000000000000000007bffffffffffffffffffffffffffffffffffffffffffffffffffffffff1916827bffffffffffffffffffffffffffffffffffffffffffffffffffffffff1916149050919050565b60006002600083815260200190815260200160002060009054906101000a900473ffffffffffffffffffffffffffffffffffffffff169050919050565b80806117445750600073ffffffffffffffffffffffffffffffffffffffff168273ffffffffffffffffffffffffffffffffffffffff1614155b1561187857600061175484610bb1565b9050600073ffffffffffffffffffffffffffffffffffffffff168373ffffffffffffffffffffffffffffffffffffffff16141580156117bf57508273ffffffffffffffffffffffffffffffffffffffff168173ffffffffffffffffffffffffffffffffffffffff1614155b80156117d257506117d08184610a1b565b155b1561181457826040517fa9fbf51f00000000000000000000000000000000000000000000000000000000815260040161180b9190611ee2565b60405180910390fd5b811561187657838573ffffffffffffffffffffffffffffffffffffffff168273ffffffffffffffffffffffffffffffffffffffff167f8c5be1e5ebec7d5bd14f71427d1e84f3dd0314c0f7b2291e5b200ac8c7c3b92560405160405180910390a45b505b836004600085815260200190815260200160002060006101000a81548173ffffffffffffffffffffffffffffffffffffffff021916908373ffffffffffffffffffffffffffffffffffffffff16021790555050505050565b6118db838383611b03565b61198f57600073ffffffffffffffffffffffffffffffffffffffff168373ffffffffffffffffffffffffffffffffffffffff160361195057806040517f7e2732890000000000000000000000000000000000000000000000000000000081526004016119479190612034565b60405180910390fd5b81816040517f177e802f000000000000000000000000000000000000000000000000000000008152600401611986929190612c5f565b60405180910390fd5b505050565b600080600090507a184f03e93ff9f4daa797ed6e38ed64bf6a1f01000000000000000083106119f2577a184f03e93ff9f4daa797ed6e38ed64bf6a1f01000000000000000083816119e8576119e76127f4565b5b0492506040810190505b6d04ee2d6d415b85acef81000000008310611a2f576d04ee2d6d415b85acef81000000008381611a2557611a246127f4565b5b0492506020810190505b662386f26fc100008310611a5e57662386f26fc100008381611a5457611a536127f4565b5b0492506010810190505b6305f5e1008310611a87576305f5e1008381611a7d57611a7c6127f4565b5b0492506008810190505b6127108310611aac576127108381611aa257611aa16127f4565b5b0492506004810190505b60648310611acf5760648381611ac557611ac46127f4565b5b0492506002810190505b600a8310611ade576001810190505b80915050919050565b611af18383611bc4565b611afe600084848461142d565b505050565b60008073ffffffffffffffffffffffffffffffffffffffff168373ffffffffffffffffffffffffffffffffffffffff1614158015611bbb57508273ffffffffffffffffffffffffffffffffffffffff168473ffffffffffffffffffffffffffffffffffffffff161480611b7c5750611b7b8484610a1b565b5b80611bba57508273ffffffffffffffffffffffffffffffffffffffff16611ba283610c39565b73ffffffffffffffffffffffffffffffffffffffff16145b5b90509392505050565b600073ffffffffffffffffffffffffffffffffffffffff168273ffffffffffffffffffffffffffffffffffffffff1603611c365760006040517f64a0ae92000000000000000000000000000000000000000000000000000000008152600401611c2d9190611ee2565b60405180910390fd5b6000611c4483836000610c90565b9050600073ffffffffffffffffffffffffffffffffffffffff168173ffffffffffffffffffffffffffffffffffffffff1614611cb85760006040517f73c6ac6e000000000000000000000000000000000000000000000000000000008152600401611caf9190611ee2565b60405180910390fd5b505050565b6000604051905090565b600080fd5b600080fd5b60007fffffffff0000000000000000000000000000000000000000000000000000000082169050919050565b611d0681611cd1565b8114611d1157600080fd5b50565b600081359050611d2381611cfd565b92915050565b600060208284031215611d3f57611d3e611cc7565b5b6000611d4d84828501611d14565b91505092915050565b60008115159050919050565b611d6b81611d56565b82525050565b6000602082019050611d866000830184611d62565b92915050565b600081519050919050565b600082825260208201905092915050565b60005b83811015611dc6578082015181840152602081019050611dab565b60008484015250505050565b6000601f19601f8301169050919050565b6000611dee82611d8c565b611df88185611d97565b9350611e08818560208601611da8565b611e1181611dd2565b840191505092915050565b60006020820190508181036000830152611e368184611de3565b905092915050565b6000819050919050565b611e5181611e3e565b8114611e5c57600080fd5b50565b600081359050611e6e81611e48565b92915050565b600060208284031215611e8a57611e89611cc7565b5b6000611e9884828501611e5f565b91505092915050565b600073ffffffffffffffffffffffffffffffffffffffff82169050919050565b6000611ecc82611ea1565b9050919050565b611edc81611ec1565b82525050565b6000602082019050611ef76000830184611ed3565b92915050565b611f0681611ec1565b8114611f1157600080fd5b50565b600081359050611f2381611efd565b92915050565b60008060408385031215611f4057611f3f611cc7565b5b6000611f4e85828601611f14565b9250506020611f5f85828601611e5f565b9150509250929050565b600080600060608486031215611f8257611f81611cc7565b5b6000611f9086828701611f14565b9350506020611fa186828701611f14565b9250506040611fb286828701611e5f565b9150509250925092565b6000611fc782611ea1565b9050919050565b611fd781611fbc565b82525050565b6000602082019050611ff26000830184611fce565b92915050565b60006020828403121561200e5761200d611cc7565b5b600061201c84828501611f14565b91505092915050565b61202e81611e3e565b82525050565b60006020820190506120496000830184612025565b92915050565b6000806000806080858703121561206957612068611cc7565b5b600061207787828801611f14565b945050602061208887828801611e5f565b935050604061209987828801611e5f565b92505060606120aa87828801611e5f565b91505092959194509250565b6120bf81611d56565b81146120ca57600080fd5b50565b6000813590506120dc816120b6565b92915050565b600080604083850312156120f9576120f8611cc7565b5b600061210785828601611f14565b9250506020612118858286016120cd565b9150509250929050565b600080fd5b600080fd5b7f4e487b7100000000000000000000000000000000000000000000000000000000600052604160045260246000fd5b61216482611dd2565b810181811067ffffffffffffffff821117156121835761218261212c565b5b80604052505050565b6000612196611cbd565b90506121a2828261215b565b919050565b600067ffffffffffffffff8211156121c2576121c161212c565b5b6121cb82611dd2565b9050602081019050919050565b82818337600083830152505050565b60006121fa6121f5846121a7565b61218c565b90508281526020810184848401111561221657612215612127565b5b6122218482856121d8565b509392505050565b600082601f83011261223e5761223d612122565b5b813561224e8482602086016121e7565b91505092915050565b6000806000806080858703121561227157612270611cc7565b5b600061227f87828801611f14565b945050602061229087828801611f14565b93505060406122a187828801611e5f565b925050606085013567ffffffffffffffff8111156122c2576122c1611ccc565b5b6122ce87828801612229565b91505092959194509250565b600080604083850312156122f1576122f0611cc7565b5b60006122ff85828601611f14565b925050602061231085828601611f14565b9150509250929050565b6000819050919050565b61232d8161231a565b811461233857600080fd5b50565b60008135905061234a81612324565b92915050565b60006020828403121561236657612365611cc7565b5b60006123748482850161233b565b91505092915050565b7f4e487b7100000000000000000000000000000000000000000000000000000000600052602260045260246000fd5b600060028204905060018216806123c457607f821691505b6020821081036123d7576123d661237d565b5b50919050565b60006060820190506123f26000830186611ed3565b6123ff6020830185612025565b61240c6040830184611ed3565b949350505050565b7f4f6e6c792044414f5f534c5220636f6e74726163742063616e2061636365737360008201527f20746869732066756e6374696f6e000000000000000000000000000000000000602082015250565b6000612470602e83611d97565b915061247b82612414565b604082019050919050565b6000602082019050818103600083015261249f81612463565b9050919050565b7f4e465420616c7265616479206372656174656400000000000000000000000000600082015250565b60006124dc601383611d97565b91506124e7826124a6565b602082019050919050565b6000602082019050818103600083015261250b816124cf565b9050919050565b600081905092915050565b7f646174613a6170706c69636174696f6e2f6a736f6e2c7b2250726f6a6563742060008201527f5469746c65223a22446f6e6174696f6e204e4654222c2264657363726970746960208201527f6f6e223a22202b2070726f6a656374735b5f70726f6a65637449645d2e70726f60408201527f6a6563744465736372697074696f6e2829202b20000000000000000000000000606082015250565b60006125c5607483612512565b91506125d08261251d565b607482019050919050565b6000819050919050565b6125f66125f182611e3e565b6125db565b82525050565b7f2045544820746f2074686520636f6e74726163742e227d000000000000000000600082015250565b6000612632601783612512565b915061263d826125fc565b601782019050919050565b6000612653826125b8565b915061265f82846125e5565b60208201915061266e82612625565b915081905092915050565b7f4e487b7100000000000000000000000000000000000000000000000000000000600052601160045260246000fd5b60006126b382611e3e565b91506126be83611e3e565b92508282019050808211156126d6576126d5612679565b5b92915050565b60006126e782611d8c565b6126f18185612512565b9350612701818560208601611da8565b80840191505092915050565b600061271982856126dc565b915061272582846126dc565b91508190509392505050565b600061273c82611e3e565b915061274783611e3e565b925082820261275581611e3e565b9150828204841483151761276c5761276b612679565b5b5092915050565b7f4e487b7100000000000000000000000000000000000000000000000000000000600052603260045260246000fd5b60006127ad82611e3e565b9150600082036127c0576127bf612679565b5b600182039050919050565b60006040820190506127e06000830185612025565b6127ed6020830184612025565b9392505050565b7f4e487b7100000000000000000000000000000000000000000000000000000000600052601260045260246000fd5b600061282f82876126dc565b915061283b82866126dc565b915061284782856125e5565b60208201915061285782846125e5565b60208201915081905095945050505050565b600081519050919050565b600081905092915050565b600061288a82612869565b6128948185612874565b93506128a4818560208601611da8565b80840191505092915050565b60006128bc828461287f565b915081905092915050565b6000815190506128d681612324565b92915050565b6000602082840312156128f2576128f1611cc7565b5b6000612900848285016128c7565b91505092915050565b60008190508160005260206000209050919050565b60006020601f8301049050919050565b600082821b905092915050565b60006008830261296b7fffffffffffffffffffffffffffffffffffffffffffffffffffffffffffffffff8261292e565b612975868361292e565b95508019841693508086168417925050509392505050565b6000819050919050565b60006129b26129ad6129a884611e3e565b61298d565b611e3e565b9050919050565b6000819050919050565b6129cc83612997565b6129e06129d8826129b9565b84845461293b565b825550505050565b600090565b6129f56129e8565b612a008184846129c3565b505050565b5b81811015612a2457612a196000826129ed565b600181019050612a06565b5050565b601f821115612a6957612a3a81612909565b612a438461291e565b81016020851015612a52578190505b612a66612a5e8561291e565b830182612a05565b50505b505050565b600082821c905092915050565b6000612a8c60001984600802612a6e565b1980831691505092915050565b6000612aa58383612a7b565b9150826002028217905092915050565b612abe82611d8c565b67ffffffffffffffff811115612ad757612ad661212c565b5b612ae182546123ac565b612aec828285612a28565b600060209050601f831160018114612b1f5760008415612b0d578287015190505b612b178582612a99565b865550612b7f565b601f198416612b2d86612909565b60005b82811015612b5557848901518255600182019150602085019450602081019050612b30565b86831015612b725784890151612b6e601f891682612a7b565b8355505b6001600288020188555050505b505050505050565b600082825260208201905092915050565b6000612ba382612869565b612bad8185612b87565b9350612bbd818560208601611da8565b612bc681611dd2565b840191505092915050565b6000608082019050612be66000830187611ed3565b612bf36020830186611ed3565b612c006040830185612025565b8181036060830152612c128184612b98565b905095945050505050565b600081519050612c2c81611cfd565b92915050565b600060208284031215612c4857612c47611cc7565b5b6000612c5684828501612c1d565b91505092915050565b6000604082019050612c746000830185611ed3565b612c816020830184612025565b939250505056fea26469706673582212207a25d69c4e1a352ff22c30cfbeaae1cdd6974f6263ed671024364dd467bec1b364736f6c63430008180033","opcodes":"PUSH1 0x80 PUSH1 0x40 MSTORE CALLVALUE DUP1 ISZERO PUSH3 0x11 JUMPI PUSH1 0x0 DUP1 REVERT JUMPDEST POP PUSH1 0x40 MLOAD PUSH3 0x31E4 CODESIZE SUB DUP1 PUSH3 0x31E4 DUP4 CODECOPY DUP2 DUP2 ADD PUSH1 0x40 MSTORE DUP2 ADD SWAP1 PUSH3 0x37 SWAP2 SWAP1 PUSH3 0x183 JUMP JUMPDEST PUSH1 0x40 MLOAD DUP1 PUSH1 0x40 ADD PUSH1 0x40 MSTORE DUP1 PUSH1 0x13 DUP2 MSTORE PUSH1 0x20 ADD PUSH32 0x534C522D446F6E6174696F6E5265636569707400000000000000000000000000 DUP2 MSTORE POP PUSH1 0x40 MLOAD DUP1 PUSH1 0x40 ADD PUSH1 0x40 MSTORE DUP1 PUSH1 0x6 DUP2 MSTORE PUSH1 0x20 ADD PUSH32 0x534C522D44520000000000000000000000000000000000000000000000000000 DUP2 MSTORE POP DUP2 PUSH1 0x0 SWAP1 DUP2 PUSH3 0xB4 SWAP2 SWAP1 PUSH3 0x42F JUMP JUMPDEST POP DUP1 PUSH1 0x1 SWAP1 DUP2 PUSH3 0xC6 SWAP2 SWAP1 PUSH3 0x42F JUMP JUMPDEST POP POP POP DUP1 PUSH1 0x8 PUSH1 0x0 PUSH2 0x100 EXP DUP2 SLOAD DUP2 PUSH20 0xFFFFFFFFFFFFFFFFFFFFFFFFFFFFFFFFFFFFFFFF MUL NOT AND SWAP1 DUP4 PUSH20 0xFFFFFFFFFFFFFFFFFFFFFFFFFFFFFFFFFFFFFFFF AND MUL OR SWAP1 SSTORE POP PUSH1 0x0 PUSH1 0x7 DUP2 SWAP1 SSTORE POP POP PUSH3 0x516 JUMP JUMPDEST PUSH1 0x0 DUP1 REVERT JUMPDEST PUSH1 0x0 PUSH20 0xFFFFFFFFFFFFFFFFFFFFFFFFFFFFFFFFFFFFFFFF DUP3 AND SWAP1 POP SWAP2 SWAP1 POP JUMP JUMPDEST PUSH1 0x0 PUSH3 0x14B DUP3 PUSH3 0x11E JUMP JUMPDEST SWAP1 POP SWAP2 SWAP1 POP JUMP JUMPDEST PUSH3 0x15D DUP2 PUSH3 0x13E JUMP JUMPDEST DUP2 EQ PUSH3 0x169 JUMPI PUSH1 0x0 DUP1 REVERT JUMPDEST POP JUMP JUMPDEST PUSH1 0x0 DUP2 MLOAD SWAP1 POP PUSH3 0x17D DUP2 PUSH3 0x152 JUMP JUMPDEST SWAP3 SWAP2 POP POP JUMP JUMPDEST PUSH1 0x0 PUSH1 0x20 DUP3 DUP5 SUB SLT ISZERO PUSH3 0x19C JUMPI PUSH3 0x19B PUSH3 0x119 JUMP JUMPDEST JUMPDEST PUSH1 0x0 PUSH3 0x1AC DUP5 DUP3 DUP6 ADD PUSH3 0x16C JUMP JUMPDEST SWAP2 POP POP SWAP3 SWAP2 POP POP JUMP JUMPDEST PUSH1 0x0 DUP2 MLOAD SWAP1 POP SWAP2 SWAP1 POP JUMP JUMPDEST PUSH32 0x4E487B7100000000000000000000000000000000000000000000000000000000 PUSH1 0x0 MSTORE PUSH1 0x41 PUSH1 0x4 MSTORE PUSH1 0x24 PUSH1 0x0 REVERT JUMPDEST PUSH32 0x4E487B7100000000000000000000000000000000000000000000000000000000 PUSH1 0x0 MSTORE PUSH1 0x22 PUSH1 0x4 MSTORE PUSH1 0x24 PUSH1 0x0 REVERT JUMPDEST PUSH1 0x0 PUSH1 0x2 DUP3 DIV SWAP1 POP PUSH1 0x1 DUP3 AND DUP1 PUSH3 0x237 JUMPI PUSH1 0x7F DUP3 AND SWAP2 POP JUMPDEST PUSH1 0x20 DUP3 LT DUP2 SUB PUSH3 0x24D JUMPI PUSH3 0x24C PUSH3 0x1EF JUMP JUMPDEST JUMPDEST POP SWAP2 SWAP1 POP JUMP JUMPDEST PUSH1 0x0 DUP2 SWAP1 POP DUP2 PUSH1 0x0 MSTORE PUSH1 0x20 PUSH1 0x0 KECCAK256 SWAP1 POP SWAP2 SWAP1 POP JUMP JUMPDEST PUSH1 0x0 PUSH1 0x20 PUSH1 0x1F DUP4 ADD DIV SWAP1 POP SWAP2 SWAP1 POP JUMP JUMPDEST PUSH1 0x0 DUP3 DUP3 SHL SWAP1 POP SWAP3 SWAP2 POP POP JUMP JUMPDEST PUSH1 0x0 PUSH1 0x8 DUP4 MUL PUSH3 0x2B7 PUSH32 0xFFFFFFFFFFFFFFFFFFFFFFFFFFFFFFFFFFFFFFFFFFFFFFFFFFFFFFFFFFFFFFFF DUP3 PUSH3 0x278 JUMP JUMPDEST PUSH3 0x2C3 DUP7 DUP4 PUSH3 0x278 JUMP JUMPDEST SWAP6 POP DUP1 NOT DUP5 AND SWAP4 POP DUP1 DUP7 AND DUP5 OR SWAP3 POP POP POP SWAP4 SWAP3 POP POP POP JUMP JUMPDEST PUSH1 0x0 DUP2 SWAP1 POP SWAP2 SWAP1 POP JUMP JUMPDEST PUSH1 0x0 DUP2 SWAP1 POP SWAP2 SWAP1 POP JUMP JUMPDEST PUSH1 0x0 PUSH3 0x310 PUSH3 0x30A PUSH3 0x304 DUP5 PUSH3 0x2DB JUMP JUMPDEST PUSH3 0x2E5 JUMP JUMPDEST PUSH3 0x2DB JUMP JUMPDEST SWAP1 POP SWAP2 SWAP1 POP JUMP JUMPDEST PUSH1 0x0 DUP2 SWAP1 POP SWAP2 SWAP1 POP JUMP JUMPDEST PUSH3 0x32C DUP4 PUSH3 0x2EF JUMP JUMPDEST PUSH3 0x344 PUSH3 0x33B DUP3 PUSH3 0x317 JUMP JUMPDEST DUP5 DUP5 SLOAD PUSH3 0x285 JUMP JUMPDEST DUP3 SSTORE POP POP POP POP JUMP JUMPDEST PUSH1 0x0 SWAP1 JUMP JUMPDEST PUSH3 0x35B PUSH3 0x34C JUMP JUMPDEST PUSH3 0x368 DUP2 DUP5 DUP5 PUSH3 0x321 JUMP JUMPDEST POP POP POP JUMP JUMPDEST JUMPDEST DUP2 DUP2 LT ISZERO PUSH3 0x390 JUMPI PUSH3 0x384 PUSH1 0x0 DUP3 PUSH3 0x351 JUMP JUMPDEST PUSH1 0x1 DUP2 ADD SWAP1 POP PUSH3 0x36E JUMP JUMPDEST POP POP JUMP JUMPDEST PUSH1 0x1F DUP3 GT ISZERO PUSH3 0x3DF JUMPI PUSH3 0x3A9 DUP2 PUSH3 0x253 JUMP JUMPDEST PUSH3 0x3B4 DUP5 PUSH3 0x268 JUMP JUMPDEST DUP2 ADD PUSH1 0x20 DUP6 LT ISZERO PUSH3 0x3C4 JUMPI DUP2 SWAP1 POP JUMPDEST PUSH3 0x3DC PUSH3 0x3D3 DUP6 PUSH3 0x268 JUMP JUMPDEST DUP4 ADD DUP3 PUSH3 0x36D JUMP JUMPDEST POP POP JUMPDEST POP POP POP JUMP JUMPDEST PUSH1 0x0 DUP3 DUP3 SHR SWAP1 POP SWAP3 SWAP2 POP POP JUMP JUMPDEST PUSH1 0x0 PUSH3 0x404 PUSH1 0x0 NOT DUP5 PUSH1 0x8 MUL PUSH3 0x3E4 JUMP JUMPDEST NOT DUP1 DUP4 AND SWAP2 POP POP SWAP3 SWAP2 POP POP JUMP JUMPDEST PUSH1 0x0 PUSH3 0x41F DUP4 DUP4 PUSH3 0x3F1 JUMP JUMPDEST SWAP2 POP DUP3 PUSH1 0x2 MUL DUP3 OR SWAP1 POP SWAP3 SWAP2 POP POP JUMP JUMPDEST PUSH3 0x43A DUP3 PUSH3 0x1B5 JUMP JUMPDEST PUSH8 0xFFFFFFFFFFFFFFFF DUP2 GT ISZERO PUSH3 0x456 JUMPI PUSH3 0x455 PUSH3 0x1C0 JUMP JUMPDEST JUMPDEST PUSH3 0x462 DUP3 SLOAD PUSH3 0x21E JUMP JUMPDEST PUSH3 0x46F DUP3 DUP3 DUP6 PUSH3 0x394 JUMP JUMPDEST PUSH1 0x0 PUSH1 0x20 SWAP1 POP PUSH1 0x1F DUP4 GT PUSH1 0x1 DUP2 EQ PUSH3 0x4A7 JUMPI PUSH1 0x0 DUP5 ISZERO PUSH3 0x492 JUMPI DUP3 DUP8 ADD MLOAD SWAP1 POP JUMPDEST PUSH3 0x49E DUP6 DUP3 PUSH3 0x411 JUMP JUMPDEST DUP7 SSTORE POP PUSH3 0x50E JUMP JUMPDEST PUSH1 0x1F NOT DUP5 AND PUSH3 0x4B7 DUP7 PUSH3 0x253 JUMP JUMPDEST PUSH1 0x0 JUMPDEST DUP3 DUP2 LT ISZERO PUSH3 0x4E1 JUMPI DUP5 DUP10 ADD MLOAD DUP3 SSTORE PUSH1 0x1 DUP3 ADD SWAP2 POP PUSH1 0x20 DUP6 ADD SWAP5 POP PUSH1 0x20 DUP2 ADD SWAP1 POP PUSH3 0x4BA JUMP JUMPDEST DUP7 DUP4 LT ISZERO PUSH3 0x501 JUMPI DUP5 DUP10 ADD MLOAD PUSH3 0x4FD PUSH1 0x1F DUP10 AND DUP3 PUSH3 0x3F1 JUMP JUMPDEST DUP4 SSTORE POP JUMPDEST PUSH1 0x1 PUSH1 0x2 DUP9 MUL ADD DUP9 SSTORE POP POP POP JUMPDEST POP POP POP POP POP POP JUMP JUMPDEST PUSH2 0x2CBE DUP1 PUSH3 0x526 PUSH1 0x0 CODECOPY PUSH1 0x0 RETURN INVALID PUSH1 0x80 PUSH1 0x40 MSTORE CALLVALUE DUP1 ISZERO PUSH2 0x10 JUMPI PUSH1 0x0 DUP1 REVERT JUMPDEST POP PUSH1 0x4 CALLDATASIZE LT PUSH2 0x100 JUMPI PUSH1 0x0 CALLDATALOAD PUSH1 0xE0 SHR DUP1 PUSH4 0x70A08231 GT PUSH2 0x97 JUMPI DUP1 PUSH4 0xB88D4FDE GT PUSH2 0x66 JUMPI DUP1 PUSH4 0xB88D4FDE EQ PUSH2 0x2AB JUMPI DUP1 PUSH4 0xC87B56DD EQ PUSH2 0x2C7 JUMPI DUP1 PUSH4 0xE985E9C5 EQ PUSH2 0x2F7 JUMPI DUP1 PUSH4 0xF97203AF EQ PUSH2 0x327 JUMPI PUSH2 0x100 JUMP JUMPDEST DUP1 PUSH4 0x70A08231 EQ PUSH2 0x225 JUMPI DUP1 PUSH4 0x95D89B41 EQ PUSH2 0x255 JUMPI DUP1 PUSH4 0xA16297A0 EQ PUSH2 0x273 JUMPI DUP1 PUSH4 0xA22CB465 EQ PUSH2 0x28F JUMPI PUSH2 0x100 JUMP JUMPDEST DUP1 PUSH4 0x23B872DD GT PUSH2 0xD3 JUMPI DUP1 PUSH4 0x23B872DD EQ PUSH2 0x19F JUMPI DUP1 PUSH4 0x4162169F EQ PUSH2 0x1BB JUMPI DUP1 PUSH4 0x42842E0E EQ PUSH2 0x1D9 JUMPI DUP1 PUSH4 0x6352211E EQ PUSH2 0x1F5 JUMPI PUSH2 0x100 JUMP JUMPDEST DUP1 PUSH4 0x1FFC9A7 EQ PUSH2 0x105 JUMPI DUP1 PUSH4 0x6FDDE03 EQ PUSH2 0x135 JUMPI DUP1 PUSH4 0x81812FC EQ PUSH2 0x153 JUMPI DUP1 PUSH4 0x95EA7B3 EQ PUSH2 0x183 JUMPI JUMPDEST PUSH1 0x0 DUP1 REVERT JUMPDEST PUSH2 0x11F PUSH1 0x4 DUP1 CALLDATASIZE SUB DUP2 ADD SWAP1 PUSH2 0x11A SWAP2 SWAP1 PUSH2 0x1D29 JUMP JUMPDEST PUSH2 0x357 JUMP JUMPDEST PUSH1 0x40 MLOAD PUSH2 0x12C SWAP2 SWAP1 PUSH2 0x1D71 JUMP JUMPDEST PUSH1 0x40 MLOAD DUP1 SWAP2 SUB SWAP1 RETURN JUMPDEST PUSH2 0x13D PUSH2 0x3B8 JUMP JUMPDEST PUSH1 0x40 MLOAD PUSH2 0x14A SWAP2 SWAP1 PUSH2 0x1E1C JUMP JUMPDEST PUSH1 0x40 MLOAD DUP1 SWAP2 SUB SWAP1 RETURN JUMPDEST PUSH2 0x16D PUSH1 0x4 DUP1 CALLDATASIZE SUB DUP2 ADD SWAP1 PUSH2 0x168 SWAP2 SWAP1 PUSH2 0x1E74 JUMP JUMPDEST PUSH2 0x44A JUMP JUMPDEST PUSH1 0x40 MLOAD PUSH2 0x17A SWAP2 SWAP1 PUSH2 0x1EE2 JUMP JUMPDEST PUSH1 0x40 MLOAD DUP1 SWAP2 SUB SWAP1 RETURN JUMPDEST PUSH2 0x19D PUSH1 0x4 DUP1 CALLDATASIZE SUB DUP2 ADD SWAP1 PUSH2 0x198 SWAP2 SWAP1 PUSH2 0x1F29 JUMP JUMPDEST PUSH2 0x466 JUMP JUMPDEST STOP JUMPDEST PUSH2 0x1B9 PUSH1 0x4 DUP1 CALLDATASIZE SUB DUP2 ADD SWAP1 PUSH2 0x1B4 SWAP2 SWAP1 PUSH2 0x1F69 JUMP JUMPDEST PUSH2 0x47C JUMP JUMPDEST STOP JUMPDEST PUSH2 0x1C3 PUSH2 0x57E JUMP JUMPDEST PUSH1 0x40 MLOAD PUSH2 0x1D0 SWAP2 SWAP1 PUSH2 0x1FDD JUMP JUMPDEST PUSH1 0x40 MLOAD DUP1 SWAP2 SUB SWAP1 RETURN JUMPDEST PUSH2 0x1F3 PUSH1 0x4 DUP1 CALLDATASIZE SUB DUP2 ADD SWAP1 PUSH2 0x1EE SWAP2 SWAP1 PUSH2 0x1F69 JUMP JUMPDEST PUSH2 0x5A4 JUMP JUMPDEST STOP JUMPDEST PUSH2 0x20F PUSH1 0x4 DUP1 CALLDATASIZE SUB DUP2 ADD SWAP1 PUSH2 0x20A SWAP2 SWAP1 PUSH2 0x1E74 JUMP JUMPDEST PUSH2 0x5C4 JUMP JUMPDEST PUSH1 0x40 MLOAD PUSH2 0x21C SWAP2 SWAP1 PUSH2 0x1EE2 JUMP JUMPDEST PUSH1 0x40 MLOAD DUP1 SWAP2 SUB SWAP1 RETURN JUMPDEST PUSH2 0x23F PUSH1 0x4 DUP1 CALLDATASIZE SUB DUP2 ADD SWAP1 PUSH2 0x23A SWAP2 SWAP1 PUSH2 0x1FF8 JUMP JUMPDEST PUSH2 0x5D6 JUMP JUMPDEST PUSH1 0x40 MLOAD PUSH2 0x24C SWAP2 SWAP1 PUSH2 0x2034 JUMP JUMPDEST PUSH1 0x40 MLOAD DUP1 SWAP2 SUB SWAP1 RETURN JUMPDEST PUSH2 0x25D PUSH2 0x690 JUMP JUMPDEST PUSH1 0x40 MLOAD PUSH2 0x26A SWAP2 SWAP1 PUSH2 0x1E1C JUMP JUMPDEST PUSH1 0x40 MLOAD DUP1 SWAP2 SUB SWAP1 RETURN JUMPDEST PUSH2 0x28D PUSH1 0x4 DUP1 CALLDATASIZE SUB DUP2 ADD SWAP1 PUSH2 0x288 SWAP2 SWAP1 PUSH2 0x204F JUMP JUMPDEST PUSH2 0x722 JUMP JUMPDEST STOP JUMPDEST PUSH2 0x2A9 PUSH1 0x4 DUP1 CALLDATASIZE SUB DUP2 ADD SWAP1 PUSH2 0x2A4 SWAP2 SWAP1 PUSH2 0x20E2 JUMP JUMPDEST PUSH2 0x8D5 JUMP JUMPDEST STOP JUMPDEST PUSH2 0x2C5 PUSH1 0x4 DUP1 CALLDATASIZE SUB DUP2 ADD SWAP1 PUSH2 0x2C0 SWAP2 SWAP1 PUSH2 0x2257 JUMP JUMPDEST PUSH2 0x8EB JUMP JUMPDEST STOP JUMPDEST PUSH2 0x2E1 PUSH1 0x4 DUP1 CALLDATASIZE SUB DUP2 ADD SWAP1 PUSH2 0x2DC SWAP2 SWAP1 PUSH2 0x1E74 JUMP JUMPDEST PUSH2 0x908 JUMP JUMPDEST PUSH1 0x40 MLOAD PUSH2 0x2EE SWAP2 SWAP1 PUSH2 0x1E1C JUMP JUMPDEST PUSH1 0x40 MLOAD DUP1 SWAP2 SUB SWAP1 RETURN JUMPDEST PUSH2 0x311 PUSH1 0x4 DUP1 CALLDATASIZE SUB DUP2 ADD SWAP1 PUSH2 0x30C SWAP2 SWAP1 PUSH2 0x22DA JUMP JUMPDEST PUSH2 0xA1B JUMP JUMPDEST PUSH1 0x40 MLOAD PUSH2 0x31E SWAP2 SWAP1 PUSH2 0x1D71 JUMP JUMPDEST PUSH1 0x40 MLOAD DUP1 SWAP2 SUB SWAP1 RETURN JUMPDEST PUSH2 0x341 PUSH1 0x4 DUP1 CALLDATASIZE SUB DUP2 ADD SWAP1 PUSH2 0x33C SWAP2 SWAP1 PUSH2 0x2350 JUMP JUMPDEST PUSH2 0xAAF JUMP JUMPDEST PUSH1 0x40 MLOAD PUSH2 0x34E SWAP2 SWAP1 PUSH2 0x1D71 JUMP JUMPDEST PUSH1 0x40 MLOAD DUP1 SWAP2 SUB SWAP1 RETURN JUMPDEST PUSH1 0x0 PUSH4 0x49064906 PUSH1 0xE0 SHL PUSH28 0xFFFFFFFFFFFFFFFFFFFFFFFFFFFFFFFFFFFFFFFFFFFFFFFFFFFFFFFF NOT AND DUP3 PUSH28 0xFFFFFFFFFFFFFFFFFFFFFFFFFFFFFFFFFFFFFFFFFFFFFFFFFFFFFFFF NOT AND EQ DUP1 PUSH2 0x3B1 JUMPI POP PUSH2 0x3B0 DUP3 PUSH2 0xACF JUMP JUMPDEST JUMPDEST SWAP1 POP SWAP2 SWAP1 POP JUMP JUMPDEST PUSH1 0x60 PUSH1 0x0 DUP1 SLOAD PUSH2 0x3C7 SWAP1 PUSH2 0x23AC JUMP JUMPDEST DUP1 PUSH1 0x1F ADD PUSH1 0x20 DUP1 SWAP2 DIV MUL PUSH1 0x20 ADD PUSH1 0x40 MLOAD SWAP1 DUP2 ADD PUSH1 0x40 MSTORE DUP1 SWAP3 SWAP2 SWAP1 DUP2 DUP2 MSTORE PUSH1 0x20 ADD DUP3 DUP1 SLOAD PUSH2 0x3F3 SWAP1 PUSH2 0x23AC JUMP JUMPDEST DUP1 ISZERO PUSH2 0x440 JUMPI DUP1 PUSH1 0x1F LT PUSH2 0x415 JUMPI PUSH2 0x100 DUP1 DUP4 SLOAD DIV MUL DUP4 MSTORE SWAP2 PUSH1 0x20 ADD SWAP2 PUSH2 0x440 JUMP JUMPDEST DUP3 ADD SWAP2 SWAP1 PUSH1 0x0 MSTORE PUSH1 0x20 PUSH1 0x0 KECCAK256 SWAP1 JUMPDEST DUP2 SLOAD DUP2 MSTORE SWAP1 PUSH1 0x1 ADD SWAP1 PUSH1 0x20 ADD DUP1 DUP4 GT PUSH2 0x423 JUMPI DUP3 SWAP1 SUB PUSH1 0x1F AND DUP3 ADD SWAP2 JUMPDEST POP POP POP POP POP SWAP1 POP SWAP1 JUMP JUMPDEST PUSH1 0x0 PUSH2 0x455 DUP3 PUSH2 0xBB1 JUMP JUMPDEST POP PUSH2 0x45F DUP3 PUSH2 0xC39 JUMP JUMPDEST SWAP1 POP SWAP2 SWAP1 POP JUMP JUMPDEST PUSH2 0x478 DUP3 DUP3 PUSH2 0x473 PUSH2 0xC76 JUMP JUMPDEST PUSH2 0xC7E JUMP JUMPDEST POP POP JUMP JUMPDEST PUSH1 0x0 PUSH20 0xFFFFFFFFFFFFFFFFFFFFFFFFFFFFFFFFFFFFFFFF AND DUP3 PUSH20 0xFFFFFFFFFFFFFFFFFFFFFFFFFFFFFFFFFFFFFFFF AND SUB PUSH2 0x4EE JUMPI PUSH1 0x0 PUSH1 0x40 MLOAD PUSH32 0x64A0AE9200000000000000000000000000000000000000000000000000000000 DUP2 MSTORE PUSH1 0x4 ADD PUSH2 0x4E5 SWAP2 SWAP1 PUSH2 0x1EE2 JUMP JUMPDEST PUSH1 0x40 MLOAD DUP1 SWAP2 SUB SWAP1 REVERT JUMPDEST PUSH1 0x0 PUSH2 0x502 DUP4 DUP4 PUSH2 0x4FD PUSH2 0xC76 JUMP JUMPDEST PUSH2 0xC90 JUMP JUMPDEST SWAP1 POP DUP4 PUSH20 0xFFFFFFFFFFFFFFFFFFFFFFFFFFFFFFFFFFFFFFFF AND DUP2 PUSH20 0xFFFFFFFFFFFFFFFFFFFFFFFFFFFFFFFFFFFFFFFF AND EQ PUSH2 0x578 JUMPI DUP4 DUP3 DUP3 PUSH1 0x40 MLOAD PUSH32 0x64283D7B00000000000000000000000000000000000000000000000000000000 DUP2 MSTORE PUSH1 0x4 ADD PUSH2 0x56F SWAP4 SWAP3 SWAP2 SWAP1 PUSH2 0x23DD JUMP JUMPDEST PUSH1 0x40 MLOAD DUP1 SWAP2 SUB SWAP1 REVERT JUMPDEST POP POP POP POP JUMP JUMPDEST PUSH1 0x8 PUSH1 0x0 SWAP1 SLOAD SWAP1 PUSH2 0x100 EXP SWAP1 DIV PUSH20 0xFFFFFFFFFFFFFFFFFFFFFFFFFFFFFFFFFFFFFFFF AND DUP2 JUMP JUMPDEST PUSH2 0x5BF DUP4 DUP4 DUP4 PUSH1 0x40 MLOAD DUP1 PUSH1 0x20 ADD PUSH1 0x40 MSTORE DUP1 PUSH1 0x0 DUP2 MSTORE POP PUSH2 0x8EB JUMP JUMPDEST POP POP POP JUMP JUMPDEST PUSH1 0x0 PUSH2 0x5CF DUP3 PUSH2 0xBB1 JUMP JUMPDEST SWAP1 POP SWAP2 SWAP1 POP JUMP JUMPDEST PUSH1 0x0 DUP1 PUSH20 0xFFFFFFFFFFFFFFFFFFFFFFFFFFFFFFFFFFFFFFFF AND DUP3 PUSH20 0xFFFFFFFFFFFFFFFFFFFFFFFFFFFFFFFFFFFFFFFF AND SUB PUSH2 0x649 JUMPI PUSH1 0x0 PUSH1 0x40 MLOAD PUSH32 0x89C62B6400000000000000000000000000000000000000000000000000000000 DUP2 MSTORE PUSH1 0x4 ADD PUSH2 0x640 SWAP2 SWAP1 PUSH2 0x1EE2 JUMP JUMPDEST PUSH1 0x40 MLOAD DUP1 SWAP2 SUB SWAP1 REVERT JUMPDEST PUSH1 0x3 PUSH1 0x0 DUP4 PUSH20 0xFFFFFFFFFFFFFFFFFFFFFFFFFFFFFFFFFFFFFFFF AND PUSH20 0xFFFFFFFFFFFFFFFFFFFFFFFFFFFFFFFFFFFFFFFF AND DUP2 MSTORE PUSH1 0x20 ADD SWAP1 DUP2 MSTORE PUSH1 0x20 ADD PUSH1 0x0 KECCAK256 SLOAD SWAP1 POP SWAP2 SWAP1 POP JUMP JUMPDEST PUSH1 0x60 PUSH1 0x1 DUP1 SLOAD PUSH2 0x69F SWAP1 PUSH2 0x23AC JUMP JUMPDEST DUP1 PUSH1 0x1F ADD PUSH1 0x20 DUP1 SWAP2 DIV MUL PUSH1 0x20 ADD PUSH1 0x40 MLOAD SWAP1 DUP2 ADD PUSH1 0x40 MSTORE DUP1 SWAP3 SWAP2 SWAP1 DUP2 DUP2 MSTORE PUSH1 0x20 ADD DUP3 DUP1 SLOAD PUSH2 0x6CB SWAP1 PUSH2 0x23AC JUMP JUMPDEST DUP1 ISZERO PUSH2 0x718 JUMPI DUP1 PUSH1 0x1F LT PUSH2 0x6ED JUMPI PUSH2 0x100 DUP1 DUP4 SLOAD DIV MUL DUP4 MSTORE SWAP2 PUSH1 0x20 ADD SWAP2 PUSH2 0x718 JUMP JUMPDEST DUP3 ADD SWAP2 SWAP1 PUSH1 0x0 MSTORE PUSH1 0x20 PUSH1 0x0 KECCAK256 SWAP1 JUMPDEST DUP2 SLOAD DUP2 MSTORE SWAP1 PUSH1 0x1 ADD SWAP1 PUSH1 0x20 ADD DUP1 DUP4 GT PUSH2 0x6FB JUMPI DUP3 SWAP1 SUB PUSH1 0x1F AND DUP3 ADD SWAP2 JUMPDEST POP POP POP POP POP SWAP1 POP SWAP1 JUMP JUMPDEST PUSH1 0x8 PUSH1 0x0 SWAP1 SLOAD SWAP1 PUSH2 0x100 EXP SWAP1 DIV PUSH20 0xFFFFFFFFFFFFFFFFFFFFFFFFFFFFFFFFFFFFFFFF AND PUSH20 0xFFFFFFFFFFFFFFFFFFFFFFFFFFFFFFFFFFFFFFFF AND CALLER PUSH20 0xFFFFFFFFFFFFFFFFFFFFFFFFFFFFFFFFFFFFFFFF AND EQ PUSH2 0x7B2 JUMPI PUSH1 0x40 MLOAD PUSH32 0x8C379A000000000000000000000000000000000000000000000000000000000 DUP2 MSTORE PUSH1 0x4 ADD PUSH2 0x7A9 SWAP1 PUSH2 0x2486 JUMP JUMPDEST PUSH1 0x40 MLOAD DUP1 SWAP2 SUB SWAP1 REVERT JUMPDEST PUSH1 0x0 PUSH2 0x7E8 PUSH2 0x7D8 DUP7 PUSH20 0xFFFFFFFFFFFFFFFFFFFFFFFFFFFFFFFFFFFFFFFF AND PUSH1 0x14 PUSH2 0xEAA JUMP JUMPDEST PUSH2 0x7E1 DUP7 PUSH2 0x10F0 JUMP JUMPDEST DUP6 DUP6 PUSH2 0x11BE JUMP JUMPDEST SWAP1 POP PUSH1 0x9 PUSH1 0x0 DUP3 DUP2 MSTORE PUSH1 0x20 ADD SWAP1 DUP2 MSTORE PUSH1 0x20 ADD PUSH1 0x0 KECCAK256 PUSH1 0x0 SWAP1 SLOAD SWAP1 PUSH2 0x100 EXP SWAP1 DIV PUSH1 0xFF AND ISZERO PUSH2 0x84B JUMPI PUSH1 0x40 MLOAD PUSH32 0x8C379A000000000000000000000000000000000000000000000000000000000 DUP2 MSTORE PUSH1 0x4 ADD PUSH2 0x842 SWAP1 PUSH2 0x24F2 JUMP JUMPDEST PUSH1 0x40 MLOAD DUP1 SWAP2 SUB SWAP1 REVERT JUMPDEST PUSH1 0x1 PUSH1 0x9 PUSH1 0x0 DUP4 DUP2 MSTORE PUSH1 0x20 ADD SWAP1 DUP2 MSTORE PUSH1 0x20 ADD PUSH1 0x0 KECCAK256 PUSH1 0x0 PUSH2 0x100 EXP DUP2 SLOAD DUP2 PUSH1 0xFF MUL NOT AND SWAP1 DUP4 ISZERO ISZERO MUL OR SWAP1 SSTORE POP PUSH2 0x883 DUP6 PUSH1 0x7 SLOAD PUSH2 0x1244 JUMP JUMPDEST PUSH1 0x0 DUP4 PUSH1 0x40 MLOAD PUSH1 0x20 ADD PUSH2 0x896 SWAP2 SWAP1 PUSH2 0x2648 JUMP JUMPDEST PUSH1 0x40 MLOAD PUSH1 0x20 DUP2 DUP4 SUB SUB DUP2 MSTORE SWAP1 PUSH1 0x40 MSTORE SWAP1 POP PUSH2 0x8B3 PUSH1 0x7 SLOAD DUP3 PUSH2 0x1262 JUMP JUMPDEST PUSH1 0x1 PUSH1 0x7 PUSH1 0x0 DUP3 DUP3 SLOAD PUSH2 0x8C6 SWAP2 SWAP1 PUSH2 0x26A8 JUMP JUMPDEST SWAP3 POP POP DUP2 SWAP1 SSTORE POP POP POP POP POP POP POP JUMP JUMPDEST PUSH2 0x8E7 PUSH2 0x8E0 PUSH2 0xC76 JUMP JUMPDEST DUP4 DUP4 PUSH2 0x12BE JUMP JUMPDEST POP POP JUMP JUMPDEST PUSH2 0x8F6 DUP5 DUP5 DUP5 PUSH2 0x47C JUMP JUMPDEST PUSH2 0x902 DUP5 DUP5 DUP5 DUP5 PUSH2 0x142D JUMP JUMPDEST POP POP POP POP JUMP JUMPDEST PUSH1 0x60 PUSH2 0x913 DUP3 PUSH2 0xBB1 JUMP JUMPDEST POP PUSH1 0x0 PUSH1 0x6 PUSH1 0x0 DUP5 DUP2 MSTORE PUSH1 0x20 ADD SWAP1 DUP2 MSTORE PUSH1 0x20 ADD PUSH1 0x0 KECCAK256 DUP1 SLOAD PUSH2 0x934 SWAP1 PUSH2 0x23AC JUMP JUMPDEST DUP1 PUSH1 0x1F ADD PUSH1 0x20 DUP1 SWAP2 DIV MUL PUSH1 0x20 ADD PUSH1 0x40 MLOAD SWAP1 DUP2 ADD PUSH1 0x40 MSTORE DUP1 SWAP3 SWAP2 SWAP1 DUP2 DUP2 MSTORE PUSH1 0x20 ADD DUP3 DUP1 SLOAD PUSH2 0x960 SWAP1 PUSH2 0x23AC JUMP JUMPDEST DUP1 ISZERO PUSH2 0x9AD JUMPI DUP1 PUSH1 0x1F LT PUSH2 0x982 JUMPI PUSH2 0x100 DUP1 DUP4 SLOAD DIV MUL DUP4 MSTORE SWAP2 PUSH1 0x20 ADD SWAP2 PUSH2 0x9AD JUMP JUMPDEST DUP3 ADD SWAP2 SWAP1 PUSH1 0x0 MSTORE PUSH1 0x20 PUSH1 0x0 KECCAK256 SWAP1 JUMPDEST DUP2 SLOAD DUP2 MSTORE SWAP1 PUSH1 0x1 ADD SWAP1 PUSH1 0x20 ADD DUP1 DUP4 GT PUSH2 0x990 JUMPI DUP3 SWAP1 SUB PUSH1 0x1F AND DUP3 ADD SWAP2 JUMPDEST POP POP POP POP POP SWAP1 POP PUSH1 0x0 PUSH2 0x9BE PUSH2 0x15E4 JUMP JUMPDEST SWAP1 POP PUSH1 0x0 DUP2 MLOAD SUB PUSH2 0x9D3 JUMPI DUP2 SWAP3 POP POP POP PUSH2 0xA16 JUMP JUMPDEST PUSH1 0x0 DUP3 MLOAD GT ISZERO PUSH2 0xA08 JUMPI DUP1 DUP3 PUSH1 0x40 MLOAD PUSH1 0x20 ADD PUSH2 0x9F0 SWAP3 SWAP2 SWAP1 PUSH2 0x270D JUMP JUMPDEST PUSH1 0x40 MLOAD PUSH1 0x20 DUP2 DUP4 SUB SUB DUP2 MSTORE SWAP1 PUSH1 0x40 MSTORE SWAP3 POP POP POP PUSH2 0xA16 JUMP JUMPDEST PUSH2 0xA11 DUP5 PUSH2 0x15FB JUMP JUMPDEST SWAP3 POP POP POP JUMPDEST SWAP2 SWAP1 POP JUMP JUMPDEST PUSH1 0x0 PUSH1 0x5 PUSH1 0x0 DUP5 PUSH20 0xFFFFFFFFFFFFFFFFFFFFFFFFFFFFFFFFFFFFFFFF AND PUSH20 0xFFFFFFFFFFFFFFFFFFFFFFFFFFFFFFFFFFFFFFFF AND DUP2 MSTORE PUSH1 0x20 ADD SWAP1 DUP2 MSTORE PUSH1 0x20 ADD PUSH1 0x0 KECCAK256 PUSH1 0x0 DUP4 PUSH20 0xFFFFFFFFFFFFFFFFFFFFFFFFFFFFFFFFFFFFFFFF AND PUSH20 0xFFFFFFFFFFFFFFFFFFFFFFFFFFFFFFFFFFFFFFFF AND DUP2 MSTORE PUSH1 0x20 ADD SWAP1 DUP2 MSTORE PUSH1 0x20 ADD PUSH1 0x0 KECCAK256 PUSH1 0x0 SWAP1 SLOAD SWAP1 PUSH2 0x100 EXP SWAP1 DIV PUSH1 0xFF AND SWAP1 POP SWAP3 SWAP2 POP POP JUMP JUMPDEST PUSH1 0x9 PUSH1 0x20 MSTORE DUP1 PUSH1 0x0 MSTORE PUSH1 0x40 PUSH1 0x0 KECCAK256 PUSH1 0x0 SWAP2 POP SLOAD SWAP1 PUSH2 0x100 EXP SWAP1 DIV PUSH1 0xFF AND DUP2 JUMP JUMPDEST PUSH1 0x0 PUSH32 0x80AC58CD00000000000000000000000000000000000000000000000000000000 PUSH28 0xFFFFFFFFFFFFFFFFFFFFFFFFFFFFFFFFFFFFFFFFFFFFFFFFFFFFFFFF NOT AND DUP3 PUSH28 0xFFFFFFFFFFFFFFFFFFFFFFFFFFFFFFFFFFFFFFFFFFFFFFFFFFFFFFFF NOT AND EQ DUP1 PUSH2 0xB9A JUMPI POP PUSH32 0x5B5E139F00000000000000000000000000000000000000000000000000000000 PUSH28 0xFFFFFFFFFFFFFFFFFFFFFFFFFFFFFFFFFFFFFFFFFFFFFFFFFFFFFFFF NOT AND DUP3 PUSH28 0xFFFFFFFFFFFFFFFFFFFFFFFFFFFFFFFFFFFFFFFFFFFFFFFFFFFFFFFF NOT AND EQ JUMPDEST DUP1 PUSH2 0xBAA JUMPI POP PUSH2 0xBA9 DUP3 PUSH2 0x1664 JUMP JUMPDEST JUMPDEST SWAP1 POP SWAP2 SWAP1 POP JUMP JUMPDEST PUSH1 0x0 DUP1 PUSH2 0xBBD DUP4 PUSH2 0x16CE JUMP JUMPDEST SWAP1 POP PUSH1 0x0 PUSH20 0xFFFFFFFFFFFFFFFFFFFFFFFFFFFFFFFFFFFFFFFF AND DUP2 PUSH20 0xFFFFFFFFFFFFFFFFFFFFFFFFFFFFFFFFFFFFFFFF AND SUB PUSH2 0xC30 JUMPI DUP3 PUSH1 0x40 MLOAD PUSH32 0x7E27328900000000000000000000000000000000000000000000000000000000 DUP2 MSTORE PUSH1 0x4 ADD PUSH2 0xC27 SWAP2 SWAP1 PUSH2 0x2034 JUMP JUMPDEST PUSH1 0x40 MLOAD DUP1 SWAP2 SUB SWAP1 REVERT JUMPDEST DUP1 SWAP2 POP POP SWAP2 SWAP1 POP JUMP JUMPDEST PUSH1 0x0 PUSH1 0x4 PUSH1 0x0 DUP4 DUP2 MSTORE PUSH1 0x20 ADD SWAP1 DUP2 MSTORE PUSH1 0x20 ADD PUSH1 0x0 KECCAK256 PUSH1 0x0 SWAP1 SLOAD SWAP1 PUSH2 0x100 EXP SWAP1 DIV PUSH20 0xFFFFFFFFFFFFFFFFFFFFFFFFFFFFFFFFFFFFFFFF AND SWAP1 POP SWAP2 SWAP1 POP JUMP JUMPDEST PUSH1 0x0 CALLER SWAP1 POP SWAP1 JUMP JUMPDEST PUSH2 0xC8B DUP4 DUP4 DUP4 PUSH1 0x1 PUSH2 0x170B JUMP JUMPDEST POP POP POP JUMP JUMPDEST PUSH1 0x0 DUP1 PUSH2 0xC9C DUP5 PUSH2 0x16CE JUMP JUMPDEST SWAP1 POP PUSH1 0x0 PUSH20 0xFFFFFFFFFFFFFFFFFFFFFFFFFFFFFFFFFFFFFFFF AND DUP4 PUSH20 0xFFFFFFFFFFFFFFFFFFFFFFFFFFFFFFFFFFFFFFFF AND EQ PUSH2 0xCDE JUMPI PUSH2 0xCDD DUP2 DUP5 DUP7 PUSH2 0x18D0 JUMP JUMPDEST JUMPDEST PUSH1 0x0 PUSH20 0xFFFFFFFFFFFFFFFFFFFFFFFFFFFFFFFFFFFFFFFF AND DUP2 PUSH20 0xFFFFFFFFFFFFFFFFFFFFFFFFFFFFFFFFFFFFFFFF AND EQ PUSH2 0xD6F JUMPI PUSH2 0xD20 PUSH1 0x0 DUP6 PUSH1 0x0 DUP1 PUSH2 0x170B JUMP JUMPDEST PUSH1 0x1 PUSH1 0x3 PUSH1 0x0 DUP4 PUSH20 0xFFFFFFFFFFFFFFFFFFFFFFFFFFFFFFFFFFFFFFFF AND PUSH20 0xFFFFFFFFFFFFFFFFFFFFFFFFFFFFFFFFFFFFFFFF AND DUP2 MSTORE PUSH1 0x20 ADD SWAP1 DUP2 MSTORE PUSH1 0x20 ADD PUSH1 0x0 KECCAK256 PUSH1 0x0 DUP3 DUP3 SLOAD SUB SWAP3 POP POP DUP2 SWAP1 SSTORE POP JUMPDEST PUSH1 0x0 PUSH20 0xFFFFFFFFFFFFFFFFFFFFFFFFFFFFFFFFFFFFFFFF AND DUP6 PUSH20 0xFFFFFFFFFFFFFFFFFFFFFFFFFFFFFFFFFFFFFFFF AND EQ PUSH2 0xDF2 JUMPI PUSH1 0x1 PUSH1 0x3 PUSH1 0x0 DUP8 PUSH20 0xFFFFFFFFFFFFFFFFFFFFFFFFFFFFFFFFFFFFFFFF AND PUSH20 0xFFFFFFFFFFFFFFFFFFFFFFFFFFFFFFFFFFFFFFFF AND DUP2 MSTORE PUSH1 0x20 ADD SWAP1 DUP2 MSTORE PUSH1 0x20 ADD PUSH1 0x0 KECCAK256 PUSH1 0x0 DUP3 DUP3 SLOAD ADD SWAP3 POP POP DUP2 SWAP1 SSTORE POP JUMPDEST DUP5 PUSH1 0x2 PUSH1 0x0 DUP7 DUP2 MSTORE PUSH1 0x20 ADD SWAP1 DUP2 MSTORE PUSH1 0x20 ADD PUSH1 0x0 KECCAK256 PUSH1 0x0 PUSH2 0x100 EXP DUP2 SLOAD DUP2 PUSH20 0xFFFFFFFFFFFFFFFFFFFFFFFFFFFFFFFFFFFFFFFF MUL NOT AND SWAP1 DUP4 PUSH20 0xFFFFFFFFFFFFFFFFFFFFFFFFFFFFFFFFFFFFFFFF AND MUL OR SWAP1 SSTORE POP DUP4 DUP6 PUSH20 0xFFFFFFFFFFFFFFFFFFFFFFFFFFFFFFFFFFFFFFFF AND DUP3 PUSH20 0xFFFFFFFFFFFFFFFFFFFFFFFFFFFFFFFFFFFFFFFF AND PUSH32 0xDDF252AD1BE2C89B69C2B068FC378DAA952BA7F163C4A11628F55A4DF523B3EF PUSH1 0x40 MLOAD PUSH1 0x40 MLOAD DUP1 SWAP2 SUB SWAP1 LOG4 DUP1 SWAP2 POP POP SWAP4 SWAP3 POP POP POP JUMP JUMPDEST PUSH1 0x60 PUSH1 0x0 DUP4 SWAP1 POP PUSH1 0x0 PUSH1 0x2 DUP5 PUSH1 0x2 PUSH2 0xEC2 SWAP2 SWAP1 PUSH2 0x2731 JUMP JUMPDEST PUSH2 0xECC SWAP2 SWAP1 PUSH2 0x26A8 JUMP JUMPDEST PUSH8 0xFFFFFFFFFFFFFFFF DUP2 GT ISZERO PUSH2 0xEE5 JUMPI PUSH2 0xEE4 PUSH2 0x212C JUMP JUMPDEST JUMPDEST PUSH1 0x40 MLOAD SWAP1 DUP1 DUP3 MSTORE DUP1 PUSH1 0x1F ADD PUSH1 0x1F NOT AND PUSH1 0x20 ADD DUP3 ADD PUSH1 0x40 MSTORE DUP1 ISZERO PUSH2 0xF17 JUMPI DUP2 PUSH1 0x20 ADD PUSH1 0x1 DUP3 MUL DUP1 CALLDATASIZE DUP4 CALLDATACOPY DUP1 DUP3 ADD SWAP2 POP POP SWAP1 POP JUMPDEST POP SWAP1 POP PUSH32 0x3000000000000000000000000000000000000000000000000000000000000000 DUP2 PUSH1 0x0 DUP2 MLOAD DUP2 LT PUSH2 0xF4F JUMPI PUSH2 0xF4E PUSH2 0x2773 JUMP JUMPDEST JUMPDEST PUSH1 0x20 ADD ADD SWAP1 PUSH31 0xFFFFFFFFFFFFFFFFFFFFFFFFFFFFFFFFFFFFFFFFFFFFFFFFFFFFFFFFFFFFFF NOT AND SWAP1 DUP2 PUSH1 0x0 BYTE SWAP1 MSTORE8 POP PUSH32 0x7800000000000000000000000000000000000000000000000000000000000000 DUP2 PUSH1 0x1 DUP2 MLOAD DUP2 LT PUSH2 0xFB3 JUMPI PUSH2 0xFB2 PUSH2 0x2773 JUMP JUMPDEST JUMPDEST PUSH1 0x20 ADD ADD SWAP1 PUSH31 0xFFFFFFFFFFFFFFFFFFFFFFFFFFFFFFFFFFFFFFFFFFFFFFFFFFFFFFFFFFFFFF NOT AND SWAP1 DUP2 PUSH1 0x0 BYTE SWAP1 MSTORE8 POP PUSH1 0x0 PUSH1 0x1 DUP6 PUSH1 0x2 PUSH2 0xFF3 SWAP2 SWAP1 PUSH2 0x2731 JUMP JUMPDEST PUSH2 0xFFD SWAP2 SWAP1 PUSH2 0x26A8 JUMP JUMPDEST SWAP1 POP JUMPDEST PUSH1 0x1 DUP2 GT ISZERO PUSH2 0x109D JUMPI PUSH32 0x3031323334353637383961626364656600000000000000000000000000000000 PUSH1 0xF DUP5 AND PUSH1 0x10 DUP2 LT PUSH2 0x103F JUMPI PUSH2 0x103E PUSH2 0x2773 JUMP JUMPDEST JUMPDEST BYTE PUSH1 0xF8 SHL DUP3 DUP3 DUP2 MLOAD DUP2 LT PUSH2 0x1056 JUMPI PUSH2 0x1055 PUSH2 0x2773 JUMP JUMPDEST JUMPDEST PUSH1 0x20 ADD ADD SWAP1 PUSH31 0xFFFFFFFFFFFFFFFFFFFFFFFFFFFFFFFFFFFFFFFFFFFFFFFFFFFFFFFFFFFFFF NOT AND SWAP1 DUP2 PUSH1 0x0 BYTE SWAP1 MSTORE8 POP PUSH1 0x4 DUP4 SWAP1 SHR SWAP3 POP DUP1 PUSH2 0x1096 SWAP1 PUSH2 0x27A2 JUMP JUMPDEST SWAP1 POP PUSH2 0x1000 JUMP JUMPDEST POP PUSH1 0x0 DUP3 EQ PUSH2 0x10E5 JUMPI DUP5 DUP5 PUSH1 0x40 MLOAD PUSH32 0xE22E27EB00000000000000000000000000000000000000000000000000000000 DUP2 MSTORE PUSH1 0x4 ADD PUSH2 0x10DC SWAP3 SWAP2 SWAP1 PUSH2 0x27CB JUMP JUMPDEST PUSH1 0x40 MLOAD DUP1 SWAP2 SUB SWAP1 REVERT JUMPDEST DUP1 SWAP3 POP POP POP SWAP3 SWAP2 POP POP JUMP JUMPDEST PUSH1 0x60 PUSH1 0x0 PUSH1 0x1 PUSH2 0x10FF DUP5 PUSH2 0x1994 JUMP JUMPDEST ADD SWAP1 POP PUSH1 0x0 DUP2 PUSH8 0xFFFFFFFFFFFFFFFF DUP2 GT ISZERO PUSH2 0x111E JUMPI PUSH2 0x111D PUSH2 0x212C JUMP JUMPDEST JUMPDEST PUSH1 0x40 MLOAD SWAP1 DUP1 DUP3 MSTORE DUP1 PUSH1 0x1F ADD PUSH1 0x1F NOT AND PUSH1 0x20 ADD DUP3 ADD PUSH1 0x40 MSTORE DUP1 ISZERO PUSH2 0x1150 JUMPI DUP2 PUSH1 0x20 ADD PUSH1 0x1 DUP3 MUL DUP1 CALLDATASIZE DUP4 CALLDATACOPY DUP1 DUP3 ADD SWAP2 POP POP SWAP1 POP JUMPDEST POP SWAP1 POP PUSH1 0x0 DUP3 PUSH1 0x20 ADD DUP3 ADD SWAP1 POP JUMPDEST PUSH1 0x1 ISZERO PUSH2 0x11B3 JUMPI DUP1 DUP1 PUSH1 0x1 SWAP1 SUB SWAP2 POP POP PUSH32 0x3031323334353637383961626364656600000000000000000000000000000000 PUSH1 0xA DUP7 MOD BYTE DUP2 MSTORE8 PUSH1 0xA DUP6 DUP2 PUSH2 0x11A7 JUMPI PUSH2 0x11A6 PUSH2 0x27F4 JUMP JUMPDEST JUMPDEST DIV SWAP5 POP PUSH1 0x0 DUP6 SUB PUSH2 0x115E JUMPI JUMPDEST DUP2 SWAP4 POP POP POP POP SWAP2 SWAP1 POP JUMP JUMPDEST PUSH1 0x0 DUP1 DUP6 DUP6 DUP6 DUP6 PUSH1 0x40 MLOAD PUSH1 0x20 ADD PUSH2 0x11D8 SWAP5 SWAP4 SWAP3 SWAP2 SWAP1 PUSH2 0x2823 JUMP JUMPDEST PUSH1 0x40 MLOAD PUSH1 0x20 DUP2 DUP4 SUB SUB DUP2 MSTORE SWAP1 PUSH1 0x40 MSTORE SWAP1 POP PUSH1 0x2 DUP2 PUSH1 0x40 MLOAD PUSH2 0x11F9 SWAP2 SWAP1 PUSH2 0x28B0 JUMP JUMPDEST PUSH1 0x20 PUSH1 0x40 MLOAD DUP1 DUP4 SUB DUP2 DUP6 GAS STATICCALL ISZERO DUP1 ISZERO PUSH2 0x1216 JUMPI RETURNDATASIZE PUSH1 0x0 DUP1 RETURNDATACOPY RETURNDATASIZE PUSH1 0x0 REVERT JUMPDEST POP POP POP PUSH1 0x40 MLOAD RETURNDATASIZE PUSH1 0x1F NOT PUSH1 0x1F DUP3 ADD AND DUP3 ADD DUP1 PUSH1 0x40 MSTORE POP DUP2 ADD SWAP1 PUSH2 0x1239 SWAP2 SWAP1 PUSH2 0x28DC JUMP JUMPDEST SWAP2 POP POP SWAP5 SWAP4 POP POP POP POP JUMP JUMPDEST PUSH2 0x125E DUP3 DUP3 PUSH1 0x40 MLOAD DUP1 PUSH1 0x20 ADD PUSH1 0x40 MSTORE DUP1 PUSH1 0x0 DUP2 MSTORE POP PUSH2 0x1AE7 JUMP JUMPDEST POP POP JUMP JUMPDEST DUP1 PUSH1 0x6 PUSH1 0x0 DUP5 DUP2 MSTORE PUSH1 0x20 ADD SWAP1 DUP2 MSTORE PUSH1 0x20 ADD PUSH1 0x0 KECCAK256 SWAP1 DUP2 PUSH2 0x1282 SWAP2 SWAP1 PUSH2 0x2AB5 JUMP JUMPDEST POP PUSH32 0xF8E1A15ABA9398E019F0B49DF1A4FDE98EE17AE345CB5F6B5E2C27F5033E8CE7 DUP3 PUSH1 0x40 MLOAD PUSH2 0x12B2 SWAP2 SWAP1 PUSH2 0x2034 JUMP JUMPDEST PUSH1 0x40 MLOAD DUP1 SWAP2 SUB SWAP1 LOG1 POP POP JUMP JUMPDEST PUSH1 0x0 PUSH20 0xFFFFFFFFFFFFFFFFFFFFFFFFFFFFFFFFFFFFFFFF AND DUP3 PUSH20 0xFFFFFFFFFFFFFFFFFFFFFFFFFFFFFFFFFFFFFFFF AND SUB PUSH2 0x132F JUMPI DUP2 PUSH1 0x40 MLOAD PUSH32 0x5B08BA1800000000000000000000000000000000000000000000000000000000 DUP2 MSTORE PUSH1 0x4 ADD PUSH2 0x1326 SWAP2 SWAP1 PUSH2 0x1EE2 JUMP JUMPDEST PUSH1 0x40 MLOAD DUP1 SWAP2 SUB SWAP1 REVERT JUMPDEST DUP1 PUSH1 0x5 PUSH1 0x0 DUP6 PUSH20 0xFFFFFFFFFFFFFFFFFFFFFFFFFFFFFFFFFFFFFFFF AND PUSH20 0xFFFFFFFFFFFFFFFFFFFFFFFFFFFFFFFFFFFFFFFF AND DUP2 MSTORE PUSH1 0x20 ADD SWAP1 DUP2 MSTORE PUSH1 0x20 ADD PUSH1 0x0 KECCAK256 PUSH1 0x0 DUP5 PUSH20 0xFFFFFFFFFFFFFFFFFFFFFFFFFFFFFFFFFFFFFFFF AND PUSH20 0xFFFFFFFFFFFFFFFFFFFFFFFFFFFFFFFFFFFFFFFF AND DUP2 MSTORE PUSH1 0x20 ADD SWAP1 DUP2 MSTORE PUSH1 0x20 ADD PUSH1 0x0 KECCAK256 PUSH1 0x0 PUSH2 0x100 EXP DUP2 SLOAD DUP2 PUSH1 0xFF MUL NOT AND SWAP1 DUP4 ISZERO ISZERO MUL OR SWAP1 SSTORE POP DUP2 PUSH20 0xFFFFFFFFFFFFFFFFFFFFFFFFFFFFFFFFFFFFFFFF AND DUP4 PUSH20 0xFFFFFFFFFFFFFFFFFFFFFFFFFFFFFFFFFFFFFFFF AND PUSH32 0x17307EAB39AB6107E8899845AD3D59BD9653F200F220920489CA2B5937696C31 DUP4 PUSH1 0x40 MLOAD PUSH2 0x1420 SWAP2 SWAP1 PUSH2 0x1D71 JUMP JUMPDEST PUSH1 0x40 MLOAD DUP1 SWAP2 SUB SWAP1 LOG3 POP POP POP JUMP JUMPDEST PUSH1 0x0 DUP4 PUSH20 0xFFFFFFFFFFFFFFFFFFFFFFFFFFFFFFFFFFFFFFFF AND EXTCODESIZE GT ISZERO PUSH2 0x15DE JUMPI DUP3 PUSH20 0xFFFFFFFFFFFFFFFFFFFFFFFFFFFFFFFFFFFFFFFF AND PUSH4 0x150B7A02 PUSH2 0x1471 PUSH2 0xC76 JUMP JUMPDEST DUP7 DUP6 DUP6 PUSH1 0x40 MLOAD DUP6 PUSH4 0xFFFFFFFF AND PUSH1 0xE0 SHL DUP2 MSTORE PUSH1 0x4 ADD PUSH2 0x1493 SWAP5 SWAP4 SWAP3 SWAP2 SWAP1 PUSH2 0x2BD1 JUMP JUMPDEST PUSH1 0x20 PUSH1 0x40 MLOAD DUP1 DUP4 SUB DUP2 PUSH1 0x0 DUP8 GAS CALL SWAP3 POP POP POP DUP1 ISZERO PUSH2 0x14CF JUMPI POP PUSH1 0x40 MLOAD RETURNDATASIZE PUSH1 0x1F NOT PUSH1 0x1F DUP3 ADD AND DUP3 ADD DUP1 PUSH1 0x40 MSTORE POP DUP2 ADD SWAP1 PUSH2 0x14CC SWAP2 SWAP1 PUSH2 0x2C32 JUMP JUMPDEST PUSH1 0x1 JUMPDEST PUSH2 0x1553 JUMPI RETURNDATASIZE DUP1 PUSH1 0x0 DUP2 EQ PUSH2 0x14FF JUMPI PUSH1 0x40 MLOAD SWAP2 POP PUSH1 0x1F NOT PUSH1 0x3F RETURNDATASIZE ADD AND DUP3 ADD PUSH1 0x40 MSTORE RETURNDATASIZE DUP3 MSTORE RETURNDATASIZE PUSH1 0x0 PUSH1 0x20 DUP5 ADD RETURNDATACOPY PUSH2 0x1504 JUMP JUMPDEST PUSH1 0x60 SWAP2 POP JUMPDEST POP PUSH1 0x0 DUP2 MLOAD SUB PUSH2 0x154B JUMPI DUP4 PUSH1 0x40 MLOAD PUSH32 0x64A0AE9200000000000000000000000000000000000000000000000000000000 DUP2 MSTORE PUSH1 0x4 ADD PUSH2 0x1542 SWAP2 SWAP1 PUSH2 0x1EE2 JUMP JUMPDEST PUSH1 0x40 MLOAD DUP1 SWAP2 SUB SWAP1 REVERT JUMPDEST DUP1 MLOAD DUP2 PUSH1 0x20 ADD REVERT JUMPDEST PUSH4 0x150B7A02 PUSH1 0xE0 SHL PUSH28 0xFFFFFFFFFFFFFFFFFFFFFFFFFFFFFFFFFFFFFFFFFFFFFFFFFFFFFFFF NOT AND DUP2 PUSH28 0xFFFFFFFFFFFFFFFFFFFFFFFFFFFFFFFFFFFFFFFFFFFFFFFFFFFFFFFF NOT AND EQ PUSH2 0x15DC JUMPI DUP4 PUSH1 0x40 MLOAD PUSH32 0x64A0AE9200000000000000000000000000000000000000000000000000000000 DUP2 MSTORE PUSH1 0x4 ADD PUSH2 0x15D3 SWAP2 SWAP1 PUSH2 0x1EE2 JUMP JUMPDEST PUSH1 0x40 MLOAD DUP1 SWAP2 SUB SWAP1 REVERT JUMPDEST POP JUMPDEST POP POP POP POP JUMP JUMPDEST PUSH1 0x60 PUSH1 0x40 MLOAD DUP1 PUSH1 0x20 ADD PUSH1 0x40 MSTORE DUP1 PUSH1 0x0 DUP2 MSTORE POP SWAP1 POP SWAP1 JUMP JUMPDEST PUSH1 0x60 PUSH2 0x1606 DUP3 PUSH2 0xBB1 JUMP JUMPDEST POP PUSH1 0x0 PUSH2 0x1611 PUSH2 0x15E4 JUMP JUMPDEST SWAP1 POP PUSH1 0x0 DUP2 MLOAD GT PUSH2 0x1631 JUMPI PUSH1 0x40 MLOAD DUP1 PUSH1 0x20 ADD PUSH1 0x40 MSTORE DUP1 PUSH1 0x0 DUP2 MSTORE POP PUSH2 0x165C JUMP JUMPDEST DUP1 PUSH2 0x163B DUP5 PUSH2 0x10F0 JUMP JUMPDEST PUSH1 0x40 MLOAD PUSH1 0x20 ADD PUSH2 0x164C SWAP3 SWAP2 SWAP1 PUSH2 0x270D JUMP JUMPDEST PUSH1 0x40 MLOAD PUSH1 0x20 DUP2 DUP4 SUB SUB DUP2 MSTORE SWAP1 PUSH1 0x40 MSTORE JUMPDEST SWAP2 POP POP SWAP2 SWAP1 POP JUMP JUMPDEST PUSH1 0x0 PUSH32 0x1FFC9A700000000000000000000000000000000000000000000000000000000 PUSH28 0xFFFFFFFFFFFFFFFFFFFFFFFFFFFFFFFFFFFFFFFFFFFFFFFFFFFFFFFF NOT AND DUP3 PUSH28 0xFFFFFFFFFFFFFFFFFFFFFFFFFFFFFFFFFFFFFFFFFFFFFFFFFFFFFFFF NOT AND EQ SWAP1 POP SWAP2 SWAP1 POP JUMP JUMPDEST PUSH1 0x0 PUSH1 0x2 PUSH1 0x0 DUP4 DUP2 MSTORE PUSH1 0x20 ADD SWAP1 DUP2 MSTORE PUSH1 0x20 ADD PUSH1 0x0 KECCAK256 PUSH1 0x0 SWAP1 SLOAD SWAP1 PUSH2 0x100 EXP SWAP1 DIV PUSH20 0xFFFFFFFFFFFFFFFFFFFFFFFFFFFFFFFFFFFFFFFF AND SWAP1 POP SWAP2 SWAP1 POP JUMP JUMPDEST DUP1 DUP1 PUSH2 0x1744 JUMPI POP PUSH1 0x0 PUSH20 0xFFFFFFFFFFFFFFFFFFFFFFFFFFFFFFFFFFFFFFFF AND DUP3 PUSH20 0xFFFFFFFFFFFFFFFFFFFFFFFFFFFFFFFFFFFFFFFF AND EQ ISZERO JUMPDEST ISZERO PUSH2 0x1878 JUMPI PUSH1 0x0 PUSH2 0x1754 DUP5 PUSH2 0xBB1 JUMP JUMPDEST SWAP1 POP PUSH1 0x0 PUSH20 0xFFFFFFFFFFFFFFFFFFFFFFFFFFFFFFFFFFFFFFFF AND DUP4 PUSH20 0xFFFFFFFFFFFFFFFFFFFFFFFFFFFFFFFFFFFFFFFF AND EQ ISZERO DUP1 ISZERO PUSH2 0x17BF JUMPI POP DUP3 PUSH20 0xFFFFFFFFFFFFFFFFFFFFFFFFFFFFFFFFFFFFFFFF AND DUP2 PUSH20 0xFFFFFFFFFFFFFFFFFFFFFFFFFFFFFFFFFFFFFFFF AND EQ ISZERO JUMPDEST DUP1 ISZERO PUSH2 0x17D2 JUMPI POP PUSH2 0x17D0 DUP2 DUP5 PUSH2 0xA1B JUMP JUMPDEST ISZERO JUMPDEST ISZERO PUSH2 0x1814 JUMPI DUP3 PUSH1 0x40 MLOAD PUSH32 0xA9FBF51F00000000000000000000000000000000000000000000000000000000 DUP2 MSTORE PUSH1 0x4 ADD PUSH2 0x180B SWAP2 SWAP1 PUSH2 0x1EE2 JUMP JUMPDEST PUSH1 0x40 MLOAD DUP1 SWAP2 SUB SWAP1 REVERT JUMPDEST DUP2 ISZERO PUSH2 0x1876 JUMPI DUP4 DUP6 PUSH20 0xFFFFFFFFFFFFFFFFFFFFFFFFFFFFFFFFFFFFFFFF AND DUP3 PUSH20 0xFFFFFFFFFFFFFFFFFFFFFFFFFFFFFFFFFFFFFFFF AND PUSH32 0x8C5BE1E5EBEC7D5BD14F71427D1E84F3DD0314C0F7B2291E5B200AC8C7C3B925 PUSH1 0x40 MLOAD PUSH1 0x40 MLOAD DUP1 SWAP2 SUB SWAP1 LOG4 JUMPDEST POP JUMPDEST DUP4 PUSH1 0x4 PUSH1 0x0 DUP6 DUP2 MSTORE PUSH1 0x20 ADD SWAP1 DUP2 MSTORE PUSH1 0x20 ADD PUSH1 0x0 KECCAK256 PUSH1 0x0 PUSH2 0x100 EXP DUP2 SLOAD DUP2 PUSH20 0xFFFFFFFFFFFFFFFFFFFFFFFFFFFFFFFFFFFFFFFF MUL NOT AND SWAP1 DUP4 PUSH20 0xFFFFFFFFFFFFFFFFFFFFFFFFFFFFFFFFFFFFFFFF AND MUL OR SWAP1 SSTORE POP POP POP POP POP JUMP JUMPDEST PUSH2 0x18DB DUP4 DUP4 DUP4 PUSH2 0x1B03 JUMP JUMPDEST PUSH2 0x198F JUMPI PUSH1 0x0 PUSH20 0xFFFFFFFFFFFFFFFFFFFFFFFFFFFFFFFFFFFFFFFF AND DUP4 PUSH20 0xFFFFFFFFFFFFFFFFFFFFFFFFFFFFFFFFFFFFFFFF AND SUB PUSH2 0x1950 JUMPI DUP1 PUSH1 0x40 MLOAD PUSH32 0x7E27328900000000000000000000000000000000000000000000000000000000 DUP2 MSTORE PUSH1 0x4 ADD PUSH2 0x1947 SWAP2 SWAP1 PUSH2 0x2034 JUMP JUMPDEST PUSH1 0x40 MLOAD DUP1 SWAP2 SUB SWAP1 REVERT JUMPDEST DUP2 DUP2 PUSH1 0x40 MLOAD PUSH32 0x177E802F00000000000000000000000000000000000000000000000000000000 DUP2 MSTORE PUSH1 0x4 ADD PUSH2 0x1986 SWAP3 SWAP2 SWAP1 PUSH2 0x2C5F JUMP JUMPDEST PUSH1 0x40 MLOAD DUP1 SWAP2 SUB SWAP1 REVERT JUMPDEST POP POP POP JUMP JUMPDEST PUSH1 0x0 DUP1 PUSH1 0x0 SWAP1 POP PUSH27 0x184F03E93FF9F4DAA797ED6E38ED64BF6A1F010000000000000000 DUP4 LT PUSH2 0x19F2 JUMPI PUSH27 0x184F03E93FF9F4DAA797ED6E38ED64BF6A1F010000000000000000 DUP4 DUP2 PUSH2 0x19E8 JUMPI PUSH2 0x19E7 PUSH2 0x27F4 JUMP JUMPDEST JUMPDEST DIV SWAP3 POP PUSH1 0x40 DUP2 ADD SWAP1 POP JUMPDEST PUSH14 0x4EE2D6D415B85ACEF8100000000 DUP4 LT PUSH2 0x1A2F JUMPI PUSH14 0x4EE2D6D415B85ACEF8100000000 DUP4 DUP2 PUSH2 0x1A25 JUMPI PUSH2 0x1A24 PUSH2 0x27F4 JUMP JUMPDEST JUMPDEST DIV SWAP3 POP PUSH1 0x20 DUP2 ADD SWAP1 POP JUMPDEST PUSH7 0x2386F26FC10000 DUP4 LT PUSH2 0x1A5E JUMPI PUSH7 0x2386F26FC10000 DUP4 DUP2 PUSH2 0x1A54 JUMPI PUSH2 0x1A53 PUSH2 0x27F4 JUMP JUMPDEST JUMPDEST DIV SWAP3 POP PUSH1 0x10 DUP2 ADD SWAP1 POP JUMPDEST PUSH4 0x5F5E100 DUP4 LT PUSH2 0x1A87 JUMPI PUSH4 0x5F5E100 DUP4 DUP2 PUSH2 0x1A7D JUMPI PUSH2 0x1A7C PUSH2 0x27F4 JUMP JUMPDEST JUMPDEST DIV SWAP3 POP PUSH1 0x8 DUP2 ADD SWAP1 POP JUMPDEST PUSH2 0x2710 DUP4 LT PUSH2 0x1AAC JUMPI PUSH2 0x2710 DUP4 DUP2 PUSH2 0x1AA2 JUMPI PUSH2 0x1AA1 PUSH2 0x27F4 JUMP JUMPDEST JUMPDEST DIV SWAP3 POP PUSH1 0x4 DUP2 ADD SWAP1 POP JUMPDEST PUSH1 0x64 DUP4 LT PUSH2 0x1ACF JUMPI PUSH1 0x64 DUP4 DUP2 PUSH2 0x1AC5 JUMPI PUSH2 0x1AC4 PUSH2 0x27F4 JUMP JUMPDEST JUMPDEST DIV SWAP3 POP PUSH1 0x2 DUP2 ADD SWAP1 POP JUMPDEST PUSH1 0xA DUP4 LT PUSH2 0x1ADE JUMPI PUSH1 0x1 DUP2 ADD SWAP1 POP JUMPDEST DUP1 SWAP2 POP POP SWAP2 SWAP1 POP JUMP JUMPDEST PUSH2 0x1AF1 DUP4 DUP4 PUSH2 0x1BC4 JUMP JUMPDEST PUSH2 0x1AFE PUSH1 0x0 DUP5 DUP5 DUP5 PUSH2 0x142D JUMP JUMPDEST POP POP POP JUMP JUMPDEST PUSH1 0x0 DUP1 PUSH20 0xFFFFFFFFFFFFFFFFFFFFFFFFFFFFFFFFFFFFFFFF AND DUP4 PUSH20 0xFFFFFFFFFFFFFFFFFFFFFFFFFFFFFFFFFFFFFFFF AND EQ ISZERO DUP1 ISZERO PUSH2 0x1BBB JUMPI POP DUP3 PUSH20 0xFFFFFFFFFFFFFFFFFFFFFFFFFFFFFFFFFFFFFFFF AND DUP5 PUSH20 0xFFFFFFFFFFFFFFFFFFFFFFFFFFFFFFFFFFFFFFFF AND EQ DUP1 PUSH2 0x1B7C JUMPI POP PUSH2 0x1B7B DUP5 DUP5 PUSH2 0xA1B JUMP JUMPDEST JUMPDEST DUP1 PUSH2 0x1BBA JUMPI POP DUP3 PUSH20 0xFFFFFFFFFFFFFFFFFFFFFFFFFFFFFFFFFFFFFFFF AND PUSH2 0x1BA2 DUP4 PUSH2 0xC39 JUMP JUMPDEST PUSH20 0xFFFFFFFFFFFFFFFFFFFFFFFFFFFFFFFFFFFFFFFF AND EQ JUMPDEST JUMPDEST SWAP1 POP SWAP4 SWAP3 POP POP POP JUMP JUMPDEST PUSH1 0x0 PUSH20 0xFFFFFFFFFFFFFFFFFFFFFFFFFFFFFFFFFFFFFFFF AND DUP3 PUSH20 0xFFFFFFFFFFFFFFFFFFFFFFFFFFFFFFFFFFFFFFFF AND SUB PUSH2 0x1C36 JUMPI PUSH1 0x0 PUSH1 0x40 MLOAD PUSH32 0x64A0AE9200000000000000000000000000000000000000000000000000000000 DUP2 MSTORE PUSH1 0x4 ADD PUSH2 0x1C2D SWAP2 SWAP1 PUSH2 0x1EE2 JUMP JUMPDEST PUSH1 0x40 MLOAD DUP1 SWAP2 SUB SWAP1 REVERT JUMPDEST PUSH1 0x0 PUSH2 0x1C44 DUP4 DUP4 PUSH1 0x0 PUSH2 0xC90 JUMP JUMPDEST SWAP1 POP PUSH1 0x0 PUSH20 0xFFFFFFFFFFFFFFFFFFFFFFFFFFFFFFFFFFFFFFFF AND DUP2 PUSH20 0xFFFFFFFFFFFFFFFFFFFFFFFFFFFFFFFFFFFFFFFF AND EQ PUSH2 0x1CB8 JUMPI PUSH1 0x0 PUSH1 0x40 MLOAD PUSH32 0x73C6AC6E00000000000000000000000000000000000000000000000000000000 DUP2 MSTORE PUSH1 0x4 ADD PUSH2 0x1CAF SWAP2 SWAP1 PUSH2 0x1EE2 JUMP JUMPDEST PUSH1 0x40 MLOAD DUP1 SWAP2 SUB SWAP1 REVERT JUMPDEST POP POP POP JUMP JUMPDEST PUSH1 0x0 PUSH1 0x40 MLOAD SWAP1 POP SWAP1 JUMP JUMPDEST PUSH1 0x0 DUP1 REVERT JUMPDEST PUSH1 0x0 DUP1 REVERT JUMPDEST PUSH1 0x0 PUSH32 0xFFFFFFFF00000000000000000000000000000000000000000000000000000000 DUP3 AND SWAP1 POP SWAP2 SWAP1 POP JUMP JUMPDEST PUSH2 0x1D06 DUP2 PUSH2 0x1CD1 JUMP JUMPDEST DUP2 EQ PUSH2 0x1D11 JUMPI PUSH1 0x0 DUP1 REVERT JUMPDEST POP JUMP JUMPDEST PUSH1 0x0 DUP2 CALLDATALOAD SWAP1 POP PUSH2 0x1D23 DUP2 PUSH2 0x1CFD JUMP JUMPDEST SWAP3 SWAP2 POP POP JUMP JUMPDEST PUSH1 0x0 PUSH1 0x20 DUP3 DUP5 SUB SLT ISZERO PUSH2 0x1D3F JUMPI PUSH2 0x1D3E PUSH2 0x1CC7 JUMP JUMPDEST JUMPDEST PUSH1 0x0 PUSH2 0x1D4D DUP5 DUP3 DUP6 ADD PUSH2 0x1D14 JUMP JUMPDEST SWAP2 POP POP SWAP3 SWAP2 POP POP JUMP JUMPDEST PUSH1 0x0 DUP2 ISZERO ISZERO SWAP1 POP SWAP2 SWAP1 POP JUMP JUMPDEST PUSH2 0x1D6B DUP2 PUSH2 0x1D56 JUMP JUMPDEST DUP3 MSTORE POP POP JUMP JUMPDEST PUSH1 0x0 PUSH1 0x20 DUP3 ADD SWAP1 POP PUSH2 0x1D86 PUSH1 0x0 DUP4 ADD DUP5 PUSH2 0x1D62 JUMP JUMPDEST SWAP3 SWAP2 POP POP JUMP JUMPDEST PUSH1 0x0 DUP2 MLOAD SWAP1 POP SWAP2 SWAP1 POP JUMP JUMPDEST PUSH1 0x0 DUP3 DUP3 MSTORE PUSH1 0x20 DUP3 ADD SWAP1 POP SWAP3 SWAP2 POP POP JUMP JUMPDEST PUSH1 0x0 JUMPDEST DUP4 DUP2 LT ISZERO PUSH2 0x1DC6 JUMPI DUP1 DUP3 ADD MLOAD DUP2 DUP5 ADD MSTORE PUSH1 0x20 DUP2 ADD SWAP1 POP PUSH2 0x1DAB JUMP JUMPDEST PUSH1 0x0 DUP5 DUP5 ADD MSTORE POP POP POP POP JUMP JUMPDEST PUSH1 0x0 PUSH1 0x1F NOT PUSH1 0x1F DUP4 ADD AND SWAP1 POP SWAP2 SWAP1 POP JUMP JUMPDEST PUSH1 0x0 PUSH2 0x1DEE DUP3 PUSH2 0x1D8C JUMP JUMPDEST PUSH2 0x1DF8 DUP2 DUP6 PUSH2 0x1D97 JUMP JUMPDEST SWAP4 POP PUSH2 0x1E08 DUP2 DUP6 PUSH1 0x20 DUP7 ADD PUSH2 0x1DA8 JUMP JUMPDEST PUSH2 0x1E11 DUP2 PUSH2 0x1DD2 JUMP JUMPDEST DUP5 ADD SWAP2 POP POP SWAP3 SWAP2 POP POP JUMP JUMPDEST PUSH1 0x0 PUSH1 0x20 DUP3 ADD SWAP1 POP DUP2 DUP2 SUB PUSH1 0x0 DUP4 ADD MSTORE PUSH2 0x1E36 DUP2 DUP5 PUSH2 0x1DE3 JUMP JUMPDEST SWAP1 POP SWAP3 SWAP2 POP POP JUMP JUMPDEST PUSH1 0x0 DUP2 SWAP1 POP SWAP2 SWAP1 POP JUMP JUMPDEST PUSH2 0x1E51 DUP2 PUSH2 0x1E3E JUMP JUMPDEST DUP2 EQ PUSH2 0x1E5C JUMPI PUSH1 0x0 DUP1 REVERT JUMPDEST POP JUMP JUMPDEST PUSH1 0x0 DUP2 CALLDATALOAD SWAP1 POP PUSH2 0x1E6E DUP2 PUSH2 0x1E48 JUMP JUMPDEST SWAP3 SWAP2 POP POP JUMP JUMPDEST PUSH1 0x0 PUSH1 0x20 DUP3 DUP5 SUB SLT ISZERO PUSH2 0x1E8A JUMPI PUSH2 0x1E89 PUSH2 0x1CC7 JUMP JUMPDEST JUMPDEST PUSH1 0x0 PUSH2 0x1E98 DUP5 DUP3 DUP6 ADD PUSH2 0x1E5F JUMP JUMPDEST SWAP2 POP POP SWAP3 SWAP2 POP POP JUMP JUMPDEST PUSH1 0x0 PUSH20 0xFFFFFFFFFFFFFFFFFFFFFFFFFFFFFFFFFFFFFFFF DUP3 AND SWAP1 POP SWAP2 SWAP1 POP JUMP JUMPDEST PUSH1 0x0 PUSH2 0x1ECC DUP3 PUSH2 0x1EA1 JUMP JUMPDEST SWAP1 POP SWAP2 SWAP1 POP JUMP JUMPDEST PUSH2 0x1EDC DUP2 PUSH2 0x1EC1 JUMP JUMPDEST DUP3 MSTORE POP POP JUMP JUMPDEST PUSH1 0x0 PUSH1 0x20 DUP3 ADD SWAP1 POP PUSH2 0x1EF7 PUSH1 0x0 DUP4 ADD DUP5 PUSH2 0x1ED3 JUMP JUMPDEST SWAP3 SWAP2 POP POP JUMP JUMPDEST PUSH2 0x1F06 DUP2 PUSH2 0x1EC1 JUMP JUMPDEST DUP2 EQ PUSH2 0x1F11 JUMPI PUSH1 0x0 DUP1 REVERT JUMPDEST POP JUMP JUMPDEST PUSH1 0x0 DUP2 CALLDATALOAD SWAP1 POP PUSH2 0x1F23 DUP2 PUSH2 0x1EFD JUMP JUMPDEST SWAP3 SWAP2 POP POP JUMP JUMPDEST PUSH1 0x0 DUP1 PUSH1 0x40 DUP4 DUP6 SUB SLT ISZERO PUSH2 0x1F40 JUMPI PUSH2 0x1F3F PUSH2 0x1CC7 JUMP JUMPDEST JUMPDEST PUSH1 0x0 PUSH2 0x1F4E DUP6 DUP3 DUP7 ADD PUSH2 0x1F14 JUMP JUMPDEST SWAP3 POP POP PUSH1 0x20 PUSH2 0x1F5F DUP6 DUP3 DUP7 ADD PUSH2 0x1E5F JUMP JUMPDEST SWAP2 POP POP SWAP3 POP SWAP3 SWAP1 POP JUMP JUMPDEST PUSH1 0x0 DUP1 PUSH1 0x0 PUSH1 0x60 DUP5 DUP7 SUB SLT ISZERO PUSH2 0x1F82 JUMPI PUSH2 0x1F81 PUSH2 0x1CC7 JUMP JUMPDEST JUMPDEST PUSH1 0x0 PUSH2 0x1F90 DUP7 DUP3 DUP8 ADD PUSH2 0x1F14 JUMP JUMPDEST SWAP4 POP POP PUSH1 0x20 PUSH2 0x1FA1 DUP7 DUP3 DUP8 ADD PUSH2 0x1F14 JUMP JUMPDEST SWAP3 POP POP PUSH1 0x40 PUSH2 0x1FB2 DUP7 DUP3 DUP8 ADD PUSH2 0x1E5F JUMP JUMPDEST SWAP2 POP POP SWAP3 POP SWAP3 POP SWAP3 JUMP JUMPDEST PUSH1 0x0 PUSH2 0x1FC7 DUP3 PUSH2 0x1EA1 JUMP JUMPDEST SWAP1 POP SWAP2 SWAP1 POP JUMP JUMPDEST PUSH2 0x1FD7 DUP2 PUSH2 0x1FBC JUMP JUMPDEST DUP3 MSTORE POP POP JUMP JUMPDEST PUSH1 0x0 PUSH1 0x20 DUP3 ADD SWAP1 POP PUSH2 0x1FF2 PUSH1 0x0 DUP4 ADD DUP5 PUSH2 0x1FCE JUMP JUMPDEST SWAP3 SWAP2 POP POP JUMP JUMPDEST PUSH1 0x0 PUSH1 0x20 DUP3 DUP5 SUB SLT ISZERO PUSH2 0x200E JUMPI PUSH2 0x200D PUSH2 0x1CC7 JUMP JUMPDEST JUMPDEST PUSH1 0x0 PUSH2 0x201C DUP5 DUP3 DUP6 ADD PUSH2 0x1F14 JUMP JUMPDEST SWAP2 POP POP SWAP3 SWAP2 POP POP JUMP JUMPDEST PUSH2 0x202E DUP2 PUSH2 0x1E3E JUMP JUMPDEST DUP3 MSTORE POP POP JUMP JUMPDEST PUSH1 0x0 PUSH1 0x20 DUP3 ADD SWAP1 POP PUSH2 0x2049 PUSH1 0x0 DUP4 ADD DUP5 PUSH2 0x2025 JUMP JUMPDEST SWAP3 SWAP2 POP POP JUMP JUMPDEST PUSH1 0x0 DUP1 PUSH1 0x0 DUP1 PUSH1 0x80 DUP6 DUP8 SUB SLT ISZERO PUSH2 0x2069 JUMPI PUSH2 0x2068 PUSH2 0x1CC7 JUMP JUMPDEST JUMPDEST PUSH1 0x0 PUSH2 0x2077 DUP8 DUP3 DUP9 ADD PUSH2 0x1F14 JUMP JUMPDEST SWAP5 POP POP PUSH1 0x20 PUSH2 0x2088 DUP8 DUP3 DUP9 ADD PUSH2 0x1E5F JUMP JUMPDEST SWAP4 POP POP PUSH1 0x40 PUSH2 0x2099 DUP8 DUP3 DUP9 ADD PUSH2 0x1E5F JUMP JUMPDEST SWAP3 POP POP PUSH1 0x60 PUSH2 0x20AA DUP8 DUP3 DUP9 ADD PUSH2 0x1E5F JUMP JUMPDEST SWAP2 POP POP SWAP3 SWAP6 SWAP2 SWAP5 POP SWAP3 POP JUMP JUMPDEST PUSH2 0x20BF DUP2 PUSH2 0x1D56 JUMP JUMPDEST DUP2 EQ PUSH2 0x20CA JUMPI PUSH1 0x0 DUP1 REVERT JUMPDEST POP JUMP JUMPDEST PUSH1 0x0 DUP2 CALLDATALOAD SWAP1 POP PUSH2 0x20DC DUP2 PUSH2 0x20B6 JUMP JUMPDEST SWAP3 SWAP2 POP POP JUMP JUMPDEST PUSH1 0x0 DUP1 PUSH1 0x40 DUP4 DUP6 SUB SLT ISZERO PUSH2 0x20F9 JUMPI PUSH2 0x20F8 PUSH2 0x1CC7 JUMP JUMPDEST JUMPDEST PUSH1 0x0 PUSH2 0x2107 DUP6 DUP3 DUP7 ADD PUSH2 0x1F14 JUMP JUMPDEST SWAP3 POP POP PUSH1 0x20 PUSH2 0x2118 DUP6 DUP3 DUP7 ADD PUSH2 0x20CD JUMP JUMPDEST SWAP2 POP POP SWAP3 POP SWAP3 SWAP1 POP JUMP JUMPDEST PUSH1 0x0 DUP1 REVERT JUMPDEST PUSH1 0x0 DUP1 REVERT JUMPDEST PUSH32 0x4E487B7100000000000000000000000000000000000000000000000000000000 PUSH1 0x0 MSTORE PUSH1 0x41 PUSH1 0x4 MSTORE PUSH1 0x24 PUSH1 0x0 REVERT JUMPDEST PUSH2 0x2164 DUP3 PUSH2 0x1DD2 JUMP JUMPDEST DUP2 ADD DUP2 DUP2 LT PUSH8 0xFFFFFFFFFFFFFFFF DUP3 GT OR ISZERO PUSH2 0x2183 JUMPI PUSH2 0x2182 PUSH2 0x212C JUMP JUMPDEST JUMPDEST DUP1 PUSH1 0x40 MSTORE POP POP POP JUMP JUMPDEST PUSH1 0x0 PUSH2 0x2196 PUSH2 0x1CBD JUMP JUMPDEST SWAP1 POP PUSH2 0x21A2 DUP3 DUP3 PUSH2 0x215B JUMP JUMPDEST SWAP2 SWAP1 POP JUMP JUMPDEST PUSH1 0x0 PUSH8 0xFFFFFFFFFFFFFFFF DUP3 GT ISZERO PUSH2 0x21C2 JUMPI PUSH2 0x21C1 PUSH2 0x212C JUMP JUMPDEST JUMPDEST PUSH2 0x21CB DUP3 PUSH2 0x1DD2 JUMP JUMPDEST SWAP1 POP PUSH1 0x20 DUP2 ADD SWAP1 POP SWAP2 SWAP1 POP JUMP JUMPDEST DUP3 DUP2 DUP4 CALLDATACOPY PUSH1 0x0 DUP4 DUP4 ADD MSTORE POP POP POP JUMP JUMPDEST PUSH1 0x0 PUSH2 0x21FA PUSH2 0x21F5 DUP5 PUSH2 0x21A7 JUMP JUMPDEST PUSH2 0x218C JUMP JUMPDEST SWAP1 POP DUP3 DUP2 MSTORE PUSH1 0x20 DUP2 ADD DUP5 DUP5 DUP5 ADD GT ISZERO PUSH2 0x2216 JUMPI PUSH2 0x2215 PUSH2 0x2127 JUMP JUMPDEST JUMPDEST PUSH2 0x2221 DUP5 DUP3 DUP6 PUSH2 0x21D8 JUMP JUMPDEST POP SWAP4 SWAP3 POP POP POP JUMP JUMPDEST PUSH1 0x0 DUP3 PUSH1 0x1F DUP4 ADD SLT PUSH2 0x223E JUMPI PUSH2 0x223D PUSH2 0x2122 JUMP JUMPDEST JUMPDEST DUP2 CALLDATALOAD PUSH2 0x224E DUP5 DUP3 PUSH1 0x20 DUP7 ADD PUSH2 0x21E7 JUMP JUMPDEST SWAP2 POP POP SWAP3 SWAP2 POP POP JUMP JUMPDEST PUSH1 0x0 DUP1 PUSH1 0x0 DUP1 PUSH1 0x80 DUP6 DUP8 SUB SLT ISZERO PUSH2 0x2271 JUMPI PUSH2 0x2270 PUSH2 0x1CC7 JUMP JUMPDEST JUMPDEST PUSH1 0x0 PUSH2 0x227F DUP8 DUP3 DUP9 ADD PUSH2 0x1F14 JUMP JUMPDEST SWAP5 POP POP PUSH1 0x20 PUSH2 0x2290 DUP8 DUP3 DUP9 ADD PUSH2 0x1F14 JUMP JUMPDEST SWAP4 POP POP PUSH1 0x40 PUSH2 0x22A1 DUP8 DUP3 DUP9 ADD PUSH2 0x1E5F JUMP JUMPDEST SWAP3 POP POP PUSH1 0x60 DUP6 ADD CALLDATALOAD PUSH8 0xFFFFFFFFFFFFFFFF DUP2 GT ISZERO PUSH2 0x22C2 JUMPI PUSH2 0x22C1 PUSH2 0x1CCC JUMP JUMPDEST JUMPDEST PUSH2 0x22CE DUP8 DUP3 DUP9 ADD PUSH2 0x2229 JUMP JUMPDEST SWAP2 POP POP SWAP3 SWAP6 SWAP2 SWAP5 POP SWAP3 POP JUMP JUMPDEST PUSH1 0x0 DUP1 PUSH1 0x40 DUP4 DUP6 SUB SLT ISZERO PUSH2 0x22F1 JUMPI PUSH2 0x22F0 PUSH2 0x1CC7 JUMP JUMPDEST JUMPDEST PUSH1 0x0 PUSH2 0x22FF DUP6 DUP3 DUP7 ADD PUSH2 0x1F14 JUMP JUMPDEST SWAP3 POP POP PUSH1 0x20 PUSH2 0x2310 DUP6 DUP3 DUP7 ADD PUSH2 0x1F14 JUMP JUMPDEST SWAP2 POP POP SWAP3 POP SWAP3 SWAP1 POP JUMP JUMPDEST PUSH1 0x0 DUP2 SWAP1 POP SWAP2 SWAP1 POP JUMP JUMPDEST PUSH2 0x232D DUP2 PUSH2 0x231A JUMP JUMPDEST DUP2 EQ PUSH2 0x2338 JUMPI PUSH1 0x0 DUP1 REVERT JUMPDEST POP JUMP JUMPDEST PUSH1 0x0 DUP2 CALLDATALOAD SWAP1 POP PUSH2 0x234A DUP2 PUSH2 0x2324 JUMP JUMPDEST SWAP3 SWAP2 POP POP JUMP JUMPDEST PUSH1 0x0 PUSH1 0x20 DUP3 DUP5 SUB SLT ISZERO PUSH2 0x2366 JUMPI PUSH2 0x2365 PUSH2 0x1CC7 JUMP JUMPDEST JUMPDEST PUSH1 0x0 PUSH2 0x2374 DUP5 DUP3 DUP6 ADD PUSH2 0x233B JUMP JUMPDEST SWAP2 POP POP SWAP3 SWAP2 POP POP JUMP JUMPDEST PUSH32 0x4E487B7100000000000000000000000000000000000000000000000000000000 PUSH1 0x0 MSTORE PUSH1 0x22 PUSH1 0x4 MSTORE PUSH1 0x24 PUSH1 0x0 REVERT JUMPDEST PUSH1 0x0 PUSH1 0x2 DUP3 DIV SWAP1 POP PUSH1 0x1 DUP3 AND DUP1 PUSH2 0x23C4 JUMPI PUSH1 0x7F DUP3 AND SWAP2 POP JUMPDEST PUSH1 0x20 DUP3 LT DUP2 SUB PUSH2 0x23D7 JUMPI PUSH2 0x23D6 PUSH2 0x237D JUMP JUMPDEST JUMPDEST POP SWAP2 SWAP1 POP JUMP JUMPDEST PUSH1 0x0 PUSH1 0x60 DUP3 ADD SWAP1 POP PUSH2 0x23F2 PUSH1 0x0 DUP4 ADD DUP7 PUSH2 0x1ED3 JUMP JUMPDEST PUSH2 0x23FF PUSH1 0x20 DUP4 ADD DUP6 PUSH2 0x2025 JUMP JUMPDEST PUSH2 0x240C PUSH1 0x40 DUP4 ADD DUP5 PUSH2 0x1ED3 JUMP JUMPDEST SWAP5 SWAP4 POP POP POP POP JUMP JUMPDEST PUSH32 0x4F6E6C792044414F5F534C5220636F6E74726163742063616E20616363657373 PUSH1 0x0 DUP3 ADD MSTORE PUSH32 0x20746869732066756E6374696F6E000000000000000000000000000000000000 PUSH1 0x20 DUP3 ADD MSTORE POP JUMP JUMPDEST PUSH1 0x0 PUSH2 0x2470 PUSH1 0x2E DUP4 PUSH2 0x1D97 JUMP JUMPDEST SWAP2 POP PUSH2 0x247B DUP3 PUSH2 0x2414 JUMP JUMPDEST PUSH1 0x40 DUP3 ADD SWAP1 POP SWAP2 SWAP1 POP JUMP JUMPDEST PUSH1 0x0 PUSH1 0x20 DUP3 ADD SWAP1 POP DUP2 DUP2 SUB PUSH1 0x0 DUP4 ADD MSTORE PUSH2 0x249F DUP2 PUSH2 0x2463 JUMP JUMPDEST SWAP1 POP SWAP2 SWAP1 POP JUMP JUMPDEST PUSH32 0x4E465420616C7265616479206372656174656400000000000000000000000000 PUSH1 0x0 DUP3 ADD MSTORE POP JUMP JUMPDEST PUSH1 0x0 PUSH2 0x24DC PUSH1 0x13 DUP4 PUSH2 0x1D97 JUMP JUMPDEST SWAP2 POP PUSH2 0x24E7 DUP3 PUSH2 0x24A6 JUMP JUMPDEST PUSH1 0x20 DUP3 ADD SWAP1 POP SWAP2 SWAP1 POP JUMP JUMPDEST PUSH1 0x0 PUSH1 0x20 DUP3 ADD SWAP1 POP DUP2 DUP2 SUB PUSH1 0x0 DUP4 ADD MSTORE PUSH2 0x250B DUP2 PUSH2 0x24CF JUMP JUMPDEST SWAP1 POP SWAP2 SWAP1 POP JUMP JUMPDEST PUSH1 0x0 DUP2 SWAP1 POP SWAP3 SWAP2 POP POP JUMP JUMPDEST PUSH32 0x646174613A6170706C69636174696F6E2F6A736F6E2C7B2250726F6A65637420 PUSH1 0x0 DUP3 ADD MSTORE PUSH32 0x5469746C65223A22446F6E6174696F6E204E4654222C22646573637269707469 PUSH1 0x20 DUP3 ADD MSTORE PUSH32 0x6F6E223A22202B2070726F6A656374735B5F70726F6A65637449645D2E70726F PUSH1 0x40 DUP3 ADD MSTORE PUSH32 0x6A6563744465736372697074696F6E2829202B20000000000000000000000000 PUSH1 0x60 DUP3 ADD MSTORE POP JUMP JUMPDEST PUSH1 0x0 PUSH2 0x25C5 PUSH1 0x74 DUP4 PUSH2 0x2512 JUMP JUMPDEST SWAP2 POP PUSH2 0x25D0 DUP3 PUSH2 0x251D JUMP JUMPDEST PUSH1 0x74 DUP3 ADD SWAP1 POP SWAP2 SWAP1 POP JUMP JUMPDEST PUSH1 0x0 DUP2 SWAP1 POP SWAP2 SWAP1 POP JUMP JUMPDEST PUSH2 0x25F6 PUSH2 0x25F1 DUP3 PUSH2 0x1E3E JUMP JUMPDEST PUSH2 0x25DB JUMP JUMPDEST DUP3 MSTORE POP POP JUMP JUMPDEST PUSH32 0x2045544820746F2074686520636F6E74726163742E227D000000000000000000 PUSH1 0x0 DUP3 ADD MSTORE POP JUMP JUMPDEST PUSH1 0x0 PUSH2 0x2632 PUSH1 0x17 DUP4 PUSH2 0x2512 JUMP JUMPDEST SWAP2 POP PUSH2 0x263D DUP3 PUSH2 0x25FC JUMP JUMPDEST PUSH1 0x17 DUP3 ADD SWAP1 POP SWAP2 SWAP1 POP JUMP JUMPDEST PUSH1 0x0 PUSH2 0x2653 DUP3 PUSH2 0x25B8 JUMP JUMPDEST SWAP2 POP PUSH2 0x265F DUP3 DUP5 PUSH2 0x25E5 JUMP JUMPDEST PUSH1 0x20 DUP3 ADD SWAP2 POP PUSH2 0x266E DUP3 PUSH2 0x2625 JUMP JUMPDEST SWAP2 POP DUP2 SWAP1 POP SWAP3 SWAP2 POP POP JUMP JUMPDEST PUSH32 0x4E487B7100000000000000000000000000000000000000000000000000000000 PUSH1 0x0 MSTORE PUSH1 0x11 PUSH1 0x4 MSTORE PUSH1 0x24 PUSH1 0x0 REVERT JUMPDEST PUSH1 0x0 PUSH2 0x26B3 DUP3 PUSH2 0x1E3E JUMP JUMPDEST SWAP2 POP PUSH2 0x26BE DUP4 PUSH2 0x1E3E JUMP JUMPDEST SWAP3 POP DUP3 DUP3 ADD SWAP1 POP DUP1 DUP3 GT ISZERO PUSH2 0x26D6 JUMPI PUSH2 0x26D5 PUSH2 0x2679 JUMP JUMPDEST JUMPDEST SWAP3 SWAP2 POP POP JUMP JUMPDEST PUSH1 0x0 PUSH2 0x26E7 DUP3 PUSH2 0x1D8C JUMP JUMPDEST PUSH2 0x26F1 DUP2 DUP6 PUSH2 0x2512 JUMP JUMPDEST SWAP4 POP PUSH2 0x2701 DUP2 DUP6 PUSH1 0x20 DUP7 ADD PUSH2 0x1DA8 JUMP JUMPDEST DUP1 DUP5 ADD SWAP2 POP POP SWAP3 SWAP2 POP POP JUMP JUMPDEST PUSH1 0x0 PUSH2 0x2719 DUP3 DUP6 PUSH2 0x26DC JUMP JUMPDEST SWAP2 POP PUSH2 0x2725 DUP3 DUP5 PUSH2 0x26DC JUMP JUMPDEST SWAP2 POP DUP2 SWAP1 POP SWAP4 SWAP3 POP POP POP JUMP JUMPDEST PUSH1 0x0 PUSH2 0x273C DUP3 PUSH2 0x1E3E JUMP JUMPDEST SWAP2 POP PUSH2 0x2747 DUP4 PUSH2 0x1E3E JUMP JUMPDEST SWAP3 POP DUP3 DUP3 MUL PUSH2 0x2755 DUP2 PUSH2 0x1E3E JUMP JUMPDEST SWAP2 POP DUP3 DUP3 DIV DUP5 EQ DUP4 ISZERO OR PUSH2 0x276C JUMPI PUSH2 0x276B PUSH2 0x2679 JUMP JUMPDEST JUMPDEST POP SWAP3 SWAP2 POP POP JUMP JUMPDEST PUSH32 0x4E487B7100000000000000000000000000000000000000000000000000000000 PUSH1 0x0 MSTORE PUSH1 0x32 PUSH1 0x4 MSTORE PUSH1 0x24 PUSH1 0x0 REVERT JUMPDEST PUSH1 0x0 PUSH2 0x27AD DUP3 PUSH2 0x1E3E JUMP JUMPDEST SWAP2 POP PUSH1 0x0 DUP3 SUB PUSH2 0x27C0 JUMPI PUSH2 0x27BF PUSH2 0x2679 JUMP JUMPDEST JUMPDEST PUSH1 0x1 DUP3 SUB SWAP1 POP SWAP2 SWAP1 POP JUMP JUMPDEST PUSH1 0x0 PUSH1 0x40 DUP3 ADD SWAP1 POP PUSH2 0x27E0 PUSH1 0x0 DUP4 ADD DUP6 PUSH2 0x2025 JUMP JUMPDEST PUSH2 0x27ED PUSH1 0x20 DUP4 ADD DUP5 PUSH2 0x2025 JUMP JUMPDEST SWAP4 SWAP3 POP POP POP JUMP JUMPDEST PUSH32 0x4E487B7100000000000000000000000000000000000000000000000000000000 PUSH1 0x0 MSTORE PUSH1 0x12 PUSH1 0x4 MSTORE PUSH1 0x24 PUSH1 0x0 REVERT JUMPDEST PUSH1 0x0 PUSH2 0x282F DUP3 DUP8 PUSH2 0x26DC JUMP JUMPDEST SWAP2 POP PUSH2 0x283B DUP3 DUP7 PUSH2 0x26DC JUMP JUMPDEST SWAP2 POP PUSH2 0x2847 DUP3 DUP6 PUSH2 0x25E5 JUMP JUMPDEST PUSH1 0x20 DUP3 ADD SWAP2 POP PUSH2 0x2857 DUP3 DUP5 PUSH2 0x25E5 JUMP JUMPDEST PUSH1 0x20 DUP3 ADD SWAP2 POP DUP2 SWAP1 POP SWAP6 SWAP5 POP POP POP POP POP JUMP JUMPDEST PUSH1 0x0 DUP2 MLOAD SWAP1 POP SWAP2 SWAP1 POP JUMP JUMPDEST PUSH1 0x0 DUP2 SWAP1 POP SWAP3 SWAP2 POP POP JUMP JUMPDEST PUSH1 0x0 PUSH2 0x288A DUP3 PUSH2 0x2869 JUMP JUMPDEST PUSH2 0x2894 DUP2 DUP6 PUSH2 0x2874 JUMP JUMPDEST SWAP4 POP PUSH2 0x28A4 DUP2 DUP6 PUSH1 0x20 DUP7 ADD PUSH2 0x1DA8 JUMP JUMPDEST DUP1 DUP5 ADD SWAP2 POP POP SWAP3 SWAP2 POP POP JUMP JUMPDEST PUSH1 0x0 PUSH2 0x28BC DUP3 DUP5 PUSH2 0x287F JUMP JUMPDEST SWAP2 POP DUP2 SWAP1 POP SWAP3 SWAP2 POP POP JUMP JUMPDEST PUSH1 0x0 DUP2 MLOAD SWAP1 POP PUSH2 0x28D6 DUP2 PUSH2 0x2324 JUMP JUMPDEST SWAP3 SWAP2 POP POP JUMP JUMPDEST PUSH1 0x0 PUSH1 0x20 DUP3 DUP5 SUB SLT ISZERO PUSH2 0x28F2 JUMPI PUSH2 0x28F1 PUSH2 0x1CC7 JUMP JUMPDEST JUMPDEST PUSH1 0x0 PUSH2 0x2900 DUP5 DUP3 DUP6 ADD PUSH2 0x28C7 JUMP JUMPDEST SWAP2 POP POP SWAP3 SWAP2 POP POP JUMP JUMPDEST PUSH1 0x0 DUP2 SWAP1 POP DUP2 PUSH1 0x0 MSTORE PUSH1 0x20 PUSH1 0x0 KECCAK256 SWAP1 POP SWAP2 SWAP1 POP JUMP JUMPDEST PUSH1 0x0 PUSH1 0x20 PUSH1 0x1F DUP4 ADD DIV SWAP1 POP SWAP2 SWAP1 POP JUMP JUMPDEST PUSH1 0x0 DUP3 DUP3 SHL SWAP1 POP SWAP3 SWAP2 POP POP JUMP JUMPDEST PUSH1 0x0 PUSH1 0x8 DUP4 MUL PUSH2 0x296B PUSH32 0xFFFFFFFFFFFFFFFFFFFFFFFFFFFFFFFFFFFFFFFFFFFFFFFFFFFFFFFFFFFFFFFF DUP3 PUSH2 0x292E JUMP JUMPDEST PUSH2 0x2975 DUP7 DUP4 PUSH2 0x292E JUMP JUMPDEST SWAP6 POP DUP1 NOT DUP5 AND SWAP4 POP DUP1 DUP7 AND DUP5 OR SWAP3 POP POP POP SWAP4 SWAP3 POP POP POP JUMP JUMPDEST PUSH1 0x0 DUP2 SWAP1 POP SWAP2 SWAP1 POP JUMP JUMPDEST PUSH1 0x0 PUSH2 0x29B2 PUSH2 0x29AD PUSH2 0x29A8 DUP5 PUSH2 0x1E3E JUMP JUMPDEST PUSH2 0x298D JUMP JUMPDEST PUSH2 0x1E3E JUMP JUMPDEST SWAP1 POP SWAP2 SWAP1 POP JUMP JUMPDEST PUSH1 0x0 DUP2 SWAP1 POP SWAP2 SWAP1 POP JUMP JUMPDEST PUSH2 0x29CC DUP4 PUSH2 0x2997 JUMP JUMPDEST PUSH2 0x29E0 PUSH2 0x29D8 DUP3 PUSH2 0x29B9 JUMP JUMPDEST DUP5 DUP5 SLOAD PUSH2 0x293B JUMP JUMPDEST DUP3 SSTORE POP POP POP POP JUMP JUMPDEST PUSH1 0x0 SWAP1 JUMP JUMPDEST PUSH2 0x29F5 PUSH2 0x29E8 JUMP JUMPDEST PUSH2 0x2A00 DUP2 DUP5 DUP5 PUSH2 0x29C3 JUMP JUMPDEST POP POP POP JUMP JUMPDEST JUMPDEST DUP2 DUP2 LT ISZERO PUSH2 0x2A24 JUMPI PUSH2 0x2A19 PUSH1 0x0 DUP3 PUSH2 0x29ED JUMP JUMPDEST PUSH1 0x1 DUP2 ADD SWAP1 POP PUSH2 0x2A06 JUMP JUMPDEST POP POP JUMP JUMPDEST PUSH1 0x1F DUP3 GT ISZERO PUSH2 0x2A69 JUMPI PUSH2 0x2A3A DUP2 PUSH2 0x2909 JUMP JUMPDEST PUSH2 0x2A43 DUP5 PUSH2 0x291E JUMP JUMPDEST DUP2 ADD PUSH1 0x20 DUP6 LT ISZERO PUSH2 0x2A52 JUMPI DUP2 SWAP1 POP JUMPDEST PUSH2 0x2A66 PUSH2 0x2A5E DUP6 PUSH2 0x291E JUMP JUMPDEST DUP4 ADD DUP3 PUSH2 0x2A05 JUMP JUMPDEST POP POP JUMPDEST POP POP POP JUMP JUMPDEST PUSH1 0x0 DUP3 DUP3 SHR SWAP1 POP SWAP3 SWAP2 POP POP JUMP JUMPDEST PUSH1 0x0 PUSH2 0x2A8C PUSH1 0x0 NOT DUP5 PUSH1 0x8 MUL PUSH2 0x2A6E JUMP JUMPDEST NOT DUP1 DUP4 AND SWAP2 POP POP SWAP3 SWAP2 POP POP JUMP JUMPDEST PUSH1 0x0 PUSH2 0x2AA5 DUP4 DUP4 PUSH2 0x2A7B JUMP JUMPDEST SWAP2 POP DUP3 PUSH1 0x2 MUL DUP3 OR SWAP1 POP SWAP3 SWAP2 POP POP JUMP JUMPDEST PUSH2 0x2ABE DUP3 PUSH2 0x1D8C JUMP JUMPDEST PUSH8 0xFFFFFFFFFFFFFFFF DUP2 GT ISZERO PUSH2 0x2AD7 JUMPI PUSH2 0x2AD6 PUSH2 0x212C JUMP JUMPDEST JUMPDEST PUSH2 0x2AE1 DUP3 SLOAD PUSH2 0x23AC JUMP JUMPDEST PUSH2 0x2AEC DUP3 DUP3 DUP6 PUSH2 0x2A28 JUMP JUMPDEST PUSH1 0x0 PUSH1 0x20 SWAP1 POP PUSH1 0x1F DUP4 GT PUSH1 0x1 DUP2 EQ PUSH2 0x2B1F JUMPI PUSH1 0x0 DUP5 ISZERO PUSH2 0x2B0D JUMPI DUP3 DUP8 ADD MLOAD SWAP1 POP JUMPDEST PUSH2 0x2B17 DUP6 DUP3 PUSH2 0x2A99 JUMP JUMPDEST DUP7 SSTORE POP PUSH2 0x2B7F JUMP JUMPDEST PUSH1 0x1F NOT DUP5 AND PUSH2 0x2B2D DUP7 PUSH2 0x2909 JUMP JUMPDEST PUSH1 0x0 JUMPDEST DUP3 DUP2 LT ISZERO PUSH2 0x2B55 JUMPI DUP5 DUP10 ADD MLOAD DUP3 SSTORE PUSH1 0x1 DUP3 ADD SWAP2 POP PUSH1 0x20 DUP6 ADD SWAP5 POP PUSH1 0x20 DUP2 ADD SWAP1 POP PUSH2 0x2B30 JUMP JUMPDEST DUP7 DUP4 LT ISZERO PUSH2 0x2B72 JUMPI DUP5 DUP10 ADD MLOAD PUSH2 0x2B6E PUSH1 0x1F DUP10 AND DUP3 PUSH2 0x2A7B JUMP JUMPDEST DUP4 SSTORE POP JUMPDEST PUSH1 0x1 PUSH1 0x2 DUP9 MUL ADD DUP9 SSTORE POP POP POP JUMPDEST POP POP POP POP POP POP JUMP JUMPDEST PUSH1 0x0 DUP3 DUP3 MSTORE PUSH1 0x20 DUP3 ADD SWAP1 POP SWAP3 SWAP2 POP POP JUMP JUMPDEST PUSH1 0x0 PUSH2 0x2BA3 DUP3 PUSH2 0x2869 JUMP JUMPDEST PUSH2 0x2BAD DUP2 DUP6 PUSH2 0x2B87 JUMP JUMPDEST SWAP4 POP PUSH2 0x2BBD DUP2 DUP6 PUSH1 0x20 DUP7 ADD PUSH2 0x1DA8 JUMP JUMPDEST PUSH2 0x2BC6 DUP2 PUSH2 0x1DD2 JUMP JUMPDEST DUP5 ADD SWAP2 POP POP SWAP3 SWAP2 POP POP JUMP JUMPDEST PUSH1 0x0 PUSH1 0x80 DUP3 ADD SWAP1 POP PUSH2 0x2BE6 PUSH1 0x0 DUP4 ADD DUP8 PUSH2 0x1ED3 JUMP JUMPDEST PUSH2 0x2BF3 PUSH1 0x20 DUP4 ADD DUP7 PUSH2 0x1ED3 JUMP JUMPDEST PUSH2 0x2C00 PUSH1 0x40 DUP4 ADD DUP6 PUSH2 0x2025 JUMP JUMPDEST DUP2 DUP2 SUB PUSH1 0x60 DUP4 ADD MSTORE PUSH2 0x2C12 DUP2 DUP5 PUSH2 0x2B98 JUMP JUMPDEST SWAP1 POP SWAP6 SWAP5 POP POP POP POP POP JUMP JUMPDEST PUSH1 0x0 DUP2 MLOAD SWAP1 POP PUSH2 0x2C2C DUP2 PUSH2 0x1CFD JUMP JUMPDEST SWAP3 SWAP2 POP POP JUMP JUMPDEST PUSH1 0x0 PUSH1 0x20 DUP3 DUP5 SUB SLT ISZERO PUSH2 0x2C48 JUMPI PUSH2 0x2C47 PUSH2 0x1CC7 JUMP JUMPDEST JUMPDEST PUSH1 0x0 PUSH2 0x2C56 DUP5 DUP3 DUP6 ADD PUSH2 0x2C1D JUMP JUMPDEST SWAP2 POP POP SWAP3 SWAP2 POP POP JUMP JUMPDEST PUSH1 0x0 PUSH1 0x40 DUP3 ADD SWAP1 POP PUSH2 0x2C74 PUSH1 0x0 DUP4 ADD DUP6 PUSH2 0x1ED3 JUMP JUMPDEST PUSH2 0x2C81 PUSH1 0x20 DUP4 ADD DUP5 PUSH2 0x2025 JUMP JUMPDEST SWAP4 SWAP3 POP POP POP JUMP INVALID LOG2 PUSH5 0x6970667358 0x22 SLT KECCAK256 PUSH27 0x25D69C4E1A352FF22C30CFBEAAE1CDD6974F6263ED671024364DD4 PUSH8 0xBEC1B364736F6C63 NUMBER STOP ADDMOD XOR STOP CALLER "},"methodIdentifiers":{"approve(address,uint256)":"095ea7b3","balanceOf(address)":"70a08231","createDonationReceipt(address,uint256,uint256,uint256)":"a16297a0","dao()":"4162169f","getApproved(uint256)":"081812fc","isApprovedForAll(address,address)":"e985e9c5","name()":"06fdde03","nftsCreated(bytes32)":"f97203af","ownerOf(uint256)":"6352211e","safeTransferFrom(address,address,uint256)":"42842e0e","safeTransferFrom(address,address,uint256,bytes)":"b88d4fde","setApprovalForAll(address,bool)":"a22cb465","supportsInterface(bytes4)":"01ffc9a7","symbol()":"95d89b41","tokenURI(uint256)":"c87b56dd","transferFrom(address,address,uint256)":"23b872dd"}}}}}