{"contracts/Project.sol":{"Project":{"abi":[{"inputs":[{"internalType":"address payable","name":"_owner","type":"address"},{"internalType":"string","name":"_description","type":"string"},{"internalType":"uint256","name":"_goal","type":"uint256"}],"stateMutability":"nonpayable","type":"constructor"},{"anonymous":false,"inputs":[{"indexed":false,"internalType":"uint256","name":"amount","type":"uint256"}],"name":"FundingGoalReached","type":"event"},{"anonymous":false,"inputs":[{"indexed":false,"internalType":"enum Project.ProjectState","name":"newState","type":"uint8"}],"name":"StateChanged","type":"event"},{"inputs":[{"internalType":"string","name":"_newDescription","type":"string"}],"name":"changeDescription","outputs":[],"stateMutability":"nonpayable","type":"function"},{"inputs":[],"name":"currentFunding","outputs":[{"internalType":"uint256","name":"","type":"uint256"}],"stateMutability":"view","type":"function"},{"inputs":[],"name":"fundingGoal","outputs":[{"internalType":"uint256","name":"","type":"uint256"}],"stateMutability":"view","type":"function"},{"inputs":[],"name":"projectDescription","outputs":[{"internalType":"string","name":"","type":"string"}],"stateMutability":"view","type":"function"},{"inputs":[],"name":"projectOwner","outputs":[{"internalType":"address payable","name":"","type":"address"}],"stateMutability":"view","type":"function"},{"inputs":[],"name":"state","outputs":[{"internalType":"enum Project.ProjectState","name":"","type":"uint8"}],"stateMutability":"view","type":"function"},{"inputs":[],"name":"transferFunds","outputs":[],"stateMutability":"nonpayable","type":"function"},{"inputs":[{"internalType":"uint256","name":"_amount","type":"uint256"}],"name":"vote","outputs":[],"stateMutability":"nonpayable","type":"function"},{"inputs":[{"internalType":"address","name":"","type":"address"}],"name":"votes","outputs":[{"internalType":"uint256","name":"","type":"uint256"}],"stateMutability":"view","type":"function"}],"evm":{"bytecode":{"linkReferences":{},"object":"60806040523480156200001157600080fd5b50604051620013b9380380620013b98339818101604052810190620000379190620002d4565b826000806101000a81548173ffffffffffffffffffffffffffffffffffffffff021916908373ffffffffffffffffffffffffffffffffffffffff160217905550816001908162000088919062000590565b5080600281905550600060038190555050505062000677565b6000604051905090565b600080fd5b600080fd5b600073ffffffffffffffffffffffffffffffffffffffff82169050919050565b6000620000e282620000b5565b9050919050565b620000f481620000d5565b81146200010057600080fd5b50565b6000815190506200011481620000e9565b92915050565b600080fd5b600080fd5b6000601f19601f8301169050919050565b7f4e487b7100000000000000000000000000000000000000000000000000000000600052604160045260246000fd5b6200016f8262000124565b810181811067ffffffffffffffff8211171562000191576200019062000135565b5b80604052505050565b6000620001a6620000a1565b9050620001b4828262000164565b919050565b600067ffffffffffffffff821115620001d757620001d662000135565b5b620001e28262000124565b9050602081019050919050565b60005b838110156200020f578082015181840152602081019050620001f2565b60008484015250505050565b6000620002326200022c84620001b9565b6200019a565b9050828152602081018484840111156200025157620002506200011f565b5b6200025e848285620001ef565b509392505050565b600082601f8301126200027e576200027d6200011a565b5b8151620002908482602086016200021b565b91505092915050565b6000819050919050565b620002ae8162000299565b8114620002ba57600080fd5b50565b600081519050620002ce81620002a3565b92915050565b600080600060608486031215620002f057620002ef620000ab565b5b6000620003008682870162000103565b935050602084015167ffffffffffffffff811115620003245762000323620000b0565b5b620003328682870162000266565b92505060406200034586828701620002bd565b9150509250925092565b600081519050919050565b7f4e487b7100000000000000000000000000000000000000000000000000000000600052602260045260246000fd5b60006002820490506001821680620003a257607f821691505b602082108103620003b857620003b76200035a565b5b50919050565b60008190508160005260206000209050919050565b60006020601f8301049050919050565b600082821b905092915050565b600060088302620004227fffffffffffffffffffffffffffffffffffffffffffffffffffffffffffffffff82620003e3565b6200042e8683620003e3565b95508019841693508086168417925050509392505050565b6000819050919050565b6000620004716200046b620004658462000299565b62000446565b62000299565b9050919050565b6000819050919050565b6200048d8362000450565b620004a56200049c8262000478565b848454620003f0565b825550505050565b600090565b620004bc620004ad565b620004c981848462000482565b505050565b5b81811015620004f157620004e5600082620004b2565b600181019050620004cf565b5050565b601f82111562000540576200050a81620003be565b6200051584620003d3565b8101602085101562000525578190505b6200053d6200053485620003d3565b830182620004ce565b50505b505050565b600082821c905092915050565b6000620005656000198460080262000545565b1980831691505092915050565b600062000580838362000552565b9150826002028217905092915050565b6200059b826200034f565b67ffffffffffffffff811115620005b757620005b662000135565b5b620005c3825462000389565b620005d0828285620004f5565b600060209050601f831160018114620006085760008415620005f3578287015190505b620005ff858262000572565b8655506200066f565b601f1984166200061886620003be565b60005b8281101562000642578489015182556001820191506020850194506020810190506200061b565b868310156200066257848901516200065e601f89168262000552565b8355505b6001600288020188555050505b505050505050565b610d3280620006876000396000f3fe608060405234801561001057600080fd5b50600436106100935760003560e01c80637a3a0e84116100665780637a3a0e84146100fa578063a4475ce414610118578063c19d93fb14610136578063d8bff5a514610154578063e61204131461018457610093565b80630121b93f146100985780630888b70d146100b45780633c68eb81146100d2578063755f047b146100dc575b600080fd5b6100b260048036038101906100ad91906104dd565b6101a0565b005b6100bc610257565b6040516100c99190610519565b60405180910390f35b6100da61025d565b005b6100e461030f565b6040516100f191906105c4565b60405180910390f35b61010261039d565b60405161010f9190610519565b60405180910390f35b6101206103a3565b60405161012d9190610627565b60405180910390f35b61013e6103c7565b60405161014b91906106b9565b60405180910390f35b61016e60048036038101906101699190610712565b6103da565b60405161017b9190610519565b60405180910390f35b61019e60048036038101906101999190610874565b6103f2565b005b80600460003373ffffffffffffffffffffffffffffffffffffffff1673ffffffffffffffffffffffffffffffffffffffff16815260200190815260200160002060008282546101ef91906108ec565b92505081905550806003600082825461020891906108ec565b9250508190555060025460035410610254577fbdf8e8154212732e32053db049accdd4ff27639d7028ecf127e2353161b994bf60035460405161024b9190610519565b60405180910390a15b50565b60035481565b60025460035410156102a4576040517f08c379a000000000000000000000000000000000000000000000000000000000815260040161029b9061096c565b60405180910390fd5b60008054906101000a900473ffffffffffffffffffffffffffffffffffffffff1673ffffffffffffffffffffffffffffffffffffffff166108fc6003549081150290604051600060405180830381858888f1935050505015801561030c573d6000803e3d6000fd5b50565b6001805461031c906109bb565b80601f0160208091040260200160405190810160405280929190818152602001828054610348906109bb565b80156103955780601f1061036a57610100808354040283529160200191610395565b820191906000526020600020905b81548152906001019060200180831161037857829003601f168201915b505050505081565b60025481565b60008054906101000a900473ffffffffffffffffffffffffffffffffffffffff1681565b600560009054906101000a900460ff1681565b60046020528060005260406000206000915090505481565b60008054906101000a900473ffffffffffffffffffffffffffffffffffffffff1673ffffffffffffffffffffffffffffffffffffffff163373ffffffffffffffffffffffffffffffffffffffff1614610480576040517f08c379a000000000000000000000000000000000000000000000000000000000815260040161047790610a5e565b60405180910390fd5b806001908161048f9190610c2a565b5050565b6000604051905090565b600080fd5b600080fd5b6000819050919050565b6104ba816104a7565b81146104c557600080fd5b50565b6000813590506104d7816104b1565b92915050565b6000602082840312156104f3576104f261049d565b5b6000610501848285016104c8565b91505092915050565b610513816104a7565b82525050565b600060208201905061052e600083018461050a565b92915050565b600081519050919050565b600082825260208201905092915050565b60005b8381101561056e578082015181840152602081019050610553565b60008484015250505050565b6000601f19601f8301169050919050565b600061059682610534565b6105a0818561053f565b93506105b0818560208601610550565b6105b98161057a565b840191505092915050565b600060208201905081810360008301526105de818461058b565b905092915050565b600073ffffffffffffffffffffffffffffffffffffffff82169050919050565b6000610611826105e6565b9050919050565b61062181610606565b82525050565b600060208201905061063c6000830184610618565b92915050565b7f4e487b7100000000000000000000000000000000000000000000000000000000600052602160045260246000fd5b6008811061068257610681610642565b5b50565b600081905061069382610671565b919050565b60006106a382610685565b9050919050565b6106b381610698565b82525050565b60006020820190506106ce60008301846106aa565b92915050565b60006106df826105e6565b9050919050565b6106ef816106d4565b81146106fa57600080fd5b50565b60008135905061070c816106e6565b92915050565b6000602082840312156107285761072761049d565b5b6000610736848285016106fd565b91505092915050565b600080fd5b600080fd5b7f4e487b7100000000000000000000000000000000000000000000000000000000600052604160045260246000fd5b6107818261057a565b810181811067ffffffffffffffff821117156107a05761079f610749565b5b80604052505050565b60006107b3610493565b90506107bf8282610778565b919050565b600067ffffffffffffffff8211156107df576107de610749565b5b6107e88261057a565b9050602081019050919050565b82818337600083830152505050565b6000610817610812846107c4565b6107a9565b90508281526020810184848401111561083357610832610744565b5b61083e8482856107f5565b509392505050565b600082601f83011261085b5761085a61073f565b5b813561086b848260208601610804565b91505092915050565b60006020828403121561088a5761088961049d565b5b600082013567ffffffffffffffff8111156108a8576108a76104a2565b5b6108b484828501610846565b91505092915050565b7f4e487b7100000000000000000000000000000000000000000000000000000000600052601160045260246000fd5b60006108f7826104a7565b9150610902836104a7565b925082820190508082111561091a576109196108bd565b5b92915050565b7f46756e64696e6720676f616c206e6f7420726561636865640000000000000000600082015250565b600061095660188361053f565b915061096182610920565b602082019050919050565b6000602082019050818103600083015261098581610949565b9050919050565b7f4e487b7100000000000000000000000000000000000000000000000000000000600052602260045260246000fd5b600060028204905060018216806109d357607f821691505b6020821081036109e6576109e561098c565b5b50919050565b7f4f6e6c792070726f6a656374206f776e65722063616e2063616c6c207468697360008201527f2066756e6374696f6e0000000000000000000000000000000000000000000000602082015250565b6000610a4860298361053f565b9150610a53826109ec565b604082019050919050565b60006020820190508181036000830152610a7781610a3b565b9050919050565b60008190508160005260206000209050919050565b60006020601f8301049050919050565b600082821b905092915050565b600060088302610ae07fffffffffffffffffffffffffffffffffffffffffffffffffffffffffffffffff82610aa3565b610aea8683610aa3565b95508019841693508086168417925050509392505050565b6000819050919050565b6000610b27610b22610b1d846104a7565b610b02565b6104a7565b9050919050565b6000819050919050565b610b4183610b0c565b610b55610b4d82610b2e565b848454610ab0565b825550505050565b600090565b610b6a610b5d565b610b75818484610b38565b505050565b5b81811015610b9957610b8e600082610b62565b600181019050610b7b565b5050565b601f821115610bde57610baf81610a7e565b610bb884610a93565b81016020851015610bc7578190505b610bdb610bd385610a93565b830182610b7a565b50505b505050565b600082821c905092915050565b6000610c0160001984600802610be3565b1980831691505092915050565b6000610c1a8383610bf0565b9150826002028217905092915050565b610c3382610534565b67ffffffffffffffff811115610c4c57610c4b610749565b5b610c5682546109bb565b610c61828285610b9d565b600060209050601f831160018114610c945760008415610c82578287015190505b610c8c8582610c0e565b865550610cf4565b601f198416610ca286610a7e565b60005b82811015610cca57848901518255600182019150602085019450602081019050610ca5565b86831015610ce75784890151610ce3601f891682610bf0565b8355505b6001600288020188555050505b50505050505056fea2646970667358221220663f22e9a11a2278aafc554684e4ac5bbfbf2ab7f0be8da8cc4a4053d7e738ce64736f6c63430008180033","opcodes":"PUSH1 0x80 PUSH1 0x40 MSTORE CALLVALUE DUP1 ISZERO PUSH3 0x11 JUMPI PUSH1 0x0 DUP1 REVERT JUMPDEST POP PUSH1 0x40 MLOAD PUSH3 0x13B9 CODESIZE SUB DUP1 PUSH3 0x13B9 DUP4 CODECOPY DUP2 DUP2 ADD PUSH1 0x40 MSTORE DUP2 ADD SWAP1 PUSH3 0x37 SWAP2 SWAP1 PUSH3 0x2D4 JUMP JUMPDEST DUP3 PUSH1 0x0 DUP1 PUSH2 0x100 EXP DUP2 SLOAD DUP2 PUSH20 0xFFFFFFFFFFFFFFFFFFFFFFFFFFFFFFFFFFFFFFFF MUL NOT AND SWAP1 DUP4 PUSH20 0xFFFFFFFFFFFFFFFFFFFFFFFFFFFFFFFFFFFFFFFF AND MUL OR SWAP1 SSTORE POP DUP2 PUSH1 0x1 SWAP1 DUP2 PUSH3 0x88 SWAP2 SWAP1 PUSH3 0x590 JUMP JUMPDEST POP DUP1 PUSH1 0x2 DUP2 SWAP1 SSTORE POP PUSH1 0x0 PUSH1 0x3 DUP2 SWAP1 SSTORE POP POP POP POP PUSH3 0x677 JUMP JUMPDEST PUSH1 0x0 PUSH1 0x40 MLOAD SWAP1 POP SWAP1 JUMP JUMPDEST PUSH1 0x0 DUP1 REVERT JUMPDEST PUSH1 0x0 DUP1 REVERT JUMPDEST PUSH1 0x0 PUSH20 0xFFFFFFFFFFFFFFFFFFFFFFFFFFFFFFFFFFFFFFFF DUP3 AND SWAP1 POP SWAP2 SWAP1 POP JUMP JUMPDEST PUSH1 0x0 PUSH3 0xE2 DUP3 PUSH3 0xB5 JUMP JUMPDEST SWAP1 POP SWAP2 SWAP1 POP JUMP JUMPDEST PUSH3 0xF4 DUP2 PUSH3 0xD5 JUMP JUMPDEST DUP2 EQ PUSH3 0x100 JUMPI PUSH1 0x0 DUP1 REVERT JUMPDEST POP JUMP JUMPDEST PUSH1 0x0 DUP2 MLOAD SWAP1 POP PUSH3 0x114 DUP2 PUSH3 0xE9 JUMP JUMPDEST SWAP3 SWAP2 POP POP JUMP JUMPDEST PUSH1 0x0 DUP1 REVERT JUMPDEST PUSH1 0x0 DUP1 REVERT JUMPDEST PUSH1 0x0 PUSH1 0x1F NOT PUSH1 0x1F DUP4 ADD AND SWAP1 POP SWAP2 SWAP1 POP JUMP JUMPDEST PUSH32 0x4E487B7100000000000000000000000000000000000000000000000000000000 PUSH1 0x0 MSTORE PUSH1 0x41 PUSH1 0x4 MSTORE PUSH1 0x24 PUSH1 0x0 REVERT JUMPDEST PUSH3 0x16F DUP3 PUSH3 0x124 JUMP JUMPDEST DUP2 ADD DUP2 DUP2 LT PUSH8 0xFFFFFFFFFFFFFFFF DUP3 GT OR ISZERO PUSH3 0x191 JUMPI PUSH3 0x190 PUSH3 0x135 JUMP JUMPDEST JUMPDEST DUP1 PUSH1 0x40 MSTORE POP POP POP JUMP JUMPDEST PUSH1 0x0 PUSH3 0x1A6 PUSH3 0xA1 JUMP JUMPDEST SWAP1 POP PUSH3 0x1B4 DUP3 DUP3 PUSH3 0x164 JUMP JUMPDEST SWAP2 SWAP1 POP JUMP JUMPDEST PUSH1 0x0 PUSH8 0xFFFFFFFFFFFFFFFF DUP3 GT ISZERO PUSH3 0x1D7 JUMPI PUSH3 0x1D6 PUSH3 0x135 JUMP JUMPDEST JUMPDEST PUSH3 0x1E2 DUP3 PUSH3 0x124 JUMP JUMPDEST SWAP1 POP PUSH1 0x20 DUP2 ADD SWAP1 POP SWAP2 SWAP1 POP JUMP JUMPDEST PUSH1 0x0 JUMPDEST DUP4 DUP2 LT ISZERO PUSH3 0x20F JUMPI DUP1 DUP3 ADD MLOAD DUP2 DUP5 ADD MSTORE PUSH1 0x20 DUP2 ADD SWAP1 POP PUSH3 0x1F2 JUMP JUMPDEST PUSH1 0x0 DUP5 DUP5 ADD MSTORE POP POP POP POP JUMP JUMPDEST PUSH1 0x0 PUSH3 0x232 PUSH3 0x22C DUP5 PUSH3 0x1B9 JUMP JUMPDEST PUSH3 0x19A JUMP JUMPDEST SWAP1 POP DUP3 DUP2 MSTORE PUSH1 0x20 DUP2 ADD DUP5 DUP5 DUP5 ADD GT ISZERO PUSH3 0x251 JUMPI PUSH3 0x250 PUSH3 0x11F JUMP JUMPDEST JUMPDEST PUSH3 0x25E DUP5 DUP3 DUP6 PUSH3 0x1EF JUMP JUMPDEST POP SWAP4 SWAP3 POP POP POP JUMP JUMPDEST PUSH1 0x0 DUP3 PUSH1 0x1F DUP4 ADD SLT PUSH3 0x27E JUMPI PUSH3 0x27D PUSH3 0x11A JUMP JUMPDEST JUMPDEST DUP2 MLOAD PUSH3 0x290 DUP5 DUP3 PUSH1 0x20 DUP7 ADD PUSH3 0x21B JUMP JUMPDEST SWAP2 POP POP SWAP3 SWAP2 POP POP JUMP JUMPDEST PUSH1 0x0 DUP2 SWAP1 POP SWAP2 SWAP1 POP JUMP JUMPDEST PUSH3 0x2AE DUP2 PUSH3 0x299 JUMP JUMPDEST DUP2 EQ PUSH3 0x2BA JUMPI PUSH1 0x0 DUP1 REVERT JUMPDEST POP JUMP JUMPDEST PUSH1 0x0 DUP2 MLOAD SWAP1 POP PUSH3 0x2CE DUP2 PUSH3 0x2A3 JUMP JUMPDEST SWAP3 SWAP2 POP POP JUMP JUMPDEST PUSH1 0x0 DUP1 PUSH1 0x0 PUSH1 0x60 DUP5 DUP7 SUB SLT ISZERO PUSH3 0x2F0 JUMPI PUSH3 0x2EF PUSH3 0xAB JUMP JUMPDEST JUMPDEST PUSH1 0x0 PUSH3 0x300 DUP7 DUP3 DUP8 ADD PUSH3 0x103 JUMP JUMPDEST SWAP4 POP POP PUSH1 0x20 DUP5 ADD MLOAD PUSH8 0xFFFFFFFFFFFFFFFF DUP2 GT ISZERO PUSH3 0x324 JUMPI PUSH3 0x323 PUSH3 0xB0 JUMP JUMPDEST JUMPDEST PUSH3 0x332 DUP7 DUP3 DUP8 ADD PUSH3 0x266 JUMP JUMPDEST SWAP3 POP POP PUSH1 0x40 PUSH3 0x345 DUP7 DUP3 DUP8 ADD PUSH3 0x2BD JUMP JUMPDEST SWAP2 POP POP SWAP3 POP SWAP3 POP SWAP3 JUMP JUMPDEST PUSH1 0x0 DUP2 MLOAD SWAP1 POP SWAP2 SWAP1 POP JUMP JUMPDEST PUSH32 0x4E487B7100000000000000000000000000000000000000000000000000000000 PUSH1 0x0 MSTORE PUSH1 0x22 PUSH1 0x4 MSTORE PUSH1 0x24 PUSH1 0x0 REVERT JUMPDEST PUSH1 0x0 PUSH1 0x2 DUP3 DIV SWAP1 POP PUSH1 0x1 DUP3 AND DUP1 PUSH3 0x3A2 JUMPI PUSH1 0x7F DUP3 AND SWAP2 POP JUMPDEST PUSH1 0x20 DUP3 LT DUP2 SUB PUSH3 0x3B8 JUMPI PUSH3 0x3B7 PUSH3 0x35A JUMP JUMPDEST JUMPDEST POP SWAP2 SWAP1 POP JUMP JUMPDEST PUSH1 0x0 DUP2 SWAP1 POP DUP2 PUSH1 0x0 MSTORE PUSH1 0x20 PUSH1 0x0 KECCAK256 SWAP1 POP SWAP2 SWAP1 POP JUMP JUMPDEST PUSH1 0x0 PUSH1 0x20 PUSH1 0x1F DUP4 ADD DIV SWAP1 POP SWAP2 SWAP1 POP JUMP JUMPDEST PUSH1 0x0 DUP3 DUP3 SHL SWAP1 POP SWAP3 SWAP2 POP POP JUMP JUMPDEST PUSH1 0x0 PUSH1 0x8 DUP4 MUL PUSH3 0x422 PUSH32 0xFFFFFFFFFFFFFFFFFFFFFFFFFFFFFFFFFFFFFFFFFFFFFFFFFFFFFFFFFFFFFFFF DUP3 PUSH3 0x3E3 JUMP JUMPDEST PUSH3 0x42E DUP7 DUP4 PUSH3 0x3E3 JUMP JUMPDEST SWAP6 POP DUP1 NOT DUP5 AND SWAP4 POP DUP1 DUP7 AND DUP5 OR SWAP3 POP POP POP SWAP4 SWAP3 POP POP POP JUMP JUMPDEST PUSH1 0x0 DUP2 SWAP1 POP SWAP2 SWAP1 POP JUMP JUMPDEST PUSH1 0x0 PUSH3 0x471 PUSH3 0x46B PUSH3 0x465 DUP5 PUSH3 0x299 JUMP JUMPDEST PUSH3 0x446 JUMP JUMPDEST PUSH3 0x299 JUMP JUMPDEST SWAP1 POP SWAP2 SWAP1 POP JUMP JUMPDEST PUSH1 0x0 DUP2 SWAP1 POP SWAP2 SWAP1 POP JUMP JUMPDEST PUSH3 0x48D DUP4 PUSH3 0x450 JUMP JUMPDEST PUSH3 0x4A5 PUSH3 0x49C DUP3 PUSH3 0x478 JUMP JUMPDEST DUP5 DUP5 SLOAD PUSH3 0x3F0 JUMP JUMPDEST DUP3 SSTORE POP POP POP POP JUMP JUMPDEST PUSH1 0x0 SWAP1 JUMP JUMPDEST PUSH3 0x4BC PUSH3 0x4AD JUMP JUMPDEST PUSH3 0x4C9 DUP2 DUP5 DUP5 PUSH3 0x482 JUMP JUMPDEST POP POP POP JUMP JUMPDEST JUMPDEST DUP2 DUP2 LT ISZERO PUSH3 0x4F1 JUMPI PUSH3 0x4E5 PUSH1 0x0 DUP3 PUSH3 0x4B2 JUMP JUMPDEST PUSH1 0x1 DUP2 ADD SWAP1 POP PUSH3 0x4CF JUMP JUMPDEST POP POP JUMP JUMPDEST PUSH1 0x1F DUP3 GT ISZERO PUSH3 0x540 JUMPI PUSH3 0x50A DUP2 PUSH3 0x3BE JUMP JUMPDEST PUSH3 0x515 DUP5 PUSH3 0x3D3 JUMP JUMPDEST DUP2 ADD PUSH1 0x20 DUP6 LT ISZERO PUSH3 0x525 JUMPI DUP2 SWAP1 POP JUMPDEST PUSH3 0x53D PUSH3 0x534 DUP6 PUSH3 0x3D3 JUMP JUMPDEST DUP4 ADD DUP3 PUSH3 0x4CE JUMP JUMPDEST POP POP JUMPDEST POP POP POP JUMP JUMPDEST PUSH1 0x0 DUP3 DUP3 SHR SWAP1 POP SWAP3 SWAP2 POP POP JUMP JUMPDEST PUSH1 0x0 PUSH3 0x565 PUSH1 0x0 NOT DUP5 PUSH1 0x8 MUL PUSH3 0x545 JUMP JUMPDEST NOT DUP1 DUP4 AND SWAP2 POP POP SWAP3 SWAP2 POP POP JUMP JUMPDEST PUSH1 0x0 PUSH3 0x580 DUP4 DUP4 PUSH3 0x552 JUMP JUMPDEST SWAP2 POP DUP3 PUSH1 0x2 MUL DUP3 OR SWAP1 POP SWAP3 SWAP2 POP POP JUMP JUMPDEST PUSH3 0x59B DUP3 PUSH3 0x34F JUMP JUMPDEST PUSH8 0xFFFFFFFFFFFFFFFF DUP2 GT ISZERO PUSH3 0x5B7 JUMPI PUSH3 0x5B6 PUSH3 0x135 JUMP JUMPDEST JUMPDEST PUSH3 0x5C3 DUP3 SLOAD PUSH3 0x389 JUMP JUMPDEST PUSH3 0x5D0 DUP3 DUP3 DUP6 PUSH3 0x4F5 JUMP JUMPDEST PUSH1 0x0 PUSH1 0x20 SWAP1 POP PUSH1 0x1F DUP4 GT PUSH1 0x1 DUP2 EQ PUSH3 0x608 JUMPI PUSH1 0x0 DUP5 ISZERO PUSH3 0x5F3 JUMPI DUP3 DUP8 ADD MLOAD SWAP1 POP JUMPDEST PUSH3 0x5FF DUP6 DUP3 PUSH3 0x572 JUMP JUMPDEST DUP7 SSTORE POP PUSH3 0x66F JUMP JUMPDEST PUSH1 0x1F NOT DUP5 AND PUSH3 0x618 DUP7 PUSH3 0x3BE JUMP JUMPDEST PUSH1 0x0 JUMPDEST DUP3 DUP2 LT ISZERO PUSH3 0x642 JUMPI DUP5 DUP10 ADD MLOAD DUP3 SSTORE PUSH1 0x1 DUP3 ADD SWAP2 POP PUSH1 0x20 DUP6 ADD SWAP5 POP PUSH1 0x20 DUP2 ADD SWAP1 POP PUSH3 0x61B JUMP JUMPDEST DUP7 DUP4 LT ISZERO PUSH3 0x662 JUMPI DUP5 DUP10 ADD MLOAD PUSH3 0x65E PUSH1 0x1F DUP10 AND DUP3 PUSH3 0x552 JUMP JUMPDEST DUP4 SSTORE POP JUMPDEST PUSH1 0x1 PUSH1 0x2 DUP9 MUL ADD DUP9 SSTORE POP POP POP JUMPDEST POP POP POP POP POP POP JUMP JUMPDEST PUSH2 0xD32 DUP1 PUSH3 0x687 PUSH1 0x0 CODECOPY PUSH1 0x0 RETURN INVALID PUSH1 0x80 PUSH1 0x40 MSTORE CALLVALUE DUP1 ISZERO PUSH2 0x10 JUMPI PUSH1 0x0 DUP1 REVERT JUMPDEST POP PUSH1 0x4 CALLDATASIZE LT PUSH2 0x93 JUMPI PUSH1 0x0 CALLDATALOAD PUSH1 0xE0 SHR DUP1 PUSH4 0x7A3A0E84 GT PUSH2 0x66 JUMPI DUP1 PUSH4 0x7A3A0E84 EQ PUSH2 0xFA JUMPI DUP1 PUSH4 0xA4475CE4 EQ PUSH2 0x118 JUMPI DUP1 PUSH4 0xC19D93FB EQ PUSH2 0x136 JUMPI DUP1 PUSH4 0xD8BFF5A5 EQ PUSH2 0x154 JUMPI DUP1 PUSH4 0xE6120413 EQ PUSH2 0x184 JUMPI PUSH2 0x93 JUMP JUMPDEST DUP1 PUSH4 0x121B93F EQ PUSH2 0x98 JUMPI DUP1 PUSH4 0x888B70D EQ PUSH2 0xB4 JUMPI DUP1 PUSH4 0x3C68EB81 EQ PUSH2 0xD2 JUMPI DUP1 PUSH4 0x755F047B EQ PUSH2 0xDC JUMPI JUMPDEST PUSH1 0x0 DUP1 REVERT JUMPDEST PUSH2 0xB2 PUSH1 0x4 DUP1 CALLDATASIZE SUB DUP2 ADD SWAP1 PUSH2 0xAD SWAP2 SWAP1 PUSH2 0x4DD JUMP JUMPDEST PUSH2 0x1A0 JUMP JUMPDEST STOP JUMPDEST PUSH2 0xBC PUSH2 0x257 JUMP JUMPDEST PUSH1 0x40 MLOAD PUSH2 0xC9 SWAP2 SWAP1 PUSH2 0x519 JUMP JUMPDEST PUSH1 0x40 MLOAD DUP1 SWAP2 SUB SWAP1 RETURN JUMPDEST PUSH2 0xDA PUSH2 0x25D JUMP JUMPDEST STOP JUMPDEST PUSH2 0xE4 PUSH2 0x30F JUMP JUMPDEST PUSH1 0x40 MLOAD PUSH2 0xF1 SWAP2 SWAP1 PUSH2 0x5C4 JUMP JUMPDEST PUSH1 0x40 MLOAD DUP1 SWAP2 SUB SWAP1 RETURN JUMPDEST PUSH2 0x102 PUSH2 0x39D JUMP JUMPDEST PUSH1 0x40 MLOAD PUSH2 0x10F SWAP2 SWAP1 PUSH2 0x519 JUMP JUMPDEST PUSH1 0x40 MLOAD DUP1 SWAP2 SUB SWAP1 RETURN JUMPDEST PUSH2 0x120 PUSH2 0x3A3 JUMP JUMPDEST PUSH1 0x40 MLOAD PUSH2 0x12D SWAP2 SWAP1 PUSH2 0x627 JUMP JUMPDEST PUSH1 0x40 MLOAD DUP1 SWAP2 SUB SWAP1 RETURN JUMPDEST PUSH2 0x13E PUSH2 0x3C7 JUMP JUMPDEST PUSH1 0x40 MLOAD PUSH2 0x14B SWAP2 SWAP1 PUSH2 0x6B9 JUMP JUMPDEST PUSH1 0x40 MLOAD DUP1 SWAP2 SUB SWAP1 RETURN JUMPDEST PUSH2 0x16E PUSH1 0x4 DUP1 CALLDATASIZE SUB DUP2 ADD SWAP1 PUSH2 0x169 SWAP2 SWAP1 PUSH2 0x712 JUMP JUMPDEST PUSH2 0x3DA JUMP JUMPDEST PUSH1 0x40 MLOAD PUSH2 0x17B SWAP2 SWAP1 PUSH2 0x519 JUMP JUMPDEST PUSH1 0x40 MLOAD DUP1 SWAP2 SUB SWAP1 RETURN JUMPDEST PUSH2 0x19E PUSH1 0x4 DUP1 CALLDATASIZE SUB DUP2 ADD SWAP1 PUSH2 0x199 SWAP2 SWAP1 PUSH2 0x874 JUMP JUMPDEST PUSH2 0x3F2 JUMP JUMPDEST STOP JUMPDEST DUP1 PUSH1 0x4 PUSH1 0x0 CALLER PUSH20 0xFFFFFFFFFFFFFFFFFFFFFFFFFFFFFFFFFFFFFFFF AND PUSH20 0xFFFFFFFFFFFFFFFFFFFFFFFFFFFFFFFFFFFFFFFF AND DUP2 MSTORE PUSH1 0x20 ADD SWAP1 DUP2 MSTORE PUSH1 0x20 ADD PUSH1 0x0 KECCAK256 PUSH1 0x0 DUP3 DUP3 SLOAD PUSH2 0x1EF SWAP2 SWAP1 PUSH2 0x8EC JUMP JUMPDEST SWAP3 POP POP DUP2 SWAP1 SSTORE POP DUP1 PUSH1 0x3 PUSH1 0x0 DUP3 DUP3 SLOAD PUSH2 0x208 SWAP2 SWAP1 PUSH2 0x8EC JUMP JUMPDEST SWAP3 POP POP DUP2 SWAP1 SSTORE POP PUSH1 0x2 SLOAD PUSH1 0x3 SLOAD LT PUSH2 0x254 JUMPI PUSH32 0xBDF8E8154212732E32053DB049ACCDD4FF27639D7028ECF127E2353161B994BF PUSH1 0x3 SLOAD PUSH1 0x40 MLOAD PUSH2 0x24B SWAP2 SWAP1 PUSH2 0x519 JUMP JUMPDEST PUSH1 0x40 MLOAD DUP1 SWAP2 SUB SWAP1 LOG1 JUMPDEST POP JUMP JUMPDEST PUSH1 0x3 SLOAD DUP2 JUMP JUMPDEST PUSH1 0x2 SLOAD PUSH1 0x3 SLOAD LT ISZERO PUSH2 0x2A4 JUMPI PUSH1 0x40 MLOAD PUSH32 0x8C379A000000000000000000000000000000000000000000000000000000000 DUP2 MSTORE PUSH1 0x4 ADD PUSH2 0x29B SWAP1 PUSH2 0x96C JUMP JUMPDEST PUSH1 0x40 MLOAD DUP1 SWAP2 SUB SWAP1 REVERT JUMPDEST PUSH1 0x0 DUP1 SLOAD SWAP1 PUSH2 0x100 EXP SWAP1 DIV PUSH20 0xFFFFFFFFFFFFFFFFFFFFFFFFFFFFFFFFFFFFFFFF AND PUSH20 0xFFFFFFFFFFFFFFFFFFFFFFFFFFFFFFFFFFFFFFFF AND PUSH2 0x8FC PUSH1 0x3 SLOAD SWAP1 DUP2 ISZERO MUL SWAP1 PUSH1 0x40 MLOAD PUSH1 0x0 PUSH1 0x40 MLOAD DUP1 DUP4 SUB DUP2 DUP6 DUP9 DUP9 CALL SWAP4 POP POP POP POP ISZERO DUP1 ISZERO PUSH2 0x30C JUMPI RETURNDATASIZE PUSH1 0x0 DUP1 RETURNDATACOPY RETURNDATASIZE PUSH1 0x0 REVERT JUMPDEST POP JUMP JUMPDEST PUSH1 0x1 DUP1 SLOAD PUSH2 0x31C SWAP1 PUSH2 0x9BB JUMP JUMPDEST DUP1 PUSH1 0x1F ADD PUSH1 0x20 DUP1 SWAP2 DIV MUL PUSH1 0x20 ADD PUSH1 0x40 MLOAD SWAP1 DUP2 ADD PUSH1 0x40 MSTORE DUP1 SWAP3 SWAP2 SWAP1 DUP2 DUP2 MSTORE PUSH1 0x20 ADD DUP3 DUP1 SLOAD PUSH2 0x348 SWAP1 PUSH2 0x9BB JUMP JUMPDEST DUP1 ISZERO PUSH2 0x395 JUMPI DUP1 PUSH1 0x1F LT PUSH2 0x36A JUMPI PUSH2 0x100 DUP1 DUP4 SLOAD DIV MUL DUP4 MSTORE SWAP2 PUSH1 0x20 ADD SWAP2 PUSH2 0x395 JUMP JUMPDEST DUP3 ADD SWAP2 SWAP1 PUSH1 0x0 MSTORE PUSH1 0x20 PUSH1 0x0 KECCAK256 SWAP1 JUMPDEST DUP2 SLOAD DUP2 MSTORE SWAP1 PUSH1 0x1 ADD SWAP1 PUSH1 0x20 ADD DUP1 DUP4 GT PUSH2 0x378 JUMPI DUP3 SWAP1 SUB PUSH1 0x1F AND DUP3 ADD SWAP2 JUMPDEST POP POP POP POP POP DUP2 JUMP JUMPDEST PUSH1 0x2 SLOAD DUP2 JUMP JUMPDEST PUSH1 0x0 DUP1 SLOAD SWAP1 PUSH2 0x100 EXP SWAP1 DIV PUSH20 0xFFFFFFFFFFFFFFFFFFFFFFFFFFFFFFFFFFFFFFFF AND DUP2 JUMP JUMPDEST PUSH1 0x5 PUSH1 0x0 SWAP1 SLOAD SWAP1 PUSH2 0x100 EXP SWAP1 DIV PUSH1 0xFF AND DUP2 JUMP JUMPDEST PUSH1 0x4 PUSH1 0x20 MSTORE DUP1 PUSH1 0x0 MSTORE PUSH1 0x40 PUSH1 0x0 KECCAK256 PUSH1 0x0 SWAP2 POP SWAP1 POP SLOAD DUP2 JUMP JUMPDEST PUSH1 0x0 DUP1 SLOAD SWAP1 PUSH2 0x100 EXP SWAP1 DIV PUSH20 0xFFFFFFFFFFFFFFFFFFFFFFFFFFFFFFFFFFFFFFFF AND PUSH20 0xFFFFFFFFFFFFFFFFFFFFFFFFFFFFFFFFFFFFFFFF AND CALLER PUSH20 0xFFFFFFFFFFFFFFFFFFFFFFFFFFFFFFFFFFFFFFFF AND EQ PUSH2 0x480 JUMPI PUSH1 0x40 MLOAD PUSH32 0x8C379A000000000000000000000000000000000000000000000000000000000 DUP2 MSTORE PUSH1 0x4 ADD PUSH2 0x477 SWAP1 PUSH2 0xA5E JUMP JUMPDEST PUSH1 0x40 MLOAD DUP1 SWAP2 SUB SWAP1 REVERT JUMPDEST DUP1 PUSH1 0x1 SWAP1 DUP2 PUSH2 0x48F SWAP2 SWAP1 PUSH2 0xC2A JUMP JUMPDEST POP POP JUMP JUMPDEST PUSH1 0x0 PUSH1 0x40 MLOAD SWAP1 POP SWAP1 JUMP JUMPDEST PUSH1 0x0 DUP1 REVERT JUMPDEST PUSH1 0x0 DUP1 REVERT JUMPDEST PUSH1 0x0 DUP2 SWAP1 POP SWAP2 SWAP1 POP JUMP JUMPDEST PUSH2 0x4BA DUP2 PUSH2 0x4A7 JUMP JUMPDEST DUP2 EQ PUSH2 0x4C5 JUMPI PUSH1 0x0 DUP1 REVERT JUMPDEST POP JUMP JUMPDEST PUSH1 0x0 DUP2 CALLDATALOAD SWAP1 POP PUSH2 0x4D7 DUP2 PUSH2 0x4B1 JUMP JUMPDEST SWAP3 SWAP2 POP POP JUMP JUMPDEST PUSH1 0x0 PUSH1 0x20 DUP3 DUP5 SUB SLT ISZERO PUSH2 0x4F3 JUMPI PUSH2 0x4F2 PUSH2 0x49D JUMP JUMPDEST JUMPDEST PUSH1 0x0 PUSH2 0x501 DUP5 DUP3 DUP6 ADD PUSH2 0x4C8 JUMP JUMPDEST SWAP2 POP POP SWAP3 SWAP2 POP POP JUMP JUMPDEST PUSH2 0x513 DUP2 PUSH2 0x4A7 JUMP JUMPDEST DUP3 MSTORE POP POP JUMP JUMPDEST PUSH1 0x0 PUSH1 0x20 DUP3 ADD SWAP1 POP PUSH2 0x52E PUSH1 0x0 DUP4 ADD DUP5 PUSH2 0x50A JUMP JUMPDEST SWAP3 SWAP2 POP POP JUMP JUMPDEST PUSH1 0x0 DUP2 MLOAD SWAP1 POP SWAP2 SWAP1 POP JUMP JUMPDEST PUSH1 0x0 DUP3 DUP3 MSTORE PUSH1 0x20 DUP3 ADD SWAP1 POP SWAP3 SWAP2 POP POP JUMP JUMPDEST PUSH1 0x0 JUMPDEST DUP4 DUP2 LT ISZERO PUSH2 0x56E JUMPI DUP1 DUP3 ADD MLOAD DUP2 DUP5 ADD MSTORE PUSH1 0x20 DUP2 ADD SWAP1 POP PUSH2 0x553 JUMP JUMPDEST PUSH1 0x0 DUP5 DUP5 ADD MSTORE POP POP POP POP JUMP JUMPDEST PUSH1 0x0 PUSH1 0x1F NOT PUSH1 0x1F DUP4 ADD AND SWAP1 POP SWAP2 SWAP1 POP JUMP JUMPDEST PUSH1 0x0 PUSH2 0x596 DUP3 PUSH2 0x534 JUMP JUMPDEST PUSH2 0x5A0 DUP2 DUP6 PUSH2 0x53F JUMP JUMPDEST SWAP4 POP PUSH2 0x5B0 DUP2 DUP6 PUSH1 0x20 DUP7 ADD PUSH2 0x550 JUMP JUMPDEST PUSH2 0x5B9 DUP2 PUSH2 0x57A JUMP JUMPDEST DUP5 ADD SWAP2 POP POP SWAP3 SWAP2 POP POP JUMP JUMPDEST PUSH1 0x0 PUSH1 0x20 DUP3 ADD SWAP1 POP DUP2 DUP2 SUB PUSH1 0x0 DUP4 ADD MSTORE PUSH2 0x5DE DUP2 DUP5 PUSH2 0x58B JUMP JUMPDEST SWAP1 POP SWAP3 SWAP2 POP POP JUMP JUMPDEST PUSH1 0x0 PUSH20 0xFFFFFFFFFFFFFFFFFFFFFFFFFFFFFFFFFFFFFFFF DUP3 AND SWAP1 POP SWAP2 SWAP1 POP JUMP JUMPDEST PUSH1 0x0 PUSH2 0x611 DUP3 PUSH2 0x5E6 JUMP JUMPDEST SWAP1 POP SWAP2 SWAP1 POP JUMP JUMPDEST PUSH2 0x621 DUP2 PUSH2 0x606 JUMP JUMPDEST DUP3 MSTORE POP POP JUMP JUMPDEST PUSH1 0x0 PUSH1 0x20 DUP3 ADD SWAP1 POP PUSH2 0x63C PUSH1 0x0 DUP4 ADD DUP5 PUSH2 0x618 JUMP JUMPDEST SWAP3 SWAP2 POP POP JUMP JUMPDEST PUSH32 0x4E487B7100000000000000000000000000000000000000000000000000000000 PUSH1 0x0 MSTORE PUSH1 0x21 PUSH1 0x4 MSTORE PUSH1 0x24 PUSH1 0x0 REVERT JUMPDEST PUSH1 0x8 DUP2 LT PUSH2 0x682 JUMPI PUSH2 0x681 PUSH2 0x642 JUMP JUMPDEST JUMPDEST POP JUMP JUMPDEST PUSH1 0x0 DUP2 SWAP1 POP PUSH2 0x693 DUP3 PUSH2 0x671 JUMP JUMPDEST SWAP2 SWAP1 POP JUMP JUMPDEST PUSH1 0x0 PUSH2 0x6A3 DUP3 PUSH2 0x685 JUMP JUMPDEST SWAP1 POP SWAP2 SWAP1 POP JUMP JUMPDEST PUSH2 0x6B3 DUP2 PUSH2 0x698 JUMP JUMPDEST DUP3 MSTORE POP POP JUMP JUMPDEST PUSH1 0x0 PUSH1 0x20 DUP3 ADD SWAP1 POP PUSH2 0x6CE PUSH1 0x0 DUP4 ADD DUP5 PUSH2 0x6AA JUMP JUMPDEST SWAP3 SWAP2 POP POP JUMP JUMPDEST PUSH1 0x0 PUSH2 0x6DF DUP3 PUSH2 0x5E6 JUMP JUMPDEST SWAP1 POP SWAP2 SWAP1 POP JUMP JUMPDEST PUSH2 0x6EF DUP2 PUSH2 0x6D4 JUMP JUMPDEST DUP2 EQ PUSH2 0x6FA JUMPI PUSH1 0x0 DUP1 REVERT JUMPDEST POP JUMP JUMPDEST PUSH1 0x0 DUP2 CALLDATALOAD SWAP1 POP PUSH2 0x70C DUP2 PUSH2 0x6E6 JUMP JUMPDEST SWAP3 SWAP2 POP POP JUMP JUMPDEST PUSH1 0x0 PUSH1 0x20 DUP3 DUP5 SUB SLT ISZERO PUSH2 0x728 JUMPI PUSH2 0x727 PUSH2 0x49D JUMP JUMPDEST JUMPDEST PUSH1 0x0 PUSH2 0x736 DUP5 DUP3 DUP6 ADD PUSH2 0x6FD JUMP JUMPDEST SWAP2 POP POP SWAP3 SWAP2 POP POP JUMP JUMPDEST PUSH1 0x0 DUP1 REVERT JUMPDEST PUSH1 0x0 DUP1 REVERT JUMPDEST PUSH32 0x4E487B7100000000000000000000000000000000000000000000000000000000 PUSH1 0x0 MSTORE PUSH1 0x41 PUSH1 0x4 MSTORE PUSH1 0x24 PUSH1 0x0 REVERT JUMPDEST PUSH2 0x781 DUP3 PUSH2 0x57A JUMP JUMPDEST DUP2 ADD DUP2 DUP2 LT PUSH8 0xFFFFFFFFFFFFFFFF DUP3 GT OR ISZERO PUSH2 0x7A0 JUMPI PUSH2 0x79F PUSH2 0x749 JUMP JUMPDEST JUMPDEST DUP1 PUSH1 0x40 MSTORE POP POP POP JUMP JUMPDEST PUSH1 0x0 PUSH2 0x7B3 PUSH2 0x493 JUMP JUMPDEST SWAP1 POP PUSH2 0x7BF DUP3 DUP3 PUSH2 0x778 JUMP JUMPDEST SWAP2 SWAP1 POP JUMP JUMPDEST PUSH1 0x0 PUSH8 0xFFFFFFFFFFFFFFFF DUP3 GT ISZERO PUSH2 0x7DF JUMPI PUSH2 0x7DE PUSH2 0x749 JUMP JUMPDEST JUMPDEST PUSH2 0x7E8 DUP3 PUSH2 0x57A JUMP JUMPDEST SWAP1 POP PUSH1 0x20 DUP2 ADD SWAP1 POP SWAP2 SWAP1 POP JUMP JUMPDEST DUP3 DUP2 DUP4 CALLDATACOPY PUSH1 0x0 DUP4 DUP4 ADD MSTORE POP POP POP JUMP JUMPDEST PUSH1 0x0 PUSH2 0x817 PUSH2 0x812 DUP5 PUSH2 0x7C4 JUMP JUMPDEST PUSH2 0x7A9 JUMP JUMPDEST SWAP1 POP DUP3 DUP2 MSTORE PUSH1 0x20 DUP2 ADD DUP5 DUP5 DUP5 ADD GT ISZERO PUSH2 0x833 JUMPI PUSH2 0x832 PUSH2 0x744 JUMP JUMPDEST JUMPDEST PUSH2 0x83E DUP5 DUP3 DUP6 PUSH2 0x7F5 JUMP JUMPDEST POP SWAP4 SWAP3 POP POP POP JUMP JUMPDEST PUSH1 0x0 DUP3 PUSH1 0x1F DUP4 ADD SLT PUSH2 0x85B JUMPI PUSH2 0x85A PUSH2 0x73F JUMP JUMPDEST JUMPDEST DUP2 CALLDATALOAD PUSH2 0x86B DUP5 DUP3 PUSH1 0x20 DUP7 ADD PUSH2 0x804 JUMP JUMPDEST SWAP2 POP POP SWAP3 SWAP2 POP POP JUMP JUMPDEST PUSH1 0x0 PUSH1 0x20 DUP3 DUP5 SUB SLT ISZERO PUSH2 0x88A JUMPI PUSH2 0x889 PUSH2 0x49D JUMP JUMPDEST JUMPDEST PUSH1 0x0 DUP3 ADD CALLDATALOAD PUSH8 0xFFFFFFFFFFFFFFFF DUP2 GT ISZERO PUSH2 0x8A8 JUMPI PUSH2 0x8A7 PUSH2 0x4A2 JUMP JUMPDEST JUMPDEST PUSH2 0x8B4 DUP5 DUP3 DUP6 ADD PUSH2 0x846 JUMP JUMPDEST SWAP2 POP POP SWAP3 SWAP2 POP POP JUMP JUMPDEST PUSH32 0x4E487B7100000000000000000000000000000000000000000000000000000000 PUSH1 0x0 MSTORE PUSH1 0x11 PUSH1 0x4 MSTORE PUSH1 0x24 PUSH1 0x0 REVERT JUMPDEST PUSH1 0x0 PUSH2 0x8F7 DUP3 PUSH2 0x4A7 JUMP JUMPDEST SWAP2 POP PUSH2 0x902 DUP4 PUSH2 0x4A7 JUMP JUMPDEST SWAP3 POP DUP3 DUP3 ADD SWAP1 POP DUP1 DUP3 GT ISZERO PUSH2 0x91A JUMPI PUSH2 0x919 PUSH2 0x8BD JUMP JUMPDEST JUMPDEST SWAP3 SWAP2 POP POP JUMP JUMPDEST PUSH32 0x46756E64696E6720676F616C206E6F7420726561636865640000000000000000 PUSH1 0x0 DUP3 ADD MSTORE POP JUMP JUMPDEST PUSH1 0x0 PUSH2 0x956 PUSH1 0x18 DUP4 PUSH2 0x53F JUMP JUMPDEST SWAP2 POP PUSH2 0x961 DUP3 PUSH2 0x920 JUMP JUMPDEST PUSH1 0x20 DUP3 ADD SWAP1 POP SWAP2 SWAP1 POP JUMP JUMPDEST PUSH1 0x0 PUSH1 0x20 DUP3 ADD SWAP1 POP DUP2 DUP2 SUB PUSH1 0x0 DUP4 ADD MSTORE PUSH2 0x985 DUP2 PUSH2 0x949 JUMP JUMPDEST SWAP1 POP SWAP2 SWAP1 POP JUMP JUMPDEST PUSH32 0x4E487B7100000000000000000000000000000000000000000000000000000000 PUSH1 0x0 MSTORE PUSH1 0x22 PUSH1 0x4 MSTORE PUSH1 0x24 PUSH1 0x0 REVERT JUMPDEST PUSH1 0x0 PUSH1 0x2 DUP3 DIV SWAP1 POP PUSH1 0x1 DUP3 AND DUP1 PUSH2 0x9D3 JUMPI PUSH1 0x7F DUP3 AND SWAP2 POP JUMPDEST PUSH1 0x20 DUP3 LT DUP2 SUB PUSH2 0x9E6 JUMPI PUSH2 0x9E5 PUSH2 0x98C JUMP JUMPDEST JUMPDEST POP SWAP2 SWAP1 POP JUMP JUMPDEST PUSH32 0x4F6E6C792070726F6A656374206F776E65722063616E2063616C6C2074686973 PUSH1 0x0 DUP3 ADD MSTORE PUSH32 0x2066756E6374696F6E0000000000000000000000000000000000000000000000 PUSH1 0x20 DUP3 ADD MSTORE POP JUMP JUMPDEST PUSH1 0x0 PUSH2 0xA48 PUSH1 0x29 DUP4 PUSH2 0x53F JUMP JUMPDEST SWAP2 POP PUSH2 0xA53 DUP3 PUSH2 0x9EC JUMP JUMPDEST PUSH1 0x40 DUP3 ADD SWAP1 POP SWAP2 SWAP1 POP JUMP JUMPDEST PUSH1 0x0 PUSH1 0x20 DUP3 ADD SWAP1 POP DUP2 DUP2 SUB PUSH1 0x0 DUP4 ADD MSTORE PUSH2 0xA77 DUP2 PUSH2 0xA3B JUMP JUMPDEST SWAP1 POP SWAP2 SWAP1 POP JUMP JUMPDEST PUSH1 0x0 DUP2 SWAP1 POP DUP2 PUSH1 0x0 MSTORE PUSH1 0x20 PUSH1 0x0 KECCAK256 SWAP1 POP SWAP2 SWAP1 POP JUMP JUMPDEST PUSH1 0x0 PUSH1 0x20 PUSH1 0x1F DUP4 ADD DIV SWAP1 POP SWAP2 SWAP1 POP JUMP JUMPDEST PUSH1 0x0 DUP3 DUP3 SHL SWAP1 POP SWAP3 SWAP2 POP POP JUMP JUMPDEST PUSH1 0x0 PUSH1 0x8 DUP4 MUL PUSH2 0xAE0 PUSH32 0xFFFFFFFFFFFFFFFFFFFFFFFFFFFFFFFFFFFFFFFFFFFFFFFFFFFFFFFFFFFFFFFF DUP3 PUSH2 0xAA3 JUMP JUMPDEST PUSH2 0xAEA DUP7 DUP4 PUSH2 0xAA3 JUMP JUMPDEST SWAP6 POP DUP1 NOT DUP5 AND SWAP4 POP DUP1 DUP7 AND DUP5 OR SWAP3 POP POP POP SWAP4 SWAP3 POP POP POP JUMP JUMPDEST PUSH1 0x0 DUP2 SWAP1 POP SWAP2 SWAP1 POP JUMP JUMPDEST PUSH1 0x0 PUSH2 0xB27 PUSH2 0xB22 PUSH2 0xB1D DUP5 PUSH2 0x4A7 JUMP JUMPDEST PUSH2 0xB02 JUMP JUMPDEST PUSH2 0x4A7 JUMP JUMPDEST SWAP1 POP SWAP2 SWAP1 POP JUMP JUMPDEST PUSH1 0x0 DUP2 SWAP1 POP SWAP2 SWAP1 POP JUMP JUMPDEST PUSH2 0xB41 DUP4 PUSH2 0xB0C JUMP JUMPDEST PUSH2 0xB55 PUSH2 0xB4D DUP3 PUSH2 0xB2E JUMP JUMPDEST DUP5 DUP5 SLOAD PUSH2 0xAB0 JUMP JUMPDEST DUP3 SSTORE POP POP POP POP JUMP JUMPDEST PUSH1 0x0 SWAP1 JUMP JUMPDEST PUSH2 0xB6A PUSH2 0xB5D JUMP JUMPDEST PUSH2 0xB75 DUP2 DUP5 DUP5 PUSH2 0xB38 JUMP JUMPDEST POP POP POP JUMP JUMPDEST JUMPDEST DUP2 DUP2 LT ISZERO PUSH2 0xB99 JUMPI PUSH2 0xB8E PUSH1 0x0 DUP3 PUSH2 0xB62 JUMP JUMPDEST PUSH1 0x1 DUP2 ADD SWAP1 POP PUSH2 0xB7B JUMP JUMPDEST POP POP JUMP JUMPDEST PUSH1 0x1F DUP3 GT ISZERO PUSH2 0xBDE JUMPI PUSH2 0xBAF DUP2 PUSH2 0xA7E JUMP JUMPDEST PUSH2 0xBB8 DUP5 PUSH2 0xA93 JUMP JUMPDEST DUP2 ADD PUSH1 0x20 DUP6 LT ISZERO PUSH2 0xBC7 JUMPI DUP2 SWAP1 POP JUMPDEST PUSH2 0xBDB PUSH2 0xBD3 DUP6 PUSH2 0xA93 JUMP JUMPDEST DUP4 ADD DUP3 PUSH2 0xB7A JUMP JUMPDEST POP POP JUMPDEST POP POP POP JUMP JUMPDEST PUSH1 0x0 DUP3 DUP3 SHR SWAP1 POP SWAP3 SWAP2 POP POP JUMP JUMPDEST PUSH1 0x0 PUSH2 0xC01 PUSH1 0x0 NOT DUP5 PUSH1 0x8 MUL PUSH2 0xBE3 JUMP JUMPDEST NOT DUP1 DUP4 AND SWAP2 POP POP SWAP3 SWAP2 POP POP JUMP JUMPDEST PUSH1 0x0 PUSH2 0xC1A DUP4 DUP4 PUSH2 0xBF0 JUMP JUMPDEST SWAP2 POP DUP3 PUSH1 0x2 MUL DUP3 OR SWAP1 POP SWAP3 SWAP2 POP POP JUMP JUMPDEST PUSH2 0xC33 DUP3 PUSH2 0x534 JUMP JUMPDEST PUSH8 0xFFFFFFFFFFFFFFFF DUP2 GT ISZERO PUSH2 0xC4C JUMPI PUSH2 0xC4B PUSH2 0x749 JUMP JUMPDEST JUMPDEST PUSH2 0xC56 DUP3 SLOAD PUSH2 0x9BB JUMP JUMPDEST PUSH2 0xC61 DUP3 DUP3 DUP6 PUSH2 0xB9D JUMP JUMPDEST PUSH1 0x0 PUSH1 0x20 SWAP1 POP PUSH1 0x1F DUP4 GT PUSH1 0x1 DUP2 EQ PUSH2 0xC94 JUMPI PUSH1 0x0 DUP5 ISZERO PUSH2 0xC82 JUMPI DUP3 DUP8 ADD MLOAD SWAP1 POP JUMPDEST PUSH2 0xC8C DUP6 DUP3 PUSH2 0xC0E JUMP JUMPDEST DUP7 SSTORE POP PUSH2 0xCF4 JUMP JUMPDEST PUSH1 0x1F NOT DUP5 AND PUSH2 0xCA2 DUP7 PUSH2 0xA7E JUMP JUMPDEST PUSH1 0x0 JUMPDEST DUP3 DUP2 LT ISZERO PUSH2 0xCCA JUMPI DUP5 DUP10 ADD MLOAD DUP3 SSTORE PUSH1 0x1 DUP3 ADD SWAP2 POP PUSH1 0x20 DUP6 ADD SWAP5 POP PUSH1 0x20 DUP2 ADD SWAP1 POP PUSH2 0xCA5 JUMP JUMPDEST DUP7 DUP4 LT ISZERO PUSH2 0xCE7 JUMPI DUP5 DUP10 ADD MLOAD PUSH2 0xCE3 PUSH1 0x1F DUP10 AND DUP3 PUSH2 0xBF0 JUMP JUMPDEST DUP4 SSTORE POP JUMPDEST PUSH1 0x1 PUSH1 0x2 DUP9 MUL ADD DUP9 SSTORE POP POP POP JUMPDEST POP POP POP POP POP POP JUMP INVALID LOG2 PUSH5 0x6970667358 0x22 SLT KECCAK256 PUSH7 0x3F22E9A11A2278 0xAA 0xFC SSTORE CHAINID DUP5 0xE4 0xAC JUMPDEST 0xBF 0xBF 0x2A 0xB7 CREATE 0xBE DUP14 0xA8 0xCC BLOBBASEFEE BLOCKHASH MSTORE8 0xD7 0xE7 CODESIZE 0xCE PUSH5 0x736F6C6343 STOP ADDMOD XOR STOP CALLER "},"methodIdentifiers":{"changeDescription(string)":"e6120413","currentFunding()":"0888b70d","fundingGoal()":"7a3a0e84","projectDescription()":"755f047b","projectOwner()":"a4475ce4","state()":"c19d93fb","transferFunds()":"3c68eb81","vote(uint256)":"0121b93f","votes(address)":"d8bff5a5"}}}}}