{"contracts/Deprecated/Donate.sol":{"Donate":{"abi":[{"anonymous":false,"inputs":[{"indexed":false,"internalType":"uint256","name":"id","type":"uint256"},{"indexed":false,"internalType":"string","name":"mail","type":"string"},{"indexed":false,"internalType":"uint256","name":"donatedAmount","type":"uint256"}],"name":"DonaterAdded","type":"event"},{"anonymous":false,"inputs":[{"indexed":false,"internalType":"uint256","name":"id","type":"uint256"},{"indexed":false,"internalType":"string","name":"mail","type":"string"},{"indexed":false,"internalType":"uint256","name":"amount","type":"uint256"}],"name":"DonationAdded","type":"event"},{"inputs":[{"internalType":"string","name":"_mail","type":"string"}],"name":"changeDonatorMailAdress","outputs":[],"stateMutability":"nonpayable","type":"function"},{"inputs":[],"name":"getContractBalance","outputs":[{"internalType":"uint256","name":"","type":"uint256"}],"stateMutability":"view","type":"function"},{"inputs":[],"name":"getDonaterDetails","outputs":[{"components":[{"internalType":"string","name":"mail","type":"string"},{"internalType":"uint256","name":"donatedAmount","type":"uint256"},{"internalType":"uint256","name":"votingTokens","type":"uint256"}],"internalType":"struct Donate.Donater","name":"","type":"tuple"}],"stateMutability":"view","type":"function"},{"inputs":[],"name":"getNumberOfDonaters","outputs":[{"internalType":"uint256","name":"","type":"uint256"}],"stateMutability":"view","type":"function"},{"inputs":[{"internalType":"address","name":"","type":"address"}],"name":"idToOwner","outputs":[{"internalType":"uint256","name":"","type":"uint256"}],"stateMutability":"view","type":"function"},{"inputs":[{"internalType":"uint256","name":"_idDonator","type":"uint256"},{"internalType":"uint256","name":"_amount","type":"uint256"}],"name":"removeDonatorToken","outputs":[],"stateMutability":"nonpayable","type":"function"},{"inputs":[{"internalType":"string","name":"_mail","type":"string"},{"internalType":"uint256","name":"_amount","type":"uint256"}],"name":"updateDonatedAmount","outputs":[],"stateMutability":"nonpayable","type":"function"},{"inputs":[{"internalType":"address","name":"","type":"address"}],"name":"userHasDonated","outputs":[{"internalType":"uint256","name":"","type":"uint256"}],"stateMutability":"view","type":"function"},{"inputs":[{"internalType":"uint256","name":"_amount","type":"uint256"}],"name":"withdrawMoney","outputs":[],"stateMutability":"nonpayable","type":"function"},{"stateMutability":"payable","type":"receive"}],"evm":{"bytecode":{"linkReferences":{},"object":"608060405234801561001057600080fd5b50611285806100206000396000f3fe60806040526004361061008a5760003560e01c80636f9fb98a116100595780636f9fb98a1461016457806382edf7621461018f5780639fb868e6146101b8578063eb3c6d98146101e3578063facb5c6a1461020c576100a5565b8063364cbfff146100aa57806348053848146100e757806354876921146101125780635d6193411461013b576100a5565b366100a55766038d7ea4c680003410156100a357600080fd5b005b600080fd5b3480156100b657600080fd5b506100d160048036038101906100cc919061098a565b610249565b6040516100de91906109d0565b60405180910390f35b3480156100f357600080fd5b506100fc610261565b6040516101099190610ada565b60405180910390f35b34801561011e57600080fd5b5061013960048036038101906101349190610b28565b61040d565b005b34801561014757600080fd5b50610162600480360381019061015d9190610c8a565b610410565b005b34801561017057600080fd5b506101796104d3565b60405161018691906109d0565b60405180910390f35b34801561019b57600080fd5b506101b660048036038101906101b19190610cd3565b6104db565b005b3480156101c457600080fd5b506101cd61051b565b6040516101da91906109d0565b60405180910390f35b3480156101ef57600080fd5b5061020a60048036038101906102059190610d13565b610551565b005b34801561021857600080fd5b50610233600480360381019061022e919061098a565b610744565b60405161024091906109d0565b60405180910390f35b60026020528060005260406000206000915090505481565b6102696108f7565b6001600260003373ffffffffffffffffffffffffffffffffffffffff1673ffffffffffffffffffffffffffffffffffffffff16815260200190815260200160002054036103cf576000600160003373ffffffffffffffffffffffffffffffffffffffff1673ffffffffffffffffffffffffffffffffffffffff1681526020019081526020016000205490506000818154811061030857610307610d6f565b5b906000526020600020906003020160405180606001604052908160008201805461033190610dcd565b80601f016020809104026020016040519081016040528092919081815260200182805461035d90610dcd565b80156103aa5780601f1061037f576101008083540402835291602001916103aa565b820191906000526020600020905b81548152906001019060200180831161038d57829003601f168201915b505050505081526020016001820154815260200160028201548152505091505061040a565b6040517f08c379a000000000000000000000000000000000000000000000000000000000815260040161040190610e5b565b60405180910390fd5b90565b50565b6001600260003373ffffffffffffffffffffffffffffffffffffffff1673ffffffffffffffffffffffffffffffffffffffff16815260200190815260200160002054036104d0576000600160003373ffffffffffffffffffffffffffffffffffffffff1673ffffffffffffffffffffffffffffffffffffffff16815260200190815260200160002054905081600082815481106104b0576104af610d6f565b5b906000526020600020906003020160000190816104cd9190611027565b50505b50565b600047905090565b80600083815481106104f0576104ef610d6f565b5b906000526020600020906003020160020160008282546105109190611128565b925050819055505050565b60008060005b6000805490508110156105495781806105399061115c565b9250508080600101915050610521565b508091505090565b6000600260003373ffffffffffffffffffffffffffffffffffffffff1673ffffffffffffffffffffffffffffffffffffffff1681526020019081526020016000205403610604576105a18161075c565b600082905060008151146105b9576105b88361087c565b5b6001600260003373ffffffffffffffffffffffffffffffffffffffff1673ffffffffffffffffffffffffffffffffffffffff1681526020019081526020016000208190555050610740565b6000829050600081511461061c5761061b8361087c565b5b6000600160003373ffffffffffffffffffffffffffffffffffffffff1673ffffffffffffffffffffffffffffffffffffffff168152602001908152602001600020549050826000828154811061067557610674610d6f565b5b9060005260206000209060030201600101600082825461069591906111a4565b9250508190555082600082815481106106b1576106b0610d6f565b5b906000526020600020906003020160020160008282546106d191906111a4565b9250508190555060008082815481106106ed576106ec610d6f565b5b90600052602060002090600302016001015490507f552ecc61abef242a754033ffa95f474fb47ac4970c88fa73f29ff32bb9daeb8782868360405161073493929190611211565b60405180910390a15050505b5050565b60016020528060005260406000206000915090505481565b60006040518060200160405280600081525090506000604051806060016040528083815260200184815260200184815250908060018154018082558091505060019003906000526020600020906003020160009091909190915060008201518160000190816107cb9190611027565b5060208201518160010155604082015181600201555050600060016000805490506107f69190611128565b905080600160003373ffffffffffffffffffffffffffffffffffffffff1673ffffffffffffffffffffffffffffffffffffffff168152602001908152602001600020819055507fe818f0f07b2c301ad2eae117f3288ac7dc37c4aa0a28c46a7fd23b81356442bf81838560405161086f93929190611211565b60405180910390a1505050565b6000600160003373ffffffffffffffffffffffffffffffffffffffff1673ffffffffffffffffffffffffffffffffffffffff16815260200190815260200160002054905081600082815481106108d5576108d4610d6f565b5b906000526020600020906003020160000190816108f29190611027565b505050565b60405180606001604052806060815260200160008152602001600081525090565b6000604051905090565b600080fd5b600080fd5b600073ffffffffffffffffffffffffffffffffffffffff82169050919050565b60006109578261092c565b9050919050565b6109678161094c565b811461097257600080fd5b50565b6000813590506109848161095e565b92915050565b6000602082840312156109a05761099f610922565b5b60006109ae84828501610975565b91505092915050565b6000819050919050565b6109ca816109b7565b82525050565b60006020820190506109e560008301846109c1565b92915050565b600081519050919050565b600082825260208201905092915050565b60005b83811015610a25578082015181840152602081019050610a0a565b60008484015250505050565b6000601f19601f8301169050919050565b6000610a4d826109eb565b610a5781856109f6565b9350610a67818560208601610a07565b610a7081610a31565b840191505092915050565b610a84816109b7565b82525050565b60006060830160008301518482036000860152610aa78282610a42565b9150506020830151610abc6020860182610a7b565b506040830151610acf6040860182610a7b565b508091505092915050565b60006020820190508181036000830152610af48184610a8a565b905092915050565b610b05816109b7565b8114610b1057600080fd5b50565b600081359050610b2281610afc565b92915050565b600060208284031215610b3e57610b3d610922565b5b6000610b4c84828501610b13565b91505092915050565b600080fd5b600080fd5b7f4e487b7100000000000000000000000000000000000000000000000000000000600052604160045260246000fd5b610b9782610a31565b810181811067ffffffffffffffff82111715610bb657610bb5610b5f565b5b80604052505050565b6000610bc9610918565b9050610bd58282610b8e565b919050565b600067ffffffffffffffff821115610bf557610bf4610b5f565b5b610bfe82610a31565b9050602081019050919050565b82818337600083830152505050565b6000610c2d610c2884610bda565b610bbf565b905082815260208101848484011115610c4957610c48610b5a565b5b610c54848285610c0b565b509392505050565b600082601f830112610c7157610c70610b55565b5b8135610c81848260208601610c1a565b91505092915050565b600060208284031215610ca057610c9f610922565b5b600082013567ffffffffffffffff811115610cbe57610cbd610927565b5b610cca84828501610c5c565b91505092915050565b60008060408385031215610cea57610ce9610922565b5b6000610cf885828601610b13565b9250506020610d0985828601610b13565b9150509250929050565b60008060408385031215610d2a57610d29610922565b5b600083013567ffffffffffffffff811115610d4857610d47610927565b5b610d5485828601610c5c565b9250506020610d6585828601610b13565b9150509250929050565b7f4e487b7100000000000000000000000000000000000000000000000000000000600052603260045260246000fd5b7f4e487b7100000000000000000000000000000000000000000000000000000000600052602260045260246000fd5b60006002820490506001821680610de557607f821691505b602082108103610df857610df7610d9e565b5b50919050565b600082825260208201905092915050565b7f5573657220686173206e6f7420646f6e61746564000000000000000000000000600082015250565b6000610e45601483610dfe565b9150610e5082610e0f565b602082019050919050565b60006020820190508181036000830152610e7481610e38565b9050919050565b60008190508160005260206000209050919050565b60006020601f8301049050919050565b600082821b905092915050565b600060088302610edd7fffffffffffffffffffffffffffffffffffffffffffffffffffffffffffffffff82610ea0565b610ee78683610ea0565b95508019841693508086168417925050509392505050565b6000819050919050565b6000610f24610f1f610f1a846109b7565b610eff565b6109b7565b9050919050565b6000819050919050565b610f3e83610f09565b610f52610f4a82610f2b565b848454610ead565b825550505050565b600090565b610f67610f5a565b610f72818484610f35565b505050565b5b81811015610f9657610f8b600082610f5f565b600181019050610f78565b5050565b601f821115610fdb57610fac81610e7b565b610fb584610e90565b81016020851015610fc4578190505b610fd8610fd085610e90565b830182610f77565b50505b505050565b600082821c905092915050565b6000610ffe60001984600802610fe0565b1980831691505092915050565b60006110178383610fed565b9150826002028217905092915050565b611030826109eb565b67ffffffffffffffff81111561104957611048610b5f565b5b6110538254610dcd565b61105e828285610f9a565b600060209050601f831160018114611091576000841561107f578287015190505b611089858261100b565b8655506110f1565b601f19841661109f86610e7b565b60005b828110156110c7578489015182556001820191506020850194506020810190506110a2565b868310156110e457848901516110e0601f891682610fed565b8355505b6001600288020188555050505b505050505050565b7f4e487b7100000000000000000000000000000000000000000000000000000000600052601160045260246000fd5b6000611133826109b7565b915061113e836109b7565b9250828203905081811115611156576111556110f9565b5b92915050565b6000611167826109b7565b91507fffffffffffffffffffffffffffffffffffffffffffffffffffffffffffffffff8203611199576111986110f9565b5b600182019050919050565b60006111af826109b7565b91506111ba836109b7565b92508282019050808211156111d2576111d16110f9565b5b92915050565b60006111e3826109eb565b6111ed8185610dfe565b93506111fd818560208601610a07565b61120681610a31565b840191505092915050565b600060608201905061122660008301866109c1565b818103602083015261123881856111d8565b905061124760408301846109c1565b94935050505056fea26469706673582212202a654aa997477f4532644a275f805fff4d46f75be8e3f9280985668202aef89c64736f6c63430008180033","opcodes":"PUSH1 0x80 PUSH1 0x40 MSTORE CALLVALUE DUP1 ISZERO PUSH2 0x10 JUMPI PUSH1 0x0 DUP1 REVERT JUMPDEST POP PUSH2 0x1285 DUP1 PUSH2 0x20 PUSH1 0x0 CODECOPY PUSH1 0x0 RETURN INVALID PUSH1 0x80 PUSH1 0x40 MSTORE PUSH1 0x4 CALLDATASIZE LT PUSH2 0x8A JUMPI PUSH1 0x0 CALLDATALOAD PUSH1 0xE0 SHR DUP1 PUSH4 0x6F9FB98A GT PUSH2 0x59 JUMPI DUP1 PUSH4 0x6F9FB98A EQ PUSH2 0x164 JUMPI DUP1 PUSH4 0x82EDF762 EQ PUSH2 0x18F JUMPI DUP1 PUSH4 0x9FB868E6 EQ PUSH2 0x1B8 JUMPI DUP1 PUSH4 0xEB3C6D98 EQ PUSH2 0x1E3 JUMPI DUP1 PUSH4 0xFACB5C6A EQ PUSH2 0x20C JUMPI PUSH2 0xA5 JUMP JUMPDEST DUP1 PUSH4 0x364CBFFF EQ PUSH2 0xAA JUMPI DUP1 PUSH4 0x48053848 EQ PUSH2 0xE7 JUMPI DUP1 PUSH4 0x54876921 EQ PUSH2 0x112 JUMPI DUP1 PUSH4 0x5D619341 EQ PUSH2 0x13B JUMPI PUSH2 0xA5 JUMP JUMPDEST CALLDATASIZE PUSH2 0xA5 JUMPI PUSH7 0x38D7EA4C68000 CALLVALUE LT ISZERO PUSH2 0xA3 JUMPI PUSH1 0x0 DUP1 REVERT JUMPDEST STOP JUMPDEST PUSH1 0x0 DUP1 REVERT JUMPDEST CALLVALUE DUP1 ISZERO PUSH2 0xB6 JUMPI PUSH1 0x0 DUP1 REVERT JUMPDEST POP PUSH2 0xD1 PUSH1 0x4 DUP1 CALLDATASIZE SUB DUP2 ADD SWAP1 PUSH2 0xCC SWAP2 SWAP1 PUSH2 0x98A JUMP JUMPDEST PUSH2 0x249 JUMP JUMPDEST PUSH1 0x40 MLOAD PUSH2 0xDE SWAP2 SWAP1 PUSH2 0x9D0 JUMP JUMPDEST PUSH1 0x40 MLOAD DUP1 SWAP2 SUB SWAP1 RETURN JUMPDEST CALLVALUE DUP1 ISZERO PUSH2 0xF3 JUMPI PUSH1 0x0 DUP1 REVERT JUMPDEST POP PUSH2 0xFC PUSH2 0x261 JUMP JUMPDEST PUSH1 0x40 MLOAD PUSH2 0x109 SWAP2 SWAP1 PUSH2 0xADA JUMP JUMPDEST PUSH1 0x40 MLOAD DUP1 SWAP2 SUB SWAP1 RETURN JUMPDEST CALLVALUE DUP1 ISZERO PUSH2 0x11E JUMPI PUSH1 0x0 DUP1 REVERT JUMPDEST POP PUSH2 0x139 PUSH1 0x4 DUP1 CALLDATASIZE SUB DUP2 ADD SWAP1 PUSH2 0x134 SWAP2 SWAP1 PUSH2 0xB28 JUMP JUMPDEST PUSH2 0x40D JUMP JUMPDEST STOP JUMPDEST CALLVALUE DUP1 ISZERO PUSH2 0x147 JUMPI PUSH1 0x0 DUP1 REVERT JUMPDEST POP PUSH2 0x162 PUSH1 0x4 DUP1 CALLDATASIZE SUB DUP2 ADD SWAP1 PUSH2 0x15D SWAP2 SWAP1 PUSH2 0xC8A JUMP JUMPDEST PUSH2 0x410 JUMP JUMPDEST STOP JUMPDEST CALLVALUE DUP1 ISZERO PUSH2 0x170 JUMPI PUSH1 0x0 DUP1 REVERT JUMPDEST POP PUSH2 0x179 PUSH2 0x4D3 JUMP JUMPDEST PUSH1 0x40 MLOAD PUSH2 0x186 SWAP2 SWAP1 PUSH2 0x9D0 JUMP JUMPDEST PUSH1 0x40 MLOAD DUP1 SWAP2 SUB SWAP1 RETURN JUMPDEST CALLVALUE DUP1 ISZERO PUSH2 0x19B JUMPI PUSH1 0x0 DUP1 REVERT JUMPDEST POP PUSH2 0x1B6 PUSH1 0x4 DUP1 CALLDATASIZE SUB DUP2 ADD SWAP1 PUSH2 0x1B1 SWAP2 SWAP1 PUSH2 0xCD3 JUMP JUMPDEST PUSH2 0x4DB JUMP JUMPDEST STOP JUMPDEST CALLVALUE DUP1 ISZERO PUSH2 0x1C4 JUMPI PUSH1 0x0 DUP1 REVERT JUMPDEST POP PUSH2 0x1CD PUSH2 0x51B JUMP JUMPDEST PUSH1 0x40 MLOAD PUSH2 0x1DA SWAP2 SWAP1 PUSH2 0x9D0 JUMP JUMPDEST PUSH1 0x40 MLOAD DUP1 SWAP2 SUB SWAP1 RETURN JUMPDEST CALLVALUE DUP1 ISZERO PUSH2 0x1EF JUMPI PUSH1 0x0 DUP1 REVERT JUMPDEST POP PUSH2 0x20A PUSH1 0x4 DUP1 CALLDATASIZE SUB DUP2 ADD SWAP1 PUSH2 0x205 SWAP2 SWAP1 PUSH2 0xD13 JUMP JUMPDEST PUSH2 0x551 JUMP JUMPDEST STOP JUMPDEST CALLVALUE DUP1 ISZERO PUSH2 0x218 JUMPI PUSH1 0x0 DUP1 REVERT JUMPDEST POP PUSH2 0x233 PUSH1 0x4 DUP1 CALLDATASIZE SUB DUP2 ADD SWAP1 PUSH2 0x22E SWAP2 SWAP1 PUSH2 0x98A JUMP JUMPDEST PUSH2 0x744 JUMP JUMPDEST PUSH1 0x40 MLOAD PUSH2 0x240 SWAP2 SWAP1 PUSH2 0x9D0 JUMP JUMPDEST PUSH1 0x40 MLOAD DUP1 SWAP2 SUB SWAP1 RETURN JUMPDEST PUSH1 0x2 PUSH1 0x20 MSTORE DUP1 PUSH1 0x0 MSTORE PUSH1 0x40 PUSH1 0x0 KECCAK256 PUSH1 0x0 SWAP2 POP SWAP1 POP SLOAD DUP2 JUMP JUMPDEST PUSH2 0x269 PUSH2 0x8F7 JUMP JUMPDEST PUSH1 0x1 PUSH1 0x2 PUSH1 0x0 CALLER PUSH20 0xFFFFFFFFFFFFFFFFFFFFFFFFFFFFFFFFFFFFFFFF AND PUSH20 0xFFFFFFFFFFFFFFFFFFFFFFFFFFFFFFFFFFFFFFFF AND DUP2 MSTORE PUSH1 0x20 ADD SWAP1 DUP2 MSTORE PUSH1 0x20 ADD PUSH1 0x0 KECCAK256 SLOAD SUB PUSH2 0x3CF JUMPI PUSH1 0x0 PUSH1 0x1 PUSH1 0x0 CALLER PUSH20 0xFFFFFFFFFFFFFFFFFFFFFFFFFFFFFFFFFFFFFFFF AND PUSH20 0xFFFFFFFFFFFFFFFFFFFFFFFFFFFFFFFFFFFFFFFF AND DUP2 MSTORE PUSH1 0x20 ADD SWAP1 DUP2 MSTORE PUSH1 0x20 ADD PUSH1 0x0 KECCAK256 SLOAD SWAP1 POP PUSH1 0x0 DUP2 DUP2 SLOAD DUP2 LT PUSH2 0x308 JUMPI PUSH2 0x307 PUSH2 0xD6F JUMP JUMPDEST JUMPDEST SWAP1 PUSH1 0x0 MSTORE PUSH1 0x20 PUSH1 0x0 KECCAK256 SWAP1 PUSH1 0x3 MUL ADD PUSH1 0x40 MLOAD DUP1 PUSH1 0x60 ADD PUSH1 0x40 MSTORE SWAP1 DUP2 PUSH1 0x0 DUP3 ADD DUP1 SLOAD PUSH2 0x331 SWAP1 PUSH2 0xDCD JUMP JUMPDEST DUP1 PUSH1 0x1F ADD PUSH1 0x20 DUP1 SWAP2 DIV MUL PUSH1 0x20 ADD PUSH1 0x40 MLOAD SWAP1 DUP2 ADD PUSH1 0x40 MSTORE DUP1 SWAP3 SWAP2 SWAP1 DUP2 DUP2 MSTORE PUSH1 0x20 ADD DUP3 DUP1 SLOAD PUSH2 0x35D SWAP1 PUSH2 0xDCD JUMP JUMPDEST DUP1 ISZERO PUSH2 0x3AA JUMPI DUP1 PUSH1 0x1F LT PUSH2 0x37F JUMPI PUSH2 0x100 DUP1 DUP4 SLOAD DIV MUL DUP4 MSTORE SWAP2 PUSH1 0x20 ADD SWAP2 PUSH2 0x3AA JUMP JUMPDEST DUP3 ADD SWAP2 SWAP1 PUSH1 0x0 MSTORE PUSH1 0x20 PUSH1 0x0 KECCAK256 SWAP1 JUMPDEST DUP2 SLOAD DUP2 MSTORE SWAP1 PUSH1 0x1 ADD SWAP1 PUSH1 0x20 ADD DUP1 DUP4 GT PUSH2 0x38D JUMPI DUP3 SWAP1 SUB PUSH1 0x1F AND DUP3 ADD SWAP2 JUMPDEST POP POP POP POP POP DUP2 MSTORE PUSH1 0x20 ADD PUSH1 0x1 DUP3 ADD SLOAD DUP2 MSTORE PUSH1 0x20 ADD PUSH1 0x2 DUP3 ADD SLOAD DUP2 MSTORE POP POP SWAP2 POP POP PUSH2 0x40A JUMP JUMPDEST PUSH1 0x40 MLOAD PUSH32 0x8C379A000000000000000000000000000000000000000000000000000000000 DUP2 MSTORE PUSH1 0x4 ADD PUSH2 0x401 SWAP1 PUSH2 0xE5B JUMP JUMPDEST PUSH1 0x40 MLOAD DUP1 SWAP2 SUB SWAP1 REVERT JUMPDEST SWAP1 JUMP JUMPDEST POP JUMP JUMPDEST PUSH1 0x1 PUSH1 0x2 PUSH1 0x0 CALLER PUSH20 0xFFFFFFFFFFFFFFFFFFFFFFFFFFFFFFFFFFFFFFFF AND PUSH20 0xFFFFFFFFFFFFFFFFFFFFFFFFFFFFFFFFFFFFFFFF AND DUP2 MSTORE PUSH1 0x20 ADD SWAP1 DUP2 MSTORE PUSH1 0x20 ADD PUSH1 0x0 KECCAK256 SLOAD SUB PUSH2 0x4D0 JUMPI PUSH1 0x0 PUSH1 0x1 PUSH1 0x0 CALLER PUSH20 0xFFFFFFFFFFFFFFFFFFFFFFFFFFFFFFFFFFFFFFFF AND PUSH20 0xFFFFFFFFFFFFFFFFFFFFFFFFFFFFFFFFFFFFFFFF AND DUP2 MSTORE PUSH1 0x20 ADD SWAP1 DUP2 MSTORE PUSH1 0x20 ADD PUSH1 0x0 KECCAK256 SLOAD SWAP1 POP DUP2 PUSH1 0x0 DUP3 DUP2 SLOAD DUP2 LT PUSH2 0x4B0 JUMPI PUSH2 0x4AF PUSH2 0xD6F JUMP JUMPDEST JUMPDEST SWAP1 PUSH1 0x0 MSTORE PUSH1 0x20 PUSH1 0x0 KECCAK256 SWAP1 PUSH1 0x3 MUL ADD PUSH1 0x0 ADD SWAP1 DUP2 PUSH2 0x4CD SWAP2 SWAP1 PUSH2 0x1027 JUMP JUMPDEST POP POP JUMPDEST POP JUMP JUMPDEST PUSH1 0x0 SELFBALANCE SWAP1 POP SWAP1 JUMP JUMPDEST DUP1 PUSH1 0x0 DUP4 DUP2 SLOAD DUP2 LT PUSH2 0x4F0 JUMPI PUSH2 0x4EF PUSH2 0xD6F JUMP JUMPDEST JUMPDEST SWAP1 PUSH1 0x0 MSTORE PUSH1 0x20 PUSH1 0x0 KECCAK256 SWAP1 PUSH1 0x3 MUL ADD PUSH1 0x2 ADD PUSH1 0x0 DUP3 DUP3 SLOAD PUSH2 0x510 SWAP2 SWAP1 PUSH2 0x1128 JUMP JUMPDEST SWAP3 POP POP DUP2 SWAP1 SSTORE POP POP POP JUMP JUMPDEST PUSH1 0x0 DUP1 PUSH1 0x0 JUMPDEST PUSH1 0x0 DUP1 SLOAD SWAP1 POP DUP2 LT ISZERO PUSH2 0x549 JUMPI DUP2 DUP1 PUSH2 0x539 SWAP1 PUSH2 0x115C JUMP JUMPDEST SWAP3 POP POP DUP1 DUP1 PUSH1 0x1 ADD SWAP2 POP POP PUSH2 0x521 JUMP JUMPDEST POP DUP1 SWAP2 POP POP SWAP1 JUMP JUMPDEST PUSH1 0x0 PUSH1 0x2 PUSH1 0x0 CALLER PUSH20 0xFFFFFFFFFFFFFFFFFFFFFFFFFFFFFFFFFFFFFFFF AND PUSH20 0xFFFFFFFFFFFFFFFFFFFFFFFFFFFFFFFFFFFFFFFF AND DUP2 MSTORE PUSH1 0x20 ADD SWAP1 DUP2 MSTORE PUSH1 0x20 ADD PUSH1 0x0 KECCAK256 SLOAD SUB PUSH2 0x604 JUMPI PUSH2 0x5A1 DUP2 PUSH2 0x75C JUMP JUMPDEST PUSH1 0x0 DUP3 SWAP1 POP PUSH1 0x0 DUP2 MLOAD EQ PUSH2 0x5B9 JUMPI PUSH2 0x5B8 DUP4 PUSH2 0x87C JUMP JUMPDEST JUMPDEST PUSH1 0x1 PUSH1 0x2 PUSH1 0x0 CALLER PUSH20 0xFFFFFFFFFFFFFFFFFFFFFFFFFFFFFFFFFFFFFFFF AND PUSH20 0xFFFFFFFFFFFFFFFFFFFFFFFFFFFFFFFFFFFFFFFF AND DUP2 MSTORE PUSH1 0x20 ADD SWAP1 DUP2 MSTORE PUSH1 0x20 ADD PUSH1 0x0 KECCAK256 DUP2 SWAP1 SSTORE POP POP PUSH2 0x740 JUMP JUMPDEST PUSH1 0x0 DUP3 SWAP1 POP PUSH1 0x0 DUP2 MLOAD EQ PUSH2 0x61C JUMPI PUSH2 0x61B DUP4 PUSH2 0x87C JUMP JUMPDEST JUMPDEST PUSH1 0x0 PUSH1 0x1 PUSH1 0x0 CALLER PUSH20 0xFFFFFFFFFFFFFFFFFFFFFFFFFFFFFFFFFFFFFFFF AND PUSH20 0xFFFFFFFFFFFFFFFFFFFFFFFFFFFFFFFFFFFFFFFF AND DUP2 MSTORE PUSH1 0x20 ADD SWAP1 DUP2 MSTORE PUSH1 0x20 ADD PUSH1 0x0 KECCAK256 SLOAD SWAP1 POP DUP3 PUSH1 0x0 DUP3 DUP2 SLOAD DUP2 LT PUSH2 0x675 JUMPI PUSH2 0x674 PUSH2 0xD6F JUMP JUMPDEST JUMPDEST SWAP1 PUSH1 0x0 MSTORE PUSH1 0x20 PUSH1 0x0 KECCAK256 SWAP1 PUSH1 0x3 MUL ADD PUSH1 0x1 ADD PUSH1 0x0 DUP3 DUP3 SLOAD PUSH2 0x695 SWAP2 SWAP1 PUSH2 0x11A4 JUMP JUMPDEST SWAP3 POP POP DUP2 SWAP1 SSTORE POP DUP3 PUSH1 0x0 DUP3 DUP2 SLOAD DUP2 LT PUSH2 0x6B1 JUMPI PUSH2 0x6B0 PUSH2 0xD6F JUMP JUMPDEST JUMPDEST SWAP1 PUSH1 0x0 MSTORE PUSH1 0x20 PUSH1 0x0 KECCAK256 SWAP1 PUSH1 0x3 MUL ADD PUSH1 0x2 ADD PUSH1 0x0 DUP3 DUP3 SLOAD PUSH2 0x6D1 SWAP2 SWAP1 PUSH2 0x11A4 JUMP JUMPDEST SWAP3 POP POP DUP2 SWAP1 SSTORE POP PUSH1 0x0 DUP1 DUP3 DUP2 SLOAD DUP2 LT PUSH2 0x6ED JUMPI PUSH2 0x6EC PUSH2 0xD6F JUMP JUMPDEST JUMPDEST SWAP1 PUSH1 0x0 MSTORE PUSH1 0x20 PUSH1 0x0 KECCAK256 SWAP1 PUSH1 0x3 MUL ADD PUSH1 0x1 ADD SLOAD SWAP1 POP PUSH32 0x552ECC61ABEF242A754033FFA95F474FB47AC4970C88FA73F29FF32BB9DAEB87 DUP3 DUP7 DUP4 PUSH1 0x40 MLOAD PUSH2 0x734 SWAP4 SWAP3 SWAP2 SWAP1 PUSH2 0x1211 JUMP JUMPDEST PUSH1 0x40 MLOAD DUP1 SWAP2 SUB SWAP1 LOG1 POP POP POP JUMPDEST POP POP JUMP JUMPDEST PUSH1 0x1 PUSH1 0x20 MSTORE DUP1 PUSH1 0x0 MSTORE PUSH1 0x40 PUSH1 0x0 KECCAK256 PUSH1 0x0 SWAP2 POP SWAP1 POP SLOAD DUP2 JUMP JUMPDEST PUSH1 0x0 PUSH1 0x40 MLOAD DUP1 PUSH1 0x20 ADD PUSH1 0x40 MSTORE DUP1 PUSH1 0x0 DUP2 MSTORE POP SWAP1 POP PUSH1 0x0 PUSH1 0x40 MLOAD DUP1 PUSH1 0x60 ADD PUSH1 0x40 MSTORE DUP1 DUP4 DUP2 MSTORE PUSH1 0x20 ADD DUP5 DUP2 MSTORE PUSH1 0x20 ADD DUP5 DUP2 MSTORE POP SWAP1 DUP1 PUSH1 0x1 DUP2 SLOAD ADD DUP1 DUP3 SSTORE DUP1 SWAP2 POP POP PUSH1 0x1 SWAP1 SUB SWAP1 PUSH1 0x0 MSTORE PUSH1 0x20 PUSH1 0x0 KECCAK256 SWAP1 PUSH1 0x3 MUL ADD PUSH1 0x0 SWAP1 SWAP2 SWAP1 SWAP2 SWAP1 SWAP2 POP PUSH1 0x0 DUP3 ADD MLOAD DUP2 PUSH1 0x0 ADD SWAP1 DUP2 PUSH2 0x7CB SWAP2 SWAP1 PUSH2 0x1027 JUMP JUMPDEST POP PUSH1 0x20 DUP3 ADD MLOAD DUP2 PUSH1 0x1 ADD SSTORE PUSH1 0x40 DUP3 ADD MLOAD DUP2 PUSH1 0x2 ADD SSTORE POP POP PUSH1 0x0 PUSH1 0x1 PUSH1 0x0 DUP1 SLOAD SWAP1 POP PUSH2 0x7F6 SWAP2 SWAP1 PUSH2 0x1128 JUMP JUMPDEST SWAP1 POP DUP1 PUSH1 0x1 PUSH1 0x0 CALLER PUSH20 0xFFFFFFFFFFFFFFFFFFFFFFFFFFFFFFFFFFFFFFFF AND PUSH20 0xFFFFFFFFFFFFFFFFFFFFFFFFFFFFFFFFFFFFFFFF AND DUP2 MSTORE PUSH1 0x20 ADD SWAP1 DUP2 MSTORE PUSH1 0x20 ADD PUSH1 0x0 KECCAK256 DUP2 SWAP1 SSTORE POP PUSH32 0xE818F0F07B2C301AD2EAE117F3288AC7DC37C4AA0A28C46A7FD23B81356442BF DUP2 DUP4 DUP6 PUSH1 0x40 MLOAD PUSH2 0x86F SWAP4 SWAP3 SWAP2 SWAP1 PUSH2 0x1211 JUMP JUMPDEST PUSH1 0x40 MLOAD DUP1 SWAP2 SUB SWAP1 LOG1 POP POP POP JUMP JUMPDEST PUSH1 0x0 PUSH1 0x1 PUSH1 0x0 CALLER PUSH20 0xFFFFFFFFFFFFFFFFFFFFFFFFFFFFFFFFFFFFFFFF AND PUSH20 0xFFFFFFFFFFFFFFFFFFFFFFFFFFFFFFFFFFFFFFFF AND DUP2 MSTORE PUSH1 0x20 ADD SWAP1 DUP2 MSTORE PUSH1 0x20 ADD PUSH1 0x0 KECCAK256 SLOAD SWAP1 POP DUP2 PUSH1 0x0 DUP3 DUP2 SLOAD DUP2 LT PUSH2 0x8D5 JUMPI PUSH2 0x8D4 PUSH2 0xD6F JUMP JUMPDEST JUMPDEST SWAP1 PUSH1 0x0 MSTORE PUSH1 0x20 PUSH1 0x0 KECCAK256 SWAP1 PUSH1 0x3 MUL ADD PUSH1 0x0 ADD SWAP1 DUP2 PUSH2 0x8F2 SWAP2 SWAP1 PUSH2 0x1027 JUMP JUMPDEST POP POP POP JUMP JUMPDEST PUSH1 0x40 MLOAD DUP1 PUSH1 0x60 ADD PUSH1 0x40 MSTORE DUP1 PUSH1 0x60 DUP2 MSTORE PUSH1 0x20 ADD PUSH1 0x0 DUP2 MSTORE PUSH1 0x20 ADD PUSH1 0x0 DUP2 MSTORE POP SWAP1 JUMP JUMPDEST PUSH1 0x0 PUSH1 0x40 MLOAD SWAP1 POP SWAP1 JUMP JUMPDEST PUSH1 0x0 DUP1 REVERT JUMPDEST PUSH1 0x0 DUP1 REVERT JUMPDEST PUSH1 0x0 PUSH20 0xFFFFFFFFFFFFFFFFFFFFFFFFFFFFFFFFFFFFFFFF DUP3 AND SWAP1 POP SWAP2 SWAP1 POP JUMP JUMPDEST PUSH1 0x0 PUSH2 0x957 DUP3 PUSH2 0x92C JUMP JUMPDEST SWAP1 POP SWAP2 SWAP1 POP JUMP JUMPDEST PUSH2 0x967 DUP2 PUSH2 0x94C JUMP JUMPDEST DUP2 EQ PUSH2 0x972 JUMPI PUSH1 0x0 DUP1 REVERT JUMPDEST POP JUMP JUMPDEST PUSH1 0x0 DUP2 CALLDATALOAD SWAP1 POP PUSH2 0x984 DUP2 PUSH2 0x95E JUMP JUMPDEST SWAP3 SWAP2 POP POP JUMP JUMPDEST PUSH1 0x0 PUSH1 0x20 DUP3 DUP5 SUB SLT ISZERO PUSH2 0x9A0 JUMPI PUSH2 0x99F PUSH2 0x922 JUMP JUMPDEST JUMPDEST PUSH1 0x0 PUSH2 0x9AE DUP5 DUP3 DUP6 ADD PUSH2 0x975 JUMP JUMPDEST SWAP2 POP POP SWAP3 SWAP2 POP POP JUMP JUMPDEST PUSH1 0x0 DUP2 SWAP1 POP SWAP2 SWAP1 POP JUMP JUMPDEST PUSH2 0x9CA DUP2 PUSH2 0x9B7 JUMP JUMPDEST DUP3 MSTORE POP POP JUMP JUMPDEST PUSH1 0x0 PUSH1 0x20 DUP3 ADD SWAP1 POP PUSH2 0x9E5 PUSH1 0x0 DUP4 ADD DUP5 PUSH2 0x9C1 JUMP JUMPDEST SWAP3 SWAP2 POP POP JUMP JUMPDEST PUSH1 0x0 DUP2 MLOAD SWAP1 POP SWAP2 SWAP1 POP JUMP JUMPDEST PUSH1 0x0 DUP3 DUP3 MSTORE PUSH1 0x20 DUP3 ADD SWAP1 POP SWAP3 SWAP2 POP POP JUMP JUMPDEST PUSH1 0x0 JUMPDEST DUP4 DUP2 LT ISZERO PUSH2 0xA25 JUMPI DUP1 DUP3 ADD MLOAD DUP2 DUP5 ADD MSTORE PUSH1 0x20 DUP2 ADD SWAP1 POP PUSH2 0xA0A JUMP JUMPDEST PUSH1 0x0 DUP5 DUP5 ADD MSTORE POP POP POP POP JUMP JUMPDEST PUSH1 0x0 PUSH1 0x1F NOT PUSH1 0x1F DUP4 ADD AND SWAP1 POP SWAP2 SWAP1 POP JUMP JUMPDEST PUSH1 0x0 PUSH2 0xA4D DUP3 PUSH2 0x9EB JUMP JUMPDEST PUSH2 0xA57 DUP2 DUP6 PUSH2 0x9F6 JUMP JUMPDEST SWAP4 POP PUSH2 0xA67 DUP2 DUP6 PUSH1 0x20 DUP7 ADD PUSH2 0xA07 JUMP JUMPDEST PUSH2 0xA70 DUP2 PUSH2 0xA31 JUMP JUMPDEST DUP5 ADD SWAP2 POP POP SWAP3 SWAP2 POP POP JUMP JUMPDEST PUSH2 0xA84 DUP2 PUSH2 0x9B7 JUMP JUMPDEST DUP3 MSTORE POP POP JUMP JUMPDEST PUSH1 0x0 PUSH1 0x60 DUP4 ADD PUSH1 0x0 DUP4 ADD MLOAD DUP5 DUP3 SUB PUSH1 0x0 DUP7 ADD MSTORE PUSH2 0xAA7 DUP3 DUP3 PUSH2 0xA42 JUMP JUMPDEST SWAP2 POP POP PUSH1 0x20 DUP4 ADD MLOAD PUSH2 0xABC PUSH1 0x20 DUP7 ADD DUP3 PUSH2 0xA7B JUMP JUMPDEST POP PUSH1 0x40 DUP4 ADD MLOAD PUSH2 0xACF PUSH1 0x40 DUP7 ADD DUP3 PUSH2 0xA7B JUMP JUMPDEST POP DUP1 SWAP2 POP POP SWAP3 SWAP2 POP POP JUMP JUMPDEST PUSH1 0x0 PUSH1 0x20 DUP3 ADD SWAP1 POP DUP2 DUP2 SUB PUSH1 0x0 DUP4 ADD MSTORE PUSH2 0xAF4 DUP2 DUP5 PUSH2 0xA8A JUMP JUMPDEST SWAP1 POP SWAP3 SWAP2 POP POP JUMP JUMPDEST PUSH2 0xB05 DUP2 PUSH2 0x9B7 JUMP JUMPDEST DUP2 EQ PUSH2 0xB10 JUMPI PUSH1 0x0 DUP1 REVERT JUMPDEST POP JUMP JUMPDEST PUSH1 0x0 DUP2 CALLDATALOAD SWAP1 POP PUSH2 0xB22 DUP2 PUSH2 0xAFC JUMP JUMPDEST SWAP3 SWAP2 POP POP JUMP JUMPDEST PUSH1 0x0 PUSH1 0x20 DUP3 DUP5 SUB SLT ISZERO PUSH2 0xB3E JUMPI PUSH2 0xB3D PUSH2 0x922 JUMP JUMPDEST JUMPDEST PUSH1 0x0 PUSH2 0xB4C DUP5 DUP3 DUP6 ADD PUSH2 0xB13 JUMP JUMPDEST SWAP2 POP POP SWAP3 SWAP2 POP POP JUMP JUMPDEST PUSH1 0x0 DUP1 REVERT JUMPDEST PUSH1 0x0 DUP1 REVERT JUMPDEST PUSH32 0x4E487B7100000000000000000000000000000000000000000000000000000000 PUSH1 0x0 MSTORE PUSH1 0x41 PUSH1 0x4 MSTORE PUSH1 0x24 PUSH1 0x0 REVERT JUMPDEST PUSH2 0xB97 DUP3 PUSH2 0xA31 JUMP JUMPDEST DUP2 ADD DUP2 DUP2 LT PUSH8 0xFFFFFFFFFFFFFFFF DUP3 GT OR ISZERO PUSH2 0xBB6 JUMPI PUSH2 0xBB5 PUSH2 0xB5F JUMP JUMPDEST JUMPDEST DUP1 PUSH1 0x40 MSTORE POP POP POP JUMP JUMPDEST PUSH1 0x0 PUSH2 0xBC9 PUSH2 0x918 JUMP JUMPDEST SWAP1 POP PUSH2 0xBD5 DUP3 DUP3 PUSH2 0xB8E JUMP JUMPDEST SWAP2 SWAP1 POP JUMP JUMPDEST PUSH1 0x0 PUSH8 0xFFFFFFFFFFFFFFFF DUP3 GT ISZERO PUSH2 0xBF5 JUMPI PUSH2 0xBF4 PUSH2 0xB5F JUMP JUMPDEST JUMPDEST PUSH2 0xBFE DUP3 PUSH2 0xA31 JUMP JUMPDEST SWAP1 POP PUSH1 0x20 DUP2 ADD SWAP1 POP SWAP2 SWAP1 POP JUMP JUMPDEST DUP3 DUP2 DUP4 CALLDATACOPY PUSH1 0x0 DUP4 DUP4 ADD MSTORE POP POP POP JUMP JUMPDEST PUSH1 0x0 PUSH2 0xC2D PUSH2 0xC28 DUP5 PUSH2 0xBDA JUMP JUMPDEST PUSH2 0xBBF JUMP JUMPDEST SWAP1 POP DUP3 DUP2 MSTORE PUSH1 0x20 DUP2 ADD DUP5 DUP5 DUP5 ADD GT ISZERO PUSH2 0xC49 JUMPI PUSH2 0xC48 PUSH2 0xB5A JUMP JUMPDEST JUMPDEST PUSH2 0xC54 DUP5 DUP3 DUP6 PUSH2 0xC0B JUMP JUMPDEST POP SWAP4 SWAP3 POP POP POP JUMP JUMPDEST PUSH1 0x0 DUP3 PUSH1 0x1F DUP4 ADD SLT PUSH2 0xC71 JUMPI PUSH2 0xC70 PUSH2 0xB55 JUMP JUMPDEST JUMPDEST DUP2 CALLDATALOAD PUSH2 0xC81 DUP5 DUP3 PUSH1 0x20 DUP7 ADD PUSH2 0xC1A JUMP JUMPDEST SWAP2 POP POP SWAP3 SWAP2 POP POP JUMP JUMPDEST PUSH1 0x0 PUSH1 0x20 DUP3 DUP5 SUB SLT ISZERO PUSH2 0xCA0 JUMPI PUSH2 0xC9F PUSH2 0x922 JUMP JUMPDEST JUMPDEST PUSH1 0x0 DUP3 ADD CALLDATALOAD PUSH8 0xFFFFFFFFFFFFFFFF DUP2 GT ISZERO PUSH2 0xCBE JUMPI PUSH2 0xCBD PUSH2 0x927 JUMP JUMPDEST JUMPDEST PUSH2 0xCCA DUP5 DUP3 DUP6 ADD PUSH2 0xC5C JUMP JUMPDEST SWAP2 POP POP SWAP3 SWAP2 POP POP JUMP JUMPDEST PUSH1 0x0 DUP1 PUSH1 0x40 DUP4 DUP6 SUB SLT ISZERO PUSH2 0xCEA JUMPI PUSH2 0xCE9 PUSH2 0x922 JUMP JUMPDEST JUMPDEST PUSH1 0x0 PUSH2 0xCF8 DUP6 DUP3 DUP7 ADD PUSH2 0xB13 JUMP JUMPDEST SWAP3 POP POP PUSH1 0x20 PUSH2 0xD09 DUP6 DUP3 DUP7 ADD PUSH2 0xB13 JUMP JUMPDEST SWAP2 POP POP SWAP3 POP SWAP3 SWAP1 POP JUMP JUMPDEST PUSH1 0x0 DUP1 PUSH1 0x40 DUP4 DUP6 SUB SLT ISZERO PUSH2 0xD2A JUMPI PUSH2 0xD29 PUSH2 0x922 JUMP JUMPDEST JUMPDEST PUSH1 0x0 DUP4 ADD CALLDATALOAD PUSH8 0xFFFFFFFFFFFFFFFF DUP2 GT ISZERO PUSH2 0xD48 JUMPI PUSH2 0xD47 PUSH2 0x927 JUMP JUMPDEST JUMPDEST PUSH2 0xD54 DUP6 DUP3 DUP7 ADD PUSH2 0xC5C JUMP JUMPDEST SWAP3 POP POP PUSH1 0x20 PUSH2 0xD65 DUP6 DUP3 DUP7 ADD PUSH2 0xB13 JUMP JUMPDEST SWAP2 POP POP SWAP3 POP SWAP3 SWAP1 POP JUMP JUMPDEST PUSH32 0x4E487B7100000000000000000000000000000000000000000000000000000000 PUSH1 0x0 MSTORE PUSH1 0x32 PUSH1 0x4 MSTORE PUSH1 0x24 PUSH1 0x0 REVERT JUMPDEST PUSH32 0x4E487B7100000000000000000000000000000000000000000000000000000000 PUSH1 0x0 MSTORE PUSH1 0x22 PUSH1 0x4 MSTORE PUSH1 0x24 PUSH1 0x0 REVERT JUMPDEST PUSH1 0x0 PUSH1 0x2 DUP3 DIV SWAP1 POP PUSH1 0x1 DUP3 AND DUP1 PUSH2 0xDE5 JUMPI PUSH1 0x7F DUP3 AND SWAP2 POP JUMPDEST PUSH1 0x20 DUP3 LT DUP2 SUB PUSH2 0xDF8 JUMPI PUSH2 0xDF7 PUSH2 0xD9E JUMP JUMPDEST JUMPDEST POP SWAP2 SWAP1 POP JUMP JUMPDEST PUSH1 0x0 DUP3 DUP3 MSTORE PUSH1 0x20 DUP3 ADD SWAP1 POP SWAP3 SWAP2 POP POP JUMP JUMPDEST PUSH32 0x5573657220686173206E6F7420646F6E61746564000000000000000000000000 PUSH1 0x0 DUP3 ADD MSTORE POP JUMP JUMPDEST PUSH1 0x0 PUSH2 0xE45 PUSH1 0x14 DUP4 PUSH2 0xDFE JUMP JUMPDEST SWAP2 POP PUSH2 0xE50 DUP3 PUSH2 0xE0F JUMP JUMPDEST PUSH1 0x20 DUP3 ADD SWAP1 POP SWAP2 SWAP1 POP JUMP JUMPDEST PUSH1 0x0 PUSH1 0x20 DUP3 ADD SWAP1 POP DUP2 DUP2 SUB PUSH1 0x0 DUP4 ADD MSTORE PUSH2 0xE74 DUP2 PUSH2 0xE38 JUMP JUMPDEST SWAP1 POP SWAP2 SWAP1 POP JUMP JUMPDEST PUSH1 0x0 DUP2 SWAP1 POP DUP2 PUSH1 0x0 MSTORE PUSH1 0x20 PUSH1 0x0 KECCAK256 SWAP1 POP SWAP2 SWAP1 POP JUMP JUMPDEST PUSH1 0x0 PUSH1 0x20 PUSH1 0x1F DUP4 ADD DIV SWAP1 POP SWAP2 SWAP1 POP JUMP JUMPDEST PUSH1 0x0 DUP3 DUP3 SHL SWAP1 POP SWAP3 SWAP2 POP POP JUMP JUMPDEST PUSH1 0x0 PUSH1 0x8 DUP4 MUL PUSH2 0xEDD PUSH32 0xFFFFFFFFFFFFFFFFFFFFFFFFFFFFFFFFFFFFFFFFFFFFFFFFFFFFFFFFFFFFFFFF DUP3 PUSH2 0xEA0 JUMP JUMPDEST PUSH2 0xEE7 DUP7 DUP4 PUSH2 0xEA0 JUMP JUMPDEST SWAP6 POP DUP1 NOT DUP5 AND SWAP4 POP DUP1 DUP7 AND DUP5 OR SWAP3 POP POP POP SWAP4 SWAP3 POP POP POP JUMP JUMPDEST PUSH1 0x0 DUP2 SWAP1 POP SWAP2 SWAP1 POP JUMP JUMPDEST PUSH1 0x0 PUSH2 0xF24 PUSH2 0xF1F PUSH2 0xF1A DUP5 PUSH2 0x9B7 JUMP JUMPDEST PUSH2 0xEFF JUMP JUMPDEST PUSH2 0x9B7 JUMP JUMPDEST SWAP1 POP SWAP2 SWAP1 POP JUMP JUMPDEST PUSH1 0x0 DUP2 SWAP1 POP SWAP2 SWAP1 POP JUMP JUMPDEST PUSH2 0xF3E DUP4 PUSH2 0xF09 JUMP JUMPDEST PUSH2 0xF52 PUSH2 0xF4A DUP3 PUSH2 0xF2B JUMP JUMPDEST DUP5 DUP5 SLOAD PUSH2 0xEAD JUMP JUMPDEST DUP3 SSTORE POP POP POP POP JUMP JUMPDEST PUSH1 0x0 SWAP1 JUMP JUMPDEST PUSH2 0xF67 PUSH2 0xF5A JUMP JUMPDEST PUSH2 0xF72 DUP2 DUP5 DUP5 PUSH2 0xF35 JUMP JUMPDEST POP POP POP JUMP JUMPDEST JUMPDEST DUP2 DUP2 LT ISZERO PUSH2 0xF96 JUMPI PUSH2 0xF8B PUSH1 0x0 DUP3 PUSH2 0xF5F JUMP JUMPDEST PUSH1 0x1 DUP2 ADD SWAP1 POP PUSH2 0xF78 JUMP JUMPDEST POP POP JUMP JUMPDEST PUSH1 0x1F DUP3 GT ISZERO PUSH2 0xFDB JUMPI PUSH2 0xFAC DUP2 PUSH2 0xE7B JUMP JUMPDEST PUSH2 0xFB5 DUP5 PUSH2 0xE90 JUMP JUMPDEST DUP2 ADD PUSH1 0x20 DUP6 LT ISZERO PUSH2 0xFC4 JUMPI DUP2 SWAP1 POP JUMPDEST PUSH2 0xFD8 PUSH2 0xFD0 DUP6 PUSH2 0xE90 JUMP JUMPDEST DUP4 ADD DUP3 PUSH2 0xF77 JUMP JUMPDEST POP POP JUMPDEST POP POP POP JUMP JUMPDEST PUSH1 0x0 DUP3 DUP3 SHR SWAP1 POP SWAP3 SWAP2 POP POP JUMP JUMPDEST PUSH1 0x0 PUSH2 0xFFE PUSH1 0x0 NOT DUP5 PUSH1 0x8 MUL PUSH2 0xFE0 JUMP JUMPDEST NOT DUP1 DUP4 AND SWAP2 POP POP SWAP3 SWAP2 POP POP JUMP JUMPDEST PUSH1 0x0 PUSH2 0x1017 DUP4 DUP4 PUSH2 0xFED JUMP JUMPDEST SWAP2 POP DUP3 PUSH1 0x2 MUL DUP3 OR SWAP1 POP SWAP3 SWAP2 POP POP JUMP JUMPDEST PUSH2 0x1030 DUP3 PUSH2 0x9EB JUMP JUMPDEST PUSH8 0xFFFFFFFFFFFFFFFF DUP2 GT ISZERO PUSH2 0x1049 JUMPI PUSH2 0x1048 PUSH2 0xB5F JUMP JUMPDEST JUMPDEST PUSH2 0x1053 DUP3 SLOAD PUSH2 0xDCD JUMP JUMPDEST PUSH2 0x105E DUP3 DUP3 DUP6 PUSH2 0xF9A JUMP JUMPDEST PUSH1 0x0 PUSH1 0x20 SWAP1 POP PUSH1 0x1F DUP4 GT PUSH1 0x1 DUP2 EQ PUSH2 0x1091 JUMPI PUSH1 0x0 DUP5 ISZERO PUSH2 0x107F JUMPI DUP3 DUP8 ADD MLOAD SWAP1 POP JUMPDEST PUSH2 0x1089 DUP6 DUP3 PUSH2 0x100B JUMP JUMPDEST DUP7 SSTORE POP PUSH2 0x10F1 JUMP JUMPDEST PUSH1 0x1F NOT DUP5 AND PUSH2 0x109F DUP7 PUSH2 0xE7B JUMP JUMPDEST PUSH1 0x0 JUMPDEST DUP3 DUP2 LT ISZERO PUSH2 0x10C7 JUMPI DUP5 DUP10 ADD MLOAD DUP3 SSTORE PUSH1 0x1 DUP3 ADD SWAP2 POP PUSH1 0x20 DUP6 ADD SWAP5 POP PUSH1 0x20 DUP2 ADD SWAP1 POP PUSH2 0x10A2 JUMP JUMPDEST DUP7 DUP4 LT ISZERO PUSH2 0x10E4 JUMPI DUP5 DUP10 ADD MLOAD PUSH2 0x10E0 PUSH1 0x1F DUP10 AND DUP3 PUSH2 0xFED JUMP JUMPDEST DUP4 SSTORE POP JUMPDEST PUSH1 0x1 PUSH1 0x2 DUP9 MUL ADD DUP9 SSTORE POP POP POP JUMPDEST POP POP POP POP POP POP JUMP JUMPDEST PUSH32 0x4E487B7100000000000000000000000000000000000000000000000000000000 PUSH1 0x0 MSTORE PUSH1 0x11 PUSH1 0x4 MSTORE PUSH1 0x24 PUSH1 0x0 REVERT JUMPDEST PUSH1 0x0 PUSH2 0x1133 DUP3 PUSH2 0x9B7 JUMP JUMPDEST SWAP2 POP PUSH2 0x113E DUP4 PUSH2 0x9B7 JUMP JUMPDEST SWAP3 POP DUP3 DUP3 SUB SWAP1 POP DUP2 DUP2 GT ISZERO PUSH2 0x1156 JUMPI PUSH2 0x1155 PUSH2 0x10F9 JUMP JUMPDEST JUMPDEST SWAP3 SWAP2 POP POP JUMP JUMPDEST PUSH1 0x0 PUSH2 0x1167 DUP3 PUSH2 0x9B7 JUMP JUMPDEST SWAP2 POP PUSH32 0xFFFFFFFFFFFFFFFFFFFFFFFFFFFFFFFFFFFFFFFFFFFFFFFFFFFFFFFFFFFFFFFF DUP3 SUB PUSH2 0x1199 JUMPI PUSH2 0x1198 PUSH2 0x10F9 JUMP JUMPDEST JUMPDEST PUSH1 0x1 DUP3 ADD SWAP1 POP SWAP2 SWAP1 POP JUMP JUMPDEST PUSH1 0x0 PUSH2 0x11AF DUP3 PUSH2 0x9B7 JUMP JUMPDEST SWAP2 POP PUSH2 0x11BA DUP4 PUSH2 0x9B7 JUMP JUMPDEST SWAP3 POP DUP3 DUP3 ADD SWAP1 POP DUP1 DUP3 GT ISZERO PUSH2 0x11D2 JUMPI PUSH2 0x11D1 PUSH2 0x10F9 JUMP JUMPDEST JUMPDEST SWAP3 SWAP2 POP POP JUMP JUMPDEST PUSH1 0x0 PUSH2 0x11E3 DUP3 PUSH2 0x9EB JUMP JUMPDEST PUSH2 0x11ED DUP2 DUP6 PUSH2 0xDFE JUMP JUMPDEST SWAP4 POP PUSH2 0x11FD DUP2 DUP6 PUSH1 0x20 DUP7 ADD PUSH2 0xA07 JUMP JUMPDEST PUSH2 0x1206 DUP2 PUSH2 0xA31 JUMP JUMPDEST DUP5 ADD SWAP2 POP POP SWAP3 SWAP2 POP POP JUMP JUMPDEST PUSH1 0x0 PUSH1 0x60 DUP3 ADD SWAP1 POP PUSH2 0x1226 PUSH1 0x0 DUP4 ADD DUP7 PUSH2 0x9C1 JUMP JUMPDEST DUP2 DUP2 SUB PUSH1 0x20 DUP4 ADD MSTORE PUSH2 0x1238 DUP2 DUP6 PUSH2 0x11D8 JUMP JUMPDEST SWAP1 POP PUSH2 0x1247 PUSH1 0x40 DUP4 ADD DUP5 PUSH2 0x9C1 JUMP JUMPDEST SWAP5 SWAP4 POP POP POP POP JUMP INVALID LOG2 PUSH5 0x6970667358 0x22 SLT KECCAK256 0x2A PUSH6 0x4AA997477F45 ORIGIN PUSH5 0x4A275F805F SELFDESTRUCT 0x4D CHAINID 0xF7 JUMPDEST 0xE8 0xE3 0xF9 0x28 MULMOD DUP6 PUSH7 0x8202AEF89C6473 PUSH16 0x6C634300081800330000000000000000 "},"methodIdentifiers":{"changeDonatorMailAdress(string)":"5d619341","getContractBalance()":"6f9fb98a","getDonaterDetails()":"48053848","getNumberOfDonaters()":"9fb868e6","idToOwner(address)":"facb5c6a","removeDonatorToken(uint256,uint256)":"82edf762","updateDonatedAmount(string,uint256)":"eb3c6d98","userHasDonated(address)":"364cbfff","withdrawMoney(uint256)":"54876921"}}}}}