{"contracts/DAO_SLR.sol":{"DAO_SLR":{"abi":[{"inputs":[],"stateMutability":"nonpayable","type":"constructor"},{"inputs":[{"internalType":"address","name":"sender","type":"address"},{"internalType":"uint256","name":"tokenId","type":"uint256"},{"internalType":"address","name":"owner","type":"address"}],"name":"ERC721IncorrectOwner","type":"error"},{"inputs":[{"internalType":"address","name":"operator","type":"address"},{"internalType":"uint256","name":"tokenId","type":"uint256"}],"name":"ERC721InsufficientApproval","type":"error"},{"inputs":[{"internalType":"address","name":"approver","type":"address"}],"name":"ERC721InvalidApprover","type":"error"},{"inputs":[{"internalType":"address","name":"operator","type":"address"}],"name":"ERC721InvalidOperator","type":"error"},{"inputs":[{"internalType":"address","name":"owner","type":"address"}],"name":"ERC721InvalidOwner","type":"error"},{"inputs":[{"internalType":"address","name":"receiver","type":"address"}],"name":"ERC721InvalidReceiver","type":"error"},{"inputs":[{"internalType":"address","name":"sender","type":"address"}],"name":"ERC721InvalidSender","type":"error"},{"inputs":[{"internalType":"uint256","name":"tokenId","type":"uint256"}],"name":"ERC721NonexistentToken","type":"error"},{"anonymous":false,"inputs":[{"indexed":true,"internalType":"address","name":"owner","type":"address"},{"indexed":true,"internalType":"address","name":"approved","type":"address"},{"indexed":true,"internalType":"uint256","name":"tokenId","type":"uint256"}],"name":"Approval","type":"event"},{"anonymous":false,"inputs":[{"indexed":true,"internalType":"address","name":"owner","type":"address"},{"indexed":true,"internalType":"address","name":"operator","type":"address"},{"indexed":false,"internalType":"bool","name":"approved","type":"bool"}],"name":"ApprovalForAll","type":"event"},{"anonymous":false,"inputs":[{"indexed":false,"internalType":"uint256","name":"_fromTokenId","type":"uint256"},{"indexed":false,"internalType":"uint256","name":"_toTokenId","type":"uint256"}],"name":"BatchMetadataUpdate","type":"event"},{"anonymous":false,"inputs":[{"indexed":false,"internalType":"uint256","name":"_tokenId","type":"uint256"}],"name":"MetadataUpdate","type":"event"},{"anonymous":false,"inputs":[{"indexed":true,"internalType":"address","name":"from","type":"address"},{"indexed":true,"internalType":"address","name":"to","type":"address"},{"indexed":true,"internalType":"uint256","name":"tokenId","type":"uint256"}],"name":"Transfer","type":"event"},{"inputs":[{"internalType":"address","name":"to","type":"address"},{"internalType":"uint256","name":"tokenId","type":"uint256"}],"name":"approve","outputs":[],"stateMutability":"nonpayable","type":"function"},{"inputs":[{"internalType":"address","name":"owner","type":"address"}],"name":"balanceOf","outputs":[{"internalType":"uint256","name":"","type":"uint256"}],"stateMutability":"view","type":"function"},{"inputs":[{"internalType":"uint256","name":"_projectId","type":"uint256"}],"name":"createDonationReceipt","outputs":[],"stateMutability":"nonpayable","type":"function"},{"inputs":[{"internalType":"string","name":"_title","type":"string"},{"internalType":"string","name":"_description","type":"string"},{"internalType":"uint256","name":"_goal","type":"uint256"}],"name":"createProject","outputs":[{"internalType":"uint256","name":"","type":"uint256"}],"stateMutability":"nonpayable","type":"function"},{"inputs":[{"internalType":"uint256","name":"tokenId","type":"uint256"}],"name":"getApproved","outputs":[{"internalType":"address","name":"","type":"address"}],"stateMutability":"view","type":"function"},{"inputs":[],"name":"getVotingTokens","outputs":[{"internalType":"uint256","name":"","type":"uint256"}],"stateMutability":"view","type":"function"},{"inputs":[{"internalType":"address","name":"","type":"address"}],"name":"hasReceivedNFT","outputs":[{"internalType":"bool","name":"","type":"bool"}],"stateMutability":"view","type":"function"},{"inputs":[{"internalType":"address","name":"owner","type":"address"},{"internalType":"address","name":"operator","type":"address"}],"name":"isApprovedForAll","outputs":[{"internalType":"bool","name":"","type":"bool"}],"stateMutability":"view","type":"function"},{"inputs":[],"name":"name","outputs":[{"internalType":"string","name":"","type":"string"}],"stateMutability":"view","type":"function"},{"inputs":[{"internalType":"uint256","name":"tokenId","type":"uint256"}],"name":"ownerOf","outputs":[{"internalType":"address","name":"","type":"address"}],"stateMutability":"view","type":"function"},{"inputs":[],"name":"projectCount","outputs":[{"internalType":"uint256","name":"","type":"uint256"}],"stateMutability":"view","type":"function"},{"inputs":[{"internalType":"uint256","name":"","type":"uint256"}],"name":"projects","outputs":[{"internalType":"contract Project","name":"","type":"address"}],"stateMutability":"view","type":"function"},{"inputs":[{"internalType":"address","name":"from","type":"address"},{"internalType":"address","name":"to","type":"address"},{"internalType":"uint256","name":"tokenId","type":"uint256"}],"name":"safeTransferFrom","outputs":[],"stateMutability":"nonpayable","type":"function"},{"inputs":[{"internalType":"address","name":"from","type":"address"},{"internalType":"address","name":"to","type":"address"},{"internalType":"uint256","name":"tokenId","type":"uint256"},{"internalType":"bytes","name":"data","type":"bytes"}],"name":"safeTransferFrom","outputs":[],"stateMutability":"nonpayable","type":"function"},{"inputs":[{"internalType":"address","name":"operator","type":"address"},{"internalType":"bool","name":"approved","type":"bool"}],"name":"setApprovalForAll","outputs":[],"stateMutability":"nonpayable","type":"function"},{"inputs":[{"internalType":"uint256","name":"_projectId","type":"uint256"}],"name":"showProjectDetails","outputs":[{"internalType":"string","name":"","type":"string"},{"internalType":"uint256","name":"","type":"uint256"},{"internalType":"uint256","name":"","type":"uint256"},{"internalType":"uint256","name":"","type":"uint256"},{"internalType":"uint256","name":"","type":"uint256"}],"stateMutability":"view","type":"function"},{"inputs":[{"internalType":"bytes4","name":"interfaceId","type":"bytes4"}],"name":"supportsInterface","outputs":[{"internalType":"bool","name":"","type":"bool"}],"stateMutability":"view","type":"function"},{"inputs":[],"name":"symbol","outputs":[{"internalType":"string","name":"","type":"string"}],"stateMutability":"view","type":"function"},{"inputs":[],"name":"tokenMultiplier","outputs":[{"internalType":"uint256","name":"","type":"uint256"}],"stateMutability":"view","type":"function"},{"inputs":[{"internalType":"uint256","name":"tokenId","type":"uint256"}],"name":"tokenURI","outputs":[{"internalType":"string","name":"","type":"string"}],"stateMutability":"view","type":"function"},{"inputs":[{"internalType":"address","name":"from","type":"address"},{"internalType":"address","name":"to","type":"address"},{"internalType":"uint256","name":"tokenId","type":"uint256"}],"name":"transferFrom","outputs":[],"stateMutability":"nonpayable","type":"function"},{"inputs":[{"internalType":"uint256","name":"_projectId","type":"uint256"},{"internalType":"uint256","name":"_tokens","type":"uint256"}],"name":"voteForProject","outputs":[],"stateMutability":"nonpayable","type":"function"},{"inputs":[{"internalType":"address","name":"","type":"address"}],"name":"votingTokens","outputs":[{"internalType":"uint256","name":"","type":"uint256"}],"stateMutability":"view","type":"function"},{"stateMutability":"payable","type":"receive"}],"evm":{"bytecode":{"linkReferences":{},"object":"60806040526001600b553480156200001657600080fd5b506040518060400160405280600b81526020017f446f6e6174696f6e4e46540000000000000000000000000000000000000000008152506040518060400160405280600481526020017f444e465400000000000000000000000000000000000000000000000000000000815250816000908162000094919062000331565b508060019081620000a6919062000331565b5050506000600c8190555062000418565b600081519050919050565b7f4e487b7100000000000000000000000000000000000000000000000000000000600052604160045260246000fd5b7f4e487b7100000000000000000000000000000000000000000000000000000000600052602260045260246000fd5b600060028204905060018216806200013957607f821691505b6020821081036200014f576200014e620000f1565b5b50919050565b60008190508160005260206000209050919050565b60006020601f8301049050919050565b600082821b905092915050565b600060088302620001b97fffffffffffffffffffffffffffffffffffffffffffffffffffffffffffffffff826200017a565b620001c586836200017a565b95508019841693508086168417925050509392505050565b6000819050919050565b6000819050919050565b6000620002126200020c6200020684620001dd565b620001e7565b620001dd565b9050919050565b6000819050919050565b6200022e83620001f1565b620002466200023d8262000219565b84845462000187565b825550505050565b600090565b6200025d6200024e565b6200026a81848462000223565b505050565b5b8181101562000292576200028660008262000253565b60018101905062000270565b5050565b601f821115620002e157620002ab8162000155565b620002b6846200016a565b81016020851015620002c6578190505b620002de620002d5856200016a565b8301826200026f565b50505b505050565b600082821c905092915050565b60006200030660001984600802620002e6565b1980831691505092915050565b6000620003218383620002f3565b9150826002028217905092915050565b6200033c82620000b7565b67ffffffffffffffff811115620003585762000357620000c2565b5b62000364825462000120565b6200037182828562000296565b600060209050601f831160018114620003a9576000841562000394578287015190505b620003a0858262000313565b86555062000410565b601f198416620003b98662000155565b60005b82811015620003e357848901518255600182019150602085019450602081019050620003bc565b86831015620004035784890151620003ff601f891682620002f3565b8355505b6001600288020188555050505b505050505050565b6155ac80620004286000396000f3fe608060405260043610620001635760003560e01c80636352211e11620000c7578063c86c6f0d1162000079578063c86c6f0d1462000586578063c87b56dd14620005ce578063cfa28f631462000612578063e0c22f051462000642578063e985e9c51462000670578063eca964e314620006b457620001d1565b80636352211e146200044257806370a08231146200048657806395d89b4114620004ca578063a22cb46514620004fa578063b88d4fde1462000528578063ba3f5a12146200055657620001d1565b806323b872dd116200012157806323b872dd146200030057806323c55448146200032e57806330ce6b0b146200037257806336fbad2614620003a057806342842e0e14620003d05780635e8f07fb14620003fe57620001d1565b806301ffc9a714620001d657806306fdde03146200021a578063081812fc146200024a578063095ea7b3146200028e578063107046bd14620002bc57620001d1565b36620001d157600b543462000179919062002792565b600760003373ffffffffffffffffffffffffffffffffffffffff1673ffffffffffffffffffffffffffffffffffffffff1681526020019081526020016000206000828254620001c99190620027dd565b925050819055005b600080fd5b348015620001e357600080fd5b50620002026004803603810190620001fc919062002889565b620006f8565b604051620002119190620028d8565b60405180910390f35b3480156200022757600080fd5b50620002326200075c565b6040516200024191906200298f565b60405180910390f35b3480156200025757600080fd5b50620002766004803603810190620002709190620029e4565b620007f6565b60405162000285919062002a5b565b60405180910390f35b3480156200029b57600080fd5b50620002ba6004803603810190620002b4919062002aa9565b62000816565b005b348015620002c957600080fd5b50620002e86004803603810190620002e29190620029e4565b62000830565b604051620002f7919062002b5b565b60405180910390f35b3480156200030d57600080fd5b506200032c600480360381019062000326919062002b78565b62000863565b005b3480156200033b57600080fd5b506200035a600480360381019062000354919062002d25565b6200096f565b60405162000369919062002dd0565b60405180910390f35b3480156200037f57600080fd5b506200039e600480360381019062000398919062002ded565b62000a34565b005b348015620003ad57600080fd5b50620003b862000bfe565b604051620003c7919062002dd0565b60405180910390f35b348015620003dd57600080fd5b50620003fc6004803603810190620003f6919062002b78565b62000c04565b005b3480156200040b57600080fd5b506200042a600480360381019062000424919062002e34565b62000c26565b604051620004399190620028d8565b60405180910390f35b3480156200044f57600080fd5b506200046e6004803603810190620004689190620029e4565b62000c46565b6040516200047d919062002a5b565b60405180910390f35b3480156200049357600080fd5b50620004b26004803603810190620004ac919062002e34565b62000c5a565b604051620004c1919062002dd0565b60405180910390f35b348015620004d757600080fd5b50620004e262000d17565b604051620004f191906200298f565b60405180910390f35b3480156200050757600080fd5b5062000526600480360381019062000520919062002e97565b62000db1565b005b3480156200053557600080fd5b506200055460048036038101906200054e919062002f92565b62000dcb565b005b3480156200056357600080fd5b506200056e62000dec565b6040516200057d919062002dd0565b60405180910390f35b3480156200059357600080fd5b50620005b26004803603810190620005ac9190620029e4565b62000df2565b604051620005c595949392919062003023565b60405180910390f35b348015620005db57600080fd5b50620005fa6004803603810190620005f49190620029e4565b620011b4565b6040516200060991906200298f565b60405180910390f35b3480156200061f57600080fd5b506200062a620012db565b60405162000639919062002dd0565b60405180910390f35b3480156200064f57600080fd5b506200066e6004803603810190620006689190620029e4565b62001322565b005b3480156200067d57600080fd5b506200069c600480360381019062000696919062003087565b620016f8565b604051620006ab9190620028d8565b60405180910390f35b348015620006c157600080fd5b50620006e06004803603810190620006da919062002e34565b6200178c565b604051620006ef919062002dd0565b60405180910390f35b6000634906490660e01b7bffffffffffffffffffffffffffffffffffffffffffffffffffffffff1916827bffffffffffffffffffffffffffffffffffffffffffffffffffffffff191614806200075557506200075482620017a4565b5b9050919050565b6060600080546200076d90620030fd565b80601f01602080910402602001604051908101604052809291908181526020018280546200079b90620030fd565b8015620007ec5780601f10620007c057610100808354040283529160200191620007ec565b820191906000526020600020905b815481529060010190602001808311620007ce57829003601f168201915b5050505050905090565b600062000803826200188a565b506200080f8262001917565b9050919050565b6200082c82826200082662001954565b6200195c565b5050565b60096020528060005260406000206000915054906101000a900473ffffffffffffffffffffffffffffffffffffffff1681565b600073ffffffffffffffffffffffffffffffffffffffff168273ffffffffffffffffffffffffffffffffffffffff1603620008d85760006040517f64a0ae92000000000000000000000000000000000000000000000000000000008152600401620008cf919062002a5b565b60405180910390fd5b6000620008f08383620008ea62001954565b62001970565b90508373ffffffffffffffffffffffffffffffffffffffff168173ffffffffffffffffffffffffffffffffffffffff161462000969578382826040517f64283d7b000000000000000000000000000000000000000000000000000000008152600401620009609392919062003132565b60405180910390fd5b50505050565b6000803385858560405162000984906200274b565b62000993949392919062003194565b604051809103906000f080158015620009b0573d6000803e3d6000fd5b5090506000600a5490508160096000600a54815260200190815260200160002060006101000a81548173ffffffffffffffffffffffffffffffffffffffff021916908373ffffffffffffffffffffffffffffffffffffffff160217905550600a600081548092919062000a2390620031ef565b919050555080925050509392505050565b600a54821062000a7b576040517f08c379a000000000000000000000000000000000000000000000000000000000815260040162000a72906200328c565b60405180910390fd5b80600760003373ffffffffffffffffffffffffffffffffffffffff1673ffffffffffffffffffffffffffffffffffffffff16815260200190815260200160002054101562000b00576040517f08c379a000000000000000000000000000000000000000000000000000000000815260040162000af790620032fe565b60405180910390fd5b80600760003373ffffffffffffffffffffffffffffffffffffffff1673ffffffffffffffffffffffffffffffffffffffff168152602001908152602001600020600082825462000b51919062003320565b925050819055506009600083815260200190815260200160002060009054906101000a900473ffffffffffffffffffffffffffffffffffffffff1673ffffffffffffffffffffffffffffffffffffffff16630121b93f826040518263ffffffff1660e01b815260040162000bc6919062002dd0565b600060405180830381600087803b15801562000be157600080fd5b505af115801562000bf6573d6000803e3d6000fd5b505050505050565b600a5481565b62000c218383836040518060200160405280600081525062000dcb565b505050565b60086020528060005260406000206000915054906101000a900460ff1681565b600062000c53826200188a565b9050919050565b60008073ffffffffffffffffffffffffffffffffffffffff168273ffffffffffffffffffffffffffffffffffffffff160362000cd05760006040517f89c62b6400000000000000000000000000000000000000000000000000000000815260040162000cc7919062002a5b565b60405180910390fd5b600360008373ffffffffffffffffffffffffffffffffffffffff1673ffffffffffffffffffffffffffffffffffffffff168152602001908152602001600020549050919050565b60606001805462000d2890620030fd565b80601f016020809104026020016040519081016040528092919081815260200182805462000d5690620030fd565b801562000da75780601f1062000d7b5761010080835404028352916020019162000da7565b820191906000526020600020905b81548152906001019060200180831162000d8957829003601f168201915b5050505050905090565b62000dc762000dbf62001954565b838362001b93565b5050565b62000dd884848462000863565b62000de68484848462001d07565b50505050565b600b5481565b6060600080600080600a54861062000e41576040517f08c379a000000000000000000000000000000000000000000000000000000000815260040162000e38906200328c565b60405180910390fd5b6009600087815260200190815260200160002060009054906101000a900473ffffffffffffffffffffffffffffffffffffffff1673ffffffffffffffffffffffffffffffffffffffff1663755f047b6040518163ffffffff1660e01b8152600401600060405180830381865afa15801562000ec0573d6000803e3d6000fd5b505050506040513d6000823e3d601f19601f8201168201806040525081019062000eeb9190620033d9565b6009600088815260200190815260200160002060009054906101000a900473ffffffffffffffffffffffffffffffffffffffff1673ffffffffffffffffffffffffffffffffffffffff16637a3a0e846040518163ffffffff1660e01b8152600401602060405180830381865afa15801562000f6a573d6000803e3d6000fd5b505050506040513d601f19601f8201168201806040525081019062000f90919062003441565b6009600089815260200190815260200160002060009054906101000a900473ffffffffffffffffffffffffffffffffffffffff1673ffffffffffffffffffffffffffffffffffffffff16630888b70d6040518163ffffffff1660e01b8152600401602060405180830381865afa1580156200100f573d6000803e3d6000fd5b505050506040513d601f19601f8201168201806040525081019062001035919062003441565b600960008a815260200190815260200160002060009054906101000a900473ffffffffffffffffffffffffffffffffffffffff1673ffffffffffffffffffffffffffffffffffffffff1663c19d93fb6040518163ffffffff1660e01b8152600401602060405180830381865afa158015620010b4573d6000803e3d6000fd5b505050506040513d601f19601f82011682018060405250810190620010da91906200349b565b6007811115620010ef57620010ee620034cd565b5b600960008b815260200190815260200160002060009054906101000a900473ffffffffffffffffffffffffffffffffffffffff1673ffffffffffffffffffffffffffffffffffffffff1663d8bff5a5336040518263ffffffff1660e01b81526004016200115d919062002a5b565b602060405180830381865afa1580156200117b573d6000803e3d6000fd5b505050506040513d601f19601f82011682018060405250810190620011a1919062003441565b9450945094509450945091939590929450565b6060620011c1826200188a565b506000600660008481526020019081526020016000208054620011e490620030fd565b80601f01602080910402602001604051908101604052809291908181526020018280546200121290620030fd565b8015620012635780601f10620012375761010080835404028352916020019162001263565b820191906000526020600020905b8154815290600101906020018083116200124557829003601f168201915b5050505050905060006200127662001ecf565b905060008151036200128d578192505050620012d6565b600082511115620012c6578082604051602001620012ad9291906200353e565b60405160208183030381529060405292505050620012d6565b620012d18462001ee6565b925050505b919050565b6000600760003373ffffffffffffffffffffffffffffffffffffffff1673ffffffffffffffffffffffffffffffffffffffff16815260200190815260200160002054905090565b600a54811062001369576040517f08c379a000000000000000000000000000000000000000000000000000000000815260040162001360906200328c565b60405180910390fd5b6009600082815260200190815260200160002060009054906101000a900473ffffffffffffffffffffffffffffffffffffffff1673ffffffffffffffffffffffffffffffffffffffff16637a3a0e846040518163ffffffff1660e01b8152600401602060405180830381865afa158015620013e8573d6000803e3d6000fd5b505050506040513d601f19601f820116820180604052508101906200140e919062003441565b6009600083815260200190815260200160002060009054906101000a900473ffffffffffffffffffffffffffffffffffffffff1673ffffffffffffffffffffffffffffffffffffffff16630888b70d6040518163ffffffff1660e01b8152600401602060405180830381865afa1580156200148d573d6000803e3d6000fd5b505050506040513d601f19601f82011682018060405250810190620014b3919062003441565b1015620014f7576040517f08c379a0000000000000000000000000000000000000000000000000000000008152600401620014ee90620035b6565b60405180910390fd5b600860003373ffffffffffffffffffffffffffffffffffffffff1673ffffffffffffffffffffffffffffffffffffffff16815260200190815260200160002060009054906101000a900460ff161562001587576040517f08c379a00000000000000000000000000000000000000000000000000000000081526004016200157e9062003628565b60405180910390fd5b60006009600083815260200190815260200160002060009054906101000a900473ffffffffffffffffffffffffffffffffffffffff1673ffffffffffffffffffffffffffffffffffffffff16631479197f336040518263ffffffff1660e01b8152600401620015f7919062002a5b565b602060405180830381865afa15801562001615573d6000803e3d6000fd5b505050506040513d601f19601f820116820180604052508101906200163b919062003441565b90506200164b33600c5462001f59565b600081604051602001620016609190620037ab565b60405160208183030381529060405290506200167f600c548262001f79565b6001600c6000828254620016949190620027dd565b925050819055506001600860003373ffffffffffffffffffffffffffffffffffffffff1673ffffffffffffffffffffffffffffffffffffffff16815260200190815260200160002060006101000a81548160ff021916908315150217905550505050565b6000600560008473ffffffffffffffffffffffffffffffffffffffff1673ffffffffffffffffffffffffffffffffffffffff16815260200190815260200160002060008373ffffffffffffffffffffffffffffffffffffffff1673ffffffffffffffffffffffffffffffffffffffff16815260200190815260200160002060009054906101000a900460ff16905092915050565b60076020528060005260406000206000915090505481565b60007f80ac58cd000000000000000000000000000000000000000000000000000000007bffffffffffffffffffffffffffffffffffffffffffffffffffffffff1916827bffffffffffffffffffffffffffffffffffffffffffffffffffffffff191614806200187057507f5b5e139f000000000000000000000000000000000000000000000000000000007bffffffffffffffffffffffffffffffffffffffffffffffffffffffff1916827bffffffffffffffffffffffffffffffffffffffffffffffffffffffff1916145b80620018835750620018828262001fd9565b5b9050919050565b600080620018988362002043565b9050600073ffffffffffffffffffffffffffffffffffffffff168173ffffffffffffffffffffffffffffffffffffffff16036200190e57826040517f7e27328900000000000000000000000000000000000000000000000000000000815260040162001905919062002dd0565b60405180910390fd5b80915050919050565b60006004600083815260200190815260200160002060009054906101000a900473ffffffffffffffffffffffffffffffffffffffff169050919050565b600033905090565b6200196b838383600162002080565b505050565b6000806200197e8462002043565b9050600073ffffffffffffffffffffffffffffffffffffffff168373ffffffffffffffffffffffffffffffffffffffff1614620019c357620019c281848662002251565b5b600073ffffffffffffffffffffffffffffffffffffffff168173ffffffffffffffffffffffffffffffffffffffff161462001a575762001a0860008560008062002080565b6001600360008373ffffffffffffffffffffffffffffffffffffffff1673ffffffffffffffffffffffffffffffffffffffff168152602001908152602001600020600082825403925050819055505b600073ffffffffffffffffffffffffffffffffffffffff168573ffffffffffffffffffffffffffffffffffffffff161462001adb576001600360008773ffffffffffffffffffffffffffffffffffffffff1673ffffffffffffffffffffffffffffffffffffffff168152602001908152602001600020600082825401925050819055505b846002600086815260200190815260200160002060006101000a81548173ffffffffffffffffffffffffffffffffffffffff021916908373ffffffffffffffffffffffffffffffffffffffff160217905550838573ffffffffffffffffffffffffffffffffffffffff168273ffffffffffffffffffffffffffffffffffffffff167fddf252ad1be2c89b69c2b068fc378daa952ba7f163c4a11628f55a4df523b3ef60405160405180910390a4809150509392505050565b600073ffffffffffffffffffffffffffffffffffffffff168273ffffffffffffffffffffffffffffffffffffffff160362001c0757816040517f5b08ba1800000000000000000000000000000000000000000000000000000000815260040162001bfe919062002a5b565b60405180910390fd5b80600560008573ffffffffffffffffffffffffffffffffffffffff1673ffffffffffffffffffffffffffffffffffffffff16815260200190815260200160002060008473ffffffffffffffffffffffffffffffffffffffff1673ffffffffffffffffffffffffffffffffffffffff16815260200190815260200160002060006101000a81548160ff0219169083151502179055508173ffffffffffffffffffffffffffffffffffffffff168373ffffffffffffffffffffffffffffffffffffffff167f17307eab39ab6107e8899845ad3d59bd9653f200f220920489ca2b5937696c318360405162001cfa9190620028d8565b60405180910390a3505050565b60008373ffffffffffffffffffffffffffffffffffffffff163b111562001ec9578273ffffffffffffffffffffffffffffffffffffffff1663150b7a0262001d4e62001954565b8685856040518563ffffffff1660e01b815260040162001d7294939291906200384c565b6020604051808303816000875af192505050801562001db157506040513d601f19601f8201168201806040525081019062001dae9190620038b7565b60015b62001e3b573d806000811462001de4576040519150601f19603f3d011682016040523d82523d6000602084013e62001de9565b606091505b50600081510362001e3357836040517f64a0ae9200000000000000000000000000000000000000000000000000000000815260040162001e2a919062002a5b565b60405180910390fd5b805181602001fd5b63150b7a0260e01b7bffffffffffffffffffffffffffffffffffffffffffffffffffffffff1916817bffffffffffffffffffffffffffffffffffffffffffffffffffffffff19161462001ec757836040517f64a0ae9200000000000000000000000000000000000000000000000000000000815260040162001ebe919062002a5b565b60405180910390fd5b505b50505050565b606060405180602001604052806000815250905090565b606062001ef3826200188a565b50600062001f0062001ecf565b9050600081511162001f22576040518060200160405280600081525062001f51565b8062001f2e846200231d565b60405160200162001f419291906200353e565b6040516020818303038152906040525b915050919050565b62001f75828260405180602001604052806000815250620023f6565b5050565b8060066000848152602001908152602001600020908162001f9b919062003ab1565b507ff8e1a15aba9398e019f0b49df1a4fde98ee17ae345cb5f6b5e2c27f5033e8ce78260405162001fcd919062002dd0565b60405180910390a15050565b60007f01ffc9a7000000000000000000000000000000000000000000000000000000007bffffffffffffffffffffffffffffffffffffffffffffffffffffffff1916827bffffffffffffffffffffffffffffffffffffffffffffffffffffffff1916149050919050565b60006002600083815260200190815260200160002060009054906101000a900473ffffffffffffffffffffffffffffffffffffffff169050919050565b8080620020ba5750600073ffffffffffffffffffffffffffffffffffffffff168273ffffffffffffffffffffffffffffffffffffffff1614155b15620021f9576000620020cd846200188a565b9050600073ffffffffffffffffffffffffffffffffffffffff168373ffffffffffffffffffffffffffffffffffffffff16141580156200213957508273ffffffffffffffffffffffffffffffffffffffff168173ffffffffffffffffffffffffffffffffffffffff1614155b80156200214f57506200214d8184620016f8565b155b156200219457826040517fa9fbf51f0000000000000000000000000000000000000000000000000000000081526004016200218b919062002a5b565b60405180910390fd5b8115620021f757838573ffffffffffffffffffffffffffffffffffffffff168273ffffffffffffffffffffffffffffffffffffffff167f8c5be1e5ebec7d5bd14f71427d1e84f3dd0314c0f7b2291e5b200ac8c7c3b92560405160405180910390a45b505b836004600085815260200190815260200160002060006101000a81548173ffffffffffffffffffffffffffffffffffffffff021916908373ffffffffffffffffffffffffffffffffffffffff16021790555050505050565b6200225e83838362002416565b6200231857600073ffffffffffffffffffffffffffffffffffffffff168373ffffffffffffffffffffffffffffffffffffffff1603620022d757806040517f7e273289000000000000000000000000000000000000000000000000000000008152600401620022ce919062002dd0565b60405180910390fd5b81816040517f177e802f0000000000000000000000000000000000000000000000000000000081526004016200230f92919062003b98565b60405180910390fd5b505050565b6060600060016200232e84620024de565b01905060008167ffffffffffffffff81111562002350576200234f62002bde565b5b6040519080825280601f01601f191660200182016040528015620023835781602001600182028036833780820191505090505b509050600082602001820190505b600115620023eb578080600190039150507f3031323334353637383961626364656600000000000000000000000000000000600a86061a8153600a8581620023de57620023dd62003bc5565b5b0494506000850362002391575b819350505050919050565b6200240283836200264a565b62002411600084848462001d07565b505050565b60008073ffffffffffffffffffffffffffffffffffffffff168373ffffffffffffffffffffffffffffffffffffffff1614158015620024d557508273ffffffffffffffffffffffffffffffffffffffff168473ffffffffffffffffffffffffffffffffffffffff161480620024935750620024928484620016f8565b5b80620024d457508273ffffffffffffffffffffffffffffffffffffffff16620024bc8362001917565b73ffffffffffffffffffffffffffffffffffffffff16145b5b90509392505050565b600080600090507a184f03e93ff9f4daa797ed6e38ed64bf6a1f010000000000000000831062002540577a184f03e93ff9f4daa797ed6e38ed64bf6a1f010000000000000000838162002536576200253562003bc5565b5b0492506040810190505b6d04ee2d6d415b85acef8100000000831062002581576d04ee2d6d415b85acef8100000000838162002577576200257662003bc5565b5b0492506020810190505b662386f26fc100008310620025b457662386f26fc100008381620025aa57620025a962003bc5565b5b0492506010810190505b6305f5e1008310620025e1576305f5e1008381620025d757620025d662003bc5565b5b0492506008810190505b61271083106200260a5761271083816200260057620025ff62003bc5565b5b0492506004810190505b6064831062002631576064838162002627576200262662003bc5565b5b0492506002810190505b600a831062002641576001810190505b80915050919050565b600073ffffffffffffffffffffffffffffffffffffffff168273ffffffffffffffffffffffffffffffffffffffff1603620026bf5760006040517f64a0ae92000000000000000000000000000000000000000000000000000000008152600401620026b6919062002a5b565b60405180910390fd5b6000620026cf8383600062001970565b9050600073ffffffffffffffffffffffffffffffffffffffff168173ffffffffffffffffffffffffffffffffffffffff1614620027465760006040517f73c6ac6e0000000000000000000000000000000000000000000000000000000081526004016200273d919062002a5b565b60405180910390fd5b505050565b6119828062003bf583390190565b6000819050919050565b7f4e487b7100000000000000000000000000000000000000000000000000000000600052601160045260246000fd5b60006200279f8262002759565b9150620027ac8362002759565b9250828202620027bc8162002759565b91508282048414831517620027d657620027d562002763565b5b5092915050565b6000620027ea8262002759565b9150620027f78362002759565b925082820190508082111562002812576200281162002763565b5b92915050565b6000604051905090565b600080fd5b600080fd5b60007fffffffff0000000000000000000000000000000000000000000000000000000082169050919050565b62002863816200282c565b81146200286f57600080fd5b50565b600081359050620028838162002858565b92915050565b600060208284031215620028a257620028a162002822565b5b6000620028b28482850162002872565b91505092915050565b60008115159050919050565b620028d281620028bb565b82525050565b6000602082019050620028ef6000830184620028c7565b92915050565b600081519050919050565b600082825260208201905092915050565b60005b838110156200293157808201518184015260208101905062002914565b60008484015250505050565b6000601f19601f8301169050919050565b60006200295b82620028f5565b62002967818562002900565b93506200297981856020860162002911565b62002984816200293d565b840191505092915050565b60006020820190508181036000830152620029ab81846200294e565b905092915050565b620029be8162002759565b8114620029ca57600080fd5b50565b600081359050620029de81620029b3565b92915050565b600060208284031215620029fd57620029fc62002822565b5b600062002a0d84828501620029cd565b91505092915050565b600073ffffffffffffffffffffffffffffffffffffffff82169050919050565b600062002a438262002a16565b9050919050565b62002a558162002a36565b82525050565b600060208201905062002a72600083018462002a4a565b92915050565b62002a838162002a36565b811462002a8f57600080fd5b50565b60008135905062002aa38162002a78565b92915050565b6000806040838503121562002ac35762002ac262002822565b5b600062002ad38582860162002a92565b925050602062002ae685828601620029cd565b9150509250929050565b6000819050919050565b600062002b1b62002b1562002b0f8462002a16565b62002af0565b62002a16565b9050919050565b600062002b2f8262002afa565b9050919050565b600062002b438262002b22565b9050919050565b62002b558162002b36565b82525050565b600060208201905062002b72600083018462002b4a565b92915050565b60008060006060848603121562002b945762002b9362002822565b5b600062002ba48682870162002a92565b935050602062002bb78682870162002a92565b925050604062002bca86828701620029cd565b9150509250925092565b600080fd5b600080fd5b7f4e487b7100000000000000000000000000000000000000000000000000000000600052604160045260246000fd5b62002c18826200293d565b810181811067ffffffffffffffff8211171562002c3a5762002c3962002bde565b5b80604052505050565b600062002c4f62002818565b905062002c5d828262002c0d565b919050565b600067ffffffffffffffff82111562002c805762002c7f62002bde565b5b62002c8b826200293d565b9050602081019050919050565b82818337600083830152505050565b600062002cbe62002cb88462002c62565b62002c43565b90508281526020810184848401111562002cdd5762002cdc62002bd9565b5b62002cea84828562002c98565b509392505050565b600082601f83011262002d0a5762002d0962002bd4565b5b813562002d1c84826020860162002ca7565b91505092915050565b60008060006060848603121562002d415762002d4062002822565b5b600084013567ffffffffffffffff81111562002d625762002d6162002827565b5b62002d708682870162002cf2565b935050602084013567ffffffffffffffff81111562002d945762002d9362002827565b5b62002da28682870162002cf2565b925050604062002db586828701620029cd565b9150509250925092565b62002dca8162002759565b82525050565b600060208201905062002de7600083018462002dbf565b92915050565b6000806040838503121562002e075762002e0662002822565b5b600062002e1785828601620029cd565b925050602062002e2a85828601620029cd565b9150509250929050565b60006020828403121562002e4d5762002e4c62002822565b5b600062002e5d8482850162002a92565b91505092915050565b62002e7181620028bb565b811462002e7d57600080fd5b50565b60008135905062002e918162002e66565b92915050565b6000806040838503121562002eb15762002eb062002822565b5b600062002ec18582860162002a92565b925050602062002ed48582860162002e80565b9150509250929050565b600067ffffffffffffffff82111562002efc5762002efb62002bde565b5b62002f07826200293d565b9050602081019050919050565b600062002f2b62002f258462002ede565b62002c43565b90508281526020810184848401111562002f4a5762002f4962002bd9565b5b62002f5784828562002c98565b509392505050565b600082601f83011262002f775762002f7662002bd4565b5b813562002f8984826020860162002f14565b91505092915050565b6000806000806080858703121562002faf5762002fae62002822565b5b600062002fbf8782880162002a92565b945050602062002fd28782880162002a92565b935050604062002fe587828801620029cd565b925050606085013567ffffffffffffffff81111562003009576200300862002827565b5b620030178782880162002f5f565b91505092959194509250565b600060a08201905081810360008301526200303f81886200294e565b905062003050602083018762002dbf565b6200305f604083018662002dbf565b6200306e606083018562002dbf565b6200307d608083018462002dbf565b9695505050505050565b60008060408385031215620030a157620030a062002822565b5b6000620030b18582860162002a92565b9250506020620030c48582860162002a92565b9150509250929050565b7f4e487b7100000000000000000000000000000000000000000000000000000000600052602260045260246000fd5b600060028204905060018216806200311657607f821691505b6020821081036200312c576200312b620030ce565b5b50919050565b600060608201905062003149600083018662002a4a565b62003158602083018562002dbf565b62003167604083018462002a4a565b949350505050565b60006200317c8262002a16565b9050919050565b6200318e816200316f565b82525050565b6000608082019050620031ab600083018762003183565b8181036020830152620031bf81866200294e565b90508181036040830152620031d581856200294e565b9050620031e6606083018462002dbf565b95945050505050565b6000620031fc8262002759565b91507fffffffffffffffffffffffffffffffffffffffffffffffffffffffffffffffff820362003231576200323062002763565b5b600182019050919050565b7f496e76616c69642070726f6a6563742049440000000000000000000000000000600082015250565b60006200327460128362002900565b915062003281826200323c565b602082019050919050565b60006020820190508181036000830152620032a78162003265565b9050919050565b7f496e73756666696369656e7420766f74696e6720746f6b656e73000000000000600082015250565b6000620032e6601a8362002900565b9150620032f382620032ae565b602082019050919050565b600060208201905081810360008301526200331981620032d7565b9050919050565b60006200332d8262002759565b91506200333a8362002759565b925082820390508181111562003355576200335462002763565b5b92915050565b6000620033726200336c8462002c62565b62002c43565b90508281526020810184848401111562003391576200339062002bd9565b5b6200339e84828562002911565b509392505050565b600082601f830112620033be57620033bd62002bd4565b5b8151620033d08482602086016200335b565b91505092915050565b600060208284031215620033f257620033f162002822565b5b600082015167ffffffffffffffff81111562003413576200341262002827565b5b6200342184828501620033a6565b91505092915050565b6000815190506200343b81620029b3565b92915050565b6000602082840312156200345a576200345962002822565b5b60006200346a848285016200342a565b91505092915050565b600881106200348157600080fd5b50565b600081519050620034958162003473565b92915050565b600060208284031215620034b457620034b362002822565b5b6000620034c48482850162003484565b91505092915050565b7f4e487b7100000000000000000000000000000000000000000000000000000000600052602160045260246000fd5b600081905092915050565b60006200351482620028f5565b620035208185620034fc565b93506200353281856020860162002911565b80840191505092915050565b60006200354c828562003507565b91506200355a828462003507565b91508190509392505050565b7f50726f6a656374206e6f742066756e6465642079657400000000000000000000600082015250565b60006200359e60168362002900565b9150620035ab8262003566565b602082019050919050565b60006020820190508181036000830152620035d1816200358f565b9050919050565b7f4e465420616c7265616479207265636569766564000000000000000000000000600082015250565b60006200361060148362002900565b91506200361d82620035d8565b602082019050919050565b60006020820190508181036000830152620036438162003601565b9050919050565b7f646174613a6170706c69636174696f6e2f6a736f6e2c00000000000000000000600082015250565b600062003682601683620034fc565b91506200368f826200364a565b601682019050919050565b7f7b226e616d65223a22446f6e6174696f6e204e4654222c22646573637269707460008201527f696f6e223a22202b2070726f6a656374735b5f70726f6a65637449645d2e707260208201527f6f6a6563744465736372697074696f6e2829202b200000000000000000000000604082015250565b60006200371e605583620034fc565b91506200372b826200369a565b605582019050919050565b6000819050919050565b620037556200374f8262002759565b62003736565b82525050565b7f2045544820746f2074686520636f6e74726163742e227d000000000000000000600082015250565b600062003793601783620034fc565b9150620037a0826200375b565b601782019050919050565b6000620037b88262003673565b9150620037c5826200370f565b9150620037d3828462003740565b602082019150620037e48262003784565b915081905092915050565b600081519050919050565b600082825260208201905092915050565b60006200381882620037ef565b620038248185620037fa565b93506200383681856020860162002911565b62003841816200293d565b840191505092915050565b600060808201905062003863600083018762002a4a565b62003872602083018662002a4a565b62003881604083018562002dbf565b81810360608301526200389581846200380b565b905095945050505050565b600081519050620038b18162002858565b92915050565b600060208284031215620038d057620038cf62002822565b5b6000620038e084828501620038a0565b91505092915050565b60008190508160005260206000209050919050565b60006020601f8301049050919050565b600082821b905092915050565b6000600883026200394d7fffffffffffffffffffffffffffffffffffffffffffffffffffffffffffffffff826200390e565b6200395986836200390e565b95508019841693508086168417925050509392505050565b6000620039926200398c620039868462002759565b62002af0565b62002759565b9050919050565b6000819050919050565b620039ae8362003971565b620039c6620039bd8262003999565b8484546200391b565b825550505050565b600090565b620039dd620039ce565b620039ea818484620039a3565b505050565b5b8181101562003a125762003a06600082620039d3565b600181019050620039f0565b5050565b601f82111562003a615762003a2b81620038e9565b62003a3684620038fe565b8101602085101562003a46578190505b62003a5e62003a5585620038fe565b830182620039ef565b50505b505050565b600082821c905092915050565b600062003a866000198460080262003a66565b1980831691505092915050565b600062003aa1838362003a73565b9150826002028217905092915050565b62003abc82620028f5565b67ffffffffffffffff81111562003ad85762003ad762002bde565b5b62003ae48254620030fd565b62003af182828562003a16565b600060209050601f83116001811462003b29576000841562003b14578287015190505b62003b20858262003a93565b86555062003b90565b601f19841662003b3986620038e9565b60005b8281101562003b635784890151825560018201915060208501945060208101905062003b3c565b8683101562003b83578489015162003b7f601f89168262003a73565b8355505b6001600288020188555050505b505050505050565b600060408201905062003baf600083018562002a4a565b62003bbe602083018462002dbf565b9392505050565b7f4e487b7100000000000000000000000000000000000000000000000000000000600052601260045260246000fdfe60806040523480156200001157600080fd5b5060405162001982380380620019828339818101604052810190620000379190620002e7565b836000806101000a81548173ffffffffffffffffffffffffffffffffffffffff021916908373ffffffffffffffffffffffffffffffffffffffff1602179055508260019081620000889190620005d8565b5081600290816200009a9190620005d8565b5080600381905550600060048190555050505050620006bf565b6000604051905090565b600080fd5b600080fd5b600073ffffffffffffffffffffffffffffffffffffffff82169050919050565b6000620000f582620000c8565b9050919050565b6200010781620000e8565b81146200011357600080fd5b50565b6000815190506200012781620000fc565b92915050565b600080fd5b600080fd5b6000601f19601f8301169050919050565b7f4e487b7100000000000000000000000000000000000000000000000000000000600052604160045260246000fd5b620001828262000137565b810181811067ffffffffffffffff82111715620001a457620001a362000148565b5b80604052505050565b6000620001b9620000b4565b9050620001c7828262000177565b919050565b600067ffffffffffffffff821115620001ea57620001e962000148565b5b620001f58262000137565b9050602081019050919050565b60005b838110156200022257808201518184015260208101905062000205565b60008484015250505050565b6000620002456200023f84620001cc565b620001ad565b90508281526020810184848401111562000264576200026362000132565b5b6200027184828562000202565b509392505050565b600082601f8301126200029157620002906200012d565b5b8151620002a38482602086016200022e565b91505092915050565b6000819050919050565b620002c181620002ac565b8114620002cd57600080fd5b50565b600081519050620002e181620002b6565b92915050565b60008060008060808587031215620003045762000303620000be565b5b6000620003148782880162000116565b945050602085015167ffffffffffffffff811115620003385762000337620000c3565b5b620003468782880162000279565b935050604085015167ffffffffffffffff8111156200036a5762000369620000c3565b5b620003788782880162000279565b92505060606200038b87828801620002d0565b91505092959194509250565b600081519050919050565b7f4e487b7100000000000000000000000000000000000000000000000000000000600052602260045260246000fd5b60006002820490506001821680620003ea57607f821691505b6020821081036200040057620003ff620003a2565b5b50919050565b60008190508160005260206000209050919050565b60006020601f8301049050919050565b600082821b905092915050565b6000600883026200046a7fffffffffffffffffffffffffffffffffffffffffffffffffffffffffffffffff826200042b565b6200047686836200042b565b95508019841693508086168417925050509392505050565b6000819050919050565b6000620004b9620004b3620004ad84620002ac565b6200048e565b620002ac565b9050919050565b6000819050919050565b620004d58362000498565b620004ed620004e482620004c0565b84845462000438565b825550505050565b600090565b62000504620004f5565b62000511818484620004ca565b505050565b5b8181101562000539576200052d600082620004fa565b60018101905062000517565b5050565b601f8211156200058857620005528162000406565b6200055d846200041b565b810160208510156200056d578190505b620005856200057c856200041b565b83018262000516565b50505b505050565b600082821c905092915050565b6000620005ad600019846008026200058d565b1980831691505092915050565b6000620005c883836200059a565b9150826002028217905092915050565b620005e38262000397565b67ffffffffffffffff811115620005ff57620005fe62000148565b5b6200060b8254620003d1565b620006188282856200053d565b600060209050601f8311600181146200065057600084156200063b578287015190505b620006478582620005ba565b865550620006b7565b601f198416620006608662000406565b60005b828110156200068a5784890151825560018201915060208501945060208101905062000663565b86831015620006aa5784890151620006a6601f8916826200059a565b8355505b6001600288020188555050505b505050505050565b6112b380620006cf6000396000f3fe608060405234801561001057600080fd5b50600436106100ea5760003560e01c8063a4475ce41161008c578063c3e20c9f11610066578063c3e20c9f146101ef578063c7656f6e1461020d578063d8bff5a514610217578063e612041314610247576100ea565b8063a4475ce4146101a9578063c19d93fb146101c7578063c3966409146101e5576100ea565b80631ec6b60a116100c85780631ec6b60a146101595780633c68eb8114610163578063755f047b1461016d5780637a3a0e841461018b576100ea565b80630121b93f146100ef5780630888b70d1461010b5780631479197f14610129575b600080fd5b610109600480360381019061010491906108a8565b610263565b005b61011361031a565b60405161012091906108e4565b60405180910390f35b610143600480360381019061013e919061095d565b610320565b60405161015091906108e4565b60405180910390f35b610161610369565b005b61016b6103eb565b005b61017561049d565b6040516101829190610a1a565b60405180910390f35b61019361052b565b6040516101a091906108e4565b60405180910390f35b6101b1610531565b6040516101be9190610a5d565b60405180910390f35b6101cf610555565b6040516101dc9190610aef565b60405180910390f35b6101ed610568565b005b6101f76105ea565b6040516102049190610a1a565b60405180910390f35b610215610678565b005b610231600480360381019061022c919061095d565b610741565b60405161023e91906108e4565b60405180910390f35b610261600480360381019061025c9190610c3f565b610759565b005b80600560003373ffffffffffffffffffffffffffffffffffffffff1673ffffffffffffffffffffffffffffffffffffffff16815260200190815260200160002060008282546102b29190610cb7565b9250508190555080600460008282546102cb9190610cb7565b9250508190555060035460045410610317577fbdf8e8154212732e32053db049accdd4ff27639d7028ecf127e2353161b994bf60045460405161030e91906108e4565b60405180910390a15b50565b60045481565b6000600560008373ffffffffffffffffffffffffffffffffffffffff1673ffffffffffffffffffffffffffffffffffffffff168152602001908152602001600020549050919050565b6002600781111561037d5761037c610a78565b5b600660009054906101000a900460ff16600781111561039f5761039e610a78565b5b036103df576040517f08c379a00000000000000000000000000000000000000000000000000000000081526004016103d690610d5d565b60405180910390fd5b6103e960026107fa565b565b6003546004541015610432576040517f08c379a000000000000000000000000000000000000000000000000000000000815260040161042990610dc9565b60405180910390fd5b60008054906101000a900473ffffffffffffffffffffffffffffffffffffffff1673ffffffffffffffffffffffffffffffffffffffff166108fc6004549081150290604051600060405180830381858888f1935050505015801561049a573d6000803e3d6000fd5b50565b600280546104aa90610e18565b80601f01602080910402602001604051908101604052809291908181526020018280546104d690610e18565b80156105235780601f106104f857610100808354040283529160200191610523565b820191906000526020600020905b81548152906001019060200180831161050657829003601f168201915b505050505081565b60035481565b60008054906101000a900473ffffffffffffffffffffffffffffffffffffffff1681565b600660009054906101000a900460ff1681565b6004600781111561057c5761057b610a78565b5b600660009054906101000a900460ff16600781111561059e5761059d610a78565b5b146105de576040517f08c379a00000000000000000000000000000000000000000000000000000000081526004016105d590610ebb565b60405180910390fd5b6105e860056107fa565b565b600180546105f790610e18565b80601f016020809104026020016040519081016040528092919081815260200182805461062390610e18565b80156106705780601f1061064557610100808354040283529160200191610670565b820191906000526020600020905b81548152906001019060200180831161065357829003601f168201915b505050505081565b6002600781111561068c5761068b610a78565b5b600660009054906101000a900460ff1660078111156106ae576106ad610a78565b5b146106ee576040517f08c379a00000000000000000000000000000000000000000000000000000000081526004016106e590610f4d565b60405180910390fd5b6003546004541015610735576040517f08c379a000000000000000000000000000000000000000000000000000000000815260040161072c90610dc9565b60405180910390fd5b61073f60046107fa565b565b60056020528060005260406000206000915090505481565b60008054906101000a900473ffffffffffffffffffffffffffffffffffffffff1673ffffffffffffffffffffffffffffffffffffffff163373ffffffffffffffffffffffffffffffffffffffff16146107e7576040517f08c379a00000000000000000000000000000000000000000000000000000000081526004016107de90610fdf565b60405180910390fd5b80600290816107f691906111ab565b5050565b80600660006101000a81548160ff0219169083600781111561081f5761081e610a78565b5b02179055507f551dc40198cc79684bb69e4931dba4ac16e4598792ee1c0a5000aeea366d7bb6816040516108539190610aef565b60405180910390a150565b6000604051905090565b600080fd5b600080fd5b6000819050919050565b61088581610872565b811461089057600080fd5b50565b6000813590506108a28161087c565b92915050565b6000602082840312156108be576108bd610868565b5b60006108cc84828501610893565b91505092915050565b6108de81610872565b82525050565b60006020820190506108f960008301846108d5565b92915050565b600073ffffffffffffffffffffffffffffffffffffffff82169050919050565b600061092a826108ff565b9050919050565b61093a8161091f565b811461094557600080fd5b50565b60008135905061095781610931565b92915050565b60006020828403121561097357610972610868565b5b600061098184828501610948565b91505092915050565b600081519050919050565b600082825260208201905092915050565b60005b838110156109c45780820151818401526020810190506109a9565b60008484015250505050565b6000601f19601f8301169050919050565b60006109ec8261098a565b6109f68185610995565b9350610a068185602086016109a6565b610a0f816109d0565b840191505092915050565b60006020820190508181036000830152610a3481846109e1565b905092915050565b6000610a47826108ff565b9050919050565b610a5781610a3c565b82525050565b6000602082019050610a726000830184610a4e565b92915050565b7f4e487b7100000000000000000000000000000000000000000000000000000000600052602160045260246000fd5b60088110610ab857610ab7610a78565b5b50565b6000819050610ac982610aa7565b919050565b6000610ad982610abb565b9050919050565b610ae981610ace565b82525050565b6000602082019050610b046000830184610ae0565b92915050565b600080fd5b600080fd5b7f4e487b7100000000000000000000000000000000000000000000000000000000600052604160045260246000fd5b610b4c826109d0565b810181811067ffffffffffffffff82111715610b6b57610b6a610b14565b5b80604052505050565b6000610b7e61085e565b9050610b8a8282610b43565b919050565b600067ffffffffffffffff821115610baa57610ba9610b14565b5b610bb3826109d0565b9050602081019050919050565b82818337600083830152505050565b6000610be2610bdd84610b8f565b610b74565b905082815260208101848484011115610bfe57610bfd610b0f565b5b610c09848285610bc0565b509392505050565b600082601f830112610c2657610c25610b0a565b5b8135610c36848260208601610bcf565b91505092915050565b600060208284031215610c5557610c54610868565b5b600082013567ffffffffffffffff811115610c7357610c7261086d565b5b610c7f84828501610c11565b91505092915050565b7f4e487b7100000000000000000000000000000000000000000000000000000000600052601160045260246000fd5b6000610cc282610872565b9150610ccd83610872565b9250828201905080821115610ce557610ce4610c88565b5b92915050565b7f50726f6a65637420697320616c726561647920696e20766f74696e672073746160008201527f7465000000000000000000000000000000000000000000000000000000000000602082015250565b6000610d47602283610995565b9150610d5282610ceb565b604082019050919050565b60006020820190508181036000830152610d7681610d3a565b9050919050565b7f46756e64696e6720676f616c206e6f7420726561636865640000000000000000600082015250565b6000610db3601883610995565b9150610dbe82610d7d565b602082019050919050565b60006020820190508181036000830152610de281610da6565b9050919050565b7f4e487b7100000000000000000000000000000000000000000000000000000000600052602260045260246000fd5b60006002820490506001821680610e3057607f821691505b602082108103610e4357610e42610de9565b5b50919050565b7f50726f6a656374206973206e6f7420696e20746865205374617274656420737460008201527f6174650000000000000000000000000000000000000000000000000000000000602082015250565b6000610ea5602383610995565b9150610eb082610e49565b604082019050919050565b60006020820190508181036000830152610ed481610e98565b9050919050565b7f50726f6a656374206973206e6f7420696e2074686520566f74696e672073746160008201527f7465000000000000000000000000000000000000000000000000000000000000602082015250565b6000610f37602283610995565b9150610f4282610edb565b604082019050919050565b60006020820190508181036000830152610f6681610f2a565b9050919050565b7f4f6e6c792070726f6a656374206f776e65722063616e2063616c6c207468697360008201527f2066756e6374696f6e0000000000000000000000000000000000000000000000602082015250565b6000610fc9602983610995565b9150610fd482610f6d565b604082019050919050565b60006020820190508181036000830152610ff881610fbc565b9050919050565b60008190508160005260206000209050919050565b60006020601f8301049050919050565b600082821b905092915050565b6000600883026110617fffffffffffffffffffffffffffffffffffffffffffffffffffffffffffffffff82611024565b61106b8683611024565b95508019841693508086168417925050509392505050565b6000819050919050565b60006110a86110a361109e84610872565b611083565b610872565b9050919050565b6000819050919050565b6110c28361108d565b6110d66110ce826110af565b848454611031565b825550505050565b600090565b6110eb6110de565b6110f68184846110b9565b505050565b5b8181101561111a5761110f6000826110e3565b6001810190506110fc565b5050565b601f82111561115f5761113081610fff565b61113984611014565b81016020851015611148578190505b61115c61115485611014565b8301826110fb565b50505b505050565b600082821c905092915050565b600061118260001984600802611164565b1980831691505092915050565b600061119b8383611171565b9150826002028217905092915050565b6111b48261098a565b67ffffffffffffffff8111156111cd576111cc610b14565b5b6111d78254610e18565b6111e282828561111e565b600060209050601f8311600181146112155760008415611203578287015190505b61120d858261118f565b865550611275565b601f19841661122386610fff565b60005b8281101561124b57848901518255600182019150602085019450602081019050611226565b868310156112685784890151611264601f891682611171565b8355505b6001600288020188555050505b50505050505056fea2646970667358221220813707f7b8267f6278211a40367e5d60bdf175628fcde4cd7d3dffcc2e6d5efe64736f6c63430008180033a26469706673582212208c78ae152e12e5cba5d0dee455c5cc879fef8e9783ac3f7169932475c093224764736f6c63430008180033","opcodes":"PUSH1 0x80 PUSH1 0x40 MSTORE PUSH1 0x1 PUSH1 0xB SSTORE CALLVALUE DUP1 ISZERO PUSH3 0x16 JUMPI PUSH1 0x0 DUP1 REVERT JUMPDEST POP PUSH1 0x40 MLOAD DUP1 PUSH1 0x40 ADD PUSH1 0x40 MSTORE DUP1 PUSH1 0xB DUP2 MSTORE PUSH1 0x20 ADD PUSH32 0x446F6E6174696F6E4E4654000000000000000000000000000000000000000000 DUP2 MSTORE POP PUSH1 0x40 MLOAD DUP1 PUSH1 0x40 ADD PUSH1 0x40 MSTORE DUP1 PUSH1 0x4 DUP2 MSTORE PUSH1 0x20 ADD PUSH32 0x444E465400000000000000000000000000000000000000000000000000000000 DUP2 MSTORE POP DUP2 PUSH1 0x0 SWAP1 DUP2 PUSH3 0x94 SWAP2 SWAP1 PUSH3 0x331 JUMP JUMPDEST POP DUP1 PUSH1 0x1 SWAP1 DUP2 PUSH3 0xA6 SWAP2 SWAP1 PUSH3 0x331 JUMP JUMPDEST POP POP POP PUSH1 0x0 PUSH1 0xC DUP2 SWAP1 SSTORE POP PUSH3 0x418 JUMP JUMPDEST PUSH1 0x0 DUP2 MLOAD SWAP1 POP SWAP2 SWAP1 POP JUMP JUMPDEST PUSH32 0x4E487B7100000000000000000000000000000000000000000000000000000000 PUSH1 0x0 MSTORE PUSH1 0x41 PUSH1 0x4 MSTORE PUSH1 0x24 PUSH1 0x0 REVERT JUMPDEST PUSH32 0x4E487B7100000000000000000000000000000000000000000000000000000000 PUSH1 0x0 MSTORE PUSH1 0x22 PUSH1 0x4 MSTORE PUSH1 0x24 PUSH1 0x0 REVERT JUMPDEST PUSH1 0x0 PUSH1 0x2 DUP3 DIV SWAP1 POP PUSH1 0x1 DUP3 AND DUP1 PUSH3 0x139 JUMPI PUSH1 0x7F DUP3 AND SWAP2 POP JUMPDEST PUSH1 0x20 DUP3 LT DUP2 SUB PUSH3 0x14F JUMPI PUSH3 0x14E PUSH3 0xF1 JUMP JUMPDEST JUMPDEST POP SWAP2 SWAP1 POP JUMP JUMPDEST PUSH1 0x0 DUP2 SWAP1 POP DUP2 PUSH1 0x0 MSTORE PUSH1 0x20 PUSH1 0x0 KECCAK256 SWAP1 POP SWAP2 SWAP1 POP JUMP JUMPDEST PUSH1 0x0 PUSH1 0x20 PUSH1 0x1F DUP4 ADD DIV SWAP1 POP SWAP2 SWAP1 POP JUMP JUMPDEST PUSH1 0x0 DUP3 DUP3 SHL SWAP1 POP SWAP3 SWAP2 POP POP JUMP JUMPDEST PUSH1 0x0 PUSH1 0x8 DUP4 MUL PUSH3 0x1B9 PUSH32 0xFFFFFFFFFFFFFFFFFFFFFFFFFFFFFFFFFFFFFFFFFFFFFFFFFFFFFFFFFFFFFFFF DUP3 PUSH3 0x17A JUMP JUMPDEST PUSH3 0x1C5 DUP7 DUP4 PUSH3 0x17A JUMP JUMPDEST SWAP6 POP DUP1 NOT DUP5 AND SWAP4 POP DUP1 DUP7 AND DUP5 OR SWAP3 POP POP POP SWAP4 SWAP3 POP POP POP JUMP JUMPDEST PUSH1 0x0 DUP2 SWAP1 POP SWAP2 SWAP1 POP JUMP JUMPDEST PUSH1 0x0 DUP2 SWAP1 POP SWAP2 SWAP1 POP JUMP JUMPDEST PUSH1 0x0 PUSH3 0x212 PUSH3 0x20C PUSH3 0x206 DUP5 PUSH3 0x1DD JUMP JUMPDEST PUSH3 0x1E7 JUMP JUMPDEST PUSH3 0x1DD JUMP JUMPDEST SWAP1 POP SWAP2 SWAP1 POP JUMP JUMPDEST PUSH1 0x0 DUP2 SWAP1 POP SWAP2 SWAP1 POP JUMP JUMPDEST PUSH3 0x22E DUP4 PUSH3 0x1F1 JUMP JUMPDEST PUSH3 0x246 PUSH3 0x23D DUP3 PUSH3 0x219 JUMP JUMPDEST DUP5 DUP5 SLOAD PUSH3 0x187 JUMP JUMPDEST DUP3 SSTORE POP POP POP POP JUMP JUMPDEST PUSH1 0x0 SWAP1 JUMP JUMPDEST PUSH3 0x25D PUSH3 0x24E JUMP JUMPDEST PUSH3 0x26A DUP2 DUP5 DUP5 PUSH3 0x223 JUMP JUMPDEST POP POP POP JUMP JUMPDEST JUMPDEST DUP2 DUP2 LT ISZERO PUSH3 0x292 JUMPI PUSH3 0x286 PUSH1 0x0 DUP3 PUSH3 0x253 JUMP JUMPDEST PUSH1 0x1 DUP2 ADD SWAP1 POP PUSH3 0x270 JUMP JUMPDEST POP POP JUMP JUMPDEST PUSH1 0x1F DUP3 GT ISZERO PUSH3 0x2E1 JUMPI PUSH3 0x2AB DUP2 PUSH3 0x155 JUMP JUMPDEST PUSH3 0x2B6 DUP5 PUSH3 0x16A JUMP JUMPDEST DUP2 ADD PUSH1 0x20 DUP6 LT ISZERO PUSH3 0x2C6 JUMPI DUP2 SWAP1 POP JUMPDEST PUSH3 0x2DE PUSH3 0x2D5 DUP6 PUSH3 0x16A JUMP JUMPDEST DUP4 ADD DUP3 PUSH3 0x26F JUMP JUMPDEST POP POP JUMPDEST POP POP POP JUMP JUMPDEST PUSH1 0x0 DUP3 DUP3 SHR SWAP1 POP SWAP3 SWAP2 POP POP JUMP JUMPDEST PUSH1 0x0 PUSH3 0x306 PUSH1 0x0 NOT DUP5 PUSH1 0x8 MUL PUSH3 0x2E6 JUMP JUMPDEST NOT DUP1 DUP4 AND SWAP2 POP POP SWAP3 SWAP2 POP POP JUMP JUMPDEST PUSH1 0x0 PUSH3 0x321 DUP4 DUP4 PUSH3 0x2F3 JUMP JUMPDEST SWAP2 POP DUP3 PUSH1 0x2 MUL DUP3 OR SWAP1 POP SWAP3 SWAP2 POP POP JUMP JUMPDEST PUSH3 0x33C DUP3 PUSH3 0xB7 JUMP JUMPDEST PUSH8 0xFFFFFFFFFFFFFFFF DUP2 GT ISZERO PUSH3 0x358 JUMPI PUSH3 0x357 PUSH3 0xC2 JUMP JUMPDEST JUMPDEST PUSH3 0x364 DUP3 SLOAD PUSH3 0x120 JUMP JUMPDEST PUSH3 0x371 DUP3 DUP3 DUP6 PUSH3 0x296 JUMP JUMPDEST PUSH1 0x0 PUSH1 0x20 SWAP1 POP PUSH1 0x1F DUP4 GT PUSH1 0x1 DUP2 EQ PUSH3 0x3A9 JUMPI PUSH1 0x0 DUP5 ISZERO PUSH3 0x394 JUMPI DUP3 DUP8 ADD MLOAD SWAP1 POP JUMPDEST PUSH3 0x3A0 DUP6 DUP3 PUSH3 0x313 JUMP JUMPDEST DUP7 SSTORE POP PUSH3 0x410 JUMP JUMPDEST PUSH1 0x1F NOT DUP5 AND PUSH3 0x3B9 DUP7 PUSH3 0x155 JUMP JUMPDEST PUSH1 0x0 JUMPDEST DUP3 DUP2 LT ISZERO PUSH3 0x3E3 JUMPI DUP5 DUP10 ADD MLOAD DUP3 SSTORE PUSH1 0x1 DUP3 ADD SWAP2 POP PUSH1 0x20 DUP6 ADD SWAP5 POP PUSH1 0x20 DUP2 ADD SWAP1 POP PUSH3 0x3BC JUMP JUMPDEST DUP7 DUP4 LT ISZERO PUSH3 0x403 JUMPI DUP5 DUP10 ADD MLOAD PUSH3 0x3FF PUSH1 0x1F DUP10 AND DUP3 PUSH3 0x2F3 JUMP JUMPDEST DUP4 SSTORE POP JUMPDEST PUSH1 0x1 PUSH1 0x2 DUP9 MUL ADD DUP9 SSTORE POP POP POP JUMPDEST POP POP POP POP POP POP JUMP JUMPDEST PUSH2 0x55AC DUP1 PUSH3 0x428 PUSH1 0x0 CODECOPY PUSH1 0x0 RETURN INVALID PUSH1 0x80 PUSH1 0x40 MSTORE PUSH1 0x4 CALLDATASIZE LT PUSH3 0x163 JUMPI PUSH1 0x0 CALLDATALOAD PUSH1 0xE0 SHR DUP1 PUSH4 0x6352211E GT PUSH3 0xC7 JUMPI DUP1 PUSH4 0xC86C6F0D GT PUSH3 0x79 JUMPI DUP1 PUSH4 0xC86C6F0D EQ PUSH3 0x586 JUMPI DUP1 PUSH4 0xC87B56DD EQ PUSH3 0x5CE JUMPI DUP1 PUSH4 0xCFA28F63 EQ PUSH3 0x612 JUMPI DUP1 PUSH4 0xE0C22F05 EQ PUSH3 0x642 JUMPI DUP1 PUSH4 0xE985E9C5 EQ PUSH3 0x670 JUMPI DUP1 PUSH4 0xECA964E3 EQ PUSH3 0x6B4 JUMPI PUSH3 0x1D1 JUMP JUMPDEST DUP1 PUSH4 0x6352211E EQ PUSH3 0x442 JUMPI DUP1 PUSH4 0x70A08231 EQ PUSH3 0x486 JUMPI DUP1 PUSH4 0x95D89B41 EQ PUSH3 0x4CA JUMPI DUP1 PUSH4 0xA22CB465 EQ PUSH3 0x4FA JUMPI DUP1 PUSH4 0xB88D4FDE EQ PUSH3 0x528 JUMPI DUP1 PUSH4 0xBA3F5A12 EQ PUSH3 0x556 JUMPI PUSH3 0x1D1 JUMP JUMPDEST DUP1 PUSH4 0x23B872DD GT PUSH3 0x121 JUMPI DUP1 PUSH4 0x23B872DD EQ PUSH3 0x300 JUMPI DUP1 PUSH4 0x23C55448 EQ PUSH3 0x32E JUMPI DUP1 PUSH4 0x30CE6B0B EQ PUSH3 0x372 JUMPI DUP1 PUSH4 0x36FBAD26 EQ PUSH3 0x3A0 JUMPI DUP1 PUSH4 0x42842E0E EQ PUSH3 0x3D0 JUMPI DUP1 PUSH4 0x5E8F07FB EQ PUSH3 0x3FE JUMPI PUSH3 0x1D1 JUMP JUMPDEST DUP1 PUSH4 0x1FFC9A7 EQ PUSH3 0x1D6 JUMPI DUP1 PUSH4 0x6FDDE03 EQ PUSH3 0x21A JUMPI DUP1 PUSH4 0x81812FC EQ PUSH3 0x24A JUMPI DUP1 PUSH4 0x95EA7B3 EQ PUSH3 0x28E JUMPI DUP1 PUSH4 0x107046BD EQ PUSH3 0x2BC JUMPI PUSH3 0x1D1 JUMP JUMPDEST CALLDATASIZE PUSH3 0x1D1 JUMPI PUSH1 0xB SLOAD CALLVALUE PUSH3 0x179 SWAP2 SWAP1 PUSH3 0x2792 JUMP JUMPDEST PUSH1 0x7 PUSH1 0x0 CALLER PUSH20 0xFFFFFFFFFFFFFFFFFFFFFFFFFFFFFFFFFFFFFFFF AND PUSH20 0xFFFFFFFFFFFFFFFFFFFFFFFFFFFFFFFFFFFFFFFF AND DUP2 MSTORE PUSH1 0x20 ADD SWAP1 DUP2 MSTORE PUSH1 0x20 ADD PUSH1 0x0 KECCAK256 PUSH1 0x0 DUP3 DUP3 SLOAD PUSH3 0x1C9 SWAP2 SWAP1 PUSH3 0x27DD JUMP JUMPDEST SWAP3 POP POP DUP2 SWAP1 SSTORE STOP JUMPDEST PUSH1 0x0 DUP1 REVERT JUMPDEST CALLVALUE DUP1 ISZERO PUSH3 0x1E3 JUMPI PUSH1 0x0 DUP1 REVERT JUMPDEST POP PUSH3 0x202 PUSH1 0x4 DUP1 CALLDATASIZE SUB DUP2 ADD SWAP1 PUSH3 0x1FC SWAP2 SWAP1 PUSH3 0x2889 JUMP JUMPDEST PUSH3 0x6F8 JUMP JUMPDEST PUSH1 0x40 MLOAD PUSH3 0x211 SWAP2 SWAP1 PUSH3 0x28D8 JUMP JUMPDEST PUSH1 0x40 MLOAD DUP1 SWAP2 SUB SWAP1 RETURN JUMPDEST CALLVALUE DUP1 ISZERO PUSH3 0x227 JUMPI PUSH1 0x0 DUP1 REVERT JUMPDEST POP PUSH3 0x232 PUSH3 0x75C JUMP JUMPDEST PUSH1 0x40 MLOAD PUSH3 0x241 SWAP2 SWAP1 PUSH3 0x298F JUMP JUMPDEST PUSH1 0x40 MLOAD DUP1 SWAP2 SUB SWAP1 RETURN JUMPDEST CALLVALUE DUP1 ISZERO PUSH3 0x257 JUMPI PUSH1 0x0 DUP1 REVERT JUMPDEST POP PUSH3 0x276 PUSH1 0x4 DUP1 CALLDATASIZE SUB DUP2 ADD SWAP1 PUSH3 0x270 SWAP2 SWAP1 PUSH3 0x29E4 JUMP JUMPDEST PUSH3 0x7F6 JUMP JUMPDEST PUSH1 0x40 MLOAD PUSH3 0x285 SWAP2 SWAP1 PUSH3 0x2A5B JUMP JUMPDEST PUSH1 0x40 MLOAD DUP1 SWAP2 SUB SWAP1 RETURN JUMPDEST CALLVALUE DUP1 ISZERO PUSH3 0x29B JUMPI PUSH1 0x0 DUP1 REVERT JUMPDEST POP PUSH3 0x2BA PUSH1 0x4 DUP1 CALLDATASIZE SUB DUP2 ADD SWAP1 PUSH3 0x2B4 SWAP2 SWAP1 PUSH3 0x2AA9 JUMP JUMPDEST PUSH3 0x816 JUMP JUMPDEST STOP JUMPDEST CALLVALUE DUP1 ISZERO PUSH3 0x2C9 JUMPI PUSH1 0x0 DUP1 REVERT JUMPDEST POP PUSH3 0x2E8 PUSH1 0x4 DUP1 CALLDATASIZE SUB DUP2 ADD SWAP1 PUSH3 0x2E2 SWAP2 SWAP1 PUSH3 0x29E4 JUMP JUMPDEST PUSH3 0x830 JUMP JUMPDEST PUSH1 0x40 MLOAD PUSH3 0x2F7 SWAP2 SWAP1 PUSH3 0x2B5B JUMP JUMPDEST PUSH1 0x40 MLOAD DUP1 SWAP2 SUB SWAP1 RETURN JUMPDEST CALLVALUE DUP1 ISZERO PUSH3 0x30D JUMPI PUSH1 0x0 DUP1 REVERT JUMPDEST POP PUSH3 0x32C PUSH1 0x4 DUP1 CALLDATASIZE SUB DUP2 ADD SWAP1 PUSH3 0x326 SWAP2 SWAP1 PUSH3 0x2B78 JUMP JUMPDEST PUSH3 0x863 JUMP JUMPDEST STOP JUMPDEST CALLVALUE DUP1 ISZERO PUSH3 0x33B JUMPI PUSH1 0x0 DUP1 REVERT JUMPDEST POP PUSH3 0x35A PUSH1 0x4 DUP1 CALLDATASIZE SUB DUP2 ADD SWAP1 PUSH3 0x354 SWAP2 SWAP1 PUSH3 0x2D25 JUMP JUMPDEST PUSH3 0x96F JUMP JUMPDEST PUSH1 0x40 MLOAD PUSH3 0x369 SWAP2 SWAP1 PUSH3 0x2DD0 JUMP JUMPDEST PUSH1 0x40 MLOAD DUP1 SWAP2 SUB SWAP1 RETURN JUMPDEST CALLVALUE DUP1 ISZERO PUSH3 0x37F JUMPI PUSH1 0x0 DUP1 REVERT JUMPDEST POP PUSH3 0x39E PUSH1 0x4 DUP1 CALLDATASIZE SUB DUP2 ADD SWAP1 PUSH3 0x398 SWAP2 SWAP1 PUSH3 0x2DED JUMP JUMPDEST PUSH3 0xA34 JUMP JUMPDEST STOP JUMPDEST CALLVALUE DUP1 ISZERO PUSH3 0x3AD JUMPI PUSH1 0x0 DUP1 REVERT JUMPDEST POP PUSH3 0x3B8 PUSH3 0xBFE JUMP JUMPDEST PUSH1 0x40 MLOAD PUSH3 0x3C7 SWAP2 SWAP1 PUSH3 0x2DD0 JUMP JUMPDEST PUSH1 0x40 MLOAD DUP1 SWAP2 SUB SWAP1 RETURN JUMPDEST CALLVALUE DUP1 ISZERO PUSH3 0x3DD JUMPI PUSH1 0x0 DUP1 REVERT JUMPDEST POP PUSH3 0x3FC PUSH1 0x4 DUP1 CALLDATASIZE SUB DUP2 ADD SWAP1 PUSH3 0x3F6 SWAP2 SWAP1 PUSH3 0x2B78 JUMP JUMPDEST PUSH3 0xC04 JUMP JUMPDEST STOP JUMPDEST CALLVALUE DUP1 ISZERO PUSH3 0x40B JUMPI PUSH1 0x0 DUP1 REVERT JUMPDEST POP PUSH3 0x42A PUSH1 0x4 DUP1 CALLDATASIZE SUB DUP2 ADD SWAP1 PUSH3 0x424 SWAP2 SWAP1 PUSH3 0x2E34 JUMP JUMPDEST PUSH3 0xC26 JUMP JUMPDEST PUSH1 0x40 MLOAD PUSH3 0x439 SWAP2 SWAP1 PUSH3 0x28D8 JUMP JUMPDEST PUSH1 0x40 MLOAD DUP1 SWAP2 SUB SWAP1 RETURN JUMPDEST CALLVALUE DUP1 ISZERO PUSH3 0x44F JUMPI PUSH1 0x0 DUP1 REVERT JUMPDEST POP PUSH3 0x46E PUSH1 0x4 DUP1 CALLDATASIZE SUB DUP2 ADD SWAP1 PUSH3 0x468 SWAP2 SWAP1 PUSH3 0x29E4 JUMP JUMPDEST PUSH3 0xC46 JUMP JUMPDEST PUSH1 0x40 MLOAD PUSH3 0x47D SWAP2 SWAP1 PUSH3 0x2A5B JUMP JUMPDEST PUSH1 0x40 MLOAD DUP1 SWAP2 SUB SWAP1 RETURN JUMPDEST CALLVALUE DUP1 ISZERO PUSH3 0x493 JUMPI PUSH1 0x0 DUP1 REVERT JUMPDEST POP PUSH3 0x4B2 PUSH1 0x4 DUP1 CALLDATASIZE SUB DUP2 ADD SWAP1 PUSH3 0x4AC SWAP2 SWAP1 PUSH3 0x2E34 JUMP JUMPDEST PUSH3 0xC5A JUMP JUMPDEST PUSH1 0x40 MLOAD PUSH3 0x4C1 SWAP2 SWAP1 PUSH3 0x2DD0 JUMP JUMPDEST PUSH1 0x40 MLOAD DUP1 SWAP2 SUB SWAP1 RETURN JUMPDEST CALLVALUE DUP1 ISZERO PUSH3 0x4D7 JUMPI PUSH1 0x0 DUP1 REVERT JUMPDEST POP PUSH3 0x4E2 PUSH3 0xD17 JUMP JUMPDEST PUSH1 0x40 MLOAD PUSH3 0x4F1 SWAP2 SWAP1 PUSH3 0x298F JUMP JUMPDEST PUSH1 0x40 MLOAD DUP1 SWAP2 SUB SWAP1 RETURN JUMPDEST CALLVALUE DUP1 ISZERO PUSH3 0x507 JUMPI PUSH1 0x0 DUP1 REVERT JUMPDEST POP PUSH3 0x526 PUSH1 0x4 DUP1 CALLDATASIZE SUB DUP2 ADD SWAP1 PUSH3 0x520 SWAP2 SWAP1 PUSH3 0x2E97 JUMP JUMPDEST PUSH3 0xDB1 JUMP JUMPDEST STOP JUMPDEST CALLVALUE DUP1 ISZERO PUSH3 0x535 JUMPI PUSH1 0x0 DUP1 REVERT JUMPDEST POP PUSH3 0x554 PUSH1 0x4 DUP1 CALLDATASIZE SUB DUP2 ADD SWAP1 PUSH3 0x54E SWAP2 SWAP1 PUSH3 0x2F92 JUMP JUMPDEST PUSH3 0xDCB JUMP JUMPDEST STOP JUMPDEST CALLVALUE DUP1 ISZERO PUSH3 0x563 JUMPI PUSH1 0x0 DUP1 REVERT JUMPDEST POP PUSH3 0x56E PUSH3 0xDEC JUMP JUMPDEST PUSH1 0x40 MLOAD PUSH3 0x57D SWAP2 SWAP1 PUSH3 0x2DD0 JUMP JUMPDEST PUSH1 0x40 MLOAD DUP1 SWAP2 SUB SWAP1 RETURN JUMPDEST CALLVALUE DUP1 ISZERO PUSH3 0x593 JUMPI PUSH1 0x0 DUP1 REVERT JUMPDEST POP PUSH3 0x5B2 PUSH1 0x4 DUP1 CALLDATASIZE SUB DUP2 ADD SWAP1 PUSH3 0x5AC SWAP2 SWAP1 PUSH3 0x29E4 JUMP JUMPDEST PUSH3 0xDF2 JUMP JUMPDEST PUSH1 0x40 MLOAD PUSH3 0x5C5 SWAP6 SWAP5 SWAP4 SWAP3 SWAP2 SWAP1 PUSH3 0x3023 JUMP JUMPDEST PUSH1 0x40 MLOAD DUP1 SWAP2 SUB SWAP1 RETURN JUMPDEST CALLVALUE DUP1 ISZERO PUSH3 0x5DB JUMPI PUSH1 0x0 DUP1 REVERT JUMPDEST POP PUSH3 0x5FA PUSH1 0x4 DUP1 CALLDATASIZE SUB DUP2 ADD SWAP1 PUSH3 0x5F4 SWAP2 SWAP1 PUSH3 0x29E4 JUMP JUMPDEST PUSH3 0x11B4 JUMP JUMPDEST PUSH1 0x40 MLOAD PUSH3 0x609 SWAP2 SWAP1 PUSH3 0x298F JUMP JUMPDEST PUSH1 0x40 MLOAD DUP1 SWAP2 SUB SWAP1 RETURN JUMPDEST CALLVALUE DUP1 ISZERO PUSH3 0x61F JUMPI PUSH1 0x0 DUP1 REVERT JUMPDEST POP PUSH3 0x62A PUSH3 0x12DB JUMP JUMPDEST PUSH1 0x40 MLOAD PUSH3 0x639 SWAP2 SWAP1 PUSH3 0x2DD0 JUMP JUMPDEST PUSH1 0x40 MLOAD DUP1 SWAP2 SUB SWAP1 RETURN JUMPDEST CALLVALUE DUP1 ISZERO PUSH3 0x64F JUMPI PUSH1 0x0 DUP1 REVERT JUMPDEST POP PUSH3 0x66E PUSH1 0x4 DUP1 CALLDATASIZE SUB DUP2 ADD SWAP1 PUSH3 0x668 SWAP2 SWAP1 PUSH3 0x29E4 JUMP JUMPDEST PUSH3 0x1322 JUMP JUMPDEST STOP JUMPDEST CALLVALUE DUP1 ISZERO PUSH3 0x67D JUMPI PUSH1 0x0 DUP1 REVERT JUMPDEST POP PUSH3 0x69C PUSH1 0x4 DUP1 CALLDATASIZE SUB DUP2 ADD SWAP1 PUSH3 0x696 SWAP2 SWAP1 PUSH3 0x3087 JUMP JUMPDEST PUSH3 0x16F8 JUMP JUMPDEST PUSH1 0x40 MLOAD PUSH3 0x6AB SWAP2 SWAP1 PUSH3 0x28D8 JUMP JUMPDEST PUSH1 0x40 MLOAD DUP1 SWAP2 SUB SWAP1 RETURN JUMPDEST CALLVALUE DUP1 ISZERO PUSH3 0x6C1 JUMPI PUSH1 0x0 DUP1 REVERT JUMPDEST POP PUSH3 0x6E0 PUSH1 0x4 DUP1 CALLDATASIZE SUB DUP2 ADD SWAP1 PUSH3 0x6DA SWAP2 SWAP1 PUSH3 0x2E34 JUMP JUMPDEST PUSH3 0x178C JUMP JUMPDEST PUSH1 0x40 MLOAD PUSH3 0x6EF SWAP2 SWAP1 PUSH3 0x2DD0 JUMP JUMPDEST PUSH1 0x40 MLOAD DUP1 SWAP2 SUB SWAP1 RETURN JUMPDEST PUSH1 0x0 PUSH4 0x49064906 PUSH1 0xE0 SHL PUSH28 0xFFFFFFFFFFFFFFFFFFFFFFFFFFFFFFFFFFFFFFFFFFFFFFFFFFFFFFFF NOT AND DUP3 PUSH28 0xFFFFFFFFFFFFFFFFFFFFFFFFFFFFFFFFFFFFFFFFFFFFFFFFFFFFFFFF NOT AND EQ DUP1 PUSH3 0x755 JUMPI POP PUSH3 0x754 DUP3 PUSH3 0x17A4 JUMP JUMPDEST JUMPDEST SWAP1 POP SWAP2 SWAP1 POP JUMP JUMPDEST PUSH1 0x60 PUSH1 0x0 DUP1 SLOAD PUSH3 0x76D SWAP1 PUSH3 0x30FD JUMP JUMPDEST DUP1 PUSH1 0x1F ADD PUSH1 0x20 DUP1 SWAP2 DIV MUL PUSH1 0x20 ADD PUSH1 0x40 MLOAD SWAP1 DUP2 ADD PUSH1 0x40 MSTORE DUP1 SWAP3 SWAP2 SWAP1 DUP2 DUP2 MSTORE PUSH1 0x20 ADD DUP3 DUP1 SLOAD PUSH3 0x79B SWAP1 PUSH3 0x30FD JUMP JUMPDEST DUP1 ISZERO PUSH3 0x7EC JUMPI DUP1 PUSH1 0x1F LT PUSH3 0x7C0 JUMPI PUSH2 0x100 DUP1 DUP4 SLOAD DIV MUL DUP4 MSTORE SWAP2 PUSH1 0x20 ADD SWAP2 PUSH3 0x7EC JUMP JUMPDEST DUP3 ADD SWAP2 SWAP1 PUSH1 0x0 MSTORE PUSH1 0x20 PUSH1 0x0 KECCAK256 SWAP1 JUMPDEST DUP2 SLOAD DUP2 MSTORE SWAP1 PUSH1 0x1 ADD SWAP1 PUSH1 0x20 ADD DUP1 DUP4 GT PUSH3 0x7CE JUMPI DUP3 SWAP1 SUB PUSH1 0x1F AND DUP3 ADD SWAP2 JUMPDEST POP POP POP POP POP SWAP1 POP SWAP1 JUMP JUMPDEST PUSH1 0x0 PUSH3 0x803 DUP3 PUSH3 0x188A JUMP JUMPDEST POP PUSH3 0x80F DUP3 PUSH3 0x1917 JUMP JUMPDEST SWAP1 POP SWAP2 SWAP1 POP JUMP JUMPDEST PUSH3 0x82C DUP3 DUP3 PUSH3 0x826 PUSH3 0x1954 JUMP JUMPDEST PUSH3 0x195C JUMP JUMPDEST POP POP JUMP JUMPDEST PUSH1 0x9 PUSH1 0x20 MSTORE DUP1 PUSH1 0x0 MSTORE PUSH1 0x40 PUSH1 0x0 KECCAK256 PUSH1 0x0 SWAP2 POP SLOAD SWAP1 PUSH2 0x100 EXP SWAP1 DIV PUSH20 0xFFFFFFFFFFFFFFFFFFFFFFFFFFFFFFFFFFFFFFFF AND DUP2 JUMP JUMPDEST PUSH1 0x0 PUSH20 0xFFFFFFFFFFFFFFFFFFFFFFFFFFFFFFFFFFFFFFFF AND DUP3 PUSH20 0xFFFFFFFFFFFFFFFFFFFFFFFFFFFFFFFFFFFFFFFF AND SUB PUSH3 0x8D8 JUMPI PUSH1 0x0 PUSH1 0x40 MLOAD PUSH32 0x64A0AE9200000000000000000000000000000000000000000000000000000000 DUP2 MSTORE PUSH1 0x4 ADD PUSH3 0x8CF SWAP2 SWAP1 PUSH3 0x2A5B JUMP JUMPDEST PUSH1 0x40 MLOAD DUP1 SWAP2 SUB SWAP1 REVERT JUMPDEST PUSH1 0x0 PUSH3 0x8F0 DUP4 DUP4 PUSH3 0x8EA PUSH3 0x1954 JUMP JUMPDEST PUSH3 0x1970 JUMP JUMPDEST SWAP1 POP DUP4 PUSH20 0xFFFFFFFFFFFFFFFFFFFFFFFFFFFFFFFFFFFFFFFF AND DUP2 PUSH20 0xFFFFFFFFFFFFFFFFFFFFFFFFFFFFFFFFFFFFFFFF AND EQ PUSH3 0x969 JUMPI DUP4 DUP3 DUP3 PUSH1 0x40 MLOAD PUSH32 0x64283D7B00000000000000000000000000000000000000000000000000000000 DUP2 MSTORE PUSH1 0x4 ADD PUSH3 0x960 SWAP4 SWAP3 SWAP2 SWAP1 PUSH3 0x3132 JUMP JUMPDEST PUSH1 0x40 MLOAD DUP1 SWAP2 SUB SWAP1 REVERT JUMPDEST POP POP POP POP JUMP JUMPDEST PUSH1 0x0 DUP1 CALLER DUP6 DUP6 DUP6 PUSH1 0x40 MLOAD PUSH3 0x984 SWAP1 PUSH3 0x274B JUMP JUMPDEST PUSH3 0x993 SWAP5 SWAP4 SWAP3 SWAP2 SWAP1 PUSH3 0x3194 JUMP JUMPDEST PUSH1 0x40 MLOAD DUP1 SWAP2 SUB SWAP1 PUSH1 0x0 CREATE DUP1 ISZERO DUP1 ISZERO PUSH3 0x9B0 JUMPI RETURNDATASIZE PUSH1 0x0 DUP1 RETURNDATACOPY RETURNDATASIZE PUSH1 0x0 REVERT JUMPDEST POP SWAP1 POP PUSH1 0x0 PUSH1 0xA SLOAD SWAP1 POP DUP2 PUSH1 0x9 PUSH1 0x0 PUSH1 0xA SLOAD DUP2 MSTORE PUSH1 0x20 ADD SWAP1 DUP2 MSTORE PUSH1 0x20 ADD PUSH1 0x0 KECCAK256 PUSH1 0x0 PUSH2 0x100 EXP DUP2 SLOAD DUP2 PUSH20 0xFFFFFFFFFFFFFFFFFFFFFFFFFFFFFFFFFFFFFFFF MUL NOT AND SWAP1 DUP4 PUSH20 0xFFFFFFFFFFFFFFFFFFFFFFFFFFFFFFFFFFFFFFFF AND MUL OR SWAP1 SSTORE POP PUSH1 0xA PUSH1 0x0 DUP2 SLOAD DUP1 SWAP3 SWAP2 SWAP1 PUSH3 0xA23 SWAP1 PUSH3 0x31EF JUMP JUMPDEST SWAP2 SWAP1 POP SSTORE POP DUP1 SWAP3 POP POP POP SWAP4 SWAP3 POP POP POP JUMP JUMPDEST PUSH1 0xA SLOAD DUP3 LT PUSH3 0xA7B JUMPI PUSH1 0x40 MLOAD PUSH32 0x8C379A000000000000000000000000000000000000000000000000000000000 DUP2 MSTORE PUSH1 0x4 ADD PUSH3 0xA72 SWAP1 PUSH3 0x328C JUMP JUMPDEST PUSH1 0x40 MLOAD DUP1 SWAP2 SUB SWAP1 REVERT JUMPDEST DUP1 PUSH1 0x7 PUSH1 0x0 CALLER PUSH20 0xFFFFFFFFFFFFFFFFFFFFFFFFFFFFFFFFFFFFFFFF AND PUSH20 0xFFFFFFFFFFFFFFFFFFFFFFFFFFFFFFFFFFFFFFFF AND DUP2 MSTORE PUSH1 0x20 ADD SWAP1 DUP2 MSTORE PUSH1 0x20 ADD PUSH1 0x0 KECCAK256 SLOAD LT ISZERO PUSH3 0xB00 JUMPI PUSH1 0x40 MLOAD PUSH32 0x8C379A000000000000000000000000000000000000000000000000000000000 DUP2 MSTORE PUSH1 0x4 ADD PUSH3 0xAF7 SWAP1 PUSH3 0x32FE JUMP JUMPDEST PUSH1 0x40 MLOAD DUP1 SWAP2 SUB SWAP1 REVERT JUMPDEST DUP1 PUSH1 0x7 PUSH1 0x0 CALLER PUSH20 0xFFFFFFFFFFFFFFFFFFFFFFFFFFFFFFFFFFFFFFFF AND PUSH20 0xFFFFFFFFFFFFFFFFFFFFFFFFFFFFFFFFFFFFFFFF AND DUP2 MSTORE PUSH1 0x20 ADD SWAP1 DUP2 MSTORE PUSH1 0x20 ADD PUSH1 0x0 KECCAK256 PUSH1 0x0 DUP3 DUP3 SLOAD PUSH3 0xB51 SWAP2 SWAP1 PUSH3 0x3320 JUMP JUMPDEST SWAP3 POP POP DUP2 SWAP1 SSTORE POP PUSH1 0x9 PUSH1 0x0 DUP4 DUP2 MSTORE PUSH1 0x20 ADD SWAP1 DUP2 MSTORE PUSH1 0x20 ADD PUSH1 0x0 KECCAK256 PUSH1 0x0 SWAP1 SLOAD SWAP1 PUSH2 0x100 EXP SWAP1 DIV PUSH20 0xFFFFFFFFFFFFFFFFFFFFFFFFFFFFFFFFFFFFFFFF AND PUSH20 0xFFFFFFFFFFFFFFFFFFFFFFFFFFFFFFFFFFFFFFFF AND PUSH4 0x121B93F DUP3 PUSH1 0x40 MLOAD DUP3 PUSH4 0xFFFFFFFF AND PUSH1 0xE0 SHL DUP2 MSTORE PUSH1 0x4 ADD PUSH3 0xBC6 SWAP2 SWAP1 PUSH3 0x2DD0 JUMP JUMPDEST PUSH1 0x0 PUSH1 0x40 MLOAD DUP1 DUP4 SUB DUP2 PUSH1 0x0 DUP8 DUP1 EXTCODESIZE ISZERO DUP1 ISZERO PUSH3 0xBE1 JUMPI PUSH1 0x0 DUP1 REVERT JUMPDEST POP GAS CALL ISZERO DUP1 ISZERO PUSH3 0xBF6 JUMPI RETURNDATASIZE PUSH1 0x0 DUP1 RETURNDATACOPY RETURNDATASIZE PUSH1 0x0 REVERT JUMPDEST POP POP POP POP POP POP JUMP JUMPDEST PUSH1 0xA SLOAD DUP2 JUMP JUMPDEST PUSH3 0xC21 DUP4 DUP4 DUP4 PUSH1 0x40 MLOAD DUP1 PUSH1 0x20 ADD PUSH1 0x40 MSTORE DUP1 PUSH1 0x0 DUP2 MSTORE POP PUSH3 0xDCB JUMP JUMPDEST POP POP POP JUMP JUMPDEST PUSH1 0x8 PUSH1 0x20 MSTORE DUP1 PUSH1 0x0 MSTORE PUSH1 0x40 PUSH1 0x0 KECCAK256 PUSH1 0x0 SWAP2 POP SLOAD SWAP1 PUSH2 0x100 EXP SWAP1 DIV PUSH1 0xFF AND DUP2 JUMP JUMPDEST PUSH1 0x0 PUSH3 0xC53 DUP3 PUSH3 0x188A JUMP JUMPDEST SWAP1 POP SWAP2 SWAP1 POP JUMP JUMPDEST PUSH1 0x0 DUP1 PUSH20 0xFFFFFFFFFFFFFFFFFFFFFFFFFFFFFFFFFFFFFFFF AND DUP3 PUSH20 0xFFFFFFFFFFFFFFFFFFFFFFFFFFFFFFFFFFFFFFFF AND SUB PUSH3 0xCD0 JUMPI PUSH1 0x0 PUSH1 0x40 MLOAD PUSH32 0x89C62B6400000000000000000000000000000000000000000000000000000000 DUP2 MSTORE PUSH1 0x4 ADD PUSH3 0xCC7 SWAP2 SWAP1 PUSH3 0x2A5B JUMP JUMPDEST PUSH1 0x40 MLOAD DUP1 SWAP2 SUB SWAP1 REVERT JUMPDEST PUSH1 0x3 PUSH1 0x0 DUP4 PUSH20 0xFFFFFFFFFFFFFFFFFFFFFFFFFFFFFFFFFFFFFFFF AND PUSH20 0xFFFFFFFFFFFFFFFFFFFFFFFFFFFFFFFFFFFFFFFF AND DUP2 MSTORE PUSH1 0x20 ADD SWAP1 DUP2 MSTORE PUSH1 0x20 ADD PUSH1 0x0 KECCAK256 SLOAD SWAP1 POP SWAP2 SWAP1 POP JUMP JUMPDEST PUSH1 0x60 PUSH1 0x1 DUP1 SLOAD PUSH3 0xD28 SWAP1 PUSH3 0x30FD JUMP JUMPDEST DUP1 PUSH1 0x1F ADD PUSH1 0x20 DUP1 SWAP2 DIV MUL PUSH1 0x20 ADD PUSH1 0x40 MLOAD SWAP1 DUP2 ADD PUSH1 0x40 MSTORE DUP1 SWAP3 SWAP2 SWAP1 DUP2 DUP2 MSTORE PUSH1 0x20 ADD DUP3 DUP1 SLOAD PUSH3 0xD56 SWAP1 PUSH3 0x30FD JUMP JUMPDEST DUP1 ISZERO PUSH3 0xDA7 JUMPI DUP1 PUSH1 0x1F LT PUSH3 0xD7B JUMPI PUSH2 0x100 DUP1 DUP4 SLOAD DIV MUL DUP4 MSTORE SWAP2 PUSH1 0x20 ADD SWAP2 PUSH3 0xDA7 JUMP JUMPDEST DUP3 ADD SWAP2 SWAP1 PUSH1 0x0 MSTORE PUSH1 0x20 PUSH1 0x0 KECCAK256 SWAP1 JUMPDEST DUP2 SLOAD DUP2 MSTORE SWAP1 PUSH1 0x1 ADD SWAP1 PUSH1 0x20 ADD DUP1 DUP4 GT PUSH3 0xD89 JUMPI DUP3 SWAP1 SUB PUSH1 0x1F AND DUP3 ADD SWAP2 JUMPDEST POP POP POP POP POP SWAP1 POP SWAP1 JUMP JUMPDEST PUSH3 0xDC7 PUSH3 0xDBF PUSH3 0x1954 JUMP JUMPDEST DUP4 DUP4 PUSH3 0x1B93 JUMP JUMPDEST POP POP JUMP JUMPDEST PUSH3 0xDD8 DUP5 DUP5 DUP5 PUSH3 0x863 JUMP JUMPDEST PUSH3 0xDE6 DUP5 DUP5 DUP5 DUP5 PUSH3 0x1D07 JUMP JUMPDEST POP POP POP POP JUMP JUMPDEST PUSH1 0xB SLOAD DUP2 JUMP JUMPDEST PUSH1 0x60 PUSH1 0x0 DUP1 PUSH1 0x0 DUP1 PUSH1 0xA SLOAD DUP7 LT PUSH3 0xE41 JUMPI PUSH1 0x40 MLOAD PUSH32 0x8C379A000000000000000000000000000000000000000000000000000000000 DUP2 MSTORE PUSH1 0x4 ADD PUSH3 0xE38 SWAP1 PUSH3 0x328C JUMP JUMPDEST PUSH1 0x40 MLOAD DUP1 SWAP2 SUB SWAP1 REVERT JUMPDEST PUSH1 0x9 PUSH1 0x0 DUP8 DUP2 MSTORE PUSH1 0x20 ADD SWAP1 DUP2 MSTORE PUSH1 0x20 ADD PUSH1 0x0 KECCAK256 PUSH1 0x0 SWAP1 SLOAD SWAP1 PUSH2 0x100 EXP SWAP1 DIV PUSH20 0xFFFFFFFFFFFFFFFFFFFFFFFFFFFFFFFFFFFFFFFF AND PUSH20 0xFFFFFFFFFFFFFFFFFFFFFFFFFFFFFFFFFFFFFFFF AND PUSH4 0x755F047B PUSH1 0x40 MLOAD DUP2 PUSH4 0xFFFFFFFF AND PUSH1 0xE0 SHL DUP2 MSTORE PUSH1 0x4 ADD PUSH1 0x0 PUSH1 0x40 MLOAD DUP1 DUP4 SUB DUP2 DUP7 GAS STATICCALL ISZERO DUP1 ISZERO PUSH3 0xEC0 JUMPI RETURNDATASIZE PUSH1 0x0 DUP1 RETURNDATACOPY RETURNDATASIZE PUSH1 0x0 REVERT JUMPDEST POP POP POP POP PUSH1 0x40 MLOAD RETURNDATASIZE PUSH1 0x0 DUP3 RETURNDATACOPY RETURNDATASIZE PUSH1 0x1F NOT PUSH1 0x1F DUP3 ADD AND DUP3 ADD DUP1 PUSH1 0x40 MSTORE POP DUP2 ADD SWAP1 PUSH3 0xEEB SWAP2 SWAP1 PUSH3 0x33D9 JUMP JUMPDEST PUSH1 0x9 PUSH1 0x0 DUP9 DUP2 MSTORE PUSH1 0x20 ADD SWAP1 DUP2 MSTORE PUSH1 0x20 ADD PUSH1 0x0 KECCAK256 PUSH1 0x0 SWAP1 SLOAD SWAP1 PUSH2 0x100 EXP SWAP1 DIV PUSH20 0xFFFFFFFFFFFFFFFFFFFFFFFFFFFFFFFFFFFFFFFF AND PUSH20 0xFFFFFFFFFFFFFFFFFFFFFFFFFFFFFFFFFFFFFFFF AND PUSH4 0x7A3A0E84 PUSH1 0x40 MLOAD DUP2 PUSH4 0xFFFFFFFF AND PUSH1 0xE0 SHL DUP2 MSTORE PUSH1 0x4 ADD PUSH1 0x20 PUSH1 0x40 MLOAD DUP1 DUP4 SUB DUP2 DUP7 GAS STATICCALL ISZERO DUP1 ISZERO PUSH3 0xF6A JUMPI RETURNDATASIZE PUSH1 0x0 DUP1 RETURNDATACOPY RETURNDATASIZE PUSH1 0x0 REVERT JUMPDEST POP POP POP POP PUSH1 0x40 MLOAD RETURNDATASIZE PUSH1 0x1F NOT PUSH1 0x1F DUP3 ADD AND DUP3 ADD DUP1 PUSH1 0x40 MSTORE POP DUP2 ADD SWAP1 PUSH3 0xF90 SWAP2 SWAP1 PUSH3 0x3441 JUMP JUMPDEST PUSH1 0x9 PUSH1 0x0 DUP10 DUP2 MSTORE PUSH1 0x20 ADD SWAP1 DUP2 MSTORE PUSH1 0x20 ADD PUSH1 0x0 KECCAK256 PUSH1 0x0 SWAP1 SLOAD SWAP1 PUSH2 0x100 EXP SWAP1 DIV PUSH20 0xFFFFFFFFFFFFFFFFFFFFFFFFFFFFFFFFFFFFFFFF AND PUSH20 0xFFFFFFFFFFFFFFFFFFFFFFFFFFFFFFFFFFFFFFFF AND PUSH4 0x888B70D PUSH1 0x40 MLOAD DUP2 PUSH4 0xFFFFFFFF AND PUSH1 0xE0 SHL DUP2 MSTORE PUSH1 0x4 ADD PUSH1 0x20 PUSH1 0x40 MLOAD DUP1 DUP4 SUB DUP2 DUP7 GAS STATICCALL ISZERO DUP1 ISZERO PUSH3 0x100F JUMPI RETURNDATASIZE PUSH1 0x0 DUP1 RETURNDATACOPY RETURNDATASIZE PUSH1 0x0 REVERT JUMPDEST POP POP POP POP PUSH1 0x40 MLOAD RETURNDATASIZE PUSH1 0x1F NOT PUSH1 0x1F DUP3 ADD AND DUP3 ADD DUP1 PUSH1 0x40 MSTORE POP DUP2 ADD SWAP1 PUSH3 0x1035 SWAP2 SWAP1 PUSH3 0x3441 JUMP JUMPDEST PUSH1 0x9 PUSH1 0x0 DUP11 DUP2 MSTORE PUSH1 0x20 ADD SWAP1 DUP2 MSTORE PUSH1 0x20 ADD PUSH1 0x0 KECCAK256 PUSH1 0x0 SWAP1 SLOAD SWAP1 PUSH2 0x100 EXP SWAP1 DIV PUSH20 0xFFFFFFFFFFFFFFFFFFFFFFFFFFFFFFFFFFFFFFFF AND PUSH20 0xFFFFFFFFFFFFFFFFFFFFFFFFFFFFFFFFFFFFFFFF AND PUSH4 0xC19D93FB PUSH1 0x40 MLOAD DUP2 PUSH4 0xFFFFFFFF AND PUSH1 0xE0 SHL DUP2 MSTORE PUSH1 0x4 ADD PUSH1 0x20 PUSH1 0x40 MLOAD DUP1 DUP4 SUB DUP2 DUP7 GAS STATICCALL ISZERO DUP1 ISZERO PUSH3 0x10B4 JUMPI RETURNDATASIZE PUSH1 0x0 DUP1 RETURNDATACOPY RETURNDATASIZE PUSH1 0x0 REVERT JUMPDEST POP POP POP POP PUSH1 0x40 MLOAD RETURNDATASIZE PUSH1 0x1F NOT PUSH1 0x1F DUP3 ADD AND DUP3 ADD DUP1 PUSH1 0x40 MSTORE POP DUP2 ADD SWAP1 PUSH3 0x10DA SWAP2 SWAP1 PUSH3 0x349B JUMP JUMPDEST PUSH1 0x7 DUP2 GT ISZERO PUSH3 0x10EF JUMPI PUSH3 0x10EE PUSH3 0x34CD JUMP JUMPDEST JUMPDEST PUSH1 0x9 PUSH1 0x0 DUP12 DUP2 MSTORE PUSH1 0x20 ADD SWAP1 DUP2 MSTORE PUSH1 0x20 ADD PUSH1 0x0 KECCAK256 PUSH1 0x0 SWAP1 SLOAD SWAP1 PUSH2 0x100 EXP SWAP1 DIV PUSH20 0xFFFFFFFFFFFFFFFFFFFFFFFFFFFFFFFFFFFFFFFF AND PUSH20 0xFFFFFFFFFFFFFFFFFFFFFFFFFFFFFFFFFFFFFFFF AND PUSH4 0xD8BFF5A5 CALLER PUSH1 0x40 MLOAD DUP3 PUSH4 0xFFFFFFFF AND PUSH1 0xE0 SHL DUP2 MSTORE PUSH1 0x4 ADD PUSH3 0x115D SWAP2 SWAP1 PUSH3 0x2A5B JUMP JUMPDEST PUSH1 0x20 PUSH1 0x40 MLOAD DUP1 DUP4 SUB DUP2 DUP7 GAS STATICCALL ISZERO DUP1 ISZERO PUSH3 0x117B JUMPI RETURNDATASIZE PUSH1 0x0 DUP1 RETURNDATACOPY RETURNDATASIZE PUSH1 0x0 REVERT JUMPDEST POP POP POP POP PUSH1 0x40 MLOAD RETURNDATASIZE PUSH1 0x1F NOT PUSH1 0x1F DUP3 ADD AND DUP3 ADD DUP1 PUSH1 0x40 MSTORE POP DUP2 ADD SWAP1 PUSH3 0x11A1 SWAP2 SWAP1 PUSH3 0x3441 JUMP JUMPDEST SWAP5 POP SWAP5 POP SWAP5 POP SWAP5 POP SWAP5 POP SWAP2 SWAP4 SWAP6 SWAP1 SWAP3 SWAP5 POP JUMP JUMPDEST PUSH1 0x60 PUSH3 0x11C1 DUP3 PUSH3 0x188A JUMP JUMPDEST POP PUSH1 0x0 PUSH1 0x6 PUSH1 0x0 DUP5 DUP2 MSTORE PUSH1 0x20 ADD SWAP1 DUP2 MSTORE PUSH1 0x20 ADD PUSH1 0x0 KECCAK256 DUP1 SLOAD PUSH3 0x11E4 SWAP1 PUSH3 0x30FD JUMP JUMPDEST DUP1 PUSH1 0x1F ADD PUSH1 0x20 DUP1 SWAP2 DIV MUL PUSH1 0x20 ADD PUSH1 0x40 MLOAD SWAP1 DUP2 ADD PUSH1 0x40 MSTORE DUP1 SWAP3 SWAP2 SWAP1 DUP2 DUP2 MSTORE PUSH1 0x20 ADD DUP3 DUP1 SLOAD PUSH3 0x1212 SWAP1 PUSH3 0x30FD JUMP JUMPDEST DUP1 ISZERO PUSH3 0x1263 JUMPI DUP1 PUSH1 0x1F LT PUSH3 0x1237 JUMPI PUSH2 0x100 DUP1 DUP4 SLOAD DIV MUL DUP4 MSTORE SWAP2 PUSH1 0x20 ADD SWAP2 PUSH3 0x1263 JUMP JUMPDEST DUP3 ADD SWAP2 SWAP1 PUSH1 0x0 MSTORE PUSH1 0x20 PUSH1 0x0 KECCAK256 SWAP1 JUMPDEST DUP2 SLOAD DUP2 MSTORE SWAP1 PUSH1 0x1 ADD SWAP1 PUSH1 0x20 ADD DUP1 DUP4 GT PUSH3 0x1245 JUMPI DUP3 SWAP1 SUB PUSH1 0x1F AND DUP3 ADD SWAP2 JUMPDEST POP POP POP POP POP SWAP1 POP PUSH1 0x0 PUSH3 0x1276 PUSH3 0x1ECF JUMP JUMPDEST SWAP1 POP PUSH1 0x0 DUP2 MLOAD SUB PUSH3 0x128D JUMPI DUP2 SWAP3 POP POP POP PUSH3 0x12D6 JUMP JUMPDEST PUSH1 0x0 DUP3 MLOAD GT ISZERO PUSH3 0x12C6 JUMPI DUP1 DUP3 PUSH1 0x40 MLOAD PUSH1 0x20 ADD PUSH3 0x12AD SWAP3 SWAP2 SWAP1 PUSH3 0x353E JUMP JUMPDEST PUSH1 0x40 MLOAD PUSH1 0x20 DUP2 DUP4 SUB SUB DUP2 MSTORE SWAP1 PUSH1 0x40 MSTORE SWAP3 POP POP POP PUSH3 0x12D6 JUMP JUMPDEST PUSH3 0x12D1 DUP5 PUSH3 0x1EE6 JUMP JUMPDEST SWAP3 POP POP POP JUMPDEST SWAP2 SWAP1 POP JUMP JUMPDEST PUSH1 0x0 PUSH1 0x7 PUSH1 0x0 CALLER PUSH20 0xFFFFFFFFFFFFFFFFFFFFFFFFFFFFFFFFFFFFFFFF AND PUSH20 0xFFFFFFFFFFFFFFFFFFFFFFFFFFFFFFFFFFFFFFFF AND DUP2 MSTORE PUSH1 0x20 ADD SWAP1 DUP2 MSTORE PUSH1 0x20 ADD PUSH1 0x0 KECCAK256 SLOAD SWAP1 POP SWAP1 JUMP JUMPDEST PUSH1 0xA SLOAD DUP2 LT PUSH3 0x1369 JUMPI PUSH1 0x40 MLOAD PUSH32 0x8C379A000000000000000000000000000000000000000000000000000000000 DUP2 MSTORE PUSH1 0x4 ADD PUSH3 0x1360 SWAP1 PUSH3 0x328C JUMP JUMPDEST PUSH1 0x40 MLOAD DUP1 SWAP2 SUB SWAP1 REVERT JUMPDEST PUSH1 0x9 PUSH1 0x0 DUP3 DUP2 MSTORE PUSH1 0x20 ADD SWAP1 DUP2 MSTORE PUSH1 0x20 ADD PUSH1 0x0 KECCAK256 PUSH1 0x0 SWAP1 SLOAD SWAP1 PUSH2 0x100 EXP SWAP1 DIV PUSH20 0xFFFFFFFFFFFFFFFFFFFFFFFFFFFFFFFFFFFFFFFF AND PUSH20 0xFFFFFFFFFFFFFFFFFFFFFFFFFFFFFFFFFFFFFFFF AND PUSH4 0x7A3A0E84 PUSH1 0x40 MLOAD DUP2 PUSH4 0xFFFFFFFF AND PUSH1 0xE0 SHL DUP2 MSTORE PUSH1 0x4 ADD PUSH1 0x20 PUSH1 0x40 MLOAD DUP1 DUP4 SUB DUP2 DUP7 GAS STATICCALL ISZERO DUP1 ISZERO PUSH3 0x13E8 JUMPI RETURNDATASIZE PUSH1 0x0 DUP1 RETURNDATACOPY RETURNDATASIZE PUSH1 0x0 REVERT JUMPDEST POP POP POP POP PUSH1 0x40 MLOAD RETURNDATASIZE PUSH1 0x1F NOT PUSH1 0x1F DUP3 ADD AND DUP3 ADD DUP1 PUSH1 0x40 MSTORE POP DUP2 ADD SWAP1 PUSH3 0x140E SWAP2 SWAP1 PUSH3 0x3441 JUMP JUMPDEST PUSH1 0x9 PUSH1 0x0 DUP4 DUP2 MSTORE PUSH1 0x20 ADD SWAP1 DUP2 MSTORE PUSH1 0x20 ADD PUSH1 0x0 KECCAK256 PUSH1 0x0 SWAP1 SLOAD SWAP1 PUSH2 0x100 EXP SWAP1 DIV PUSH20 0xFFFFFFFFFFFFFFFFFFFFFFFFFFFFFFFFFFFFFFFF AND PUSH20 0xFFFFFFFFFFFFFFFFFFFFFFFFFFFFFFFFFFFFFFFF AND PUSH4 0x888B70D PUSH1 0x40 MLOAD DUP2 PUSH4 0xFFFFFFFF AND PUSH1 0xE0 SHL DUP2 MSTORE PUSH1 0x4 ADD PUSH1 0x20 PUSH1 0x40 MLOAD DUP1 DUP4 SUB DUP2 DUP7 GAS STATICCALL ISZERO DUP1 ISZERO PUSH3 0x148D JUMPI RETURNDATASIZE PUSH1 0x0 DUP1 RETURNDATACOPY RETURNDATASIZE PUSH1 0x0 REVERT JUMPDEST POP POP POP POP PUSH1 0x40 MLOAD RETURNDATASIZE PUSH1 0x1F NOT PUSH1 0x1F DUP3 ADD AND DUP3 ADD DUP1 PUSH1 0x40 MSTORE POP DUP2 ADD SWAP1 PUSH3 0x14B3 SWAP2 SWAP1 PUSH3 0x3441 JUMP JUMPDEST LT ISZERO PUSH3 0x14F7 JUMPI PUSH1 0x40 MLOAD PUSH32 0x8C379A000000000000000000000000000000000000000000000000000000000 DUP2 MSTORE PUSH1 0x4 ADD PUSH3 0x14EE SWAP1 PUSH3 0x35B6 JUMP JUMPDEST PUSH1 0x40 MLOAD DUP1 SWAP2 SUB SWAP1 REVERT JUMPDEST PUSH1 0x8 PUSH1 0x0 CALLER PUSH20 0xFFFFFFFFFFFFFFFFFFFFFFFFFFFFFFFFFFFFFFFF AND PUSH20 0xFFFFFFFFFFFFFFFFFFFFFFFFFFFFFFFFFFFFFFFF AND DUP2 MSTORE PUSH1 0x20 ADD SWAP1 DUP2 MSTORE PUSH1 0x20 ADD PUSH1 0x0 KECCAK256 PUSH1 0x0 SWAP1 SLOAD SWAP1 PUSH2 0x100 EXP SWAP1 DIV PUSH1 0xFF AND ISZERO PUSH3 0x1587 JUMPI PUSH1 0x40 MLOAD PUSH32 0x8C379A000000000000000000000000000000000000000000000000000000000 DUP2 MSTORE PUSH1 0x4 ADD PUSH3 0x157E SWAP1 PUSH3 0x3628 JUMP JUMPDEST PUSH1 0x40 MLOAD DUP1 SWAP2 SUB SWAP1 REVERT JUMPDEST PUSH1 0x0 PUSH1 0x9 PUSH1 0x0 DUP4 DUP2 MSTORE PUSH1 0x20 ADD SWAP1 DUP2 MSTORE PUSH1 0x20 ADD PUSH1 0x0 KECCAK256 PUSH1 0x0 SWAP1 SLOAD SWAP1 PUSH2 0x100 EXP SWAP1 DIV PUSH20 0xFFFFFFFFFFFFFFFFFFFFFFFFFFFFFFFFFFFFFFFF AND PUSH20 0xFFFFFFFFFFFFFFFFFFFFFFFFFFFFFFFFFFFFFFFF AND PUSH4 0x1479197F CALLER PUSH1 0x40 MLOAD DUP3 PUSH4 0xFFFFFFFF AND PUSH1 0xE0 SHL DUP2 MSTORE PUSH1 0x4 ADD PUSH3 0x15F7 SWAP2 SWAP1 PUSH3 0x2A5B JUMP JUMPDEST PUSH1 0x20 PUSH1 0x40 MLOAD DUP1 DUP4 SUB DUP2 DUP7 GAS STATICCALL ISZERO DUP1 ISZERO PUSH3 0x1615 JUMPI RETURNDATASIZE PUSH1 0x0 DUP1 RETURNDATACOPY RETURNDATASIZE PUSH1 0x0 REVERT JUMPDEST POP POP POP POP PUSH1 0x40 MLOAD RETURNDATASIZE PUSH1 0x1F NOT PUSH1 0x1F DUP3 ADD AND DUP3 ADD DUP1 PUSH1 0x40 MSTORE POP DUP2 ADD SWAP1 PUSH3 0x163B SWAP2 SWAP1 PUSH3 0x3441 JUMP JUMPDEST SWAP1 POP PUSH3 0x164B CALLER PUSH1 0xC SLOAD PUSH3 0x1F59 JUMP JUMPDEST PUSH1 0x0 DUP2 PUSH1 0x40 MLOAD PUSH1 0x20 ADD PUSH3 0x1660 SWAP2 SWAP1 PUSH3 0x37AB JUMP JUMPDEST PUSH1 0x40 MLOAD PUSH1 0x20 DUP2 DUP4 SUB SUB DUP2 MSTORE SWAP1 PUSH1 0x40 MSTORE SWAP1 POP PUSH3 0x167F PUSH1 0xC SLOAD DUP3 PUSH3 0x1F79 JUMP JUMPDEST PUSH1 0x1 PUSH1 0xC PUSH1 0x0 DUP3 DUP3 SLOAD PUSH3 0x1694 SWAP2 SWAP1 PUSH3 0x27DD JUMP JUMPDEST SWAP3 POP POP DUP2 SWAP1 SSTORE POP PUSH1 0x1 PUSH1 0x8 PUSH1 0x0 CALLER PUSH20 0xFFFFFFFFFFFFFFFFFFFFFFFFFFFFFFFFFFFFFFFF AND PUSH20 0xFFFFFFFFFFFFFFFFFFFFFFFFFFFFFFFFFFFFFFFF AND DUP2 MSTORE PUSH1 0x20 ADD SWAP1 DUP2 MSTORE PUSH1 0x20 ADD PUSH1 0x0 KECCAK256 PUSH1 0x0 PUSH2 0x100 EXP DUP2 SLOAD DUP2 PUSH1 0xFF MUL NOT AND SWAP1 DUP4 ISZERO ISZERO MUL OR SWAP1 SSTORE POP POP POP POP JUMP JUMPDEST PUSH1 0x0 PUSH1 0x5 PUSH1 0x0 DUP5 PUSH20 0xFFFFFFFFFFFFFFFFFFFFFFFFFFFFFFFFFFFFFFFF AND PUSH20 0xFFFFFFFFFFFFFFFFFFFFFFFFFFFFFFFFFFFFFFFF AND DUP2 MSTORE PUSH1 0x20 ADD SWAP1 DUP2 MSTORE PUSH1 0x20 ADD PUSH1 0x0 KECCAK256 PUSH1 0x0 DUP4 PUSH20 0xFFFFFFFFFFFFFFFFFFFFFFFFFFFFFFFFFFFFFFFF AND PUSH20 0xFFFFFFFFFFFFFFFFFFFFFFFFFFFFFFFFFFFFFFFF AND DUP2 MSTORE PUSH1 0x20 ADD SWAP1 DUP2 MSTORE PUSH1 0x20 ADD PUSH1 0x0 KECCAK256 PUSH1 0x0 SWAP1 SLOAD SWAP1 PUSH2 0x100 EXP SWAP1 DIV PUSH1 0xFF AND SWAP1 POP SWAP3 SWAP2 POP POP JUMP JUMPDEST PUSH1 0x7 PUSH1 0x20 MSTORE DUP1 PUSH1 0x0 MSTORE PUSH1 0x40 PUSH1 0x0 KECCAK256 PUSH1 0x0 SWAP2 POP SWAP1 POP SLOAD DUP2 JUMP JUMPDEST PUSH1 0x0 PUSH32 0x80AC58CD00000000000000000000000000000000000000000000000000000000 PUSH28 0xFFFFFFFFFFFFFFFFFFFFFFFFFFFFFFFFFFFFFFFFFFFFFFFFFFFFFFFF NOT AND DUP3 PUSH28 0xFFFFFFFFFFFFFFFFFFFFFFFFFFFFFFFFFFFFFFFFFFFFFFFFFFFFFFFF NOT AND EQ DUP1 PUSH3 0x1870 JUMPI POP PUSH32 0x5B5E139F00000000000000000000000000000000000000000000000000000000 PUSH28 0xFFFFFFFFFFFFFFFFFFFFFFFFFFFFFFFFFFFFFFFFFFFFFFFFFFFFFFFF NOT AND DUP3 PUSH28 0xFFFFFFFFFFFFFFFFFFFFFFFFFFFFFFFFFFFFFFFFFFFFFFFFFFFFFFFF NOT AND EQ JUMPDEST DUP1 PUSH3 0x1883 JUMPI POP PUSH3 0x1882 DUP3 PUSH3 0x1FD9 JUMP JUMPDEST JUMPDEST SWAP1 POP SWAP2 SWAP1 POP JUMP JUMPDEST PUSH1 0x0 DUP1 PUSH3 0x1898 DUP4 PUSH3 0x2043 JUMP JUMPDEST SWAP1 POP PUSH1 0x0 PUSH20 0xFFFFFFFFFFFFFFFFFFFFFFFFFFFFFFFFFFFFFFFF AND DUP2 PUSH20 0xFFFFFFFFFFFFFFFFFFFFFFFFFFFFFFFFFFFFFFFF AND SUB PUSH3 0x190E JUMPI DUP3 PUSH1 0x40 MLOAD PUSH32 0x7E27328900000000000000000000000000000000000000000000000000000000 DUP2 MSTORE PUSH1 0x4 ADD PUSH3 0x1905 SWAP2 SWAP1 PUSH3 0x2DD0 JUMP JUMPDEST PUSH1 0x40 MLOAD DUP1 SWAP2 SUB SWAP1 REVERT JUMPDEST DUP1 SWAP2 POP POP SWAP2 SWAP1 POP JUMP JUMPDEST PUSH1 0x0 PUSH1 0x4 PUSH1 0x0 DUP4 DUP2 MSTORE PUSH1 0x20 ADD SWAP1 DUP2 MSTORE PUSH1 0x20 ADD PUSH1 0x0 KECCAK256 PUSH1 0x0 SWAP1 SLOAD SWAP1 PUSH2 0x100 EXP SWAP1 DIV PUSH20 0xFFFFFFFFFFFFFFFFFFFFFFFFFFFFFFFFFFFFFFFF AND SWAP1 POP SWAP2 SWAP1 POP JUMP JUMPDEST PUSH1 0x0 CALLER SWAP1 POP SWAP1 JUMP JUMPDEST PUSH3 0x196B DUP4 DUP4 DUP4 PUSH1 0x1 PUSH3 0x2080 JUMP JUMPDEST POP POP POP JUMP JUMPDEST PUSH1 0x0 DUP1 PUSH3 0x197E DUP5 PUSH3 0x2043 JUMP JUMPDEST SWAP1 POP PUSH1 0x0 PUSH20 0xFFFFFFFFFFFFFFFFFFFFFFFFFFFFFFFFFFFFFFFF AND DUP4 PUSH20 0xFFFFFFFFFFFFFFFFFFFFFFFFFFFFFFFFFFFFFFFF AND EQ PUSH3 0x19C3 JUMPI PUSH3 0x19C2 DUP2 DUP5 DUP7 PUSH3 0x2251 JUMP JUMPDEST JUMPDEST PUSH1 0x0 PUSH20 0xFFFFFFFFFFFFFFFFFFFFFFFFFFFFFFFFFFFFFFFF AND DUP2 PUSH20 0xFFFFFFFFFFFFFFFFFFFFFFFFFFFFFFFFFFFFFFFF AND EQ PUSH3 0x1A57 JUMPI PUSH3 0x1A08 PUSH1 0x0 DUP6 PUSH1 0x0 DUP1 PUSH3 0x2080 JUMP JUMPDEST PUSH1 0x1 PUSH1 0x3 PUSH1 0x0 DUP4 PUSH20 0xFFFFFFFFFFFFFFFFFFFFFFFFFFFFFFFFFFFFFFFF AND PUSH20 0xFFFFFFFFFFFFFFFFFFFFFFFFFFFFFFFFFFFFFFFF AND DUP2 MSTORE PUSH1 0x20 ADD SWAP1 DUP2 MSTORE PUSH1 0x20 ADD PUSH1 0x0 KECCAK256 PUSH1 0x0 DUP3 DUP3 SLOAD SUB SWAP3 POP POP DUP2 SWAP1 SSTORE POP JUMPDEST PUSH1 0x0 PUSH20 0xFFFFFFFFFFFFFFFFFFFFFFFFFFFFFFFFFFFFFFFF AND DUP6 PUSH20 0xFFFFFFFFFFFFFFFFFFFFFFFFFFFFFFFFFFFFFFFF AND EQ PUSH3 0x1ADB JUMPI PUSH1 0x1 PUSH1 0x3 PUSH1 0x0 DUP8 PUSH20 0xFFFFFFFFFFFFFFFFFFFFFFFFFFFFFFFFFFFFFFFF AND PUSH20 0xFFFFFFFFFFFFFFFFFFFFFFFFFFFFFFFFFFFFFFFF AND DUP2 MSTORE PUSH1 0x20 ADD SWAP1 DUP2 MSTORE PUSH1 0x20 ADD PUSH1 0x0 KECCAK256 PUSH1 0x0 DUP3 DUP3 SLOAD ADD SWAP3 POP POP DUP2 SWAP1 SSTORE POP JUMPDEST DUP5 PUSH1 0x2 PUSH1 0x0 DUP7 DUP2 MSTORE PUSH1 0x20 ADD SWAP1 DUP2 MSTORE PUSH1 0x20 ADD PUSH1 0x0 KECCAK256 PUSH1 0x0 PUSH2 0x100 EXP DUP2 SLOAD DUP2 PUSH20 0xFFFFFFFFFFFFFFFFFFFFFFFFFFFFFFFFFFFFFFFF MUL NOT AND SWAP1 DUP4 PUSH20 0xFFFFFFFFFFFFFFFFFFFFFFFFFFFFFFFFFFFFFFFF AND MUL OR SWAP1 SSTORE POP DUP4 DUP6 PUSH20 0xFFFFFFFFFFFFFFFFFFFFFFFFFFFFFFFFFFFFFFFF AND DUP3 PUSH20 0xFFFFFFFFFFFFFFFFFFFFFFFFFFFFFFFFFFFFFFFF AND PUSH32 0xDDF252AD1BE2C89B69C2B068FC378DAA952BA7F163C4A11628F55A4DF523B3EF PUSH1 0x40 MLOAD PUSH1 0x40 MLOAD DUP1 SWAP2 SUB SWAP1 LOG4 DUP1 SWAP2 POP POP SWAP4 SWAP3 POP POP POP JUMP JUMPDEST PUSH1 0x0 PUSH20 0xFFFFFFFFFFFFFFFFFFFFFFFFFFFFFFFFFFFFFFFF AND DUP3 PUSH20 0xFFFFFFFFFFFFFFFFFFFFFFFFFFFFFFFFFFFFFFFF AND SUB PUSH3 0x1C07 JUMPI DUP2 PUSH1 0x40 MLOAD PUSH32 0x5B08BA1800000000000000000000000000000000000000000000000000000000 DUP2 MSTORE PUSH1 0x4 ADD PUSH3 0x1BFE SWAP2 SWAP1 PUSH3 0x2A5B JUMP JUMPDEST PUSH1 0x40 MLOAD DUP1 SWAP2 SUB SWAP1 REVERT JUMPDEST DUP1 PUSH1 0x5 PUSH1 0x0 DUP6 PUSH20 0xFFFFFFFFFFFFFFFFFFFFFFFFFFFFFFFFFFFFFFFF AND PUSH20 0xFFFFFFFFFFFFFFFFFFFFFFFFFFFFFFFFFFFFFFFF AND DUP2 MSTORE PUSH1 0x20 ADD SWAP1 DUP2 MSTORE PUSH1 0x20 ADD PUSH1 0x0 KECCAK256 PUSH1 0x0 DUP5 PUSH20 0xFFFFFFFFFFFFFFFFFFFFFFFFFFFFFFFFFFFFFFFF AND PUSH20 0xFFFFFFFFFFFFFFFFFFFFFFFFFFFFFFFFFFFFFFFF AND DUP2 MSTORE PUSH1 0x20 ADD SWAP1 DUP2 MSTORE PUSH1 0x20 ADD PUSH1 0x0 KECCAK256 PUSH1 0x0 PUSH2 0x100 EXP DUP2 SLOAD DUP2 PUSH1 0xFF MUL NOT AND SWAP1 DUP4 ISZERO ISZERO MUL OR SWAP1 SSTORE POP DUP2 PUSH20 0xFFFFFFFFFFFFFFFFFFFFFFFFFFFFFFFFFFFFFFFF AND DUP4 PUSH20 0xFFFFFFFFFFFFFFFFFFFFFFFFFFFFFFFFFFFFFFFF AND PUSH32 0x17307EAB39AB6107E8899845AD3D59BD9653F200F220920489CA2B5937696C31 DUP4 PUSH1 0x40 MLOAD PUSH3 0x1CFA SWAP2 SWAP1 PUSH3 0x28D8 JUMP JUMPDEST PUSH1 0x40 MLOAD DUP1 SWAP2 SUB SWAP1 LOG3 POP POP POP JUMP JUMPDEST PUSH1 0x0 DUP4 PUSH20 0xFFFFFFFFFFFFFFFFFFFFFFFFFFFFFFFFFFFFFFFF AND EXTCODESIZE GT ISZERO PUSH3 0x1EC9 JUMPI DUP3 PUSH20 0xFFFFFFFFFFFFFFFFFFFFFFFFFFFFFFFFFFFFFFFF AND PUSH4 0x150B7A02 PUSH3 0x1D4E PUSH3 0x1954 JUMP JUMPDEST DUP7 DUP6 DUP6 PUSH1 0x40 MLOAD DUP6 PUSH4 0xFFFFFFFF AND PUSH1 0xE0 SHL DUP2 MSTORE PUSH1 0x4 ADD PUSH3 0x1D72 SWAP5 SWAP4 SWAP3 SWAP2 SWAP1 PUSH3 0x384C JUMP JUMPDEST PUSH1 0x20 PUSH1 0x40 MLOAD DUP1 DUP4 SUB DUP2 PUSH1 0x0 DUP8 GAS CALL SWAP3 POP POP POP DUP1 ISZERO PUSH3 0x1DB1 JUMPI POP PUSH1 0x40 MLOAD RETURNDATASIZE PUSH1 0x1F NOT PUSH1 0x1F DUP3 ADD AND DUP3 ADD DUP1 PUSH1 0x40 MSTORE POP DUP2 ADD SWAP1 PUSH3 0x1DAE SWAP2 SWAP1 PUSH3 0x38B7 JUMP JUMPDEST PUSH1 0x1 JUMPDEST PUSH3 0x1E3B JUMPI RETURNDATASIZE DUP1 PUSH1 0x0 DUP2 EQ PUSH3 0x1DE4 JUMPI PUSH1 0x40 MLOAD SWAP2 POP PUSH1 0x1F NOT PUSH1 0x3F RETURNDATASIZE ADD AND DUP3 ADD PUSH1 0x40 MSTORE RETURNDATASIZE DUP3 MSTORE RETURNDATASIZE PUSH1 0x0 PUSH1 0x20 DUP5 ADD RETURNDATACOPY PUSH3 0x1DE9 JUMP JUMPDEST PUSH1 0x60 SWAP2 POP JUMPDEST POP PUSH1 0x0 DUP2 MLOAD SUB PUSH3 0x1E33 JUMPI DUP4 PUSH1 0x40 MLOAD PUSH32 0x64A0AE9200000000000000000000000000000000000000000000000000000000 DUP2 MSTORE PUSH1 0x4 ADD PUSH3 0x1E2A SWAP2 SWAP1 PUSH3 0x2A5B JUMP JUMPDEST PUSH1 0x40 MLOAD DUP1 SWAP2 SUB SWAP1 REVERT JUMPDEST DUP1 MLOAD DUP2 PUSH1 0x20 ADD REVERT JUMPDEST PUSH4 0x150B7A02 PUSH1 0xE0 SHL PUSH28 0xFFFFFFFFFFFFFFFFFFFFFFFFFFFFFFFFFFFFFFFFFFFFFFFFFFFFFFFF NOT AND DUP2 PUSH28 0xFFFFFFFFFFFFFFFFFFFFFFFFFFFFFFFFFFFFFFFFFFFFFFFFFFFFFFFF NOT AND EQ PUSH3 0x1EC7 JUMPI DUP4 PUSH1 0x40 MLOAD PUSH32 0x64A0AE9200000000000000000000000000000000000000000000000000000000 DUP2 MSTORE PUSH1 0x4 ADD PUSH3 0x1EBE SWAP2 SWAP1 PUSH3 0x2A5B JUMP JUMPDEST PUSH1 0x40 MLOAD DUP1 SWAP2 SUB SWAP1 REVERT JUMPDEST POP JUMPDEST POP POP POP POP JUMP JUMPDEST PUSH1 0x60 PUSH1 0x40 MLOAD DUP1 PUSH1 0x20 ADD PUSH1 0x40 MSTORE DUP1 PUSH1 0x0 DUP2 MSTORE POP SWAP1 POP SWAP1 JUMP JUMPDEST PUSH1 0x60 PUSH3 0x1EF3 DUP3 PUSH3 0x188A JUMP JUMPDEST POP PUSH1 0x0 PUSH3 0x1F00 PUSH3 0x1ECF JUMP JUMPDEST SWAP1 POP PUSH1 0x0 DUP2 MLOAD GT PUSH3 0x1F22 JUMPI PUSH1 0x40 MLOAD DUP1 PUSH1 0x20 ADD PUSH1 0x40 MSTORE DUP1 PUSH1 0x0 DUP2 MSTORE POP PUSH3 0x1F51 JUMP JUMPDEST DUP1 PUSH3 0x1F2E DUP5 PUSH3 0x231D JUMP JUMPDEST PUSH1 0x40 MLOAD PUSH1 0x20 ADD PUSH3 0x1F41 SWAP3 SWAP2 SWAP1 PUSH3 0x353E JUMP JUMPDEST PUSH1 0x40 MLOAD PUSH1 0x20 DUP2 DUP4 SUB SUB DUP2 MSTORE SWAP1 PUSH1 0x40 MSTORE JUMPDEST SWAP2 POP POP SWAP2 SWAP1 POP JUMP JUMPDEST PUSH3 0x1F75 DUP3 DUP3 PUSH1 0x40 MLOAD DUP1 PUSH1 0x20 ADD PUSH1 0x40 MSTORE DUP1 PUSH1 0x0 DUP2 MSTORE POP PUSH3 0x23F6 JUMP JUMPDEST POP POP JUMP JUMPDEST DUP1 PUSH1 0x6 PUSH1 0x0 DUP5 DUP2 MSTORE PUSH1 0x20 ADD SWAP1 DUP2 MSTORE PUSH1 0x20 ADD PUSH1 0x0 KECCAK256 SWAP1 DUP2 PUSH3 0x1F9B SWAP2 SWAP1 PUSH3 0x3AB1 JUMP JUMPDEST POP PUSH32 0xF8E1A15ABA9398E019F0B49DF1A4FDE98EE17AE345CB5F6B5E2C27F5033E8CE7 DUP3 PUSH1 0x40 MLOAD PUSH3 0x1FCD SWAP2 SWAP1 PUSH3 0x2DD0 JUMP JUMPDEST PUSH1 0x40 MLOAD DUP1 SWAP2 SUB SWAP1 LOG1 POP POP JUMP JUMPDEST PUSH1 0x0 PUSH32 0x1FFC9A700000000000000000000000000000000000000000000000000000000 PUSH28 0xFFFFFFFFFFFFFFFFFFFFFFFFFFFFFFFFFFFFFFFFFFFFFFFFFFFFFFFF NOT AND DUP3 PUSH28 0xFFFFFFFFFFFFFFFFFFFFFFFFFFFFFFFFFFFFFFFFFFFFFFFFFFFFFFFF NOT AND EQ SWAP1 POP SWAP2 SWAP1 POP JUMP JUMPDEST PUSH1 0x0 PUSH1 0x2 PUSH1 0x0 DUP4 DUP2 MSTORE PUSH1 0x20 ADD SWAP1 DUP2 MSTORE PUSH1 0x20 ADD PUSH1 0x0 KECCAK256 PUSH1 0x0 SWAP1 SLOAD SWAP1 PUSH2 0x100 EXP SWAP1 DIV PUSH20 0xFFFFFFFFFFFFFFFFFFFFFFFFFFFFFFFFFFFFFFFF AND SWAP1 POP SWAP2 SWAP1 POP JUMP JUMPDEST DUP1 DUP1 PUSH3 0x20BA JUMPI POP PUSH1 0x0 PUSH20 0xFFFFFFFFFFFFFFFFFFFFFFFFFFFFFFFFFFFFFFFF AND DUP3 PUSH20 0xFFFFFFFFFFFFFFFFFFFFFFFFFFFFFFFFFFFFFFFF AND EQ ISZERO JUMPDEST ISZERO PUSH3 0x21F9 JUMPI PUSH1 0x0 PUSH3 0x20CD DUP5 PUSH3 0x188A JUMP JUMPDEST SWAP1 POP PUSH1 0x0 PUSH20 0xFFFFFFFFFFFFFFFFFFFFFFFFFFFFFFFFFFFFFFFF AND DUP4 PUSH20 0xFFFFFFFFFFFFFFFFFFFFFFFFFFFFFFFFFFFFFFFF AND EQ ISZERO DUP1 ISZERO PUSH3 0x2139 JUMPI POP DUP3 PUSH20 0xFFFFFFFFFFFFFFFFFFFFFFFFFFFFFFFFFFFFFFFF AND DUP2 PUSH20 0xFFFFFFFFFFFFFFFFFFFFFFFFFFFFFFFFFFFFFFFF AND EQ ISZERO JUMPDEST DUP1 ISZERO PUSH3 0x214F JUMPI POP PUSH3 0x214D DUP2 DUP5 PUSH3 0x16F8 JUMP JUMPDEST ISZERO JUMPDEST ISZERO PUSH3 0x2194 JUMPI DUP3 PUSH1 0x40 MLOAD PUSH32 0xA9FBF51F00000000000000000000000000000000000000000000000000000000 DUP2 MSTORE PUSH1 0x4 ADD PUSH3 0x218B SWAP2 SWAP1 PUSH3 0x2A5B JUMP JUMPDEST PUSH1 0x40 MLOAD DUP1 SWAP2 SUB SWAP1 REVERT JUMPDEST DUP2 ISZERO PUSH3 0x21F7 JUMPI DUP4 DUP6 PUSH20 0xFFFFFFFFFFFFFFFFFFFFFFFFFFFFFFFFFFFFFFFF AND DUP3 PUSH20 0xFFFFFFFFFFFFFFFFFFFFFFFFFFFFFFFFFFFFFFFF AND PUSH32 0x8C5BE1E5EBEC7D5BD14F71427D1E84F3DD0314C0F7B2291E5B200AC8C7C3B925 PUSH1 0x40 MLOAD PUSH1 0x40 MLOAD DUP1 SWAP2 SUB SWAP1 LOG4 JUMPDEST POP JUMPDEST DUP4 PUSH1 0x4 PUSH1 0x0 DUP6 DUP2 MSTORE PUSH1 0x20 ADD SWAP1 DUP2 MSTORE PUSH1 0x20 ADD PUSH1 0x0 KECCAK256 PUSH1 0x0 PUSH2 0x100 EXP DUP2 SLOAD DUP2 PUSH20 0xFFFFFFFFFFFFFFFFFFFFFFFFFFFFFFFFFFFFFFFF MUL NOT AND SWAP1 DUP4 PUSH20 0xFFFFFFFFFFFFFFFFFFFFFFFFFFFFFFFFFFFFFFFF AND MUL OR SWAP1 SSTORE POP POP POP POP POP JUMP JUMPDEST PUSH3 0x225E DUP4 DUP4 DUP4 PUSH3 0x2416 JUMP JUMPDEST PUSH3 0x2318 JUMPI PUSH1 0x0 PUSH20 0xFFFFFFFFFFFFFFFFFFFFFFFFFFFFFFFFFFFFFFFF AND DUP4 PUSH20 0xFFFFFFFFFFFFFFFFFFFFFFFFFFFFFFFFFFFFFFFF AND SUB PUSH3 0x22D7 JUMPI DUP1 PUSH1 0x40 MLOAD PUSH32 0x7E27328900000000000000000000000000000000000000000000000000000000 DUP2 MSTORE PUSH1 0x4 ADD PUSH3 0x22CE SWAP2 SWAP1 PUSH3 0x2DD0 JUMP JUMPDEST PUSH1 0x40 MLOAD DUP1 SWAP2 SUB SWAP1 REVERT JUMPDEST DUP2 DUP2 PUSH1 0x40 MLOAD PUSH32 0x177E802F00000000000000000000000000000000000000000000000000000000 DUP2 MSTORE PUSH1 0x4 ADD PUSH3 0x230F SWAP3 SWAP2 SWAP1 PUSH3 0x3B98 JUMP JUMPDEST PUSH1 0x40 MLOAD DUP1 SWAP2 SUB SWAP1 REVERT JUMPDEST POP POP POP JUMP JUMPDEST PUSH1 0x60 PUSH1 0x0 PUSH1 0x1 PUSH3 0x232E DUP5 PUSH3 0x24DE JUMP JUMPDEST ADD SWAP1 POP PUSH1 0x0 DUP2 PUSH8 0xFFFFFFFFFFFFFFFF DUP2 GT ISZERO PUSH3 0x2350 JUMPI PUSH3 0x234F PUSH3 0x2BDE JUMP JUMPDEST JUMPDEST PUSH1 0x40 MLOAD SWAP1 DUP1 DUP3 MSTORE DUP1 PUSH1 0x1F ADD PUSH1 0x1F NOT AND PUSH1 0x20 ADD DUP3 ADD PUSH1 0x40 MSTORE DUP1 ISZERO PUSH3 0x2383 JUMPI DUP2 PUSH1 0x20 ADD PUSH1 0x1 DUP3 MUL DUP1 CALLDATASIZE DUP4 CALLDATACOPY DUP1 DUP3 ADD SWAP2 POP POP SWAP1 POP JUMPDEST POP SWAP1 POP PUSH1 0x0 DUP3 PUSH1 0x20 ADD DUP3 ADD SWAP1 POP JUMPDEST PUSH1 0x1 ISZERO PUSH3 0x23EB JUMPI DUP1 DUP1 PUSH1 0x1 SWAP1 SUB SWAP2 POP POP PUSH32 0x3031323334353637383961626364656600000000000000000000000000000000 PUSH1 0xA DUP7 MOD BYTE DUP2 MSTORE8 PUSH1 0xA DUP6 DUP2 PUSH3 0x23DE JUMPI PUSH3 0x23DD PUSH3 0x3BC5 JUMP JUMPDEST JUMPDEST DIV SWAP5 POP PUSH1 0x0 DUP6 SUB PUSH3 0x2391 JUMPI JUMPDEST DUP2 SWAP4 POP POP POP POP SWAP2 SWAP1 POP JUMP JUMPDEST PUSH3 0x2402 DUP4 DUP4 PUSH3 0x264A JUMP JUMPDEST PUSH3 0x2411 PUSH1 0x0 DUP5 DUP5 DUP5 PUSH3 0x1D07 JUMP JUMPDEST POP POP POP JUMP JUMPDEST PUSH1 0x0 DUP1 PUSH20 0xFFFFFFFFFFFFFFFFFFFFFFFFFFFFFFFFFFFFFFFF AND DUP4 PUSH20 0xFFFFFFFFFFFFFFFFFFFFFFFFFFFFFFFFFFFFFFFF AND EQ ISZERO DUP1 ISZERO PUSH3 0x24D5 JUMPI POP DUP3 PUSH20 0xFFFFFFFFFFFFFFFFFFFFFFFFFFFFFFFFFFFFFFFF AND DUP5 PUSH20 0xFFFFFFFFFFFFFFFFFFFFFFFFFFFFFFFFFFFFFFFF AND EQ DUP1 PUSH3 0x2493 JUMPI POP PUSH3 0x2492 DUP5 DUP5 PUSH3 0x16F8 JUMP JUMPDEST JUMPDEST DUP1 PUSH3 0x24D4 JUMPI POP DUP3 PUSH20 0xFFFFFFFFFFFFFFFFFFFFFFFFFFFFFFFFFFFFFFFF AND PUSH3 0x24BC DUP4 PUSH3 0x1917 JUMP JUMPDEST PUSH20 0xFFFFFFFFFFFFFFFFFFFFFFFFFFFFFFFFFFFFFFFF AND EQ JUMPDEST JUMPDEST SWAP1 POP SWAP4 SWAP3 POP POP POP JUMP JUMPDEST PUSH1 0x0 DUP1 PUSH1 0x0 SWAP1 POP PUSH27 0x184F03E93FF9F4DAA797ED6E38ED64BF6A1F010000000000000000 DUP4 LT PUSH3 0x2540 JUMPI PUSH27 0x184F03E93FF9F4DAA797ED6E38ED64BF6A1F010000000000000000 DUP4 DUP2 PUSH3 0x2536 JUMPI PUSH3 0x2535 PUSH3 0x3BC5 JUMP JUMPDEST JUMPDEST DIV SWAP3 POP PUSH1 0x40 DUP2 ADD SWAP1 POP JUMPDEST PUSH14 0x4EE2D6D415B85ACEF8100000000 DUP4 LT PUSH3 0x2581 JUMPI PUSH14 0x4EE2D6D415B85ACEF8100000000 DUP4 DUP2 PUSH3 0x2577 JUMPI PUSH3 0x2576 PUSH3 0x3BC5 JUMP JUMPDEST JUMPDEST DIV SWAP3 POP PUSH1 0x20 DUP2 ADD SWAP1 POP JUMPDEST PUSH7 0x2386F26FC10000 DUP4 LT PUSH3 0x25B4 JUMPI PUSH7 0x2386F26FC10000 DUP4 DUP2 PUSH3 0x25AA JUMPI PUSH3 0x25A9 PUSH3 0x3BC5 JUMP JUMPDEST JUMPDEST DIV SWAP3 POP PUSH1 0x10 DUP2 ADD SWAP1 POP JUMPDEST PUSH4 0x5F5E100 DUP4 LT PUSH3 0x25E1 JUMPI PUSH4 0x5F5E100 DUP4 DUP2 PUSH3 0x25D7 JUMPI PUSH3 0x25D6 PUSH3 0x3BC5 JUMP JUMPDEST JUMPDEST DIV SWAP3 POP PUSH1 0x8 DUP2 ADD SWAP1 POP JUMPDEST PUSH2 0x2710 DUP4 LT PUSH3 0x260A JUMPI PUSH2 0x2710 DUP4 DUP2 PUSH3 0x2600 JUMPI PUSH3 0x25FF PUSH3 0x3BC5 JUMP JUMPDEST JUMPDEST DIV SWAP3 POP PUSH1 0x4 DUP2 ADD SWAP1 POP JUMPDEST PUSH1 0x64 DUP4 LT PUSH3 0x2631 JUMPI PUSH1 0x64 DUP4 DUP2 PUSH3 0x2627 JUMPI PUSH3 0x2626 PUSH3 0x3BC5 JUMP JUMPDEST JUMPDEST DIV SWAP3 POP PUSH1 0x2 DUP2 ADD SWAP1 POP JUMPDEST PUSH1 0xA DUP4 LT PUSH3 0x2641 JUMPI PUSH1 0x1 DUP2 ADD SWAP1 POP JUMPDEST DUP1 SWAP2 POP POP SWAP2 SWAP1 POP JUMP JUMPDEST PUSH1 0x0 PUSH20 0xFFFFFFFFFFFFFFFFFFFFFFFFFFFFFFFFFFFFFFFF AND DUP3 PUSH20 0xFFFFFFFFFFFFFFFFFFFFFFFFFFFFFFFFFFFFFFFF AND SUB PUSH3 0x26BF JUMPI PUSH1 0x0 PUSH1 0x40 MLOAD PUSH32 0x64A0AE9200000000000000000000000000000000000000000000000000000000 DUP2 MSTORE PUSH1 0x4 ADD PUSH3 0x26B6 SWAP2 SWAP1 PUSH3 0x2A5B JUMP JUMPDEST PUSH1 0x40 MLOAD DUP1 SWAP2 SUB SWAP1 REVERT JUMPDEST PUSH1 0x0 PUSH3 0x26CF DUP4 DUP4 PUSH1 0x0 PUSH3 0x1970 JUMP JUMPDEST SWAP1 POP PUSH1 0x0 PUSH20 0xFFFFFFFFFFFFFFFFFFFFFFFFFFFFFFFFFFFFFFFF AND DUP2 PUSH20 0xFFFFFFFFFFFFFFFFFFFFFFFFFFFFFFFFFFFFFFFF AND EQ PUSH3 0x2746 JUMPI PUSH1 0x0 PUSH1 0x40 MLOAD PUSH32 0x73C6AC6E00000000000000000000000000000000000000000000000000000000 DUP2 MSTORE PUSH1 0x4 ADD PUSH3 0x273D SWAP2 SWAP1 PUSH3 0x2A5B JUMP JUMPDEST PUSH1 0x40 MLOAD DUP1 SWAP2 SUB SWAP1 REVERT JUMPDEST POP POP POP JUMP JUMPDEST PUSH2 0x1982 DUP1 PUSH3 0x3BF5 DUP4 CODECOPY ADD SWAP1 JUMP JUMPDEST PUSH1 0x0 DUP2 SWAP1 POP SWAP2 SWAP1 POP JUMP JUMPDEST PUSH32 0x4E487B7100000000000000000000000000000000000000000000000000000000 PUSH1 0x0 MSTORE PUSH1 0x11 PUSH1 0x4 MSTORE PUSH1 0x24 PUSH1 0x0 REVERT JUMPDEST PUSH1 0x0 PUSH3 0x279F DUP3 PUSH3 0x2759 JUMP JUMPDEST SWAP2 POP PUSH3 0x27AC DUP4 PUSH3 0x2759 JUMP JUMPDEST SWAP3 POP DUP3 DUP3 MUL PUSH3 0x27BC DUP2 PUSH3 0x2759 JUMP JUMPDEST SWAP2 POP DUP3 DUP3 DIV DUP5 EQ DUP4 ISZERO OR PUSH3 0x27D6 JUMPI PUSH3 0x27D5 PUSH3 0x2763 JUMP JUMPDEST JUMPDEST POP SWAP3 SWAP2 POP POP JUMP JUMPDEST PUSH1 0x0 PUSH3 0x27EA DUP3 PUSH3 0x2759 JUMP JUMPDEST SWAP2 POP PUSH3 0x27F7 DUP4 PUSH3 0x2759 JUMP JUMPDEST SWAP3 POP DUP3 DUP3 ADD SWAP1 POP DUP1 DUP3 GT ISZERO PUSH3 0x2812 JUMPI PUSH3 0x2811 PUSH3 0x2763 JUMP JUMPDEST JUMPDEST SWAP3 SWAP2 POP POP JUMP JUMPDEST PUSH1 0x0 PUSH1 0x40 MLOAD SWAP1 POP SWAP1 JUMP JUMPDEST PUSH1 0x0 DUP1 REVERT JUMPDEST PUSH1 0x0 DUP1 REVERT JUMPDEST PUSH1 0x0 PUSH32 0xFFFFFFFF00000000000000000000000000000000000000000000000000000000 DUP3 AND SWAP1 POP SWAP2 SWAP1 POP JUMP JUMPDEST PUSH3 0x2863 DUP2 PUSH3 0x282C JUMP JUMPDEST DUP2 EQ PUSH3 0x286F JUMPI PUSH1 0x0 DUP1 REVERT JUMPDEST POP JUMP JUMPDEST PUSH1 0x0 DUP2 CALLDATALOAD SWAP1 POP PUSH3 0x2883 DUP2 PUSH3 0x2858 JUMP JUMPDEST SWAP3 SWAP2 POP POP JUMP JUMPDEST PUSH1 0x0 PUSH1 0x20 DUP3 DUP5 SUB SLT ISZERO PUSH3 0x28A2 JUMPI PUSH3 0x28A1 PUSH3 0x2822 JUMP JUMPDEST JUMPDEST PUSH1 0x0 PUSH3 0x28B2 DUP5 DUP3 DUP6 ADD PUSH3 0x2872 JUMP JUMPDEST SWAP2 POP POP SWAP3 SWAP2 POP POP JUMP JUMPDEST PUSH1 0x0 DUP2 ISZERO ISZERO SWAP1 POP SWAP2 SWAP1 POP JUMP JUMPDEST PUSH3 0x28D2 DUP2 PUSH3 0x28BB JUMP JUMPDEST DUP3 MSTORE POP POP JUMP JUMPDEST PUSH1 0x0 PUSH1 0x20 DUP3 ADD SWAP1 POP PUSH3 0x28EF PUSH1 0x0 DUP4 ADD DUP5 PUSH3 0x28C7 JUMP JUMPDEST SWAP3 SWAP2 POP POP JUMP JUMPDEST PUSH1 0x0 DUP2 MLOAD SWAP1 POP SWAP2 SWAP1 POP JUMP JUMPDEST PUSH1 0x0 DUP3 DUP3 MSTORE PUSH1 0x20 DUP3 ADD SWAP1 POP SWAP3 SWAP2 POP POP JUMP JUMPDEST PUSH1 0x0 JUMPDEST DUP4 DUP2 LT ISZERO PUSH3 0x2931 JUMPI DUP1 DUP3 ADD MLOAD DUP2 DUP5 ADD MSTORE PUSH1 0x20 DUP2 ADD SWAP1 POP PUSH3 0x2914 JUMP JUMPDEST PUSH1 0x0 DUP5 DUP5 ADD MSTORE POP POP POP POP JUMP JUMPDEST PUSH1 0x0 PUSH1 0x1F NOT PUSH1 0x1F DUP4 ADD AND SWAP1 POP SWAP2 SWAP1 POP JUMP JUMPDEST PUSH1 0x0 PUSH3 0x295B DUP3 PUSH3 0x28F5 JUMP JUMPDEST PUSH3 0x2967 DUP2 DUP6 PUSH3 0x2900 JUMP JUMPDEST SWAP4 POP PUSH3 0x2979 DUP2 DUP6 PUSH1 0x20 DUP7 ADD PUSH3 0x2911 JUMP JUMPDEST PUSH3 0x2984 DUP2 PUSH3 0x293D JUMP JUMPDEST DUP5 ADD SWAP2 POP POP SWAP3 SWAP2 POP POP JUMP JUMPDEST PUSH1 0x0 PUSH1 0x20 DUP3 ADD SWAP1 POP DUP2 DUP2 SUB PUSH1 0x0 DUP4 ADD MSTORE PUSH3 0x29AB DUP2 DUP5 PUSH3 0x294E JUMP JUMPDEST SWAP1 POP SWAP3 SWAP2 POP POP JUMP JUMPDEST PUSH3 0x29BE DUP2 PUSH3 0x2759 JUMP JUMPDEST DUP2 EQ PUSH3 0x29CA JUMPI PUSH1 0x0 DUP1 REVERT JUMPDEST POP JUMP JUMPDEST PUSH1 0x0 DUP2 CALLDATALOAD SWAP1 POP PUSH3 0x29DE DUP2 PUSH3 0x29B3 JUMP JUMPDEST SWAP3 SWAP2 POP POP JUMP JUMPDEST PUSH1 0x0 PUSH1 0x20 DUP3 DUP5 SUB SLT ISZERO PUSH3 0x29FD JUMPI PUSH3 0x29FC PUSH3 0x2822 JUMP JUMPDEST JUMPDEST PUSH1 0x0 PUSH3 0x2A0D DUP5 DUP3 DUP6 ADD PUSH3 0x29CD JUMP JUMPDEST SWAP2 POP POP SWAP3 SWAP2 POP POP JUMP JUMPDEST PUSH1 0x0 PUSH20 0xFFFFFFFFFFFFFFFFFFFFFFFFFFFFFFFFFFFFFFFF DUP3 AND SWAP1 POP SWAP2 SWAP1 POP JUMP JUMPDEST PUSH1 0x0 PUSH3 0x2A43 DUP3 PUSH3 0x2A16 JUMP JUMPDEST SWAP1 POP SWAP2 SWAP1 POP JUMP JUMPDEST PUSH3 0x2A55 DUP2 PUSH3 0x2A36 JUMP JUMPDEST DUP3 MSTORE POP POP JUMP JUMPDEST PUSH1 0x0 PUSH1 0x20 DUP3 ADD SWAP1 POP PUSH3 0x2A72 PUSH1 0x0 DUP4 ADD DUP5 PUSH3 0x2A4A JUMP JUMPDEST SWAP3 SWAP2 POP POP JUMP JUMPDEST PUSH3 0x2A83 DUP2 PUSH3 0x2A36 JUMP JUMPDEST DUP2 EQ PUSH3 0x2A8F JUMPI PUSH1 0x0 DUP1 REVERT JUMPDEST POP JUMP JUMPDEST PUSH1 0x0 DUP2 CALLDATALOAD SWAP1 POP PUSH3 0x2AA3 DUP2 PUSH3 0x2A78 JUMP JUMPDEST SWAP3 SWAP2 POP POP JUMP JUMPDEST PUSH1 0x0 DUP1 PUSH1 0x40 DUP4 DUP6 SUB SLT ISZERO PUSH3 0x2AC3 JUMPI PUSH3 0x2AC2 PUSH3 0x2822 JUMP JUMPDEST JUMPDEST PUSH1 0x0 PUSH3 0x2AD3 DUP6 DUP3 DUP7 ADD PUSH3 0x2A92 JUMP JUMPDEST SWAP3 POP POP PUSH1 0x20 PUSH3 0x2AE6 DUP6 DUP3 DUP7 ADD PUSH3 0x29CD JUMP JUMPDEST SWAP2 POP POP SWAP3 POP SWAP3 SWAP1 POP JUMP JUMPDEST PUSH1 0x0 DUP2 SWAP1 POP SWAP2 SWAP1 POP JUMP JUMPDEST PUSH1 0x0 PUSH3 0x2B1B PUSH3 0x2B15 PUSH3 0x2B0F DUP5 PUSH3 0x2A16 JUMP JUMPDEST PUSH3 0x2AF0 JUMP JUMPDEST PUSH3 0x2A16 JUMP JUMPDEST SWAP1 POP SWAP2 SWAP1 POP JUMP JUMPDEST PUSH1 0x0 PUSH3 0x2B2F DUP3 PUSH3 0x2AFA JUMP JUMPDEST SWAP1 POP SWAP2 SWAP1 POP JUMP JUMPDEST PUSH1 0x0 PUSH3 0x2B43 DUP3 PUSH3 0x2B22 JUMP JUMPDEST SWAP1 POP SWAP2 SWAP1 POP JUMP JUMPDEST PUSH3 0x2B55 DUP2 PUSH3 0x2B36 JUMP JUMPDEST DUP3 MSTORE POP POP JUMP JUMPDEST PUSH1 0x0 PUSH1 0x20 DUP3 ADD SWAP1 POP PUSH3 0x2B72 PUSH1 0x0 DUP4 ADD DUP5 PUSH3 0x2B4A JUMP JUMPDEST SWAP3 SWAP2 POP POP JUMP JUMPDEST PUSH1 0x0 DUP1 PUSH1 0x0 PUSH1 0x60 DUP5 DUP7 SUB SLT ISZERO PUSH3 0x2B94 JUMPI PUSH3 0x2B93 PUSH3 0x2822 JUMP JUMPDEST JUMPDEST PUSH1 0x0 PUSH3 0x2BA4 DUP7 DUP3 DUP8 ADD PUSH3 0x2A92 JUMP JUMPDEST SWAP4 POP POP PUSH1 0x20 PUSH3 0x2BB7 DUP7 DUP3 DUP8 ADD PUSH3 0x2A92 JUMP JUMPDEST SWAP3 POP POP PUSH1 0x40 PUSH3 0x2BCA DUP7 DUP3 DUP8 ADD PUSH3 0x29CD JUMP JUMPDEST SWAP2 POP POP SWAP3 POP SWAP3 POP SWAP3 JUMP JUMPDEST PUSH1 0x0 DUP1 REVERT JUMPDEST PUSH1 0x0 DUP1 REVERT JUMPDEST PUSH32 0x4E487B7100000000000000000000000000000000000000000000000000000000 PUSH1 0x0 MSTORE PUSH1 0x41 PUSH1 0x4 MSTORE PUSH1 0x24 PUSH1 0x0 REVERT JUMPDEST PUSH3 0x2C18 DUP3 PUSH3 0x293D JUMP JUMPDEST DUP2 ADD DUP2 DUP2 LT PUSH8 0xFFFFFFFFFFFFFFFF DUP3 GT OR ISZERO PUSH3 0x2C3A JUMPI PUSH3 0x2C39 PUSH3 0x2BDE JUMP JUMPDEST JUMPDEST DUP1 PUSH1 0x40 MSTORE POP POP POP JUMP JUMPDEST PUSH1 0x0 PUSH3 0x2C4F PUSH3 0x2818 JUMP JUMPDEST SWAP1 POP PUSH3 0x2C5D DUP3 DUP3 PUSH3 0x2C0D JUMP JUMPDEST SWAP2 SWAP1 POP JUMP JUMPDEST PUSH1 0x0 PUSH8 0xFFFFFFFFFFFFFFFF DUP3 GT ISZERO PUSH3 0x2C80 JUMPI PUSH3 0x2C7F PUSH3 0x2BDE JUMP JUMPDEST JUMPDEST PUSH3 0x2C8B DUP3 PUSH3 0x293D JUMP JUMPDEST SWAP1 POP PUSH1 0x20 DUP2 ADD SWAP1 POP SWAP2 SWAP1 POP JUMP JUMPDEST DUP3 DUP2 DUP4 CALLDATACOPY PUSH1 0x0 DUP4 DUP4 ADD MSTORE POP POP POP JUMP JUMPDEST PUSH1 0x0 PUSH3 0x2CBE PUSH3 0x2CB8 DUP5 PUSH3 0x2C62 JUMP JUMPDEST PUSH3 0x2C43 JUMP JUMPDEST SWAP1 POP DUP3 DUP2 MSTORE PUSH1 0x20 DUP2 ADD DUP5 DUP5 DUP5 ADD GT ISZERO PUSH3 0x2CDD JUMPI PUSH3 0x2CDC PUSH3 0x2BD9 JUMP JUMPDEST JUMPDEST PUSH3 0x2CEA DUP5 DUP3 DUP6 PUSH3 0x2C98 JUMP JUMPDEST POP SWAP4 SWAP3 POP POP POP JUMP JUMPDEST PUSH1 0x0 DUP3 PUSH1 0x1F DUP4 ADD SLT PUSH3 0x2D0A JUMPI PUSH3 0x2D09 PUSH3 0x2BD4 JUMP JUMPDEST JUMPDEST DUP2 CALLDATALOAD PUSH3 0x2D1C DUP5 DUP3 PUSH1 0x20 DUP7 ADD PUSH3 0x2CA7 JUMP JUMPDEST SWAP2 POP POP SWAP3 SWAP2 POP POP JUMP JUMPDEST PUSH1 0x0 DUP1 PUSH1 0x0 PUSH1 0x60 DUP5 DUP7 SUB SLT ISZERO PUSH3 0x2D41 JUMPI PUSH3 0x2D40 PUSH3 0x2822 JUMP JUMPDEST JUMPDEST PUSH1 0x0 DUP5 ADD CALLDATALOAD PUSH8 0xFFFFFFFFFFFFFFFF DUP2 GT ISZERO PUSH3 0x2D62 JUMPI PUSH3 0x2D61 PUSH3 0x2827 JUMP JUMPDEST JUMPDEST PUSH3 0x2D70 DUP7 DUP3 DUP8 ADD PUSH3 0x2CF2 JUMP JUMPDEST SWAP4 POP POP PUSH1 0x20 DUP5 ADD CALLDATALOAD PUSH8 0xFFFFFFFFFFFFFFFF DUP2 GT ISZERO PUSH3 0x2D94 JUMPI PUSH3 0x2D93 PUSH3 0x2827 JUMP JUMPDEST JUMPDEST PUSH3 0x2DA2 DUP7 DUP3 DUP8 ADD PUSH3 0x2CF2 JUMP JUMPDEST SWAP3 POP POP PUSH1 0x40 PUSH3 0x2DB5 DUP7 DUP3 DUP8 ADD PUSH3 0x29CD JUMP JUMPDEST SWAP2 POP POP SWAP3 POP SWAP3 POP SWAP3 JUMP JUMPDEST PUSH3 0x2DCA DUP2 PUSH3 0x2759 JUMP JUMPDEST DUP3 MSTORE POP POP JUMP JUMPDEST PUSH1 0x0 PUSH1 0x20 DUP3 ADD SWAP1 POP PUSH3 0x2DE7 PUSH1 0x0 DUP4 ADD DUP5 PUSH3 0x2DBF JUMP JUMPDEST SWAP3 SWAP2 POP POP JUMP JUMPDEST PUSH1 0x0 DUP1 PUSH1 0x40 DUP4 DUP6 SUB SLT ISZERO PUSH3 0x2E07 JUMPI PUSH3 0x2E06 PUSH3 0x2822 JUMP JUMPDEST JUMPDEST PUSH1 0x0 PUSH3 0x2E17 DUP6 DUP3 DUP7 ADD PUSH3 0x29CD JUMP JUMPDEST SWAP3 POP POP PUSH1 0x20 PUSH3 0x2E2A DUP6 DUP3 DUP7 ADD PUSH3 0x29CD JUMP JUMPDEST SWAP2 POP POP SWAP3 POP SWAP3 SWAP1 POP JUMP JUMPDEST PUSH1 0x0 PUSH1 0x20 DUP3 DUP5 SUB SLT ISZERO PUSH3 0x2E4D JUMPI PUSH3 0x2E4C PUSH3 0x2822 JUMP JUMPDEST JUMPDEST PUSH1 0x0 PUSH3 0x2E5D DUP5 DUP3 DUP6 ADD PUSH3 0x2A92 JUMP JUMPDEST SWAP2 POP POP SWAP3 SWAP2 POP POP JUMP JUMPDEST PUSH3 0x2E71 DUP2 PUSH3 0x28BB JUMP JUMPDEST DUP2 EQ PUSH3 0x2E7D JUMPI PUSH1 0x0 DUP1 REVERT JUMPDEST POP JUMP JUMPDEST PUSH1 0x0 DUP2 CALLDATALOAD SWAP1 POP PUSH3 0x2E91 DUP2 PUSH3 0x2E66 JUMP JUMPDEST SWAP3 SWAP2 POP POP JUMP JUMPDEST PUSH1 0x0 DUP1 PUSH1 0x40 DUP4 DUP6 SUB SLT ISZERO PUSH3 0x2EB1 JUMPI PUSH3 0x2EB0 PUSH3 0x2822 JUMP JUMPDEST JUMPDEST PUSH1 0x0 PUSH3 0x2EC1 DUP6 DUP3 DUP7 ADD PUSH3 0x2A92 JUMP JUMPDEST SWAP3 POP POP PUSH1 0x20 PUSH3 0x2ED4 DUP6 DUP3 DUP7 ADD PUSH3 0x2E80 JUMP JUMPDEST SWAP2 POP POP SWAP3 POP SWAP3 SWAP1 POP JUMP JUMPDEST PUSH1 0x0 PUSH8 0xFFFFFFFFFFFFFFFF DUP3 GT ISZERO PUSH3 0x2EFC JUMPI PUSH3 0x2EFB PUSH3 0x2BDE JUMP JUMPDEST JUMPDEST PUSH3 0x2F07 DUP3 PUSH3 0x293D JUMP JUMPDEST SWAP1 POP PUSH1 0x20 DUP2 ADD SWAP1 POP SWAP2 SWAP1 POP JUMP JUMPDEST PUSH1 0x0 PUSH3 0x2F2B PUSH3 0x2F25 DUP5 PUSH3 0x2EDE JUMP JUMPDEST PUSH3 0x2C43 JUMP JUMPDEST SWAP1 POP DUP3 DUP2 MSTORE PUSH1 0x20 DUP2 ADD DUP5 DUP5 DUP5 ADD GT ISZERO PUSH3 0x2F4A JUMPI PUSH3 0x2F49 PUSH3 0x2BD9 JUMP JUMPDEST JUMPDEST PUSH3 0x2F57 DUP5 DUP3 DUP6 PUSH3 0x2C98 JUMP JUMPDEST POP SWAP4 SWAP3 POP POP POP JUMP JUMPDEST PUSH1 0x0 DUP3 PUSH1 0x1F DUP4 ADD SLT PUSH3 0x2F77 JUMPI PUSH3 0x2F76 PUSH3 0x2BD4 JUMP JUMPDEST JUMPDEST DUP2 CALLDATALOAD PUSH3 0x2F89 DUP5 DUP3 PUSH1 0x20 DUP7 ADD PUSH3 0x2F14 JUMP JUMPDEST SWAP2 POP POP SWAP3 SWAP2 POP POP JUMP JUMPDEST PUSH1 0x0 DUP1 PUSH1 0x0 DUP1 PUSH1 0x80 DUP6 DUP8 SUB SLT ISZERO PUSH3 0x2FAF JUMPI PUSH3 0x2FAE PUSH3 0x2822 JUMP JUMPDEST JUMPDEST PUSH1 0x0 PUSH3 0x2FBF DUP8 DUP3 DUP9 ADD PUSH3 0x2A92 JUMP JUMPDEST SWAP5 POP POP PUSH1 0x20 PUSH3 0x2FD2 DUP8 DUP3 DUP9 ADD PUSH3 0x2A92 JUMP JUMPDEST SWAP4 POP POP PUSH1 0x40 PUSH3 0x2FE5 DUP8 DUP3 DUP9 ADD PUSH3 0x29CD JUMP JUMPDEST SWAP3 POP POP PUSH1 0x60 DUP6 ADD CALLDATALOAD PUSH8 0xFFFFFFFFFFFFFFFF DUP2 GT ISZERO PUSH3 0x3009 JUMPI PUSH3 0x3008 PUSH3 0x2827 JUMP JUMPDEST JUMPDEST PUSH3 0x3017 DUP8 DUP3 DUP9 ADD PUSH3 0x2F5F JUMP JUMPDEST SWAP2 POP POP SWAP3 SWAP6 SWAP2 SWAP5 POP SWAP3 POP JUMP JUMPDEST PUSH1 0x0 PUSH1 0xA0 DUP3 ADD SWAP1 POP DUP2 DUP2 SUB PUSH1 0x0 DUP4 ADD MSTORE PUSH3 0x303F DUP2 DUP9 PUSH3 0x294E JUMP JUMPDEST SWAP1 POP PUSH3 0x3050 PUSH1 0x20 DUP4 ADD DUP8 PUSH3 0x2DBF JUMP JUMPDEST PUSH3 0x305F PUSH1 0x40 DUP4 ADD DUP7 PUSH3 0x2DBF JUMP JUMPDEST PUSH3 0x306E PUSH1 0x60 DUP4 ADD DUP6 PUSH3 0x2DBF JUMP JUMPDEST PUSH3 0x307D PUSH1 0x80 DUP4 ADD DUP5 PUSH3 0x2DBF JUMP JUMPDEST SWAP7 SWAP6 POP POP POP POP POP POP JUMP JUMPDEST PUSH1 0x0 DUP1 PUSH1 0x40 DUP4 DUP6 SUB SLT ISZERO PUSH3 0x30A1 JUMPI PUSH3 0x30A0 PUSH3 0x2822 JUMP JUMPDEST JUMPDEST PUSH1 0x0 PUSH3 0x30B1 DUP6 DUP3 DUP7 ADD PUSH3 0x2A92 JUMP JUMPDEST SWAP3 POP POP PUSH1 0x20 PUSH3 0x30C4 DUP6 DUP3 DUP7 ADD PUSH3 0x2A92 JUMP JUMPDEST SWAP2 POP POP SWAP3 POP SWAP3 SWAP1 POP JUMP JUMPDEST PUSH32 0x4E487B7100000000000000000000000000000000000000000000000000000000 PUSH1 0x0 MSTORE PUSH1 0x22 PUSH1 0x4 MSTORE PUSH1 0x24 PUSH1 0x0 REVERT JUMPDEST PUSH1 0x0 PUSH1 0x2 DUP3 DIV SWAP1 POP PUSH1 0x1 DUP3 AND DUP1 PUSH3 0x3116 JUMPI PUSH1 0x7F DUP3 AND SWAP2 POP JUMPDEST PUSH1 0x20 DUP3 LT DUP2 SUB PUSH3 0x312C JUMPI PUSH3 0x312B PUSH3 0x30CE JUMP JUMPDEST JUMPDEST POP SWAP2 SWAP1 POP JUMP JUMPDEST PUSH1 0x0 PUSH1 0x60 DUP3 ADD SWAP1 POP PUSH3 0x3149 PUSH1 0x0 DUP4 ADD DUP7 PUSH3 0x2A4A JUMP JUMPDEST PUSH3 0x3158 PUSH1 0x20 DUP4 ADD DUP6 PUSH3 0x2DBF JUMP JUMPDEST PUSH3 0x3167 PUSH1 0x40 DUP4 ADD DUP5 PUSH3 0x2A4A JUMP JUMPDEST SWAP5 SWAP4 POP POP POP POP JUMP JUMPDEST PUSH1 0x0 PUSH3 0x317C DUP3 PUSH3 0x2A16 JUMP JUMPDEST SWAP1 POP SWAP2 SWAP1 POP JUMP JUMPDEST PUSH3 0x318E DUP2 PUSH3 0x316F JUMP JUMPDEST DUP3 MSTORE POP POP JUMP JUMPDEST PUSH1 0x0 PUSH1 0x80 DUP3 ADD SWAP1 POP PUSH3 0x31AB PUSH1 0x0 DUP4 ADD DUP8 PUSH3 0x3183 JUMP JUMPDEST DUP2 DUP2 SUB PUSH1 0x20 DUP4 ADD MSTORE PUSH3 0x31BF DUP2 DUP7 PUSH3 0x294E JUMP JUMPDEST SWAP1 POP DUP2 DUP2 SUB PUSH1 0x40 DUP4 ADD MSTORE PUSH3 0x31D5 DUP2 DUP6 PUSH3 0x294E JUMP JUMPDEST SWAP1 POP PUSH3 0x31E6 PUSH1 0x60 DUP4 ADD DUP5 PUSH3 0x2DBF JUMP JUMPDEST SWAP6 SWAP5 POP POP POP POP POP JUMP JUMPDEST PUSH1 0x0 PUSH3 0x31FC DUP3 PUSH3 0x2759 JUMP JUMPDEST SWAP2 POP PUSH32 0xFFFFFFFFFFFFFFFFFFFFFFFFFFFFFFFFFFFFFFFFFFFFFFFFFFFFFFFFFFFFFFFF DUP3 SUB PUSH3 0x3231 JUMPI PUSH3 0x3230 PUSH3 0x2763 JUMP JUMPDEST JUMPDEST PUSH1 0x1 DUP3 ADD SWAP1 POP SWAP2 SWAP1 POP JUMP JUMPDEST PUSH32 0x496E76616C69642070726F6A6563742049440000000000000000000000000000 PUSH1 0x0 DUP3 ADD MSTORE POP JUMP JUMPDEST PUSH1 0x0 PUSH3 0x3274 PUSH1 0x12 DUP4 PUSH3 0x2900 JUMP JUMPDEST SWAP2 POP PUSH3 0x3281 DUP3 PUSH3 0x323C JUMP JUMPDEST PUSH1 0x20 DUP3 ADD SWAP1 POP SWAP2 SWAP1 POP JUMP JUMPDEST PUSH1 0x0 PUSH1 0x20 DUP3 ADD SWAP1 POP DUP2 DUP2 SUB PUSH1 0x0 DUP4 ADD MSTORE PUSH3 0x32A7 DUP2 PUSH3 0x3265 JUMP JUMPDEST SWAP1 POP SWAP2 SWAP1 POP JUMP JUMPDEST PUSH32 0x496E73756666696369656E7420766F74696E6720746F6B656E73000000000000 PUSH1 0x0 DUP3 ADD MSTORE POP JUMP JUMPDEST PUSH1 0x0 PUSH3 0x32E6 PUSH1 0x1A DUP4 PUSH3 0x2900 JUMP JUMPDEST SWAP2 POP PUSH3 0x32F3 DUP3 PUSH3 0x32AE JUMP JUMPDEST PUSH1 0x20 DUP3 ADD SWAP1 POP SWAP2 SWAP1 POP JUMP JUMPDEST PUSH1 0x0 PUSH1 0x20 DUP3 ADD SWAP1 POP DUP2 DUP2 SUB PUSH1 0x0 DUP4 ADD MSTORE PUSH3 0x3319 DUP2 PUSH3 0x32D7 JUMP JUMPDEST SWAP1 POP SWAP2 SWAP1 POP JUMP JUMPDEST PUSH1 0x0 PUSH3 0x332D DUP3 PUSH3 0x2759 JUMP JUMPDEST SWAP2 POP PUSH3 0x333A DUP4 PUSH3 0x2759 JUMP JUMPDEST SWAP3 POP DUP3 DUP3 SUB SWAP1 POP DUP2 DUP2 GT ISZERO PUSH3 0x3355 JUMPI PUSH3 0x3354 PUSH3 0x2763 JUMP JUMPDEST JUMPDEST SWAP3 SWAP2 POP POP JUMP JUMPDEST PUSH1 0x0 PUSH3 0x3372 PUSH3 0x336C DUP5 PUSH3 0x2C62 JUMP JUMPDEST PUSH3 0x2C43 JUMP JUMPDEST SWAP1 POP DUP3 DUP2 MSTORE PUSH1 0x20 DUP2 ADD DUP5 DUP5 DUP5 ADD GT ISZERO PUSH3 0x3391 JUMPI PUSH3 0x3390 PUSH3 0x2BD9 JUMP JUMPDEST JUMPDEST PUSH3 0x339E DUP5 DUP3 DUP6 PUSH3 0x2911 JUMP JUMPDEST POP SWAP4 SWAP3 POP POP POP JUMP JUMPDEST PUSH1 0x0 DUP3 PUSH1 0x1F DUP4 ADD SLT PUSH3 0x33BE JUMPI PUSH3 0x33BD PUSH3 0x2BD4 JUMP JUMPDEST JUMPDEST DUP2 MLOAD PUSH3 0x33D0 DUP5 DUP3 PUSH1 0x20 DUP7 ADD PUSH3 0x335B JUMP JUMPDEST SWAP2 POP POP SWAP3 SWAP2 POP POP JUMP JUMPDEST PUSH1 0x0 PUSH1 0x20 DUP3 DUP5 SUB SLT ISZERO PUSH3 0x33F2 JUMPI PUSH3 0x33F1 PUSH3 0x2822 JUMP JUMPDEST JUMPDEST PUSH1 0x0 DUP3 ADD MLOAD PUSH8 0xFFFFFFFFFFFFFFFF DUP2 GT ISZERO PUSH3 0x3413 JUMPI PUSH3 0x3412 PUSH3 0x2827 JUMP JUMPDEST JUMPDEST PUSH3 0x3421 DUP5 DUP3 DUP6 ADD PUSH3 0x33A6 JUMP JUMPDEST SWAP2 POP POP SWAP3 SWAP2 POP POP JUMP JUMPDEST PUSH1 0x0 DUP2 MLOAD SWAP1 POP PUSH3 0x343B DUP2 PUSH3 0x29B3 JUMP JUMPDEST SWAP3 SWAP2 POP POP JUMP JUMPDEST PUSH1 0x0 PUSH1 0x20 DUP3 DUP5 SUB SLT ISZERO PUSH3 0x345A JUMPI PUSH3 0x3459 PUSH3 0x2822 JUMP JUMPDEST JUMPDEST PUSH1 0x0 PUSH3 0x346A DUP5 DUP3 DUP6 ADD PUSH3 0x342A JUMP JUMPDEST SWAP2 POP POP SWAP3 SWAP2 POP POP JUMP JUMPDEST PUSH1 0x8 DUP2 LT PUSH3 0x3481 JUMPI PUSH1 0x0 DUP1 REVERT JUMPDEST POP JUMP JUMPDEST PUSH1 0x0 DUP2 MLOAD SWAP1 POP PUSH3 0x3495 DUP2 PUSH3 0x3473 JUMP JUMPDEST SWAP3 SWAP2 POP POP JUMP JUMPDEST PUSH1 0x0 PUSH1 0x20 DUP3 DUP5 SUB SLT ISZERO PUSH3 0x34B4 JUMPI PUSH3 0x34B3 PUSH3 0x2822 JUMP JUMPDEST JUMPDEST PUSH1 0x0 PUSH3 0x34C4 DUP5 DUP3 DUP6 ADD PUSH3 0x3484 JUMP JUMPDEST SWAP2 POP POP SWAP3 SWAP2 POP POP JUMP JUMPDEST PUSH32 0x4E487B7100000000000000000000000000000000000000000000000000000000 PUSH1 0x0 MSTORE PUSH1 0x21 PUSH1 0x4 MSTORE PUSH1 0x24 PUSH1 0x0 REVERT JUMPDEST PUSH1 0x0 DUP2 SWAP1 POP SWAP3 SWAP2 POP POP JUMP JUMPDEST PUSH1 0x0 PUSH3 0x3514 DUP3 PUSH3 0x28F5 JUMP JUMPDEST PUSH3 0x3520 DUP2 DUP6 PUSH3 0x34FC JUMP JUMPDEST SWAP4 POP PUSH3 0x3532 DUP2 DUP6 PUSH1 0x20 DUP7 ADD PUSH3 0x2911 JUMP JUMPDEST DUP1 DUP5 ADD SWAP2 POP POP SWAP3 SWAP2 POP POP JUMP JUMPDEST PUSH1 0x0 PUSH3 0x354C DUP3 DUP6 PUSH3 0x3507 JUMP JUMPDEST SWAP2 POP PUSH3 0x355A DUP3 DUP5 PUSH3 0x3507 JUMP JUMPDEST SWAP2 POP DUP2 SWAP1 POP SWAP4 SWAP3 POP POP POP JUMP JUMPDEST PUSH32 0x50726F6A656374206E6F742066756E6465642079657400000000000000000000 PUSH1 0x0 DUP3 ADD MSTORE POP JUMP JUMPDEST PUSH1 0x0 PUSH3 0x359E PUSH1 0x16 DUP4 PUSH3 0x2900 JUMP JUMPDEST SWAP2 POP PUSH3 0x35AB DUP3 PUSH3 0x3566 JUMP JUMPDEST PUSH1 0x20 DUP3 ADD SWAP1 POP SWAP2 SWAP1 POP JUMP JUMPDEST PUSH1 0x0 PUSH1 0x20 DUP3 ADD SWAP1 POP DUP2 DUP2 SUB PUSH1 0x0 DUP4 ADD MSTORE PUSH3 0x35D1 DUP2 PUSH3 0x358F JUMP JUMPDEST SWAP1 POP SWAP2 SWAP1 POP JUMP JUMPDEST PUSH32 0x4E465420616C7265616479207265636569766564000000000000000000000000 PUSH1 0x0 DUP3 ADD MSTORE POP JUMP JUMPDEST PUSH1 0x0 PUSH3 0x3610 PUSH1 0x14 DUP4 PUSH3 0x2900 JUMP JUMPDEST SWAP2 POP PUSH3 0x361D DUP3 PUSH3 0x35D8 JUMP JUMPDEST PUSH1 0x20 DUP3 ADD SWAP1 POP SWAP2 SWAP1 POP JUMP JUMPDEST PUSH1 0x0 PUSH1 0x20 DUP3 ADD SWAP1 POP DUP2 DUP2 SUB PUSH1 0x0 DUP4 ADD MSTORE PUSH3 0x3643 DUP2 PUSH3 0x3601 JUMP JUMPDEST SWAP1 POP SWAP2 SWAP1 POP JUMP JUMPDEST PUSH32 0x646174613A6170706C69636174696F6E2F6A736F6E2C00000000000000000000 PUSH1 0x0 DUP3 ADD MSTORE POP JUMP JUMPDEST PUSH1 0x0 PUSH3 0x3682 PUSH1 0x16 DUP4 PUSH3 0x34FC JUMP JUMPDEST SWAP2 POP PUSH3 0x368F DUP3 PUSH3 0x364A JUMP JUMPDEST PUSH1 0x16 DUP3 ADD SWAP1 POP SWAP2 SWAP1 POP JUMP JUMPDEST PUSH32 0x7B226E616D65223A22446F6E6174696F6E204E4654222C226465736372697074 PUSH1 0x0 DUP3 ADD MSTORE PUSH32 0x696F6E223A22202B2070726F6A656374735B5F70726F6A65637449645D2E7072 PUSH1 0x20 DUP3 ADD MSTORE PUSH32 0x6F6A6563744465736372697074696F6E2829202B200000000000000000000000 PUSH1 0x40 DUP3 ADD MSTORE POP JUMP JUMPDEST PUSH1 0x0 PUSH3 0x371E PUSH1 0x55 DUP4 PUSH3 0x34FC JUMP JUMPDEST SWAP2 POP PUSH3 0x372B DUP3 PUSH3 0x369A JUMP JUMPDEST PUSH1 0x55 DUP3 ADD SWAP1 POP SWAP2 SWAP1 POP JUMP JUMPDEST PUSH1 0x0 DUP2 SWAP1 POP SWAP2 SWAP1 POP JUMP JUMPDEST PUSH3 0x3755 PUSH3 0x374F DUP3 PUSH3 0x2759 JUMP JUMPDEST PUSH3 0x3736 JUMP JUMPDEST DUP3 MSTORE POP POP JUMP JUMPDEST PUSH32 0x2045544820746F2074686520636F6E74726163742E227D000000000000000000 PUSH1 0x0 DUP3 ADD MSTORE POP JUMP JUMPDEST PUSH1 0x0 PUSH3 0x3793 PUSH1 0x17 DUP4 PUSH3 0x34FC JUMP JUMPDEST SWAP2 POP PUSH3 0x37A0 DUP3 PUSH3 0x375B JUMP JUMPDEST PUSH1 0x17 DUP3 ADD SWAP1 POP SWAP2 SWAP1 POP JUMP JUMPDEST PUSH1 0x0 PUSH3 0x37B8 DUP3 PUSH3 0x3673 JUMP JUMPDEST SWAP2 POP PUSH3 0x37C5 DUP3 PUSH3 0x370F JUMP JUMPDEST SWAP2 POP PUSH3 0x37D3 DUP3 DUP5 PUSH3 0x3740 JUMP JUMPDEST PUSH1 0x20 DUP3 ADD SWAP2 POP PUSH3 0x37E4 DUP3 PUSH3 0x3784 JUMP JUMPDEST SWAP2 POP DUP2 SWAP1 POP SWAP3 SWAP2 POP POP JUMP JUMPDEST PUSH1 0x0 DUP2 MLOAD SWAP1 POP SWAP2 SWAP1 POP JUMP JUMPDEST PUSH1 0x0 DUP3 DUP3 MSTORE PUSH1 0x20 DUP3 ADD SWAP1 POP SWAP3 SWAP2 POP POP JUMP JUMPDEST PUSH1 0x0 PUSH3 0x3818 DUP3 PUSH3 0x37EF JUMP JUMPDEST PUSH3 0x3824 DUP2 DUP6 PUSH3 0x37FA JUMP JUMPDEST SWAP4 POP PUSH3 0x3836 DUP2 DUP6 PUSH1 0x20 DUP7 ADD PUSH3 0x2911 JUMP JUMPDEST PUSH3 0x3841 DUP2 PUSH3 0x293D JUMP JUMPDEST DUP5 ADD SWAP2 POP POP SWAP3 SWAP2 POP POP JUMP JUMPDEST PUSH1 0x0 PUSH1 0x80 DUP3 ADD SWAP1 POP PUSH3 0x3863 PUSH1 0x0 DUP4 ADD DUP8 PUSH3 0x2A4A JUMP JUMPDEST PUSH3 0x3872 PUSH1 0x20 DUP4 ADD DUP7 PUSH3 0x2A4A JUMP JUMPDEST PUSH3 0x3881 PUSH1 0x40 DUP4 ADD DUP6 PUSH3 0x2DBF JUMP JUMPDEST DUP2 DUP2 SUB PUSH1 0x60 DUP4 ADD MSTORE PUSH3 0x3895 DUP2 DUP5 PUSH3 0x380B JUMP JUMPDEST SWAP1 POP SWAP6 SWAP5 POP POP POP POP POP JUMP JUMPDEST PUSH1 0x0 DUP2 MLOAD SWAP1 POP PUSH3 0x38B1 DUP2 PUSH3 0x2858 JUMP JUMPDEST SWAP3 SWAP2 POP POP JUMP JUMPDEST PUSH1 0x0 PUSH1 0x20 DUP3 DUP5 SUB SLT ISZERO PUSH3 0x38D0 JUMPI PUSH3 0x38CF PUSH3 0x2822 JUMP JUMPDEST JUMPDEST PUSH1 0x0 PUSH3 0x38E0 DUP5 DUP3 DUP6 ADD PUSH3 0x38A0 JUMP JUMPDEST SWAP2 POP POP SWAP3 SWAP2 POP POP JUMP JUMPDEST PUSH1 0x0 DUP2 SWAP1 POP DUP2 PUSH1 0x0 MSTORE PUSH1 0x20 PUSH1 0x0 KECCAK256 SWAP1 POP SWAP2 SWAP1 POP JUMP JUMPDEST PUSH1 0x0 PUSH1 0x20 PUSH1 0x1F DUP4 ADD DIV SWAP1 POP SWAP2 SWAP1 POP JUMP JUMPDEST PUSH1 0x0 DUP3 DUP3 SHL SWAP1 POP SWAP3 SWAP2 POP POP JUMP JUMPDEST PUSH1 0x0 PUSH1 0x8 DUP4 MUL PUSH3 0x394D PUSH32 0xFFFFFFFFFFFFFFFFFFFFFFFFFFFFFFFFFFFFFFFFFFFFFFFFFFFFFFFFFFFFFFFF DUP3 PUSH3 0x390E JUMP JUMPDEST PUSH3 0x3959 DUP7 DUP4 PUSH3 0x390E JUMP JUMPDEST SWAP6 POP DUP1 NOT DUP5 AND SWAP4 POP DUP1 DUP7 AND DUP5 OR SWAP3 POP POP POP SWAP4 SWAP3 POP POP POP JUMP JUMPDEST PUSH1 0x0 PUSH3 0x3992 PUSH3 0x398C PUSH3 0x3986 DUP5 PUSH3 0x2759 JUMP JUMPDEST PUSH3 0x2AF0 JUMP JUMPDEST PUSH3 0x2759 JUMP JUMPDEST SWAP1 POP SWAP2 SWAP1 POP JUMP JUMPDEST PUSH1 0x0 DUP2 SWAP1 POP SWAP2 SWAP1 POP JUMP JUMPDEST PUSH3 0x39AE DUP4 PUSH3 0x3971 JUMP JUMPDEST PUSH3 0x39C6 PUSH3 0x39BD DUP3 PUSH3 0x3999 JUMP JUMPDEST DUP5 DUP5 SLOAD PUSH3 0x391B JUMP JUMPDEST DUP3 SSTORE POP POP POP POP JUMP JUMPDEST PUSH1 0x0 SWAP1 JUMP JUMPDEST PUSH3 0x39DD PUSH3 0x39CE JUMP JUMPDEST PUSH3 0x39EA DUP2 DUP5 DUP5 PUSH3 0x39A3 JUMP JUMPDEST POP POP POP JUMP JUMPDEST JUMPDEST DUP2 DUP2 LT ISZERO PUSH3 0x3A12 JUMPI PUSH3 0x3A06 PUSH1 0x0 DUP3 PUSH3 0x39D3 JUMP JUMPDEST PUSH1 0x1 DUP2 ADD SWAP1 POP PUSH3 0x39F0 JUMP JUMPDEST POP POP JUMP JUMPDEST PUSH1 0x1F DUP3 GT ISZERO PUSH3 0x3A61 JUMPI PUSH3 0x3A2B DUP2 PUSH3 0x38E9 JUMP JUMPDEST PUSH3 0x3A36 DUP5 PUSH3 0x38FE JUMP JUMPDEST DUP2 ADD PUSH1 0x20 DUP6 LT ISZERO PUSH3 0x3A46 JUMPI DUP2 SWAP1 POP JUMPDEST PUSH3 0x3A5E PUSH3 0x3A55 DUP6 PUSH3 0x38FE JUMP JUMPDEST DUP4 ADD DUP3 PUSH3 0x39EF JUMP JUMPDEST POP POP JUMPDEST POP POP POP JUMP JUMPDEST PUSH1 0x0 DUP3 DUP3 SHR SWAP1 POP SWAP3 SWAP2 POP POP JUMP JUMPDEST PUSH1 0x0 PUSH3 0x3A86 PUSH1 0x0 NOT DUP5 PUSH1 0x8 MUL PUSH3 0x3A66 JUMP JUMPDEST NOT DUP1 DUP4 AND SWAP2 POP POP SWAP3 SWAP2 POP POP JUMP JUMPDEST PUSH1 0x0 PUSH3 0x3AA1 DUP4 DUP4 PUSH3 0x3A73 JUMP JUMPDEST SWAP2 POP DUP3 PUSH1 0x2 MUL DUP3 OR SWAP1 POP SWAP3 SWAP2 POP POP JUMP JUMPDEST PUSH3 0x3ABC DUP3 PUSH3 0x28F5 JUMP JUMPDEST PUSH8 0xFFFFFFFFFFFFFFFF DUP2 GT ISZERO PUSH3 0x3AD8 JUMPI PUSH3 0x3AD7 PUSH3 0x2BDE JUMP JUMPDEST JUMPDEST PUSH3 0x3AE4 DUP3 SLOAD PUSH3 0x30FD JUMP JUMPDEST PUSH3 0x3AF1 DUP3 DUP3 DUP6 PUSH3 0x3A16 JUMP JUMPDEST PUSH1 0x0 PUSH1 0x20 SWAP1 POP PUSH1 0x1F DUP4 GT PUSH1 0x1 DUP2 EQ PUSH3 0x3B29 JUMPI PUSH1 0x0 DUP5 ISZERO PUSH3 0x3B14 JUMPI DUP3 DUP8 ADD MLOAD SWAP1 POP JUMPDEST PUSH3 0x3B20 DUP6 DUP3 PUSH3 0x3A93 JUMP JUMPDEST DUP7 SSTORE POP PUSH3 0x3B90 JUMP JUMPDEST PUSH1 0x1F NOT DUP5 AND PUSH3 0x3B39 DUP7 PUSH3 0x38E9 JUMP JUMPDEST PUSH1 0x0 JUMPDEST DUP3 DUP2 LT ISZERO PUSH3 0x3B63 JUMPI DUP5 DUP10 ADD MLOAD DUP3 SSTORE PUSH1 0x1 DUP3 ADD SWAP2 POP PUSH1 0x20 DUP6 ADD SWAP5 POP PUSH1 0x20 DUP2 ADD SWAP1 POP PUSH3 0x3B3C JUMP JUMPDEST DUP7 DUP4 LT ISZERO PUSH3 0x3B83 JUMPI DUP5 DUP10 ADD MLOAD PUSH3 0x3B7F PUSH1 0x1F DUP10 AND DUP3 PUSH3 0x3A73 JUMP JUMPDEST DUP4 SSTORE POP JUMPDEST PUSH1 0x1 PUSH1 0x2 DUP9 MUL ADD DUP9 SSTORE POP POP POP JUMPDEST POP POP POP POP POP POP JUMP JUMPDEST PUSH1 0x0 PUSH1 0x40 DUP3 ADD SWAP1 POP PUSH3 0x3BAF PUSH1 0x0 DUP4 ADD DUP6 PUSH3 0x2A4A JUMP JUMPDEST PUSH3 0x3BBE PUSH1 0x20 DUP4 ADD DUP5 PUSH3 0x2DBF JUMP JUMPDEST SWAP4 SWAP3 POP POP POP JUMP JUMPDEST PUSH32 0x4E487B7100000000000000000000000000000000000000000000000000000000 PUSH1 0x0 MSTORE PUSH1 0x12 PUSH1 0x4 MSTORE PUSH1 0x24 PUSH1 0x0 REVERT INVALID PUSH1 0x80 PUSH1 0x40 MSTORE CALLVALUE DUP1 ISZERO PUSH3 0x11 JUMPI PUSH1 0x0 DUP1 REVERT JUMPDEST POP PUSH1 0x40 MLOAD PUSH3 0x1982 CODESIZE SUB DUP1 PUSH3 0x1982 DUP4 CODECOPY DUP2 DUP2 ADD PUSH1 0x40 MSTORE DUP2 ADD SWAP1 PUSH3 0x37 SWAP2 SWAP1 PUSH3 0x2E7 JUMP JUMPDEST DUP4 PUSH1 0x0 DUP1 PUSH2 0x100 EXP DUP2 SLOAD DUP2 PUSH20 0xFFFFFFFFFFFFFFFFFFFFFFFFFFFFFFFFFFFFFFFF MUL NOT AND SWAP1 DUP4 PUSH20 0xFFFFFFFFFFFFFFFFFFFFFFFFFFFFFFFFFFFFFFFF AND MUL OR SWAP1 SSTORE POP DUP3 PUSH1 0x1 SWAP1 DUP2 PUSH3 0x88 SWAP2 SWAP1 PUSH3 0x5D8 JUMP JUMPDEST POP DUP2 PUSH1 0x2 SWAP1 DUP2 PUSH3 0x9A SWAP2 SWAP1 PUSH3 0x5D8 JUMP JUMPDEST POP DUP1 PUSH1 0x3 DUP2 SWAP1 SSTORE POP PUSH1 0x0 PUSH1 0x4 DUP2 SWAP1 SSTORE POP POP POP POP POP PUSH3 0x6BF JUMP JUMPDEST PUSH1 0x0 PUSH1 0x40 MLOAD SWAP1 POP SWAP1 JUMP JUMPDEST PUSH1 0x0 DUP1 REVERT JUMPDEST PUSH1 0x0 DUP1 REVERT JUMPDEST PUSH1 0x0 PUSH20 0xFFFFFFFFFFFFFFFFFFFFFFFFFFFFFFFFFFFFFFFF DUP3 AND SWAP1 POP SWAP2 SWAP1 POP JUMP JUMPDEST PUSH1 0x0 PUSH3 0xF5 DUP3 PUSH3 0xC8 JUMP JUMPDEST SWAP1 POP SWAP2 SWAP1 POP JUMP JUMPDEST PUSH3 0x107 DUP2 PUSH3 0xE8 JUMP JUMPDEST DUP2 EQ PUSH3 0x113 JUMPI PUSH1 0x0 DUP1 REVERT JUMPDEST POP JUMP JUMPDEST PUSH1 0x0 DUP2 MLOAD SWAP1 POP PUSH3 0x127 DUP2 PUSH3 0xFC JUMP JUMPDEST SWAP3 SWAP2 POP POP JUMP JUMPDEST PUSH1 0x0 DUP1 REVERT JUMPDEST PUSH1 0x0 DUP1 REVERT JUMPDEST PUSH1 0x0 PUSH1 0x1F NOT PUSH1 0x1F DUP4 ADD AND SWAP1 POP SWAP2 SWAP1 POP JUMP JUMPDEST PUSH32 0x4E487B7100000000000000000000000000000000000000000000000000000000 PUSH1 0x0 MSTORE PUSH1 0x41 PUSH1 0x4 MSTORE PUSH1 0x24 PUSH1 0x0 REVERT JUMPDEST PUSH3 0x182 DUP3 PUSH3 0x137 JUMP JUMPDEST DUP2 ADD DUP2 DUP2 LT PUSH8 0xFFFFFFFFFFFFFFFF DUP3 GT OR ISZERO PUSH3 0x1A4 JUMPI PUSH3 0x1A3 PUSH3 0x148 JUMP JUMPDEST JUMPDEST DUP1 PUSH1 0x40 MSTORE POP POP POP JUMP JUMPDEST PUSH1 0x0 PUSH3 0x1B9 PUSH3 0xB4 JUMP JUMPDEST SWAP1 POP PUSH3 0x1C7 DUP3 DUP3 PUSH3 0x177 JUMP JUMPDEST SWAP2 SWAP1 POP JUMP JUMPDEST PUSH1 0x0 PUSH8 0xFFFFFFFFFFFFFFFF DUP3 GT ISZERO PUSH3 0x1EA JUMPI PUSH3 0x1E9 PUSH3 0x148 JUMP JUMPDEST JUMPDEST PUSH3 0x1F5 DUP3 PUSH3 0x137 JUMP JUMPDEST SWAP1 POP PUSH1 0x20 DUP2 ADD SWAP1 POP SWAP2 SWAP1 POP JUMP JUMPDEST PUSH1 0x0 JUMPDEST DUP4 DUP2 LT ISZERO PUSH3 0x222 JUMPI DUP1 DUP3 ADD MLOAD DUP2 DUP5 ADD MSTORE PUSH1 0x20 DUP2 ADD SWAP1 POP PUSH3 0x205 JUMP JUMPDEST PUSH1 0x0 DUP5 DUP5 ADD MSTORE POP POP POP POP JUMP JUMPDEST PUSH1 0x0 PUSH3 0x245 PUSH3 0x23F DUP5 PUSH3 0x1CC JUMP JUMPDEST PUSH3 0x1AD JUMP JUMPDEST SWAP1 POP DUP3 DUP2 MSTORE PUSH1 0x20 DUP2 ADD DUP5 DUP5 DUP5 ADD GT ISZERO PUSH3 0x264 JUMPI PUSH3 0x263 PUSH3 0x132 JUMP JUMPDEST JUMPDEST PUSH3 0x271 DUP5 DUP3 DUP6 PUSH3 0x202 JUMP JUMPDEST POP SWAP4 SWAP3 POP POP POP JUMP JUMPDEST PUSH1 0x0 DUP3 PUSH1 0x1F DUP4 ADD SLT PUSH3 0x291 JUMPI PUSH3 0x290 PUSH3 0x12D JUMP JUMPDEST JUMPDEST DUP2 MLOAD PUSH3 0x2A3 DUP5 DUP3 PUSH1 0x20 DUP7 ADD PUSH3 0x22E JUMP JUMPDEST SWAP2 POP POP SWAP3 SWAP2 POP POP JUMP JUMPDEST PUSH1 0x0 DUP2 SWAP1 POP SWAP2 SWAP1 POP JUMP JUMPDEST PUSH3 0x2C1 DUP2 PUSH3 0x2AC JUMP JUMPDEST DUP2 EQ PUSH3 0x2CD JUMPI PUSH1 0x0 DUP1 REVERT JUMPDEST POP JUMP JUMPDEST PUSH1 0x0 DUP2 MLOAD SWAP1 POP PUSH3 0x2E1 DUP2 PUSH3 0x2B6 JUMP JUMPDEST SWAP3 SWAP2 POP POP JUMP JUMPDEST PUSH1 0x0 DUP1 PUSH1 0x0 DUP1 PUSH1 0x80 DUP6 DUP8 SUB SLT ISZERO PUSH3 0x304 JUMPI PUSH3 0x303 PUSH3 0xBE JUMP JUMPDEST JUMPDEST PUSH1 0x0 PUSH3 0x314 DUP8 DUP3 DUP9 ADD PUSH3 0x116 JUMP JUMPDEST SWAP5 POP POP PUSH1 0x20 DUP6 ADD MLOAD PUSH8 0xFFFFFFFFFFFFFFFF DUP2 GT ISZERO PUSH3 0x338 JUMPI PUSH3 0x337 PUSH3 0xC3 JUMP JUMPDEST JUMPDEST PUSH3 0x346 DUP8 DUP3 DUP9 ADD PUSH3 0x279 JUMP JUMPDEST SWAP4 POP POP PUSH1 0x40 DUP6 ADD MLOAD PUSH8 0xFFFFFFFFFFFFFFFF DUP2 GT ISZERO PUSH3 0x36A JUMPI PUSH3 0x369 PUSH3 0xC3 JUMP JUMPDEST JUMPDEST PUSH3 0x378 DUP8 DUP3 DUP9 ADD PUSH3 0x279 JUMP JUMPDEST SWAP3 POP POP PUSH1 0x60 PUSH3 0x38B DUP8 DUP3 DUP9 ADD PUSH3 0x2D0 JUMP JUMPDEST SWAP2 POP POP SWAP3 SWAP6 SWAP2 SWAP5 POP SWAP3 POP JUMP JUMPDEST PUSH1 0x0 DUP2 MLOAD SWAP1 POP SWAP2 SWAP1 POP JUMP JUMPDEST PUSH32 0x4E487B7100000000000000000000000000000000000000000000000000000000 PUSH1 0x0 MSTORE PUSH1 0x22 PUSH1 0x4 MSTORE PUSH1 0x24 PUSH1 0x0 REVERT JUMPDEST PUSH1 0x0 PUSH1 0x2 DUP3 DIV SWAP1 POP PUSH1 0x1 DUP3 AND DUP1 PUSH3 0x3EA JUMPI PUSH1 0x7F DUP3 AND SWAP2 POP JUMPDEST PUSH1 0x20 DUP3 LT DUP2 SUB PUSH3 0x400 JUMPI PUSH3 0x3FF PUSH3 0x3A2 JUMP JUMPDEST JUMPDEST POP SWAP2 SWAP1 POP JUMP JUMPDEST PUSH1 0x0 DUP2 SWAP1 POP DUP2 PUSH1 0x0 MSTORE PUSH1 0x20 PUSH1 0x0 KECCAK256 SWAP1 POP SWAP2 SWAP1 POP JUMP JUMPDEST PUSH1 0x0 PUSH1 0x20 PUSH1 0x1F DUP4 ADD DIV SWAP1 POP SWAP2 SWAP1 POP JUMP JUMPDEST PUSH1 0x0 DUP3 DUP3 SHL SWAP1 POP SWAP3 SWAP2 POP POP JUMP JUMPDEST PUSH1 0x0 PUSH1 0x8 DUP4 MUL PUSH3 0x46A PUSH32 0xFFFFFFFFFFFFFFFFFFFFFFFFFFFFFFFFFFFFFFFFFFFFFFFFFFFFFFFFFFFFFFFF DUP3 PUSH3 0x42B JUMP JUMPDEST PUSH3 0x476 DUP7 DUP4 PUSH3 0x42B JUMP JUMPDEST SWAP6 POP DUP1 NOT DUP5 AND SWAP4 POP DUP1 DUP7 AND DUP5 OR SWAP3 POP POP POP SWAP4 SWAP3 POP POP POP JUMP JUMPDEST PUSH1 0x0 DUP2 SWAP1 POP SWAP2 SWAP1 POP JUMP JUMPDEST PUSH1 0x0 PUSH3 0x4B9 PUSH3 0x4B3 PUSH3 0x4AD DUP5 PUSH3 0x2AC JUMP JUMPDEST PUSH3 0x48E JUMP JUMPDEST PUSH3 0x2AC JUMP JUMPDEST SWAP1 POP SWAP2 SWAP1 POP JUMP JUMPDEST PUSH1 0x0 DUP2 SWAP1 POP SWAP2 SWAP1 POP JUMP JUMPDEST PUSH3 0x4D5 DUP4 PUSH3 0x498 JUMP JUMPDEST PUSH3 0x4ED PUSH3 0x4E4 DUP3 PUSH3 0x4C0 JUMP JUMPDEST DUP5 DUP5 SLOAD PUSH3 0x438 JUMP JUMPDEST DUP3 SSTORE POP POP POP POP JUMP JUMPDEST PUSH1 0x0 SWAP1 JUMP JUMPDEST PUSH3 0x504 PUSH3 0x4F5 JUMP JUMPDEST PUSH3 0x511 DUP2 DUP5 DUP5 PUSH3 0x4CA JUMP JUMPDEST POP POP POP JUMP JUMPDEST JUMPDEST DUP2 DUP2 LT ISZERO PUSH3 0x539 JUMPI PUSH3 0x52D PUSH1 0x0 DUP3 PUSH3 0x4FA JUMP JUMPDEST PUSH1 0x1 DUP2 ADD SWAP1 POP PUSH3 0x517 JUMP JUMPDEST POP POP JUMP JUMPDEST PUSH1 0x1F DUP3 GT ISZERO PUSH3 0x588 JUMPI PUSH3 0x552 DUP2 PUSH3 0x406 JUMP JUMPDEST PUSH3 0x55D DUP5 PUSH3 0x41B JUMP JUMPDEST DUP2 ADD PUSH1 0x20 DUP6 LT ISZERO PUSH3 0x56D JUMPI DUP2 SWAP1 POP JUMPDEST PUSH3 0x585 PUSH3 0x57C DUP6 PUSH3 0x41B JUMP JUMPDEST DUP4 ADD DUP3 PUSH3 0x516 JUMP JUMPDEST POP POP JUMPDEST POP POP POP JUMP JUMPDEST PUSH1 0x0 DUP3 DUP3 SHR SWAP1 POP SWAP3 SWAP2 POP POP JUMP JUMPDEST PUSH1 0x0 PUSH3 0x5AD PUSH1 0x0 NOT DUP5 PUSH1 0x8 MUL PUSH3 0x58D JUMP JUMPDEST NOT DUP1 DUP4 AND SWAP2 POP POP SWAP3 SWAP2 POP POP JUMP JUMPDEST PUSH1 0x0 PUSH3 0x5C8 DUP4 DUP4 PUSH3 0x59A JUMP JUMPDEST SWAP2 POP DUP3 PUSH1 0x2 MUL DUP3 OR SWAP1 POP SWAP3 SWAP2 POP POP JUMP JUMPDEST PUSH3 0x5E3 DUP3 PUSH3 0x397 JUMP JUMPDEST PUSH8 0xFFFFFFFFFFFFFFFF DUP2 GT ISZERO PUSH3 0x5FF JUMPI PUSH3 0x5FE PUSH3 0x148 JUMP JUMPDEST JUMPDEST PUSH3 0x60B DUP3 SLOAD PUSH3 0x3D1 JUMP JUMPDEST PUSH3 0x618 DUP3 DUP3 DUP6 PUSH3 0x53D JUMP JUMPDEST PUSH1 0x0 PUSH1 0x20 SWAP1 POP PUSH1 0x1F DUP4 GT PUSH1 0x1 DUP2 EQ PUSH3 0x650 JUMPI PUSH1 0x0 DUP5 ISZERO PUSH3 0x63B JUMPI DUP3 DUP8 ADD MLOAD SWAP1 POP JUMPDEST PUSH3 0x647 DUP6 DUP3 PUSH3 0x5BA JUMP JUMPDEST DUP7 SSTORE POP PUSH3 0x6B7 JUMP JUMPDEST PUSH1 0x1F NOT DUP5 AND PUSH3 0x660 DUP7 PUSH3 0x406 JUMP JUMPDEST PUSH1 0x0 JUMPDEST DUP3 DUP2 LT ISZERO PUSH3 0x68A JUMPI DUP5 DUP10 ADD MLOAD DUP3 SSTORE PUSH1 0x1 DUP3 ADD SWAP2 POP PUSH1 0x20 DUP6 ADD SWAP5 POP PUSH1 0x20 DUP2 ADD SWAP1 POP PUSH3 0x663 JUMP JUMPDEST DUP7 DUP4 LT ISZERO PUSH3 0x6AA JUMPI DUP5 DUP10 ADD MLOAD PUSH3 0x6A6 PUSH1 0x1F DUP10 AND DUP3 PUSH3 0x59A JUMP JUMPDEST DUP4 SSTORE POP JUMPDEST PUSH1 0x1 PUSH1 0x2 DUP9 MUL ADD DUP9 SSTORE POP POP POP JUMPDEST POP POP POP POP POP POP JUMP JUMPDEST PUSH2 0x12B3 DUP1 PUSH3 0x6CF PUSH1 0x0 CODECOPY PUSH1 0x0 RETURN INVALID PUSH1 0x80 PUSH1 0x40 MSTORE CALLVALUE DUP1 ISZERO PUSH2 0x10 JUMPI PUSH1 0x0 DUP1 REVERT JUMPDEST POP PUSH1 0x4 CALLDATASIZE LT PUSH2 0xEA JUMPI PUSH1 0x0 CALLDATALOAD PUSH1 0xE0 SHR DUP1 PUSH4 0xA4475CE4 GT PUSH2 0x8C JUMPI DUP1 PUSH4 0xC3E20C9F GT PUSH2 0x66 JUMPI DUP1 PUSH4 0xC3E20C9F EQ PUSH2 0x1EF JUMPI DUP1 PUSH4 0xC7656F6E EQ PUSH2 0x20D JUMPI DUP1 PUSH4 0xD8BFF5A5 EQ PUSH2 0x217 JUMPI DUP1 PUSH4 0xE6120413 EQ PUSH2 0x247 JUMPI PUSH2 0xEA JUMP JUMPDEST DUP1 PUSH4 0xA4475CE4 EQ PUSH2 0x1A9 JUMPI DUP1 PUSH4 0xC19D93FB EQ PUSH2 0x1C7 JUMPI DUP1 PUSH4 0xC3966409 EQ PUSH2 0x1E5 JUMPI PUSH2 0xEA JUMP JUMPDEST DUP1 PUSH4 0x1EC6B60A GT PUSH2 0xC8 JUMPI DUP1 PUSH4 0x1EC6B60A EQ PUSH2 0x159 JUMPI DUP1 PUSH4 0x3C68EB81 EQ PUSH2 0x163 JUMPI DUP1 PUSH4 0x755F047B EQ PUSH2 0x16D JUMPI DUP1 PUSH4 0x7A3A0E84 EQ PUSH2 0x18B JUMPI PUSH2 0xEA JUMP JUMPDEST DUP1 PUSH4 0x121B93F EQ PUSH2 0xEF JUMPI DUP1 PUSH4 0x888B70D EQ PUSH2 0x10B JUMPI DUP1 PUSH4 0x1479197F EQ PUSH2 0x129 JUMPI JUMPDEST PUSH1 0x0 DUP1 REVERT JUMPDEST PUSH2 0x109 PUSH1 0x4 DUP1 CALLDATASIZE SUB DUP2 ADD SWAP1 PUSH2 0x104 SWAP2 SWAP1 PUSH2 0x8A8 JUMP JUMPDEST PUSH2 0x263 JUMP JUMPDEST STOP JUMPDEST PUSH2 0x113 PUSH2 0x31A JUMP JUMPDEST PUSH1 0x40 MLOAD PUSH2 0x120 SWAP2 SWAP1 PUSH2 0x8E4 JUMP JUMPDEST PUSH1 0x40 MLOAD DUP1 SWAP2 SUB SWAP1 RETURN JUMPDEST PUSH2 0x143 PUSH1 0x4 DUP1 CALLDATASIZE SUB DUP2 ADD SWAP1 PUSH2 0x13E SWAP2 SWAP1 PUSH2 0x95D JUMP JUMPDEST PUSH2 0x320 JUMP JUMPDEST PUSH1 0x40 MLOAD PUSH2 0x150 SWAP2 SWAP1 PUSH2 0x8E4 JUMP JUMPDEST PUSH1 0x40 MLOAD DUP1 SWAP2 SUB SWAP1 RETURN JUMPDEST PUSH2 0x161 PUSH2 0x369 JUMP JUMPDEST STOP JUMPDEST PUSH2 0x16B PUSH2 0x3EB JUMP JUMPDEST STOP JUMPDEST PUSH2 0x175 PUSH2 0x49D JUMP JUMPDEST PUSH1 0x40 MLOAD PUSH2 0x182 SWAP2 SWAP1 PUSH2 0xA1A JUMP JUMPDEST PUSH1 0x40 MLOAD DUP1 SWAP2 SUB SWAP1 RETURN JUMPDEST PUSH2 0x193 PUSH2 0x52B JUMP JUMPDEST PUSH1 0x40 MLOAD PUSH2 0x1A0 SWAP2 SWAP1 PUSH2 0x8E4 JUMP JUMPDEST PUSH1 0x40 MLOAD DUP1 SWAP2 SUB SWAP1 RETURN JUMPDEST PUSH2 0x1B1 PUSH2 0x531 JUMP JUMPDEST PUSH1 0x40 MLOAD PUSH2 0x1BE SWAP2 SWAP1 PUSH2 0xA5D JUMP JUMPDEST PUSH1 0x40 MLOAD DUP1 SWAP2 SUB SWAP1 RETURN JUMPDEST PUSH2 0x1CF PUSH2 0x555 JUMP JUMPDEST PUSH1 0x40 MLOAD PUSH2 0x1DC SWAP2 SWAP1 PUSH2 0xAEF JUMP JUMPDEST PUSH1 0x40 MLOAD DUP1 SWAP2 SUB SWAP1 RETURN JUMPDEST PUSH2 0x1ED PUSH2 0x568 JUMP JUMPDEST STOP JUMPDEST PUSH2 0x1F7 PUSH2 0x5EA JUMP JUMPDEST PUSH1 0x40 MLOAD PUSH2 0x204 SWAP2 SWAP1 PUSH2 0xA1A JUMP JUMPDEST PUSH1 0x40 MLOAD DUP1 SWAP2 SUB SWAP1 RETURN JUMPDEST PUSH2 0x215 PUSH2 0x678 JUMP JUMPDEST STOP JUMPDEST PUSH2 0x231 PUSH1 0x4 DUP1 CALLDATASIZE SUB DUP2 ADD SWAP1 PUSH2 0x22C SWAP2 SWAP1 PUSH2 0x95D JUMP JUMPDEST PUSH2 0x741 JUMP JUMPDEST PUSH1 0x40 MLOAD PUSH2 0x23E SWAP2 SWAP1 PUSH2 0x8E4 JUMP JUMPDEST PUSH1 0x40 MLOAD DUP1 SWAP2 SUB SWAP1 RETURN JUMPDEST PUSH2 0x261 PUSH1 0x4 DUP1 CALLDATASIZE SUB DUP2 ADD SWAP1 PUSH2 0x25C SWAP2 SWAP1 PUSH2 0xC3F JUMP JUMPDEST PUSH2 0x759 JUMP JUMPDEST STOP JUMPDEST DUP1 PUSH1 0x5 PUSH1 0x0 CALLER PUSH20 0xFFFFFFFFFFFFFFFFFFFFFFFFFFFFFFFFFFFFFFFF AND PUSH20 0xFFFFFFFFFFFFFFFFFFFFFFFFFFFFFFFFFFFFFFFF AND DUP2 MSTORE PUSH1 0x20 ADD SWAP1 DUP2 MSTORE PUSH1 0x20 ADD PUSH1 0x0 KECCAK256 PUSH1 0x0 DUP3 DUP3 SLOAD PUSH2 0x2B2 SWAP2 SWAP1 PUSH2 0xCB7 JUMP JUMPDEST SWAP3 POP POP DUP2 SWAP1 SSTORE POP DUP1 PUSH1 0x4 PUSH1 0x0 DUP3 DUP3 SLOAD PUSH2 0x2CB SWAP2 SWAP1 PUSH2 0xCB7 JUMP JUMPDEST SWAP3 POP POP DUP2 SWAP1 SSTORE POP PUSH1 0x3 SLOAD PUSH1 0x4 SLOAD LT PUSH2 0x317 JUMPI PUSH32 0xBDF8E8154212732E32053DB049ACCDD4FF27639D7028ECF127E2353161B994BF PUSH1 0x4 SLOAD PUSH1 0x40 MLOAD PUSH2 0x30E SWAP2 SWAP1 PUSH2 0x8E4 JUMP JUMPDEST PUSH1 0x40 MLOAD DUP1 SWAP2 SUB SWAP1 LOG1 JUMPDEST POP JUMP JUMPDEST PUSH1 0x4 SLOAD DUP2 JUMP JUMPDEST PUSH1 0x0 PUSH1 0x5 PUSH1 0x0 DUP4 PUSH20 0xFFFFFFFFFFFFFFFFFFFFFFFFFFFFFFFFFFFFFFFF AND PUSH20 0xFFFFFFFFFFFFFFFFFFFFFFFFFFFFFFFFFFFFFFFF AND DUP2 MSTORE PUSH1 0x20 ADD SWAP1 DUP2 MSTORE PUSH1 0x20 ADD PUSH1 0x0 KECCAK256 SLOAD SWAP1 POP SWAP2 SWAP1 POP JUMP JUMPDEST PUSH1 0x2 PUSH1 0x7 DUP2 GT ISZERO PUSH2 0x37D JUMPI PUSH2 0x37C PUSH2 0xA78 JUMP JUMPDEST JUMPDEST PUSH1 0x6 PUSH1 0x0 SWAP1 SLOAD SWAP1 PUSH2 0x100 EXP SWAP1 DIV PUSH1 0xFF AND PUSH1 0x7 DUP2 GT ISZERO PUSH2 0x39F JUMPI PUSH2 0x39E PUSH2 0xA78 JUMP JUMPDEST JUMPDEST SUB PUSH2 0x3DF JUMPI PUSH1 0x40 MLOAD PUSH32 0x8C379A000000000000000000000000000000000000000000000000000000000 DUP2 MSTORE PUSH1 0x4 ADD PUSH2 0x3D6 SWAP1 PUSH2 0xD5D JUMP JUMPDEST PUSH1 0x40 MLOAD DUP1 SWAP2 SUB SWAP1 REVERT JUMPDEST PUSH2 0x3E9 PUSH1 0x2 PUSH2 0x7FA JUMP JUMPDEST JUMP JUMPDEST PUSH1 0x3 SLOAD PUSH1 0x4 SLOAD LT ISZERO PUSH2 0x432 JUMPI PUSH1 0x40 MLOAD PUSH32 0x8C379A000000000000000000000000000000000000000000000000000000000 DUP2 MSTORE PUSH1 0x4 ADD PUSH2 0x429 SWAP1 PUSH2 0xDC9 JUMP JUMPDEST PUSH1 0x40 MLOAD DUP1 SWAP2 SUB SWAP1 REVERT JUMPDEST PUSH1 0x0 DUP1 SLOAD SWAP1 PUSH2 0x100 EXP SWAP1 DIV PUSH20 0xFFFFFFFFFFFFFFFFFFFFFFFFFFFFFFFFFFFFFFFF AND PUSH20 0xFFFFFFFFFFFFFFFFFFFFFFFFFFFFFFFFFFFFFFFF AND PUSH2 0x8FC PUSH1 0x4 SLOAD SWAP1 DUP2 ISZERO MUL SWAP1 PUSH1 0x40 MLOAD PUSH1 0x0 PUSH1 0x40 MLOAD DUP1 DUP4 SUB DUP2 DUP6 DUP9 DUP9 CALL SWAP4 POP POP POP POP ISZERO DUP1 ISZERO PUSH2 0x49A JUMPI RETURNDATASIZE PUSH1 0x0 DUP1 RETURNDATACOPY RETURNDATASIZE PUSH1 0x0 REVERT JUMPDEST POP JUMP JUMPDEST PUSH1 0x2 DUP1 SLOAD PUSH2 0x4AA SWAP1 PUSH2 0xE18 JUMP JUMPDEST DUP1 PUSH1 0x1F ADD PUSH1 0x20 DUP1 SWAP2 DIV MUL PUSH1 0x20 ADD PUSH1 0x40 MLOAD SWAP1 DUP2 ADD PUSH1 0x40 MSTORE DUP1 SWAP3 SWAP2 SWAP1 DUP2 DUP2 MSTORE PUSH1 0x20 ADD DUP3 DUP1 SLOAD PUSH2 0x4D6 SWAP1 PUSH2 0xE18 JUMP JUMPDEST DUP1 ISZERO PUSH2 0x523 JUMPI DUP1 PUSH1 0x1F LT PUSH2 0x4F8 JUMPI PUSH2 0x100 DUP1 DUP4 SLOAD DIV MUL DUP4 MSTORE SWAP2 PUSH1 0x20 ADD SWAP2 PUSH2 0x523 JUMP JUMPDEST DUP3 ADD SWAP2 SWAP1 PUSH1 0x0 MSTORE PUSH1 0x20 PUSH1 0x0 KECCAK256 SWAP1 JUMPDEST DUP2 SLOAD DUP2 MSTORE SWAP1 PUSH1 0x1 ADD SWAP1 PUSH1 0x20 ADD DUP1 DUP4 GT PUSH2 0x506 JUMPI DUP3 SWAP1 SUB PUSH1 0x1F AND DUP3 ADD SWAP2 JUMPDEST POP POP POP POP POP DUP2 JUMP JUMPDEST PUSH1 0x3 SLOAD DUP2 JUMP JUMPDEST PUSH1 0x0 DUP1 SLOAD SWAP1 PUSH2 0x100 EXP SWAP1 DIV PUSH20 0xFFFFFFFFFFFFFFFFFFFFFFFFFFFFFFFFFFFFFFFF AND DUP2 JUMP JUMPDEST PUSH1 0x6 PUSH1 0x0 SWAP1 SLOAD SWAP1 PUSH2 0x100 EXP SWAP1 DIV PUSH1 0xFF AND DUP2 JUMP JUMPDEST PUSH1 0x4 PUSH1 0x7 DUP2 GT ISZERO PUSH2 0x57C JUMPI PUSH2 0x57B PUSH2 0xA78 JUMP JUMPDEST JUMPDEST PUSH1 0x6 PUSH1 0x0 SWAP1 SLOAD SWAP1 PUSH2 0x100 EXP SWAP1 DIV PUSH1 0xFF AND PUSH1 0x7 DUP2 GT ISZERO PUSH2 0x59E JUMPI PUSH2 0x59D PUSH2 0xA78 JUMP JUMPDEST JUMPDEST EQ PUSH2 0x5DE JUMPI PUSH1 0x40 MLOAD PUSH32 0x8C379A000000000000000000000000000000000000000000000000000000000 DUP2 MSTORE PUSH1 0x4 ADD PUSH2 0x5D5 SWAP1 PUSH2 0xEBB JUMP JUMPDEST PUSH1 0x40 MLOAD DUP1 SWAP2 SUB SWAP1 REVERT JUMPDEST PUSH2 0x5E8 PUSH1 0x5 PUSH2 0x7FA JUMP JUMPDEST JUMP JUMPDEST PUSH1 0x1 DUP1 SLOAD PUSH2 0x5F7 SWAP1 PUSH2 0xE18 JUMP JUMPDEST DUP1 PUSH1 0x1F ADD PUSH1 0x20 DUP1 SWAP2 DIV MUL PUSH1 0x20 ADD PUSH1 0x40 MLOAD SWAP1 DUP2 ADD PUSH1 0x40 MSTORE DUP1 SWAP3 SWAP2 SWAP1 DUP2 DUP2 MSTORE PUSH1 0x20 ADD DUP3 DUP1 SLOAD PUSH2 0x623 SWAP1 PUSH2 0xE18 JUMP JUMPDEST DUP1 ISZERO PUSH2 0x670 JUMPI DUP1 PUSH1 0x1F LT PUSH2 0x645 JUMPI PUSH2 0x100 DUP1 DUP4 SLOAD DIV MUL DUP4 MSTORE SWAP2 PUSH1 0x20 ADD SWAP2 PUSH2 0x670 JUMP JUMPDEST DUP3 ADD SWAP2 SWAP1 PUSH1 0x0 MSTORE PUSH1 0x20 PUSH1 0x0 KECCAK256 SWAP1 JUMPDEST DUP2 SLOAD DUP2 MSTORE SWAP1 PUSH1 0x1 ADD SWAP1 PUSH1 0x20 ADD DUP1 DUP4 GT PUSH2 0x653 JUMPI DUP3 SWAP1 SUB PUSH1 0x1F AND DUP3 ADD SWAP2 JUMPDEST POP POP POP POP POP DUP2 JUMP JUMPDEST PUSH1 0x2 PUSH1 0x7 DUP2 GT ISZERO PUSH2 0x68C JUMPI PUSH2 0x68B PUSH2 0xA78 JUMP JUMPDEST JUMPDEST PUSH1 0x6 PUSH1 0x0 SWAP1 SLOAD SWAP1 PUSH2 0x100 EXP SWAP1 DIV PUSH1 0xFF AND PUSH1 0x7 DUP2 GT ISZERO PUSH2 0x6AE JUMPI PUSH2 0x6AD PUSH2 0xA78 JUMP JUMPDEST JUMPDEST EQ PUSH2 0x6EE JUMPI PUSH1 0x40 MLOAD PUSH32 0x8C379A000000000000000000000000000000000000000000000000000000000 DUP2 MSTORE PUSH1 0x4 ADD PUSH2 0x6E5 SWAP1 PUSH2 0xF4D JUMP JUMPDEST PUSH1 0x40 MLOAD DUP1 SWAP2 SUB SWAP1 REVERT JUMPDEST PUSH1 0x3 SLOAD PUSH1 0x4 SLOAD LT ISZERO PUSH2 0x735 JUMPI PUSH1 0x40 MLOAD PUSH32 0x8C379A000000000000000000000000000000000000000000000000000000000 DUP2 MSTORE PUSH1 0x4 ADD PUSH2 0x72C SWAP1 PUSH2 0xDC9 JUMP JUMPDEST PUSH1 0x40 MLOAD DUP1 SWAP2 SUB SWAP1 REVERT JUMPDEST PUSH2 0x73F PUSH1 0x4 PUSH2 0x7FA JUMP JUMPDEST JUMP JUMPDEST PUSH1 0x5 PUSH1 0x20 MSTORE DUP1 PUSH1 0x0 MSTORE PUSH1 0x40 PUSH1 0x0 KECCAK256 PUSH1 0x0 SWAP2 POP SWAP1 POP SLOAD DUP2 JUMP JUMPDEST PUSH1 0x0 DUP1 SLOAD SWAP1 PUSH2 0x100 EXP SWAP1 DIV PUSH20 0xFFFFFFFFFFFFFFFFFFFFFFFFFFFFFFFFFFFFFFFF AND PUSH20 0xFFFFFFFFFFFFFFFFFFFFFFFFFFFFFFFFFFFFFFFF AND CALLER PUSH20 0xFFFFFFFFFFFFFFFFFFFFFFFFFFFFFFFFFFFFFFFF AND EQ PUSH2 0x7E7 JUMPI PUSH1 0x40 MLOAD PUSH32 0x8C379A000000000000000000000000000000000000000000000000000000000 DUP2 MSTORE PUSH1 0x4 ADD PUSH2 0x7DE SWAP1 PUSH2 0xFDF JUMP JUMPDEST PUSH1 0x40 MLOAD DUP1 SWAP2 SUB SWAP1 REVERT JUMPDEST DUP1 PUSH1 0x2 SWAP1 DUP2 PUSH2 0x7F6 SWAP2 SWAP1 PUSH2 0x11AB JUMP JUMPDEST POP POP JUMP JUMPDEST DUP1 PUSH1 0x6 PUSH1 0x0 PUSH2 0x100 EXP DUP2 SLOAD DUP2 PUSH1 0xFF MUL NOT AND SWAP1 DUP4 PUSH1 0x7 DUP2 GT ISZERO PUSH2 0x81F JUMPI PUSH2 0x81E PUSH2 0xA78 JUMP JUMPDEST JUMPDEST MUL OR SWAP1 SSTORE POP PUSH32 0x551DC40198CC79684BB69E4931DBA4AC16E4598792EE1C0A5000AEEA366D7BB6 DUP2 PUSH1 0x40 MLOAD PUSH2 0x853 SWAP2 SWAP1 PUSH2 0xAEF JUMP JUMPDEST PUSH1 0x40 MLOAD DUP1 SWAP2 SUB SWAP1 LOG1 POP JUMP JUMPDEST PUSH1 0x0 PUSH1 0x40 MLOAD SWAP1 POP SWAP1 JUMP JUMPDEST PUSH1 0x0 DUP1 REVERT JUMPDEST PUSH1 0x0 DUP1 REVERT JUMPDEST PUSH1 0x0 DUP2 SWAP1 POP SWAP2 SWAP1 POP JUMP JUMPDEST PUSH2 0x885 DUP2 PUSH2 0x872 JUMP JUMPDEST DUP2 EQ PUSH2 0x890 JUMPI PUSH1 0x0 DUP1 REVERT JUMPDEST POP JUMP JUMPDEST PUSH1 0x0 DUP2 CALLDATALOAD SWAP1 POP PUSH2 0x8A2 DUP2 PUSH2 0x87C JUMP JUMPDEST SWAP3 SWAP2 POP POP JUMP JUMPDEST PUSH1 0x0 PUSH1 0x20 DUP3 DUP5 SUB SLT ISZERO PUSH2 0x8BE JUMPI PUSH2 0x8BD PUSH2 0x868 JUMP JUMPDEST JUMPDEST PUSH1 0x0 PUSH2 0x8CC DUP5 DUP3 DUP6 ADD PUSH2 0x893 JUMP JUMPDEST SWAP2 POP POP SWAP3 SWAP2 POP POP JUMP JUMPDEST PUSH2 0x8DE DUP2 PUSH2 0x872 JUMP JUMPDEST DUP3 MSTORE POP POP JUMP JUMPDEST PUSH1 0x0 PUSH1 0x20 DUP3 ADD SWAP1 POP PUSH2 0x8F9 PUSH1 0x0 DUP4 ADD DUP5 PUSH2 0x8D5 JUMP JUMPDEST SWAP3 SWAP2 POP POP JUMP JUMPDEST PUSH1 0x0 PUSH20 0xFFFFFFFFFFFFFFFFFFFFFFFFFFFFFFFFFFFFFFFF DUP3 AND SWAP1 POP SWAP2 SWAP1 POP JUMP JUMPDEST PUSH1 0x0 PUSH2 0x92A DUP3 PUSH2 0x8FF JUMP JUMPDEST SWAP1 POP SWAP2 SWAP1 POP JUMP JUMPDEST PUSH2 0x93A DUP2 PUSH2 0x91F JUMP JUMPDEST DUP2 EQ PUSH2 0x945 JUMPI PUSH1 0x0 DUP1 REVERT JUMPDEST POP JUMP JUMPDEST PUSH1 0x0 DUP2 CALLDATALOAD SWAP1 POP PUSH2 0x957 DUP2 PUSH2 0x931 JUMP JUMPDEST SWAP3 SWAP2 POP POP JUMP JUMPDEST PUSH1 0x0 PUSH1 0x20 DUP3 DUP5 SUB SLT ISZERO PUSH2 0x973 JUMPI PUSH2 0x972 PUSH2 0x868 JUMP JUMPDEST JUMPDEST PUSH1 0x0 PUSH2 0x981 DUP5 DUP3 DUP6 ADD PUSH2 0x948 JUMP JUMPDEST SWAP2 POP POP SWAP3 SWAP2 POP POP JUMP JUMPDEST PUSH1 0x0 DUP2 MLOAD SWAP1 POP SWAP2 SWAP1 POP JUMP JUMPDEST PUSH1 0x0 DUP3 DUP3 MSTORE PUSH1 0x20 DUP3 ADD SWAP1 POP SWAP3 SWAP2 POP POP JUMP JUMPDEST PUSH1 0x0 JUMPDEST DUP4 DUP2 LT ISZERO PUSH2 0x9C4 JUMPI DUP1 DUP3 ADD MLOAD DUP2 DUP5 ADD MSTORE PUSH1 0x20 DUP2 ADD SWAP1 POP PUSH2 0x9A9 JUMP JUMPDEST PUSH1 0x0 DUP5 DUP5 ADD MSTORE POP POP POP POP JUMP JUMPDEST PUSH1 0x0 PUSH1 0x1F NOT PUSH1 0x1F DUP4 ADD AND SWAP1 POP SWAP2 SWAP1 POP JUMP JUMPDEST PUSH1 0x0 PUSH2 0x9EC DUP3 PUSH2 0x98A JUMP JUMPDEST PUSH2 0x9F6 DUP2 DUP6 PUSH2 0x995 JUMP JUMPDEST SWAP4 POP PUSH2 0xA06 DUP2 DUP6 PUSH1 0x20 DUP7 ADD PUSH2 0x9A6 JUMP JUMPDEST PUSH2 0xA0F DUP2 PUSH2 0x9D0 JUMP JUMPDEST DUP5 ADD SWAP2 POP POP SWAP3 SWAP2 POP POP JUMP JUMPDEST PUSH1 0x0 PUSH1 0x20 DUP3 ADD SWAP1 POP DUP2 DUP2 SUB PUSH1 0x0 DUP4 ADD MSTORE PUSH2 0xA34 DUP2 DUP5 PUSH2 0x9E1 JUMP JUMPDEST SWAP1 POP SWAP3 SWAP2 POP POP JUMP JUMPDEST PUSH1 0x0 PUSH2 0xA47 DUP3 PUSH2 0x8FF JUMP JUMPDEST SWAP1 POP SWAP2 SWAP1 POP JUMP JUMPDEST PUSH2 0xA57 DUP2 PUSH2 0xA3C JUMP JUMPDEST DUP3 MSTORE POP POP JUMP JUMPDEST PUSH1 0x0 PUSH1 0x20 DUP3 ADD SWAP1 POP PUSH2 0xA72 PUSH1 0x0 DUP4 ADD DUP5 PUSH2 0xA4E JUMP JUMPDEST SWAP3 SWAP2 POP POP JUMP JUMPDEST PUSH32 0x4E487B7100000000000000000000000000000000000000000000000000000000 PUSH1 0x0 MSTORE PUSH1 0x21 PUSH1 0x4 MSTORE PUSH1 0x24 PUSH1 0x0 REVERT JUMPDEST PUSH1 0x8 DUP2 LT PUSH2 0xAB8 JUMPI PUSH2 0xAB7 PUSH2 0xA78 JUMP JUMPDEST JUMPDEST POP JUMP JUMPDEST PUSH1 0x0 DUP2 SWAP1 POP PUSH2 0xAC9 DUP3 PUSH2 0xAA7 JUMP JUMPDEST SWAP2 SWAP1 POP JUMP JUMPDEST PUSH1 0x0 PUSH2 0xAD9 DUP3 PUSH2 0xABB JUMP JUMPDEST SWAP1 POP SWAP2 SWAP1 POP JUMP JUMPDEST PUSH2 0xAE9 DUP2 PUSH2 0xACE JUMP JUMPDEST DUP3 MSTORE POP POP JUMP JUMPDEST PUSH1 0x0 PUSH1 0x20 DUP3 ADD SWAP1 POP PUSH2 0xB04 PUSH1 0x0 DUP4 ADD DUP5 PUSH2 0xAE0 JUMP JUMPDEST SWAP3 SWAP2 POP POP JUMP JUMPDEST PUSH1 0x0 DUP1 REVERT JUMPDEST PUSH1 0x0 DUP1 REVERT JUMPDEST PUSH32 0x4E487B7100000000000000000000000000000000000000000000000000000000 PUSH1 0x0 MSTORE PUSH1 0x41 PUSH1 0x4 MSTORE PUSH1 0x24 PUSH1 0x0 REVERT JUMPDEST PUSH2 0xB4C DUP3 PUSH2 0x9D0 JUMP JUMPDEST DUP2 ADD DUP2 DUP2 LT PUSH8 0xFFFFFFFFFFFFFFFF DUP3 GT OR ISZERO PUSH2 0xB6B JUMPI PUSH2 0xB6A PUSH2 0xB14 JUMP JUMPDEST JUMPDEST DUP1 PUSH1 0x40 MSTORE POP POP POP JUMP JUMPDEST PUSH1 0x0 PUSH2 0xB7E PUSH2 0x85E JUMP JUMPDEST SWAP1 POP PUSH2 0xB8A DUP3 DUP3 PUSH2 0xB43 JUMP JUMPDEST SWAP2 SWAP1 POP JUMP JUMPDEST PUSH1 0x0 PUSH8 0xFFFFFFFFFFFFFFFF DUP3 GT ISZERO PUSH2 0xBAA JUMPI PUSH2 0xBA9 PUSH2 0xB14 JUMP JUMPDEST JUMPDEST PUSH2 0xBB3 DUP3 PUSH2 0x9D0 JUMP JUMPDEST SWAP1 POP PUSH1 0x20 DUP2 ADD SWAP1 POP SWAP2 SWAP1 POP JUMP JUMPDEST DUP3 DUP2 DUP4 CALLDATACOPY PUSH1 0x0 DUP4 DUP4 ADD MSTORE POP POP POP JUMP JUMPDEST PUSH1 0x0 PUSH2 0xBE2 PUSH2 0xBDD DUP5 PUSH2 0xB8F JUMP JUMPDEST PUSH2 0xB74 JUMP JUMPDEST SWAP1 POP DUP3 DUP2 MSTORE PUSH1 0x20 DUP2 ADD DUP5 DUP5 DUP5 ADD GT ISZERO PUSH2 0xBFE JUMPI PUSH2 0xBFD PUSH2 0xB0F JUMP JUMPDEST JUMPDEST PUSH2 0xC09 DUP5 DUP3 DUP6 PUSH2 0xBC0 JUMP JUMPDEST POP SWAP4 SWAP3 POP POP POP JUMP JUMPDEST PUSH1 0x0 DUP3 PUSH1 0x1F DUP4 ADD SLT PUSH2 0xC26 JUMPI PUSH2 0xC25 PUSH2 0xB0A JUMP JUMPDEST JUMPDEST DUP2 CALLDATALOAD PUSH2 0xC36 DUP5 DUP3 PUSH1 0x20 DUP7 ADD PUSH2 0xBCF JUMP JUMPDEST SWAP2 POP POP SWAP3 SWAP2 POP POP JUMP JUMPDEST PUSH1 0x0 PUSH1 0x20 DUP3 DUP5 SUB SLT ISZERO PUSH2 0xC55 JUMPI PUSH2 0xC54 PUSH2 0x868 JUMP JUMPDEST JUMPDEST PUSH1 0x0 DUP3 ADD CALLDATALOAD PUSH8 0xFFFFFFFFFFFFFFFF DUP2 GT ISZERO PUSH2 0xC73 JUMPI PUSH2 0xC72 PUSH2 0x86D JUMP JUMPDEST JUMPDEST PUSH2 0xC7F DUP5 DUP3 DUP6 ADD PUSH2 0xC11 JUMP JUMPDEST SWAP2 POP POP SWAP3 SWAP2 POP POP JUMP JUMPDEST PUSH32 0x4E487B7100000000000000000000000000000000000000000000000000000000 PUSH1 0x0 MSTORE PUSH1 0x11 PUSH1 0x4 MSTORE PUSH1 0x24 PUSH1 0x0 REVERT JUMPDEST PUSH1 0x0 PUSH2 0xCC2 DUP3 PUSH2 0x872 JUMP JUMPDEST SWAP2 POP PUSH2 0xCCD DUP4 PUSH2 0x872 JUMP JUMPDEST SWAP3 POP DUP3 DUP3 ADD SWAP1 POP DUP1 DUP3 GT ISZERO PUSH2 0xCE5 JUMPI PUSH2 0xCE4 PUSH2 0xC88 JUMP JUMPDEST JUMPDEST SWAP3 SWAP2 POP POP JUMP JUMPDEST PUSH32 0x50726F6A65637420697320616C726561647920696E20766F74696E6720737461 PUSH1 0x0 DUP3 ADD MSTORE PUSH32 0x7465000000000000000000000000000000000000000000000000000000000000 PUSH1 0x20 DUP3 ADD MSTORE POP JUMP JUMPDEST PUSH1 0x0 PUSH2 0xD47 PUSH1 0x22 DUP4 PUSH2 0x995 JUMP JUMPDEST SWAP2 POP PUSH2 0xD52 DUP3 PUSH2 0xCEB JUMP JUMPDEST PUSH1 0x40 DUP3 ADD SWAP1 POP SWAP2 SWAP1 POP JUMP JUMPDEST PUSH1 0x0 PUSH1 0x20 DUP3 ADD SWAP1 POP DUP2 DUP2 SUB PUSH1 0x0 DUP4 ADD MSTORE PUSH2 0xD76 DUP2 PUSH2 0xD3A JUMP JUMPDEST SWAP1 POP SWAP2 SWAP1 POP JUMP JUMPDEST PUSH32 0x46756E64696E6720676F616C206E6F7420726561636865640000000000000000 PUSH1 0x0 DUP3 ADD MSTORE POP JUMP JUMPDEST PUSH1 0x0 PUSH2 0xDB3 PUSH1 0x18 DUP4 PUSH2 0x995 JUMP JUMPDEST SWAP2 POP PUSH2 0xDBE DUP3 PUSH2 0xD7D JUMP JUMPDEST PUSH1 0x20 DUP3 ADD SWAP1 POP SWAP2 SWAP1 POP JUMP JUMPDEST PUSH1 0x0 PUSH1 0x20 DUP3 ADD SWAP1 POP DUP2 DUP2 SUB PUSH1 0x0 DUP4 ADD MSTORE PUSH2 0xDE2 DUP2 PUSH2 0xDA6 JUMP JUMPDEST SWAP1 POP SWAP2 SWAP1 POP JUMP JUMPDEST PUSH32 0x4E487B7100000000000000000000000000000000000000000000000000000000 PUSH1 0x0 MSTORE PUSH1 0x22 PUSH1 0x4 MSTORE PUSH1 0x24 PUSH1 0x0 REVERT JUMPDEST PUSH1 0x0 PUSH1 0x2 DUP3 DIV SWAP1 POP PUSH1 0x1 DUP3 AND DUP1 PUSH2 0xE30 JUMPI PUSH1 0x7F DUP3 AND SWAP2 POP JUMPDEST PUSH1 0x20 DUP3 LT DUP2 SUB PUSH2 0xE43 JUMPI PUSH2 0xE42 PUSH2 0xDE9 JUMP JUMPDEST JUMPDEST POP SWAP2 SWAP1 POP JUMP JUMPDEST PUSH32 0x50726F6A656374206973206E6F7420696E207468652053746172746564207374 PUSH1 0x0 DUP3 ADD MSTORE PUSH32 0x6174650000000000000000000000000000000000000000000000000000000000 PUSH1 0x20 DUP3 ADD MSTORE POP JUMP JUMPDEST PUSH1 0x0 PUSH2 0xEA5 PUSH1 0x23 DUP4 PUSH2 0x995 JUMP JUMPDEST SWAP2 POP PUSH2 0xEB0 DUP3 PUSH2 0xE49 JUMP JUMPDEST PUSH1 0x40 DUP3 ADD SWAP1 POP SWAP2 SWAP1 POP JUMP JUMPDEST PUSH1 0x0 PUSH1 0x20 DUP3 ADD SWAP1 POP DUP2 DUP2 SUB PUSH1 0x0 DUP4 ADD MSTORE PUSH2 0xED4 DUP2 PUSH2 0xE98 JUMP JUMPDEST SWAP1 POP SWAP2 SWAP1 POP JUMP JUMPDEST PUSH32 0x50726F6A656374206973206E6F7420696E2074686520566F74696E6720737461 PUSH1 0x0 DUP3 ADD MSTORE PUSH32 0x7465000000000000000000000000000000000000000000000000000000000000 PUSH1 0x20 DUP3 ADD MSTORE POP JUMP JUMPDEST PUSH1 0x0 PUSH2 0xF37 PUSH1 0x22 DUP4 PUSH2 0x995 JUMP JUMPDEST SWAP2 POP PUSH2 0xF42 DUP3 PUSH2 0xEDB JUMP JUMPDEST PUSH1 0x40 DUP3 ADD SWAP1 POP SWAP2 SWAP1 POP JUMP JUMPDEST PUSH1 0x0 PUSH1 0x20 DUP3 ADD SWAP1 POP DUP2 DUP2 SUB PUSH1 0x0 DUP4 ADD MSTORE PUSH2 0xF66 DUP2 PUSH2 0xF2A JUMP JUMPDEST SWAP1 POP SWAP2 SWAP1 POP JUMP JUMPDEST PUSH32 0x4F6E6C792070726F6A656374206F776E65722063616E2063616C6C2074686973 PUSH1 0x0 DUP3 ADD MSTORE PUSH32 0x2066756E6374696F6E0000000000000000000000000000000000000000000000 PUSH1 0x20 DUP3 ADD MSTORE POP JUMP JUMPDEST PUSH1 0x0 PUSH2 0xFC9 PUSH1 0x29 DUP4 PUSH2 0x995 JUMP JUMPDEST SWAP2 POP PUSH2 0xFD4 DUP3 PUSH2 0xF6D JUMP JUMPDEST PUSH1 0x40 DUP3 ADD SWAP1 POP SWAP2 SWAP1 POP JUMP JUMPDEST PUSH1 0x0 PUSH1 0x20 DUP3 ADD SWAP1 POP DUP2 DUP2 SUB PUSH1 0x0 DUP4 ADD MSTORE PUSH2 0xFF8 DUP2 PUSH2 0xFBC JUMP JUMPDEST SWAP1 POP SWAP2 SWAP1 POP JUMP JUMPDEST PUSH1 0x0 DUP2 SWAP1 POP DUP2 PUSH1 0x0 MSTORE PUSH1 0x20 PUSH1 0x0 KECCAK256 SWAP1 POP SWAP2 SWAP1 POP JUMP JUMPDEST PUSH1 0x0 PUSH1 0x20 PUSH1 0x1F DUP4 ADD DIV SWAP1 POP SWAP2 SWAP1 POP JUMP JUMPDEST PUSH1 0x0 DUP3 DUP3 SHL SWAP1 POP SWAP3 SWAP2 POP POP JUMP JUMPDEST PUSH1 0x0 PUSH1 0x8 DUP4 MUL PUSH2 0x1061 PUSH32 0xFFFFFFFFFFFFFFFFFFFFFFFFFFFFFFFFFFFFFFFFFFFFFFFFFFFFFFFFFFFFFFFF DUP3 PUSH2 0x1024 JUMP JUMPDEST PUSH2 0x106B DUP7 DUP4 PUSH2 0x1024 JUMP JUMPDEST SWAP6 POP DUP1 NOT DUP5 AND SWAP4 POP DUP1 DUP7 AND DUP5 OR SWAP3 POP POP POP SWAP4 SWAP3 POP POP POP JUMP JUMPDEST PUSH1 0x0 DUP2 SWAP1 POP SWAP2 SWAP1 POP JUMP JUMPDEST PUSH1 0x0 PUSH2 0x10A8 PUSH2 0x10A3 PUSH2 0x109E DUP5 PUSH2 0x872 JUMP JUMPDEST PUSH2 0x1083 JUMP JUMPDEST PUSH2 0x872 JUMP JUMPDEST SWAP1 POP SWAP2 SWAP1 POP JUMP JUMPDEST PUSH1 0x0 DUP2 SWAP1 POP SWAP2 SWAP1 POP JUMP JUMPDEST PUSH2 0x10C2 DUP4 PUSH2 0x108D JUMP JUMPDEST PUSH2 0x10D6 PUSH2 0x10CE DUP3 PUSH2 0x10AF JUMP JUMPDEST DUP5 DUP5 SLOAD PUSH2 0x1031 JUMP JUMPDEST DUP3 SSTORE POP POP POP POP JUMP JUMPDEST PUSH1 0x0 SWAP1 JUMP JUMPDEST PUSH2 0x10EB PUSH2 0x10DE JUMP JUMPDEST PUSH2 0x10F6 DUP2 DUP5 DUP5 PUSH2 0x10B9 JUMP JUMPDEST POP POP POP JUMP JUMPDEST JUMPDEST DUP2 DUP2 LT ISZERO PUSH2 0x111A JUMPI PUSH2 0x110F PUSH1 0x0 DUP3 PUSH2 0x10E3 JUMP JUMPDEST PUSH1 0x1 DUP2 ADD SWAP1 POP PUSH2 0x10FC JUMP JUMPDEST POP POP JUMP JUMPDEST PUSH1 0x1F DUP3 GT ISZERO PUSH2 0x115F JUMPI PUSH2 0x1130 DUP2 PUSH2 0xFFF JUMP JUMPDEST PUSH2 0x1139 DUP5 PUSH2 0x1014 JUMP JUMPDEST DUP2 ADD PUSH1 0x20 DUP6 LT ISZERO PUSH2 0x1148 JUMPI DUP2 SWAP1 POP JUMPDEST PUSH2 0x115C PUSH2 0x1154 DUP6 PUSH2 0x1014 JUMP JUMPDEST DUP4 ADD DUP3 PUSH2 0x10FB JUMP JUMPDEST POP POP JUMPDEST POP POP POP JUMP JUMPDEST PUSH1 0x0 DUP3 DUP3 SHR SWAP1 POP SWAP3 SWAP2 POP POP JUMP JUMPDEST PUSH1 0x0 PUSH2 0x1182 PUSH1 0x0 NOT DUP5 PUSH1 0x8 MUL PUSH2 0x1164 JUMP JUMPDEST NOT DUP1 DUP4 AND SWAP2 POP POP SWAP3 SWAP2 POP POP JUMP JUMPDEST PUSH1 0x0 PUSH2 0x119B DUP4 DUP4 PUSH2 0x1171 JUMP JUMPDEST SWAP2 POP DUP3 PUSH1 0x2 MUL DUP3 OR SWAP1 POP SWAP3 SWAP2 POP POP JUMP JUMPDEST PUSH2 0x11B4 DUP3 PUSH2 0x98A JUMP JUMPDEST PUSH8 0xFFFFFFFFFFFFFFFF DUP2 GT ISZERO PUSH2 0x11CD JUMPI PUSH2 0x11CC PUSH2 0xB14 JUMP JUMPDEST JUMPDEST PUSH2 0x11D7 DUP3 SLOAD PUSH2 0xE18 JUMP JUMPDEST PUSH2 0x11E2 DUP3 DUP3 DUP6 PUSH2 0x111E JUMP JUMPDEST PUSH1 0x0 PUSH1 0x20 SWAP1 POP PUSH1 0x1F DUP4 GT PUSH1 0x1 DUP2 EQ PUSH2 0x1215 JUMPI PUSH1 0x0 DUP5 ISZERO PUSH2 0x1203 JUMPI DUP3 DUP8 ADD MLOAD SWAP1 POP JUMPDEST PUSH2 0x120D DUP6 DUP3 PUSH2 0x118F JUMP JUMPDEST DUP7 SSTORE POP PUSH2 0x1275 JUMP JUMPDEST PUSH1 0x1F NOT DUP5 AND PUSH2 0x1223 DUP7 PUSH2 0xFFF JUMP JUMPDEST PUSH1 0x0 JUMPDEST DUP3 DUP2 LT ISZERO PUSH2 0x124B JUMPI DUP5 DUP10 ADD MLOAD DUP3 SSTORE PUSH1 0x1 DUP3 ADD SWAP2 POP PUSH1 0x20 DUP6 ADD SWAP5 POP PUSH1 0x20 DUP2 ADD SWAP1 POP PUSH2 0x1226 JUMP JUMPDEST DUP7 DUP4 LT ISZERO PUSH2 0x1268 JUMPI DUP5 DUP10 ADD MLOAD PUSH2 0x1264 PUSH1 0x1F DUP10 AND DUP3 PUSH2 0x1171 JUMP JUMPDEST DUP4 SSTORE POP JUMPDEST PUSH1 0x1 PUSH1 0x2 DUP9 MUL ADD DUP9 SSTORE POP POP POP JUMPDEST POP POP POP POP POP POP JUMP INVALID LOG2 PUSH5 0x6970667358 0x22 SLT KECCAK256 DUP2 CALLDATACOPY SMOD 0xF7 0xB8 0x26 PUSH32 0x6278211A40367E5D60BDF175628FCDE4CD7D3DFFCC2E6D5EFE64736F6C634300 ADDMOD XOR STOP CALLER LOG2 PUSH5 0x6970667358 0x22 SLT KECCAK256 DUP13 PUSH25 0xAE152E12E5CBA5D0DEE455C5CC879FEF8E9783AC3F71699324 PUSH22 0xC093224764736F6C6343000818003300000000000000 "},"methodIdentifiers":{"approve(address,uint256)":"095ea7b3","balanceOf(address)":"70a08231","createDonationReceipt(uint256)":"e0c22f05","createProject(string,string,uint256)":"23c55448","getApproved(uint256)":"081812fc","getVotingTokens()":"cfa28f63","hasReceivedNFT(address)":"5e8f07fb","isApprovedForAll(address,address)":"e985e9c5","name()":"06fdde03","ownerOf(uint256)":"6352211e","projectCount()":"36fbad26","projects(uint256)":"107046bd","safeTransferFrom(address,address,uint256)":"42842e0e","safeTransferFrom(address,address,uint256,bytes)":"b88d4fde","setApprovalForAll(address,bool)":"a22cb465","showProjectDetails(uint256)":"c86c6f0d","supportsInterface(bytes4)":"01ffc9a7","symbol()":"95d89b41","tokenMultiplier()":"ba3f5a12","tokenURI(uint256)":"c87b56dd","transferFrom(address,address,uint256)":"23b872dd","voteForProject(uint256,uint256)":"30ce6b0b","votingTokens(address)":"eca964e3"}}}}}