{
  "_format": "hh-sol-artifact-1",
  "contractName": "DAO_SLR",
  "sourceName": "contracts/DAO_SLR.sol",
  "abi": [
    {
      "inputs": [
        {
          "internalType": "address",
          "name": "sender",
          "type": "address"
        },
        {
          "internalType": "uint256",
          "name": "tokenId",
          "type": "uint256"
        },
        {
          "internalType": "address",
          "name": "owner",
          "type": "address"
        }
      ],
      "name": "ERC721IncorrectOwner",
      "type": "error"
    },
    {
      "inputs": [
        {
          "internalType": "address",
          "name": "operator",
          "type": "address"
        },
        {
          "internalType": "uint256",
          "name": "tokenId",
          "type": "uint256"
        }
      ],
      "name": "ERC721InsufficientApproval",
      "type": "error"
    },
    {
      "inputs": [
        {
          "internalType": "address",
          "name": "approver",
          "type": "address"
        }
      ],
      "name": "ERC721InvalidApprover",
      "type": "error"
    },
    {
      "inputs": [
        {
          "internalType": "address",
          "name": "operator",
          "type": "address"
        }
      ],
      "name": "ERC721InvalidOperator",
      "type": "error"
    },
    {
      "inputs": [
        {
          "internalType": "address",
          "name": "owner",
          "type": "address"
        }
      ],
      "name": "ERC721InvalidOwner",
      "type": "error"
    },
    {
      "inputs": [
        {
          "internalType": "address",
          "name": "receiver",
          "type": "address"
        }
      ],
      "name": "ERC721InvalidReceiver",
      "type": "error"
    },
    {
      "inputs": [
        {
          "internalType": "address",
          "name": "sender",
          "type": "address"
        }
      ],
      "name": "ERC721InvalidSender",
      "type": "error"
    },
    {
      "inputs": [
        {
          "internalType": "uint256",
          "name": "tokenId",
          "type": "uint256"
        }
      ],
      "name": "ERC721NonexistentToken",
      "type": "error"
    },
    {
      "inputs": [
        {
          "internalType": "uint256",
          "name": "value",
          "type": "uint256"
        },
        {
          "internalType": "uint256",
          "name": "length",
          "type": "uint256"
        }
      ],
      "name": "StringsInsufficientHexLength",
      "type": "error"
    },
    {
      "anonymous": false,
      "inputs": [
        {
          "indexed": true,
          "internalType": "address",
          "name": "owner",
          "type": "address"
        },
        {
          "indexed": true,
          "internalType": "address",
          "name": "approved",
          "type": "address"
        },
        {
          "indexed": true,
          "internalType": "uint256",
          "name": "tokenId",
          "type": "uint256"
        }
      ],
      "name": "Approval",
      "type": "event"
    },
    {
      "anonymous": false,
      "inputs": [
        {
          "indexed": true,
          "internalType": "address",
          "name": "owner",
          "type": "address"
        },
        {
          "indexed": true,
          "internalType": "address",
          "name": "operator",
          "type": "address"
        },
        {
          "indexed": false,
          "internalType": "bool",
          "name": "approved",
          "type": "bool"
        }
      ],
      "name": "ApprovalForAll",
      "type": "event"
    },
    {
      "anonymous": false,
      "inputs": [
        {
          "indexed": false,
          "internalType": "uint256",
          "name": "_fromTokenId",
          "type": "uint256"
        },
        {
          "indexed": false,
          "internalType": "uint256",
          "name": "_toTokenId",
          "type": "uint256"
        }
      ],
      "name": "BatchMetadataUpdate",
      "type": "event"
    },
    {
      "anonymous": false,
      "inputs": [
        {
          "indexed": false,
          "internalType": "uint256",
          "name": "_projectId",
          "type": "uint256"
        },
        {
          "indexed": false,
          "internalType": "uint256",
          "name": "_amount",
          "type": "uint256"
        }
      ],
      "name": "FundingGoalReached",
      "type": "event"
    },
    {
      "anonymous": false,
      "inputs": [
        {
          "indexed": false,
          "internalType": "uint256",
          "name": "_tokenId",
          "type": "uint256"
        }
      ],
      "name": "MetadataUpdate",
      "type": "event"
    },
    {
      "anonymous": false,
      "inputs": [
        {
          "indexed": false,
          "internalType": "uint256",
          "name": "_projectId",
          "type": "uint256"
        },
        {
          "indexed": false,
          "internalType": "enum ProjectState",
          "name": "_newState",
          "type": "uint8"
        }
      ],
      "name": "StateChanged",
      "type": "event"
    },
    {
      "anonymous": false,
      "inputs": [
        {
          "indexed": true,
          "internalType": "address",
          "name": "from",
          "type": "address"
        },
        {
          "indexed": true,
          "internalType": "address",
          "name": "to",
          "type": "address"
        },
        {
          "indexed": true,
          "internalType": "uint256",
          "name": "tokenId",
          "type": "uint256"
        }
      ],
      "name": "Transfer",
      "type": "event"
    },
    {
      "anonymous": false,
      "inputs": [
        {
          "indexed": false,
          "internalType": "uint256",
          "name": "_orgId",
          "type": "uint256"
        },
        {
          "indexed": false,
          "internalType": "uint256",
          "name": "_votes",
          "type": "uint256"
        },
        {
          "indexed": false,
          "internalType": "uint256",
          "name": "_downVotes",
          "type": "uint256"
        }
      ],
      "name": "VotingUpdated",
      "type": "event"
    },
    {
      "inputs": [
        {
          "internalType": "address",
          "name": "to",
          "type": "address"
        },
        {
          "internalType": "uint256",
          "name": "tokenId",
          "type": "uint256"
        }
      ],
      "name": "approve",
      "outputs": [],
      "stateMutability": "nonpayable",
      "type": "function"
    },
    {
      "inputs": [
        {
          "internalType": "address",
          "name": "owner",
          "type": "address"
        }
      ],
      "name": "balanceOf",
      "outputs": [
        {
          "internalType": "uint256",
          "name": "",
          "type": "uint256"
        }
      ],
      "stateMutability": "view",
      "type": "function"
    },
    {
      "inputs": [
        {
          "internalType": "string",
          "name": "_organizationName",
          "type": "string"
        },
        {
          "internalType": "string",
          "name": "_organizationDescription",
          "type": "string"
        }
      ],
      "name": "createOrganization",
      "outputs": [],
      "stateMutability": "nonpayable",
      "type": "function"
    },
    {
      "inputs": [
        {
          "internalType": "string",
          "name": "_title",
          "type": "string"
        },
        {
          "internalType": "string",
          "name": "_description",
          "type": "string"
        },
        {
          "internalType": "uint256",
          "name": "_goal",
          "type": "uint256"
        }
      ],
      "name": "createProject",
      "outputs": [],
      "stateMutability": "nonpayable",
      "type": "function"
    },
    {
      "inputs": [
        {
          "internalType": "address",
          "name": "_recipient",
          "type": "address"
        },
        {
          "internalType": "uint256",
          "name": "_projectId",
          "type": "uint256"
        },
        {
          "internalType": "uint256",
          "name": "_donationAmount",
          "type": "uint256"
        },
        {
          "internalType": "uint256",
          "name": "_timestamp",
          "type": "uint256"
        }
      ],
      "name": "createReceipt",
      "outputs": [],
      "stateMutability": "nonpayable",
      "type": "function"
    },
    {
      "inputs": [
        {
          "internalType": "address",
          "name": "_donor",
          "type": "address"
        }
      ],
      "name": "doesDonorExist",
      "outputs": [
        {
          "internalType": "bool",
          "name": "",
          "type": "bool"
        }
      ],
      "stateMutability": "view",
      "type": "function"
    },
    {
      "inputs": [
        {
          "internalType": "uint256",
          "name": "_projectId",
          "type": "uint256"
        }
      ],
      "name": "doesProjectExist",
      "outputs": [
        {
          "internalType": "bool",
          "name": "",
          "type": "bool"
        }
      ],
      "stateMutability": "view",
      "type": "function"
    },
    {
      "inputs": [
        {
          "internalType": "address",
          "name": "",
          "type": "address"
        }
      ],
      "name": "donors",
      "outputs": [
        {
          "internalType": "address",
          "name": "donorAddress",
          "type": "address"
        },
        {
          "internalType": "uint256",
          "name": "votingTokens",
          "type": "uint256"
        }
      ],
      "stateMutability": "view",
      "type": "function"
    },
    {
      "inputs": [
        {
          "internalType": "uint256",
          "name": "_projectId",
          "type": "uint256"
        },
        {
          "internalType": "string",
          "name": "_proofUrl",
          "type": "string"
        }
      ],
      "name": "endProject",
      "outputs": [],
      "stateMutability": "nonpayable",
      "type": "function"
    },
    {
      "inputs": [
        {
          "internalType": "uint256",
          "name": "_projectId",
          "type": "uint256"
        }
      ],
      "name": "exceededTimeLimit",
      "outputs": [
        {
          "internalType": "bool",
          "name": "",
          "type": "bool"
        }
      ],
      "stateMutability": "view",
      "type": "function"
    },
    {
      "inputs": [],
      "name": "getAllOrganizations",
      "outputs": [
        {
          "internalType": "uint256[]",
          "name": "ids",
          "type": "uint256[]"
        },
        {
          "internalType": "string[]",
          "name": "names",
          "type": "string[]"
        },
        {
          "internalType": "string[]",
          "name": "descriptions",
          "type": "string[]"
        },
        {
          "internalType": "enum OrganizationState[]",
          "name": "states",
          "type": "uint8[]"
        },
        {
          "internalType": "uint256[]",
          "name": "upvotes",
          "type": "uint256[]"
        },
        {
          "internalType": "uint256[]",
          "name": "downvotes",
          "type": "uint256[]"
        }
      ],
      "stateMutability": "view",
      "type": "function"
    },
    {
      "inputs": [],
      "name": "getAllProjects",
      "outputs": [
        {
          "components": [
            {
              "internalType": "uint256",
              "name": "projectId",
              "type": "uint256"
            },
            {
              "internalType": "uint256",
              "name": "organizationId",
              "type": "uint256"
            },
            {
              "internalType": "address payable",
              "name": "projectOwner",
              "type": "address"
            },
            {
              "internalType": "string",
              "name": "projectTitle",
              "type": "string"
            },
            {
              "internalType": "string",
              "name": "projectDescription",
              "type": "string"
            },
            {
              "internalType": "uint256",
              "name": "fundingGoal",
              "type": "uint256"
            },
            {
              "internalType": "uint256",
              "name": "currentFunding",
              "type": "uint256"
            },
            {
              "internalType": "uint256",
              "name": "totalVotes",
              "type": "uint256"
            },
            {
              "internalType": "enum ProjectState",
              "name": "state",
              "type": "uint8"
            },
            {
              "internalType": "uint256",
              "name": "creationTimestamp",
              "type": "uint256"
            }
          ],
          "internalType": "struct Project[]",
          "name": "",
          "type": "tuple[]"
        }
      ],
      "stateMutability": "view",
      "type": "function"
    },
    {
      "inputs": [],
      "name": "getAllProjectsTest",
      "outputs": [
        {
          "internalType": "string[]",
          "name": "names",
          "type": "string[]"
        },
        {
          "internalType": "string[]",
          "name": "descriptions",
          "type": "string[]"
        },
        {
          "internalType": "uint256[]",
          "name": "goals",
          "type": "uint256[]"
        },
        {
          "internalType": "uint256[]",
          "name": "currentFundings",
          "type": "uint256[]"
        },
        {
          "internalType": "uint256[]",
          "name": "projectIds",
          "type": "uint256[]"
        },
        {
          "internalType": "enum ProjectState[]",
          "name": "states",
          "type": "uint8[]"
        }
      ],
      "stateMutability": "view",
      "type": "function"
    },
    {
      "inputs": [
        {
          "internalType": "uint256",
          "name": "tokenId",
          "type": "uint256"
        }
      ],
      "name": "getApproved",
      "outputs": [
        {
          "internalType": "address",
          "name": "",
          "type": "address"
        }
      ],
      "stateMutability": "view",
      "type": "function"
    },
    {
      "inputs": [
        {
          "internalType": "address",
          "name": "_donor",
          "type": "address"
        }
      ],
      "name": "getDonorTokenBalance",
      "outputs": [
        {
          "internalType": "uint256",
          "name": "",
          "type": "uint256"
        }
      ],
      "stateMutability": "view",
      "type": "function"
    },
    {
      "inputs": [],
      "name": "getLastProject",
      "outputs": [
        {
          "components": [
            {
              "internalType": "uint256",
              "name": "projectId",
              "type": "uint256"
            },
            {
              "internalType": "uint256",
              "name": "organizationId",
              "type": "uint256"
            },
            {
              "internalType": "address payable",
              "name": "projectOwner",
              "type": "address"
            },
            {
              "internalType": "string",
              "name": "projectTitle",
              "type": "string"
            },
            {
              "internalType": "string",
              "name": "projectDescription",
              "type": "string"
            },
            {
              "internalType": "uint256",
              "name": "fundingGoal",
              "type": "uint256"
            },
            {
              "internalType": "uint256",
              "name": "currentFunding",
              "type": "uint256"
            },
            {
              "internalType": "uint256",
              "name": "totalVotes",
              "type": "uint256"
            },
            {
              "internalType": "enum ProjectState",
              "name": "state",
              "type": "uint8"
            },
            {
              "internalType": "uint256",
              "name": "creationTimestamp",
              "type": "uint256"
            }
          ],
          "internalType": "struct Project",
          "name": "",
          "type": "tuple"
        }
      ],
      "stateMutability": "view",
      "type": "function"
    },
    {
      "inputs": [],
      "name": "getLastTenProjects",
      "outputs": [
        {
          "components": [
            {
              "internalType": "uint256",
              "name": "projectId",
              "type": "uint256"
            },
            {
              "internalType": "uint256",
              "name": "organizationId",
              "type": "uint256"
            },
            {
              "internalType": "address payable",
              "name": "projectOwner",
              "type": "address"
            },
            {
              "internalType": "string",
              "name": "projectTitle",
              "type": "string"
            },
            {
              "internalType": "string",
              "name": "projectDescription",
              "type": "string"
            },
            {
              "internalType": "uint256",
              "name": "fundingGoal",
              "type": "uint256"
            },
            {
              "internalType": "uint256",
              "name": "currentFunding",
              "type": "uint256"
            },
            {
              "internalType": "uint256",
              "name": "totalVotes",
              "type": "uint256"
            },
            {
              "internalType": "enum ProjectState",
              "name": "state",
              "type": "uint8"
            },
            {
              "internalType": "uint256",
              "name": "creationTimestamp",
              "type": "uint256"
            }
          ],
          "internalType": "struct Project[]",
          "name": "",
          "type": "tuple[]"
        }
      ],
      "stateMutability": "view",
      "type": "function"
    },
    {
      "inputs": [
        {
          "internalType": "address",
          "name": "_walletAddress",
          "type": "address"
        }
      ],
      "name": "getOrganization",
      "outputs": [
        {
          "components": [
            {
              "internalType": "uint256",
              "name": "organizationId",
              "type": "uint256"
            },
            {
              "internalType": "address payable",
              "name": "walletAddress",
              "type": "address"
            },
            {
              "internalType": "string",
              "name": "organizationName",
              "type": "string"
            },
            {
              "internalType": "string",
              "name": "organizationDescription",
              "type": "string"
            },
            {
              "internalType": "enum OrganizationState",
              "name": "state",
              "type": "uint8"
            },
            {
              "internalType": "uint256",
              "name": "votes",
              "type": "uint256"
            },
            {
              "internalType": "uint256",
              "name": "downVotes",
              "type": "uint256"
            }
          ],
          "internalType": "struct Organization",
          "name": "",
          "type": "tuple"
        }
      ],
      "stateMutability": "view",
      "type": "function"
    },
    {
      "inputs": [
        {
          "internalType": "uint256",
          "name": "_orgId",
          "type": "uint256"
        }
      ],
      "name": "getOrganizationById",
      "outputs": [
        {
          "components": [
            {
              "internalType": "uint256",
              "name": "organizationId",
              "type": "uint256"
            },
            {
              "internalType": "address payable",
              "name": "walletAddress",
              "type": "address"
            },
            {
              "internalType": "string",
              "name": "organizationName",
              "type": "string"
            },
            {
              "internalType": "string",
              "name": "organizationDescription",
              "type": "string"
            },
            {
              "internalType": "enum OrganizationState",
              "name": "state",
              "type": "uint8"
            },
            {
              "internalType": "uint256",
              "name": "votes",
              "type": "uint256"
            },
            {
              "internalType": "uint256",
              "name": "downVotes",
              "type": "uint256"
            }
          ],
          "internalType": "struct Organization",
          "name": "",
          "type": "tuple"
        }
      ],
      "stateMutability": "view",
      "type": "function"
    },
    {
      "inputs": [
        {
          "internalType": "address",
          "name": "_walletAddress",
          "type": "address"
        }
      ],
      "name": "getOrganizationState",
      "outputs": [
        {
          "internalType": "enum OrganizationState",
          "name": "",
          "type": "uint8"
        }
      ],
      "stateMutability": "view",
      "type": "function"
    },
    {
      "inputs": [
        {
          "internalType": "uint256",
          "name": "_from",
          "type": "uint256"
        },
        {
          "internalType": "uint256",
          "name": "_to",
          "type": "uint256"
        }
      ],
      "name": "getProjectsInRange",
      "outputs": [
        {
          "components": [
            {
              "internalType": "uint256",
              "name": "projectId",
              "type": "uint256"
            },
            {
              "internalType": "uint256",
              "name": "organizationId",
              "type": "uint256"
            },
            {
              "internalType": "address payable",
              "name": "projectOwner",
              "type": "address"
            },
            {
              "internalType": "string",
              "name": "projectTitle",
              "type": "string"
            },
            {
              "internalType": "string",
              "name": "projectDescription",
              "type": "string"
            },
            {
              "internalType": "uint256",
              "name": "fundingGoal",
              "type": "uint256"
            },
            {
              "internalType": "uint256",
              "name": "currentFunding",
              "type": "uint256"
            },
            {
              "internalType": "uint256",
              "name": "totalVotes",
              "type": "uint256"
            },
            {
              "internalType": "enum ProjectState",
              "name": "state",
              "type": "uint8"
            },
            {
              "internalType": "uint256",
              "name": "creationTimestamp",
              "type": "uint256"
            }
          ],
          "internalType": "struct Project[]",
          "name": "",
          "type": "tuple[]"
        }
      ],
      "stateMutability": "view",
      "type": "function"
    },
    {
      "inputs": [
        {
          "internalType": "uint256",
          "name": "_orgaId",
          "type": "uint256"
        }
      ],
      "name": "hasEnoughVotesForOnboarding",
      "outputs": [
        {
          "internalType": "bool",
          "name": "",
          "type": "bool"
        }
      ],
      "stateMutability": "view",
      "type": "function"
    },
    {
      "inputs": [
        {
          "internalType": "uint256",
          "name": "_projectId",
          "type": "uint256"
        }
      ],
      "name": "hasReachedFundingGoal",
      "outputs": [
        {
          "internalType": "bool",
          "name": "",
          "type": "bool"
        }
      ],
      "stateMutability": "view",
      "type": "function"
    },
    {
      "inputs": [
        {
          "internalType": "address",
          "name": "owner",
          "type": "address"
        },
        {
          "internalType": "address",
          "name": "operator",
          "type": "address"
        }
      ],
      "name": "isApprovedForAll",
      "outputs": [
        {
          "internalType": "bool",
          "name": "",
          "type": "bool"
        }
      ],
      "stateMutability": "view",
      "type": "function"
    },
    {
      "inputs": [
        {
          "internalType": "uint256",
          "name": "_orgaId",
          "type": "uint256"
        }
      ],
      "name": "isControversial",
      "outputs": [
        {
          "internalType": "bool",
          "name": "",
          "type": "bool"
        }
      ],
      "stateMutability": "view",
      "type": "function"
    },
    {
      "inputs": [],
      "name": "name",
      "outputs": [
        {
          "internalType": "string",
          "name": "",
          "type": "string"
        }
      ],
      "stateMutability": "view",
      "type": "function"
    },
    {
      "inputs": [
        {
          "internalType": "bytes32",
          "name": "",
          "type": "bytes32"
        }
      ],
      "name": "nftsCreated",
      "outputs": [
        {
          "internalType": "bool",
          "name": "",
          "type": "bool"
        }
      ],
      "stateMutability": "view",
      "type": "function"
    },
    {
      "inputs": [
        {
          "internalType": "uint256",
          "name": "",
          "type": "uint256"
        }
      ],
      "name": "organizationIdToAddress",
      "outputs": [
        {
          "internalType": "address",
          "name": "",
          "type": "address"
        }
      ],
      "stateMutability": "view",
      "type": "function"
    },
    {
      "inputs": [
        {
          "internalType": "address",
          "name": "",
          "type": "address"
        }
      ],
      "name": "organizations",
      "outputs": [
        {
          "internalType": "uint256",
          "name": "organizationId",
          "type": "uint256"
        },
        {
          "internalType": "address payable",
          "name": "walletAddress",
          "type": "address"
        },
        {
          "internalType": "string",
          "name": "organizationName",
          "type": "string"
        },
        {
          "internalType": "string",
          "name": "organizationDescription",
          "type": "string"
        },
        {
          "internalType": "enum OrganizationState",
          "name": "state",
          "type": "uint8"
        },
        {
          "internalType": "uint256",
          "name": "votes",
          "type": "uint256"
        },
        {
          "internalType": "uint256",
          "name": "downVotes",
          "type": "uint256"
        }
      ],
      "stateMutability": "view",
      "type": "function"
    },
    {
      "inputs": [],
      "name": "organizationsCount",
      "outputs": [
        {
          "internalType": "uint256",
          "name": "",
          "type": "uint256"
        }
      ],
      "stateMutability": "view",
      "type": "function"
    },
    {
      "inputs": [
        {
          "internalType": "uint256",
          "name": "tokenId",
          "type": "uint256"
        }
      ],
      "name": "ownerOf",
      "outputs": [
        {
          "internalType": "address",
          "name": "",
          "type": "address"
        }
      ],
      "stateMutability": "view",
      "type": "function"
    },
    {
      "inputs": [
        {
          "internalType": "uint256",
          "name": "",
          "type": "uint256"
        }
      ],
      "name": "projectToOrganization",
      "outputs": [
        {
          "internalType": "uint256",
          "name": "",
          "type": "uint256"
        }
      ],
      "stateMutability": "view",
      "type": "function"
    },
    {
      "inputs": [
        {
          "internalType": "uint256",
          "name": "",
          "type": "uint256"
        }
      ],
      "name": "projects",
      "outputs": [
        {
          "internalType": "uint256",
          "name": "projectId",
          "type": "uint256"
        },
        {
          "internalType": "uint256",
          "name": "organizationId",
          "type": "uint256"
        },
        {
          "internalType": "address payable",
          "name": "projectOwner",
          "type": "address"
        },
        {
          "internalType": "string",
          "name": "projectTitle",
          "type": "string"
        },
        {
          "internalType": "string",
          "name": "projectDescription",
          "type": "string"
        },
        {
          "internalType": "uint256",
          "name": "fundingGoal",
          "type": "uint256"
        },
        {
          "internalType": "uint256",
          "name": "currentFunding",
          "type": "uint256"
        },
        {
          "internalType": "uint256",
          "name": "totalVotes",
          "type": "uint256"
        },
        {
          "internalType": "enum ProjectState",
          "name": "state",
          "type": "uint8"
        },
        {
          "internalType": "uint256",
          "name": "creationTimestamp",
          "type": "uint256"
        }
      ],
      "stateMutability": "view",
      "type": "function"
    },
    {
      "inputs": [
        {
          "internalType": "address",
          "name": "from",
          "type": "address"
        },
        {
          "internalType": "address",
          "name": "to",
          "type": "address"
        },
        {
          "internalType": "uint256",
          "name": "tokenId",
          "type": "uint256"
        }
      ],
      "name": "safeTransferFrom",
      "outputs": [],
      "stateMutability": "nonpayable",
      "type": "function"
    },
    {
      "inputs": [
        {
          "internalType": "address",
          "name": "from",
          "type": "address"
        },
        {
          "internalType": "address",
          "name": "to",
          "type": "address"
        },
        {
          "internalType": "uint256",
          "name": "tokenId",
          "type": "uint256"
        },
        {
          "internalType": "bytes",
          "name": "data",
          "type": "bytes"
        }
      ],
      "name": "safeTransferFrom",
      "outputs": [],
      "stateMutability": "nonpayable",
      "type": "function"
    },
    {
      "inputs": [
        {
          "internalType": "address",
          "name": "operator",
          "type": "address"
        },
        {
          "internalType": "bool",
          "name": "approved",
          "type": "bool"
        }
      ],
      "name": "setApprovalForAll",
      "outputs": [],
      "stateMutability": "nonpayable",
      "type": "function"
    },
    {
      "inputs": [
        {
          "internalType": "bytes4",
          "name": "interfaceId",
          "type": "bytes4"
        }
      ],
      "name": "supportsInterface",
      "outputs": [
        {
          "internalType": "bool",
          "name": "",
          "type": "bool"
        }
      ],
      "stateMutability": "view",
      "type": "function"
    },
    {
      "inputs": [],
      "name": "symbol",
      "outputs": [
        {
          "internalType": "string",
          "name": "",
          "type": "string"
        }
      ],
      "stateMutability": "view",
      "type": "function"
    },
    {
      "inputs": [],
      "name": "tokenMultiplier",
      "outputs": [
        {
          "internalType": "uint256",
          "name": "",
          "type": "uint256"
        }
      ],
      "stateMutability": "view",
      "type": "function"
    },
    {
      "inputs": [
        {
          "internalType": "uint256",
          "name": "tokenId",
          "type": "uint256"
        }
      ],
      "name": "tokenURI",
      "outputs": [
        {
          "internalType": "string",
          "name": "",
          "type": "string"
        }
      ],
      "stateMutability": "view",
      "type": "function"
    },
    {
      "inputs": [
        {
          "internalType": "address",
          "name": "from",
          "type": "address"
        },
        {
          "internalType": "address",
          "name": "to",
          "type": "address"
        },
        {
          "internalType": "uint256",
          "name": "tokenId",
          "type": "uint256"
        }
      ],
      "name": "transferFrom",
      "outputs": [],
      "stateMutability": "nonpayable",
      "type": "function"
    },
    {
      "inputs": [
        {
          "internalType": "uint256",
          "name": "_projectId",
          "type": "uint256"
        }
      ],
      "name": "transitionFromEnded",
      "outputs": [],
      "stateMutability": "nonpayable",
      "type": "function"
    },
    {
      "inputs": [
        {
          "internalType": "uint256",
          "name": "_projectId",
          "type": "uint256"
        }
      ],
      "name": "transitionFromStarted",
      "outputs": [],
      "stateMutability": "nonpayable",
      "type": "function"
    },
    {
      "inputs": [
        {
          "internalType": "uint256",
          "name": "_projectId",
          "type": "uint256"
        }
      ],
      "name": "transitionFromVoting",
      "outputs": [],
      "stateMutability": "nonpayable",
      "type": "function"
    },
    {
      "inputs": [
        {
          "internalType": "uint256",
          "name": "_projectId",
          "type": "uint256"
        },
        {
          "internalType": "uint256",
          "name": "_amount",
          "type": "uint256"
        }
      ],
      "name": "vote",
      "outputs": [],
      "stateMutability": "nonpayable",
      "type": "function"
    },
    {
      "inputs": [
        {
          "internalType": "uint256",
          "name": "_orgaId",
          "type": "uint256"
        }
      ],
      "name": "voteAgainstOrganization",
      "outputs": [
        {
          "internalType": "uint256",
          "name": "orgaId",
          "type": "uint256"
        },
        {
          "internalType": "uint256",
          "name": "upvotes",
          "type": "uint256"
        },
        {
          "internalType": "uint256",
          "name": "downvotes",
          "type": "uint256"
        }
      ],
      "stateMutability": "nonpayable",
      "type": "function"
    },
    {
      "inputs": [
        {
          "internalType": "uint256",
          "name": "_orgaId",
          "type": "uint256"
        }
      ],
      "name": "voteForOrganization",
      "outputs": [
        {
          "internalType": "uint256",
          "name": "orgaId",
          "type": "uint256"
        },
        {
          "internalType": "uint256",
          "name": "upvotes",
          "type": "uint256"
        },
        {
          "internalType": "uint256",
          "name": "downvotes",
          "type": "uint256"
        }
      ],
      "stateMutability": "nonpayable",
      "type": "function"
    },
    {
      "inputs": [
        {
          "internalType": "uint256",
          "name": "_projectId",
          "type": "uint256"
        },
        {
          "internalType": "uint256",
          "name": "_tokens",
          "type": "uint256"
        }
      ],
      "name": "voteForProject",
      "outputs": [],
      "stateMutability": "nonpayable",
      "type": "function"
    },
    {
      "inputs": [
        {
          "internalType": "address",
          "name": "",
          "type": "address"
        }
      ],
      "name": "votes",
      "outputs": [
        {
          "internalType": "uint256",
          "name": "",
          "type": "uint256"
        }
      ],
      "stateMutability": "view",
      "type": "function"
    },
    {
      "inputs": [
        {
          "internalType": "bytes32",
          "name": "",
          "type": "bytes32"
        }
      ],
      "name": "votesAgainstOrga",
      "outputs": [
        {
          "internalType": "bool",
          "name": "",
          "type": "bool"
        }
      ],
      "stateMutability": "view",
      "type": "function"
    },
    {
      "inputs": [
        {
          "internalType": "bytes32",
          "name": "",
          "type": "bytes32"
        }
      ],
      "name": "votesForOrga",
      "outputs": [
        {
          "internalType": "bool",
          "name": "",
          "type": "bool"
        }
      ],
      "stateMutability": "view",
      "type": "function"
    },
    {
      "inputs": [
        {
          "internalType": "uint256",
          "name": "_amount",
          "type": "uint256"
        }
      ],
      "name": "withdrawFunds",
      "outputs": [],
      "stateMutability": "nonpayable",
      "type": "function"
    },
    {
      "stateMutability": "payable",
      "type": "receive"
    }
  ],
  "bytecode": "0x6080604052670de0b6b3a76400006013553480156200001d57600080fd5b506040518060400160405280601381526020017f534c522d446f6e6174696f6e52656365697074000000000000000000000000008152506040518060400160405280600681526020016529a62916a22960d11b815250816009908162000084919062000148565b50600a62000093828262000148565b505060006010555062000214565b634e487b7160e01b600052604160045260246000fd5b600181811c90821680620000cc57607f821691505b602082108103620000ed57634e487b7160e01b600052602260045260246000fd5b50919050565b601f82111562000143576000816000526020600020601f850160051c810160208610156200011e5750805b601f850160051c820191505b818110156200013f578281556001016200012a565b5050505b505050565b81516001600160401b03811115620001645762000164620000a1565b6200017c81620001758454620000b7565b84620000f3565b602080601f831160018114620001b457600084156200019b5750858301515b600019600386901b1c1916600185901b1785556200013f565b600085815260208120601f198616915b82811015620001e557888601518255948401946001909101908401620001c4565b5085821015620002045787850151600019600388901b60f8161c191681555b5050505050600190811b01905550565b6151ff80620002246000396000f3fe6080604052600436106103435760003560e01c8063953de570116101b0578063ca0cdea8116100ec578063d9062de111610095578063e985e9c51161006f578063e985e9c514610af5578063ed7ae14614610b3e578063f157e40e14610b87578063f97203af14610bc057600080fd5b8063d9062de114610a6f578063e218ec7b14610a8f578063e6607bb814610abf57600080fd5b8063d6d2771d116100c6578063d6d2771d146109db578063d848c634146109fb578063d8bff5a514610a4257600080fd5b8063ca0cdea81461093c578063d2c30a6d1461099b578063d60dbe60146109bb57600080fd5b8063b384abef11610159578063ba3f5a1211610133578063ba3f5a12146108b9578063c3e91729146108cf578063c4f3c4fc146108fc578063c87b56dd1461091c57600080fd5b8063b384abef14610852578063b761d29914610872578063b88d4fde1461089957600080fd5b8063a22cb4651161018a578063a22cb465146107f2578063a411ef2014610812578063a6ad01cf1461083257600080fd5b8063953de5701461077f57806395d89b41146107bb57806397491828146107d057600080fd5b806330ce6b0b1161027f5780635a1f74061161022857806367b44d8a1161020257806367b44d8a146106ef57806370a082311461070f5780637452ea221461072f57806380d038291461076a57600080fd5b80635a1f74061461066f5780636352211e146106a2578063635c5455146106c257600080fd5b806342842e0e1161025957806342842e0e1461060b57806342ea884c1461062b57806359987f911461064b57600080fd5b806330ce6b0b146105a957806341fcd6cc146105c95780634243c541146105e957600080fd5b8063107046bd116102ec57806323b872dd116102c657806323b872dd1461050c57806323c554481461052c5780632b4b50051461054c5780633027ffd41461056e57600080fd5b8063107046bd14610469578063155dd5ee1461049f5780631fd0862f146104bf57600080fd5b8063086ed9381161031d578063086ed938146103f2578063095ea7b3146104195780630fdf190b1461043957600080fd5b806301ffc9a71461036357806306fdde0314610398578063081812fc146103ba57600080fd5b3661035e5761035c336103576001346145c7565b610bf0565b005b600080fd5b34801561036f57600080fd5b5061038361037e3660046145ff565b610c74565b60405190151581526020015b60405180910390f35b3480156103a457600080fd5b506103ad610cb8565b60405161038f919061466c565b3480156103c657600080fd5b506103da6103d536600461467f565b610d4a565b6040516001600160a01b03909116815260200161038f565b3480156103fe57600080fd5b50610407610d73565b60405161038f96959493929190614758565b34801561042557600080fd5b5061035c610434366004614824565b611099565b34801561044557600080fd5b5061038361045436600461467f565b60026020526000908152604090205460ff1681565b34801561047557600080fd5b5061048961048436600461467f565b6110a8565b60405161038f9a9998979695949392919061485e565b3480156104ab57600080fd5b5061035c6104ba36600461467f565b611216565b3480156104cb57600080fd5b506103836104da36600461467f565b6000908152600160209081526040808320546001600160a01b0316835290829052902060068101546005909101541090565b34801561051857600080fd5b5061035c6105273660046148da565b6112d1565b34801561053857600080fd5b5061035c6105473660046149c2565b611375565b34801561055857600080fd5b50610561611780565b60405161038f9190614ad8565b34801561057a57600080fd5b5061038361058936600461467f565b600090815260056020819052604090912090810154600690910154101590565b3480156105b557600080fd5b5061035c6105c4366004614aeb565b611965565b3480156105d557600080fd5b5061035c6105e436600461467f565b611aa1565b3480156105f557600080fd5b506105fe611aaf565b60405161038f9190614b0d565b34801561061757600080fd5b5061035c6106263660046148da565b611ad7565b34801561063757600080fd5b5061035c61064636600461467f565b611af7565b34801561065757600080fd5b5061066160045481565b60405190815260200161038f565b34801561067b57600080fd5b5061068f61068a366004614b71565b611b02565b60405161038f9796959493929190614b8c565b3480156106ae57600080fd5b506103da6106bd36600461467f565b611c5d565b3480156106ce57600080fd5b506106e26106dd36600461467f565b611c68565b60405161038f9190614beb565b3480156106fb57600080fd5b506105fe61070a366004614aeb565b611e27565b34801561071b57600080fd5b5061066161072a366004614b71565b6121a2565b34801561073b57600080fd5b5061074f61074a36600461467f565b612203565b6040805193845260208401929092529082015260600161038f565b34801561077657600080fd5b506105fe612312565b34801561078b57600080fd5b5061038361079a366004614b71565b6001600160a01b039081166000818152601260205260409020549091161490565b3480156107c757600080fd5b506103ad612328565b3480156107dc57600080fd5b506103836107eb36600461467f565b6007541190565b3480156107fe57600080fd5b5061035c61080d366004614c76565b612337565b34801561081e57600080fd5b5061035c61082d366004614cb2565b612342565b34801561083e57600080fd5b5061035c61084d366004614d16565b6124df565b34801561085e57600080fd5b5061035c61086d366004614aeb565b6125a5565b34801561087e57600080fd5b50610887612877565b60405161038f96959493929190614d4f565b3480156108a557600080fd5b5061035c6108b4366004614e01565b612ccf565b3480156108c557600080fd5b5061066160135481565b3480156108db57600080fd5b506106616108ea36600461467f565b60066020526000908152604090205481565b34801561090857600080fd5b5061038361091736600461467f565b612ce6565b34801561092857600080fd5b506103ad61093736600461467f565b612d0d565b34801561094857600080fd5b5061097c610957366004614b71565b601260205260009081526040902080546001909101546001600160a01b039091169082565b604080516001600160a01b03909316835260208301919091520161038f565b3480156109a757600080fd5b506106e26109b6366004614b71565b612e1e565b3480156109c757600080fd5b5061035c6109d636600461467f565b612e70565b3480156109e757600080fd5b5061035c6109f6366004614e7d565b612f5d565b348015610a0757600080fd5b50610383610a1636600461467f565b6000908152600160209081526040808320546001600160a01b0316835290829052902060050154151590565b348015610a4e57600080fd5b50610661610a5d366004614b71565b60086020526000908152604090205481565b348015610a7b57600080fd5b5061074f610a8a36600461467f565b61306a565b348015610a9b57600080fd5b50610383610aaa36600461467f565b60036020526000908152604090205460ff1681565b348015610acb57600080fd5b506103da610ada36600461467f565b6001602052600090815260409020546001600160a01b031681565b348015610b0157600080fd5b50610383610b10366004614eba565b6001600160a01b039182166000908152600e6020908152604080832093909416825291909152205460ff1690565b348015610b4a57600080fd5b50610b7a610b59366004614b71565b6001600160a01b031660009081526020819052604090206004015460ff1690565b60405161038f9190614eed565b348015610b9357600080fd5b50610661610ba2366004614b71565b6001600160a01b031660009081526012602052604090206001015490565b348015610bcc57600080fd5b50610383610bdb36600461467f565b60116020526000908152604090205460ff1681565b6001600160a01b0380831660008181526012602052604090205490911614610c4057610c40826001600160a01b0316600081815260126020526040902080546001600160a01b0319169091179055565b6001600160a01b03821660009081526012602052604081206001018054839290610c6b908490614efb565b90915550505050565b60006001600160e01b031982167f49064906000000000000000000000000000000000000000000000000000000001480610cb25750610cb2826130ff565b92915050565b606060098054610cc790614f0e565b80601f0160208091040260200160405190810160405280929190818152602001828054610cf390614f0e565b8015610d405780601f10610d1557610100808354040283529160200191610d40565b820191906000526020600020905b815481529060010190602001808311610d2357829003601f168201915b5050505050905090565b6000610d558261319a565b506000828152600d60205260409020546001600160a01b0316610cb2565b606080606080606080600060045467ffffffffffffffff811115610d9957610d99614916565b604051908082528060200260200182016040528015610dc2578160200160208202803683370190505b509050600060045467ffffffffffffffff811115610de257610de2614916565b604051908082528060200260200182016040528015610e1557816020015b6060815260200190600190039081610e005790505b509050600060045467ffffffffffffffff811115610e3557610e35614916565b604051908082528060200260200182016040528015610e6857816020015b6060815260200190600190039081610e535790505b509050600060045467ffffffffffffffff811115610e8857610e88614916565b604051908082528060200260200182016040528015610eb1578160200160208202803683370190505b509050600060045467ffffffffffffffff811115610ed157610ed1614916565b604051908082528060200260200182016040528015610efa578160200160208202803683370190505b509050600060045467ffffffffffffffff811115610f1a57610f1a614916565b604051908082528060200260200182016040528015610f43578160200160208202803683370190505b509050610f516004546131d3565b85600081518110610f6457610f64614f48565b602002602001018190525060005b600454811015611085576000610f8782611c68565b90508060000151888381518110610fa057610fa0614f48565b6020026020010181815250508060400151878381518110610fc357610fc3614f48565b60200260200101819052508060600151868381518110610fe557610fe5614f48565b6020026020010181905250806080015185838151811061100757611007614f48565b602002602001019060038111156110205761102061472e565b908160038111156110335761103361472e565b815250508060a0015184838151811061104e5761104e614f48565b6020026020010181815250508060c0015183838151811061107157611071614f48565b602090810291909101015250600101610f72565b50949b939a50919850965094509092509050565b6110a4828233613273565b5050565b6005602052600090815260409020805460018201546002830154600384018054939492936001600160a01b0390921692916110e290614f0e565b80601f016020809104026020016040519081016040528092919081815260200182805461110e90614f0e565b801561115b5780601f106111305761010080835404028352916020019161115b565b820191906000526020600020905b81548152906001019060200180831161113e57829003601f168201915b50505050509080600401805461117090614f0e565b80601f016020809104026020016040519081016040528092919081815260200182805461119c90614f0e565b80156111e95780601f106111be576101008083540402835291602001916111e9565b820191906000526020600020905b8154815290600101906020018083116111cc57829003601f168201915b505050506005830154600684015460078501546008860154600990960154949592949193509160ff16908a565b3360009081526012602052604090206001015481111561127d5760405162461bcd60e51b815260206004820152601260248201527f496e73756666696369656e742066756e6473000000000000000000000000000060448201526064015b60405180910390fd5b336000908152601260205260408120600101805483929061129f908490614f5e565b9091555050604051339082156108fc029083906000818181858888f193505050501580156110a4573d6000803e3d6000fd5b6001600160a01b0382166112fb57604051633250574960e11b815260006004820152602401611274565b6000611308838333613280565b9050836001600160a01b0316816001600160a01b03161461136f576040517f64283d7b0000000000000000000000000000000000000000000000000000000081526001600160a01b0380861660048301526024820184905282166044820152606401611274565b50505050565b336000818152602081905260409020600101546001600160a01b0316146113f35760405162461bcd60e51b815260206004820152602c60248201527f4f6e6c7920616e206f7267616e697a6174696f6e2063616e2063616c6c20746860448201526b34b990333ab731ba34b7b71760a11b6064820152608401611274565b60013360009081526020819052604090206004015460ff16600381111561141c5761141c61472e565b0361148f5760405162461bcd60e51b815260206004820152602260248201527f54686973206f7267616e69736174696f6e20686173206265656e2062616e6e6560448201527f642e0000000000000000000000000000000000000000000000000000000000006064820152608401611274565b600081116114df5760405162461bcd60e51b815260206004820152601b60248201527f476f616c206d7573742062652067726561746572207468616e203000000000006044820152606401611274565b33600090815260208181526040808320815160e0810183528154815260018201546001600160a01b031693810193909352600281018054919284019161152490614f0e565b80601f016020809104026020016040519081016040528092919081815260200182805461155090614f0e565b801561159d5780601f106115725761010080835404028352916020019161159d565b820191906000526020600020905b81548152906001019060200180831161158057829003601f168201915b505050505081526020016003820180546115b690614f0e565b80601f01602080910402602001604051908101604052809291908181526020018280546115e290614f0e565b801561162f5780601f106116045761010080835404028352916020019161162f565b820191906000526020600020905b81548152906001019060200180831161161257829003601f168201915b5050509183525050600482015460209091019060ff1660038111156116565761165661472e565b60038111156116675761166761472e565b8152602001600582015481526020016006820154815250509050336001600160a01b031681602001516001600160a01b0316146116fb5760405162461bcd60e51b815260206004820152602c60248201527f4f6e6c7920616e206f7267616e697a6174696f6e2063616e2063616c6c20746860448201526b34b990333ab731ba34b7b71760a11b6064820152608401611274565b6007546000818152600560205260409020908155815160018201556002810180546001600160a01b03191633179055600381016117388682614fc1565b50600481016117478582614fc1565b506005810183905560088101805460ff191660021790554260098201556007805490600061177483615081565b91905055505050505050565b6117886144ed565b60056000600160075461179b9190614f5e565b815260208082019290925260409081016000208151610140810183528154815260018201549381019390935260028101546001600160a01b0316918301919091526003810180546060840191906117f190614f0e565b80601f016020809104026020016040519081016040528092919081815260200182805461181d90614f0e565b801561186a5780601f1061183f5761010080835404028352916020019161186a565b820191906000526020600020905b81548152906001019060200180831161184d57829003601f168201915b5050505050815260200160048201805461188390614f0e565b80601f01602080910402602001604051908101604052809291908181526020018280546118af90614f0e565b80156118fc5780601f106118d1576101008083540402835291602001916118fc565b820191906000526020600020905b8154815290600101906020018083116118df57829003601f168201915b505050918352505060058201546020820152600682015460408201526007808301546060830152600883015460809092019160ff16908111156119415761194161472e565b60078111156119525761195261472e565b8152602001600982015481525050905090565b600260008381526005602052604090206008015460ff16600781111561198d5761198d61472e565b146119da5760405162461bcd60e51b815260206004820152601e60248201527f50726f6a656374206973206e6f7420696e20766f74696e6720737461746500006044820152606401611274565b6007548210611a2b5760405162461bcd60e51b815260206004820152601260248201527f496e76616c69642070726f6a65637420494400000000000000000000000000006044820152606401611274565b33600090815260126020526040902060010154811115611a8d5760405162461bcd60e51b815260206004820152601a60248201527f496e73756666696369656e7420766f74696e6720746f6b656e730000000000006044820152606401611274565b611a97338261337b565b6110a482826125a5565b611aac816006613411565b50565b6060611ad2600a600754611ac39190614f5e565b600160075461070a9190614f5e565b905090565b611af283838360405180602001604052806000815250612ccf565b505050565b611aac816005613411565b60006020819052908152604090208054600182015460028301805492936001600160a01b0390921692611b3490614f0e565b80601f0160208091040260200160405190810160405280929190818152602001828054611b6090614f0e565b8015611bad5780601f10611b8257610100808354040283529160200191611bad565b820191906000526020600020905b815481529060010190602001808311611b9057829003601f168201915b505050505090806003018054611bc290614f0e565b80601f0160208091040260200160405190810160405280929190818152602001828054611bee90614f0e565b8015611c3b5780601f10611c1057610100808354040283529160200191611c3b565b820191906000526020600020905b815481529060010190602001808311611c1e57829003601f168201915b5050505060048301546005840154600690940154929360ff9091169290915087565b6000610cb28261319a565b611c7061455a565b6000828152600160208181526040808420546001600160a01b03908116855284835293819020815160e08101835281548152938101549094169183019190915260028301805492939291840191611cc690614f0e565b80601f0160208091040260200160405190810160405280929190818152602001828054611cf290614f0e565b8015611d3f5780601f10611d1457610100808354040283529160200191611d3f565b820191906000526020600020905b815481529060010190602001808311611d2257829003601f168201915b50505050508152602001600382018054611d5890614f0e565b80601f0160208091040260200160405190810160405280929190818152602001828054611d8490614f0e565b8015611dd15780601f10611da657610100808354040283529160200191611dd1565b820191906000526020600020905b815481529060010190602001808311611db457829003601f168201915b5050509183525050600482015460209091019060ff166003811115611df857611df861472e565b6003811115611e0957611e0961472e565b81526005820154602082015260069091015460409091015292915050565b606081831115611e795760405162461bcd60e51b815260206004820152600d60248201527f496e76616c69642072616e6765000000000000000000000000000000000000006044820152606401611274565b6007548210611ed45760405162461bcd60e51b815260206004820152602160248201527f52616e676520657863656564732070726f6a656374206c697374206c656e67746044820152600d60fb1b6064820152608401611274565b6007548310611f2f5760405162461bcd60e51b815260206004820152602160248201527f52616e676520657863656564732070726f6a656374206c697374206c656e67746044820152600d60fb1b6064820152608401611274565b6000611f3b8484614f5e565b611f46906001614efb565b67ffffffffffffffff811115611f5e57611f5e614916565b604051908082528060200260200182016040528015611f9757816020015b611f846144ed565b815260200190600190039081611f7c5790505b509050835b83811161219a576000818152600560209081526040918290208251610140810184528154815260018201549281019290925260028101546001600160a01b031692820192909252600382018054919291606084019190611ffb90614f0e565b80601f016020809104026020016040519081016040528092919081815260200182805461202790614f0e565b80156120745780601f1061204957610100808354040283529160200191612074565b820191906000526020600020905b81548152906001019060200180831161205757829003601f168201915b5050505050815260200160048201805461208d90614f0e565b80601f01602080910402602001604051908101604052809291908181526020018280546120b990614f0e565b80156121065780601f106120db57610100808354040283529160200191612106565b820191906000526020600020905b8154815290600101906020018083116120e957829003601f168201915b505050918352505060058201546020820152600682015460408201526007808301546060830152600883015460809092019160ff169081111561214b5761214b61472e565b600781111561215c5761215c61472e565b815260200160098201548152505082828151811061217c5761217c614f48565b6020026020010181905250808061219290615081565b915050611f9c565b509392505050565b60006001600160a01b0382166121e7576040517f89c62b6400000000000000000000000000000000000000000000000000000000815260006004820152602401611274565b506001600160a01b03166000908152600c602052604090205490565b600080600061222d336001600160a01b039081166000818152601260205260409020549091161490565b6122855760405162461bcd60e51b815260206004820152602360248201527f4f6e6c7920646f6e6f72732063616e2063616c6c20746869732066756e63746960448201526237b71760e91b6064820152608401611274565b61228f3385613481565b61229884613518565b6000848152600160209081526040808320546001600160a01b03168352828252918290206005810154600690910154835188815292830182905292820183905291907f4ed29ecce84729ea0fabc7d919ec3f87df0a28303e6f57e1e696dfc22840e8f99060600160405180910390a1949590949350915050565b6060611ad26000600160075461070a9190614f5e565b6060600a8054610cc790614f0e565b6110a4338383613586565b336000818152602081905260409020600101546001600160a01b0316036123d15760405162461bcd60e51b815260206004820152602560248201527f596f752063616e206f6e6c7920637265617465206f6e65206f7267616e697a6160448201527f74696f6e2e0000000000000000000000000000000000000000000000000000006064820152608401611274565b6040805160e08101825260045481523360208201529081018390526060810182905260808101600281526000602080830182905260409283018290523382528181529082902083518155908301516001820180546001600160a01b0319166001600160a01b039092169190911790559082015160028201906124539082614fc1565b50606082015160038201906124689082614fc1565b50608082015160048201805460ff1916600183600381111561248c5761248c61472e565b021790555060a0820151600582015560c09091015160069091015560048054600090815260016020526040812080546001600160a01b03191633179055815491906124d683615081565b91905055505050565b60075483106125305760405162461bcd60e51b815260206004820152601260248201527f496e76616c69642070726f6a65637420494400000000000000000000000000006044820152606401611274565b60008381526005602081905260409091209081015460069091015410156125995760405162461bcd60e51b815260206004820152601660248201527f50726f6a656374206e6f742066756e64656420796574000000000000000000006044820152606401611274565b61136f8484848461363e565b600082815260056020526040812060070180548392906125c6908490614efb565b9091555050600082815260056020526040812060060180548392906125ec908490614efb565b909155506125fb905082613804565b600082815260056020819052604090912090810154600690910154106110a457600082815260056020908152604091829020600601548251858152918201527f5bc6714ccad33557efe1cb9d18fa771135ab68961f6add3d4bb6f115adec81a4910160405180910390a160008281526005602090815260408083208151610140810183528154815260018201549381019390935260028101546001600160a01b0316918301919091526003810180546060840191906126b990614f0e565b80601f01602080910402602001604051908101604052809291908181526020018280546126e590614f0e565b80156127325780601f1061270757610100808354040283529160200191612732565b820191906000526020600020905b81548152906001019060200180831161271557829003601f168201915b5050505050815260200160048201805461274b90614f0e565b80601f016020809104026020016040519081016040528092919081815260200182805461277790614f0e565b80156127c45780601f10612799576101008083540402835291602001916127c4565b820191906000526020600020905b8154815290600101906020018083116127a757829003601f168201915b505050918352505060058201546020820152600682015460408201526007808301546060830152600883015460809092019160ff16908111156128095761280961472e565b600781111561281a5761281a61472e565b815260200160098201548152505090506128378160400151612e1e565b602001516001600160a01b03166108fc8260c001519081150290604051600060405180830381858888f1935050505015801561136f573d6000803e3d6000fd5b606080606080606080600060075467ffffffffffffffff81111561289d5761289d614916565b6040519080825280602002602001820160405280156128d057816020015b60608152602001906001900390816128bb5790505b509050600060075467ffffffffffffffff8111156128f0576128f0614916565b60405190808252806020026020018201604052801561292357816020015b606081526020019060019003908161290e5790505b509050600060075467ffffffffffffffff81111561294357612943614916565b60405190808252806020026020018201604052801561296c578160200160208202803683370190505b509050600060075467ffffffffffffffff81111561298c5761298c614916565b6040519080825280602002602001820160405280156129b5578160200160208202803683370190505b509050600060075467ffffffffffffffff8111156129d5576129d5614916565b6040519080825280602002602001820160405280156129fe578160200160208202803683370190505b509050600060075467ffffffffffffffff811115612a1e57612a1e614916565b604051908082528060200260200182016040528015612a47578160200160208202803683370190505b50905060005b6007548110156110855760008181526005602052604090206003018054612a7390614f0e565b80601f0160208091040260200160405190810160405280929190818152602001828054612a9f90614f0e565b8015612aec5780601f10612ac157610100808354040283529160200191612aec565b820191906000526020600020905b815481529060010190602001808311612acf57829003601f168201915b5050505050878281518110612b0357612b03614f48565b6020026020010181905250600560008281526020019081526020016000206004018054612b2f90614f0e565b80601f0160208091040260200160405190810160405280929190818152602001828054612b5b90614f0e565b8015612ba85780601f10612b7d57610100808354040283529160200191612ba8565b820191906000526020600020905b815481529060010190602001808311612b8b57829003601f168201915b5050505050868281518110612bbf57612bbf614f48565b60200260200101819052506005600082815260200190815260200160002060050154858281518110612bf357612bf3614f48565b6020026020010181815250506005600082815260200190815260200160002060060154848281518110612c2857612c28614f48565b6020026020010181815250506005600082815260200190815260200160002060000154838281518110612c5d57612c5d614f48565b602090810291909101810191909152600082815260059091526040902060080154825160ff90911690839083908110612c9857612c98614f48565b60200260200101906007811115612cb157612cb161472e565b90816007811115612cc457612cc461472e565b905250600101612a4d565b612cda8484846112d1565b61136f84848484613a3f565b600081815260056020526040812060090154612d05906249d400614efb565b421192915050565b6060612d188261319a565b506000828152600f602052604081208054612d3290614f0e565b80601f0160208091040260200160405190810160405280929190818152602001828054612d5e90614f0e565b8015612dab5780601f10612d8057610100808354040283529160200191612dab565b820191906000526020600020905b815481529060010190602001808311612d8e57829003601f168201915b505050505090506000612dc960408051602081019091526000815290565b90508051600003612ddb575092915050565b815115612e0d578082604051602001612df592919061509a565b60405160208183030381529060405292505050919050565b612e1684613b68565b949350505050565b612e2661455a565b6001600160a01b0380831660009081526020818152604091829020825160e081018452815481526001820154909416918401919091526002810180549192840191611cc690614f0e565b600081815260056020526040812060010154612e8b90611c68565b60209081015160008481526005909252604090912060060154909150612eb083612ce6565b15612ec057612ec0836003613411565b60026001600160a01b03831660009081526020819052604090206004015460ff166003811115612ef257612ef261472e565b14612efc57505050565b60008381526005602081905260409091209081015460069091015410611af257612f27836004613411565b6040516001600160a01b0383169082156108fc029083906000818181858888f1935050505015801561136f573d6000803e3d6000fd5b600460008381526005602052604090206008015460ff166007811115612f8557612f8561472e565b14612fd25760405162461bcd60e51b815260206004820152601760248201527f50726f6a656374206e6f742073746172746564207965740000000000000000006044820152606401611274565b6000828152600560205260409020600201546001600160a01b031633146130615760405162461bcd60e51b815260206004820152602260248201527f4f6e6c792070726f6a656374206f776e65722063616e20656e642070726f6a6560448201527f63740000000000000000000000000000000000000000000000000000000000006064820152608401611274565b6110a482611af7565b6000806000613094336001600160a01b039081166000818152601260205260409020549091161490565b6130ec5760405162461bcd60e51b815260206004820152602360248201527f4f6e6c7920646f6e6f72732063616e2063616c6c20746869732066756e63746960448201526237b71760e91b6064820152608401611274565b6130f63385613481565b61229884613bdc565b60006001600160e01b031982167f80ac58cd00000000000000000000000000000000000000000000000000000000148061316257506001600160e01b031982167f5b5e139f00000000000000000000000000000000000000000000000000000000145b80610cb257507f01ffc9a7000000000000000000000000000000000000000000000000000000006001600160e01b0319831614610cb2565b6000818152600b60205260408120546001600160a01b031680610cb257604051637e27328960e01b815260048101849052602401611274565b606060006131e083613c3c565b600101905060008167ffffffffffffffff81111561320057613200614916565b6040519080825280601f01601f19166020018201604052801561322a576020820181803683370190505b5090508181016020015b600019017f3031323334353637383961626364656600000000000000000000000000000000600a86061a8153600a850494508461323457509392505050565b611af28383836001613d1e565b6000828152600b60205260408120546001600160a01b03908116908316156132ad576132ad818486613e5c565b6001600160a01b038116156132eb576132ca600085600080613d1e565b6001600160a01b0381166000908152600c6020526040902080546000190190555b6001600160a01b0385161561331a576001600160a01b0385166000908152600c60205260409020805460010190555b6000848152600b602052604080822080546001600160a01b0319166001600160a01b0389811691821790925591518793918516917fddf252ad1be2c89b69c2b068fc378daa952ba7f163c4a11628f55a4df523b3ef91a490505b9392505050565b6001600160a01b0382166000908152601260205260409020600101548111156133e65760405162461bcd60e51b815260206004820152601a60248201527f496e73756666696369656e7420766f74696e6720746f6b656e730000000000006044820152606401611274565b6001600160a01b03821660009081526012602052604081206001018054839290610c6b908490614f5e565b6000828152600560205260409020600801805482919060ff1916600183600781111561343f5761343f61472e565b02179055507ffafe884515ca1fa5e0bf815ce87ef00b2cdaa0eee590d20376604937937a10bf82826040516134759291906150c9565b60405180910390a15050565b61348d82826001613ed9565b156134cb5761349b81613f18565b6000600260006134ab8585613f4a565b81526020810191909152604001600020805460ff19169115159190911790555b6134d782826000613ed9565b156110a4576134e581613fd6565b6000600360006134f58585613f4a565b81526020810191909152604001600020805460ff19169115159190911790555050565b6001600260006135283385613f4a565b815260208082019290925260409081016000908120805460ff19169415159490941790935583835260018252808320546001600160a01b0316835290829052812060050180549161357883615081565b9190505550611aac81614008565b6001600160a01b0382166135d1576040517f5b08ba180000000000000000000000000000000000000000000000000000000081526001600160a01b0383166004820152602401611274565b6001600160a01b038381166000818152600e6020908152604080832094871680845294825291829020805460ff191686151590811790915591519182527f17307eab39ab6107e8899845ad3d59bd9653f200f220920489ca2b5937696c31910160405180910390a3505050565b6000613667613657866001600160a01b031660146140d6565b613660866131d3565b85856142ac565b60008181526011602052604090205490915060ff16156136c95760405162461bcd60e51b815260206004820152601360248201527f4e465420616c72656164792063726561746564000000000000000000000000006044820152606401611274565b6000818152601160205260409020805460ff191660011790556010546136f0908690614331565b6000836040516020016137c791907f646174613a6170706c69636174696f6e2f6a736f6e2c7b2250726f6a6563742081527f5469746c65223a22446f6e6174696f6e204e4654222c2264657363726970746960208201527f6f6e223a22202b2070726f6a656374735b5f70726f6a65637449645d2e70726f60408201527f6a6563744465736372697074696f6e2829202b20000000000000000000000000606082015260748101919091527f2045544820746f2074686520636f6e74726163742e227d000000000000000000609482015260ab0190565b60405160208183030381529060405290506137e46010548261434b565b6001601060008282546137f79190614efb565b9091555050505050505050565b60008181526005602090815260408083208151610140810183528154815260018201549381019390935260028101546001600160a01b03169183019190915260038101805460608401919061385890614f0e565b80601f016020809104026020016040519081016040528092919081815260200182805461388490614f0e565b80156138d15780601f106138a6576101008083540402835291602001916138d1565b820191906000526020600020905b8154815290600101906020018083116138b457829003601f168201915b505050505081526020016004820180546138ea90614f0e565b80601f016020809104026020016040519081016040528092919081815260200182805461391690614f0e565b80156139635780601f1061393857610100808354040283529160200191613963565b820191906000526020600020905b81548152906001019060200180831161394657829003601f168201915b505050918352505060058201546020820152600682015460408201526007808301546060830152600883015460809092019160ff16908111156139a8576139a861472e565b60078111156139b9576139b961472e565b8152600991909101546020909101529050600281610100015160078111156139e3576139e361472e565b036139f1576139f182612e70565b60048161010001516007811115613a0a57613a0a61472e565b03613a1857613a1882611af7565b60058161010001516007811115613a3157613a3161472e565b036110a4576110a482611aa1565b6001600160a01b0383163b1561136f57604051630a85bd0160e11b81526001600160a01b0384169063150b7a0290613a819033908890879087906004016150dd565b6020604051808303816000875af1925050508015613abc575060408051601f3d908101601f19168201909252613ab99181019061510f565b60015b613b25573d808015613aea576040519150601f19603f3d011682016040523d82523d6000602084013e613aef565b606091505b508051600003613b1d57604051633250574960e11b81526001600160a01b0385166004820152602401611274565b805181602001fd5b6001600160e01b03198116630a85bd0160e11b14613b6157604051633250574960e11b81526001600160a01b0385166004820152602401611274565b5050505050565b6060613b738261319a565b506000613b8b60408051602081019091526000815290565b90506000815111613bab5760405180602001604052806000815250613374565b80613bb5846131d3565b604051602001613bc692919061509a565b6040516020818303038152906040529392505050565b600160036000613bec3385613f4a565b815260208082019290925260409081016000908120805460ff19169415159490941790935583835260018252808320546001600160a01b0316835290829052812060060180549161357883615081565b6000807a184f03e93ff9f4daa797ed6e38ed64bf6a1f0100000000000000008310613c85577a184f03e93ff9f4daa797ed6e38ed64bf6a1f010000000000000000830492506040015b6d04ee2d6d415b85acef81000000008310613cb1576d04ee2d6d415b85acef8100000000830492506020015b662386f26fc100008310613ccf57662386f26fc10000830492506010015b6305f5e1008310613ce7576305f5e100830492506008015b6127108310613cfb57612710830492506004015b60648310613d0d576064830492506002015b600a8310610cb25760010192915050565b8080613d3257506001600160a01b03821615155b15613e2c576000613d428461319a565b90506001600160a01b03831615801590613d6e5750826001600160a01b0316816001600160a01b031614155b8015613da057506001600160a01b038082166000908152600e602090815260408083209387168352929052205460ff16155b15613de2576040517fa9fbf51f0000000000000000000000000000000000000000000000000000000081526001600160a01b0384166004820152602401611274565b8115613e2a5783856001600160a01b0316826001600160a01b03167f8c5be1e5ebec7d5bd14f71427d1e84f3dd0314c0f7b2291e5b200ac8c7c3b92560405160405180910390a45b505b50506000908152600d6020526040902080546001600160a01b0319166001600160a01b0392909216919091179055565b613e67838383614394565b611af2576001600160a01b038316613e9557604051637e27328960e01b815260048101829052602401611274565b6040517f177e802f0000000000000000000000000000000000000000000000000000000081526001600160a01b038316600482015260248101829052604401611274565b60008115613f0a5760026000613eef8686613f4a565b815260208101919091526040016000205460ff169050613374565b60036000613eef8686613f4a565b6000818152600160209081526040808320546001600160a01b031683529082905281206005018054916135788361512c565b6040516bffffffffffffffffffffffff19606084901b1660208201526034810182905260009081906054016040516020818303038152906040529050600281604051613f969190615143565b602060405180830381855afa158015613fb3573d6000803e3d6000fd5b5050506040513d601f19601f82011682018060405250810190612e16919061515f565b6000818152600160209081526040808320546001600160a01b031683529082905281206006018054916135788361512c565b6000818152600160209081526040808320546001600160a01b031683529082905290206006810154600590910154101561406357600081815260016020819052604090912054611aac916001600160a01b0390911690614417565b6000818152600160209081526040808320546001600160a01b0316835290829052902060050154156140b257600081815260016020526040902054611aac906001600160a01b03166002614417565b600081815260016020526040812054611aac916001600160a01b0390911690614417565b60608260006140e6846002615178565b6140f1906002614efb565b67ffffffffffffffff81111561410957614109614916565b6040519080825280601f01601f191660200182016040528015614133576020820181803683370190505b5090507f30000000000000000000000000000000000000000000000000000000000000008160008151811061416a5761416a614f48565b60200101906001600160f81b031916908160001a9053507f7800000000000000000000000000000000000000000000000000000000000000816001815181106141b5576141b5614f48565b60200101906001600160f81b031916908160001a90535060006141d9856002615178565b6141e4906001614efb565b90505b6001811115614269577f303132333435363738396162636465660000000000000000000000000000000083600f166010811061422557614225614f48565b1a60f81b82828151811061423b5761423b614f48565b60200101906001600160f81b031916908160001a90535060049290921c916142628161512c565b90506141e7565b508115612e16576040517fe22e27eb0000000000000000000000000000000000000000000000000000000081526004810186905260248101859052604401611274565b600080858585856040516020016142c6949392919061518f565b60405160208183030381529060405290506002816040516142e79190615143565b602060405180830381855afa158015614304573d6000803e3d6000fd5b5050506040513d601f19601f82011682018060405250810190614327919061515f565b9695505050505050565b6110a4828260405180602001604052806000815250614458565b6000828152600f602052604090206143638282614fc1565b506040518281527ff8e1a15aba9398e019f0b49df1a4fde98ee17ae345cb5f6b5e2c27f5033e8ce790602001613475565b60006001600160a01b03831615801590612e165750826001600160a01b0316846001600160a01b031614806143ee57506001600160a01b038085166000908152600e602090815260408083209387168352929052205460ff165b80612e165750506000908152600d60205260409020546001600160a01b03908116911614919050565b6001600160a01b0382166000908152602081905260409020600401805482919060ff1916600183600381111561444f5761444f61472e565b02179055505050565b614462838361446f565b611af26000848484613a3f565b6001600160a01b03821661449957604051633250574960e11b815260006004820152602401611274565b60006144a783836000613280565b90506001600160a01b03811615611af2576040517f73c6ac6e00000000000000000000000000000000000000000000000000000000815260006004820152602401611274565b604051806101400160405280600081526020016000815260200160006001600160a01b0316815260200160608152602001606081526020016000815260200160008152602001600081526020016000600781111561454d5761454d61472e565b8152602001600081525090565b6040518060e001604052806000815260200160006001600160a01b0316815260200160608152602001606081526020016000600381111561459d5761459d61472e565b815260200160008152602001600081525090565b634e487b7160e01b600052601160045260246000fd5b6000826145e457634e487b7160e01b600052601260045260246000fd5b500490565b6001600160e01b031981168114611aac57600080fd5b60006020828403121561461157600080fd5b8135613374816145e9565b60005b8381101561463757818101518382015260200161461f565b50506000910152565b6000815180845261465881602086016020860161461c565b601f01601f19169290920160200192915050565b6020815260006133746020830184614640565b60006020828403121561469157600080fd5b5035919050565b60008151808452602080850194506020840160005b838110156146c9578151875295820195908201906001016146ad565b509495945050505050565b60008282518085526020808601955060208260051b8401016020860160005b8481101561472157601f1986840301895261470f838351614640565b988401989250908301906001016146f3565b5090979650505050505050565b634e487b7160e01b600052602160045260246000fd5b600481106147545761475461472e565b9052565b60c08152600061476b60c0830189614698565b6020838203602085015261477f828a6146d4565b9150838203604085015261479382896146d4565b848103606086015287518082526020808a0194509091019060005b818110156147d1576147c1838651614744565b93830193918301916001016147ae565b505084810360808601526147e58188614698565b9250505082810360a08401526147fb8185614698565b9998505050505050505050565b80356001600160a01b038116811461481f57600080fd5b919050565b6000806040838503121561483757600080fd5b61484083614808565b946020939093013593505050565b600881106147545761475461472e565b60006101408c83528b60208401526001600160a01b038b16604084015280606084015261488d8184018b614640565b905082810360808401526148a1818a614640565b9150508660a08301528560c08301528460e08301526148c461010083018561484e565b826101208301529b9a5050505050505050505050565b6000806000606084860312156148ef57600080fd5b6148f884614808565b925061490660208501614808565b9150604084013590509250925092565b634e487b7160e01b600052604160045260246000fd5b600067ffffffffffffffff8084111561494757614947614916565b604051601f8501601f19908116603f0116810190828211818310171561496f5761496f614916565b8160405280935085815286868601111561498857600080fd5b858560208301376000602087830101525050509392505050565b600082601f8301126149b357600080fd5b6133748383356020850161492c565b6000806000606084860312156149d757600080fd5b833567ffffffffffffffff808211156149ef57600080fd5b6149fb878388016149a2565b94506020860135915080821115614a1157600080fd5b50614a1e868287016149a2565b925050604084013590509250925092565b600061014082518452602083015160208501526040830151614a5c60408601826001600160a01b03169052565b506060830151816060860152614a7482860182614640565b91505060808301518482036080860152614a8e8282614640565b91505060a083015160a085015260c083015160c085015260e083015160e085015261010080840151614ac28287018261484e565b5050610120928301519390920192909252919050565b6020815260006133746020830184614a2f565b60008060408385031215614afe57600080fd5b50508035926020909101359150565b600060208083016020845280855180835260408601915060408160051b87010192506020870160005b82811015614b6457603f19888603018452614b52858351614a2f565b94509285019290850190600101614b36565b5092979650505050505050565b600060208284031215614b8357600080fd5b61337482614808565b8781526001600160a01b038716602082015260e060408201526000614bb460e0830188614640565b8281036060840152614bc68188614640565b915050614bd66080830186614744565b60a082019390935260c0015295945050505050565b60208152815160208201526001600160a01b0360208301511660408201526000604083015160e06060840152614c25610100840182614640565b90506060840151601f19848303016080850152614c428282614640565b9150506080840151614c5760a0850182614744565b5060a084015160c084015260c084015160e08401528091505092915050565b60008060408385031215614c8957600080fd5b614c9283614808565b915060208301358015158114614ca757600080fd5b809150509250929050565b60008060408385031215614cc557600080fd5b823567ffffffffffffffff80821115614cdd57600080fd5b614ce9868387016149a2565b93506020850135915080821115614cff57600080fd5b50614d0c858286016149a2565b9150509250929050565b60008060008060808587031215614d2c57600080fd5b614d3585614808565b966020860135965060408601359560600135945092505050565b60c081526000614d6260c08301896146d4565b60208382036020850152614d76828a6146d4565b91508382036040850152614d8a8289614698565b91508382036060850152614d9e8288614698565b91508382036080850152614db28287614698565b84810360a08601528551808252602080880194509091019060005b81811015614df057614de083865161484e565b9383019391830191600101614dcd565b50909b9a5050505050505050505050565b60008060008060808587031215614e1757600080fd5b614e2085614808565b9350614e2e60208601614808565b925060408501359150606085013567ffffffffffffffff811115614e5157600080fd5b8501601f81018713614e6257600080fd5b614e718782356020840161492c565b91505092959194509250565b60008060408385031215614e9057600080fd5b82359150602083013567ffffffffffffffff811115614eae57600080fd5b614d0c858286016149a2565b60008060408385031215614ecd57600080fd5b614ed683614808565b9150614ee460208401614808565b90509250929050565b60208101610cb28284614744565b80820180821115610cb257610cb26145b1565b600181811c90821680614f2257607f821691505b602082108103614f4257634e487b7160e01b600052602260045260246000fd5b50919050565b634e487b7160e01b600052603260045260246000fd5b81810381811115610cb257610cb26145b1565b601f821115611af2576000816000526020600020601f850160051c81016020861015614f9a5750805b601f850160051c820191505b81811015614fb957828155600101614fa6565b505050505050565b815167ffffffffffffffff811115614fdb57614fdb614916565b614fef81614fe98454614f0e565b84614f71565b602080601f831160018114615024576000841561500c5750858301515b600019600386901b1c1916600185901b178555614fb9565b600085815260208120601f198616915b8281101561505357888601518255948401946001909101908401615034565b50858210156150715787850151600019600388901b60f8161c191681555b5050505050600190811b01905550565b600060018201615093576150936145b1565b5060010190565b600083516150ac81846020880161461c565b8351908301906150c081836020880161461c565b01949350505050565b82815260408101613374602083018461484e565b60006001600160a01b038087168352808616602084015250836040830152608060608301526143276080830184614640565b60006020828403121561512157600080fd5b8151613374816145e9565b60008161513b5761513b6145b1565b506000190190565b6000825161515581846020870161461c565b9190910192915050565b60006020828403121561517157600080fd5b5051919050565b8082028115828204841417610cb257610cb26145b1565b600085516151a1818460208a0161461c565b8551908301906151b5818360208a0161461c565b01938452505060208201526040019291505056fea26469706673582212206de396ec65b2d58e8bbe11207e9eaf6bd7eaf4480dbc69d0b30275130265ab9764736f6c63430008180033",
  "linkReferences": {},
  "deployedLinkReferences": {}
}