{
  "_format": "hh-sol-artifact-1",
  "contractName": "DAO_SLR",
  "sourceName": "contracts/DAO_SLR.sol",
  "abi": [
    {
      "inputs": [
        {
          "internalType": "address",
          "name": "sender",
          "type": "address"
        },
        {
          "internalType": "uint256",
          "name": "tokenId",
          "type": "uint256"
        },
        {
          "internalType": "address",
          "name": "owner",
          "type": "address"
        }
      ],
      "name": "ERC721IncorrectOwner",
      "type": "error"
    },
    {
      "inputs": [
        {
          "internalType": "address",
          "name": "operator",
          "type": "address"
        },
        {
          "internalType": "uint256",
          "name": "tokenId",
          "type": "uint256"
        }
      ],
      "name": "ERC721InsufficientApproval",
      "type": "error"
    },
    {
      "inputs": [
        {
          "internalType": "address",
          "name": "approver",
          "type": "address"
        }
      ],
      "name": "ERC721InvalidApprover",
      "type": "error"
    },
    {
      "inputs": [
        {
          "internalType": "address",
          "name": "operator",
          "type": "address"
        }
      ],
      "name": "ERC721InvalidOperator",
      "type": "error"
    },
    {
      "inputs": [
        {
          "internalType": "address",
          "name": "owner",
          "type": "address"
        }
      ],
      "name": "ERC721InvalidOwner",
      "type": "error"
    },
    {
      "inputs": [
        {
          "internalType": "address",
          "name": "receiver",
          "type": "address"
        }
      ],
      "name": "ERC721InvalidReceiver",
      "type": "error"
    },
    {
      "inputs": [
        {
          "internalType": "address",
          "name": "sender",
          "type": "address"
        }
      ],
      "name": "ERC721InvalidSender",
      "type": "error"
    },
    {
      "inputs": [
        {
          "internalType": "uint256",
          "name": "tokenId",
          "type": "uint256"
        }
      ],
      "name": "ERC721NonexistentToken",
      "type": "error"
    },
    {
      "inputs": [
        {
          "internalType": "uint256",
          "name": "value",
          "type": "uint256"
        },
        {
          "internalType": "uint256",
          "name": "length",
          "type": "uint256"
        }
      ],
      "name": "StringsInsufficientHexLength",
      "type": "error"
    },
    {
      "anonymous": false,
      "inputs": [
        {
          "indexed": true,
          "internalType": "address",
          "name": "owner",
          "type": "address"
        },
        {
          "indexed": true,
          "internalType": "address",
          "name": "approved",
          "type": "address"
        },
        {
          "indexed": true,
          "internalType": "uint256",
          "name": "tokenId",
          "type": "uint256"
        }
      ],
      "name": "Approval",
      "type": "event"
    },
    {
      "anonymous": false,
      "inputs": [
        {
          "indexed": true,
          "internalType": "address",
          "name": "owner",
          "type": "address"
        },
        {
          "indexed": true,
          "internalType": "address",
          "name": "operator",
          "type": "address"
        },
        {
          "indexed": false,
          "internalType": "bool",
          "name": "approved",
          "type": "bool"
        }
      ],
      "name": "ApprovalForAll",
      "type": "event"
    },
    {
      "anonymous": false,
      "inputs": [
        {
          "indexed": false,
          "internalType": "uint256",
          "name": "_fromTokenId",
          "type": "uint256"
        },
        {
          "indexed": false,
          "internalType": "uint256",
          "name": "_toTokenId",
          "type": "uint256"
        }
      ],
      "name": "BatchMetadataUpdate",
      "type": "event"
    },
    {
      "anonymous": false,
      "inputs": [
        {
          "indexed": false,
          "internalType": "uint256",
          "name": "_projectId",
          "type": "uint256"
        },
        {
          "indexed": false,
          "internalType": "uint256",
          "name": "_amount",
          "type": "uint256"
        }
      ],
      "name": "FundingGoalReached",
      "type": "event"
    },
    {
      "anonymous": false,
      "inputs": [
        {
          "indexed": false,
          "internalType": "uint256",
          "name": "_tokenId",
          "type": "uint256"
        }
      ],
      "name": "MetadataUpdate",
      "type": "event"
    },
    {
      "anonymous": false,
      "inputs": [
        {
          "indexed": false,
          "internalType": "uint256",
          "name": "_projectId",
          "type": "uint256"
        },
        {
          "indexed": false,
          "internalType": "enum ProjectState",
          "name": "_newState",
          "type": "uint8"
        }
      ],
      "name": "StateChanged",
      "type": "event"
    },
    {
      "anonymous": false,
      "inputs": [
        {
          "indexed": true,
          "internalType": "address",
          "name": "from",
          "type": "address"
        },
        {
          "indexed": true,
          "internalType": "address",
          "name": "to",
          "type": "address"
        },
        {
          "indexed": true,
          "internalType": "uint256",
          "name": "tokenId",
          "type": "uint256"
        }
      ],
      "name": "Transfer",
      "type": "event"
    },
    {
      "inputs": [
        {
          "internalType": "address",
          "name": "to",
          "type": "address"
        },
        {
          "internalType": "uint256",
          "name": "tokenId",
          "type": "uint256"
        }
      ],
      "name": "approve",
      "outputs": [],
      "stateMutability": "nonpayable",
      "type": "function"
    },
    {
      "inputs": [
        {
          "internalType": "address",
          "name": "owner",
          "type": "address"
        }
      ],
      "name": "balanceOf",
      "outputs": [
        {
          "internalType": "uint256",
          "name": "",
          "type": "uint256"
        }
      ],
      "stateMutability": "view",
      "type": "function"
    },
    {
      "inputs": [
        {
          "internalType": "string",
          "name": "_organizationName",
          "type": "string"
        },
        {
          "internalType": "string",
          "name": "_organizationDescription",
          "type": "string"
        }
      ],
      "name": "createOrganization",
      "outputs": [],
      "stateMutability": "nonpayable",
      "type": "function"
    },
    {
      "inputs": [
        {
          "internalType": "string",
          "name": "_title",
          "type": "string"
        },
        {
          "internalType": "string",
          "name": "_description",
          "type": "string"
        },
        {
          "internalType": "uint256",
          "name": "_goal",
          "type": "uint256"
        }
      ],
      "name": "createProject",
      "outputs": [],
      "stateMutability": "nonpayable",
      "type": "function"
    },
    {
      "inputs": [
        {
          "internalType": "address",
          "name": "_recipient",
          "type": "address"
        },
        {
          "internalType": "uint256",
          "name": "_projectId",
          "type": "uint256"
        },
        {
          "internalType": "uint256",
          "name": "_donationAmount",
          "type": "uint256"
        },
        {
          "internalType": "uint256",
          "name": "_timestamp",
          "type": "uint256"
        }
      ],
      "name": "createReceipt",
      "outputs": [],
      "stateMutability": "nonpayable",
      "type": "function"
    },
    {
      "inputs": [
        {
          "internalType": "address",
          "name": "_donor",
          "type": "address"
        }
      ],
      "name": "doesDonorExist",
      "outputs": [
        {
          "internalType": "bool",
          "name": "",
          "type": "bool"
        }
      ],
      "stateMutability": "view",
      "type": "function"
    },
    {
      "inputs": [
        {
          "internalType": "uint256",
          "name": "_projectId",
          "type": "uint256"
        }
      ],
      "name": "doesProjectExist",
      "outputs": [
        {
          "internalType": "bool",
          "name": "",
          "type": "bool"
        }
      ],
      "stateMutability": "view",
      "type": "function"
    },
    {
      "inputs": [
        {
          "internalType": "address",
          "name": "",
          "type": "address"
        }
      ],
      "name": "donors",
      "outputs": [
        {
          "internalType": "address",
          "name": "donorAddress",
          "type": "address"
        },
        {
          "internalType": "uint256",
          "name": "votingTokens",
          "type": "uint256"
        }
      ],
      "stateMutability": "view",
      "type": "function"
    },
    {
      "inputs": [
        {
          "internalType": "uint256",
          "name": "_projectId",
          "type": "uint256"
        },
        {
          "internalType": "string",
          "name": "_proofUrl",
          "type": "string"
        }
      ],
      "name": "endProject",
      "outputs": [],
      "stateMutability": "nonpayable",
      "type": "function"
    },
    {
      "inputs": [
        {
          "internalType": "uint256",
          "name": "_projectId",
          "type": "uint256"
        }
      ],
      "name": "exceededTimeLimit",
      "outputs": [
        {
          "internalType": "bool",
          "name": "",
          "type": "bool"
        }
      ],
      "stateMutability": "view",
      "type": "function"
    },
    {
      "inputs": [],
      "name": "getAllProjects",
      "outputs": [
        {
          "components": [
            {
              "internalType": "uint256",
              "name": "projectId",
              "type": "uint256"
            },
            {
              "internalType": "uint256",
              "name": "organizationId",
              "type": "uint256"
            },
            {
              "internalType": "address payable",
              "name": "projectOwner",
              "type": "address"
            },
            {
              "internalType": "string",
              "name": "projectTitle",
              "type": "string"
            },
            {
              "internalType": "string",
              "name": "projectDescription",
              "type": "string"
            },
            {
              "internalType": "uint256",
              "name": "fundingGoal",
              "type": "uint256"
            },
            {
              "internalType": "uint256",
              "name": "currentFunding",
              "type": "uint256"
            },
            {
              "internalType": "uint256",
              "name": "totalVotes",
              "type": "uint256"
            },
            {
              "internalType": "enum ProjectState",
              "name": "state",
              "type": "uint8"
            },
            {
              "internalType": "uint256",
              "name": "creationTimestamp",
              "type": "uint256"
            }
          ],
          "internalType": "struct Project[]",
          "name": "",
          "type": "tuple[]"
        }
      ],
      "stateMutability": "view",
      "type": "function"
    },
    {
      "inputs": [],
      "name": "getAllProjectsTest",
      "outputs": [
        {
          "internalType": "string[]",
          "name": "names",
          "type": "string[]"
        }
      ],
      "stateMutability": "view",
      "type": "function"
    },
    {
      "inputs": [
        {
          "internalType": "uint256",
          "name": "tokenId",
          "type": "uint256"
        }
      ],
      "name": "getApproved",
      "outputs": [
        {
          "internalType": "address",
          "name": "",
          "type": "address"
        }
      ],
      "stateMutability": "view",
      "type": "function"
    },
    {
      "inputs": [
        {
          "internalType": "address",
          "name": "_donor",
          "type": "address"
        }
      ],
      "name": "getDonorTokenBalance",
      "outputs": [
        {
          "internalType": "uint256",
          "name": "",
          "type": "uint256"
        }
      ],
      "stateMutability": "view",
      "type": "function"
    },
    {
      "inputs": [],
      "name": "getLastTenProjects",
      "outputs": [
        {
          "components": [
            {
              "internalType": "uint256",
              "name": "projectId",
              "type": "uint256"
            },
            {
              "internalType": "uint256",
              "name": "organizationId",
              "type": "uint256"
            },
            {
              "internalType": "address payable",
              "name": "projectOwner",
              "type": "address"
            },
            {
              "internalType": "string",
              "name": "projectTitle",
              "type": "string"
            },
            {
              "internalType": "string",
              "name": "projectDescription",
              "type": "string"
            },
            {
              "internalType": "uint256",
              "name": "fundingGoal",
              "type": "uint256"
            },
            {
              "internalType": "uint256",
              "name": "currentFunding",
              "type": "uint256"
            },
            {
              "internalType": "uint256",
              "name": "totalVotes",
              "type": "uint256"
            },
            {
              "internalType": "enum ProjectState",
              "name": "state",
              "type": "uint8"
            },
            {
              "internalType": "uint256",
              "name": "creationTimestamp",
              "type": "uint256"
            }
          ],
          "internalType": "struct Project[]",
          "name": "",
          "type": "tuple[]"
        }
      ],
      "stateMutability": "view",
      "type": "function"
    },
    {
      "inputs": [
        {
          "internalType": "address",
          "name": "_walletAddress",
          "type": "address"
        }
      ],
      "name": "getOrganization",
      "outputs": [
        {
          "components": [
            {
              "internalType": "uint256",
              "name": "organizationId",
              "type": "uint256"
            },
            {
              "internalType": "address payable",
              "name": "walletAddress",
              "type": "address"
            },
            {
              "internalType": "string",
              "name": "organizationName",
              "type": "string"
            },
            {
              "internalType": "string",
              "name": "organizationDescription",
              "type": "string"
            },
            {
              "internalType": "enum OrganizationState",
              "name": "state",
              "type": "uint8"
            },
            {
              "internalType": "uint256",
              "name": "votes",
              "type": "uint256"
            },
            {
              "internalType": "uint256",
              "name": "downVotes",
              "type": "uint256"
            }
          ],
          "internalType": "struct Organization",
          "name": "",
          "type": "tuple"
        }
      ],
      "stateMutability": "view",
      "type": "function"
    },
    {
      "inputs": [
        {
          "internalType": "uint256",
          "name": "_orgId",
          "type": "uint256"
        }
      ],
      "name": "getOrganizationById",
      "outputs": [
        {
          "components": [
            {
              "internalType": "uint256",
              "name": "organizationId",
              "type": "uint256"
            },
            {
              "internalType": "address payable",
              "name": "walletAddress",
              "type": "address"
            },
            {
              "internalType": "string",
              "name": "organizationName",
              "type": "string"
            },
            {
              "internalType": "string",
              "name": "organizationDescription",
              "type": "string"
            },
            {
              "internalType": "enum OrganizationState",
              "name": "state",
              "type": "uint8"
            },
            {
              "internalType": "uint256",
              "name": "votes",
              "type": "uint256"
            },
            {
              "internalType": "uint256",
              "name": "downVotes",
              "type": "uint256"
            }
          ],
          "internalType": "struct Organization",
          "name": "",
          "type": "tuple"
        }
      ],
      "stateMutability": "view",
      "type": "function"
    },
    {
      "inputs": [
        {
          "internalType": "address",
          "name": "_walletAddress",
          "type": "address"
        }
      ],
      "name": "getOrganizationState",
      "outputs": [
        {
          "internalType": "enum OrganizationState",
          "name": "",
          "type": "uint8"
        }
      ],
      "stateMutability": "view",
      "type": "function"
    },
    {
      "inputs": [
        {
          "internalType": "uint256",
          "name": "_from",
          "type": "uint256"
        },
        {
          "internalType": "uint256",
          "name": "_to",
          "type": "uint256"
        }
      ],
      "name": "getProjectsInRange",
      "outputs": [
        {
          "components": [
            {
              "internalType": "uint256",
              "name": "projectId",
              "type": "uint256"
            },
            {
              "internalType": "uint256",
              "name": "organizationId",
              "type": "uint256"
            },
            {
              "internalType": "address payable",
              "name": "projectOwner",
              "type": "address"
            },
            {
              "internalType": "string",
              "name": "projectTitle",
              "type": "string"
            },
            {
              "internalType": "string",
              "name": "projectDescription",
              "type": "string"
            },
            {
              "internalType": "uint256",
              "name": "fundingGoal",
              "type": "uint256"
            },
            {
              "internalType": "uint256",
              "name": "currentFunding",
              "type": "uint256"
            },
            {
              "internalType": "uint256",
              "name": "totalVotes",
              "type": "uint256"
            },
            {
              "internalType": "enum ProjectState",
              "name": "state",
              "type": "uint8"
            },
            {
              "internalType": "uint256",
              "name": "creationTimestamp",
              "type": "uint256"
            }
          ],
          "internalType": "struct Project[]",
          "name": "",
          "type": "tuple[]"
        }
      ],
      "stateMutability": "view",
      "type": "function"
    },
    {
      "inputs": [
        {
          "internalType": "uint256",
          "name": "_orgaId",
          "type": "uint256"
        }
      ],
      "name": "hasEnoughVotesForOnboarding",
      "outputs": [
        {
          "internalType": "bool",
          "name": "",
          "type": "bool"
        }
      ],
      "stateMutability": "view",
      "type": "function"
    },
    {
      "inputs": [
        {
          "internalType": "uint256",
          "name": "_projectId",
          "type": "uint256"
        }
      ],
      "name": "hasReachedFundingGoal",
      "outputs": [
        {
          "internalType": "bool",
          "name": "",
          "type": "bool"
        }
      ],
      "stateMutability": "view",
      "type": "function"
    },
    {
      "inputs": [
        {
          "internalType": "address",
          "name": "owner",
          "type": "address"
        },
        {
          "internalType": "address",
          "name": "operator",
          "type": "address"
        }
      ],
      "name": "isApprovedForAll",
      "outputs": [
        {
          "internalType": "bool",
          "name": "",
          "type": "bool"
        }
      ],
      "stateMutability": "view",
      "type": "function"
    },
    {
      "inputs": [
        {
          "internalType": "uint256",
          "name": "_orgaId",
          "type": "uint256"
        }
      ],
      "name": "isControversial",
      "outputs": [
        {
          "internalType": "bool",
          "name": "",
          "type": "bool"
        }
      ],
      "stateMutability": "view",
      "type": "function"
    },
    {
      "inputs": [],
      "name": "name",
      "outputs": [
        {
          "internalType": "string",
          "name": "",
          "type": "string"
        }
      ],
      "stateMutability": "view",
      "type": "function"
    },
    {
      "inputs": [
        {
          "internalType": "bytes32",
          "name": "",
          "type": "bytes32"
        }
      ],
      "name": "nftsCreated",
      "outputs": [
        {
          "internalType": "bool",
          "name": "",
          "type": "bool"
        }
      ],
      "stateMutability": "view",
      "type": "function"
    },
    {
      "inputs": [
        {
          "internalType": "uint256",
          "name": "",
          "type": "uint256"
        }
      ],
      "name": "organizationIdToAddress",
      "outputs": [
        {
          "internalType": "address",
          "name": "",
          "type": "address"
        }
      ],
      "stateMutability": "view",
      "type": "function"
    },
    {
      "inputs": [
        {
          "internalType": "address",
          "name": "",
          "type": "address"
        }
      ],
      "name": "organizations",
      "outputs": [
        {
          "internalType": "uint256",
          "name": "organizationId",
          "type": "uint256"
        },
        {
          "internalType": "address payable",
          "name": "walletAddress",
          "type": "address"
        },
        {
          "internalType": "string",
          "name": "organizationName",
          "type": "string"
        },
        {
          "internalType": "string",
          "name": "organizationDescription",
          "type": "string"
        },
        {
          "internalType": "enum OrganizationState",
          "name": "state",
          "type": "uint8"
        },
        {
          "internalType": "uint256",
          "name": "votes",
          "type": "uint256"
        },
        {
          "internalType": "uint256",
          "name": "downVotes",
          "type": "uint256"
        }
      ],
      "stateMutability": "view",
      "type": "function"
    },
    {
      "inputs": [],
      "name": "organizationsCount",
      "outputs": [
        {
          "internalType": "uint256",
          "name": "",
          "type": "uint256"
        }
      ],
      "stateMutability": "view",
      "type": "function"
    },
    {
      "inputs": [
        {
          "internalType": "uint256",
          "name": "tokenId",
          "type": "uint256"
        }
      ],
      "name": "ownerOf",
      "outputs": [
        {
          "internalType": "address",
          "name": "",
          "type": "address"
        }
      ],
      "stateMutability": "view",
      "type": "function"
    },
    {
      "inputs": [
        {
          "internalType": "uint256",
          "name": "",
          "type": "uint256"
        }
      ],
      "name": "projectToOrganization",
      "outputs": [
        {
          "internalType": "uint256",
          "name": "",
          "type": "uint256"
        }
      ],
      "stateMutability": "view",
      "type": "function"
    },
    {
      "inputs": [
        {
          "internalType": "uint256",
          "name": "",
          "type": "uint256"
        }
      ],
      "name": "projects",
      "outputs": [
        {
          "internalType": "uint256",
          "name": "projectId",
          "type": "uint256"
        },
        {
          "internalType": "uint256",
          "name": "organizationId",
          "type": "uint256"
        },
        {
          "internalType": "address payable",
          "name": "projectOwner",
          "type": "address"
        },
        {
          "internalType": "string",
          "name": "projectTitle",
          "type": "string"
        },
        {
          "internalType": "string",
          "name": "projectDescription",
          "type": "string"
        },
        {
          "internalType": "uint256",
          "name": "fundingGoal",
          "type": "uint256"
        },
        {
          "internalType": "uint256",
          "name": "currentFunding",
          "type": "uint256"
        },
        {
          "internalType": "uint256",
          "name": "totalVotes",
          "type": "uint256"
        },
        {
          "internalType": "enum ProjectState",
          "name": "state",
          "type": "uint8"
        },
        {
          "internalType": "uint256",
          "name": "creationTimestamp",
          "type": "uint256"
        }
      ],
      "stateMutability": "view",
      "type": "function"
    },
    {
      "inputs": [
        {
          "internalType": "address",
          "name": "from",
          "type": "address"
        },
        {
          "internalType": "address",
          "name": "to",
          "type": "address"
        },
        {
          "internalType": "uint256",
          "name": "tokenId",
          "type": "uint256"
        }
      ],
      "name": "safeTransferFrom",
      "outputs": [],
      "stateMutability": "nonpayable",
      "type": "function"
    },
    {
      "inputs": [
        {
          "internalType": "address",
          "name": "from",
          "type": "address"
        },
        {
          "internalType": "address",
          "name": "to",
          "type": "address"
        },
        {
          "internalType": "uint256",
          "name": "tokenId",
          "type": "uint256"
        },
        {
          "internalType": "bytes",
          "name": "data",
          "type": "bytes"
        }
      ],
      "name": "safeTransferFrom",
      "outputs": [],
      "stateMutability": "nonpayable",
      "type": "function"
    },
    {
      "inputs": [
        {
          "internalType": "address",
          "name": "operator",
          "type": "address"
        },
        {
          "internalType": "bool",
          "name": "approved",
          "type": "bool"
        }
      ],
      "name": "setApprovalForAll",
      "outputs": [],
      "stateMutability": "nonpayable",
      "type": "function"
    },
    {
      "inputs": [
        {
          "internalType": "bytes4",
          "name": "interfaceId",
          "type": "bytes4"
        }
      ],
      "name": "supportsInterface",
      "outputs": [
        {
          "internalType": "bool",
          "name": "",
          "type": "bool"
        }
      ],
      "stateMutability": "view",
      "type": "function"
    },
    {
      "inputs": [],
      "name": "symbol",
      "outputs": [
        {
          "internalType": "string",
          "name": "",
          "type": "string"
        }
      ],
      "stateMutability": "view",
      "type": "function"
    },
    {
      "inputs": [],
      "name": "tokenMultiplier",
      "outputs": [
        {
          "internalType": "uint256",
          "name": "",
          "type": "uint256"
        }
      ],
      "stateMutability": "view",
      "type": "function"
    },
    {
      "inputs": [
        {
          "internalType": "uint256",
          "name": "tokenId",
          "type": "uint256"
        }
      ],
      "name": "tokenURI",
      "outputs": [
        {
          "internalType": "string",
          "name": "",
          "type": "string"
        }
      ],
      "stateMutability": "view",
      "type": "function"
    },
    {
      "inputs": [
        {
          "internalType": "address",
          "name": "from",
          "type": "address"
        },
        {
          "internalType": "address",
          "name": "to",
          "type": "address"
        },
        {
          "internalType": "uint256",
          "name": "tokenId",
          "type": "uint256"
        }
      ],
      "name": "transferFrom",
      "outputs": [],
      "stateMutability": "nonpayable",
      "type": "function"
    },
    {
      "inputs": [
        {
          "internalType": "uint256",
          "name": "_projectId",
          "type": "uint256"
        }
      ],
      "name": "transitionFromEnded",
      "outputs": [],
      "stateMutability": "nonpayable",
      "type": "function"
    },
    {
      "inputs": [
        {
          "internalType": "uint256",
          "name": "_projectId",
          "type": "uint256"
        }
      ],
      "name": "transitionFromStarted",
      "outputs": [],
      "stateMutability": "nonpayable",
      "type": "function"
    },
    {
      "inputs": [
        {
          "internalType": "uint256",
          "name": "_projectId",
          "type": "uint256"
        }
      ],
      "name": "transitionFromVoting",
      "outputs": [],
      "stateMutability": "nonpayable",
      "type": "function"
    },
    {
      "inputs": [
        {
          "internalType": "uint256",
          "name": "_projectId",
          "type": "uint256"
        },
        {
          "internalType": "uint256",
          "name": "_amount",
          "type": "uint256"
        }
      ],
      "name": "vote",
      "outputs": [],
      "stateMutability": "nonpayable",
      "type": "function"
    },
    {
      "inputs": [
        {
          "internalType": "uint256",
          "name": "_orgaId",
          "type": "uint256"
        }
      ],
      "name": "voteAgainstOrganization",
      "outputs": [],
      "stateMutability": "nonpayable",
      "type": "function"
    },
    {
      "inputs": [
        {
          "internalType": "uint256",
          "name": "_orgaId",
          "type": "uint256"
        }
      ],
      "name": "voteForOrganization",
      "outputs": [],
      "stateMutability": "nonpayable",
      "type": "function"
    },
    {
      "inputs": [
        {
          "internalType": "uint256",
          "name": "_projectId",
          "type": "uint256"
        },
        {
          "internalType": "uint256",
          "name": "_tokens",
          "type": "uint256"
        }
      ],
      "name": "voteForProject",
      "outputs": [],
      "stateMutability": "nonpayable",
      "type": "function"
    },
    {
      "inputs": [
        {
          "internalType": "address",
          "name": "",
          "type": "address"
        }
      ],
      "name": "votes",
      "outputs": [
        {
          "internalType": "uint256",
          "name": "",
          "type": "uint256"
        }
      ],
      "stateMutability": "view",
      "type": "function"
    },
    {
      "inputs": [
        {
          "internalType": "bytes32",
          "name": "",
          "type": "bytes32"
        }
      ],
      "name": "votesAgainstOrga",
      "outputs": [
        {
          "internalType": "bool",
          "name": "",
          "type": "bool"
        }
      ],
      "stateMutability": "view",
      "type": "function"
    },
    {
      "inputs": [
        {
          "internalType": "bytes32",
          "name": "",
          "type": "bytes32"
        }
      ],
      "name": "votesForOrga",
      "outputs": [
        {
          "internalType": "bool",
          "name": "",
          "type": "bool"
        }
      ],
      "stateMutability": "view",
      "type": "function"
    },
    {
      "inputs": [
        {
          "internalType": "uint256",
          "name": "_amount",
          "type": "uint256"
        }
      ],
      "name": "withdrawFunds",
      "outputs": [],
      "stateMutability": "nonpayable",
      "type": "function"
    },
    {
      "stateMutability": "payable",
      "type": "receive"
    }
  ],
  "bytecode": "0x608060405260016013553480156200001657600080fd5b506040518060400160405280601381526020017f534c522d446f6e6174696f6e52656365697074000000000000000000000000008152506040518060400160405280600681526020016529a62916a22960d11b81525081600990816200007d919062000141565b50600a6200008c828262000141565b50506000601055506200020d565b634e487b7160e01b600052604160045260246000fd5b600181811c90821680620000c557607f821691505b602082108103620000e657634e487b7160e01b600052602260045260246000fd5b50919050565b601f8211156200013c576000816000526020600020601f850160051c81016020861015620001175750805b601f850160051c820191505b81811015620001385782815560010162000123565b5050505b505050565b81516001600160401b038111156200015d576200015d6200009a565b62000175816200016e8454620000b0565b84620000ec565b602080601f831160018114620001ad5760008415620001945750858301515b600019600386901b1c1916600185901b17855562000138565b600085815260208120601f198616915b82811015620001de57888601518255948401946001909101908401620001bd565b5085821015620001fd5787850151600019600388901b60f8161c191681555b5050505050600190811b01905550565b614436806200021d6000396000f3fe60806040526004361061032d5760003560e01c806395d89b41116101a5578063ca0cdea8116100ec578063d9062de111610095578063e985e9c51161006f578063e985e9c514610a79578063ed7ae14614610ac2578063f157e40e14610b0b578063f97203af14610b4457600080fd5b8063d9062de1146109f3578063e218ec7b14610a13578063e6607bb814610a4357600080fd5b8063d6d2771d116100c6578063d6d2771d1461095f578063d848c6341461097f578063d8bff5a5146109c657600080fd5b8063ca0cdea8146108c0578063d2c30a6d1461091f578063d60dbe601461093f57600080fd5b8063b761d2991161014e578063c3e9172911610128578063c3e9172914610853578063c4f3c4fc14610880578063c87b56dd146108a057600080fd5b8063b761d299146107fb578063b88d4fde1461081d578063ba3f5a121461083d57600080fd5b8063a411ef201161017f578063a411ef201461079b578063a6ad01cf146107bb578063b384abef146107db57600080fd5b806395d89b41146107445780639749182814610759578063a22cb4651461077b57600080fd5b806341fcd6cc116102745780636352211e1161021d57806370a08231116101f757806370a08231146106b35780637452ea22146106d357806380d03829146106f3578063953de5701461070857600080fd5b80636352211e14610646578063635c54551461066657806367b44d8a1461069357600080fd5b806342ea884c1161024e57806342ea884c146105cf57806359987f91146105ef5780635a1f74061461061357600080fd5b806341fcd6cc1461056d5780634243c5411461058d57806342842e0e146105af57600080fd5b8063155dd5ee116102d657806323c55448116102b057806323c55448146104f25780633027ffd41461051257806330ce6b0b1461054d57600080fd5b8063155dd5ee146104655780631fd0862f1461048557806323b872dd146104d257600080fd5b8063095ea7b311610307578063095ea7b3146103df5780630fdf190b146103ff578063107046bd1461042f57600080fd5b806301ffc9a71461035057806306fdde0314610385578063081812fc146103a757600080fd5b3661034b57610349336013543461034491906139e2565b610b74565b005b600080fd5b34801561035c57600080fd5b5061037061036b366004613a0f565b610bf8565b60405190151581526020015b60405180910390f35b34801561039157600080fd5b5061039a610c3c565b60405161037c9190613a7c565b3480156103b357600080fd5b506103c76103c2366004613a8f565b610cce565b6040516001600160a01b03909116815260200161037c565b3480156103eb57600080fd5b506103496103fa366004613ac4565b610cf7565b34801561040b57600080fd5b5061037061041a366004613a8f565b60026020526000908152604090205460ff1681565b34801561043b57600080fd5b5061044f61044a366004613a8f565b610d06565b60405161037c9a99989796959493929190613b18565b34801561047157600080fd5b50610349610480366004613a8f565b610e74565b34801561049157600080fd5b506103706104a0366004613a8f565b6000908152600160209081526040808320546001600160a01b0316835290829052902060068101546005909101541090565b3480156104de57600080fd5b506103496104ed366004613b94565b610f2f565b3480156104fe57600080fd5b5061034961050d366004613c7c565b610fd3565b34801561051e57600080fd5b5061037061052d366004613a8f565b600090815260056020819052604090912090810154600690910154101590565b34801561055957600080fd5b50610349610568366004613ce9565b6113fd565b34801561057957600080fd5b50610349610588366004613a8f565b611539565b34801561059957600080fd5b506105a2611547565b60405161037c9190613d0b565b3480156105bb57600080fd5b506103496105ca366004613b94565b61156f565b3480156105db57600080fd5b506103496105ea366004613a8f565b61158f565b3480156105fb57600080fd5b5061060560045481565b60405190815260200161037c565b34801561061f57600080fd5b5061063361062e366004613e03565b61159a565b60405161037c9796959493929190613e2e565b34801561065257600080fd5b506103c7610661366004613a8f565b6116f5565b34801561067257600080fd5b50610686610681366004613a8f565b611700565b60405161037c9190613e8d565b34801561069f57600080fd5b506105a26106ae366004613ce9565b6118bf565b3480156106bf57600080fd5b506106056106ce366004613e03565b611c3a565b3480156106df57600080fd5b506103496106ee366004613a8f565b611c9b565b3480156106ff57600080fd5b506105a2611d22565b34801561071457600080fd5b50610370610723366004613e03565b6001600160a01b039081166000818152601260205260409020549091161490565b34801561075057600080fd5b5061039a611d38565b34801561076557600080fd5b50610370610774366004613a8f565b6007541190565b34801561078757600080fd5b50610349610796366004613f18565b611d47565b3480156107a757600080fd5b506103496107b6366004613f54565b611d52565b3480156107c757600080fd5b506103496107d6366004613fb8565b611e60565b3480156107e757600080fd5b506103496107f6366004613ce9565b611f26565b34801561080757600080fd5b506108106121ee565b60405161037c9190613ff1565b34801561082957600080fd5b50610349610838366004614055565b612315565b34801561084957600080fd5b5061060560135481565b34801561085f57600080fd5b5061060561086e366004613a8f565b60066020526000908152604090205481565b34801561088c57600080fd5b5061037061089b366004613a8f565b61232c565b3480156108ac57600080fd5b5061039a6108bb366004613a8f565b612353565b3480156108cc57600080fd5b506109006108db366004613e03565b601260205260009081526040902080546001909101546001600160a01b039091169082565b604080516001600160a01b03909316835260208301919091520161037c565b34801561092b57600080fd5b5061068661093a366004613e03565b612464565b34801561094b57600080fd5b5061034961095a366004613a8f565b6124b6565b34801561096b57600080fd5b5061034961097a3660046140d1565b6125a3565b34801561098b57600080fd5b5061037061099a366004613a8f565b6000908152600160209081526040808320546001600160a01b0316835290829052902060050154151590565b3480156109d257600080fd5b506106056109e1366004613e03565b60086020526000908152604090205481565b3480156109ff57600080fd5b50610349610a0e366004613a8f565b6126b0565b348015610a1f57600080fd5b50610370610a2e366004613a8f565b60036020526000908152604090205460ff1681565b348015610a4f57600080fd5b506103c7610a5e366004613a8f565b6001602052600090815260409020546001600160a01b031681565b348015610a8557600080fd5b50610370610a9436600461410e565b6001600160a01b039182166000908152600e6020908152604080832093909416825291909152205460ff1690565b348015610ace57600080fd5b50610afe610add366004613e03565b6001600160a01b031660009081526020819052604090206004015460ff1690565b60405161037c9190614141565b348015610b1757600080fd5b50610605610b26366004613e03565b6001600160a01b031660009081526012602052604090206001015490565b348015610b5057600080fd5b50610370610b5f366004613a8f565b60116020526000908152604090205460ff1681565b6001600160a01b0380831660008181526012602052604090205490911614610bc457610bc4826001600160a01b0316600081815260126020526040902080546001600160a01b0319169091179055565b6001600160a01b03821660009081526012602052604081206001018054839290610bef90849061414f565b90915550505050565b60006001600160e01b031982167f49064906000000000000000000000000000000000000000000000000000000001480610c365750610c3682612737565b92915050565b606060098054610c4b90614162565b80601f0160208091040260200160405190810160405280929190818152602001828054610c7790614162565b8015610cc45780601f10610c9957610100808354040283529160200191610cc4565b820191906000526020600020905b815481529060010190602001808311610ca757829003601f168201915b5050505050905090565b6000610cd9826127d2565b506000828152600d60205260409020546001600160a01b0316610c36565b610d0282823361280b565b5050565b6005602052600090815260409020805460018201546002830154600384018054939492936001600160a01b039092169291610d4090614162565b80601f0160208091040260200160405190810160405280929190818152602001828054610d6c90614162565b8015610db95780601f10610d8e57610100808354040283529160200191610db9565b820191906000526020600020905b815481529060010190602001808311610d9c57829003601f168201915b505050505090806004018054610dce90614162565b80601f0160208091040260200160405190810160405280929190818152602001828054610dfa90614162565b8015610e475780601f10610e1c57610100808354040283529160200191610e47565b820191906000526020600020905b815481529060010190602001808311610e2a57829003601f168201915b505050506005830154600684015460078501546008860154600990960154949592949193509160ff16908a565b33600090815260126020526040902060010154811115610edb5760405162461bcd60e51b815260206004820152601260248201527f496e73756666696369656e742066756e6473000000000000000000000000000060448201526064015b60405180910390fd5b3360009081526012602052604081206001018054839290610efd908490614196565b9091555050604051339082156108fc029083906000818181858888f19350505050158015610d02573d6000803e3d6000fd5b6001600160a01b038216610f5957604051633250574960e11b815260006004820152602401610ed2565b6000610f66838333612818565b9050836001600160a01b0316816001600160a01b031614610fcd576040517f64283d7b0000000000000000000000000000000000000000000000000000000081526001600160a01b0380861660048301526024820184905282166044820152606401610ed2565b50505050565b336000818152602081905260409020600101546001600160a01b0316146110625760405162461bcd60e51b815260206004820152603360248201527f4f6e6c7920746865206f7267616e697a6174696f6e206f776e65722063616e2060448201527f63616c6c20746869732066756e6374696f6e2e000000000000000000000000006064820152608401610ed2565b60013360009081526020819052604090206004015460ff16600381111561108b5761108b613aee565b036110fe5760405162461bcd60e51b815260206004820152602260248201527f54686973206f7267616e69736174696f6e20686173206265656e2062616e6e6560448201527f642e0000000000000000000000000000000000000000000000000000000000006064820152608401610ed2565b6000811161114e5760405162461bcd60e51b815260206004820152601b60248201527f476f616c206d7573742062652067726561746572207468616e203000000000006044820152606401610ed2565b33600090815260208181526040808320815160e0810183528154815260018201546001600160a01b031693810193909352600281018054919284019161119390614162565b80601f01602080910402602001604051908101604052809291908181526020018280546111bf90614162565b801561120c5780601f106111e15761010080835404028352916020019161120c565b820191906000526020600020905b8154815290600101906020018083116111ef57829003601f168201915b5050505050815260200160038201805461122590614162565b80601f016020809104026020016040519081016040528092919081815260200182805461125190614162565b801561129e5780601f106112735761010080835404028352916020019161129e565b820191906000526020600020905b81548152906001019060200180831161128157829003601f168201915b5050509183525050600482015460209091019060ff1660038111156112c5576112c5613aee565b60038111156112d6576112d6613aee565b8152602001600582015481526020016006820154815250509050336001600160a01b031681602001516001600160a01b03161461137b5760405162461bcd60e51b815260206004820152603360248201527f4f6e6c7920746865206f7267616e697a6174696f6e206f776e65722063616e2060448201527f63616c6c20746869732066756e6374696f6e2e000000000000000000000000006064820152608401610ed2565b6007546000908152600560205260409020815160018201556002810180546001600160a01b03191633179055600381016113b586826141f9565b50600481016113c485826141f9565b506005810183905560088101805460ff19166002179055426009820155600780549060006113f1836142b9565b91905055505050505050565b600260008381526005602052604090206008015460ff16600781111561142557611425613aee565b146114725760405162461bcd60e51b815260206004820152601e60248201527f50726f6a656374206973206e6f7420696e20766f74696e6720737461746500006044820152606401610ed2565b60075482106114c35760405162461bcd60e51b815260206004820152601260248201527f496e76616c69642070726f6a65637420494400000000000000000000000000006044820152606401610ed2565b336000908152601260205260409020600101548111156115255760405162461bcd60e51b815260206004820152601a60248201527f496e73756666696369656e7420766f74696e6720746f6b656e730000000000006044820152606401610ed2565b61152f3382612913565b610d028282611f26565b6115448160066129a9565b50565b606061156a600a60075461155b9190614196565b60016007546106ae9190614196565b905090565b61158a83838360405180602001604052806000815250612315565b505050565b6115448160056129a9565b60006020819052908152604090208054600182015460028301805492936001600160a01b03909216926115cc90614162565b80601f01602080910402602001604051908101604052809291908181526020018280546115f890614162565b80156116455780601f1061161a57610100808354040283529160200191611645565b820191906000526020600020905b81548152906001019060200180831161162857829003601f168201915b50505050509080600301805461165a90614162565b80601f016020809104026020016040519081016040528092919081815260200182805461168690614162565b80156116d35780601f106116a8576101008083540402835291602001916116d3565b820191906000526020600020905b8154815290600101906020018083116116b657829003601f168201915b5050505060048301546005840154600690940154929360ff9091169290915087565b6000610c36826127d2565b611708613908565b6000828152600160208181526040808420546001600160a01b03908116855284835293819020815160e0810183528154815293810154909416918301919091526002830180549293929184019161175e90614162565b80601f016020809104026020016040519081016040528092919081815260200182805461178a90614162565b80156117d75780601f106117ac576101008083540402835291602001916117d7565b820191906000526020600020905b8154815290600101906020018083116117ba57829003601f168201915b505050505081526020016003820180546117f090614162565b80601f016020809104026020016040519081016040528092919081815260200182805461181c90614162565b80156118695780601f1061183e57610100808354040283529160200191611869565b820191906000526020600020905b81548152906001019060200180831161184c57829003601f168201915b5050509183525050600482015460209091019060ff16600381111561189057611890613aee565b60038111156118a1576118a1613aee565b81526005820154602082015260069091015460409091015292915050565b6060818311156119115760405162461bcd60e51b815260206004820152600d60248201527f496e76616c69642072616e6765000000000000000000000000000000000000006044820152606401610ed2565b600754821061196c5760405162461bcd60e51b815260206004820152602160248201527f52616e676520657863656564732070726f6a656374206c697374206c656e67746044820152600d60fb1b6064820152608401610ed2565b60075483106119c75760405162461bcd60e51b815260206004820152602160248201527f52616e676520657863656564732070726f6a656374206c697374206c656e67746044820152600d60fb1b6064820152608401610ed2565b60006119d38484614196565b6119de90600161414f565b67ffffffffffffffff8111156119f6576119f6613bd0565b604051908082528060200260200182016040528015611a2f57816020015b611a1c61395f565b815260200190600190039081611a145790505b509050835b838111611c32576000818152600560209081526040918290208251610140810184528154815260018201549281019290925260028101546001600160a01b031692820192909252600382018054919291606084019190611a9390614162565b80601f0160208091040260200160405190810160405280929190818152602001828054611abf90614162565b8015611b0c5780601f10611ae157610100808354040283529160200191611b0c565b820191906000526020600020905b815481529060010190602001808311611aef57829003601f168201915b50505050508152602001600482018054611b2590614162565b80601f0160208091040260200160405190810160405280929190818152602001828054611b5190614162565b8015611b9e5780601f10611b7357610100808354040283529160200191611b9e565b820191906000526020600020905b815481529060010190602001808311611b8157829003601f168201915b505050918352505060058201546020820152600682015460408201526007808301546060830152600883015460809092019160ff1690811115611be357611be3613aee565b6007811115611bf457611bf4613aee565b8152602001600982015481525050828281518110611c1457611c146142d2565b60200260200101819052508080611c2a906142b9565b915050611a34565b509392505050565b60006001600160a01b038216611c7f576040517f89c62b6400000000000000000000000000000000000000000000000000000000815260006004820152602401610ed2565b506001600160a01b03166000908152600c602052604090205490565b336000818152601260205260409020546001600160a01b031614611d0d5760405162461bcd60e51b815260206004820152602360248201527f4f6e6c7920646f6e6f72732063616e2063616c6c20746869732066756e63746960448201526237b71760e91b6064820152608401610ed2565b611d1933826001612a19565b61154481612ab2565b606061156a600060016007546106ae9190614196565b6060600a8054610c4b90614162565b610d02338383612b22565b6040805160e08101825260045481523360208201529081018390526060810182905260808101600081526000602080830182905260409283018290523382528181529082902083518155908301516001820180546001600160a01b0319166001600160a01b03909216919091179055908201516002820190611dd490826141f9565b5060608201516003820190611de990826141f9565b50608082015160048201805460ff19166001836003811115611e0d57611e0d613aee565b021790555060a0820151600582015560c09091015160069091015560048054600090815260016020526040812080546001600160a01b0319163317905581549190611e57836142b9565b91905055505050565b6007548310611eb15760405162461bcd60e51b815260206004820152601260248201527f496e76616c69642070726f6a65637420494400000000000000000000000000006044820152606401610ed2565b6000838152600560208190526040909120908101546006909101541015611f1a5760405162461bcd60e51b815260206004820152601660248201527f50726f6a656374206e6f742066756e64656420796574000000000000000000006044820152606401610ed2565b610fcd84848484612bda565b60008281526005602052604081206007018054839290611f4790849061414f565b909155505060008281526005602052604081206006018054839290611f6d90849061414f565b909155505060008281526005602081905260409091209081015460069091015410610d0257600082815260056020908152604091829020600601548251858152918201527f5bc6714ccad33557efe1cb9d18fa771135ab68961f6add3d4bb6f115adec81a4910160405180910390a160008281526005602090815260408083208151610140810183528154815260018201549381019390935260028101546001600160a01b03169183019190915260038101805460608401919061203090614162565b80601f016020809104026020016040519081016040528092919081815260200182805461205c90614162565b80156120a95780601f1061207e576101008083540402835291602001916120a9565b820191906000526020600020905b81548152906001019060200180831161208c57829003601f168201915b505050505081526020016004820180546120c290614162565b80601f01602080910402602001604051908101604052809291908181526020018280546120ee90614162565b801561213b5780601f106121105761010080835404028352916020019161213b565b820191906000526020600020905b81548152906001019060200180831161211e57829003601f168201915b505050918352505060058201546020820152600682015460408201526007808301546060830152600883015460809092019160ff169081111561218057612180613aee565b600781111561219157612191613aee565b815260200160098201548152505090506121ae8160400151612464565b602001516001600160a01b03166108fc8260c001519081150290604051600060405180830381858888f19350505050158015610fcd573d6000803e3d6000fd5b6060600060075467ffffffffffffffff81111561220d5761220d613bd0565b60405190808252806020026020018201604052801561224057816020015b606081526020019060019003908161222b5790505b50905060005b60075481101561230f576000818152600560205260409020600301805461226c90614162565b80601f016020809104026020016040519081016040528092919081815260200182805461229890614162565b80156122e55780601f106122ba576101008083540402835291602001916122e5565b820191906000526020600020905b8154815290600101906020018083116122c857829003601f168201915b50505050508282815181106122fc576122fc6142d2565b6020908102919091010152600101612246565b50919050565b612320848484610f2f565b610fcd84848484612da0565b60008181526005602052604081206009015461234b906249d40061414f565b421192915050565b606061235e826127d2565b506000828152600f60205260408120805461237890614162565b80601f01602080910402602001604051908101604052809291908181526020018280546123a490614162565b80156123f15780601f106123c6576101008083540402835291602001916123f1565b820191906000526020600020905b8154815290600101906020018083116123d457829003601f168201915b50505050509050600061240f60408051602081019091526000815290565b90508051600003612421575092915050565b81511561245357808260405160200161243b9291906142e8565b60405160208183030381529060405292505050919050565b61245c84612ec9565b949350505050565b61246c613908565b6001600160a01b0380831660009081526020818152604091829020825160e08101845281548152600182015490941691840191909152600281018054919284019161175e90614162565b6000818152600560205260408120600101546124d190611700565b602090810151600084815260059092526040909120600601549091506124f68361232c565b15612506576125068360036129a9565b60026001600160a01b03831660009081526020819052604090206004015460ff16600381111561253857612538613aee565b1461254257505050565b6000838152600560208190526040909120908101546006909101541061158a5761256d8360046129a9565b6040516001600160a01b0383169082156108fc029083906000818181858888f19350505050158015610fcd573d6000803e3d6000fd5b600460008381526005602052604090206008015460ff1660078111156125cb576125cb613aee565b146126185760405162461bcd60e51b815260206004820152601760248201527f50726f6a656374206e6f742073746172746564207965740000000000000000006044820152606401610ed2565b6000828152600560205260409020600201546001600160a01b031633146126a75760405162461bcd60e51b815260206004820152602260248201527f4f6e6c792070726f6a656374206f776e65722063616e20656e642070726f6a6560448201527f63740000000000000000000000000000000000000000000000000000000000006064820152608401610ed2565b610d028261158f565b336000818152601260205260409020546001600160a01b0316146127225760405162461bcd60e51b815260206004820152602360248201527f4f6e6c7920646f6e6f72732063616e2063616c6c20746869732066756e63746960448201526237b71760e91b6064820152608401610ed2565b61272e33826000612a19565b61154481612f3d565b60006001600160e01b031982167f80ac58cd00000000000000000000000000000000000000000000000000000000148061279a57506001600160e01b031982167f5b5e139f00000000000000000000000000000000000000000000000000000000145b80610c3657507f01ffc9a7000000000000000000000000000000000000000000000000000000006001600160e01b0319831614610c36565b6000818152600b60205260408120546001600160a01b031680610c3657604051637e27328960e01b815260048101849052602401610ed2565b61158a8383836001612f9f565b6000828152600b60205260408120546001600160a01b0390811690831615612845576128458184866130dd565b6001600160a01b0381161561288357612862600085600080612f9f565b6001600160a01b0381166000908152600c6020526040902080546000190190555b6001600160a01b038516156128b2576001600160a01b0385166000908152600c60205260409020805460010190555b6000848152600b602052604080822080546001600160a01b0319166001600160a01b0389811691821790925591518793918516917fddf252ad1be2c89b69c2b068fc378daa952ba7f163c4a11628f55a4df523b3ef91a490505b9392505050565b6001600160a01b03821660009081526012602052604090206001015481111561297e5760405162461bcd60e51b815260206004820152601a60248201527f496e73756666696369656e7420766f74696e6720746f6b656e730000000000006044820152606401610ed2565b6001600160a01b03821660009081526012602052604081206001018054839290610bef908490614196565b6000828152600560205260409020600801805482919060ff191660018360078111156129d7576129d7613aee565b02179055507ffafe884515ca1fa5e0bf815ce87ef00b2cdaa0eee590d20376604937937a10bf8282604051612a0d929190614317565b60405180910390a15050565b612a2483838361315a565b15612a6357612a328261319b565b600060026000612a438686866131d2565b81526020810191909152604001600020805460ff19169115159190911790555b612a6f8383831561315a565b1561158a57612a7d8261326e565b600060036000612a8e8686866131d2565b81526020810191909152604001600020805460ff1916911515919091179055505050565b600160026000612ac4338560016131d2565b815260208082019290925260409081016000908120805460ff19169415159490941790935583835260018252808320546001600160a01b03168352908290528120600501805491612b14836142b9565b9190505550611544816132a1565b6001600160a01b038216612b6d576040517f5b08ba180000000000000000000000000000000000000000000000000000000081526001600160a01b0383166004820152602401610ed2565b6001600160a01b038381166000818152600e6020908152604080832094871680845294825291829020805460ff191686151590811790915591519182527f17307eab39ab6107e8899845ad3d59bd9653f200f220920489ca2b5937696c31910160405180910390a3505050565b6000612c03612bf3866001600160a01b0316601461336f565b612bfc86613545565b85856135e5565b60008181526011602052604090205490915060ff1615612c655760405162461bcd60e51b815260206004820152601360248201527f4e465420616c72656164792063726561746564000000000000000000000000006044820152606401610ed2565b6000818152601160205260409020805460ff19166001179055601054612c8c90869061366a565b600083604051602001612d6391907f646174613a6170706c69636174696f6e2f6a736f6e2c7b2250726f6a6563742081527f5469746c65223a22446f6e6174696f6e204e4654222c2264657363726970746960208201527f6f6e223a22202b2070726f6a656374735b5f70726f6a65637449645d2e70726f60408201527f6a6563744465736372697074696f6e2829202b20000000000000000000000000606082015260748101919091527f2045544820746f2074686520636f6e74726163742e227d000000000000000000609482015260ab0190565b6040516020818303038152906040529050612d8060105482613684565b600160106000828254612d93919061414f565b9091555050505050505050565b6001600160a01b0383163b15610fcd57604051630a85bd0160e11b81526001600160a01b0384169063150b7a0290612de290339088908790879060040161432b565b6020604051808303816000875af1925050508015612e1d575060408051601f3d908101601f19168201909252612e1a9181019061435d565b60015b612e86573d808015612e4b576040519150601f19603f3d011682016040523d82523d6000602084013e612e50565b606091505b508051600003612e7e57604051633250574960e11b81526001600160a01b0385166004820152602401610ed2565b805181602001fd5b6001600160e01b03198116630a85bd0160e11b14612ec257604051633250574960e11b81526001600160a01b0385166004820152602401610ed2565b5050505050565b6060612ed4826127d2565b506000612eec60408051602081019091526000815290565b90506000815111612f0c576040518060200160405280600081525061290c565b80612f1684613545565b604051602001612f279291906142e8565b6040516020818303038152906040529392505050565b600160026000612f4f338560016131d2565b815260208082019290925260409081016000908120805460ff19169415159490941790935583835260018252808320546001600160a01b03168352908290528120600601805491612b14836142b9565b8080612fb357506001600160a01b03821615155b156130ad576000612fc3846127d2565b90506001600160a01b03831615801590612fef5750826001600160a01b0316816001600160a01b031614155b801561302157506001600160a01b038082166000908152600e602090815260408083209387168352929052205460ff16155b15613063576040517fa9fbf51f0000000000000000000000000000000000000000000000000000000081526001600160a01b0384166004820152602401610ed2565b81156130ab5783856001600160a01b0316826001600160a01b03167f8c5be1e5ebec7d5bd14f71427d1e84f3dd0314c0f7b2291e5b200ac8c7c3b92560405160405180910390a45b505b50506000908152600d6020526040902080546001600160a01b0319166001600160a01b0392909216919091179055565b6130e88383836136cd565b61158a576001600160a01b03831661311657604051637e27328960e01b815260048101829052602401610ed2565b6040517f177e802f0000000000000000000000000000000000000000000000000000000081526001600160a01b038316600482015260248101829052604401610ed2565b6000811561318c57600260006131718686866131d2565b815260208101919091526040016000205460ff16905061290c565b600360006131718686866131d2565b6000818152600160209081526040808320546001600160a01b031683529082905290206005018054600019019055611544816132a1565b60408051606085901b6bffffffffffffffffffffffff191660208201526034810184905282151560f81b60548201528151603581830301815260559091019182905260009160029061322590839061437a565b602060405180830381855afa158015613242573d6000803e3d6000fd5b5050506040513d601f19601f820116820180604052508101906132659190614396565b95945050505050565b6000818152600160209081526040808320546001600160a01b031683529082905290206006018054600019019055611544815b6000818152600160209081526040808320546001600160a01b03168352908290529020600681015460059091015410156132fc57600081815260016020819052604090912054611544916001600160a01b0390911690613750565b6000818152600160209081526040808320546001600160a01b03168352908290529020600501541561334b57600081815260016020526040902054611544906001600160a01b03166002613750565b600081815260016020526040812054611544916001600160a01b0390911690613750565b606082600061337f8460026139e2565b61338a90600261414f565b67ffffffffffffffff8111156133a2576133a2613bd0565b6040519080825280601f01601f1916602001820160405280156133cc576020820181803683370190505b5090507f300000000000000000000000000000000000000000000000000000000000000081600081518110613403576134036142d2565b60200101906001600160f81b031916908160001a9053507f78000000000000000000000000000000000000000000000000000000000000008160018151811061344e5761344e6142d2565b60200101906001600160f81b031916908160001a90535060006134728560026139e2565b61347d90600161414f565b90505b6001811115613502577f303132333435363738396162636465660000000000000000000000000000000083600f16601081106134be576134be6142d2565b1a60f81b8282815181106134d4576134d46142d2565b60200101906001600160f81b031916908160001a90535060049290921c916134fb816143af565b9050613480565b50811561245c576040517fe22e27eb0000000000000000000000000000000000000000000000000000000081526004810186905260248101859052604401610ed2565b6060600061355283613791565b600101905060008167ffffffffffffffff81111561357257613572613bd0565b6040519080825280601f01601f19166020018201604052801561359c576020820181803683370190505b5090508181016020015b600019017f3031323334353637383961626364656600000000000000000000000000000000600a86061a8153600a85049450846135a657509392505050565b600080858585856040516020016135ff94939291906143c6565b6040516020818303038152906040529050600281604051613620919061437a565b602060405180830381855afa15801561363d573d6000803e3d6000fd5b5050506040513d601f19601f820116820180604052508101906136609190614396565b9695505050505050565b610d02828260405180602001604052806000815250613873565b6000828152600f6020526040902061369c82826141f9565b506040518281527ff8e1a15aba9398e019f0b49df1a4fde98ee17ae345cb5f6b5e2c27f5033e8ce790602001612a0d565b60006001600160a01b0383161580159061245c5750826001600160a01b0316846001600160a01b0316148061372757506001600160a01b038085166000908152600e602090815260408083209387168352929052205460ff165b8061245c5750506000908152600d60205260409020546001600160a01b03908116911614919050565b6001600160a01b0382166000908152602081905260409020600401805482919060ff1916600183600381111561378857613788613aee565b02179055505050565b6000807a184f03e93ff9f4daa797ed6e38ed64bf6a1f01000000000000000083106137da577a184f03e93ff9f4daa797ed6e38ed64bf6a1f010000000000000000830492506040015b6d04ee2d6d415b85acef81000000008310613806576d04ee2d6d415b85acef8100000000830492506020015b662386f26fc10000831061382457662386f26fc10000830492506010015b6305f5e100831061383c576305f5e100830492506008015b612710831061385057612710830492506004015b60648310613862576064830492506002015b600a8310610c365760010192915050565b61387d838361388a565b61158a6000848484612da0565b6001600160a01b0382166138b457604051633250574960e11b815260006004820152602401610ed2565b60006138c283836000612818565b90506001600160a01b0381161561158a576040517f73c6ac6e00000000000000000000000000000000000000000000000000000000815260006004820152602401610ed2565b6040518060e001604052806000815260200160006001600160a01b0316815260200160608152602001606081526020016000600381111561394b5761394b613aee565b815260200160008152602001600081525090565b604051806101400160405280600081526020016000815260200160006001600160a01b031681526020016060815260200160608152602001600081526020016000815260200160008152602001600060078111156139bf576139bf613aee565b8152602001600081525090565b634e487b7160e01b600052601160045260246000fd5b8082028115828204841417610c3657610c366139cc565b6001600160e01b03198116811461154457600080fd5b600060208284031215613a2157600080fd5b813561290c816139f9565b60005b83811015613a47578181015183820152602001613a2f565b50506000910152565b60008151808452613a68816020860160208601613a2c565b601f01601f19169290920160200192915050565b60208152600061290c6020830184613a50565b600060208284031215613aa157600080fd5b5035919050565b80356001600160a01b0381168114613abf57600080fd5b919050565b60008060408385031215613ad757600080fd5b613ae083613aa8565b946020939093013593505050565b634e487b7160e01b600052602160045260246000fd5b60088110613b1457613b14613aee565b9052565b60006101408c83528b60208401526001600160a01b038b166040840152806060840152613b478184018b613a50565b90508281036080840152613b5b818a613a50565b9150508660a08301528560c08301528460e0830152613b7e610100830185613b04565b826101208301529b9a5050505050505050505050565b600080600060608486031215613ba957600080fd5b613bb284613aa8565b9250613bc060208501613aa8565b9150604084013590509250925092565b634e487b7160e01b600052604160045260246000fd5b600067ffffffffffffffff80841115613c0157613c01613bd0565b604051601f8501601f19908116603f01168101908282118183101715613c2957613c29613bd0565b81604052809350858152868686011115613c4257600080fd5b858560208301376000602087830101525050509392505050565b600082601f830112613c6d57600080fd5b61290c83833560208501613be6565b600080600060608486031215613c9157600080fd5b833567ffffffffffffffff80821115613ca957600080fd5b613cb587838801613c5c565b94506020860135915080821115613ccb57600080fd5b50613cd886828701613c5c565b925050604084013590509250925092565b60008060408385031215613cfc57600080fd5b50508035926020909101359150565b600060208083018184528085518083526040925060408601915060408160051b87010184880160005b83811015613df557888303603f190185528151805184528781015188850152868101516001600160a01b0381168886015261014090506060808301518282880152613d8183880182613a50565b9250505060808083015186830382880152613d9c8382613a50565b9250505060a080830151818701525060c080830151818701525060e080830151818701525061010080830151613dd482880182613b04565b50506101209182015194909101939093529386019390860190600101613d34565b509098975050505050505050565b600060208284031215613e1557600080fd5b61290c82613aa8565b60048110613b1457613b14613aee565b8781526001600160a01b038716602082015260e060408201526000613e5660e0830188613a50565b8281036060840152613e688188613a50565b915050613e786080830186613e1e565b60a082019390935260c0015295945050505050565b60208152815160208201526001600160a01b0360208301511660408201526000604083015160e06060840152613ec7610100840182613a50565b90506060840151601f19848303016080850152613ee48282613a50565b9150506080840151613ef960a0850182613e1e565b5060a084015160c084015260c084015160e08401528091505092915050565b60008060408385031215613f2b57600080fd5b613f3483613aa8565b915060208301358015158114613f4957600080fd5b809150509250929050565b60008060408385031215613f6757600080fd5b823567ffffffffffffffff80821115613f7f57600080fd5b613f8b86838701613c5c565b93506020850135915080821115613fa157600080fd5b50613fae85828601613c5c565b9150509250929050565b60008060008060808587031215613fce57600080fd5b613fd785613aa8565b966020860135965060408601359560600135945092505050565b600060208083016020845280855180835260408601915060408160051b87010192506020870160005b8281101561404857603f19888603018452614036858351613a50565b9450928501929085019060010161401a565b5092979650505050505050565b6000806000806080858703121561406b57600080fd5b61407485613aa8565b935061408260208601613aa8565b925060408501359150606085013567ffffffffffffffff8111156140a557600080fd5b8501601f810187136140b657600080fd5b6140c587823560208401613be6565b91505092959194509250565b600080604083850312156140e457600080fd5b82359150602083013567ffffffffffffffff81111561410257600080fd5b613fae85828601613c5c565b6000806040838503121561412157600080fd5b61412a83613aa8565b915061413860208401613aa8565b90509250929050565b60208101610c368284613e1e565b80820180821115610c3657610c366139cc565b600181811c9082168061417657607f821691505b60208210810361230f57634e487b7160e01b600052602260045260246000fd5b81810381811115610c3657610c366139cc565b601f82111561158a576000816000526020600020601f850160051c810160208610156141d25750805b601f850160051c820191505b818110156141f1578281556001016141de565b505050505050565b815167ffffffffffffffff81111561421357614213613bd0565b614227816142218454614162565b846141a9565b602080601f83116001811461425c57600084156142445750858301515b600019600386901b1c1916600185901b1785556141f1565b600085815260208120601f198616915b8281101561428b5788860151825594840194600190910190840161426c565b50858210156142a95787850151600019600388901b60f8161c191681555b5050505050600190811b01905550565b6000600182016142cb576142cb6139cc565b5060010190565b634e487b7160e01b600052603260045260246000fd5b600083516142fa818460208801613a2c565b83519083019061430e818360208801613a2c565b01949350505050565b8281526040810161290c6020830184613b04565b60006001600160a01b038087168352808616602084015250836040830152608060608301526136606080830184613a50565b60006020828403121561436f57600080fd5b815161290c816139f9565b6000825161438c818460208701613a2c565b9190910192915050565b6000602082840312156143a857600080fd5b5051919050565b6000816143be576143be6139cc565b506000190190565b600085516143d8818460208a01613a2c565b8551908301906143ec818360208a01613a2c565b01938452505060208201526040019291505056fea2646970667358221220c761f06cda169be1ee6db99477129c6b7ba2807017e05a87b13d67e6da67dfbb64736f6c63430008180033",
  "linkReferences": {},
  "deployedLinkReferences": {}
}