{
  "_format": "hh-sol-artifact-1",
  "contractName": "DAO_SLR",
  "sourceName": "contracts/DAO_SLR.sol",
  "abi": [
    {
      "inputs": [
        {
          "internalType": "address",
          "name": "sender",
          "type": "address"
        },
        {
          "internalType": "uint256",
          "name": "tokenId",
          "type": "uint256"
        },
        {
          "internalType": "address",
          "name": "owner",
          "type": "address"
        }
      ],
      "name": "ERC721IncorrectOwner",
      "type": "error"
    },
    {
      "inputs": [
        {
          "internalType": "address",
          "name": "operator",
          "type": "address"
        },
        {
          "internalType": "uint256",
          "name": "tokenId",
          "type": "uint256"
        }
      ],
      "name": "ERC721InsufficientApproval",
      "type": "error"
    },
    {
      "inputs": [
        {
          "internalType": "address",
          "name": "approver",
          "type": "address"
        }
      ],
      "name": "ERC721InvalidApprover",
      "type": "error"
    },
    {
      "inputs": [
        {
          "internalType": "address",
          "name": "operator",
          "type": "address"
        }
      ],
      "name": "ERC721InvalidOperator",
      "type": "error"
    },
    {
      "inputs": [
        {
          "internalType": "address",
          "name": "owner",
          "type": "address"
        }
      ],
      "name": "ERC721InvalidOwner",
      "type": "error"
    },
    {
      "inputs": [
        {
          "internalType": "address",
          "name": "receiver",
          "type": "address"
        }
      ],
      "name": "ERC721InvalidReceiver",
      "type": "error"
    },
    {
      "inputs": [
        {
          "internalType": "address",
          "name": "sender",
          "type": "address"
        }
      ],
      "name": "ERC721InvalidSender",
      "type": "error"
    },
    {
      "inputs": [
        {
          "internalType": "uint256",
          "name": "tokenId",
          "type": "uint256"
        }
      ],
      "name": "ERC721NonexistentToken",
      "type": "error"
    },
    {
      "inputs": [
        {
          "internalType": "uint256",
          "name": "value",
          "type": "uint256"
        },
        {
          "internalType": "uint256",
          "name": "length",
          "type": "uint256"
        }
      ],
      "name": "StringsInsufficientHexLength",
      "type": "error"
    },
    {
      "anonymous": false,
      "inputs": [
        {
          "indexed": true,
          "internalType": "address",
          "name": "owner",
          "type": "address"
        },
        {
          "indexed": true,
          "internalType": "address",
          "name": "approved",
          "type": "address"
        },
        {
          "indexed": true,
          "internalType": "uint256",
          "name": "tokenId",
          "type": "uint256"
        }
      ],
      "name": "Approval",
      "type": "event"
    },
    {
      "anonymous": false,
      "inputs": [
        {
          "indexed": true,
          "internalType": "address",
          "name": "owner",
          "type": "address"
        },
        {
          "indexed": true,
          "internalType": "address",
          "name": "operator",
          "type": "address"
        },
        {
          "indexed": false,
          "internalType": "bool",
          "name": "approved",
          "type": "bool"
        }
      ],
      "name": "ApprovalForAll",
      "type": "event"
    },
    {
      "anonymous": false,
      "inputs": [
        {
          "indexed": false,
          "internalType": "uint256",
          "name": "_fromTokenId",
          "type": "uint256"
        },
        {
          "indexed": false,
          "internalType": "uint256",
          "name": "_toTokenId",
          "type": "uint256"
        }
      ],
      "name": "BatchMetadataUpdate",
      "type": "event"
    },
    {
      "anonymous": false,
      "inputs": [
        {
          "indexed": false,
          "internalType": "uint256",
          "name": "_projectId",
          "type": "uint256"
        },
        {
          "indexed": false,
          "internalType": "uint256",
          "name": "_amount",
          "type": "uint256"
        }
      ],
      "name": "FundingGoalReached",
      "type": "event"
    },
    {
      "anonymous": false,
      "inputs": [
        {
          "indexed": false,
          "internalType": "uint256",
          "name": "_tokenId",
          "type": "uint256"
        }
      ],
      "name": "MetadataUpdate",
      "type": "event"
    },
    {
      "anonymous": false,
      "inputs": [
        {
          "indexed": false,
          "internalType": "uint256",
          "name": "_projectId",
          "type": "uint256"
        },
        {
          "indexed": false,
          "internalType": "enum ProjectState",
          "name": "_newState",
          "type": "uint8"
        }
      ],
      "name": "StateChanged",
      "type": "event"
    },
    {
      "anonymous": false,
      "inputs": [
        {
          "indexed": true,
          "internalType": "address",
          "name": "from",
          "type": "address"
        },
        {
          "indexed": true,
          "internalType": "address",
          "name": "to",
          "type": "address"
        },
        {
          "indexed": true,
          "internalType": "uint256",
          "name": "tokenId",
          "type": "uint256"
        }
      ],
      "name": "Transfer",
      "type": "event"
    },
    {
      "inputs": [
        {
          "internalType": "address",
          "name": "to",
          "type": "address"
        },
        {
          "internalType": "uint256",
          "name": "tokenId",
          "type": "uint256"
        }
      ],
      "name": "approve",
      "outputs": [],
      "stateMutability": "nonpayable",
      "type": "function"
    },
    {
      "inputs": [
        {
          "internalType": "address",
          "name": "owner",
          "type": "address"
        }
      ],
      "name": "balanceOf",
      "outputs": [
        {
          "internalType": "uint256",
          "name": "",
          "type": "uint256"
        }
      ],
      "stateMutability": "view",
      "type": "function"
    },
    {
      "inputs": [
        {
          "internalType": "string",
          "name": "_organizationName",
          "type": "string"
        },
        {
          "internalType": "string",
          "name": "_organizationDescription",
          "type": "string"
        }
      ],
      "name": "createOrganization",
      "outputs": [],
      "stateMutability": "nonpayable",
      "type": "function"
    },
    {
      "inputs": [
        {
          "internalType": "string",
          "name": "_title",
          "type": "string"
        },
        {
          "internalType": "string",
          "name": "_description",
          "type": "string"
        },
        {
          "internalType": "uint256",
          "name": "_goal",
          "type": "uint256"
        }
      ],
      "name": "createProject",
      "outputs": [],
      "stateMutability": "nonpayable",
      "type": "function"
    },
    {
      "inputs": [
        {
          "internalType": "address",
          "name": "_recipient",
          "type": "address"
        },
        {
          "internalType": "uint256",
          "name": "_projectId",
          "type": "uint256"
        },
        {
          "internalType": "uint256",
          "name": "_donationAmount",
          "type": "uint256"
        },
        {
          "internalType": "uint256",
          "name": "_timestamp",
          "type": "uint256"
        }
      ],
      "name": "createReceipt",
      "outputs": [],
      "stateMutability": "nonpayable",
      "type": "function"
    },
    {
      "inputs": [
        {
          "internalType": "address",
          "name": "_donor",
          "type": "address"
        }
      ],
      "name": "doesDonorExist",
      "outputs": [
        {
          "internalType": "bool",
          "name": "",
          "type": "bool"
        }
      ],
      "stateMutability": "view",
      "type": "function"
    },
    {
      "inputs": [
        {
          "internalType": "uint256",
          "name": "_projectId",
          "type": "uint256"
        }
      ],
      "name": "doesProjectExist",
      "outputs": [
        {
          "internalType": "bool",
          "name": "",
          "type": "bool"
        }
      ],
      "stateMutability": "view",
      "type": "function"
    },
    {
      "inputs": [
        {
          "internalType": "address",
          "name": "",
          "type": "address"
        }
      ],
      "name": "donors",
      "outputs": [
        {
          "internalType": "address",
          "name": "donorAddress",
          "type": "address"
        },
        {
          "internalType": "uint256",
          "name": "votingTokens",
          "type": "uint256"
        }
      ],
      "stateMutability": "view",
      "type": "function"
    },
    {
      "inputs": [
        {
          "internalType": "uint256",
          "name": "_projectId",
          "type": "uint256"
        },
        {
          "internalType": "string",
          "name": "_proofUrl",
          "type": "string"
        }
      ],
      "name": "endProject",
      "outputs": [],
      "stateMutability": "nonpayable",
      "type": "function"
    },
    {
      "inputs": [
        {
          "internalType": "uint256",
          "name": "_projectId",
          "type": "uint256"
        }
      ],
      "name": "exceededTimeLimit",
      "outputs": [
        {
          "internalType": "bool",
          "name": "",
          "type": "bool"
        }
      ],
      "stateMutability": "view",
      "type": "function"
    },
    {
      "inputs": [],
      "name": "getAllProjects",
      "outputs": [
        {
          "components": [
            {
              "internalType": "uint256",
              "name": "projectId",
              "type": "uint256"
            },
            {
              "internalType": "uint256",
              "name": "organizationId",
              "type": "uint256"
            },
            {
              "internalType": "address payable",
              "name": "projectOwner",
              "type": "address"
            },
            {
              "internalType": "string",
              "name": "projectTitle",
              "type": "string"
            },
            {
              "internalType": "string",
              "name": "projectDescription",
              "type": "string"
            },
            {
              "internalType": "uint256",
              "name": "fundingGoal",
              "type": "uint256"
            },
            {
              "internalType": "uint256",
              "name": "currentFunding",
              "type": "uint256"
            },
            {
              "internalType": "uint256",
              "name": "totalVotes",
              "type": "uint256"
            },
            {
              "internalType": "enum ProjectState",
              "name": "state",
              "type": "uint8"
            },
            {
              "internalType": "uint256",
              "name": "creationTimestamp",
              "type": "uint256"
            }
          ],
          "internalType": "struct Project[]",
          "name": "",
          "type": "tuple[]"
        }
      ],
      "stateMutability": "view",
      "type": "function"
    },
    {
      "inputs": [],
      "name": "getAllProjectsTest",
      "outputs": [
        {
          "internalType": "string[]",
          "name": "names",
          "type": "string[]"
        },
        {
          "internalType": "string[]",
          "name": "descriptions",
          "type": "string[]"
        },
        {
          "internalType": "uint256[]",
          "name": "goals",
          "type": "uint256[]"
        },
        {
          "internalType": "uint256[]",
          "name": "currentFundings",
          "type": "uint256[]"
        },
        {
          "internalType": "uint256[]",
          "name": "projectIds",
          "type": "uint256[]"
        }
      ],
      "stateMutability": "view",
      "type": "function"
    },
    {
      "inputs": [
        {
          "internalType": "uint256",
          "name": "tokenId",
          "type": "uint256"
        }
      ],
      "name": "getApproved",
      "outputs": [
        {
          "internalType": "address",
          "name": "",
          "type": "address"
        }
      ],
      "stateMutability": "view",
      "type": "function"
    },
    {
      "inputs": [
        {
          "internalType": "address",
          "name": "_donor",
          "type": "address"
        }
      ],
      "name": "getDonorTokenBalance",
      "outputs": [
        {
          "internalType": "uint256",
          "name": "",
          "type": "uint256"
        }
      ],
      "stateMutability": "view",
      "type": "function"
    },
    {
      "inputs": [],
      "name": "getLastTenProjects",
      "outputs": [
        {
          "components": [
            {
              "internalType": "uint256",
              "name": "projectId",
              "type": "uint256"
            },
            {
              "internalType": "uint256",
              "name": "organizationId",
              "type": "uint256"
            },
            {
              "internalType": "address payable",
              "name": "projectOwner",
              "type": "address"
            },
            {
              "internalType": "string",
              "name": "projectTitle",
              "type": "string"
            },
            {
              "internalType": "string",
              "name": "projectDescription",
              "type": "string"
            },
            {
              "internalType": "uint256",
              "name": "fundingGoal",
              "type": "uint256"
            },
            {
              "internalType": "uint256",
              "name": "currentFunding",
              "type": "uint256"
            },
            {
              "internalType": "uint256",
              "name": "totalVotes",
              "type": "uint256"
            },
            {
              "internalType": "enum ProjectState",
              "name": "state",
              "type": "uint8"
            },
            {
              "internalType": "uint256",
              "name": "creationTimestamp",
              "type": "uint256"
            }
          ],
          "internalType": "struct Project[]",
          "name": "",
          "type": "tuple[]"
        }
      ],
      "stateMutability": "view",
      "type": "function"
    },
    {
      "inputs": [
        {
          "internalType": "address",
          "name": "_walletAddress",
          "type": "address"
        }
      ],
      "name": "getOrganization",
      "outputs": [
        {
          "components": [
            {
              "internalType": "uint256",
              "name": "organizationId",
              "type": "uint256"
            },
            {
              "internalType": "address payable",
              "name": "walletAddress",
              "type": "address"
            },
            {
              "internalType": "string",
              "name": "organizationName",
              "type": "string"
            },
            {
              "internalType": "string",
              "name": "organizationDescription",
              "type": "string"
            },
            {
              "internalType": "enum OrganizationState",
              "name": "state",
              "type": "uint8"
            },
            {
              "internalType": "uint256",
              "name": "votes",
              "type": "uint256"
            },
            {
              "internalType": "uint256",
              "name": "downVotes",
              "type": "uint256"
            }
          ],
          "internalType": "struct Organization",
          "name": "",
          "type": "tuple"
        }
      ],
      "stateMutability": "view",
      "type": "function"
    },
    {
      "inputs": [
        {
          "internalType": "uint256",
          "name": "_orgId",
          "type": "uint256"
        }
      ],
      "name": "getOrganizationById",
      "outputs": [
        {
          "components": [
            {
              "internalType": "uint256",
              "name": "organizationId",
              "type": "uint256"
            },
            {
              "internalType": "address payable",
              "name": "walletAddress",
              "type": "address"
            },
            {
              "internalType": "string",
              "name": "organizationName",
              "type": "string"
            },
            {
              "internalType": "string",
              "name": "organizationDescription",
              "type": "string"
            },
            {
              "internalType": "enum OrganizationState",
              "name": "state",
              "type": "uint8"
            },
            {
              "internalType": "uint256",
              "name": "votes",
              "type": "uint256"
            },
            {
              "internalType": "uint256",
              "name": "downVotes",
              "type": "uint256"
            }
          ],
          "internalType": "struct Organization",
          "name": "",
          "type": "tuple"
        }
      ],
      "stateMutability": "view",
      "type": "function"
    },
    {
      "inputs": [
        {
          "internalType": "address",
          "name": "_walletAddress",
          "type": "address"
        }
      ],
      "name": "getOrganizationState",
      "outputs": [
        {
          "internalType": "enum OrganizationState",
          "name": "",
          "type": "uint8"
        }
      ],
      "stateMutability": "view",
      "type": "function"
    },
    {
      "inputs": [
        {
          "internalType": "uint256",
          "name": "_from",
          "type": "uint256"
        },
        {
          "internalType": "uint256",
          "name": "_to",
          "type": "uint256"
        }
      ],
      "name": "getProjectsInRange",
      "outputs": [
        {
          "components": [
            {
              "internalType": "uint256",
              "name": "projectId",
              "type": "uint256"
            },
            {
              "internalType": "uint256",
              "name": "organizationId",
              "type": "uint256"
            },
            {
              "internalType": "address payable",
              "name": "projectOwner",
              "type": "address"
            },
            {
              "internalType": "string",
              "name": "projectTitle",
              "type": "string"
            },
            {
              "internalType": "string",
              "name": "projectDescription",
              "type": "string"
            },
            {
              "internalType": "uint256",
              "name": "fundingGoal",
              "type": "uint256"
            },
            {
              "internalType": "uint256",
              "name": "currentFunding",
              "type": "uint256"
            },
            {
              "internalType": "uint256",
              "name": "totalVotes",
              "type": "uint256"
            },
            {
              "internalType": "enum ProjectState",
              "name": "state",
              "type": "uint8"
            },
            {
              "internalType": "uint256",
              "name": "creationTimestamp",
              "type": "uint256"
            }
          ],
          "internalType": "struct Project[]",
          "name": "",
          "type": "tuple[]"
        }
      ],
      "stateMutability": "view",
      "type": "function"
    },
    {
      "inputs": [
        {
          "internalType": "uint256",
          "name": "_orgaId",
          "type": "uint256"
        }
      ],
      "name": "hasEnoughVotesForOnboarding",
      "outputs": [
        {
          "internalType": "bool",
          "name": "",
          "type": "bool"
        }
      ],
      "stateMutability": "view",
      "type": "function"
    },
    {
      "inputs": [
        {
          "internalType": "uint256",
          "name": "_projectId",
          "type": "uint256"
        }
      ],
      "name": "hasReachedFundingGoal",
      "outputs": [
        {
          "internalType": "bool",
          "name": "",
          "type": "bool"
        }
      ],
      "stateMutability": "view",
      "type": "function"
    },
    {
      "inputs": [
        {
          "internalType": "address",
          "name": "owner",
          "type": "address"
        },
        {
          "internalType": "address",
          "name": "operator",
          "type": "address"
        }
      ],
      "name": "isApprovedForAll",
      "outputs": [
        {
          "internalType": "bool",
          "name": "",
          "type": "bool"
        }
      ],
      "stateMutability": "view",
      "type": "function"
    },
    {
      "inputs": [
        {
          "internalType": "uint256",
          "name": "_orgaId",
          "type": "uint256"
        }
      ],
      "name": "isControversial",
      "outputs": [
        {
          "internalType": "bool",
          "name": "",
          "type": "bool"
        }
      ],
      "stateMutability": "view",
      "type": "function"
    },
    {
      "inputs": [],
      "name": "name",
      "outputs": [
        {
          "internalType": "string",
          "name": "",
          "type": "string"
        }
      ],
      "stateMutability": "view",
      "type": "function"
    },
    {
      "inputs": [
        {
          "internalType": "bytes32",
          "name": "",
          "type": "bytes32"
        }
      ],
      "name": "nftsCreated",
      "outputs": [
        {
          "internalType": "bool",
          "name": "",
          "type": "bool"
        }
      ],
      "stateMutability": "view",
      "type": "function"
    },
    {
      "inputs": [
        {
          "internalType": "uint256",
          "name": "",
          "type": "uint256"
        }
      ],
      "name": "organizationIdToAddress",
      "outputs": [
        {
          "internalType": "address",
          "name": "",
          "type": "address"
        }
      ],
      "stateMutability": "view",
      "type": "function"
    },
    {
      "inputs": [
        {
          "internalType": "address",
          "name": "",
          "type": "address"
        }
      ],
      "name": "organizations",
      "outputs": [
        {
          "internalType": "uint256",
          "name": "organizationId",
          "type": "uint256"
        },
        {
          "internalType": "address payable",
          "name": "walletAddress",
          "type": "address"
        },
        {
          "internalType": "string",
          "name": "organizationName",
          "type": "string"
        },
        {
          "internalType": "string",
          "name": "organizationDescription",
          "type": "string"
        },
        {
          "internalType": "enum OrganizationState",
          "name": "state",
          "type": "uint8"
        },
        {
          "internalType": "uint256",
          "name": "votes",
          "type": "uint256"
        },
        {
          "internalType": "uint256",
          "name": "downVotes",
          "type": "uint256"
        }
      ],
      "stateMutability": "view",
      "type": "function"
    },
    {
      "inputs": [],
      "name": "organizationsCount",
      "outputs": [
        {
          "internalType": "uint256",
          "name": "",
          "type": "uint256"
        }
      ],
      "stateMutability": "view",
      "type": "function"
    },
    {
      "inputs": [
        {
          "internalType": "uint256",
          "name": "tokenId",
          "type": "uint256"
        }
      ],
      "name": "ownerOf",
      "outputs": [
        {
          "internalType": "address",
          "name": "",
          "type": "address"
        }
      ],
      "stateMutability": "view",
      "type": "function"
    },
    {
      "inputs": [
        {
          "internalType": "uint256",
          "name": "",
          "type": "uint256"
        }
      ],
      "name": "projectToOrganization",
      "outputs": [
        {
          "internalType": "uint256",
          "name": "",
          "type": "uint256"
        }
      ],
      "stateMutability": "view",
      "type": "function"
    },
    {
      "inputs": [
        {
          "internalType": "uint256",
          "name": "",
          "type": "uint256"
        }
      ],
      "name": "projects",
      "outputs": [
        {
          "internalType": "uint256",
          "name": "projectId",
          "type": "uint256"
        },
        {
          "internalType": "uint256",
          "name": "organizationId",
          "type": "uint256"
        },
        {
          "internalType": "address payable",
          "name": "projectOwner",
          "type": "address"
        },
        {
          "internalType": "string",
          "name": "projectTitle",
          "type": "string"
        },
        {
          "internalType": "string",
          "name": "projectDescription",
          "type": "string"
        },
        {
          "internalType": "uint256",
          "name": "fundingGoal",
          "type": "uint256"
        },
        {
          "internalType": "uint256",
          "name": "currentFunding",
          "type": "uint256"
        },
        {
          "internalType": "uint256",
          "name": "totalVotes",
          "type": "uint256"
        },
        {
          "internalType": "enum ProjectState",
          "name": "state",
          "type": "uint8"
        },
        {
          "internalType": "uint256",
          "name": "creationTimestamp",
          "type": "uint256"
        }
      ],
      "stateMutability": "view",
      "type": "function"
    },
    {
      "inputs": [
        {
          "internalType": "address",
          "name": "from",
          "type": "address"
        },
        {
          "internalType": "address",
          "name": "to",
          "type": "address"
        },
        {
          "internalType": "uint256",
          "name": "tokenId",
          "type": "uint256"
        }
      ],
      "name": "safeTransferFrom",
      "outputs": [],
      "stateMutability": "nonpayable",
      "type": "function"
    },
    {
      "inputs": [
        {
          "internalType": "address",
          "name": "from",
          "type": "address"
        },
        {
          "internalType": "address",
          "name": "to",
          "type": "address"
        },
        {
          "internalType": "uint256",
          "name": "tokenId",
          "type": "uint256"
        },
        {
          "internalType": "bytes",
          "name": "data",
          "type": "bytes"
        }
      ],
      "name": "safeTransferFrom",
      "outputs": [],
      "stateMutability": "nonpayable",
      "type": "function"
    },
    {
      "inputs": [
        {
          "internalType": "address",
          "name": "operator",
          "type": "address"
        },
        {
          "internalType": "bool",
          "name": "approved",
          "type": "bool"
        }
      ],
      "name": "setApprovalForAll",
      "outputs": [],
      "stateMutability": "nonpayable",
      "type": "function"
    },
    {
      "inputs": [
        {
          "internalType": "bytes4",
          "name": "interfaceId",
          "type": "bytes4"
        }
      ],
      "name": "supportsInterface",
      "outputs": [
        {
          "internalType": "bool",
          "name": "",
          "type": "bool"
        }
      ],
      "stateMutability": "view",
      "type": "function"
    },
    {
      "inputs": [],
      "name": "symbol",
      "outputs": [
        {
          "internalType": "string",
          "name": "",
          "type": "string"
        }
      ],
      "stateMutability": "view",
      "type": "function"
    },
    {
      "inputs": [],
      "name": "tokenMultiplier",
      "outputs": [
        {
          "internalType": "uint256",
          "name": "",
          "type": "uint256"
        }
      ],
      "stateMutability": "view",
      "type": "function"
    },
    {
      "inputs": [
        {
          "internalType": "uint256",
          "name": "tokenId",
          "type": "uint256"
        }
      ],
      "name": "tokenURI",
      "outputs": [
        {
          "internalType": "string",
          "name": "",
          "type": "string"
        }
      ],
      "stateMutability": "view",
      "type": "function"
    },
    {
      "inputs": [
        {
          "internalType": "address",
          "name": "from",
          "type": "address"
        },
        {
          "internalType": "address",
          "name": "to",
          "type": "address"
        },
        {
          "internalType": "uint256",
          "name": "tokenId",
          "type": "uint256"
        }
      ],
      "name": "transferFrom",
      "outputs": [],
      "stateMutability": "nonpayable",
      "type": "function"
    },
    {
      "inputs": [
        {
          "internalType": "uint256",
          "name": "_projectId",
          "type": "uint256"
        }
      ],
      "name": "transitionFromEnded",
      "outputs": [],
      "stateMutability": "nonpayable",
      "type": "function"
    },
    {
      "inputs": [
        {
          "internalType": "uint256",
          "name": "_projectId",
          "type": "uint256"
        }
      ],
      "name": "transitionFromStarted",
      "outputs": [],
      "stateMutability": "nonpayable",
      "type": "function"
    },
    {
      "inputs": [
        {
          "internalType": "uint256",
          "name": "_projectId",
          "type": "uint256"
        }
      ],
      "name": "transitionFromVoting",
      "outputs": [],
      "stateMutability": "nonpayable",
      "type": "function"
    },
    {
      "inputs": [
        {
          "internalType": "uint256",
          "name": "_projectId",
          "type": "uint256"
        },
        {
          "internalType": "uint256",
          "name": "_amount",
          "type": "uint256"
        }
      ],
      "name": "vote",
      "outputs": [],
      "stateMutability": "nonpayable",
      "type": "function"
    },
    {
      "inputs": [
        {
          "internalType": "uint256",
          "name": "_orgaId",
          "type": "uint256"
        }
      ],
      "name": "voteAgainstOrganization",
      "outputs": [],
      "stateMutability": "nonpayable",
      "type": "function"
    },
    {
      "inputs": [
        {
          "internalType": "uint256",
          "name": "_orgaId",
          "type": "uint256"
        }
      ],
      "name": "voteForOrganization",
      "outputs": [],
      "stateMutability": "nonpayable",
      "type": "function"
    },
    {
      "inputs": [
        {
          "internalType": "uint256",
          "name": "_projectId",
          "type": "uint256"
        },
        {
          "internalType": "uint256",
          "name": "_tokens",
          "type": "uint256"
        }
      ],
      "name": "voteForProject",
      "outputs": [],
      "stateMutability": "nonpayable",
      "type": "function"
    },
    {
      "inputs": [
        {
          "internalType": "address",
          "name": "",
          "type": "address"
        }
      ],
      "name": "votes",
      "outputs": [
        {
          "internalType": "uint256",
          "name": "",
          "type": "uint256"
        }
      ],
      "stateMutability": "view",
      "type": "function"
    },
    {
      "inputs": [
        {
          "internalType": "bytes32",
          "name": "",
          "type": "bytes32"
        }
      ],
      "name": "votesAgainstOrga",
      "outputs": [
        {
          "internalType": "bool",
          "name": "",
          "type": "bool"
        }
      ],
      "stateMutability": "view",
      "type": "function"
    },
    {
      "inputs": [
        {
          "internalType": "bytes32",
          "name": "",
          "type": "bytes32"
        }
      ],
      "name": "votesForOrga",
      "outputs": [
        {
          "internalType": "bool",
          "name": "",
          "type": "bool"
        }
      ],
      "stateMutability": "view",
      "type": "function"
    },
    {
      "inputs": [
        {
          "internalType": "uint256",
          "name": "_amount",
          "type": "uint256"
        }
      ],
      "name": "withdrawFunds",
      "outputs": [],
      "stateMutability": "nonpayable",
      "type": "function"
    },
    {
      "stateMutability": "payable",
      "type": "receive"
    }
  ],
  "bytecode": "0x608060405260016013553480156200001657600080fd5b506040518060400160405280601381526020017f534c522d446f6e6174696f6e52656365697074000000000000000000000000008152506040518060400160405280600681526020016529a62916a22960d11b81525081600990816200007d919062000141565b50600a6200008c828262000141565b50506000601055506200020d565b634e487b7160e01b600052604160045260246000fd5b600181811c90821680620000c557607f821691505b602082108103620000e657634e487b7160e01b600052602260045260246000fd5b50919050565b601f8211156200013c576000816000526020600020601f850160051c81016020861015620001175750805b601f850160051c820191505b81811015620001385782815560010162000123565b5050505b505050565b81516001600160401b038111156200015d576200015d6200009a565b62000175816200016e8454620000b0565b84620000ec565b602080601f831160018114620001ad5760008415620001945750858301515b600019600386901b1c1916600185901b17855562000138565b600085815260208120601f198616915b82811015620001de57888601518255948401946001909101908401620001bd565b5085821015620001fd5787850151600019600388901b60f8161c191681555b5050505050600190811b01905550565b614779806200021d6000396000f3fe60806040526004361061032d5760003560e01c806395d89b41116101a5578063ca0cdea8116100ec578063d9062de111610095578063e985e9c51161006f578063e985e9c514610a7d578063ed7ae14614610ac6578063f157e40e14610b0f578063f97203af14610b4857600080fd5b8063d9062de1146109f7578063e218ec7b14610a17578063e6607bb814610a4757600080fd5b8063d6d2771d116100c6578063d6d2771d14610963578063d848c63414610983578063d8bff5a5146109ca57600080fd5b8063ca0cdea8146108c4578063d2c30a6d14610923578063d60dbe601461094357600080fd5b8063b761d2991161014e578063c3e9172911610128578063c3e9172914610857578063c4f3c4fc14610884578063c87b56dd146108a457600080fd5b8063b761d299146107fb578063b88d4fde14610821578063ba3f5a121461084157600080fd5b8063a411ef201161017f578063a411ef201461079b578063a6ad01cf146107bb578063b384abef146107db57600080fd5b806395d89b41146107445780639749182814610759578063a22cb4651461077b57600080fd5b806341fcd6cc116102745780636352211e1161021d57806370a08231116101f757806370a08231146106b35780637452ea22146106d357806380d03829146106f3578063953de5701461070857600080fd5b80636352211e14610646578063635c54551461066657806367b44d8a1461069357600080fd5b806342ea884c1161024e57806342ea884c146105cf57806359987f91146105ef5780635a1f74061461061357600080fd5b806341fcd6cc1461056d5780634243c5411461058d57806342842e0e146105af57600080fd5b8063155dd5ee116102d657806323c55448116102b057806323c55448146104f25780633027ffd41461051257806330ce6b0b1461054d57600080fd5b8063155dd5ee146104655780631fd0862f1461048557806323b872dd146104d257600080fd5b8063095ea7b311610307578063095ea7b3146103df5780630fdf190b146103ff578063107046bd1461042f57600080fd5b806301ffc9a71461035057806306fdde0314610385578063081812fc146103a757600080fd5b3661034b5761034933601354346103449190613c80565b610b78565b005b600080fd5b34801561035c57600080fd5b5061037061036b366004613cad565b610bfc565b60405190151581526020015b60405180910390f35b34801561039157600080fd5b5061039a610c40565b60405161037c9190613d1a565b3480156103b357600080fd5b506103c76103c2366004613d2d565b610cd2565b6040516001600160a01b03909116815260200161037c565b3480156103eb57600080fd5b506103496103fa366004613d62565b610cfb565b34801561040b57600080fd5b5061037061041a366004613d2d565b60026020526000908152604090205460ff1681565b34801561043b57600080fd5b5061044f61044a366004613d2d565b610d0a565b60405161037c9a99989796959493929190613db6565b34801561047157600080fd5b50610349610480366004613d2d565b610e78565b34801561049157600080fd5b506103706104a0366004613d2d565b6000908152600160209081526040808320546001600160a01b0316835290829052902060068101546005909101541090565b3480156104de57600080fd5b506103496104ed366004613e32565b610f33565b3480156104fe57600080fd5b5061034961050d366004613f1a565b610fd7565b34801561051e57600080fd5b5061037061052d366004613d2d565b600090815260056020819052604090912090810154600690910154101590565b34801561055957600080fd5b50610349610568366004613f87565b611401565b34801561057957600080fd5b50610349610588366004613d2d565b61153d565b34801561059957600080fd5b506105a261154b565b60405161037c9190613fa9565b3480156105bb57600080fd5b506103496105ca366004613e32565b611573565b3480156105db57600080fd5b506103496105ea366004613d2d565b611593565b3480156105fb57600080fd5b5061060560045481565b60405190815260200161037c565b34801561061f57600080fd5b5061063361062e3660046140a1565b61159e565b60405161037c97969594939291906140cc565b34801561065257600080fd5b506103c7610661366004613d2d565b6116f9565b34801561067257600080fd5b50610686610681366004613d2d565b611704565b60405161037c919061412b565b34801561069f57600080fd5b506105a26106ae366004613f87565b6118c3565b3480156106bf57600080fd5b506106056106ce3660046140a1565b611c3e565b3480156106df57600080fd5b506103496106ee366004613d2d565b611c9f565b3480156106ff57600080fd5b506105a2611d26565b34801561071457600080fd5b506103706107233660046140a1565b6001600160a01b039081166000818152601260205260409020549091161490565b34801561075057600080fd5b5061039a611d3c565b34801561076557600080fd5b50610370610774366004613d2d565b6007541190565b34801561078757600080fd5b506103496107963660046141b6565b611d4b565b3480156107a757600080fd5b506103496107b63660046141f2565b611d56565b3480156107c757600080fd5b506103496107d6366004614256565b611e64565b3480156107e757600080fd5b506103496107f6366004613f87565b611f2a565b34801561080757600080fd5b506108106121f2565b60405161037c959493929190614325565b34801561082d57600080fd5b5061034961083c366004614392565b6125b3565b34801561084d57600080fd5b5061060560135481565b34801561086357600080fd5b50610605610872366004613d2d565b60066020526000908152604090205481565b34801561089057600080fd5b5061037061089f366004613d2d565b6125ca565b3480156108b057600080fd5b5061039a6108bf366004613d2d565b6125f1565b3480156108d057600080fd5b506109046108df3660046140a1565b601260205260009081526040902080546001909101546001600160a01b039091169082565b604080516001600160a01b03909316835260208301919091520161037c565b34801561092f57600080fd5b5061068661093e3660046140a1565b612702565b34801561094f57600080fd5b5061034961095e366004613d2d565b612754565b34801561096f57600080fd5b5061034961097e36600461440e565b612841565b34801561098f57600080fd5b5061037061099e366004613d2d565b6000908152600160209081526040808320546001600160a01b0316835290829052902060050154151590565b3480156109d657600080fd5b506106056109e53660046140a1565b60086020526000908152604090205481565b348015610a0357600080fd5b50610349610a12366004613d2d565b61294e565b348015610a2357600080fd5b50610370610a32366004613d2d565b60036020526000908152604090205460ff1681565b348015610a5357600080fd5b506103c7610a62366004613d2d565b6001602052600090815260409020546001600160a01b031681565b348015610a8957600080fd5b50610370610a9836600461444b565b6001600160a01b039182166000908152600e6020908152604080832093909416825291909152205460ff1690565b348015610ad257600080fd5b50610b02610ae13660046140a1565b6001600160a01b031660009081526020819052604090206004015460ff1690565b60405161037c919061447e565b348015610b1b57600080fd5b50610605610b2a3660046140a1565b6001600160a01b031660009081526012602052604090206001015490565b348015610b5457600080fd5b50610370610b63366004613d2d565b60116020526000908152604090205460ff1681565b6001600160a01b0380831660008181526012602052604090205490911614610bc857610bc8826001600160a01b0316600081815260126020526040902080546001600160a01b0319169091179055565b6001600160a01b03821660009081526012602052604081206001018054839290610bf390849061448c565b90915550505050565b60006001600160e01b031982167f49064906000000000000000000000000000000000000000000000000000000001480610c3a5750610c3a826129d5565b92915050565b606060098054610c4f9061449f565b80601f0160208091040260200160405190810160405280929190818152602001828054610c7b9061449f565b8015610cc85780601f10610c9d57610100808354040283529160200191610cc8565b820191906000526020600020905b815481529060010190602001808311610cab57829003601f168201915b5050505050905090565b6000610cdd82612a70565b506000828152600d60205260409020546001600160a01b0316610c3a565b610d06828233612aa9565b5050565b6005602052600090815260409020805460018201546002830154600384018054939492936001600160a01b039092169291610d449061449f565b80601f0160208091040260200160405190810160405280929190818152602001828054610d709061449f565b8015610dbd5780601f10610d9257610100808354040283529160200191610dbd565b820191906000526020600020905b815481529060010190602001808311610da057829003601f168201915b505050505090806004018054610dd29061449f565b80601f0160208091040260200160405190810160405280929190818152602001828054610dfe9061449f565b8015610e4b5780601f10610e2057610100808354040283529160200191610e4b565b820191906000526020600020905b815481529060010190602001808311610e2e57829003601f168201915b505050506005830154600684015460078501546008860154600990960154949592949193509160ff16908a565b33600090815260126020526040902060010154811115610edf5760405162461bcd60e51b815260206004820152601260248201527f496e73756666696369656e742066756e6473000000000000000000000000000060448201526064015b60405180910390fd5b3360009081526012602052604081206001018054839290610f019084906144d9565b9091555050604051339082156108fc029083906000818181858888f19350505050158015610d06573d6000803e3d6000fd5b6001600160a01b038216610f5d57604051633250574960e11b815260006004820152602401610ed6565b6000610f6a838333612ab6565b9050836001600160a01b0316816001600160a01b031614610fd1576040517f64283d7b0000000000000000000000000000000000000000000000000000000081526001600160a01b0380861660048301526024820184905282166044820152606401610ed6565b50505050565b336000818152602081905260409020600101546001600160a01b0316146110665760405162461bcd60e51b815260206004820152603360248201527f4f6e6c7920746865206f7267616e697a6174696f6e206f776e65722063616e2060448201527f63616c6c20746869732066756e6374696f6e2e000000000000000000000000006064820152608401610ed6565b60013360009081526020819052604090206004015460ff16600381111561108f5761108f613d8c565b036111025760405162461bcd60e51b815260206004820152602260248201527f54686973206f7267616e69736174696f6e20686173206265656e2062616e6e6560448201527f642e0000000000000000000000000000000000000000000000000000000000006064820152608401610ed6565b600081116111525760405162461bcd60e51b815260206004820152601b60248201527f476f616c206d7573742062652067726561746572207468616e203000000000006044820152606401610ed6565b33600090815260208181526040808320815160e0810183528154815260018201546001600160a01b03169381019390935260028101805491928401916111979061449f565b80601f01602080910402602001604051908101604052809291908181526020018280546111c39061449f565b80156112105780601f106111e557610100808354040283529160200191611210565b820191906000526020600020905b8154815290600101906020018083116111f357829003601f168201915b505050505081526020016003820180546112299061449f565b80601f01602080910402602001604051908101604052809291908181526020018280546112559061449f565b80156112a25780601f10611277576101008083540402835291602001916112a2565b820191906000526020600020905b81548152906001019060200180831161128557829003601f168201915b5050509183525050600482015460209091019060ff1660038111156112c9576112c9613d8c565b60038111156112da576112da613d8c565b8152602001600582015481526020016006820154815250509050336001600160a01b031681602001516001600160a01b03161461137f5760405162461bcd60e51b815260206004820152603360248201527f4f6e6c7920746865206f7267616e697a6174696f6e206f776e65722063616e2060448201527f63616c6c20746869732066756e6374696f6e2e000000000000000000000000006064820152608401610ed6565b6007546000908152600560205260409020815160018201556002810180546001600160a01b03191633179055600381016113b9868261453c565b50600481016113c8858261453c565b506005810183905560088101805460ff19166002179055426009820155600780549060006113f5836145fc565b91905055505050505050565b600260008381526005602052604090206008015460ff16600781111561142957611429613d8c565b146114765760405162461bcd60e51b815260206004820152601e60248201527f50726f6a656374206973206e6f7420696e20766f74696e6720737461746500006044820152606401610ed6565b60075482106114c75760405162461bcd60e51b815260206004820152601260248201527f496e76616c69642070726f6a65637420494400000000000000000000000000006044820152606401610ed6565b336000908152601260205260409020600101548111156115295760405162461bcd60e51b815260206004820152601a60248201527f496e73756666696369656e7420766f74696e6720746f6b656e730000000000006044820152606401610ed6565b6115333382612bb1565b610d068282611f2a565b611548816006612c47565b50565b606061156e600a60075461155f91906144d9565b60016007546106ae91906144d9565b905090565b61158e838383604051806020016040528060008152506125b3565b505050565b611548816005612c47565b60006020819052908152604090208054600182015460028301805492936001600160a01b03909216926115d09061449f565b80601f01602080910402602001604051908101604052809291908181526020018280546115fc9061449f565b80156116495780601f1061161e57610100808354040283529160200191611649565b820191906000526020600020905b81548152906001019060200180831161162c57829003601f168201915b50505050509080600301805461165e9061449f565b80601f016020809104026020016040519081016040528092919081815260200182805461168a9061449f565b80156116d75780601f106116ac576101008083540402835291602001916116d7565b820191906000526020600020905b8154815290600101906020018083116116ba57829003601f168201915b5050505060048301546005840154600690940154929360ff9091169290915087565b6000610c3a82612a70565b61170c613ba6565b6000828152600160208181526040808420546001600160a01b03908116855284835293819020815160e081018352815481529381015490941691830191909152600283018054929392918401916117629061449f565b80601f016020809104026020016040519081016040528092919081815260200182805461178e9061449f565b80156117db5780601f106117b0576101008083540402835291602001916117db565b820191906000526020600020905b8154815290600101906020018083116117be57829003601f168201915b505050505081526020016003820180546117f49061449f565b80601f01602080910402602001604051908101604052809291908181526020018280546118209061449f565b801561186d5780601f106118425761010080835404028352916020019161186d565b820191906000526020600020905b81548152906001019060200180831161185057829003601f168201915b5050509183525050600482015460209091019060ff16600381111561189457611894613d8c565b60038111156118a5576118a5613d8c565b81526005820154602082015260069091015460409091015292915050565b6060818311156119155760405162461bcd60e51b815260206004820152600d60248201527f496e76616c69642072616e6765000000000000000000000000000000000000006044820152606401610ed6565b60075482106119705760405162461bcd60e51b815260206004820152602160248201527f52616e676520657863656564732070726f6a656374206c697374206c656e67746044820152600d60fb1b6064820152608401610ed6565b60075483106119cb5760405162461bcd60e51b815260206004820152602160248201527f52616e676520657863656564732070726f6a656374206c697374206c656e67746044820152600d60fb1b6064820152608401610ed6565b60006119d784846144d9565b6119e290600161448c565b67ffffffffffffffff8111156119fa576119fa613e6e565b604051908082528060200260200182016040528015611a3357816020015b611a20613bfd565b815260200190600190039081611a185790505b509050835b838111611c36576000818152600560209081526040918290208251610140810184528154815260018201549281019290925260028101546001600160a01b031692820192909252600382018054919291606084019190611a979061449f565b80601f0160208091040260200160405190810160405280929190818152602001828054611ac39061449f565b8015611b105780601f10611ae557610100808354040283529160200191611b10565b820191906000526020600020905b815481529060010190602001808311611af357829003601f168201915b50505050508152602001600482018054611b299061449f565b80601f0160208091040260200160405190810160405280929190818152602001828054611b559061449f565b8015611ba25780601f10611b7757610100808354040283529160200191611ba2565b820191906000526020600020905b815481529060010190602001808311611b8557829003601f168201915b505050918352505060058201546020820152600682015460408201526007808301546060830152600883015460809092019160ff1690811115611be757611be7613d8c565b6007811115611bf857611bf8613d8c565b8152602001600982015481525050828281518110611c1857611c18614615565b60200260200101819052508080611c2e906145fc565b915050611a38565b509392505050565b60006001600160a01b038216611c83576040517f89c62b6400000000000000000000000000000000000000000000000000000000815260006004820152602401610ed6565b506001600160a01b03166000908152600c602052604090205490565b336000818152601260205260409020546001600160a01b031614611d115760405162461bcd60e51b815260206004820152602360248201527f4f6e6c7920646f6e6f72732063616e2063616c6c20746869732066756e63746960448201526237b71760e91b6064820152608401610ed6565b611d1d33826001612cb7565b61154881612d50565b606061156e600060016007546106ae91906144d9565b6060600a8054610c4f9061449f565b610d06338383612dc0565b6040805160e08101825260045481523360208201529081018390526060810182905260808101600081526000602080830182905260409283018290523382528181529082902083518155908301516001820180546001600160a01b0319166001600160a01b03909216919091179055908201516002820190611dd8908261453c565b5060608201516003820190611ded908261453c565b50608082015160048201805460ff19166001836003811115611e1157611e11613d8c565b021790555060a0820151600582015560c09091015160069091015560048054600090815260016020526040812080546001600160a01b0319163317905581549190611e5b836145fc565b91905055505050565b6007548310611eb55760405162461bcd60e51b815260206004820152601260248201527f496e76616c69642070726f6a65637420494400000000000000000000000000006044820152606401610ed6565b6000838152600560208190526040909120908101546006909101541015611f1e5760405162461bcd60e51b815260206004820152601660248201527f50726f6a656374206e6f742066756e64656420796574000000000000000000006044820152606401610ed6565b610fd184848484612e78565b60008281526005602052604081206007018054839290611f4b90849061448c565b909155505060008281526005602052604081206006018054839290611f7190849061448c565b909155505060008281526005602081905260409091209081015460069091015410610d0657600082815260056020908152604091829020600601548251858152918201527f5bc6714ccad33557efe1cb9d18fa771135ab68961f6add3d4bb6f115adec81a4910160405180910390a160008281526005602090815260408083208151610140810183528154815260018201549381019390935260028101546001600160a01b0316918301919091526003810180546060840191906120349061449f565b80601f01602080910402602001604051908101604052809291908181526020018280546120609061449f565b80156120ad5780601f10612082576101008083540402835291602001916120ad565b820191906000526020600020905b81548152906001019060200180831161209057829003601f168201915b505050505081526020016004820180546120c69061449f565b80601f01602080910402602001604051908101604052809291908181526020018280546120f29061449f565b801561213f5780601f106121145761010080835404028352916020019161213f565b820191906000526020600020905b81548152906001019060200180831161212257829003601f168201915b505050918352505060058201546020820152600682015460408201526007808301546060830152600883015460809092019160ff169081111561218457612184613d8c565b600781111561219557612195613d8c565b815260200160098201548152505090506121b28160400151612702565b602001516001600160a01b03166108fc8260c001519081150290604051600060405180830381858888f19350505050158015610fd1573d6000803e3d6000fd5b6060806060806060600060075467ffffffffffffffff81111561221757612217613e6e565b60405190808252806020026020018201604052801561224a57816020015b60608152602001906001900390816122355790505b509050600060075467ffffffffffffffff81111561226a5761226a613e6e565b60405190808252806020026020018201604052801561229d57816020015b60608152602001906001900390816122885790505b509050600060075467ffffffffffffffff8111156122bd576122bd613e6e565b6040519080825280602002602001820160405280156122e6578160200160208202803683370190505b509050600060075467ffffffffffffffff81111561230657612306613e6e565b60405190808252806020026020018201604052801561232f578160200160208202803683370190505b509050600060075467ffffffffffffffff81111561234f5761234f613e6e565b604051908082528060200260200182016040528015612378578160200160208202803683370190505b50905060005b6007548110156125a157600081815260056020526040902060030180546123a49061449f565b80601f01602080910402602001604051908101604052809291908181526020018280546123d09061449f565b801561241d5780601f106123f25761010080835404028352916020019161241d565b820191906000526020600020905b81548152906001019060200180831161240057829003601f168201915b505050505086828151811061243457612434614615565b60200260200101819052506005600082815260200190815260200160002060040180546124609061449f565b80601f016020809104026020016040519081016040528092919081815260200182805461248c9061449f565b80156124d95780601f106124ae576101008083540402835291602001916124d9565b820191906000526020600020905b8154815290600101906020018083116124bc57829003601f168201915b50505050508582815181106124f0576124f0614615565b6020026020010181905250600560008281526020019081526020016000206005015484828151811061252457612524614615565b602002602001018181525050600560008281526020019081526020016000206006015483828151811061255957612559614615565b602002602001018181525050600560008281526020019081526020016000206000015482828151811061258e5761258e614615565b602090810291909101015260010161237e565b50939992985090965094509092509050565b6125be848484610f33565b610fd18484848461303e565b6000818152600560205260408120600901546125e9906249d40061448c565b421192915050565b60606125fc82612a70565b506000828152600f6020526040812080546126169061449f565b80601f01602080910402602001604051908101604052809291908181526020018280546126429061449f565b801561268f5780601f106126645761010080835404028352916020019161268f565b820191906000526020600020905b81548152906001019060200180831161267257829003601f168201915b5050505050905060006126ad60408051602081019091526000815290565b905080516000036126bf575092915050565b8151156126f15780826040516020016126d992919061462b565b60405160208183030381529060405292505050919050565b6126fa84613167565b949350505050565b61270a613ba6565b6001600160a01b0380831660009081526020818152604091829020825160e0810184528154815260018201549094169184019190915260028101805491928401916117629061449f565b60008181526005602052604081206001015461276f90611704565b60209081015160008481526005909252604090912060060154909150612794836125ca565b156127a4576127a4836003612c47565b60026001600160a01b03831660009081526020819052604090206004015460ff1660038111156127d6576127d6613d8c565b146127e057505050565b6000838152600560208190526040909120908101546006909101541061158e5761280b836004612c47565b6040516001600160a01b0383169082156108fc029083906000818181858888f19350505050158015610fd1573d6000803e3d6000fd5b600460008381526005602052604090206008015460ff16600781111561286957612869613d8c565b146128b65760405162461bcd60e51b815260206004820152601760248201527f50726f6a656374206e6f742073746172746564207965740000000000000000006044820152606401610ed6565b6000828152600560205260409020600201546001600160a01b031633146129455760405162461bcd60e51b815260206004820152602260248201527f4f6e6c792070726f6a656374206f776e65722063616e20656e642070726f6a6560448201527f63740000000000000000000000000000000000000000000000000000000000006064820152608401610ed6565b610d0682611593565b336000818152601260205260409020546001600160a01b0316146129c05760405162461bcd60e51b815260206004820152602360248201527f4f6e6c7920646f6e6f72732063616e2063616c6c20746869732066756e63746960448201526237b71760e91b6064820152608401610ed6565b6129cc33826000612cb7565b611548816131db565b60006001600160e01b031982167f80ac58cd000000000000000000000000000000000000000000000000000000001480612a3857506001600160e01b031982167f5b5e139f00000000000000000000000000000000000000000000000000000000145b80610c3a57507f01ffc9a7000000000000000000000000000000000000000000000000000000006001600160e01b0319831614610c3a565b6000818152600b60205260408120546001600160a01b031680610c3a57604051637e27328960e01b815260048101849052602401610ed6565b61158e838383600161323d565b6000828152600b60205260408120546001600160a01b0390811690831615612ae357612ae381848661337b565b6001600160a01b03811615612b2157612b0060008560008061323d565b6001600160a01b0381166000908152600c6020526040902080546000190190555b6001600160a01b03851615612b50576001600160a01b0385166000908152600c60205260409020805460010190555b6000848152600b602052604080822080546001600160a01b0319166001600160a01b0389811691821790925591518793918516917fddf252ad1be2c89b69c2b068fc378daa952ba7f163c4a11628f55a4df523b3ef91a490505b9392505050565b6001600160a01b038216600090815260126020526040902060010154811115612c1c5760405162461bcd60e51b815260206004820152601a60248201527f496e73756666696369656e7420766f74696e6720746f6b656e730000000000006044820152606401610ed6565b6001600160a01b03821660009081526012602052604081206001018054839290610bf39084906144d9565b6000828152600560205260409020600801805482919060ff19166001836007811115612c7557612c75613d8c565b02179055507ffafe884515ca1fa5e0bf815ce87ef00b2cdaa0eee590d20376604937937a10bf8282604051612cab92919061465a565b60405180910390a15050565b612cc28383836133f8565b15612d0157612cd082613439565b600060026000612ce1868686613470565b81526020810191909152604001600020805460ff19169115159190911790555b612d0d838383156133f8565b1561158e57612d1b8261350c565b600060036000612d2c868686613470565b81526020810191909152604001600020805460ff1916911515919091179055505050565b600160026000612d6233856001613470565b815260208082019290925260409081016000908120805460ff19169415159490941790935583835260018252808320546001600160a01b03168352908290528120600501805491612db2836145fc565b91905055506115488161353f565b6001600160a01b038216612e0b576040517f5b08ba180000000000000000000000000000000000000000000000000000000081526001600160a01b0383166004820152602401610ed6565b6001600160a01b038381166000818152600e6020908152604080832094871680845294825291829020805460ff191686151590811790915591519182527f17307eab39ab6107e8899845ad3d59bd9653f200f220920489ca2b5937696c31910160405180910390a3505050565b6000612ea1612e91866001600160a01b0316601461360d565b612e9a866137e3565b8585613883565b60008181526011602052604090205490915060ff1615612f035760405162461bcd60e51b815260206004820152601360248201527f4e465420616c72656164792063726561746564000000000000000000000000006044820152606401610ed6565b6000818152601160205260409020805460ff19166001179055601054612f2a908690613908565b60008360405160200161300191907f646174613a6170706c69636174696f6e2f6a736f6e2c7b2250726f6a6563742081527f5469746c65223a22446f6e6174696f6e204e4654222c2264657363726970746960208201527f6f6e223a22202b2070726f6a656374735b5f70726f6a65637449645d2e70726f60408201527f6a6563744465736372697074696f6e2829202b20000000000000000000000000606082015260748101919091527f2045544820746f2074686520636f6e74726163742e227d000000000000000000609482015260ab0190565b604051602081830303815290604052905061301e60105482613922565b600160106000828254613031919061448c565b9091555050505050505050565b6001600160a01b0383163b15610fd157604051630a85bd0160e11b81526001600160a01b0384169063150b7a029061308090339088908790879060040161466e565b6020604051808303816000875af19250505080156130bb575060408051601f3d908101601f191682019092526130b8918101906146a0565b60015b613124573d8080156130e9576040519150601f19603f3d011682016040523d82523d6000602084013e6130ee565b606091505b50805160000361311c57604051633250574960e11b81526001600160a01b0385166004820152602401610ed6565b805181602001fd5b6001600160e01b03198116630a85bd0160e11b1461316057604051633250574960e11b81526001600160a01b0385166004820152602401610ed6565b5050505050565b606061317282612a70565b50600061318a60408051602081019091526000815290565b905060008151116131aa5760405180602001604052806000815250612baa565b806131b4846137e3565b6040516020016131c592919061462b565b6040516020818303038152906040529392505050565b6001600260006131ed33856001613470565b815260208082019290925260409081016000908120805460ff19169415159490941790935583835260018252808320546001600160a01b03168352908290528120600601805491612db2836145fc565b808061325157506001600160a01b03821615155b1561334b57600061326184612a70565b90506001600160a01b0383161580159061328d5750826001600160a01b0316816001600160a01b031614155b80156132bf57506001600160a01b038082166000908152600e602090815260408083209387168352929052205460ff16155b15613301576040517fa9fbf51f0000000000000000000000000000000000000000000000000000000081526001600160a01b0384166004820152602401610ed6565b81156133495783856001600160a01b0316826001600160a01b03167f8c5be1e5ebec7d5bd14f71427d1e84f3dd0314c0f7b2291e5b200ac8c7c3b92560405160405180910390a45b505b50506000908152600d6020526040902080546001600160a01b0319166001600160a01b0392909216919091179055565b61338683838361396b565b61158e576001600160a01b0383166133b457604051637e27328960e01b815260048101829052602401610ed6565b6040517f177e802f0000000000000000000000000000000000000000000000000000000081526001600160a01b038316600482015260248101829052604401610ed6565b6000811561342a576002600061340f868686613470565b815260208101919091526040016000205460ff169050612baa565b6003600061340f868686613470565b6000818152600160209081526040808320546001600160a01b0316835290829052902060050180546000190190556115488161353f565b60408051606085901b6bffffffffffffffffffffffff191660208201526034810184905282151560f81b6054820152815160358183030181526055909101918290526000916002906134c39083906146bd565b602060405180830381855afa1580156134e0573d6000803e3d6000fd5b5050506040513d601f19601f8201168201806040525081019061350391906146d9565b95945050505050565b6000818152600160209081526040808320546001600160a01b031683529082905290206006018054600019019055611548815b6000818152600160209081526040808320546001600160a01b031683529082905290206006810154600590910154101561359a57600081815260016020819052604090912054611548916001600160a01b03909116906139ee565b6000818152600160209081526040808320546001600160a01b0316835290829052902060050154156135e957600081815260016020526040902054611548906001600160a01b031660026139ee565b600081815260016020526040812054611548916001600160a01b03909116906139ee565b606082600061361d846002613c80565b61362890600261448c565b67ffffffffffffffff81111561364057613640613e6e565b6040519080825280601f01601f19166020018201604052801561366a576020820181803683370190505b5090507f3000000000000000000000000000000000000000000000000000000000000000816000815181106136a1576136a1614615565b60200101906001600160f81b031916908160001a9053507f7800000000000000000000000000000000000000000000000000000000000000816001815181106136ec576136ec614615565b60200101906001600160f81b031916908160001a9053506000613710856002613c80565b61371b90600161448c565b90505b60018111156137a0577f303132333435363738396162636465660000000000000000000000000000000083600f166010811061375c5761375c614615565b1a60f81b82828151811061377257613772614615565b60200101906001600160f81b031916908160001a90535060049290921c91613799816146f2565b905061371e565b5081156126fa576040517fe22e27eb0000000000000000000000000000000000000000000000000000000081526004810186905260248101859052604401610ed6565b606060006137f083613a2f565b600101905060008167ffffffffffffffff81111561381057613810613e6e565b6040519080825280601f01601f19166020018201604052801561383a576020820181803683370190505b5090508181016020015b600019017f3031323334353637383961626364656600000000000000000000000000000000600a86061a8153600a850494508461384457509392505050565b6000808585858560405160200161389d9493929190614709565b60405160208183030381529060405290506002816040516138be91906146bd565b602060405180830381855afa1580156138db573d6000803e3d6000fd5b5050506040513d601f19601f820116820180604052508101906138fe91906146d9565b9695505050505050565b610d06828260405180602001604052806000815250613b11565b6000828152600f6020526040902061393a828261453c565b506040518281527ff8e1a15aba9398e019f0b49df1a4fde98ee17ae345cb5f6b5e2c27f5033e8ce790602001612cab565b60006001600160a01b038316158015906126fa5750826001600160a01b0316846001600160a01b031614806139c557506001600160a01b038085166000908152600e602090815260408083209387168352929052205460ff165b806126fa5750506000908152600d60205260409020546001600160a01b03908116911614919050565b6001600160a01b0382166000908152602081905260409020600401805482919060ff19166001836003811115613a2657613a26613d8c565b02179055505050565b6000807a184f03e93ff9f4daa797ed6e38ed64bf6a1f0100000000000000008310613a78577a184f03e93ff9f4daa797ed6e38ed64bf6a1f010000000000000000830492506040015b6d04ee2d6d415b85acef81000000008310613aa4576d04ee2d6d415b85acef8100000000830492506020015b662386f26fc100008310613ac257662386f26fc10000830492506010015b6305f5e1008310613ada576305f5e100830492506008015b6127108310613aee57612710830492506004015b60648310613b00576064830492506002015b600a8310610c3a5760010192915050565b613b1b8383613b28565b61158e600084848461303e565b6001600160a01b038216613b5257604051633250574960e11b815260006004820152602401610ed6565b6000613b6083836000612ab6565b90506001600160a01b0381161561158e576040517f73c6ac6e00000000000000000000000000000000000000000000000000000000815260006004820152602401610ed6565b6040518060e001604052806000815260200160006001600160a01b03168152602001606081526020016060815260200160006003811115613be957613be9613d8c565b815260200160008152602001600081525090565b604051806101400160405280600081526020016000815260200160006001600160a01b03168152602001606081526020016060815260200160008152602001600081526020016000815260200160006007811115613c5d57613c5d613d8c565b8152602001600081525090565b634e487b7160e01b600052601160045260246000fd5b8082028115828204841417610c3a57610c3a613c6a565b6001600160e01b03198116811461154857600080fd5b600060208284031215613cbf57600080fd5b8135612baa81613c97565b60005b83811015613ce5578181015183820152602001613ccd565b50506000910152565b60008151808452613d06816020860160208601613cca565b601f01601f19169290920160200192915050565b602081526000612baa6020830184613cee565b600060208284031215613d3f57600080fd5b5035919050565b80356001600160a01b0381168114613d5d57600080fd5b919050565b60008060408385031215613d7557600080fd5b613d7e83613d46565b946020939093013593505050565b634e487b7160e01b600052602160045260246000fd5b60088110613db257613db2613d8c565b9052565b60006101408c83528b60208401526001600160a01b038b166040840152806060840152613de58184018b613cee565b90508281036080840152613df9818a613cee565b9150508660a08301528560c08301528460e0830152613e1c610100830185613da2565b826101208301529b9a5050505050505050505050565b600080600060608486031215613e4757600080fd5b613e5084613d46565b9250613e5e60208501613d46565b9150604084013590509250925092565b634e487b7160e01b600052604160045260246000fd5b600067ffffffffffffffff80841115613e9f57613e9f613e6e565b604051601f8501601f19908116603f01168101908282118183101715613ec757613ec7613e6e565b81604052809350858152868686011115613ee057600080fd5b858560208301376000602087830101525050509392505050565b600082601f830112613f0b57600080fd5b612baa83833560208501613e84565b600080600060608486031215613f2f57600080fd5b833567ffffffffffffffff80821115613f4757600080fd5b613f5387838801613efa565b94506020860135915080821115613f6957600080fd5b50613f7686828701613efa565b925050604084013590509250925092565b60008060408385031215613f9a57600080fd5b50508035926020909101359150565b600060208083018184528085518083526040925060408601915060408160051b87010184880160005b8381101561409357888303603f190185528151805184528781015188850152868101516001600160a01b038116888601526101409050606080830151828288015261401f83880182613cee565b925050506080808301518683038288015261403a8382613cee565b9250505060a080830151818701525060c080830151818701525060e08083015181870152506101008083015161407282880182613da2565b50506101209182015194909101939093529386019390860190600101613fd2565b509098975050505050505050565b6000602082840312156140b357600080fd5b612baa82613d46565b60048110613db257613db2613d8c565b8781526001600160a01b038716602082015260e0604082015260006140f460e0830188613cee565b82810360608401526141068188613cee565b91505061411660808301866140bc565b60a082019390935260c0015295945050505050565b60208152815160208201526001600160a01b0360208301511660408201526000604083015160e06060840152614165610100840182613cee565b90506060840151601f198483030160808501526141828282613cee565b915050608084015161419760a08501826140bc565b5060a084015160c084015260c084015160e08401528091505092915050565b600080604083850312156141c957600080fd5b6141d283613d46565b9150602083013580151581146141e757600080fd5b809150509250929050565b6000806040838503121561420557600080fd5b823567ffffffffffffffff8082111561421d57600080fd5b61422986838701613efa565b9350602085013591508082111561423f57600080fd5b5061424c85828601613efa565b9150509250929050565b6000806000806080858703121561426c57600080fd5b61427585613d46565b966020860135965060408601359560600135945092505050565b60008282518085526020808601955060208260051b8401016020860160005b848110156142dc57601f198684030189526142ca838351613cee565b988401989250908301906001016142ae565b5090979650505050505050565b60008151808452602080850194506020840160005b8381101561431a578151875295820195908201906001016142fe565b509495945050505050565b60a08152600061433860a083018861428f565b828103602084015261434a818861428f565b9050828103604084015261435e81876142e9565b9050828103606084015261437281866142e9565b9050828103608084015261438681856142e9565b98975050505050505050565b600080600080608085870312156143a857600080fd5b6143b185613d46565b93506143bf60208601613d46565b925060408501359150606085013567ffffffffffffffff8111156143e257600080fd5b8501601f810187136143f357600080fd5b61440287823560208401613e84565b91505092959194509250565b6000806040838503121561442157600080fd5b82359150602083013567ffffffffffffffff81111561443f57600080fd5b61424c85828601613efa565b6000806040838503121561445e57600080fd5b61446783613d46565b915061447560208401613d46565b90509250929050565b60208101610c3a82846140bc565b80820180821115610c3a57610c3a613c6a565b600181811c908216806144b357607f821691505b6020821081036144d357634e487b7160e01b600052602260045260246000fd5b50919050565b81810381811115610c3a57610c3a613c6a565b601f82111561158e576000816000526020600020601f850160051c810160208610156145155750805b601f850160051c820191505b8181101561453457828155600101614521565b505050505050565b815167ffffffffffffffff81111561455657614556613e6e565b61456a81614564845461449f565b846144ec565b602080601f83116001811461459f57600084156145875750858301515b600019600386901b1c1916600185901b178555614534565b600085815260208120601f198616915b828110156145ce578886015182559484019460019091019084016145af565b50858210156145ec5787850151600019600388901b60f8161c191681555b5050505050600190811b01905550565b60006001820161460e5761460e613c6a565b5060010190565b634e487b7160e01b600052603260045260246000fd5b6000835161463d818460208801613cca565b835190830190614651818360208801613cca565b01949350505050565b82815260408101612baa6020830184613da2565b60006001600160a01b038087168352808616602084015250836040830152608060608301526138fe6080830184613cee565b6000602082840312156146b257600080fd5b8151612baa81613c97565b600082516146cf818460208701613cca565b9190910192915050565b6000602082840312156146eb57600080fd5b5051919050565b60008161470157614701613c6a565b506000190190565b6000855161471b818460208a01613cca565b85519083019061472f818360208a01613cca565b01938452505060208201526040019291505056fea2646970667358221220fedf12ca6b40d32b3f50d687aa9393e0cc950dcf0dbc9b3976530a6692fe0d6e64736f6c63430008180033",
  "linkReferences": {},
  "deployedLinkReferences": {}
}