{
  "_format": "hh-sol-artifact-1",
  "contractName": "DAO_SLR",
  "sourceName": "contracts/DAO_SLR.sol",
  "abi": [
    {
      "inputs": [
        {
          "internalType": "address",
          "name": "sender",
          "type": "address"
        },
        {
          "internalType": "uint256",
          "name": "tokenId",
          "type": "uint256"
        },
        {
          "internalType": "address",
          "name": "owner",
          "type": "address"
        }
      ],
      "name": "ERC721IncorrectOwner",
      "type": "error"
    },
    {
      "inputs": [
        {
          "internalType": "address",
          "name": "operator",
          "type": "address"
        },
        {
          "internalType": "uint256",
          "name": "tokenId",
          "type": "uint256"
        }
      ],
      "name": "ERC721InsufficientApproval",
      "type": "error"
    },
    {
      "inputs": [
        {
          "internalType": "address",
          "name": "approver",
          "type": "address"
        }
      ],
      "name": "ERC721InvalidApprover",
      "type": "error"
    },
    {
      "inputs": [
        {
          "internalType": "address",
          "name": "operator",
          "type": "address"
        }
      ],
      "name": "ERC721InvalidOperator",
      "type": "error"
    },
    {
      "inputs": [
        {
          "internalType": "address",
          "name": "owner",
          "type": "address"
        }
      ],
      "name": "ERC721InvalidOwner",
      "type": "error"
    },
    {
      "inputs": [
        {
          "internalType": "address",
          "name": "receiver",
          "type": "address"
        }
      ],
      "name": "ERC721InvalidReceiver",
      "type": "error"
    },
    {
      "inputs": [
        {
          "internalType": "address",
          "name": "sender",
          "type": "address"
        }
      ],
      "name": "ERC721InvalidSender",
      "type": "error"
    },
    {
      "inputs": [
        {
          "internalType": "uint256",
          "name": "tokenId",
          "type": "uint256"
        }
      ],
      "name": "ERC721NonexistentToken",
      "type": "error"
    },
    {
      "inputs": [
        {
          "internalType": "uint256",
          "name": "value",
          "type": "uint256"
        },
        {
          "internalType": "uint256",
          "name": "length",
          "type": "uint256"
        }
      ],
      "name": "StringsInsufficientHexLength",
      "type": "error"
    },
    {
      "anonymous": false,
      "inputs": [
        {
          "indexed": true,
          "internalType": "address",
          "name": "owner",
          "type": "address"
        },
        {
          "indexed": true,
          "internalType": "address",
          "name": "approved",
          "type": "address"
        },
        {
          "indexed": true,
          "internalType": "uint256",
          "name": "tokenId",
          "type": "uint256"
        }
      ],
      "name": "Approval",
      "type": "event"
    },
    {
      "anonymous": false,
      "inputs": [
        {
          "indexed": true,
          "internalType": "address",
          "name": "owner",
          "type": "address"
        },
        {
          "indexed": true,
          "internalType": "address",
          "name": "operator",
          "type": "address"
        },
        {
          "indexed": false,
          "internalType": "bool",
          "name": "approved",
          "type": "bool"
        }
      ],
      "name": "ApprovalForAll",
      "type": "event"
    },
    {
      "anonymous": false,
      "inputs": [
        {
          "indexed": false,
          "internalType": "uint256",
          "name": "_fromTokenId",
          "type": "uint256"
        },
        {
          "indexed": false,
          "internalType": "uint256",
          "name": "_toTokenId",
          "type": "uint256"
        }
      ],
      "name": "BatchMetadataUpdate",
      "type": "event"
    },
    {
      "anonymous": false,
      "inputs": [
        {
          "indexed": false,
          "internalType": "uint256",
          "name": "_projectId",
          "type": "uint256"
        },
        {
          "indexed": false,
          "internalType": "uint256",
          "name": "_amount",
          "type": "uint256"
        }
      ],
      "name": "FundingGoalReached",
      "type": "event"
    },
    {
      "anonymous": false,
      "inputs": [
        {
          "indexed": false,
          "internalType": "uint256",
          "name": "_tokenId",
          "type": "uint256"
        }
      ],
      "name": "MetadataUpdate",
      "type": "event"
    },
    {
      "anonymous": false,
      "inputs": [
        {
          "indexed": false,
          "internalType": "uint256",
          "name": "_projectId",
          "type": "uint256"
        },
        {
          "indexed": false,
          "internalType": "enum ProjectState",
          "name": "_newState",
          "type": "uint8"
        }
      ],
      "name": "StateChanged",
      "type": "event"
    },
    {
      "anonymous": false,
      "inputs": [
        {
          "indexed": true,
          "internalType": "address",
          "name": "from",
          "type": "address"
        },
        {
          "indexed": true,
          "internalType": "address",
          "name": "to",
          "type": "address"
        },
        {
          "indexed": true,
          "internalType": "uint256",
          "name": "tokenId",
          "type": "uint256"
        }
      ],
      "name": "Transfer",
      "type": "event"
    },
    {
      "inputs": [
        {
          "internalType": "address",
          "name": "to",
          "type": "address"
        },
        {
          "internalType": "uint256",
          "name": "tokenId",
          "type": "uint256"
        }
      ],
      "name": "approve",
      "outputs": [],
      "stateMutability": "nonpayable",
      "type": "function"
    },
    {
      "inputs": [
        {
          "internalType": "address",
          "name": "owner",
          "type": "address"
        }
      ],
      "name": "balanceOf",
      "outputs": [
        {
          "internalType": "uint256",
          "name": "",
          "type": "uint256"
        }
      ],
      "stateMutability": "view",
      "type": "function"
    },
    {
      "inputs": [
        {
          "internalType": "string",
          "name": "_organizationName",
          "type": "string"
        },
        {
          "internalType": "string",
          "name": "_organizationDescription",
          "type": "string"
        }
      ],
      "name": "createOrganization",
      "outputs": [],
      "stateMutability": "nonpayable",
      "type": "function"
    },
    {
      "inputs": [
        {
          "internalType": "string",
          "name": "_title",
          "type": "string"
        },
        {
          "internalType": "string",
          "name": "_description",
          "type": "string"
        },
        {
          "internalType": "uint256",
          "name": "_goal",
          "type": "uint256"
        }
      ],
      "name": "createProject",
      "outputs": [],
      "stateMutability": "nonpayable",
      "type": "function"
    },
    {
      "inputs": [
        {
          "internalType": "address",
          "name": "_recipient",
          "type": "address"
        },
        {
          "internalType": "uint256",
          "name": "_projectId",
          "type": "uint256"
        },
        {
          "internalType": "uint256",
          "name": "_donationAmount",
          "type": "uint256"
        },
        {
          "internalType": "uint256",
          "name": "_timestamp",
          "type": "uint256"
        }
      ],
      "name": "createReceipt",
      "outputs": [],
      "stateMutability": "nonpayable",
      "type": "function"
    },
    {
      "inputs": [
        {
          "internalType": "address",
          "name": "_donor",
          "type": "address"
        }
      ],
      "name": "doesDonorExist",
      "outputs": [
        {
          "internalType": "bool",
          "name": "",
          "type": "bool"
        }
      ],
      "stateMutability": "view",
      "type": "function"
    },
    {
      "inputs": [
        {
          "internalType": "uint256",
          "name": "_projectId",
          "type": "uint256"
        }
      ],
      "name": "doesProjectExist",
      "outputs": [
        {
          "internalType": "bool",
          "name": "",
          "type": "bool"
        }
      ],
      "stateMutability": "view",
      "type": "function"
    },
    {
      "inputs": [
        {
          "internalType": "address",
          "name": "",
          "type": "address"
        }
      ],
      "name": "donors",
      "outputs": [
        {
          "internalType": "address",
          "name": "donorAddress",
          "type": "address"
        },
        {
          "internalType": "uint256",
          "name": "votingTokens",
          "type": "uint256"
        }
      ],
      "stateMutability": "view",
      "type": "function"
    },
    {
      "inputs": [
        {
          "internalType": "uint256",
          "name": "_projectId",
          "type": "uint256"
        },
        {
          "internalType": "string",
          "name": "_proofUrl",
          "type": "string"
        }
      ],
      "name": "endProject",
      "outputs": [],
      "stateMutability": "nonpayable",
      "type": "function"
    },
    {
      "inputs": [
        {
          "internalType": "uint256",
          "name": "_projectId",
          "type": "uint256"
        }
      ],
      "name": "exceededTimeLimit",
      "outputs": [
        {
          "internalType": "bool",
          "name": "",
          "type": "bool"
        }
      ],
      "stateMutability": "view",
      "type": "function"
    },
    {
      "inputs": [],
      "name": "getAllOrganizations",
      "outputs": [
        {
          "internalType": "uint256[]",
          "name": "ids",
          "type": "uint256[]"
        },
        {
          "internalType": "string[]",
          "name": "names",
          "type": "string[]"
        },
        {
          "internalType": "string[]",
          "name": "descriptions",
          "type": "string[]"
        },
        {
          "internalType": "enum OrganizationState[]",
          "name": "states",
          "type": "uint8[]"
        },
        {
          "internalType": "uint256[]",
          "name": "upvotes",
          "type": "uint256[]"
        },
        {
          "internalType": "uint256[]",
          "name": "downvotes",
          "type": "uint256[]"
        }
      ],
      "stateMutability": "view",
      "type": "function"
    },
    {
      "inputs": [],
      "name": "getAllProjects",
      "outputs": [
        {
          "components": [
            {
              "internalType": "uint256",
              "name": "projectId",
              "type": "uint256"
            },
            {
              "internalType": "uint256",
              "name": "organizationId",
              "type": "uint256"
            },
            {
              "internalType": "address payable",
              "name": "projectOwner",
              "type": "address"
            },
            {
              "internalType": "string",
              "name": "projectTitle",
              "type": "string"
            },
            {
              "internalType": "string",
              "name": "projectDescription",
              "type": "string"
            },
            {
              "internalType": "uint256",
              "name": "fundingGoal",
              "type": "uint256"
            },
            {
              "internalType": "uint256",
              "name": "currentFunding",
              "type": "uint256"
            },
            {
              "internalType": "uint256",
              "name": "totalVotes",
              "type": "uint256"
            },
            {
              "internalType": "enum ProjectState",
              "name": "state",
              "type": "uint8"
            },
            {
              "internalType": "uint256",
              "name": "creationTimestamp",
              "type": "uint256"
            }
          ],
          "internalType": "struct Project[]",
          "name": "",
          "type": "tuple[]"
        }
      ],
      "stateMutability": "view",
      "type": "function"
    },
    {
      "inputs": [],
      "name": "getAllProjectsTest",
      "outputs": [
        {
          "internalType": "string[]",
          "name": "names",
          "type": "string[]"
        },
        {
          "internalType": "string[]",
          "name": "descriptions",
          "type": "string[]"
        },
        {
          "internalType": "uint256[]",
          "name": "goals",
          "type": "uint256[]"
        },
        {
          "internalType": "uint256[]",
          "name": "currentFundings",
          "type": "uint256[]"
        },
        {
          "internalType": "uint256[]",
          "name": "projectIds",
          "type": "uint256[]"
        },
        {
          "internalType": "enum ProjectState[]",
          "name": "states",
          "type": "uint8[]"
        }
      ],
      "stateMutability": "view",
      "type": "function"
    },
    {
      "inputs": [
        {
          "internalType": "uint256",
          "name": "tokenId",
          "type": "uint256"
        }
      ],
      "name": "getApproved",
      "outputs": [
        {
          "internalType": "address",
          "name": "",
          "type": "address"
        }
      ],
      "stateMutability": "view",
      "type": "function"
    },
    {
      "inputs": [
        {
          "internalType": "address",
          "name": "_donor",
          "type": "address"
        }
      ],
      "name": "getDonorTokenBalance",
      "outputs": [
        {
          "internalType": "uint256",
          "name": "",
          "type": "uint256"
        }
      ],
      "stateMutability": "view",
      "type": "function"
    },
    {
      "inputs": [],
      "name": "getLastTenProjects",
      "outputs": [
        {
          "components": [
            {
              "internalType": "uint256",
              "name": "projectId",
              "type": "uint256"
            },
            {
              "internalType": "uint256",
              "name": "organizationId",
              "type": "uint256"
            },
            {
              "internalType": "address payable",
              "name": "projectOwner",
              "type": "address"
            },
            {
              "internalType": "string",
              "name": "projectTitle",
              "type": "string"
            },
            {
              "internalType": "string",
              "name": "projectDescription",
              "type": "string"
            },
            {
              "internalType": "uint256",
              "name": "fundingGoal",
              "type": "uint256"
            },
            {
              "internalType": "uint256",
              "name": "currentFunding",
              "type": "uint256"
            },
            {
              "internalType": "uint256",
              "name": "totalVotes",
              "type": "uint256"
            },
            {
              "internalType": "enum ProjectState",
              "name": "state",
              "type": "uint8"
            },
            {
              "internalType": "uint256",
              "name": "creationTimestamp",
              "type": "uint256"
            }
          ],
          "internalType": "struct Project[]",
          "name": "",
          "type": "tuple[]"
        }
      ],
      "stateMutability": "view",
      "type": "function"
    },
    {
      "inputs": [
        {
          "internalType": "address",
          "name": "_walletAddress",
          "type": "address"
        }
      ],
      "name": "getOrganization",
      "outputs": [
        {
          "components": [
            {
              "internalType": "uint256",
              "name": "organizationId",
              "type": "uint256"
            },
            {
              "internalType": "address payable",
              "name": "walletAddress",
              "type": "address"
            },
            {
              "internalType": "string",
              "name": "organizationName",
              "type": "string"
            },
            {
              "internalType": "string",
              "name": "organizationDescription",
              "type": "string"
            },
            {
              "internalType": "enum OrganizationState",
              "name": "state",
              "type": "uint8"
            },
            {
              "internalType": "uint256",
              "name": "votes",
              "type": "uint256"
            },
            {
              "internalType": "uint256",
              "name": "downVotes",
              "type": "uint256"
            }
          ],
          "internalType": "struct Organization",
          "name": "",
          "type": "tuple"
        }
      ],
      "stateMutability": "view",
      "type": "function"
    },
    {
      "inputs": [
        {
          "internalType": "uint256",
          "name": "_orgId",
          "type": "uint256"
        }
      ],
      "name": "getOrganizationById",
      "outputs": [
        {
          "components": [
            {
              "internalType": "uint256",
              "name": "organizationId",
              "type": "uint256"
            },
            {
              "internalType": "address payable",
              "name": "walletAddress",
              "type": "address"
            },
            {
              "internalType": "string",
              "name": "organizationName",
              "type": "string"
            },
            {
              "internalType": "string",
              "name": "organizationDescription",
              "type": "string"
            },
            {
              "internalType": "enum OrganizationState",
              "name": "state",
              "type": "uint8"
            },
            {
              "internalType": "uint256",
              "name": "votes",
              "type": "uint256"
            },
            {
              "internalType": "uint256",
              "name": "downVotes",
              "type": "uint256"
            }
          ],
          "internalType": "struct Organization",
          "name": "",
          "type": "tuple"
        }
      ],
      "stateMutability": "view",
      "type": "function"
    },
    {
      "inputs": [
        {
          "internalType": "address",
          "name": "_walletAddress",
          "type": "address"
        }
      ],
      "name": "getOrganizationState",
      "outputs": [
        {
          "internalType": "enum OrganizationState",
          "name": "",
          "type": "uint8"
        }
      ],
      "stateMutability": "view",
      "type": "function"
    },
    {
      "inputs": [
        {
          "internalType": "uint256",
          "name": "_from",
          "type": "uint256"
        },
        {
          "internalType": "uint256",
          "name": "_to",
          "type": "uint256"
        }
      ],
      "name": "getProjectsInRange",
      "outputs": [
        {
          "components": [
            {
              "internalType": "uint256",
              "name": "projectId",
              "type": "uint256"
            },
            {
              "internalType": "uint256",
              "name": "organizationId",
              "type": "uint256"
            },
            {
              "internalType": "address payable",
              "name": "projectOwner",
              "type": "address"
            },
            {
              "internalType": "string",
              "name": "projectTitle",
              "type": "string"
            },
            {
              "internalType": "string",
              "name": "projectDescription",
              "type": "string"
            },
            {
              "internalType": "uint256",
              "name": "fundingGoal",
              "type": "uint256"
            },
            {
              "internalType": "uint256",
              "name": "currentFunding",
              "type": "uint256"
            },
            {
              "internalType": "uint256",
              "name": "totalVotes",
              "type": "uint256"
            },
            {
              "internalType": "enum ProjectState",
              "name": "state",
              "type": "uint8"
            },
            {
              "internalType": "uint256",
              "name": "creationTimestamp",
              "type": "uint256"
            }
          ],
          "internalType": "struct Project[]",
          "name": "",
          "type": "tuple[]"
        }
      ],
      "stateMutability": "view",
      "type": "function"
    },
    {
      "inputs": [
        {
          "internalType": "uint256",
          "name": "_orgaId",
          "type": "uint256"
        }
      ],
      "name": "hasEnoughVotesForOnboarding",
      "outputs": [
        {
          "internalType": "bool",
          "name": "",
          "type": "bool"
        }
      ],
      "stateMutability": "view",
      "type": "function"
    },
    {
      "inputs": [
        {
          "internalType": "uint256",
          "name": "_projectId",
          "type": "uint256"
        }
      ],
      "name": "hasReachedFundingGoal",
      "outputs": [
        {
          "internalType": "bool",
          "name": "",
          "type": "bool"
        }
      ],
      "stateMutability": "view",
      "type": "function"
    },
    {
      "inputs": [
        {
          "internalType": "address",
          "name": "owner",
          "type": "address"
        },
        {
          "internalType": "address",
          "name": "operator",
          "type": "address"
        }
      ],
      "name": "isApprovedForAll",
      "outputs": [
        {
          "internalType": "bool",
          "name": "",
          "type": "bool"
        }
      ],
      "stateMutability": "view",
      "type": "function"
    },
    {
      "inputs": [
        {
          "internalType": "uint256",
          "name": "_orgaId",
          "type": "uint256"
        }
      ],
      "name": "isControversial",
      "outputs": [
        {
          "internalType": "bool",
          "name": "",
          "type": "bool"
        }
      ],
      "stateMutability": "view",
      "type": "function"
    },
    {
      "inputs": [],
      "name": "name",
      "outputs": [
        {
          "internalType": "string",
          "name": "",
          "type": "string"
        }
      ],
      "stateMutability": "view",
      "type": "function"
    },
    {
      "inputs": [
        {
          "internalType": "bytes32",
          "name": "",
          "type": "bytes32"
        }
      ],
      "name": "nftsCreated",
      "outputs": [
        {
          "internalType": "bool",
          "name": "",
          "type": "bool"
        }
      ],
      "stateMutability": "view",
      "type": "function"
    },
    {
      "inputs": [
        {
          "internalType": "uint256",
          "name": "",
          "type": "uint256"
        }
      ],
      "name": "organizationIdToAddress",
      "outputs": [
        {
          "internalType": "address",
          "name": "",
          "type": "address"
        }
      ],
      "stateMutability": "view",
      "type": "function"
    },
    {
      "inputs": [
        {
          "internalType": "address",
          "name": "",
          "type": "address"
        }
      ],
      "name": "organizations",
      "outputs": [
        {
          "internalType": "uint256",
          "name": "organizationId",
          "type": "uint256"
        },
        {
          "internalType": "address payable",
          "name": "walletAddress",
          "type": "address"
        },
        {
          "internalType": "string",
          "name": "organizationName",
          "type": "string"
        },
        {
          "internalType": "string",
          "name": "organizationDescription",
          "type": "string"
        },
        {
          "internalType": "enum OrganizationState",
          "name": "state",
          "type": "uint8"
        },
        {
          "internalType": "uint256",
          "name": "votes",
          "type": "uint256"
        },
        {
          "internalType": "uint256",
          "name": "downVotes",
          "type": "uint256"
        }
      ],
      "stateMutability": "view",
      "type": "function"
    },
    {
      "inputs": [],
      "name": "organizationsCount",
      "outputs": [
        {
          "internalType": "uint256",
          "name": "",
          "type": "uint256"
        }
      ],
      "stateMutability": "view",
      "type": "function"
    },
    {
      "inputs": [
        {
          "internalType": "uint256",
          "name": "tokenId",
          "type": "uint256"
        }
      ],
      "name": "ownerOf",
      "outputs": [
        {
          "internalType": "address",
          "name": "",
          "type": "address"
        }
      ],
      "stateMutability": "view",
      "type": "function"
    },
    {
      "inputs": [
        {
          "internalType": "uint256",
          "name": "",
          "type": "uint256"
        }
      ],
      "name": "projectToOrganization",
      "outputs": [
        {
          "internalType": "uint256",
          "name": "",
          "type": "uint256"
        }
      ],
      "stateMutability": "view",
      "type": "function"
    },
    {
      "inputs": [
        {
          "internalType": "uint256",
          "name": "",
          "type": "uint256"
        }
      ],
      "name": "projects",
      "outputs": [
        {
          "internalType": "uint256",
          "name": "projectId",
          "type": "uint256"
        },
        {
          "internalType": "uint256",
          "name": "organizationId",
          "type": "uint256"
        },
        {
          "internalType": "address payable",
          "name": "projectOwner",
          "type": "address"
        },
        {
          "internalType": "string",
          "name": "projectTitle",
          "type": "string"
        },
        {
          "internalType": "string",
          "name": "projectDescription",
          "type": "string"
        },
        {
          "internalType": "uint256",
          "name": "fundingGoal",
          "type": "uint256"
        },
        {
          "internalType": "uint256",
          "name": "currentFunding",
          "type": "uint256"
        },
        {
          "internalType": "uint256",
          "name": "totalVotes",
          "type": "uint256"
        },
        {
          "internalType": "enum ProjectState",
          "name": "state",
          "type": "uint8"
        },
        {
          "internalType": "uint256",
          "name": "creationTimestamp",
          "type": "uint256"
        }
      ],
      "stateMutability": "view",
      "type": "function"
    },
    {
      "inputs": [
        {
          "internalType": "address",
          "name": "from",
          "type": "address"
        },
        {
          "internalType": "address",
          "name": "to",
          "type": "address"
        },
        {
          "internalType": "uint256",
          "name": "tokenId",
          "type": "uint256"
        }
      ],
      "name": "safeTransferFrom",
      "outputs": [],
      "stateMutability": "nonpayable",
      "type": "function"
    },
    {
      "inputs": [
        {
          "internalType": "address",
          "name": "from",
          "type": "address"
        },
        {
          "internalType": "address",
          "name": "to",
          "type": "address"
        },
        {
          "internalType": "uint256",
          "name": "tokenId",
          "type": "uint256"
        },
        {
          "internalType": "bytes",
          "name": "data",
          "type": "bytes"
        }
      ],
      "name": "safeTransferFrom",
      "outputs": [],
      "stateMutability": "nonpayable",
      "type": "function"
    },
    {
      "inputs": [
        {
          "internalType": "address",
          "name": "operator",
          "type": "address"
        },
        {
          "internalType": "bool",
          "name": "approved",
          "type": "bool"
        }
      ],
      "name": "setApprovalForAll",
      "outputs": [],
      "stateMutability": "nonpayable",
      "type": "function"
    },
    {
      "inputs": [
        {
          "internalType": "bytes4",
          "name": "interfaceId",
          "type": "bytes4"
        }
      ],
      "name": "supportsInterface",
      "outputs": [
        {
          "internalType": "bool",
          "name": "",
          "type": "bool"
        }
      ],
      "stateMutability": "view",
      "type": "function"
    },
    {
      "inputs": [],
      "name": "symbol",
      "outputs": [
        {
          "internalType": "string",
          "name": "",
          "type": "string"
        }
      ],
      "stateMutability": "view",
      "type": "function"
    },
    {
      "inputs": [],
      "name": "tokenMultiplier",
      "outputs": [
        {
          "internalType": "uint256",
          "name": "",
          "type": "uint256"
        }
      ],
      "stateMutability": "view",
      "type": "function"
    },
    {
      "inputs": [
        {
          "internalType": "uint256",
          "name": "tokenId",
          "type": "uint256"
        }
      ],
      "name": "tokenURI",
      "outputs": [
        {
          "internalType": "string",
          "name": "",
          "type": "string"
        }
      ],
      "stateMutability": "view",
      "type": "function"
    },
    {
      "inputs": [
        {
          "internalType": "address",
          "name": "from",
          "type": "address"
        },
        {
          "internalType": "address",
          "name": "to",
          "type": "address"
        },
        {
          "internalType": "uint256",
          "name": "tokenId",
          "type": "uint256"
        }
      ],
      "name": "transferFrom",
      "outputs": [],
      "stateMutability": "nonpayable",
      "type": "function"
    },
    {
      "inputs": [
        {
          "internalType": "uint256",
          "name": "_projectId",
          "type": "uint256"
        }
      ],
      "name": "transitionFromEnded",
      "outputs": [],
      "stateMutability": "nonpayable",
      "type": "function"
    },
    {
      "inputs": [
        {
          "internalType": "uint256",
          "name": "_projectId",
          "type": "uint256"
        }
      ],
      "name": "transitionFromStarted",
      "outputs": [],
      "stateMutability": "nonpayable",
      "type": "function"
    },
    {
      "inputs": [
        {
          "internalType": "uint256",
          "name": "_projectId",
          "type": "uint256"
        }
      ],
      "name": "transitionFromVoting",
      "outputs": [],
      "stateMutability": "nonpayable",
      "type": "function"
    },
    {
      "inputs": [
        {
          "internalType": "uint256",
          "name": "_projectId",
          "type": "uint256"
        },
        {
          "internalType": "uint256",
          "name": "_amount",
          "type": "uint256"
        }
      ],
      "name": "vote",
      "outputs": [],
      "stateMutability": "nonpayable",
      "type": "function"
    },
    {
      "inputs": [
        {
          "internalType": "uint256",
          "name": "_orgaId",
          "type": "uint256"
        }
      ],
      "name": "voteAgainstOrganization",
      "outputs": [],
      "stateMutability": "nonpayable",
      "type": "function"
    },
    {
      "inputs": [
        {
          "internalType": "uint256",
          "name": "_orgaId",
          "type": "uint256"
        }
      ],
      "name": "voteForOrganization",
      "outputs": [],
      "stateMutability": "nonpayable",
      "type": "function"
    },
    {
      "inputs": [
        {
          "internalType": "uint256",
          "name": "_projectId",
          "type": "uint256"
        },
        {
          "internalType": "uint256",
          "name": "_tokens",
          "type": "uint256"
        }
      ],
      "name": "voteForProject",
      "outputs": [],
      "stateMutability": "nonpayable",
      "type": "function"
    },
    {
      "inputs": [
        {
          "internalType": "address",
          "name": "",
          "type": "address"
        }
      ],
      "name": "votes",
      "outputs": [
        {
          "internalType": "uint256",
          "name": "",
          "type": "uint256"
        }
      ],
      "stateMutability": "view",
      "type": "function"
    },
    {
      "inputs": [
        {
          "internalType": "bytes32",
          "name": "",
          "type": "bytes32"
        }
      ],
      "name": "votesAgainstOrga",
      "outputs": [
        {
          "internalType": "bool",
          "name": "",
          "type": "bool"
        }
      ],
      "stateMutability": "view",
      "type": "function"
    },
    {
      "inputs": [
        {
          "internalType": "bytes32",
          "name": "",
          "type": "bytes32"
        }
      ],
      "name": "votesForOrga",
      "outputs": [
        {
          "internalType": "bool",
          "name": "",
          "type": "bool"
        }
      ],
      "stateMutability": "view",
      "type": "function"
    },
    {
      "inputs": [
        {
          "internalType": "uint256",
          "name": "_amount",
          "type": "uint256"
        }
      ],
      "name": "withdrawFunds",
      "outputs": [],
      "stateMutability": "nonpayable",
      "type": "function"
    },
    {
      "stateMutability": "payable",
      "type": "receive"
    }
  ],
  "bytecode": "0x608060405260016013553480156200001657600080fd5b506040518060400160405280601381526020017f534c522d446f6e6174696f6e52656365697074000000000000000000000000008152506040518060400160405280600681526020016529a62916a22960d11b81525081600990816200007d919062000141565b50600a6200008c828262000141565b50506000601055506200020d565b634e487b7160e01b600052604160045260246000fd5b600181811c90821680620000c557607f821691505b602082108103620000e657634e487b7160e01b600052602260045260246000fd5b50919050565b601f8211156200013c576000816000526020600020601f850160051c81016020861015620001175750805b601f850160051c820191505b81811015620001385782815560010162000123565b5050505b505050565b81516001600160401b038111156200015d576200015d6200009a565b62000175816200016e8454620000b0565b84620000ec565b602080601f831160018114620001ad5760008415620001945750858301515b600019600386901b1c1916600185901b17855562000138565b600085815260208120601f198616915b82811015620001de57888601518255948401946001909101908401620001bd565b5085821015620001fd5787850151600019600388901b60f8161c191681555b5050505050600190811b01905550565b614e84806200021d6000396000f3fe6080604052600436106103385760003560e01c8063953de570116101b0578063ca0cdea8116100ec578063d9062de111610095578063e985e9c51161006f578063e985e9c514610ab0578063ed7ae14614610af9578063f157e40e14610b42578063f97203af14610b7b57600080fd5b8063d9062de114610a2a578063e218ec7b14610a4a578063e6607bb814610a7a57600080fd5b8063d6d2771d116100c6578063d6d2771d14610996578063d848c634146109b6578063d8bff5a5146109fd57600080fd5b8063ca0cdea8146108f7578063d2c30a6d14610956578063d60dbe601461097657600080fd5b8063b384abef11610159578063ba3f5a1211610133578063ba3f5a1214610874578063c3e917291461088a578063c4f3c4fc146108b7578063c87b56dd146108d757600080fd5b8063b384abef1461080d578063b761d2991461082d578063b88d4fde1461085457600080fd5b8063a22cb4651161018a578063a22cb465146107ad578063a411ef20146107cd578063a6ad01cf146107ed57600080fd5b8063953de5701461073a57806395d89b4114610776578063974918281461078b57600080fd5b806330ce6b0b1161027f5780635a1f74061161022857806367b44d8a1161020257806367b44d8a146106c557806370a08231146106e55780637452ea221461070557806380d038291461072557600080fd5b80635a1f7406146106455780636352211e14610678578063635c54551461069857600080fd5b806342842e0e1161025957806342842e0e146105e157806342ea884c1461060157806359987f911461062157600080fd5b806330ce6b0b1461057f57806341fcd6cc1461059f5780634243c541146105bf57600080fd5b8063107046bd116102e157806323b872dd116102bb57806323b872dd1461050457806323c55448146105245780633027ffd41461054457600080fd5b8063107046bd14610461578063155dd5ee146104975780631fd0862f146104b757600080fd5b8063086ed93811610312578063086ed938146103ea578063095ea7b3146104115780630fdf190b1461043157600080fd5b806301ffc9a71461035b57806306fdde0314610390578063081812fc146103b257600080fd5b3661035657610354336013543461034f9190614296565b610bab565b005b600080fd5b34801561036757600080fd5b5061037b6103763660046142c3565b610c2f565b60405190151581526020015b60405180910390f35b34801561039c57600080fd5b506103a5610c73565b6040516103879190614330565b3480156103be57600080fd5b506103d26103cd366004614343565b610d05565b6040516001600160a01b039091168152602001610387565b3480156103f657600080fd5b506103ff610d2e565b6040516103879695949392919061441c565b34801561041d57600080fd5b5061035461042c3660046144e8565b611054565b34801561043d57600080fd5b5061037b61044c366004614343565b60026020526000908152604090205460ff1681565b34801561046d57600080fd5b5061048161047c366004614343565b611063565b6040516103879a99989796959493929190614522565b3480156104a357600080fd5b506103546104b2366004614343565b6111d1565b3480156104c357600080fd5b5061037b6104d2366004614343565b6000908152600160209081526040808320546001600160a01b0316835290829052902060068101546005909101541090565b34801561051057600080fd5b5061035461051f36600461459e565b61128c565b34801561053057600080fd5b5061035461053f366004614686565b611330565b34801561055057600080fd5b5061037b61055f366004614343565b600090815260056020819052604090912090810154600690910154101590565b34801561058b57600080fd5b5061035461059a3660046146f3565b61173b565b3480156105ab57600080fd5b506103546105ba366004614343565b611877565b3480156105cb57600080fd5b506105d4611885565b6040516103879190614715565b3480156105ed57600080fd5b506103546105fc36600461459e565b6118ad565b34801561060d57600080fd5b5061035461061c366004614343565b6118cd565b34801561062d57600080fd5b5061063760045481565b604051908152602001610387565b34801561065157600080fd5b5061066561066036600461480d565b6118d8565b6040516103879796959493929190614828565b34801561068457600080fd5b506103d2610693366004614343565b611a33565b3480156106a457600080fd5b506106b86106b3366004614343565b611a3e565b6040516103879190614887565b3480156106d157600080fd5b506105d46106e03660046146f3565b611bfd565b3480156106f157600080fd5b5061063761070036600461480d565b611f78565b34801561071157600080fd5b50610354610720366004614343565b611fd9565b34801561073157600080fd5b506105d4612060565b34801561074657600080fd5b5061037b61075536600461480d565b6001600160a01b039081166000818152601260205260409020549091161490565b34801561078257600080fd5b506103a5612076565b34801561079757600080fd5b5061037b6107a6366004614343565b6007541190565b3480156107b957600080fd5b506103546107c8366004614912565b612085565b3480156107d957600080fd5b506103546107e836600461494e565b612090565b3480156107f957600080fd5b506103546108083660046149b2565b61219e565b34801561081957600080fd5b506103546108283660046146f3565b612264565b34801561083957600080fd5b50610842612536565b604051610387969594939291906149eb565b34801561086057600080fd5b5061035461086f366004614a9d565b61298e565b34801561088057600080fd5b5061063760135481565b34801561089657600080fd5b506106376108a5366004614343565b60066020526000908152604090205481565b3480156108c357600080fd5b5061037b6108d2366004614343565b6129a5565b3480156108e357600080fd5b506103a56108f2366004614343565b6129cc565b34801561090357600080fd5b5061093761091236600461480d565b601260205260009081526040902080546001909101546001600160a01b039091169082565b604080516001600160a01b039093168352602083019190915201610387565b34801561096257600080fd5b506106b861097136600461480d565b612add565b34801561098257600080fd5b50610354610991366004614343565b612b2f565b3480156109a257600080fd5b506103546109b1366004614b19565b612c1c565b3480156109c257600080fd5b5061037b6109d1366004614343565b6000908152600160209081526040808320546001600160a01b0316835290829052902060050154151590565b348015610a0957600080fd5b50610637610a1836600461480d565b60086020526000908152604090205481565b348015610a3657600080fd5b50610354610a45366004614343565b612d29565b348015610a5657600080fd5b5061037b610a65366004614343565b60036020526000908152604090205460ff1681565b348015610a8657600080fd5b506103d2610a95366004614343565b6001602052600090815260409020546001600160a01b031681565b348015610abc57600080fd5b5061037b610acb366004614b56565b6001600160a01b039182166000908152600e6020908152604080832093909416825291909152205460ff1690565b348015610b0557600080fd5b50610b35610b1436600461480d565b6001600160a01b031660009081526020819052604090206004015460ff1690565b6040516103879190614b89565b348015610b4e57600080fd5b50610637610b5d36600461480d565b6001600160a01b031660009081526012602052604090206001015490565b348015610b8757600080fd5b5061037b610b96366004614343565b60116020526000908152604090205460ff1681565b6001600160a01b0380831660008181526012602052604090205490911614610bfb57610bfb826001600160a01b0316600081815260126020526040902080546001600160a01b0319169091179055565b6001600160a01b03821660009081526012602052604081206001018054839290610c26908490614b97565b90915550505050565b60006001600160e01b031982167f49064906000000000000000000000000000000000000000000000000000000001480610c6d5750610c6d82612db0565b92915050565b606060098054610c8290614baa565b80601f0160208091040260200160405190810160405280929190818152602001828054610cae90614baa565b8015610cfb5780601f10610cd057610100808354040283529160200191610cfb565b820191906000526020600020905b815481529060010190602001808311610cde57829003601f168201915b5050505050905090565b6000610d1082612e4b565b506000828152600d60205260409020546001600160a01b0316610c6d565b606080606080606080600060045467ffffffffffffffff811115610d5457610d546145da565b604051908082528060200260200182016040528015610d7d578160200160208202803683370190505b509050600060045467ffffffffffffffff811115610d9d57610d9d6145da565b604051908082528060200260200182016040528015610dd057816020015b6060815260200190600190039081610dbb5790505b509050600060045467ffffffffffffffff811115610df057610df06145da565b604051908082528060200260200182016040528015610e2357816020015b6060815260200190600190039081610e0e5790505b509050600060045467ffffffffffffffff811115610e4357610e436145da565b604051908082528060200260200182016040528015610e6c578160200160208202803683370190505b509050600060045467ffffffffffffffff811115610e8c57610e8c6145da565b604051908082528060200260200182016040528015610eb5578160200160208202803683370190505b509050600060045467ffffffffffffffff811115610ed557610ed56145da565b604051908082528060200260200182016040528015610efe578160200160208202803683370190505b509050610f0c600454612e84565b85600081518110610f1f57610f1f614be4565b602002602001018190525060005b600454811015611040576000610f4282611a3e565b90508060000151888381518110610f5b57610f5b614be4565b6020026020010181815250508060400151878381518110610f7e57610f7e614be4565b60200260200101819052508060600151868381518110610fa057610fa0614be4565b60200260200101819052508060800151858381518110610fc257610fc2614be4565b60200260200101906003811115610fdb57610fdb6143f2565b90816003811115610fee57610fee6143f2565b815250508060a0015184838151811061100957611009614be4565b6020026020010181815250508060c0015183838151811061102c5761102c614be4565b602090810291909101015250600101610f2d565b50949b939a50919850965094509092509050565b61105f828233612f24565b5050565b6005602052600090815260409020805460018201546002830154600384018054939492936001600160a01b03909216929161109d90614baa565b80601f01602080910402602001604051908101604052809291908181526020018280546110c990614baa565b80156111165780601f106110eb57610100808354040283529160200191611116565b820191906000526020600020905b8154815290600101906020018083116110f957829003601f168201915b50505050509080600401805461112b90614baa565b80601f016020809104026020016040519081016040528092919081815260200182805461115790614baa565b80156111a45780601f10611179576101008083540402835291602001916111a4565b820191906000526020600020905b81548152906001019060200180831161118757829003601f168201915b505050506005830154600684015460078501546008860154600990960154949592949193509160ff16908a565b336000908152601260205260409020600101548111156112385760405162461bcd60e51b815260206004820152601260248201527f496e73756666696369656e742066756e6473000000000000000000000000000060448201526064015b60405180910390fd5b336000908152601260205260408120600101805483929061125a908490614bfa565b9091555050604051339082156108fc029083906000818181858888f1935050505015801561105f573d6000803e3d6000fd5b6001600160a01b0382166112b657604051633250574960e11b81526000600482015260240161122f565b60006112c3838333612f31565b9050836001600160a01b0316816001600160a01b03161461132a576040517f64283d7b0000000000000000000000000000000000000000000000000000000081526001600160a01b038086166004830152602482018490528216604482015260640161122f565b50505050565b336000818152602081905260409020600101546001600160a01b0316146113ae5760405162461bcd60e51b815260206004820152602c60248201527f4f6e6c7920616e206f7267616e697a6174696f6e2063616e2063616c6c20746860448201526b34b990333ab731ba34b7b71760a11b606482015260840161122f565b60013360009081526020819052604090206004015460ff1660038111156113d7576113d76143f2565b0361144a5760405162461bcd60e51b815260206004820152602260248201527f54686973206f7267616e69736174696f6e20686173206265656e2062616e6e6560448201527f642e000000000000000000000000000000000000000000000000000000000000606482015260840161122f565b6000811161149a5760405162461bcd60e51b815260206004820152601b60248201527f476f616c206d7573742062652067726561746572207468616e20300000000000604482015260640161122f565b33600090815260208181526040808320815160e0810183528154815260018201546001600160a01b03169381019390935260028101805491928401916114df90614baa565b80601f016020809104026020016040519081016040528092919081815260200182805461150b90614baa565b80156115585780601f1061152d57610100808354040283529160200191611558565b820191906000526020600020905b81548152906001019060200180831161153b57829003601f168201915b5050505050815260200160038201805461157190614baa565b80601f016020809104026020016040519081016040528092919081815260200182805461159d90614baa565b80156115ea5780601f106115bf576101008083540402835291602001916115ea565b820191906000526020600020905b8154815290600101906020018083116115cd57829003601f168201915b5050509183525050600482015460209091019060ff166003811115611611576116116143f2565b6003811115611622576116226143f2565b8152602001600582015481526020016006820154815250509050336001600160a01b031681602001516001600160a01b0316146116b65760405162461bcd60e51b815260206004820152602c60248201527f4f6e6c7920616e206f7267616e697a6174696f6e2063616e2063616c6c20746860448201526b34b990333ab731ba34b7b71760a11b606482015260840161122f565b6007546000818152600560205260409020908155815160018201556002810180546001600160a01b03191633179055600381016116f38682614c5d565b50600481016117028582614c5d565b506005810183905560088101805460ff191660021790554260098201556007805490600061172f83614d1d565b91905055505050505050565b600260008381526005602052604090206008015460ff166007811115611763576117636143f2565b146117b05760405162461bcd60e51b815260206004820152601e60248201527f50726f6a656374206973206e6f7420696e20766f74696e672073746174650000604482015260640161122f565b60075482106118015760405162461bcd60e51b815260206004820152601260248201527f496e76616c69642070726f6a6563742049440000000000000000000000000000604482015260640161122f565b336000908152601260205260409020600101548111156118635760405162461bcd60e51b815260206004820152601a60248201527f496e73756666696369656e7420766f74696e6720746f6b656e73000000000000604482015260640161122f565b61186d338261302c565b61105f8282612264565b6118828160066130c2565b50565b60606118a8600a6007546118999190614bfa565b60016007546106e09190614bfa565b905090565b6118c88383836040518060200160405280600081525061298e565b505050565b6118828160056130c2565b60006020819052908152604090208054600182015460028301805492936001600160a01b039092169261190a90614baa565b80601f016020809104026020016040519081016040528092919081815260200182805461193690614baa565b80156119835780601f1061195857610100808354040283529160200191611983565b820191906000526020600020905b81548152906001019060200180831161196657829003601f168201915b50505050509080600301805461199890614baa565b80601f01602080910402602001604051908101604052809291908181526020018280546119c490614baa565b8015611a115780601f106119e657610100808354040283529160200191611a11565b820191906000526020600020905b8154815290600101906020018083116119f457829003601f168201915b5050505060048301546005840154600690940154929360ff9091169290915087565b6000610c6d82612e4b565b611a466141bc565b6000828152600160208181526040808420546001600160a01b03908116855284835293819020815160e08101835281548152938101549094169183019190915260028301805492939291840191611a9c90614baa565b80601f0160208091040260200160405190810160405280929190818152602001828054611ac890614baa565b8015611b155780601f10611aea57610100808354040283529160200191611b15565b820191906000526020600020905b815481529060010190602001808311611af857829003601f168201915b50505050508152602001600382018054611b2e90614baa565b80601f0160208091040260200160405190810160405280929190818152602001828054611b5a90614baa565b8015611ba75780601f10611b7c57610100808354040283529160200191611ba7565b820191906000526020600020905b815481529060010190602001808311611b8a57829003601f168201915b5050509183525050600482015460209091019060ff166003811115611bce57611bce6143f2565b6003811115611bdf57611bdf6143f2565b81526005820154602082015260069091015460409091015292915050565b606081831115611c4f5760405162461bcd60e51b815260206004820152600d60248201527f496e76616c69642072616e676500000000000000000000000000000000000000604482015260640161122f565b6007548210611caa5760405162461bcd60e51b815260206004820152602160248201527f52616e676520657863656564732070726f6a656374206c697374206c656e67746044820152600d60fb1b606482015260840161122f565b6007548310611d055760405162461bcd60e51b815260206004820152602160248201527f52616e676520657863656564732070726f6a656374206c697374206c656e67746044820152600d60fb1b606482015260840161122f565b6000611d118484614bfa565b611d1c906001614b97565b67ffffffffffffffff811115611d3457611d346145da565b604051908082528060200260200182016040528015611d6d57816020015b611d5a614213565b815260200190600190039081611d525790505b509050835b838111611f70576000818152600560209081526040918290208251610140810184528154815260018201549281019290925260028101546001600160a01b031692820192909252600382018054919291606084019190611dd190614baa565b80601f0160208091040260200160405190810160405280929190818152602001828054611dfd90614baa565b8015611e4a5780601f10611e1f57610100808354040283529160200191611e4a565b820191906000526020600020905b815481529060010190602001808311611e2d57829003601f168201915b50505050508152602001600482018054611e6390614baa565b80601f0160208091040260200160405190810160405280929190818152602001828054611e8f90614baa565b8015611edc5780601f10611eb157610100808354040283529160200191611edc565b820191906000526020600020905b815481529060010190602001808311611ebf57829003601f168201915b505050918352505060058201546020820152600682015460408201526007808301546060830152600883015460809092019160ff1690811115611f2157611f216143f2565b6007811115611f3257611f326143f2565b8152602001600982015481525050828281518110611f5257611f52614be4565b60200260200101819052508080611f6890614d1d565b915050611d72565b509392505050565b60006001600160a01b038216611fbd576040517f89c62b640000000000000000000000000000000000000000000000000000000081526000600482015260240161122f565b506001600160a01b03166000908152600c602052604090205490565b336000818152601260205260409020546001600160a01b03161461204b5760405162461bcd60e51b815260206004820152602360248201527f4f6e6c7920646f6e6f72732063616e2063616c6c20746869732066756e63746960448201526237b71760e91b606482015260840161122f565b61205733826001613132565b611882816131cb565b60606118a8600060016007546106e09190614bfa565b6060600a8054610c8290614baa565b61105f33838361323b565b6040805160e08101825260045481523360208201529081018390526060810182905260808101600281526000602080830182905260409283018290523382528181529082902083518155908301516001820180546001600160a01b0319166001600160a01b039092169190911790559082015160028201906121129082614c5d565b50606082015160038201906121279082614c5d565b50608082015160048201805460ff1916600183600381111561214b5761214b6143f2565b021790555060a0820151600582015560c09091015160069091015560048054600090815260016020526040812080546001600160a01b031916331790558154919061219583614d1d565b91905055505050565b60075483106121ef5760405162461bcd60e51b815260206004820152601260248201527f496e76616c69642070726f6a6563742049440000000000000000000000000000604482015260640161122f565b60008381526005602081905260409091209081015460069091015410156122585760405162461bcd60e51b815260206004820152601660248201527f50726f6a656374206e6f742066756e6465642079657400000000000000000000604482015260640161122f565b61132a848484846132f3565b60008281526005602052604081206007018054839290612285908490614b97565b9091555050600082815260056020526040812060060180548392906122ab908490614b97565b909155506122ba9050826134b9565b6000828152600560208190526040909120908101546006909101541061105f57600082815260056020908152604091829020600601548251858152918201527f5bc6714ccad33557efe1cb9d18fa771135ab68961f6add3d4bb6f115adec81a4910160405180910390a160008281526005602090815260408083208151610140810183528154815260018201549381019390935260028101546001600160a01b03169183019190915260038101805460608401919061237890614baa565b80601f01602080910402602001604051908101604052809291908181526020018280546123a490614baa565b80156123f15780601f106123c6576101008083540402835291602001916123f1565b820191906000526020600020905b8154815290600101906020018083116123d457829003601f168201915b5050505050815260200160048201805461240a90614baa565b80601f016020809104026020016040519081016040528092919081815260200182805461243690614baa565b80156124835780601f1061245857610100808354040283529160200191612483565b820191906000526020600020905b81548152906001019060200180831161246657829003601f168201915b505050918352505060058201546020820152600682015460408201526007808301546060830152600883015460809092019160ff16908111156124c8576124c86143f2565b60078111156124d9576124d96143f2565b815260200160098201548152505090506124f68160400151612add565b602001516001600160a01b03166108fc8260c001519081150290604051600060405180830381858888f1935050505015801561132a573d6000803e3d6000fd5b606080606080606080600060075467ffffffffffffffff81111561255c5761255c6145da565b60405190808252806020026020018201604052801561258f57816020015b606081526020019060019003908161257a5790505b509050600060075467ffffffffffffffff8111156125af576125af6145da565b6040519080825280602002602001820160405280156125e257816020015b60608152602001906001900390816125cd5790505b509050600060075467ffffffffffffffff811115612602576126026145da565b60405190808252806020026020018201604052801561262b578160200160208202803683370190505b509050600060075467ffffffffffffffff81111561264b5761264b6145da565b604051908082528060200260200182016040528015612674578160200160208202803683370190505b509050600060075467ffffffffffffffff811115612694576126946145da565b6040519080825280602002602001820160405280156126bd578160200160208202803683370190505b509050600060075467ffffffffffffffff8111156126dd576126dd6145da565b604051908082528060200260200182016040528015612706578160200160208202803683370190505b50905060005b600754811015611040576000818152600560205260409020600301805461273290614baa565b80601f016020809104026020016040519081016040528092919081815260200182805461275e90614baa565b80156127ab5780601f10612780576101008083540402835291602001916127ab565b820191906000526020600020905b81548152906001019060200180831161278e57829003601f168201915b50505050508782815181106127c2576127c2614be4565b60200260200101819052506005600082815260200190815260200160002060040180546127ee90614baa565b80601f016020809104026020016040519081016040528092919081815260200182805461281a90614baa565b80156128675780601f1061283c57610100808354040283529160200191612867565b820191906000526020600020905b81548152906001019060200180831161284a57829003601f168201915b505050505086828151811061287e5761287e614be4565b602002602001018190525060056000828152602001908152602001600020600501548582815181106128b2576128b2614be4565b60200260200101818152505060056000828152602001908152602001600020600601548482815181106128e7576128e7614be4565b602002602001018181525050600560008281526020019081526020016000206000015483828151811061291c5761291c614be4565b602090810291909101810191909152600082815260059091526040902060080154825160ff9091169083908390811061295757612957614be4565b60200260200101906007811115612970576129706143f2565b90816007811115612983576129836143f2565b90525060010161270c565b61299984848461128c565b61132a848484846136f4565b6000818152600560205260408120600901546129c4906249d400614b97565b421192915050565b60606129d782612e4b565b506000828152600f6020526040812080546129f190614baa565b80601f0160208091040260200160405190810160405280929190818152602001828054612a1d90614baa565b8015612a6a5780601f10612a3f57610100808354040283529160200191612a6a565b820191906000526020600020905b815481529060010190602001808311612a4d57829003601f168201915b505050505090506000612a8860408051602081019091526000815290565b90508051600003612a9a575092915050565b815115612acc578082604051602001612ab4929190614d36565b60405160208183030381529060405292505050919050565b612ad58461381d565b949350505050565b612ae56141bc565b6001600160a01b0380831660009081526020818152604091829020825160e081018452815481526001820154909416918401919091526002810180549192840191611a9c90614baa565b600081815260056020526040812060010154612b4a90611a3e565b60209081015160008481526005909252604090912060060154909150612b6f836129a5565b15612b7f57612b7f8360036130c2565b60026001600160a01b03831660009081526020819052604090206004015460ff166003811115612bb157612bb16143f2565b14612bbb57505050565b600083815260056020819052604090912090810154600690910154106118c857612be68360046130c2565b6040516001600160a01b0383169082156108fc029083906000818181858888f1935050505015801561132a573d6000803e3d6000fd5b600460008381526005602052604090206008015460ff166007811115612c4457612c446143f2565b14612c915760405162461bcd60e51b815260206004820152601760248201527f50726f6a656374206e6f74207374617274656420796574000000000000000000604482015260640161122f565b6000828152600560205260409020600201546001600160a01b03163314612d205760405162461bcd60e51b815260206004820152602260248201527f4f6e6c792070726f6a656374206f776e65722063616e20656e642070726f6a6560448201527f6374000000000000000000000000000000000000000000000000000000000000606482015260840161122f565b61105f826118cd565b336000818152601260205260409020546001600160a01b031614612d9b5760405162461bcd60e51b815260206004820152602360248201527f4f6e6c7920646f6e6f72732063616e2063616c6c20746869732066756e63746960448201526237b71760e91b606482015260840161122f565b612da733826000613132565b61188281613891565b60006001600160e01b031982167f80ac58cd000000000000000000000000000000000000000000000000000000001480612e1357506001600160e01b031982167f5b5e139f00000000000000000000000000000000000000000000000000000000145b80610c6d57507f01ffc9a7000000000000000000000000000000000000000000000000000000006001600160e01b0319831614610c6d565b6000818152600b60205260408120546001600160a01b031680610c6d57604051637e27328960e01b81526004810184905260240161122f565b60606000612e91836138f3565b600101905060008167ffffffffffffffff811115612eb157612eb16145da565b6040519080825280601f01601f191660200182016040528015612edb576020820181803683370190505b5090508181016020015b600019017f3031323334353637383961626364656600000000000000000000000000000000600a86061a8153600a8504945084612ee557509392505050565b6118c883838360016139d5565b6000828152600b60205260408120546001600160a01b0390811690831615612f5e57612f5e818486613b13565b6001600160a01b03811615612f9c57612f7b6000856000806139d5565b6001600160a01b0381166000908152600c6020526040902080546000190190555b6001600160a01b03851615612fcb576001600160a01b0385166000908152600c60205260409020805460010190555b6000848152600b602052604080822080546001600160a01b0319166001600160a01b0389811691821790925591518793918516917fddf252ad1be2c89b69c2b068fc378daa952ba7f163c4a11628f55a4df523b3ef91a490505b9392505050565b6001600160a01b0382166000908152601260205260409020600101548111156130975760405162461bcd60e51b815260206004820152601a60248201527f496e73756666696369656e7420766f74696e6720746f6b656e73000000000000604482015260640161122f565b6001600160a01b03821660009081526012602052604081206001018054839290610c26908490614bfa565b6000828152600560205260409020600801805482919060ff191660018360078111156130f0576130f06143f2565b02179055507ffafe884515ca1fa5e0bf815ce87ef00b2cdaa0eee590d20376604937937a10bf8282604051613126929190614d65565b60405180910390a15050565b61313d838383613b90565b1561317c5761314b82613bd1565b60006002600061315c868686613c08565b81526020810191909152604001600020805460ff19169115159190911790555b61318883838315613b90565b156118c85761319682613ca4565b6000600360006131a7868686613c08565b81526020810191909152604001600020805460ff1916911515919091179055505050565b6001600260006131dd33856001613c08565b815260208082019290925260409081016000908120805460ff19169415159490941790935583835260018252808320546001600160a01b0316835290829052812060050180549161322d83614d1d565b919050555061188281613cd7565b6001600160a01b038216613286576040517f5b08ba180000000000000000000000000000000000000000000000000000000081526001600160a01b038316600482015260240161122f565b6001600160a01b038381166000818152600e6020908152604080832094871680845294825291829020805460ff191686151590811790915591519182527f17307eab39ab6107e8899845ad3d59bd9653f200f220920489ca2b5937696c31910160405180910390a3505050565b600061331c61330c866001600160a01b03166014613da5565b61331586612e84565b8585613f7b565b60008181526011602052604090205490915060ff161561337e5760405162461bcd60e51b815260206004820152601360248201527f4e465420616c7265616479206372656174656400000000000000000000000000604482015260640161122f565b6000818152601160205260409020805460ff191660011790556010546133a5908690614000565b60008360405160200161347c91907f646174613a6170706c69636174696f6e2f6a736f6e2c7b2250726f6a6563742081527f5469746c65223a22446f6e6174696f6e204e4654222c2264657363726970746960208201527f6f6e223a22202b2070726f6a656374735b5f70726f6a65637449645d2e70726f60408201527f6a6563744465736372697074696f6e2829202b20000000000000000000000000606082015260748101919091527f2045544820746f2074686520636f6e74726163742e227d000000000000000000609482015260ab0190565b60405160208183030381529060405290506134996010548261401a565b6001601060008282546134ac9190614b97565b9091555050505050505050565b60008181526005602090815260408083208151610140810183528154815260018201549381019390935260028101546001600160a01b03169183019190915260038101805460608401919061350d90614baa565b80601f016020809104026020016040519081016040528092919081815260200182805461353990614baa565b80156135865780601f1061355b57610100808354040283529160200191613586565b820191906000526020600020905b81548152906001019060200180831161356957829003601f168201915b5050505050815260200160048201805461359f90614baa565b80601f01602080910402602001604051908101604052809291908181526020018280546135cb90614baa565b80156136185780601f106135ed57610100808354040283529160200191613618565b820191906000526020600020905b8154815290600101906020018083116135fb57829003601f168201915b505050918352505060058201546020820152600682015460408201526007808301546060830152600883015460809092019160ff169081111561365d5761365d6143f2565b600781111561366e5761366e6143f2565b815260099190910154602090910152905060028161010001516007811115613698576136986143f2565b036136a6576136a682612b2f565b600481610100015160078111156136bf576136bf6143f2565b036136cd576136cd826118cd565b600581610100015160078111156136e6576136e66143f2565b0361105f5761105f82611877565b6001600160a01b0383163b1561132a57604051630a85bd0160e11b81526001600160a01b0384169063150b7a0290613736903390889087908790600401614d79565b6020604051808303816000875af1925050508015613771575060408051601f3d908101601f1916820190925261376e91810190614dab565b60015b6137da573d80801561379f576040519150601f19603f3d011682016040523d82523d6000602084013e6137a4565b606091505b5080516000036137d257604051633250574960e11b81526001600160a01b038516600482015260240161122f565b805181602001fd5b6001600160e01b03198116630a85bd0160e11b1461381657604051633250574960e11b81526001600160a01b038516600482015260240161122f565b5050505050565b606061382882612e4b565b50600061384060408051602081019091526000815290565b905060008151116138605760405180602001604052806000815250613025565b8061386a84612e84565b60405160200161387b929190614d36565b6040516020818303038152906040529392505050565b6001600260006138a333856001613c08565b815260208082019290925260409081016000908120805460ff19169415159490941790935583835260018252808320546001600160a01b0316835290829052812060060180549161322d83614d1d565b6000807a184f03e93ff9f4daa797ed6e38ed64bf6a1f010000000000000000831061393c577a184f03e93ff9f4daa797ed6e38ed64bf6a1f010000000000000000830492506040015b6d04ee2d6d415b85acef81000000008310613968576d04ee2d6d415b85acef8100000000830492506020015b662386f26fc10000831061398657662386f26fc10000830492506010015b6305f5e100831061399e576305f5e100830492506008015b61271083106139b257612710830492506004015b606483106139c4576064830492506002015b600a8310610c6d5760010192915050565b80806139e957506001600160a01b03821615155b15613ae35760006139f984612e4b565b90506001600160a01b03831615801590613a255750826001600160a01b0316816001600160a01b031614155b8015613a5757506001600160a01b038082166000908152600e602090815260408083209387168352929052205460ff16155b15613a99576040517fa9fbf51f0000000000000000000000000000000000000000000000000000000081526001600160a01b038416600482015260240161122f565b8115613ae15783856001600160a01b0316826001600160a01b03167f8c5be1e5ebec7d5bd14f71427d1e84f3dd0314c0f7b2291e5b200ac8c7c3b92560405160405180910390a45b505b50506000908152600d6020526040902080546001600160a01b0319166001600160a01b0392909216919091179055565b613b1e838383614063565b6118c8576001600160a01b038316613b4c57604051637e27328960e01b81526004810182905260240161122f565b6040517f177e802f0000000000000000000000000000000000000000000000000000000081526001600160a01b03831660048201526024810182905260440161122f565b60008115613bc25760026000613ba7868686613c08565b815260208101919091526040016000205460ff169050613025565b60036000613ba7868686613c08565b6000818152600160209081526040808320546001600160a01b03168352908290529020600501805460001901905561188281613cd7565b60408051606085901b6bffffffffffffffffffffffff191660208201526034810184905282151560f81b605482015281516035818303018152605590910191829052600091600290613c5b908390614dc8565b602060405180830381855afa158015613c78573d6000803e3d6000fd5b5050506040513d601f19601f82011682018060405250810190613c9b9190614de4565b95945050505050565b6000818152600160209081526040808320546001600160a01b031683529082905290206006018054600019019055611882815b6000818152600160209081526040808320546001600160a01b0316835290829052902060068101546005909101541015613d3257600081815260016020819052604090912054611882916001600160a01b03909116906140e6565b6000818152600160209081526040808320546001600160a01b031683529082905290206005015415613d8157600081815260016020526040902054611882906001600160a01b031660026140e6565b600081815260016020526040812054611882916001600160a01b03909116906140e6565b6060826000613db5846002614296565b613dc0906002614b97565b67ffffffffffffffff811115613dd857613dd86145da565b6040519080825280601f01601f191660200182016040528015613e02576020820181803683370190505b5090507f300000000000000000000000000000000000000000000000000000000000000081600081518110613e3957613e39614be4565b60200101906001600160f81b031916908160001a9053507f780000000000000000000000000000000000000000000000000000000000000081600181518110613e8457613e84614be4565b60200101906001600160f81b031916908160001a9053506000613ea8856002614296565b613eb3906001614b97565b90505b6001811115613f38577f303132333435363738396162636465660000000000000000000000000000000083600f1660108110613ef457613ef4614be4565b1a60f81b828281518110613f0a57613f0a614be4565b60200101906001600160f81b031916908160001a90535060049290921c91613f3181614dfd565b9050613eb6565b508115612ad5576040517fe22e27eb000000000000000000000000000000000000000000000000000000008152600481018690526024810185905260440161122f565b60008085858585604051602001613f959493929190614e14565b6040516020818303038152906040529050600281604051613fb69190614dc8565b602060405180830381855afa158015613fd3573d6000803e3d6000fd5b5050506040513d601f19601f82011682018060405250810190613ff69190614de4565b9695505050505050565b61105f828260405180602001604052806000815250614127565b6000828152600f602052604090206140328282614c5d565b506040518281527ff8e1a15aba9398e019f0b49df1a4fde98ee17ae345cb5f6b5e2c27f5033e8ce790602001613126565b60006001600160a01b03831615801590612ad55750826001600160a01b0316846001600160a01b031614806140bd57506001600160a01b038085166000908152600e602090815260408083209387168352929052205460ff165b80612ad55750506000908152600d60205260409020546001600160a01b03908116911614919050565b6001600160a01b0382166000908152602081905260409020600401805482919060ff1916600183600381111561411e5761411e6143f2565b02179055505050565b614131838361413e565b6118c860008484846136f4565b6001600160a01b03821661416857604051633250574960e11b81526000600482015260240161122f565b600061417683836000612f31565b90506001600160a01b038116156118c8576040517f73c6ac6e0000000000000000000000000000000000000000000000000000000081526000600482015260240161122f565b6040518060e001604052806000815260200160006001600160a01b031681526020016060815260200160608152602001600060038111156141ff576141ff6143f2565b815260200160008152602001600081525090565b604051806101400160405280600081526020016000815260200160006001600160a01b03168152602001606081526020016060815260200160008152602001600081526020016000815260200160006007811115614273576142736143f2565b8152602001600081525090565b634e487b7160e01b600052601160045260246000fd5b8082028115828204841417610c6d57610c6d614280565b6001600160e01b03198116811461188257600080fd5b6000602082840312156142d557600080fd5b8135613025816142ad565b60005b838110156142fb5781810151838201526020016142e3565b50506000910152565b6000815180845261431c8160208601602086016142e0565b601f01601f19169290920160200192915050565b6020815260006130256020830184614304565b60006020828403121561435557600080fd5b5035919050565b60008151808452602080850194506020840160005b8381101561438d57815187529582019590820190600101614371565b509495945050505050565b60008282518085526020808601955060208260051b8401016020860160005b848110156143e557601f198684030189526143d3838351614304565b988401989250908301906001016143b7565b5090979650505050505050565b634e487b7160e01b600052602160045260246000fd5b60048110614418576144186143f2565b9052565b60c08152600061442f60c083018961435c565b60208382036020850152614443828a614398565b915083820360408501526144578289614398565b848103606086015287518082526020808a0194509091019060005b8181101561449557614485838651614408565b9383019391830191600101614472565b505084810360808601526144a9818861435c565b9250505082810360a08401526144bf818561435c565b9998505050505050505050565b80356001600160a01b03811681146144e357600080fd5b919050565b600080604083850312156144fb57600080fd5b614504836144cc565b946020939093013593505050565b60088110614418576144186143f2565b60006101408c83528b60208401526001600160a01b038b1660408401528060608401526145518184018b614304565b90508281036080840152614565818a614304565b9150508660a08301528560c08301528460e0830152614588610100830185614512565b826101208301529b9a5050505050505050505050565b6000806000606084860312156145b357600080fd5b6145bc846144cc565b92506145ca602085016144cc565b9150604084013590509250925092565b634e487b7160e01b600052604160045260246000fd5b600067ffffffffffffffff8084111561460b5761460b6145da565b604051601f8501601f19908116603f01168101908282118183101715614633576146336145da565b8160405280935085815286868601111561464c57600080fd5b858560208301376000602087830101525050509392505050565b600082601f83011261467757600080fd5b613025838335602085016145f0565b60008060006060848603121561469b57600080fd5b833567ffffffffffffffff808211156146b357600080fd5b6146bf87838801614666565b945060208601359150808211156146d557600080fd5b506146e286828701614666565b925050604084013590509250925092565b6000806040838503121561470657600080fd5b50508035926020909101359150565b600060208083018184528085518083526040925060408601915060408160051b87010184880160005b838110156147ff57888303603f190185528151805184528781015188850152868101516001600160a01b038116888601526101409050606080830151828288015261478b83880182614304565b92505050608080830151868303828801526147a68382614304565b9250505060a080830151818701525060c080830151818701525060e0808301518187015250610100808301516147de82880182614512565b5050610120918201519490910193909352938601939086019060010161473e565b509098975050505050505050565b60006020828403121561481f57600080fd5b613025826144cc565b8781526001600160a01b038716602082015260e06040820152600061485060e0830188614304565b82810360608401526148628188614304565b9150506148726080830186614408565b60a082019390935260c0015295945050505050565b60208152815160208201526001600160a01b0360208301511660408201526000604083015160e060608401526148c1610100840182614304565b90506060840151601f198483030160808501526148de8282614304565b91505060808401516148f360a0850182614408565b5060a084015160c084015260c084015160e08401528091505092915050565b6000806040838503121561492557600080fd5b61492e836144cc565b91506020830135801515811461494357600080fd5b809150509250929050565b6000806040838503121561496157600080fd5b823567ffffffffffffffff8082111561497957600080fd5b61498586838701614666565b9350602085013591508082111561499b57600080fd5b506149a885828601614666565b9150509250929050565b600080600080608085870312156149c857600080fd5b6149d1856144cc565b966020860135965060408601359560600135945092505050565b60c0815260006149fe60c0830189614398565b60208382036020850152614a12828a614398565b91508382036040850152614a26828961435c565b91508382036060850152614a3a828861435c565b91508382036080850152614a4e828761435c565b84810360a08601528551808252602080880194509091019060005b81811015614a8c57614a7c838651614512565b9383019391830191600101614a69565b50909b9a5050505050505050505050565b60008060008060808587031215614ab357600080fd5b614abc856144cc565b9350614aca602086016144cc565b925060408501359150606085013567ffffffffffffffff811115614aed57600080fd5b8501601f81018713614afe57600080fd5b614b0d878235602084016145f0565b91505092959194509250565b60008060408385031215614b2c57600080fd5b82359150602083013567ffffffffffffffff811115614b4a57600080fd5b6149a885828601614666565b60008060408385031215614b6957600080fd5b614b72836144cc565b9150614b80602084016144cc565b90509250929050565b60208101610c6d8284614408565b80820180821115610c6d57610c6d614280565b600181811c90821680614bbe57607f821691505b602082108103614bde57634e487b7160e01b600052602260045260246000fd5b50919050565b634e487b7160e01b600052603260045260246000fd5b81810381811115610c6d57610c6d614280565b601f8211156118c8576000816000526020600020601f850160051c81016020861015614c365750805b601f850160051c820191505b81811015614c5557828155600101614c42565b505050505050565b815167ffffffffffffffff811115614c7757614c776145da565b614c8b81614c858454614baa565b84614c0d565b602080601f831160018114614cc05760008415614ca85750858301515b600019600386901b1c1916600185901b178555614c55565b600085815260208120601f198616915b82811015614cef57888601518255948401946001909101908401614cd0565b5085821015614d0d5787850151600019600388901b60f8161c191681555b5050505050600190811b01905550565b600060018201614d2f57614d2f614280565b5060010190565b60008351614d488184602088016142e0565b835190830190614d5c8183602088016142e0565b01949350505050565b828152604081016130256020830184614512565b60006001600160a01b03808716835280861660208401525083604083015260806060830152613ff66080830184614304565b600060208284031215614dbd57600080fd5b8151613025816142ad565b60008251614dda8184602087016142e0565b9190910192915050565b600060208284031215614df657600080fd5b5051919050565b600081614e0c57614e0c614280565b506000190190565b60008551614e26818460208a016142e0565b855190830190614e3a818360208a016142e0565b01938452505060208201526040019291505056fea264697066735822122010124c0d60842f47b6549b02037107c3c9bb5ebf2c4e67c4aeb06e4e296106ad64736f6c63430008180033",
  "linkReferences": {},
  "deployedLinkReferences": {}
}