{
  "_format": "hh-sol-artifact-1",
  "contractName": "DAO_SLR",
  "sourceName": "contracts/DAO_SLR.sol",
  "abi": [
    {
      "inputs": [
        {
          "internalType": "address",
          "name": "sender",
          "type": "address"
        },
        {
          "internalType": "uint256",
          "name": "tokenId",
          "type": "uint256"
        },
        {
          "internalType": "address",
          "name": "owner",
          "type": "address"
        }
      ],
      "name": "ERC721IncorrectOwner",
      "type": "error"
    },
    {
      "inputs": [
        {
          "internalType": "address",
          "name": "operator",
          "type": "address"
        },
        {
          "internalType": "uint256",
          "name": "tokenId",
          "type": "uint256"
        }
      ],
      "name": "ERC721InsufficientApproval",
      "type": "error"
    },
    {
      "inputs": [
        {
          "internalType": "address",
          "name": "approver",
          "type": "address"
        }
      ],
      "name": "ERC721InvalidApprover",
      "type": "error"
    },
    {
      "inputs": [
        {
          "internalType": "address",
          "name": "operator",
          "type": "address"
        }
      ],
      "name": "ERC721InvalidOperator",
      "type": "error"
    },
    {
      "inputs": [
        {
          "internalType": "address",
          "name": "owner",
          "type": "address"
        }
      ],
      "name": "ERC721InvalidOwner",
      "type": "error"
    },
    {
      "inputs": [
        {
          "internalType": "address",
          "name": "receiver",
          "type": "address"
        }
      ],
      "name": "ERC721InvalidReceiver",
      "type": "error"
    },
    {
      "inputs": [
        {
          "internalType": "address",
          "name": "sender",
          "type": "address"
        }
      ],
      "name": "ERC721InvalidSender",
      "type": "error"
    },
    {
      "inputs": [
        {
          "internalType": "uint256",
          "name": "tokenId",
          "type": "uint256"
        }
      ],
      "name": "ERC721NonexistentToken",
      "type": "error"
    },
    {
      "inputs": [
        {
          "internalType": "uint256",
          "name": "value",
          "type": "uint256"
        },
        {
          "internalType": "uint256",
          "name": "length",
          "type": "uint256"
        }
      ],
      "name": "StringsInsufficientHexLength",
      "type": "error"
    },
    {
      "anonymous": false,
      "inputs": [
        {
          "indexed": true,
          "internalType": "address",
          "name": "owner",
          "type": "address"
        },
        {
          "indexed": true,
          "internalType": "address",
          "name": "approved",
          "type": "address"
        },
        {
          "indexed": true,
          "internalType": "uint256",
          "name": "tokenId",
          "type": "uint256"
        }
      ],
      "name": "Approval",
      "type": "event"
    },
    {
      "anonymous": false,
      "inputs": [
        {
          "indexed": true,
          "internalType": "address",
          "name": "owner",
          "type": "address"
        },
        {
          "indexed": true,
          "internalType": "address",
          "name": "operator",
          "type": "address"
        },
        {
          "indexed": false,
          "internalType": "bool",
          "name": "approved",
          "type": "bool"
        }
      ],
      "name": "ApprovalForAll",
      "type": "event"
    },
    {
      "anonymous": false,
      "inputs": [
        {
          "indexed": false,
          "internalType": "uint256",
          "name": "_fromTokenId",
          "type": "uint256"
        },
        {
          "indexed": false,
          "internalType": "uint256",
          "name": "_toTokenId",
          "type": "uint256"
        }
      ],
      "name": "BatchMetadataUpdate",
      "type": "event"
    },
    {
      "anonymous": false,
      "inputs": [
        {
          "indexed": false,
          "internalType": "uint256",
          "name": "_projectId",
          "type": "uint256"
        },
        {
          "indexed": false,
          "internalType": "uint256",
          "name": "_amount",
          "type": "uint256"
        }
      ],
      "name": "FundingGoalReached",
      "type": "event"
    },
    {
      "anonymous": false,
      "inputs": [
        {
          "indexed": false,
          "internalType": "uint256",
          "name": "_tokenId",
          "type": "uint256"
        }
      ],
      "name": "MetadataUpdate",
      "type": "event"
    },
    {
      "anonymous": false,
      "inputs": [
        {
          "indexed": false,
          "internalType": "uint256",
          "name": "_projectId",
          "type": "uint256"
        },
        {
          "indexed": false,
          "internalType": "enum ProjectState",
          "name": "_newState",
          "type": "uint8"
        }
      ],
      "name": "StateChanged",
      "type": "event"
    },
    {
      "anonymous": false,
      "inputs": [
        {
          "indexed": true,
          "internalType": "address",
          "name": "from",
          "type": "address"
        },
        {
          "indexed": true,
          "internalType": "address",
          "name": "to",
          "type": "address"
        },
        {
          "indexed": true,
          "internalType": "uint256",
          "name": "tokenId",
          "type": "uint256"
        }
      ],
      "name": "Transfer",
      "type": "event"
    },
    {
      "inputs": [
        {
          "internalType": "address",
          "name": "to",
          "type": "address"
        },
        {
          "internalType": "uint256",
          "name": "tokenId",
          "type": "uint256"
        }
      ],
      "name": "approve",
      "outputs": [],
      "stateMutability": "nonpayable",
      "type": "function"
    },
    {
      "inputs": [
        {
          "internalType": "address",
          "name": "owner",
          "type": "address"
        }
      ],
      "name": "balanceOf",
      "outputs": [
        {
          "internalType": "uint256",
          "name": "",
          "type": "uint256"
        }
      ],
      "stateMutability": "view",
      "type": "function"
    },
    {
      "inputs": [
        {
          "internalType": "string",
          "name": "_organizationName",
          "type": "string"
        },
        {
          "internalType": "string",
          "name": "_organizationDescription",
          "type": "string"
        }
      ],
      "name": "createOrganization",
      "outputs": [],
      "stateMutability": "nonpayable",
      "type": "function"
    },
    {
      "inputs": [
        {
          "internalType": "string",
          "name": "_title",
          "type": "string"
        },
        {
          "internalType": "string",
          "name": "_description",
          "type": "string"
        },
        {
          "internalType": "uint256",
          "name": "_goal",
          "type": "uint256"
        }
      ],
      "name": "createProject",
      "outputs": [],
      "stateMutability": "nonpayable",
      "type": "function"
    },
    {
      "inputs": [
        {
          "internalType": "address",
          "name": "_recipient",
          "type": "address"
        },
        {
          "internalType": "uint256",
          "name": "_projectId",
          "type": "uint256"
        },
        {
          "internalType": "uint256",
          "name": "_donationAmount",
          "type": "uint256"
        },
        {
          "internalType": "uint256",
          "name": "_timestamp",
          "type": "uint256"
        }
      ],
      "name": "createReceipt",
      "outputs": [],
      "stateMutability": "nonpayable",
      "type": "function"
    },
    {
      "inputs": [
        {
          "internalType": "address",
          "name": "_donor",
          "type": "address"
        }
      ],
      "name": "doesDonorExist",
      "outputs": [
        {
          "internalType": "bool",
          "name": "",
          "type": "bool"
        }
      ],
      "stateMutability": "view",
      "type": "function"
    },
    {
      "inputs": [
        {
          "internalType": "uint256",
          "name": "_projectId",
          "type": "uint256"
        }
      ],
      "name": "doesProjectExist",
      "outputs": [
        {
          "internalType": "bool",
          "name": "",
          "type": "bool"
        }
      ],
      "stateMutability": "view",
      "type": "function"
    },
    {
      "inputs": [
        {
          "internalType": "address",
          "name": "",
          "type": "address"
        }
      ],
      "name": "donors",
      "outputs": [
        {
          "internalType": "address",
          "name": "donorAddress",
          "type": "address"
        },
        {
          "internalType": "uint256",
          "name": "votingTokens",
          "type": "uint256"
        }
      ],
      "stateMutability": "view",
      "type": "function"
    },
    {
      "inputs": [
        {
          "internalType": "uint256",
          "name": "_projectId",
          "type": "uint256"
        },
        {
          "internalType": "string",
          "name": "_proofUrl",
          "type": "string"
        }
      ],
      "name": "endProject",
      "outputs": [],
      "stateMutability": "nonpayable",
      "type": "function"
    },
    {
      "inputs": [
        {
          "internalType": "uint256",
          "name": "_projectId",
          "type": "uint256"
        }
      ],
      "name": "exceededTimeLimit",
      "outputs": [
        {
          "internalType": "bool",
          "name": "",
          "type": "bool"
        }
      ],
      "stateMutability": "view",
      "type": "function"
    },
    {
      "inputs": [],
      "name": "getAllOrganizations",
      "outputs": [
        {
          "internalType": "uint256[]",
          "name": "ids",
          "type": "uint256[]"
        },
        {
          "internalType": "string[]",
          "name": "names",
          "type": "string[]"
        },
        {
          "internalType": "string[]",
          "name": "descriptions",
          "type": "string[]"
        },
        {
          "internalType": "enum OrganizationState[]",
          "name": "states",
          "type": "uint8[]"
        },
        {
          "internalType": "uint256[]",
          "name": "upvotes",
          "type": "uint256[]"
        },
        {
          "internalType": "uint256[]",
          "name": "downvotes",
          "type": "uint256[]"
        }
      ],
      "stateMutability": "view",
      "type": "function"
    },
    {
      "inputs": [],
      "name": "getAllProjects",
      "outputs": [
        {
          "components": [
            {
              "internalType": "uint256",
              "name": "projectId",
              "type": "uint256"
            },
            {
              "internalType": "uint256",
              "name": "organizationId",
              "type": "uint256"
            },
            {
              "internalType": "address payable",
              "name": "projectOwner",
              "type": "address"
            },
            {
              "internalType": "string",
              "name": "projectTitle",
              "type": "string"
            },
            {
              "internalType": "string",
              "name": "projectDescription",
              "type": "string"
            },
            {
              "internalType": "uint256",
              "name": "fundingGoal",
              "type": "uint256"
            },
            {
              "internalType": "uint256",
              "name": "currentFunding",
              "type": "uint256"
            },
            {
              "internalType": "uint256",
              "name": "totalVotes",
              "type": "uint256"
            },
            {
              "internalType": "enum ProjectState",
              "name": "state",
              "type": "uint8"
            },
            {
              "internalType": "uint256",
              "name": "creationTimestamp",
              "type": "uint256"
            }
          ],
          "internalType": "struct Project[]",
          "name": "",
          "type": "tuple[]"
        }
      ],
      "stateMutability": "view",
      "type": "function"
    },
    {
      "inputs": [],
      "name": "getAllProjectsTest",
      "outputs": [
        {
          "internalType": "string[]",
          "name": "names",
          "type": "string[]"
        },
        {
          "internalType": "string[]",
          "name": "descriptions",
          "type": "string[]"
        },
        {
          "internalType": "uint256[]",
          "name": "goals",
          "type": "uint256[]"
        },
        {
          "internalType": "uint256[]",
          "name": "currentFundings",
          "type": "uint256[]"
        },
        {
          "internalType": "uint256[]",
          "name": "projectIds",
          "type": "uint256[]"
        }
      ],
      "stateMutability": "view",
      "type": "function"
    },
    {
      "inputs": [
        {
          "internalType": "uint256",
          "name": "tokenId",
          "type": "uint256"
        }
      ],
      "name": "getApproved",
      "outputs": [
        {
          "internalType": "address",
          "name": "",
          "type": "address"
        }
      ],
      "stateMutability": "view",
      "type": "function"
    },
    {
      "inputs": [
        {
          "internalType": "address",
          "name": "_donor",
          "type": "address"
        }
      ],
      "name": "getDonorTokenBalance",
      "outputs": [
        {
          "internalType": "uint256",
          "name": "",
          "type": "uint256"
        }
      ],
      "stateMutability": "view",
      "type": "function"
    },
    {
      "inputs": [],
      "name": "getLastTenProjects",
      "outputs": [
        {
          "components": [
            {
              "internalType": "uint256",
              "name": "projectId",
              "type": "uint256"
            },
            {
              "internalType": "uint256",
              "name": "organizationId",
              "type": "uint256"
            },
            {
              "internalType": "address payable",
              "name": "projectOwner",
              "type": "address"
            },
            {
              "internalType": "string",
              "name": "projectTitle",
              "type": "string"
            },
            {
              "internalType": "string",
              "name": "projectDescription",
              "type": "string"
            },
            {
              "internalType": "uint256",
              "name": "fundingGoal",
              "type": "uint256"
            },
            {
              "internalType": "uint256",
              "name": "currentFunding",
              "type": "uint256"
            },
            {
              "internalType": "uint256",
              "name": "totalVotes",
              "type": "uint256"
            },
            {
              "internalType": "enum ProjectState",
              "name": "state",
              "type": "uint8"
            },
            {
              "internalType": "uint256",
              "name": "creationTimestamp",
              "type": "uint256"
            }
          ],
          "internalType": "struct Project[]",
          "name": "",
          "type": "tuple[]"
        }
      ],
      "stateMutability": "view",
      "type": "function"
    },
    {
      "inputs": [
        {
          "internalType": "address",
          "name": "_walletAddress",
          "type": "address"
        }
      ],
      "name": "getOrganization",
      "outputs": [
        {
          "components": [
            {
              "internalType": "uint256",
              "name": "organizationId",
              "type": "uint256"
            },
            {
              "internalType": "address payable",
              "name": "walletAddress",
              "type": "address"
            },
            {
              "internalType": "string",
              "name": "organizationName",
              "type": "string"
            },
            {
              "internalType": "string",
              "name": "organizationDescription",
              "type": "string"
            },
            {
              "internalType": "enum OrganizationState",
              "name": "state",
              "type": "uint8"
            },
            {
              "internalType": "uint256",
              "name": "votes",
              "type": "uint256"
            },
            {
              "internalType": "uint256",
              "name": "downVotes",
              "type": "uint256"
            }
          ],
          "internalType": "struct Organization",
          "name": "",
          "type": "tuple"
        }
      ],
      "stateMutability": "view",
      "type": "function"
    },
    {
      "inputs": [
        {
          "internalType": "uint256",
          "name": "_orgId",
          "type": "uint256"
        }
      ],
      "name": "getOrganizationById",
      "outputs": [
        {
          "components": [
            {
              "internalType": "uint256",
              "name": "organizationId",
              "type": "uint256"
            },
            {
              "internalType": "address payable",
              "name": "walletAddress",
              "type": "address"
            },
            {
              "internalType": "string",
              "name": "organizationName",
              "type": "string"
            },
            {
              "internalType": "string",
              "name": "organizationDescription",
              "type": "string"
            },
            {
              "internalType": "enum OrganizationState",
              "name": "state",
              "type": "uint8"
            },
            {
              "internalType": "uint256",
              "name": "votes",
              "type": "uint256"
            },
            {
              "internalType": "uint256",
              "name": "downVotes",
              "type": "uint256"
            }
          ],
          "internalType": "struct Organization",
          "name": "",
          "type": "tuple"
        }
      ],
      "stateMutability": "view",
      "type": "function"
    },
    {
      "inputs": [
        {
          "internalType": "address",
          "name": "_walletAddress",
          "type": "address"
        }
      ],
      "name": "getOrganizationState",
      "outputs": [
        {
          "internalType": "enum OrganizationState",
          "name": "",
          "type": "uint8"
        }
      ],
      "stateMutability": "view",
      "type": "function"
    },
    {
      "inputs": [
        {
          "internalType": "uint256",
          "name": "_from",
          "type": "uint256"
        },
        {
          "internalType": "uint256",
          "name": "_to",
          "type": "uint256"
        }
      ],
      "name": "getProjectsInRange",
      "outputs": [
        {
          "components": [
            {
              "internalType": "uint256",
              "name": "projectId",
              "type": "uint256"
            },
            {
              "internalType": "uint256",
              "name": "organizationId",
              "type": "uint256"
            },
            {
              "internalType": "address payable",
              "name": "projectOwner",
              "type": "address"
            },
            {
              "internalType": "string",
              "name": "projectTitle",
              "type": "string"
            },
            {
              "internalType": "string",
              "name": "projectDescription",
              "type": "string"
            },
            {
              "internalType": "uint256",
              "name": "fundingGoal",
              "type": "uint256"
            },
            {
              "internalType": "uint256",
              "name": "currentFunding",
              "type": "uint256"
            },
            {
              "internalType": "uint256",
              "name": "totalVotes",
              "type": "uint256"
            },
            {
              "internalType": "enum ProjectState",
              "name": "state",
              "type": "uint8"
            },
            {
              "internalType": "uint256",
              "name": "creationTimestamp",
              "type": "uint256"
            }
          ],
          "internalType": "struct Project[]",
          "name": "",
          "type": "tuple[]"
        }
      ],
      "stateMutability": "view",
      "type": "function"
    },
    {
      "inputs": [
        {
          "internalType": "uint256",
          "name": "_orgaId",
          "type": "uint256"
        }
      ],
      "name": "hasEnoughVotesForOnboarding",
      "outputs": [
        {
          "internalType": "bool",
          "name": "",
          "type": "bool"
        }
      ],
      "stateMutability": "view",
      "type": "function"
    },
    {
      "inputs": [
        {
          "internalType": "uint256",
          "name": "_projectId",
          "type": "uint256"
        }
      ],
      "name": "hasReachedFundingGoal",
      "outputs": [
        {
          "internalType": "bool",
          "name": "",
          "type": "bool"
        }
      ],
      "stateMutability": "view",
      "type": "function"
    },
    {
      "inputs": [
        {
          "internalType": "address",
          "name": "owner",
          "type": "address"
        },
        {
          "internalType": "address",
          "name": "operator",
          "type": "address"
        }
      ],
      "name": "isApprovedForAll",
      "outputs": [
        {
          "internalType": "bool",
          "name": "",
          "type": "bool"
        }
      ],
      "stateMutability": "view",
      "type": "function"
    },
    {
      "inputs": [
        {
          "internalType": "uint256",
          "name": "_orgaId",
          "type": "uint256"
        }
      ],
      "name": "isControversial",
      "outputs": [
        {
          "internalType": "bool",
          "name": "",
          "type": "bool"
        }
      ],
      "stateMutability": "view",
      "type": "function"
    },
    {
      "inputs": [],
      "name": "name",
      "outputs": [
        {
          "internalType": "string",
          "name": "",
          "type": "string"
        }
      ],
      "stateMutability": "view",
      "type": "function"
    },
    {
      "inputs": [
        {
          "internalType": "bytes32",
          "name": "",
          "type": "bytes32"
        }
      ],
      "name": "nftsCreated",
      "outputs": [
        {
          "internalType": "bool",
          "name": "",
          "type": "bool"
        }
      ],
      "stateMutability": "view",
      "type": "function"
    },
    {
      "inputs": [
        {
          "internalType": "uint256",
          "name": "",
          "type": "uint256"
        }
      ],
      "name": "organizationIdToAddress",
      "outputs": [
        {
          "internalType": "address",
          "name": "",
          "type": "address"
        }
      ],
      "stateMutability": "view",
      "type": "function"
    },
    {
      "inputs": [
        {
          "internalType": "address",
          "name": "",
          "type": "address"
        }
      ],
      "name": "organizations",
      "outputs": [
        {
          "internalType": "uint256",
          "name": "organizationId",
          "type": "uint256"
        },
        {
          "internalType": "address payable",
          "name": "walletAddress",
          "type": "address"
        },
        {
          "internalType": "string",
          "name": "organizationName",
          "type": "string"
        },
        {
          "internalType": "string",
          "name": "organizationDescription",
          "type": "string"
        },
        {
          "internalType": "enum OrganizationState",
          "name": "state",
          "type": "uint8"
        },
        {
          "internalType": "uint256",
          "name": "votes",
          "type": "uint256"
        },
        {
          "internalType": "uint256",
          "name": "downVotes",
          "type": "uint256"
        }
      ],
      "stateMutability": "view",
      "type": "function"
    },
    {
      "inputs": [],
      "name": "organizationsCount",
      "outputs": [
        {
          "internalType": "uint256",
          "name": "",
          "type": "uint256"
        }
      ],
      "stateMutability": "view",
      "type": "function"
    },
    {
      "inputs": [
        {
          "internalType": "uint256",
          "name": "tokenId",
          "type": "uint256"
        }
      ],
      "name": "ownerOf",
      "outputs": [
        {
          "internalType": "address",
          "name": "",
          "type": "address"
        }
      ],
      "stateMutability": "view",
      "type": "function"
    },
    {
      "inputs": [
        {
          "internalType": "uint256",
          "name": "",
          "type": "uint256"
        }
      ],
      "name": "projectToOrganization",
      "outputs": [
        {
          "internalType": "uint256",
          "name": "",
          "type": "uint256"
        }
      ],
      "stateMutability": "view",
      "type": "function"
    },
    {
      "inputs": [
        {
          "internalType": "uint256",
          "name": "",
          "type": "uint256"
        }
      ],
      "name": "projects",
      "outputs": [
        {
          "internalType": "uint256",
          "name": "projectId",
          "type": "uint256"
        },
        {
          "internalType": "uint256",
          "name": "organizationId",
          "type": "uint256"
        },
        {
          "internalType": "address payable",
          "name": "projectOwner",
          "type": "address"
        },
        {
          "internalType": "string",
          "name": "projectTitle",
          "type": "string"
        },
        {
          "internalType": "string",
          "name": "projectDescription",
          "type": "string"
        },
        {
          "internalType": "uint256",
          "name": "fundingGoal",
          "type": "uint256"
        },
        {
          "internalType": "uint256",
          "name": "currentFunding",
          "type": "uint256"
        },
        {
          "internalType": "uint256",
          "name": "totalVotes",
          "type": "uint256"
        },
        {
          "internalType": "enum ProjectState",
          "name": "state",
          "type": "uint8"
        },
        {
          "internalType": "uint256",
          "name": "creationTimestamp",
          "type": "uint256"
        }
      ],
      "stateMutability": "view",
      "type": "function"
    },
    {
      "inputs": [
        {
          "internalType": "address",
          "name": "from",
          "type": "address"
        },
        {
          "internalType": "address",
          "name": "to",
          "type": "address"
        },
        {
          "internalType": "uint256",
          "name": "tokenId",
          "type": "uint256"
        }
      ],
      "name": "safeTransferFrom",
      "outputs": [],
      "stateMutability": "nonpayable",
      "type": "function"
    },
    {
      "inputs": [
        {
          "internalType": "address",
          "name": "from",
          "type": "address"
        },
        {
          "internalType": "address",
          "name": "to",
          "type": "address"
        },
        {
          "internalType": "uint256",
          "name": "tokenId",
          "type": "uint256"
        },
        {
          "internalType": "bytes",
          "name": "data",
          "type": "bytes"
        }
      ],
      "name": "safeTransferFrom",
      "outputs": [],
      "stateMutability": "nonpayable",
      "type": "function"
    },
    {
      "inputs": [
        {
          "internalType": "address",
          "name": "operator",
          "type": "address"
        },
        {
          "internalType": "bool",
          "name": "approved",
          "type": "bool"
        }
      ],
      "name": "setApprovalForAll",
      "outputs": [],
      "stateMutability": "nonpayable",
      "type": "function"
    },
    {
      "inputs": [
        {
          "internalType": "bytes4",
          "name": "interfaceId",
          "type": "bytes4"
        }
      ],
      "name": "supportsInterface",
      "outputs": [
        {
          "internalType": "bool",
          "name": "",
          "type": "bool"
        }
      ],
      "stateMutability": "view",
      "type": "function"
    },
    {
      "inputs": [],
      "name": "symbol",
      "outputs": [
        {
          "internalType": "string",
          "name": "",
          "type": "string"
        }
      ],
      "stateMutability": "view",
      "type": "function"
    },
    {
      "inputs": [],
      "name": "tokenMultiplier",
      "outputs": [
        {
          "internalType": "uint256",
          "name": "",
          "type": "uint256"
        }
      ],
      "stateMutability": "view",
      "type": "function"
    },
    {
      "inputs": [
        {
          "internalType": "uint256",
          "name": "tokenId",
          "type": "uint256"
        }
      ],
      "name": "tokenURI",
      "outputs": [
        {
          "internalType": "string",
          "name": "",
          "type": "string"
        }
      ],
      "stateMutability": "view",
      "type": "function"
    },
    {
      "inputs": [
        {
          "internalType": "address",
          "name": "from",
          "type": "address"
        },
        {
          "internalType": "address",
          "name": "to",
          "type": "address"
        },
        {
          "internalType": "uint256",
          "name": "tokenId",
          "type": "uint256"
        }
      ],
      "name": "transferFrom",
      "outputs": [],
      "stateMutability": "nonpayable",
      "type": "function"
    },
    {
      "inputs": [
        {
          "internalType": "uint256",
          "name": "_projectId",
          "type": "uint256"
        }
      ],
      "name": "transitionFromEnded",
      "outputs": [],
      "stateMutability": "nonpayable",
      "type": "function"
    },
    {
      "inputs": [
        {
          "internalType": "uint256",
          "name": "_projectId",
          "type": "uint256"
        }
      ],
      "name": "transitionFromStarted",
      "outputs": [],
      "stateMutability": "nonpayable",
      "type": "function"
    },
    {
      "inputs": [
        {
          "internalType": "uint256",
          "name": "_projectId",
          "type": "uint256"
        }
      ],
      "name": "transitionFromVoting",
      "outputs": [],
      "stateMutability": "nonpayable",
      "type": "function"
    },
    {
      "inputs": [
        {
          "internalType": "uint256",
          "name": "_projectId",
          "type": "uint256"
        },
        {
          "internalType": "uint256",
          "name": "_amount",
          "type": "uint256"
        }
      ],
      "name": "vote",
      "outputs": [],
      "stateMutability": "nonpayable",
      "type": "function"
    },
    {
      "inputs": [
        {
          "internalType": "uint256",
          "name": "_orgaId",
          "type": "uint256"
        }
      ],
      "name": "voteAgainstOrganization",
      "outputs": [],
      "stateMutability": "nonpayable",
      "type": "function"
    },
    {
      "inputs": [
        {
          "internalType": "uint256",
          "name": "_orgaId",
          "type": "uint256"
        }
      ],
      "name": "voteForOrganization",
      "outputs": [],
      "stateMutability": "nonpayable",
      "type": "function"
    },
    {
      "inputs": [
        {
          "internalType": "uint256",
          "name": "_projectId",
          "type": "uint256"
        },
        {
          "internalType": "uint256",
          "name": "_tokens",
          "type": "uint256"
        }
      ],
      "name": "voteForProject",
      "outputs": [],
      "stateMutability": "nonpayable",
      "type": "function"
    },
    {
      "inputs": [
        {
          "internalType": "address",
          "name": "",
          "type": "address"
        }
      ],
      "name": "votes",
      "outputs": [
        {
          "internalType": "uint256",
          "name": "",
          "type": "uint256"
        }
      ],
      "stateMutability": "view",
      "type": "function"
    },
    {
      "inputs": [
        {
          "internalType": "bytes32",
          "name": "",
          "type": "bytes32"
        }
      ],
      "name": "votesAgainstOrga",
      "outputs": [
        {
          "internalType": "bool",
          "name": "",
          "type": "bool"
        }
      ],
      "stateMutability": "view",
      "type": "function"
    },
    {
      "inputs": [
        {
          "internalType": "bytes32",
          "name": "",
          "type": "bytes32"
        }
      ],
      "name": "votesForOrga",
      "outputs": [
        {
          "internalType": "bool",
          "name": "",
          "type": "bool"
        }
      ],
      "stateMutability": "view",
      "type": "function"
    },
    {
      "inputs": [
        {
          "internalType": "uint256",
          "name": "_amount",
          "type": "uint256"
        }
      ],
      "name": "withdrawFunds",
      "outputs": [],
      "stateMutability": "nonpayable",
      "type": "function"
    },
    {
      "stateMutability": "payable",
      "type": "receive"
    }
  ],
  "bytecode": "0x608060405260016013553480156200001657600080fd5b506040518060400160405280601381526020017f534c522d446f6e6174696f6e52656365697074000000000000000000000000008152506040518060400160405280600681526020016529a62916a22960d11b81525081600990816200007d919062000141565b50600a6200008c828262000141565b50506000601055506200020d565b634e487b7160e01b600052604160045260246000fd5b600181811c90821680620000c557607f821691505b602082108103620000e657634e487b7160e01b600052602260045260246000fd5b50919050565b601f8211156200013c576000816000526020600020601f850160051c81016020861015620001175750805b601f850160051c820191505b81811015620001385782815560010162000123565b5050505b505050565b81516001600160401b038111156200015d576200015d6200009a565b62000175816200016e8454620000b0565b84620000ec565b602080601f831160018114620001ad5760008415620001945750858301515b600019600386901b1c1916600185901b17855562000138565b600085815260208120601f198616915b82811015620001de57888601518255948401946001909101908401620001bd565b5085821015620001fd5787850151600019600388901b60f8161c191681555b5050505050600190811b01905550565b614b5f806200021d6000396000f3fe6080604052600436106103385760003560e01c8063953de570116101b0578063ca0cdea8116100ec578063d9062de111610095578063e985e9c51161006f578063e985e9c514610aaf578063ed7ae14614610af8578063f157e40e14610b41578063f97203af14610b7a57600080fd5b8063d9062de114610a29578063e218ec7b14610a49578063e6607bb814610a7957600080fd5b8063d6d2771d116100c6578063d6d2771d14610995578063d848c634146109b5578063d8bff5a5146109fc57600080fd5b8063ca0cdea8146108f6578063d2c30a6d14610955578063d60dbe601461097557600080fd5b8063b384abef11610159578063ba3f5a1211610133578063ba3f5a1214610873578063c3e9172914610889578063c4f3c4fc146108b6578063c87b56dd146108d657600080fd5b8063b384abef1461080d578063b761d2991461082d578063b88d4fde1461085357600080fd5b8063a22cb4651161018a578063a22cb465146107ad578063a411ef20146107cd578063a6ad01cf146107ed57600080fd5b8063953de5701461073a57806395d89b4114610776578063974918281461078b57600080fd5b806330ce6b0b1161027f5780635a1f74061161022857806367b44d8a1161020257806367b44d8a146106c557806370a08231146106e55780637452ea221461070557806380d038291461072557600080fd5b80635a1f7406146106455780636352211e14610678578063635c54551461069857600080fd5b806342842e0e1161025957806342842e0e146105e157806342ea884c1461060157806359987f911461062157600080fd5b806330ce6b0b1461057f57806341fcd6cc1461059f5780634243c541146105bf57600080fd5b8063107046bd116102e157806323b872dd116102bb57806323b872dd1461050457806323c55448146105245780633027ffd41461054457600080fd5b8063107046bd14610461578063155dd5ee146104975780631fd0862f146104b757600080fd5b8063086ed93811610312578063086ed938146103ea578063095ea7b3146104115780630fdf190b1461043157600080fd5b806301ffc9a71461035b57806306fdde0314610390578063081812fc146103b257600080fd5b3661035657610354336013543461034f9190613fb6565b610baa565b005b600080fd5b34801561036757600080fd5b5061037b610376366004613fe3565b610c2e565b60405190151581526020015b60405180910390f35b34801561039c57600080fd5b506103a5610c72565b6040516103879190614050565b3480156103be57600080fd5b506103d26103cd366004614063565b610d04565b6040516001600160a01b039091168152602001610387565b3480156103f657600080fd5b506103ff610d2d565b6040516103879695949392919061413c565b34801561041d57600080fd5b5061035461042c366004614208565b611053565b34801561043d57600080fd5b5061037b61044c366004614063565b60026020526000908152604090205460ff1681565b34801561046d57600080fd5b5061048161047c366004614063565b611062565b6040516103879a99989796959493929190614242565b3480156104a357600080fd5b506103546104b2366004614063565b6111d0565b3480156104c357600080fd5b5061037b6104d2366004614063565b6000908152600160209081526040808320546001600160a01b0316835290829052902060068101546005909101541090565b34801561051057600080fd5b5061035461051f3660046142be565b61128b565b34801561053057600080fd5b5061035461053f3660046143a6565b61132f565b34801561055057600080fd5b5061037b61055f366004614063565b600090815260056020819052604090912090810154600690910154101590565b34801561058b57600080fd5b5061035461059a366004614413565b611737565b3480156105ab57600080fd5b506103546105ba366004614063565b611873565b3480156105cb57600080fd5b506105d4611881565b6040516103879190614435565b3480156105ed57600080fd5b506103546105fc3660046142be565b6118a9565b34801561060d57600080fd5b5061035461061c366004614063565b6118c9565b34801561062d57600080fd5b5061063760045481565b604051908152602001610387565b34801561065157600080fd5b5061066561066036600461452d565b6118d4565b6040516103879796959493929190614548565b34801561068457600080fd5b506103d2610693366004614063565b611a2f565b3480156106a457600080fd5b506106b86106b3366004614063565b611a3a565b60405161038791906145a7565b3480156106d157600080fd5b506105d46106e0366004614413565b611bf9565b3480156106f157600080fd5b5061063761070036600461452d565b611f74565b34801561071157600080fd5b50610354610720366004614063565b611fd5565b34801561073157600080fd5b506105d461205c565b34801561074657600080fd5b5061037b61075536600461452d565b6001600160a01b039081166000818152601260205260409020549091161490565b34801561078257600080fd5b506103a5612072565b34801561079757600080fd5b5061037b6107a6366004614063565b6007541190565b3480156107b957600080fd5b506103546107c8366004614632565b612081565b3480156107d957600080fd5b506103546107e836600461466e565b61208c565b3480156107f957600080fd5b506103546108083660046146d2565b61219a565b34801561081957600080fd5b50610354610828366004614413565b612260565b34801561083957600080fd5b50610842612528565b60405161038795949392919061470b565b34801561085f57600080fd5b5061035461086e366004614778565b6128e9565b34801561087f57600080fd5b5061063760135481565b34801561089557600080fd5b506106376108a4366004614063565b60066020526000908152604090205481565b3480156108c257600080fd5b5061037b6108d1366004614063565b612900565b3480156108e257600080fd5b506103a56108f1366004614063565b612927565b34801561090257600080fd5b5061093661091136600461452d565b601260205260009081526040902080546001909101546001600160a01b039091169082565b604080516001600160a01b039093168352602083019190915201610387565b34801561096157600080fd5b506106b861097036600461452d565b612a38565b34801561098157600080fd5b50610354610990366004614063565b612a8a565b3480156109a157600080fd5b506103546109b03660046147f4565b612b77565b3480156109c157600080fd5b5061037b6109d0366004614063565b6000908152600160209081526040808320546001600160a01b0316835290829052902060050154151590565b348015610a0857600080fd5b50610637610a1736600461452d565b60086020526000908152604090205481565b348015610a3557600080fd5b50610354610a44366004614063565b612c84565b348015610a5557600080fd5b5061037b610a64366004614063565b60036020526000908152604090205460ff1681565b348015610a8557600080fd5b506103d2610a94366004614063565b6001602052600090815260409020546001600160a01b031681565b348015610abb57600080fd5b5061037b610aca366004614831565b6001600160a01b039182166000908152600e6020908152604080832093909416825291909152205460ff1690565b348015610b0457600080fd5b50610b34610b1336600461452d565b6001600160a01b031660009081526020819052604090206004015460ff1690565b6040516103879190614864565b348015610b4d57600080fd5b50610637610b5c36600461452d565b6001600160a01b031660009081526012602052604090206001015490565b348015610b8657600080fd5b5061037b610b95366004614063565b60116020526000908152604090205460ff1681565b6001600160a01b0380831660008181526012602052604090205490911614610bfa57610bfa826001600160a01b0316600081815260126020526040902080546001600160a01b0319169091179055565b6001600160a01b03821660009081526012602052604081206001018054839290610c25908490614872565b90915550505050565b60006001600160e01b031982167f49064906000000000000000000000000000000000000000000000000000000001480610c6c5750610c6c82612d0b565b92915050565b606060098054610c8190614885565b80601f0160208091040260200160405190810160405280929190818152602001828054610cad90614885565b8015610cfa5780601f10610ccf57610100808354040283529160200191610cfa565b820191906000526020600020905b815481529060010190602001808311610cdd57829003601f168201915b5050505050905090565b6000610d0f82612da6565b506000828152600d60205260409020546001600160a01b0316610c6c565b606080606080606080600060045467ffffffffffffffff811115610d5357610d536142fa565b604051908082528060200260200182016040528015610d7c578160200160208202803683370190505b509050600060045467ffffffffffffffff811115610d9c57610d9c6142fa565b604051908082528060200260200182016040528015610dcf57816020015b6060815260200190600190039081610dba5790505b509050600060045467ffffffffffffffff811115610def57610def6142fa565b604051908082528060200260200182016040528015610e2257816020015b6060815260200190600190039081610e0d5790505b509050600060045467ffffffffffffffff811115610e4257610e426142fa565b604051908082528060200260200182016040528015610e6b578160200160208202803683370190505b509050600060045467ffffffffffffffff811115610e8b57610e8b6142fa565b604051908082528060200260200182016040528015610eb4578160200160208202803683370190505b509050600060045467ffffffffffffffff811115610ed457610ed46142fa565b604051908082528060200260200182016040528015610efd578160200160208202803683370190505b509050610f0b600454612ddf565b85600081518110610f1e57610f1e6148bf565b602002602001018190525060005b60045481101561103f576000610f4182611a3a565b90508060000151888381518110610f5a57610f5a6148bf565b6020026020010181815250508060400151878381518110610f7d57610f7d6148bf565b60200260200101819052508060600151868381518110610f9f57610f9f6148bf565b60200260200101819052508060800151858381518110610fc157610fc16148bf565b60200260200101906003811115610fda57610fda614112565b90816003811115610fed57610fed614112565b815250508060a00151848381518110611008576110086148bf565b6020026020010181815250508060c0015183838151811061102b5761102b6148bf565b602090810291909101015250600101610f2c565b50949b939a50919850965094509092509050565b61105e828233612e7f565b5050565b6005602052600090815260409020805460018201546002830154600384018054939492936001600160a01b03909216929161109c90614885565b80601f01602080910402602001604051908101604052809291908181526020018280546110c890614885565b80156111155780601f106110ea57610100808354040283529160200191611115565b820191906000526020600020905b8154815290600101906020018083116110f857829003601f168201915b50505050509080600401805461112a90614885565b80601f016020809104026020016040519081016040528092919081815260200182805461115690614885565b80156111a35780601f10611178576101008083540402835291602001916111a3565b820191906000526020600020905b81548152906001019060200180831161118657829003601f168201915b505050506005830154600684015460078501546008860154600990960154949592949193509160ff16908a565b336000908152601260205260409020600101548111156112375760405162461bcd60e51b815260206004820152601260248201527f496e73756666696369656e742066756e6473000000000000000000000000000060448201526064015b60405180910390fd5b33600090815260126020526040812060010180548392906112599084906148d5565b9091555050604051339082156108fc029083906000818181858888f1935050505015801561105e573d6000803e3d6000fd5b6001600160a01b0382166112b557604051633250574960e11b81526000600482015260240161122e565b60006112c2838333612e8c565b9050836001600160a01b0316816001600160a01b031614611329576040517f64283d7b0000000000000000000000000000000000000000000000000000000081526001600160a01b038086166004830152602482018490528216604482015260640161122e565b50505050565b336000818152602081905260409020600101546001600160a01b0316146113ad5760405162461bcd60e51b815260206004820152602c60248201527f4f6e6c7920616e206f7267616e697a6174696f6e2063616e2063616c6c20746860448201526b34b990333ab731ba34b7b71760a11b606482015260840161122e565b60013360009081526020819052604090206004015460ff1660038111156113d6576113d6614112565b036114495760405162461bcd60e51b815260206004820152602260248201527f54686973206f7267616e69736174696f6e20686173206265656e2062616e6e6560448201527f642e000000000000000000000000000000000000000000000000000000000000606482015260840161122e565b600081116114995760405162461bcd60e51b815260206004820152601b60248201527f476f616c206d7573742062652067726561746572207468616e20300000000000604482015260640161122e565b33600090815260208181526040808320815160e0810183528154815260018201546001600160a01b03169381019390935260028101805491928401916114de90614885565b80601f016020809104026020016040519081016040528092919081815260200182805461150a90614885565b80156115575780601f1061152c57610100808354040283529160200191611557565b820191906000526020600020905b81548152906001019060200180831161153a57829003601f168201915b5050505050815260200160038201805461157090614885565b80601f016020809104026020016040519081016040528092919081815260200182805461159c90614885565b80156115e95780601f106115be576101008083540402835291602001916115e9565b820191906000526020600020905b8154815290600101906020018083116115cc57829003601f168201915b5050509183525050600482015460209091019060ff16600381111561161057611610614112565b600381111561162157611621614112565b8152602001600582015481526020016006820154815250509050336001600160a01b031681602001516001600160a01b0316146116b55760405162461bcd60e51b815260206004820152602c60248201527f4f6e6c7920616e206f7267616e697a6174696f6e2063616e2063616c6c20746860448201526b34b990333ab731ba34b7b71760a11b606482015260840161122e565b6007546000908152600560205260409020815160018201556002810180546001600160a01b03191633179055600381016116ef8682614938565b50600481016116fe8582614938565b506005810183905560088101805460ff191660021790554260098201556007805490600061172b836149f8565b91905055505050505050565b600260008381526005602052604090206008015460ff16600781111561175f5761175f614112565b146117ac5760405162461bcd60e51b815260206004820152601e60248201527f50726f6a656374206973206e6f7420696e20766f74696e672073746174650000604482015260640161122e565b60075482106117fd5760405162461bcd60e51b815260206004820152601260248201527f496e76616c69642070726f6a6563742049440000000000000000000000000000604482015260640161122e565b3360009081526012602052604090206001015481111561185f5760405162461bcd60e51b815260206004820152601a60248201527f496e73756666696369656e7420766f74696e6720746f6b656e73000000000000604482015260640161122e565b6118693382612f87565b61105e8282612260565b61187e81600661301d565b50565b60606118a4600a60075461189591906148d5565b60016007546106e091906148d5565b905090565b6118c4838383604051806020016040528060008152506128e9565b505050565b61187e81600561301d565b60006020819052908152604090208054600182015460028301805492936001600160a01b039092169261190690614885565b80601f016020809104026020016040519081016040528092919081815260200182805461193290614885565b801561197f5780601f106119545761010080835404028352916020019161197f565b820191906000526020600020905b81548152906001019060200180831161196257829003601f168201915b50505050509080600301805461199490614885565b80601f01602080910402602001604051908101604052809291908181526020018280546119c090614885565b8015611a0d5780601f106119e257610100808354040283529160200191611a0d565b820191906000526020600020905b8154815290600101906020018083116119f057829003601f168201915b5050505060048301546005840154600690940154929360ff9091169290915087565b6000610c6c82612da6565b611a42613edc565b6000828152600160208181526040808420546001600160a01b03908116855284835293819020815160e08101835281548152938101549094169183019190915260028301805492939291840191611a9890614885565b80601f0160208091040260200160405190810160405280929190818152602001828054611ac490614885565b8015611b115780601f10611ae657610100808354040283529160200191611b11565b820191906000526020600020905b815481529060010190602001808311611af457829003601f168201915b50505050508152602001600382018054611b2a90614885565b80601f0160208091040260200160405190810160405280929190818152602001828054611b5690614885565b8015611ba35780601f10611b7857610100808354040283529160200191611ba3565b820191906000526020600020905b815481529060010190602001808311611b8657829003601f168201915b5050509183525050600482015460209091019060ff166003811115611bca57611bca614112565b6003811115611bdb57611bdb614112565b81526005820154602082015260069091015460409091015292915050565b606081831115611c4b5760405162461bcd60e51b815260206004820152600d60248201527f496e76616c69642072616e676500000000000000000000000000000000000000604482015260640161122e565b6007548210611ca65760405162461bcd60e51b815260206004820152602160248201527f52616e676520657863656564732070726f6a656374206c697374206c656e67746044820152600d60fb1b606482015260840161122e565b6007548310611d015760405162461bcd60e51b815260206004820152602160248201527f52616e676520657863656564732070726f6a656374206c697374206c656e67746044820152600d60fb1b606482015260840161122e565b6000611d0d84846148d5565b611d18906001614872565b67ffffffffffffffff811115611d3057611d306142fa565b604051908082528060200260200182016040528015611d6957816020015b611d56613f33565b815260200190600190039081611d4e5790505b509050835b838111611f6c576000818152600560209081526040918290208251610140810184528154815260018201549281019290925260028101546001600160a01b031692820192909252600382018054919291606084019190611dcd90614885565b80601f0160208091040260200160405190810160405280929190818152602001828054611df990614885565b8015611e465780601f10611e1b57610100808354040283529160200191611e46565b820191906000526020600020905b815481529060010190602001808311611e2957829003601f168201915b50505050508152602001600482018054611e5f90614885565b80601f0160208091040260200160405190810160405280929190818152602001828054611e8b90614885565b8015611ed85780601f10611ead57610100808354040283529160200191611ed8565b820191906000526020600020905b815481529060010190602001808311611ebb57829003601f168201915b505050918352505060058201546020820152600682015460408201526007808301546060830152600883015460809092019160ff1690811115611f1d57611f1d614112565b6007811115611f2e57611f2e614112565b8152602001600982015481525050828281518110611f4e57611f4e6148bf565b60200260200101819052508080611f64906149f8565b915050611d6e565b509392505050565b60006001600160a01b038216611fb9576040517f89c62b640000000000000000000000000000000000000000000000000000000081526000600482015260240161122e565b506001600160a01b03166000908152600c602052604090205490565b336000818152601260205260409020546001600160a01b0316146120475760405162461bcd60e51b815260206004820152602360248201527f4f6e6c7920646f6e6f72732063616e2063616c6c20746869732066756e63746960448201526237b71760e91b606482015260840161122e565b6120533382600161308d565b61187e81613126565b60606118a4600060016007546106e091906148d5565b6060600a8054610c8190614885565b61105e338383613196565b6040805160e08101825260045481523360208201529081018390526060810182905260808101600081526000602080830182905260409283018290523382528181529082902083518155908301516001820180546001600160a01b0319166001600160a01b0390921691909117905590820151600282019061210e9082614938565b50606082015160038201906121239082614938565b50608082015160048201805460ff1916600183600381111561214757612147614112565b021790555060a0820151600582015560c09091015160069091015560048054600090815260016020526040812080546001600160a01b0319163317905581549190612191836149f8565b91905055505050565b60075483106121eb5760405162461bcd60e51b815260206004820152601260248201527f496e76616c69642070726f6a6563742049440000000000000000000000000000604482015260640161122e565b60008381526005602081905260409091209081015460069091015410156122545760405162461bcd60e51b815260206004820152601660248201527f50726f6a656374206e6f742066756e6465642079657400000000000000000000604482015260640161122e565b6113298484848461324e565b60008281526005602052604081206007018054839290612281908490614872565b9091555050600082815260056020526040812060060180548392906122a7908490614872565b90915550506000828152600560208190526040909120908101546006909101541061105e57600082815260056020908152604091829020600601548251858152918201527f5bc6714ccad33557efe1cb9d18fa771135ab68961f6add3d4bb6f115adec81a4910160405180910390a160008281526005602090815260408083208151610140810183528154815260018201549381019390935260028101546001600160a01b03169183019190915260038101805460608401919061236a90614885565b80601f016020809104026020016040519081016040528092919081815260200182805461239690614885565b80156123e35780601f106123b8576101008083540402835291602001916123e3565b820191906000526020600020905b8154815290600101906020018083116123c657829003601f168201915b505050505081526020016004820180546123fc90614885565b80601f016020809104026020016040519081016040528092919081815260200182805461242890614885565b80156124755780601f1061244a57610100808354040283529160200191612475565b820191906000526020600020905b81548152906001019060200180831161245857829003601f168201915b505050918352505060058201546020820152600682015460408201526007808301546060830152600883015460809092019160ff16908111156124ba576124ba614112565b60078111156124cb576124cb614112565b815260200160098201548152505090506124e88160400151612a38565b602001516001600160a01b03166108fc8260c001519081150290604051600060405180830381858888f19350505050158015611329573d6000803e3d6000fd5b6060806060806060600060075467ffffffffffffffff81111561254d5761254d6142fa565b60405190808252806020026020018201604052801561258057816020015b606081526020019060019003908161256b5790505b509050600060075467ffffffffffffffff8111156125a0576125a06142fa565b6040519080825280602002602001820160405280156125d357816020015b60608152602001906001900390816125be5790505b509050600060075467ffffffffffffffff8111156125f3576125f36142fa565b60405190808252806020026020018201604052801561261c578160200160208202803683370190505b509050600060075467ffffffffffffffff81111561263c5761263c6142fa565b604051908082528060200260200182016040528015612665578160200160208202803683370190505b509050600060075467ffffffffffffffff811115612685576126856142fa565b6040519080825280602002602001820160405280156126ae578160200160208202803683370190505b50905060005b6007548110156128d757600081815260056020526040902060030180546126da90614885565b80601f016020809104026020016040519081016040528092919081815260200182805461270690614885565b80156127535780601f1061272857610100808354040283529160200191612753565b820191906000526020600020905b81548152906001019060200180831161273657829003601f168201915b505050505086828151811061276a5761276a6148bf565b602002602001018190525060056000828152602001908152602001600020600401805461279690614885565b80601f01602080910402602001604051908101604052809291908181526020018280546127c290614885565b801561280f5780601f106127e45761010080835404028352916020019161280f565b820191906000526020600020905b8154815290600101906020018083116127f257829003601f168201915b5050505050858281518110612826576128266148bf565b6020026020010181905250600560008281526020019081526020016000206005015484828151811061285a5761285a6148bf565b602002602001018181525050600560008281526020019081526020016000206006015483828151811061288f5761288f6148bf565b60200260200101818152505060056000828152602001908152602001600020600001548282815181106128c4576128c46148bf565b60209081029190910101526001016126b4565b50939992985090965094509092509050565b6128f484848461128b565b61132984848484613414565b60008181526005602052604081206009015461291f906249d400614872565b421192915050565b606061293282612da6565b506000828152600f60205260408120805461294c90614885565b80601f016020809104026020016040519081016040528092919081815260200182805461297890614885565b80156129c55780601f1061299a576101008083540402835291602001916129c5565b820191906000526020600020905b8154815290600101906020018083116129a857829003601f168201915b5050505050905060006129e360408051602081019091526000815290565b905080516000036129f5575092915050565b815115612a27578082604051602001612a0f929190614a11565b60405160208183030381529060405292505050919050565b612a308461353d565b949350505050565b612a40613edc565b6001600160a01b0380831660009081526020818152604091829020825160e081018452815481526001820154909416918401919091526002810180549192840191611a9890614885565b600081815260056020526040812060010154612aa590611a3a565b60209081015160008481526005909252604090912060060154909150612aca83612900565b15612ada57612ada83600361301d565b60026001600160a01b03831660009081526020819052604090206004015460ff166003811115612b0c57612b0c614112565b14612b1657505050565b600083815260056020819052604090912090810154600690910154106118c457612b4183600461301d565b6040516001600160a01b0383169082156108fc029083906000818181858888f19350505050158015611329573d6000803e3d6000fd5b600460008381526005602052604090206008015460ff166007811115612b9f57612b9f614112565b14612bec5760405162461bcd60e51b815260206004820152601760248201527f50726f6a656374206e6f74207374617274656420796574000000000000000000604482015260640161122e565b6000828152600560205260409020600201546001600160a01b03163314612c7b5760405162461bcd60e51b815260206004820152602260248201527f4f6e6c792070726f6a656374206f776e65722063616e20656e642070726f6a6560448201527f6374000000000000000000000000000000000000000000000000000000000000606482015260840161122e565b61105e826118c9565b336000818152601260205260409020546001600160a01b031614612cf65760405162461bcd60e51b815260206004820152602360248201527f4f6e6c7920646f6e6f72732063616e2063616c6c20746869732066756e63746960448201526237b71760e91b606482015260840161122e565b612d023382600061308d565b61187e816135b1565b60006001600160e01b031982167f80ac58cd000000000000000000000000000000000000000000000000000000001480612d6e57506001600160e01b031982167f5b5e139f00000000000000000000000000000000000000000000000000000000145b80610c6c57507f01ffc9a7000000000000000000000000000000000000000000000000000000006001600160e01b0319831614610c6c565b6000818152600b60205260408120546001600160a01b031680610c6c57604051637e27328960e01b81526004810184905260240161122e565b60606000612dec83613613565b600101905060008167ffffffffffffffff811115612e0c57612e0c6142fa565b6040519080825280601f01601f191660200182016040528015612e36576020820181803683370190505b5090508181016020015b600019017f3031323334353637383961626364656600000000000000000000000000000000600a86061a8153600a8504945084612e4057509392505050565b6118c483838360016136f5565b6000828152600b60205260408120546001600160a01b0390811690831615612eb957612eb9818486613833565b6001600160a01b03811615612ef757612ed66000856000806136f5565b6001600160a01b0381166000908152600c6020526040902080546000190190555b6001600160a01b03851615612f26576001600160a01b0385166000908152600c60205260409020805460010190555b6000848152600b602052604080822080546001600160a01b0319166001600160a01b0389811691821790925591518793918516917fddf252ad1be2c89b69c2b068fc378daa952ba7f163c4a11628f55a4df523b3ef91a490505b9392505050565b6001600160a01b038216600090815260126020526040902060010154811115612ff25760405162461bcd60e51b815260206004820152601a60248201527f496e73756666696369656e7420766f74696e6720746f6b656e73000000000000604482015260640161122e565b6001600160a01b03821660009081526012602052604081206001018054839290610c259084906148d5565b6000828152600560205260409020600801805482919060ff1916600183600781111561304b5761304b614112565b02179055507ffafe884515ca1fa5e0bf815ce87ef00b2cdaa0eee590d20376604937937a10bf8282604051613081929190614a40565b60405180910390a15050565b6130988383836138b0565b156130d7576130a6826138f1565b6000600260006130b7868686613928565b81526020810191909152604001600020805460ff19169115159190911790555b6130e3838383156138b0565b156118c4576130f1826139c4565b600060036000613102868686613928565b81526020810191909152604001600020805460ff1916911515919091179055505050565b60016002600061313833856001613928565b815260208082019290925260409081016000908120805460ff19169415159490941790935583835260018252808320546001600160a01b03168352908290528120600501805491613188836149f8565b919050555061187e816139f7565b6001600160a01b0382166131e1576040517f5b08ba180000000000000000000000000000000000000000000000000000000081526001600160a01b038316600482015260240161122e565b6001600160a01b038381166000818152600e6020908152604080832094871680845294825291829020805460ff191686151590811790915591519182527f17307eab39ab6107e8899845ad3d59bd9653f200f220920489ca2b5937696c31910160405180910390a3505050565b6000613277613267866001600160a01b03166014613ac5565b61327086612ddf565b8585613c9b565b60008181526011602052604090205490915060ff16156132d95760405162461bcd60e51b815260206004820152601360248201527f4e465420616c7265616479206372656174656400000000000000000000000000604482015260640161122e565b6000818152601160205260409020805460ff19166001179055601054613300908690613d20565b6000836040516020016133d791907f646174613a6170706c69636174696f6e2f6a736f6e2c7b2250726f6a6563742081527f5469746c65223a22446f6e6174696f6e204e4654222c2264657363726970746960208201527f6f6e223a22202b2070726f6a656374735b5f70726f6a65637449645d2e70726f60408201527f6a6563744465736372697074696f6e2829202b20000000000000000000000000606082015260748101919091527f2045544820746f2074686520636f6e74726163742e227d000000000000000000609482015260ab0190565b60405160208183030381529060405290506133f460105482613d3a565b6001601060008282546134079190614872565b9091555050505050505050565b6001600160a01b0383163b1561132957604051630a85bd0160e11b81526001600160a01b0384169063150b7a0290613456903390889087908790600401614a54565b6020604051808303816000875af1925050508015613491575060408051601f3d908101601f1916820190925261348e91810190614a86565b60015b6134fa573d8080156134bf576040519150601f19603f3d011682016040523d82523d6000602084013e6134c4565b606091505b5080516000036134f257604051633250574960e11b81526001600160a01b038516600482015260240161122e565b805181602001fd5b6001600160e01b03198116630a85bd0160e11b1461353657604051633250574960e11b81526001600160a01b038516600482015260240161122e565b5050505050565b606061354882612da6565b50600061356060408051602081019091526000815290565b905060008151116135805760405180602001604052806000815250612f80565b8061358a84612ddf565b60405160200161359b929190614a11565b6040516020818303038152906040529392505050565b6001600260006135c333856001613928565b815260208082019290925260409081016000908120805460ff19169415159490941790935583835260018252808320546001600160a01b03168352908290528120600601805491613188836149f8565b6000807a184f03e93ff9f4daa797ed6e38ed64bf6a1f010000000000000000831061365c577a184f03e93ff9f4daa797ed6e38ed64bf6a1f010000000000000000830492506040015b6d04ee2d6d415b85acef81000000008310613688576d04ee2d6d415b85acef8100000000830492506020015b662386f26fc1000083106136a657662386f26fc10000830492506010015b6305f5e10083106136be576305f5e100830492506008015b61271083106136d257612710830492506004015b606483106136e4576064830492506002015b600a8310610c6c5760010192915050565b808061370957506001600160a01b03821615155b1561380357600061371984612da6565b90506001600160a01b038316158015906137455750826001600160a01b0316816001600160a01b031614155b801561377757506001600160a01b038082166000908152600e602090815260408083209387168352929052205460ff16155b156137b9576040517fa9fbf51f0000000000000000000000000000000000000000000000000000000081526001600160a01b038416600482015260240161122e565b81156138015783856001600160a01b0316826001600160a01b03167f8c5be1e5ebec7d5bd14f71427d1e84f3dd0314c0f7b2291e5b200ac8c7c3b92560405160405180910390a45b505b50506000908152600d6020526040902080546001600160a01b0319166001600160a01b0392909216919091179055565b61383e838383613d83565b6118c4576001600160a01b03831661386c57604051637e27328960e01b81526004810182905260240161122e565b6040517f177e802f0000000000000000000000000000000000000000000000000000000081526001600160a01b03831660048201526024810182905260440161122e565b600081156138e257600260006138c7868686613928565b815260208101919091526040016000205460ff169050612f80565b600360006138c7868686613928565b6000818152600160209081526040808320546001600160a01b03168352908290529020600501805460001901905561187e816139f7565b60408051606085901b6bffffffffffffffffffffffff191660208201526034810184905282151560f81b60548201528151603581830301815260559091019182905260009160029061397b908390614aa3565b602060405180830381855afa158015613998573d6000803e3d6000fd5b5050506040513d601f19601f820116820180604052508101906139bb9190614abf565b95945050505050565b6000818152600160209081526040808320546001600160a01b03168352908290529020600601805460001901905561187e815b6000818152600160209081526040808320546001600160a01b0316835290829052902060068101546005909101541015613a525760008181526001602081905260409091205461187e916001600160a01b0390911690613e06565b6000818152600160209081526040808320546001600160a01b031683529082905290206005015415613aa15760008181526001602052604090205461187e906001600160a01b03166002613e06565b60008181526001602052604081205461187e916001600160a01b0390911690613e06565b6060826000613ad5846002613fb6565b613ae0906002614872565b67ffffffffffffffff811115613af857613af86142fa565b6040519080825280601f01601f191660200182016040528015613b22576020820181803683370190505b5090507f300000000000000000000000000000000000000000000000000000000000000081600081518110613b5957613b596148bf565b60200101906001600160f81b031916908160001a9053507f780000000000000000000000000000000000000000000000000000000000000081600181518110613ba457613ba46148bf565b60200101906001600160f81b031916908160001a9053506000613bc8856002613fb6565b613bd3906001614872565b90505b6001811115613c58577f303132333435363738396162636465660000000000000000000000000000000083600f1660108110613c1457613c146148bf565b1a60f81b828281518110613c2a57613c2a6148bf565b60200101906001600160f81b031916908160001a90535060049290921c91613c5181614ad8565b9050613bd6565b508115612a30576040517fe22e27eb000000000000000000000000000000000000000000000000000000008152600481018690526024810185905260440161122e565b60008085858585604051602001613cb59493929190614aef565b6040516020818303038152906040529050600281604051613cd69190614aa3565b602060405180830381855afa158015613cf3573d6000803e3d6000fd5b5050506040513d601f19601f82011682018060405250810190613d169190614abf565b9695505050505050565b61105e828260405180602001604052806000815250613e47565b6000828152600f60205260409020613d528282614938565b506040518281527ff8e1a15aba9398e019f0b49df1a4fde98ee17ae345cb5f6b5e2c27f5033e8ce790602001613081565b60006001600160a01b03831615801590612a305750826001600160a01b0316846001600160a01b03161480613ddd57506001600160a01b038085166000908152600e602090815260408083209387168352929052205460ff165b80612a305750506000908152600d60205260409020546001600160a01b03908116911614919050565b6001600160a01b0382166000908152602081905260409020600401805482919060ff19166001836003811115613e3e57613e3e614112565b02179055505050565b613e518383613e5e565b6118c46000848484613414565b6001600160a01b038216613e8857604051633250574960e11b81526000600482015260240161122e565b6000613e9683836000612e8c565b90506001600160a01b038116156118c4576040517f73c6ac6e0000000000000000000000000000000000000000000000000000000081526000600482015260240161122e565b6040518060e001604052806000815260200160006001600160a01b03168152602001606081526020016060815260200160006003811115613f1f57613f1f614112565b815260200160008152602001600081525090565b604051806101400160405280600081526020016000815260200160006001600160a01b03168152602001606081526020016060815260200160008152602001600081526020016000815260200160006007811115613f9357613f93614112565b8152602001600081525090565b634e487b7160e01b600052601160045260246000fd5b8082028115828204841417610c6c57610c6c613fa0565b6001600160e01b03198116811461187e57600080fd5b600060208284031215613ff557600080fd5b8135612f8081613fcd565b60005b8381101561401b578181015183820152602001614003565b50506000910152565b6000815180845261403c816020860160208601614000565b601f01601f19169290920160200192915050565b602081526000612f806020830184614024565b60006020828403121561407557600080fd5b5035919050565b60008151808452602080850194506020840160005b838110156140ad57815187529582019590820190600101614091565b509495945050505050565b60008282518085526020808601955060208260051b8401016020860160005b8481101561410557601f198684030189526140f3838351614024565b988401989250908301906001016140d7565b5090979650505050505050565b634e487b7160e01b600052602160045260246000fd5b6004811061413857614138614112565b9052565b60c08152600061414f60c083018961407c565b60208382036020850152614163828a6140b8565b9150838203604085015261417782896140b8565b848103606086015287518082526020808a0194509091019060005b818110156141b5576141a5838651614128565b9383019391830191600101614192565b505084810360808601526141c9818861407c565b9250505082810360a08401526141df818561407c565b9998505050505050505050565b80356001600160a01b038116811461420357600080fd5b919050565b6000806040838503121561421b57600080fd5b614224836141ec565b946020939093013593505050565b6008811061413857614138614112565b60006101408c83528b60208401526001600160a01b038b1660408401528060608401526142718184018b614024565b90508281036080840152614285818a614024565b9150508660a08301528560c08301528460e08301526142a8610100830185614232565b826101208301529b9a5050505050505050505050565b6000806000606084860312156142d357600080fd5b6142dc846141ec565b92506142ea602085016141ec565b9150604084013590509250925092565b634e487b7160e01b600052604160045260246000fd5b600067ffffffffffffffff8084111561432b5761432b6142fa565b604051601f8501601f19908116603f01168101908282118183101715614353576143536142fa565b8160405280935085815286868601111561436c57600080fd5b858560208301376000602087830101525050509392505050565b600082601f83011261439757600080fd5b612f8083833560208501614310565b6000806000606084860312156143bb57600080fd5b833567ffffffffffffffff808211156143d357600080fd5b6143df87838801614386565b945060208601359150808211156143f557600080fd5b5061440286828701614386565b925050604084013590509250925092565b6000806040838503121561442657600080fd5b50508035926020909101359150565b600060208083018184528085518083526040925060408601915060408160051b87010184880160005b8381101561451f57888303603f190185528151805184528781015188850152868101516001600160a01b03811688860152610140905060608083015182828801526144ab83880182614024565b92505050608080830151868303828801526144c68382614024565b9250505060a080830151818701525060c080830151818701525060e0808301518187015250610100808301516144fe82880182614232565b5050610120918201519490910193909352938601939086019060010161445e565b509098975050505050505050565b60006020828403121561453f57600080fd5b612f80826141ec565b8781526001600160a01b038716602082015260e06040820152600061457060e0830188614024565b82810360608401526145828188614024565b9150506145926080830186614128565b60a082019390935260c0015295945050505050565b60208152815160208201526001600160a01b0360208301511660408201526000604083015160e060608401526145e1610100840182614024565b90506060840151601f198483030160808501526145fe8282614024565b915050608084015161461360a0850182614128565b5060a084015160c084015260c084015160e08401528091505092915050565b6000806040838503121561464557600080fd5b61464e836141ec565b91506020830135801515811461466357600080fd5b809150509250929050565b6000806040838503121561468157600080fd5b823567ffffffffffffffff8082111561469957600080fd5b6146a586838701614386565b935060208501359150808211156146bb57600080fd5b506146c885828601614386565b9150509250929050565b600080600080608085870312156146e857600080fd5b6146f1856141ec565b966020860135965060408601359560600135945092505050565b60a08152600061471e60a08301886140b8565b828103602084015261473081886140b8565b90508281036040840152614744818761407c565b90508281036060840152614758818661407c565b9050828103608084015261476c818561407c565b98975050505050505050565b6000806000806080858703121561478e57600080fd5b614797856141ec565b93506147a5602086016141ec565b925060408501359150606085013567ffffffffffffffff8111156147c857600080fd5b8501601f810187136147d957600080fd5b6147e887823560208401614310565b91505092959194509250565b6000806040838503121561480757600080fd5b82359150602083013567ffffffffffffffff81111561482557600080fd5b6146c885828601614386565b6000806040838503121561484457600080fd5b61484d836141ec565b915061485b602084016141ec565b90509250929050565b60208101610c6c8284614128565b80820180821115610c6c57610c6c613fa0565b600181811c9082168061489957607f821691505b6020821081036148b957634e487b7160e01b600052602260045260246000fd5b50919050565b634e487b7160e01b600052603260045260246000fd5b81810381811115610c6c57610c6c613fa0565b601f8211156118c4576000816000526020600020601f850160051c810160208610156149115750805b601f850160051c820191505b818110156149305782815560010161491d565b505050505050565b815167ffffffffffffffff811115614952576149526142fa565b614966816149608454614885565b846148e8565b602080601f83116001811461499b57600084156149835750858301515b600019600386901b1c1916600185901b178555614930565b600085815260208120601f198616915b828110156149ca578886015182559484019460019091019084016149ab565b50858210156149e85787850151600019600388901b60f8161c191681555b5050505050600190811b01905550565b600060018201614a0a57614a0a613fa0565b5060010190565b60008351614a23818460208801614000565b835190830190614a37818360208801614000565b01949350505050565b82815260408101612f806020830184614232565b60006001600160a01b03808716835280861660208401525083604083015260806060830152613d166080830184614024565b600060208284031215614a9857600080fd5b8151612f8081613fcd565b60008251614ab5818460208701614000565b9190910192915050565b600060208284031215614ad157600080fd5b5051919050565b600081614ae757614ae7613fa0565b506000190190565b60008551614b01818460208a01614000565b855190830190614b15818360208a01614000565b01938452505060208201526040019291505056fea26469706673582212207eb2d0eee842cef83ddcebcba1bd8cfb493bac7d3ff00c84b0c0a8b141b12f3464736f6c63430008180033",
  "linkReferences": {},
  "deployedLinkReferences": {}
}