{
  "_format": "hh-sol-artifact-1",
  "contractName": "DAO_SLR",
  "sourceName": "contracts/DAO_SLR.sol",
  "abi": [
    {
      "inputs": [
        {
          "internalType": "address",
          "name": "sender",
          "type": "address"
        },
        {
          "internalType": "uint256",
          "name": "tokenId",
          "type": "uint256"
        },
        {
          "internalType": "address",
          "name": "owner",
          "type": "address"
        }
      ],
      "name": "ERC721IncorrectOwner",
      "type": "error"
    },
    {
      "inputs": [
        {
          "internalType": "address",
          "name": "operator",
          "type": "address"
        },
        {
          "internalType": "uint256",
          "name": "tokenId",
          "type": "uint256"
        }
      ],
      "name": "ERC721InsufficientApproval",
      "type": "error"
    },
    {
      "inputs": [
        {
          "internalType": "address",
          "name": "approver",
          "type": "address"
        }
      ],
      "name": "ERC721InvalidApprover",
      "type": "error"
    },
    {
      "inputs": [
        {
          "internalType": "address",
          "name": "operator",
          "type": "address"
        }
      ],
      "name": "ERC721InvalidOperator",
      "type": "error"
    },
    {
      "inputs": [
        {
          "internalType": "address",
          "name": "owner",
          "type": "address"
        }
      ],
      "name": "ERC721InvalidOwner",
      "type": "error"
    },
    {
      "inputs": [
        {
          "internalType": "address",
          "name": "receiver",
          "type": "address"
        }
      ],
      "name": "ERC721InvalidReceiver",
      "type": "error"
    },
    {
      "inputs": [
        {
          "internalType": "address",
          "name": "sender",
          "type": "address"
        }
      ],
      "name": "ERC721InvalidSender",
      "type": "error"
    },
    {
      "inputs": [
        {
          "internalType": "uint256",
          "name": "tokenId",
          "type": "uint256"
        }
      ],
      "name": "ERC721NonexistentToken",
      "type": "error"
    },
    {
      "inputs": [
        {
          "internalType": "uint256",
          "name": "value",
          "type": "uint256"
        },
        {
          "internalType": "uint256",
          "name": "length",
          "type": "uint256"
        }
      ],
      "name": "StringsInsufficientHexLength",
      "type": "error"
    },
    {
      "anonymous": false,
      "inputs": [
        {
          "indexed": true,
          "internalType": "address",
          "name": "owner",
          "type": "address"
        },
        {
          "indexed": true,
          "internalType": "address",
          "name": "approved",
          "type": "address"
        },
        {
          "indexed": true,
          "internalType": "uint256",
          "name": "tokenId",
          "type": "uint256"
        }
      ],
      "name": "Approval",
      "type": "event"
    },
    {
      "anonymous": false,
      "inputs": [
        {
          "indexed": true,
          "internalType": "address",
          "name": "owner",
          "type": "address"
        },
        {
          "indexed": true,
          "internalType": "address",
          "name": "operator",
          "type": "address"
        },
        {
          "indexed": false,
          "internalType": "bool",
          "name": "approved",
          "type": "bool"
        }
      ],
      "name": "ApprovalForAll",
      "type": "event"
    },
    {
      "anonymous": false,
      "inputs": [
        {
          "indexed": false,
          "internalType": "uint256",
          "name": "_fromTokenId",
          "type": "uint256"
        },
        {
          "indexed": false,
          "internalType": "uint256",
          "name": "_toTokenId",
          "type": "uint256"
        }
      ],
      "name": "BatchMetadataUpdate",
      "type": "event"
    },
    {
      "anonymous": false,
      "inputs": [
        {
          "indexed": false,
          "internalType": "uint256",
          "name": "_projectId",
          "type": "uint256"
        },
        {
          "indexed": false,
          "internalType": "uint256",
          "name": "_amount",
          "type": "uint256"
        }
      ],
      "name": "FundingGoalReached",
      "type": "event"
    },
    {
      "anonymous": false,
      "inputs": [
        {
          "indexed": false,
          "internalType": "uint256",
          "name": "_tokenId",
          "type": "uint256"
        }
      ],
      "name": "MetadataUpdate",
      "type": "event"
    },
    {
      "anonymous": false,
      "inputs": [
        {
          "indexed": false,
          "internalType": "uint256",
          "name": "_projectId",
          "type": "uint256"
        },
        {
          "indexed": false,
          "internalType": "enum ProjectState",
          "name": "_newState",
          "type": "uint8"
        }
      ],
      "name": "StateChanged",
      "type": "event"
    },
    {
      "anonymous": false,
      "inputs": [
        {
          "indexed": true,
          "internalType": "address",
          "name": "from",
          "type": "address"
        },
        {
          "indexed": true,
          "internalType": "address",
          "name": "to",
          "type": "address"
        },
        {
          "indexed": true,
          "internalType": "uint256",
          "name": "tokenId",
          "type": "uint256"
        }
      ],
      "name": "Transfer",
      "type": "event"
    },
    {
      "inputs": [
        {
          "internalType": "address",
          "name": "to",
          "type": "address"
        },
        {
          "internalType": "uint256",
          "name": "tokenId",
          "type": "uint256"
        }
      ],
      "name": "approve",
      "outputs": [],
      "stateMutability": "nonpayable",
      "type": "function"
    },
    {
      "inputs": [
        {
          "internalType": "address",
          "name": "owner",
          "type": "address"
        }
      ],
      "name": "balanceOf",
      "outputs": [
        {
          "internalType": "uint256",
          "name": "",
          "type": "uint256"
        }
      ],
      "stateMutability": "view",
      "type": "function"
    },
    {
      "inputs": [
        {
          "internalType": "string",
          "name": "_organizationName",
          "type": "string"
        },
        {
          "internalType": "string",
          "name": "_organizationDescription",
          "type": "string"
        }
      ],
      "name": "createOrganization",
      "outputs": [],
      "stateMutability": "nonpayable",
      "type": "function"
    },
    {
      "inputs": [
        {
          "internalType": "string",
          "name": "_title",
          "type": "string"
        },
        {
          "internalType": "string",
          "name": "_description",
          "type": "string"
        },
        {
          "internalType": "uint256",
          "name": "_goal",
          "type": "uint256"
        }
      ],
      "name": "createProject",
      "outputs": [],
      "stateMutability": "nonpayable",
      "type": "function"
    },
    {
      "inputs": [
        {
          "internalType": "address",
          "name": "_recipient",
          "type": "address"
        },
        {
          "internalType": "uint256",
          "name": "_projectId",
          "type": "uint256"
        },
        {
          "internalType": "uint256",
          "name": "_donationAmount",
          "type": "uint256"
        },
        {
          "internalType": "uint256",
          "name": "_timestamp",
          "type": "uint256"
        }
      ],
      "name": "createReceipt",
      "outputs": [],
      "stateMutability": "nonpayable",
      "type": "function"
    },
    {
      "inputs": [
        {
          "internalType": "address",
          "name": "_donor",
          "type": "address"
        }
      ],
      "name": "doesDonorExist",
      "outputs": [
        {
          "internalType": "bool",
          "name": "",
          "type": "bool"
        }
      ],
      "stateMutability": "view",
      "type": "function"
    },
    {
      "inputs": [
        {
          "internalType": "uint256",
          "name": "_projectId",
          "type": "uint256"
        }
      ],
      "name": "doesProjectExist",
      "outputs": [
        {
          "internalType": "bool",
          "name": "",
          "type": "bool"
        }
      ],
      "stateMutability": "view",
      "type": "function"
    },
    {
      "inputs": [
        {
          "internalType": "address",
          "name": "",
          "type": "address"
        }
      ],
      "name": "donors",
      "outputs": [
        {
          "internalType": "address",
          "name": "donorAddress",
          "type": "address"
        },
        {
          "internalType": "uint256",
          "name": "votingTokens",
          "type": "uint256"
        }
      ],
      "stateMutability": "view",
      "type": "function"
    },
    {
      "inputs": [
        {
          "internalType": "uint256",
          "name": "_projectId",
          "type": "uint256"
        },
        {
          "internalType": "string",
          "name": "_proofUrl",
          "type": "string"
        }
      ],
      "name": "endProject",
      "outputs": [],
      "stateMutability": "nonpayable",
      "type": "function"
    },
    {
      "inputs": [
        {
          "internalType": "uint256",
          "name": "_projectId",
          "type": "uint256"
        }
      ],
      "name": "exceededTimeLimit",
      "outputs": [
        {
          "internalType": "bool",
          "name": "",
          "type": "bool"
        }
      ],
      "stateMutability": "view",
      "type": "function"
    },
    {
      "inputs": [],
      "name": "getAllOrganizations",
      "outputs": [
        {
          "internalType": "uint256[]",
          "name": "ids",
          "type": "uint256[]"
        },
        {
          "internalType": "string[]",
          "name": "names",
          "type": "string[]"
        },
        {
          "internalType": "string[]",
          "name": "descriptions",
          "type": "string[]"
        },
        {
          "internalType": "enum OrganizationState[]",
          "name": "states",
          "type": "uint8[]"
        },
        {
          "internalType": "uint256[]",
          "name": "upvotes",
          "type": "uint256[]"
        },
        {
          "internalType": "uint256[]",
          "name": "downvotes",
          "type": "uint256[]"
        }
      ],
      "stateMutability": "view",
      "type": "function"
    },
    {
      "inputs": [],
      "name": "getAllProjects",
      "outputs": [
        {
          "components": [
            {
              "internalType": "uint256",
              "name": "projectId",
              "type": "uint256"
            },
            {
              "internalType": "uint256",
              "name": "organizationId",
              "type": "uint256"
            },
            {
              "internalType": "address payable",
              "name": "projectOwner",
              "type": "address"
            },
            {
              "internalType": "string",
              "name": "projectTitle",
              "type": "string"
            },
            {
              "internalType": "string",
              "name": "projectDescription",
              "type": "string"
            },
            {
              "internalType": "uint256",
              "name": "fundingGoal",
              "type": "uint256"
            },
            {
              "internalType": "uint256",
              "name": "currentFunding",
              "type": "uint256"
            },
            {
              "internalType": "uint256",
              "name": "totalVotes",
              "type": "uint256"
            },
            {
              "internalType": "enum ProjectState",
              "name": "state",
              "type": "uint8"
            },
            {
              "internalType": "uint256",
              "name": "creationTimestamp",
              "type": "uint256"
            }
          ],
          "internalType": "struct Project[]",
          "name": "",
          "type": "tuple[]"
        }
      ],
      "stateMutability": "view",
      "type": "function"
    },
    {
      "inputs": [],
      "name": "getAllProjectsTest",
      "outputs": [
        {
          "internalType": "string[]",
          "name": "names",
          "type": "string[]"
        },
        {
          "internalType": "string[]",
          "name": "descriptions",
          "type": "string[]"
        },
        {
          "internalType": "uint256[]",
          "name": "goals",
          "type": "uint256[]"
        },
        {
          "internalType": "uint256[]",
          "name": "currentFundings",
          "type": "uint256[]"
        },
        {
          "internalType": "uint256[]",
          "name": "projectIds",
          "type": "uint256[]"
        },
        {
          "internalType": "enum ProjectState[]",
          "name": "states",
          "type": "uint8[]"
        }
      ],
      "stateMutability": "view",
      "type": "function"
    },
    {
      "inputs": [
        {
          "internalType": "uint256",
          "name": "tokenId",
          "type": "uint256"
        }
      ],
      "name": "getApproved",
      "outputs": [
        {
          "internalType": "address",
          "name": "",
          "type": "address"
        }
      ],
      "stateMutability": "view",
      "type": "function"
    },
    {
      "inputs": [
        {
          "internalType": "address",
          "name": "_donor",
          "type": "address"
        }
      ],
      "name": "getDonorTokenBalance",
      "outputs": [
        {
          "internalType": "uint256",
          "name": "",
          "type": "uint256"
        }
      ],
      "stateMutability": "view",
      "type": "function"
    },
    {
      "inputs": [],
      "name": "getLastProject",
      "outputs": [
        {
          "components": [
            {
              "internalType": "uint256",
              "name": "projectId",
              "type": "uint256"
            },
            {
              "internalType": "uint256",
              "name": "organizationId",
              "type": "uint256"
            },
            {
              "internalType": "address payable",
              "name": "projectOwner",
              "type": "address"
            },
            {
              "internalType": "string",
              "name": "projectTitle",
              "type": "string"
            },
            {
              "internalType": "string",
              "name": "projectDescription",
              "type": "string"
            },
            {
              "internalType": "uint256",
              "name": "fundingGoal",
              "type": "uint256"
            },
            {
              "internalType": "uint256",
              "name": "currentFunding",
              "type": "uint256"
            },
            {
              "internalType": "uint256",
              "name": "totalVotes",
              "type": "uint256"
            },
            {
              "internalType": "enum ProjectState",
              "name": "state",
              "type": "uint8"
            },
            {
              "internalType": "uint256",
              "name": "creationTimestamp",
              "type": "uint256"
            }
          ],
          "internalType": "struct Project",
          "name": "",
          "type": "tuple"
        }
      ],
      "stateMutability": "view",
      "type": "function"
    },
    {
      "inputs": [],
      "name": "getLastTenProjects",
      "outputs": [
        {
          "components": [
            {
              "internalType": "uint256",
              "name": "projectId",
              "type": "uint256"
            },
            {
              "internalType": "uint256",
              "name": "organizationId",
              "type": "uint256"
            },
            {
              "internalType": "address payable",
              "name": "projectOwner",
              "type": "address"
            },
            {
              "internalType": "string",
              "name": "projectTitle",
              "type": "string"
            },
            {
              "internalType": "string",
              "name": "projectDescription",
              "type": "string"
            },
            {
              "internalType": "uint256",
              "name": "fundingGoal",
              "type": "uint256"
            },
            {
              "internalType": "uint256",
              "name": "currentFunding",
              "type": "uint256"
            },
            {
              "internalType": "uint256",
              "name": "totalVotes",
              "type": "uint256"
            },
            {
              "internalType": "enum ProjectState",
              "name": "state",
              "type": "uint8"
            },
            {
              "internalType": "uint256",
              "name": "creationTimestamp",
              "type": "uint256"
            }
          ],
          "internalType": "struct Project[]",
          "name": "",
          "type": "tuple[]"
        }
      ],
      "stateMutability": "view",
      "type": "function"
    },
    {
      "inputs": [
        {
          "internalType": "address",
          "name": "_walletAddress",
          "type": "address"
        }
      ],
      "name": "getOrganization",
      "outputs": [
        {
          "components": [
            {
              "internalType": "uint256",
              "name": "organizationId",
              "type": "uint256"
            },
            {
              "internalType": "address payable",
              "name": "walletAddress",
              "type": "address"
            },
            {
              "internalType": "string",
              "name": "organizationName",
              "type": "string"
            },
            {
              "internalType": "string",
              "name": "organizationDescription",
              "type": "string"
            },
            {
              "internalType": "enum OrganizationState",
              "name": "state",
              "type": "uint8"
            },
            {
              "internalType": "uint256",
              "name": "votes",
              "type": "uint256"
            },
            {
              "internalType": "uint256",
              "name": "downVotes",
              "type": "uint256"
            }
          ],
          "internalType": "struct Organization",
          "name": "",
          "type": "tuple"
        }
      ],
      "stateMutability": "view",
      "type": "function"
    },
    {
      "inputs": [
        {
          "internalType": "uint256",
          "name": "_orgId",
          "type": "uint256"
        }
      ],
      "name": "getOrganizationById",
      "outputs": [
        {
          "components": [
            {
              "internalType": "uint256",
              "name": "organizationId",
              "type": "uint256"
            },
            {
              "internalType": "address payable",
              "name": "walletAddress",
              "type": "address"
            },
            {
              "internalType": "string",
              "name": "organizationName",
              "type": "string"
            },
            {
              "internalType": "string",
              "name": "organizationDescription",
              "type": "string"
            },
            {
              "internalType": "enum OrganizationState",
              "name": "state",
              "type": "uint8"
            },
            {
              "internalType": "uint256",
              "name": "votes",
              "type": "uint256"
            },
            {
              "internalType": "uint256",
              "name": "downVotes",
              "type": "uint256"
            }
          ],
          "internalType": "struct Organization",
          "name": "",
          "type": "tuple"
        }
      ],
      "stateMutability": "view",
      "type": "function"
    },
    {
      "inputs": [
        {
          "internalType": "address",
          "name": "_walletAddress",
          "type": "address"
        }
      ],
      "name": "getOrganizationState",
      "outputs": [
        {
          "internalType": "enum OrganizationState",
          "name": "",
          "type": "uint8"
        }
      ],
      "stateMutability": "view",
      "type": "function"
    },
    {
      "inputs": [
        {
          "internalType": "uint256",
          "name": "_from",
          "type": "uint256"
        },
        {
          "internalType": "uint256",
          "name": "_to",
          "type": "uint256"
        }
      ],
      "name": "getProjectsInRange",
      "outputs": [
        {
          "components": [
            {
              "internalType": "uint256",
              "name": "projectId",
              "type": "uint256"
            },
            {
              "internalType": "uint256",
              "name": "organizationId",
              "type": "uint256"
            },
            {
              "internalType": "address payable",
              "name": "projectOwner",
              "type": "address"
            },
            {
              "internalType": "string",
              "name": "projectTitle",
              "type": "string"
            },
            {
              "internalType": "string",
              "name": "projectDescription",
              "type": "string"
            },
            {
              "internalType": "uint256",
              "name": "fundingGoal",
              "type": "uint256"
            },
            {
              "internalType": "uint256",
              "name": "currentFunding",
              "type": "uint256"
            },
            {
              "internalType": "uint256",
              "name": "totalVotes",
              "type": "uint256"
            },
            {
              "internalType": "enum ProjectState",
              "name": "state",
              "type": "uint8"
            },
            {
              "internalType": "uint256",
              "name": "creationTimestamp",
              "type": "uint256"
            }
          ],
          "internalType": "struct Project[]",
          "name": "",
          "type": "tuple[]"
        }
      ],
      "stateMutability": "view",
      "type": "function"
    },
    {
      "inputs": [
        {
          "internalType": "uint256",
          "name": "_orgaId",
          "type": "uint256"
        }
      ],
      "name": "hasEnoughVotesForOnboarding",
      "outputs": [
        {
          "internalType": "bool",
          "name": "",
          "type": "bool"
        }
      ],
      "stateMutability": "view",
      "type": "function"
    },
    {
      "inputs": [
        {
          "internalType": "uint256",
          "name": "_projectId",
          "type": "uint256"
        }
      ],
      "name": "hasReachedFundingGoal",
      "outputs": [
        {
          "internalType": "bool",
          "name": "",
          "type": "bool"
        }
      ],
      "stateMutability": "view",
      "type": "function"
    },
    {
      "inputs": [
        {
          "internalType": "address",
          "name": "owner",
          "type": "address"
        },
        {
          "internalType": "address",
          "name": "operator",
          "type": "address"
        }
      ],
      "name": "isApprovedForAll",
      "outputs": [
        {
          "internalType": "bool",
          "name": "",
          "type": "bool"
        }
      ],
      "stateMutability": "view",
      "type": "function"
    },
    {
      "inputs": [
        {
          "internalType": "uint256",
          "name": "_orgaId",
          "type": "uint256"
        }
      ],
      "name": "isControversial",
      "outputs": [
        {
          "internalType": "bool",
          "name": "",
          "type": "bool"
        }
      ],
      "stateMutability": "view",
      "type": "function"
    },
    {
      "inputs": [],
      "name": "name",
      "outputs": [
        {
          "internalType": "string",
          "name": "",
          "type": "string"
        }
      ],
      "stateMutability": "view",
      "type": "function"
    },
    {
      "inputs": [
        {
          "internalType": "bytes32",
          "name": "",
          "type": "bytes32"
        }
      ],
      "name": "nftsCreated",
      "outputs": [
        {
          "internalType": "bool",
          "name": "",
          "type": "bool"
        }
      ],
      "stateMutability": "view",
      "type": "function"
    },
    {
      "inputs": [
        {
          "internalType": "uint256",
          "name": "",
          "type": "uint256"
        }
      ],
      "name": "organizationIdToAddress",
      "outputs": [
        {
          "internalType": "address",
          "name": "",
          "type": "address"
        }
      ],
      "stateMutability": "view",
      "type": "function"
    },
    {
      "inputs": [
        {
          "internalType": "address",
          "name": "",
          "type": "address"
        }
      ],
      "name": "organizations",
      "outputs": [
        {
          "internalType": "uint256",
          "name": "organizationId",
          "type": "uint256"
        },
        {
          "internalType": "address payable",
          "name": "walletAddress",
          "type": "address"
        },
        {
          "internalType": "string",
          "name": "organizationName",
          "type": "string"
        },
        {
          "internalType": "string",
          "name": "organizationDescription",
          "type": "string"
        },
        {
          "internalType": "enum OrganizationState",
          "name": "state",
          "type": "uint8"
        },
        {
          "internalType": "uint256",
          "name": "votes",
          "type": "uint256"
        },
        {
          "internalType": "uint256",
          "name": "downVotes",
          "type": "uint256"
        }
      ],
      "stateMutability": "view",
      "type": "function"
    },
    {
      "inputs": [],
      "name": "organizationsCount",
      "outputs": [
        {
          "internalType": "uint256",
          "name": "",
          "type": "uint256"
        }
      ],
      "stateMutability": "view",
      "type": "function"
    },
    {
      "inputs": [
        {
          "internalType": "uint256",
          "name": "tokenId",
          "type": "uint256"
        }
      ],
      "name": "ownerOf",
      "outputs": [
        {
          "internalType": "address",
          "name": "",
          "type": "address"
        }
      ],
      "stateMutability": "view",
      "type": "function"
    },
    {
      "inputs": [
        {
          "internalType": "uint256",
          "name": "",
          "type": "uint256"
        }
      ],
      "name": "projectToOrganization",
      "outputs": [
        {
          "internalType": "uint256",
          "name": "",
          "type": "uint256"
        }
      ],
      "stateMutability": "view",
      "type": "function"
    },
    {
      "inputs": [
        {
          "internalType": "uint256",
          "name": "",
          "type": "uint256"
        }
      ],
      "name": "projects",
      "outputs": [
        {
          "internalType": "uint256",
          "name": "projectId",
          "type": "uint256"
        },
        {
          "internalType": "uint256",
          "name": "organizationId",
          "type": "uint256"
        },
        {
          "internalType": "address payable",
          "name": "projectOwner",
          "type": "address"
        },
        {
          "internalType": "string",
          "name": "projectTitle",
          "type": "string"
        },
        {
          "internalType": "string",
          "name": "projectDescription",
          "type": "string"
        },
        {
          "internalType": "uint256",
          "name": "fundingGoal",
          "type": "uint256"
        },
        {
          "internalType": "uint256",
          "name": "currentFunding",
          "type": "uint256"
        },
        {
          "internalType": "uint256",
          "name": "totalVotes",
          "type": "uint256"
        },
        {
          "internalType": "enum ProjectState",
          "name": "state",
          "type": "uint8"
        },
        {
          "internalType": "uint256",
          "name": "creationTimestamp",
          "type": "uint256"
        }
      ],
      "stateMutability": "view",
      "type": "function"
    },
    {
      "inputs": [
        {
          "internalType": "address",
          "name": "from",
          "type": "address"
        },
        {
          "internalType": "address",
          "name": "to",
          "type": "address"
        },
        {
          "internalType": "uint256",
          "name": "tokenId",
          "type": "uint256"
        }
      ],
      "name": "safeTransferFrom",
      "outputs": [],
      "stateMutability": "nonpayable",
      "type": "function"
    },
    {
      "inputs": [
        {
          "internalType": "address",
          "name": "from",
          "type": "address"
        },
        {
          "internalType": "address",
          "name": "to",
          "type": "address"
        },
        {
          "internalType": "uint256",
          "name": "tokenId",
          "type": "uint256"
        },
        {
          "internalType": "bytes",
          "name": "data",
          "type": "bytes"
        }
      ],
      "name": "safeTransferFrom",
      "outputs": [],
      "stateMutability": "nonpayable",
      "type": "function"
    },
    {
      "inputs": [
        {
          "internalType": "address",
          "name": "operator",
          "type": "address"
        },
        {
          "internalType": "bool",
          "name": "approved",
          "type": "bool"
        }
      ],
      "name": "setApprovalForAll",
      "outputs": [],
      "stateMutability": "nonpayable",
      "type": "function"
    },
    {
      "inputs": [
        {
          "internalType": "bytes4",
          "name": "interfaceId",
          "type": "bytes4"
        }
      ],
      "name": "supportsInterface",
      "outputs": [
        {
          "internalType": "bool",
          "name": "",
          "type": "bool"
        }
      ],
      "stateMutability": "view",
      "type": "function"
    },
    {
      "inputs": [],
      "name": "symbol",
      "outputs": [
        {
          "internalType": "string",
          "name": "",
          "type": "string"
        }
      ],
      "stateMutability": "view",
      "type": "function"
    },
    {
      "inputs": [],
      "name": "tokenMultiplier",
      "outputs": [
        {
          "internalType": "uint256",
          "name": "",
          "type": "uint256"
        }
      ],
      "stateMutability": "view",
      "type": "function"
    },
    {
      "inputs": [
        {
          "internalType": "uint256",
          "name": "tokenId",
          "type": "uint256"
        }
      ],
      "name": "tokenURI",
      "outputs": [
        {
          "internalType": "string",
          "name": "",
          "type": "string"
        }
      ],
      "stateMutability": "view",
      "type": "function"
    },
    {
      "inputs": [
        {
          "internalType": "address",
          "name": "from",
          "type": "address"
        },
        {
          "internalType": "address",
          "name": "to",
          "type": "address"
        },
        {
          "internalType": "uint256",
          "name": "tokenId",
          "type": "uint256"
        }
      ],
      "name": "transferFrom",
      "outputs": [],
      "stateMutability": "nonpayable",
      "type": "function"
    },
    {
      "inputs": [
        {
          "internalType": "uint256",
          "name": "_projectId",
          "type": "uint256"
        }
      ],
      "name": "transitionFromEnded",
      "outputs": [],
      "stateMutability": "nonpayable",
      "type": "function"
    },
    {
      "inputs": [
        {
          "internalType": "uint256",
          "name": "_projectId",
          "type": "uint256"
        }
      ],
      "name": "transitionFromStarted",
      "outputs": [],
      "stateMutability": "nonpayable",
      "type": "function"
    },
    {
      "inputs": [
        {
          "internalType": "uint256",
          "name": "_projectId",
          "type": "uint256"
        }
      ],
      "name": "transitionFromVoting",
      "outputs": [],
      "stateMutability": "nonpayable",
      "type": "function"
    },
    {
      "inputs": [
        {
          "internalType": "uint256",
          "name": "_projectId",
          "type": "uint256"
        },
        {
          "internalType": "uint256",
          "name": "_amount",
          "type": "uint256"
        }
      ],
      "name": "vote",
      "outputs": [],
      "stateMutability": "nonpayable",
      "type": "function"
    },
    {
      "inputs": [
        {
          "internalType": "uint256",
          "name": "_orgaId",
          "type": "uint256"
        }
      ],
      "name": "voteAgainstOrganization",
      "outputs": [],
      "stateMutability": "nonpayable",
      "type": "function"
    },
    {
      "inputs": [
        {
          "internalType": "uint256",
          "name": "_orgaId",
          "type": "uint256"
        }
      ],
      "name": "voteForOrganization",
      "outputs": [],
      "stateMutability": "nonpayable",
      "type": "function"
    },
    {
      "inputs": [
        {
          "internalType": "uint256",
          "name": "_projectId",
          "type": "uint256"
        },
        {
          "internalType": "uint256",
          "name": "_tokens",
          "type": "uint256"
        }
      ],
      "name": "voteForProject",
      "outputs": [],
      "stateMutability": "nonpayable",
      "type": "function"
    },
    {
      "inputs": [
        {
          "internalType": "address",
          "name": "",
          "type": "address"
        }
      ],
      "name": "votes",
      "outputs": [
        {
          "internalType": "uint256",
          "name": "",
          "type": "uint256"
        }
      ],
      "stateMutability": "view",
      "type": "function"
    },
    {
      "inputs": [
        {
          "internalType": "bytes32",
          "name": "",
          "type": "bytes32"
        }
      ],
      "name": "votesAgainstOrga",
      "outputs": [
        {
          "internalType": "bool",
          "name": "",
          "type": "bool"
        }
      ],
      "stateMutability": "view",
      "type": "function"
    },
    {
      "inputs": [
        {
          "internalType": "bytes32",
          "name": "",
          "type": "bytes32"
        }
      ],
      "name": "votesForOrga",
      "outputs": [
        {
          "internalType": "bool",
          "name": "",
          "type": "bool"
        }
      ],
      "stateMutability": "view",
      "type": "function"
    },
    {
      "inputs": [
        {
          "internalType": "uint256",
          "name": "_amount",
          "type": "uint256"
        }
      ],
      "name": "withdrawFunds",
      "outputs": [],
      "stateMutability": "nonpayable",
      "type": "function"
    },
    {
      "stateMutability": "payable",
      "type": "receive"
    }
  ],
  "bytecode": "0x6080604052670de0b6b3a76400006013553480156200001d57600080fd5b506040518060400160405280601381526020017f534c522d446f6e6174696f6e52656365697074000000000000000000000000008152506040518060400160405280600681526020016529a62916a22960d11b815250816009908162000084919062000148565b50600a62000093828262000148565b505060006010555062000214565b634e487b7160e01b600052604160045260246000fd5b600181811c90821680620000cc57607f821691505b602082108103620000ed57634e487b7160e01b600052602260045260246000fd5b50919050565b601f82111562000143576000816000526020600020601f850160051c810160208610156200011e5750805b601f850160051c820191505b818110156200013f578281556001016200012a565b5050505b505050565b81516001600160401b03811115620001645762000164620000a1565b6200017c81620001758454620000b7565b84620000f3565b602080601f831160018114620001b457600084156200019b5750858301515b600019600386901b1c1916600185901b1785556200013f565b600085815260208120601f198616915b82811015620001e557888601518255948401946001909101908401620001c4565b5085821015620002045787850151600019600388901b60f8161c191681555b5050505050600190811b01905550565b61516f80620002246000396000f3fe6080604052600436106103435760003560e01c8063953de570116101b0578063ca0cdea8116100ec578063d9062de111610095578063e985e9c51161006f578063e985e9c514610add578063ed7ae14614610b26578063f157e40e14610b6f578063f97203af14610ba857600080fd5b8063d9062de114610a57578063e218ec7b14610a77578063e6607bb814610aa757600080fd5b8063d6d2771d116100c6578063d6d2771d146109c3578063d848c634146109e3578063d8bff5a514610a2a57600080fd5b8063ca0cdea814610924578063d2c30a6d14610983578063d60dbe60146109a357600080fd5b8063b384abef11610159578063ba3f5a1211610133578063ba3f5a12146108a1578063c3e91729146108b7578063c4f3c4fc146108e4578063c87b56dd1461090457600080fd5b8063b384abef1461083a578063b761d2991461085a578063b88d4fde1461088157600080fd5b8063a22cb4651161018a578063a22cb465146107da578063a411ef20146107fa578063a6ad01cf1461081a57600080fd5b8063953de5701461076757806395d89b41146107a357806397491828146107b857600080fd5b806330ce6b0b1161027f5780635a1f74061161022857806367b44d8a1161020257806367b44d8a146106f257806370a08231146107125780637452ea221461073257806380d038291461075257600080fd5b80635a1f7406146106725780636352211e146106a5578063635c5455146106c557600080fd5b806342842e0e1161025957806342842e0e1461060e57806342ea884c1461062e57806359987f911461064e57600080fd5b806330ce6b0b146105ac57806341fcd6cc146105cc5780634243c541146105ec57600080fd5b8063107046bd116102ec57806323b872dd116102c657806323b872dd1461050f57806323c554481461052f5780632b4b50051461054f5780633027ffd41461057157600080fd5b8063107046bd1461046c578063155dd5ee146104a25780631fd0862f146104c257600080fd5b8063086ed9381161031d578063086ed938146103f5578063095ea7b31461041c5780630fdf190b1461043c57600080fd5b806301ffc9a71461036657806306fdde031461039b578063081812fc146103bd57600080fd5b366103615761035f336013543461035a9190614537565b610bd8565b005b600080fd5b34801561037257600080fd5b5061038661038136600461456f565b610c5c565b60405190151581526020015b60405180910390f35b3480156103a757600080fd5b506103b0610ca0565b60405161039291906145dc565b3480156103c957600080fd5b506103dd6103d83660046145ef565b610d32565b6040516001600160a01b039091168152602001610392565b34801561040157600080fd5b5061040a610d5b565b604051610392969594939291906146c8565b34801561042857600080fd5b5061035f610437366004614794565b611081565b34801561044857600080fd5b506103866104573660046145ef565b60026020526000908152604090205460ff1681565b34801561047857600080fd5b5061048c6104873660046145ef565b611090565b6040516103929a999897969594939291906147ce565b3480156104ae57600080fd5b5061035f6104bd3660046145ef565b6111fe565b3480156104ce57600080fd5b506103866104dd3660046145ef565b6000908152600160209081526040808320546001600160a01b0316835290829052902060068101546005909101541090565b34801561051b57600080fd5b5061035f61052a36600461484a565b6112b9565b34801561053b57600080fd5b5061035f61054a366004614932565b61135d565b34801561055b57600080fd5b50610564611768565b6040516103929190614a48565b34801561057d57600080fd5b5061038661058c3660046145ef565b600090815260056020819052604090912090810154600690910154101590565b3480156105b857600080fd5b5061035f6105c7366004614a5b565b61194d565b3480156105d857600080fd5b5061035f6105e73660046145ef565b611a89565b3480156105f857600080fd5b50610601611a97565b6040516103929190614a7d565b34801561061a57600080fd5b5061035f61062936600461484a565b611abf565b34801561063a57600080fd5b5061035f6106493660046145ef565b611adf565b34801561065a57600080fd5b5061066460045481565b604051908152602001610392565b34801561067e57600080fd5b5061069261068d366004614ae1565b611aea565b6040516103929796959493929190614afc565b3480156106b157600080fd5b506103dd6106c03660046145ef565b611c45565b3480156106d157600080fd5b506106e56106e03660046145ef565b611c50565b6040516103929190614b5b565b3480156106fe57600080fd5b5061060161070d366004614a5b565b611e0f565b34801561071e57600080fd5b5061066461072d366004614ae1565b61218a565b34801561073e57600080fd5b5061035f61074d3660046145ef565b6121eb565b34801561075e57600080fd5b50610601612272565b34801561077357600080fd5b50610386610782366004614ae1565b6001600160a01b039081166000818152601260205260409020549091161490565b3480156107af57600080fd5b506103b0612288565b3480156107c457600080fd5b506103866107d33660046145ef565b6007541190565b3480156107e657600080fd5b5061035f6107f5366004614be6565b612297565b34801561080657600080fd5b5061035f610815366004614c22565b6122a2565b34801561082657600080fd5b5061035f610835366004614c86565b61243f565b34801561084657600080fd5b5061035f610855366004614a5b565b612505565b34801561086657600080fd5b5061086f6127d7565b60405161039296959493929190614cbf565b34801561088d57600080fd5b5061035f61089c366004614d71565b612c2f565b3480156108ad57600080fd5b5061066460135481565b3480156108c357600080fd5b506106646108d23660046145ef565b60066020526000908152604090205481565b3480156108f057600080fd5b506103866108ff3660046145ef565b612c46565b34801561091057600080fd5b506103b061091f3660046145ef565b612c6d565b34801561093057600080fd5b5061096461093f366004614ae1565b601260205260009081526040902080546001909101546001600160a01b039091169082565b604080516001600160a01b039093168352602083019190915201610392565b34801561098f57600080fd5b506106e561099e366004614ae1565b612d7e565b3480156109af57600080fd5b5061035f6109be3660046145ef565b612dd0565b3480156109cf57600080fd5b5061035f6109de366004614ded565b612ebd565b3480156109ef57600080fd5b506103866109fe3660046145ef565b6000908152600160209081526040808320546001600160a01b0316835290829052902060050154151590565b348015610a3657600080fd5b50610664610a45366004614ae1565b60086020526000908152604090205481565b348015610a6357600080fd5b5061035f610a723660046145ef565b612fca565b348015610a8357600080fd5b50610386610a923660046145ef565b60036020526000908152604090205460ff1681565b348015610ab357600080fd5b506103dd610ac23660046145ef565b6001602052600090815260409020546001600160a01b031681565b348015610ae957600080fd5b50610386610af8366004614e2a565b6001600160a01b039182166000908152600e6020908152604080832093909416825291909152205460ff1690565b348015610b3257600080fd5b50610b62610b41366004614ae1565b6001600160a01b031660009081526020819052604090206004015460ff1690565b6040516103929190614e5d565b348015610b7b57600080fd5b50610664610b8a366004614ae1565b6001600160a01b031660009081526012602052604090206001015490565b348015610bb457600080fd5b50610386610bc33660046145ef565b60116020526000908152604090205460ff1681565b6001600160a01b0380831660008181526012602052604090205490911614610c2857610c28826001600160a01b0316600081815260126020526040902080546001600160a01b0319169091179055565b6001600160a01b03821660009081526012602052604081206001018054839290610c53908490614e6b565b90915550505050565b60006001600160e01b031982167f49064906000000000000000000000000000000000000000000000000000000001480610c9a5750610c9a82613051565b92915050565b606060098054610caf90614e7e565b80601f0160208091040260200160405190810160405280929190818152602001828054610cdb90614e7e565b8015610d285780601f10610cfd57610100808354040283529160200191610d28565b820191906000526020600020905b815481529060010190602001808311610d0b57829003601f168201915b5050505050905090565b6000610d3d826130ec565b506000828152600d60205260409020546001600160a01b0316610c9a565b606080606080606080600060045467ffffffffffffffff811115610d8157610d81614886565b604051908082528060200260200182016040528015610daa578160200160208202803683370190505b509050600060045467ffffffffffffffff811115610dca57610dca614886565b604051908082528060200260200182016040528015610dfd57816020015b6060815260200190600190039081610de85790505b509050600060045467ffffffffffffffff811115610e1d57610e1d614886565b604051908082528060200260200182016040528015610e5057816020015b6060815260200190600190039081610e3b5790505b509050600060045467ffffffffffffffff811115610e7057610e70614886565b604051908082528060200260200182016040528015610e99578160200160208202803683370190505b509050600060045467ffffffffffffffff811115610eb957610eb9614886565b604051908082528060200260200182016040528015610ee2578160200160208202803683370190505b509050600060045467ffffffffffffffff811115610f0257610f02614886565b604051908082528060200260200182016040528015610f2b578160200160208202803683370190505b509050610f39600454613125565b85600081518110610f4c57610f4c614eb8565b602002602001018190525060005b60045481101561106d576000610f6f82611c50565b90508060000151888381518110610f8857610f88614eb8565b6020026020010181815250508060400151878381518110610fab57610fab614eb8565b60200260200101819052508060600151868381518110610fcd57610fcd614eb8565b60200260200101819052508060800151858381518110610fef57610fef614eb8565b602002602001019060038111156110085761100861469e565b9081600381111561101b5761101b61469e565b815250508060a0015184838151811061103657611036614eb8565b6020026020010181815250508060c0015183838151811061105957611059614eb8565b602090810291909101015250600101610f5a565b50949b939a50919850965094509092509050565b61108c8282336131c5565b5050565b6005602052600090815260409020805460018201546002830154600384018054939492936001600160a01b0390921692916110ca90614e7e565b80601f01602080910402602001604051908101604052809291908181526020018280546110f690614e7e565b80156111435780601f1061111857610100808354040283529160200191611143565b820191906000526020600020905b81548152906001019060200180831161112657829003601f168201915b50505050509080600401805461115890614e7e565b80601f016020809104026020016040519081016040528092919081815260200182805461118490614e7e565b80156111d15780601f106111a6576101008083540402835291602001916111d1565b820191906000526020600020905b8154815290600101906020018083116111b457829003601f168201915b505050506005830154600684015460078501546008860154600990960154949592949193509160ff16908a565b336000908152601260205260409020600101548111156112655760405162461bcd60e51b815260206004820152601260248201527f496e73756666696369656e742066756e6473000000000000000000000000000060448201526064015b60405180910390fd5b3360009081526012602052604081206001018054839290611287908490614ece565b9091555050604051339082156108fc029083906000818181858888f1935050505015801561108c573d6000803e3d6000fd5b6001600160a01b0382166112e357604051633250574960e11b81526000600482015260240161125c565b60006112f08383336131d2565b9050836001600160a01b0316816001600160a01b031614611357576040517f64283d7b0000000000000000000000000000000000000000000000000000000081526001600160a01b038086166004830152602482018490528216604482015260640161125c565b50505050565b336000818152602081905260409020600101546001600160a01b0316146113db5760405162461bcd60e51b815260206004820152602c60248201527f4f6e6c7920616e206f7267616e697a6174696f6e2063616e2063616c6c20746860448201526b34b990333ab731ba34b7b71760a11b606482015260840161125c565b60013360009081526020819052604090206004015460ff1660038111156114045761140461469e565b036114775760405162461bcd60e51b815260206004820152602260248201527f54686973206f7267616e69736174696f6e20686173206265656e2062616e6e6560448201527f642e000000000000000000000000000000000000000000000000000000000000606482015260840161125c565b600081116114c75760405162461bcd60e51b815260206004820152601b60248201527f476f616c206d7573742062652067726561746572207468616e20300000000000604482015260640161125c565b33600090815260208181526040808320815160e0810183528154815260018201546001600160a01b031693810193909352600281018054919284019161150c90614e7e565b80601f016020809104026020016040519081016040528092919081815260200182805461153890614e7e565b80156115855780601f1061155a57610100808354040283529160200191611585565b820191906000526020600020905b81548152906001019060200180831161156857829003601f168201915b5050505050815260200160038201805461159e90614e7e565b80601f01602080910402602001604051908101604052809291908181526020018280546115ca90614e7e565b80156116175780601f106115ec57610100808354040283529160200191611617565b820191906000526020600020905b8154815290600101906020018083116115fa57829003601f168201915b5050509183525050600482015460209091019060ff16600381111561163e5761163e61469e565b600381111561164f5761164f61469e565b8152602001600582015481526020016006820154815250509050336001600160a01b031681602001516001600160a01b0316146116e35760405162461bcd60e51b815260206004820152602c60248201527f4f6e6c7920616e206f7267616e697a6174696f6e2063616e2063616c6c20746860448201526b34b990333ab731ba34b7b71760a11b606482015260840161125c565b6007546000818152600560205260409020908155815160018201556002810180546001600160a01b03191633179055600381016117208682614f31565b506004810161172f8582614f31565b506005810183905560088101805460ff191660021790554260098201556007805490600061175c83614ff1565b91905055505050505050565b61177061445d565b6005600060016007546117839190614ece565b815260208082019290925260409081016000208151610140810183528154815260018201549381019390935260028101546001600160a01b0316918301919091526003810180546060840191906117d990614e7e565b80601f016020809104026020016040519081016040528092919081815260200182805461180590614e7e565b80156118525780601f1061182757610100808354040283529160200191611852565b820191906000526020600020905b81548152906001019060200180831161183557829003601f168201915b5050505050815260200160048201805461186b90614e7e565b80601f016020809104026020016040519081016040528092919081815260200182805461189790614e7e565b80156118e45780601f106118b9576101008083540402835291602001916118e4565b820191906000526020600020905b8154815290600101906020018083116118c757829003601f168201915b505050918352505060058201546020820152600682015460408201526007808301546060830152600883015460809092019160ff16908111156119295761192961469e565b600781111561193a5761193a61469e565b8152602001600982015481525050905090565b600260008381526005602052604090206008015460ff1660078111156119755761197561469e565b146119c25760405162461bcd60e51b815260206004820152601e60248201527f50726f6a656374206973206e6f7420696e20766f74696e672073746174650000604482015260640161125c565b6007548210611a135760405162461bcd60e51b815260206004820152601260248201527f496e76616c69642070726f6a6563742049440000000000000000000000000000604482015260640161125c565b33600090815260126020526040902060010154811115611a755760405162461bcd60e51b815260206004820152601a60248201527f496e73756666696369656e7420766f74696e6720746f6b656e73000000000000604482015260640161125c565b611a7f33826132cd565b61108c8282612505565b611a94816006613363565b50565b6060611aba600a600754611aab9190614ece565b600160075461070d9190614ece565b905090565b611ada83838360405180602001604052806000815250612c2f565b505050565b611a94816005613363565b60006020819052908152604090208054600182015460028301805492936001600160a01b0390921692611b1c90614e7e565b80601f0160208091040260200160405190810160405280929190818152602001828054611b4890614e7e565b8015611b955780601f10611b6a57610100808354040283529160200191611b95565b820191906000526020600020905b815481529060010190602001808311611b7857829003601f168201915b505050505090806003018054611baa90614e7e565b80601f0160208091040260200160405190810160405280929190818152602001828054611bd690614e7e565b8015611c235780601f10611bf857610100808354040283529160200191611c23565b820191906000526020600020905b815481529060010190602001808311611c0657829003601f168201915b5050505060048301546005840154600690940154929360ff9091169290915087565b6000610c9a826130ec565b611c586144ca565b6000828152600160208181526040808420546001600160a01b03908116855284835293819020815160e08101835281548152938101549094169183019190915260028301805492939291840191611cae90614e7e565b80601f0160208091040260200160405190810160405280929190818152602001828054611cda90614e7e565b8015611d275780601f10611cfc57610100808354040283529160200191611d27565b820191906000526020600020905b815481529060010190602001808311611d0a57829003601f168201915b50505050508152602001600382018054611d4090614e7e565b80601f0160208091040260200160405190810160405280929190818152602001828054611d6c90614e7e565b8015611db95780601f10611d8e57610100808354040283529160200191611db9565b820191906000526020600020905b815481529060010190602001808311611d9c57829003601f168201915b5050509183525050600482015460209091019060ff166003811115611de057611de061469e565b6003811115611df157611df161469e565b81526005820154602082015260069091015460409091015292915050565b606081831115611e615760405162461bcd60e51b815260206004820152600d60248201527f496e76616c69642072616e676500000000000000000000000000000000000000604482015260640161125c565b6007548210611ebc5760405162461bcd60e51b815260206004820152602160248201527f52616e676520657863656564732070726f6a656374206c697374206c656e67746044820152600d60fb1b606482015260840161125c565b6007548310611f175760405162461bcd60e51b815260206004820152602160248201527f52616e676520657863656564732070726f6a656374206c697374206c656e67746044820152600d60fb1b606482015260840161125c565b6000611f238484614ece565b611f2e906001614e6b565b67ffffffffffffffff811115611f4657611f46614886565b604051908082528060200260200182016040528015611f7f57816020015b611f6c61445d565b815260200190600190039081611f645790505b509050835b838111612182576000818152600560209081526040918290208251610140810184528154815260018201549281019290925260028101546001600160a01b031692820192909252600382018054919291606084019190611fe390614e7e565b80601f016020809104026020016040519081016040528092919081815260200182805461200f90614e7e565b801561205c5780601f106120315761010080835404028352916020019161205c565b820191906000526020600020905b81548152906001019060200180831161203f57829003601f168201915b5050505050815260200160048201805461207590614e7e565b80601f01602080910402602001604051908101604052809291908181526020018280546120a190614e7e565b80156120ee5780601f106120c3576101008083540402835291602001916120ee565b820191906000526020600020905b8154815290600101906020018083116120d157829003601f168201915b505050918352505060058201546020820152600682015460408201526007808301546060830152600883015460809092019160ff16908111156121335761213361469e565b60078111156121445761214461469e565b815260200160098201548152505082828151811061216457612164614eb8565b6020026020010181905250808061217a90614ff1565b915050611f84565b509392505050565b60006001600160a01b0382166121cf576040517f89c62b640000000000000000000000000000000000000000000000000000000081526000600482015260240161125c565b506001600160a01b03166000908152600c602052604090205490565b336000818152601260205260409020546001600160a01b03161461225d5760405162461bcd60e51b815260206004820152602360248201527f4f6e6c7920646f6e6f72732063616e2063616c6c20746869732066756e63746960448201526237b71760e91b606482015260840161125c565b612269338260016133d3565b611a948161346c565b6060611aba6000600160075461070d9190614ece565b6060600a8054610caf90614e7e565b61108c3383836134dc565b336000818152602081905260409020600101546001600160a01b0316036123315760405162461bcd60e51b815260206004820152602560248201527f596f752063616e206f6e6c7920637265617465206f6e65206f7267616e697a6160448201527f74696f6e2e000000000000000000000000000000000000000000000000000000606482015260840161125c565b6040805160e08101825260045481523360208201529081018390526060810182905260808101600281526000602080830182905260409283018290523382528181529082902083518155908301516001820180546001600160a01b0319166001600160a01b039092169190911790559082015160028201906123b39082614f31565b50606082015160038201906123c89082614f31565b50608082015160048201805460ff191660018360038111156123ec576123ec61469e565b021790555060a0820151600582015560c09091015160069091015560048054600090815260016020526040812080546001600160a01b031916331790558154919061243683614ff1565b91905055505050565b60075483106124905760405162461bcd60e51b815260206004820152601260248201527f496e76616c69642070726f6a6563742049440000000000000000000000000000604482015260640161125c565b60008381526005602081905260409091209081015460069091015410156124f95760405162461bcd60e51b815260206004820152601660248201527f50726f6a656374206e6f742066756e6465642079657400000000000000000000604482015260640161125c565b61135784848484613594565b60008281526005602052604081206007018054839290612526908490614e6b565b90915550506000828152600560205260408120600601805483929061254c908490614e6b565b9091555061255b90508261375a565b6000828152600560208190526040909120908101546006909101541061108c57600082815260056020908152604091829020600601548251858152918201527f5bc6714ccad33557efe1cb9d18fa771135ab68961f6add3d4bb6f115adec81a4910160405180910390a160008281526005602090815260408083208151610140810183528154815260018201549381019390935260028101546001600160a01b03169183019190915260038101805460608401919061261990614e7e565b80601f016020809104026020016040519081016040528092919081815260200182805461264590614e7e565b80156126925780601f1061266757610100808354040283529160200191612692565b820191906000526020600020905b81548152906001019060200180831161267557829003601f168201915b505050505081526020016004820180546126ab90614e7e565b80601f01602080910402602001604051908101604052809291908181526020018280546126d790614e7e565b80156127245780601f106126f957610100808354040283529160200191612724565b820191906000526020600020905b81548152906001019060200180831161270757829003601f168201915b505050918352505060058201546020820152600682015460408201526007808301546060830152600883015460809092019160ff16908111156127695761276961469e565b600781111561277a5761277a61469e565b815260200160098201548152505090506127978160400151612d7e565b602001516001600160a01b03166108fc8260c001519081150290604051600060405180830381858888f19350505050158015611357573d6000803e3d6000fd5b606080606080606080600060075467ffffffffffffffff8111156127fd576127fd614886565b60405190808252806020026020018201604052801561283057816020015b606081526020019060019003908161281b5790505b509050600060075467ffffffffffffffff81111561285057612850614886565b60405190808252806020026020018201604052801561288357816020015b606081526020019060019003908161286e5790505b509050600060075467ffffffffffffffff8111156128a3576128a3614886565b6040519080825280602002602001820160405280156128cc578160200160208202803683370190505b509050600060075467ffffffffffffffff8111156128ec576128ec614886565b604051908082528060200260200182016040528015612915578160200160208202803683370190505b509050600060075467ffffffffffffffff81111561293557612935614886565b60405190808252806020026020018201604052801561295e578160200160208202803683370190505b509050600060075467ffffffffffffffff81111561297e5761297e614886565b6040519080825280602002602001820160405280156129a7578160200160208202803683370190505b50905060005b60075481101561106d57600081815260056020526040902060030180546129d390614e7e565b80601f01602080910402602001604051908101604052809291908181526020018280546129ff90614e7e565b8015612a4c5780601f10612a2157610100808354040283529160200191612a4c565b820191906000526020600020905b815481529060010190602001808311612a2f57829003601f168201915b5050505050878281518110612a6357612a63614eb8565b6020026020010181905250600560008281526020019081526020016000206004018054612a8f90614e7e565b80601f0160208091040260200160405190810160405280929190818152602001828054612abb90614e7e565b8015612b085780601f10612add57610100808354040283529160200191612b08565b820191906000526020600020905b815481529060010190602001808311612aeb57829003601f168201915b5050505050868281518110612b1f57612b1f614eb8565b60200260200101819052506005600082815260200190815260200160002060050154858281518110612b5357612b53614eb8565b6020026020010181815250506005600082815260200190815260200160002060060154848281518110612b8857612b88614eb8565b6020026020010181815250506005600082815260200190815260200160002060000154838281518110612bbd57612bbd614eb8565b602090810291909101810191909152600082815260059091526040902060080154825160ff90911690839083908110612bf857612bf8614eb8565b60200260200101906007811115612c1157612c1161469e565b90816007811115612c2457612c2461469e565b9052506001016129ad565b612c3a8484846112b9565b61135784848484613995565b600081815260056020526040812060090154612c65906249d400614e6b565b421192915050565b6060612c78826130ec565b506000828152600f602052604081208054612c9290614e7e565b80601f0160208091040260200160405190810160405280929190818152602001828054612cbe90614e7e565b8015612d0b5780601f10612ce057610100808354040283529160200191612d0b565b820191906000526020600020905b815481529060010190602001808311612cee57829003601f168201915b505050505090506000612d2960408051602081019091526000815290565b90508051600003612d3b575092915050565b815115612d6d578082604051602001612d5592919061500a565b60405160208183030381529060405292505050919050565b612d7684613abe565b949350505050565b612d866144ca565b6001600160a01b0380831660009081526020818152604091829020825160e081018452815481526001820154909416918401919091526002810180549192840191611cae90614e7e565b600081815260056020526040812060010154612deb90611c50565b60209081015160008481526005909252604090912060060154909150612e1083612c46565b15612e2057612e20836003613363565b60026001600160a01b03831660009081526020819052604090206004015460ff166003811115612e5257612e5261469e565b14612e5c57505050565b60008381526005602081905260409091209081015460069091015410611ada57612e87836004613363565b6040516001600160a01b0383169082156108fc029083906000818181858888f19350505050158015611357573d6000803e3d6000fd5b600460008381526005602052604090206008015460ff166007811115612ee557612ee561469e565b14612f325760405162461bcd60e51b815260206004820152601760248201527f50726f6a656374206e6f74207374617274656420796574000000000000000000604482015260640161125c565b6000828152600560205260409020600201546001600160a01b03163314612fc15760405162461bcd60e51b815260206004820152602260248201527f4f6e6c792070726f6a656374206f776e65722063616e20656e642070726f6a6560448201527f6374000000000000000000000000000000000000000000000000000000000000606482015260840161125c565b61108c82611adf565b336000818152601260205260409020546001600160a01b03161461303c5760405162461bcd60e51b815260206004820152602360248201527f4f6e6c7920646f6e6f72732063616e2063616c6c20746869732066756e63746960448201526237b71760e91b606482015260840161125c565b613048338260006133d3565b611a9481613b32565b60006001600160e01b031982167f80ac58cd0000000000000000000000000000000000000000000000000000000014806130b457506001600160e01b031982167f5b5e139f00000000000000000000000000000000000000000000000000000000145b80610c9a57507f01ffc9a7000000000000000000000000000000000000000000000000000000006001600160e01b0319831614610c9a565b6000818152600b60205260408120546001600160a01b031680610c9a57604051637e27328960e01b81526004810184905260240161125c565b6060600061313283613b94565b600101905060008167ffffffffffffffff81111561315257613152614886565b6040519080825280601f01601f19166020018201604052801561317c576020820181803683370190505b5090508181016020015b600019017f3031323334353637383961626364656600000000000000000000000000000000600a86061a8153600a850494508461318657509392505050565b611ada8383836001613c76565b6000828152600b60205260408120546001600160a01b03908116908316156131ff576131ff818486613db4565b6001600160a01b0381161561323d5761321c600085600080613c76565b6001600160a01b0381166000908152600c6020526040902080546000190190555b6001600160a01b0385161561326c576001600160a01b0385166000908152600c60205260409020805460010190555b6000848152600b602052604080822080546001600160a01b0319166001600160a01b0389811691821790925591518793918516917fddf252ad1be2c89b69c2b068fc378daa952ba7f163c4a11628f55a4df523b3ef91a490505b9392505050565b6001600160a01b0382166000908152601260205260409020600101548111156133385760405162461bcd60e51b815260206004820152601a60248201527f496e73756666696369656e7420766f74696e6720746f6b656e73000000000000604482015260640161125c565b6001600160a01b03821660009081526012602052604081206001018054839290610c53908490614ece565b6000828152600560205260409020600801805482919060ff191660018360078111156133915761339161469e565b02179055507ffafe884515ca1fa5e0bf815ce87ef00b2cdaa0eee590d20376604937937a10bf82826040516133c7929190615039565b60405180910390a15050565b6133de838383613e31565b1561341d576133ec82613e72565b6000600260006133fd868686613ea9565b81526020810191909152604001600020805460ff19169115159190911790555b61342983838315613e31565b15611ada5761343782613f45565b600060036000613448868686613ea9565b81526020810191909152604001600020805460ff1916911515919091179055505050565b60016002600061347e33856001613ea9565b815260208082019290925260409081016000908120805460ff19169415159490941790935583835260018252808320546001600160a01b031683529082905281206005018054916134ce83614ff1565b9190505550611a9481613f78565b6001600160a01b038216613527576040517f5b08ba180000000000000000000000000000000000000000000000000000000081526001600160a01b038316600482015260240161125c565b6001600160a01b038381166000818152600e6020908152604080832094871680845294825291829020805460ff191686151590811790915591519182527f17307eab39ab6107e8899845ad3d59bd9653f200f220920489ca2b5937696c31910160405180910390a3505050565b60006135bd6135ad866001600160a01b03166014614046565b6135b686613125565b858561421c565b60008181526011602052604090205490915060ff161561361f5760405162461bcd60e51b815260206004820152601360248201527f4e465420616c7265616479206372656174656400000000000000000000000000604482015260640161125c565b6000818152601160205260409020805460ff191660011790556010546136469086906142a1565b60008360405160200161371d91907f646174613a6170706c69636174696f6e2f6a736f6e2c7b2250726f6a6563742081527f5469746c65223a22446f6e6174696f6e204e4654222c2264657363726970746960208201527f6f6e223a22202b2070726f6a656374735b5f70726f6a65637449645d2e70726f60408201527f6a6563744465736372697074696f6e2829202b20000000000000000000000000606082015260748101919091527f2045544820746f2074686520636f6e74726163742e227d000000000000000000609482015260ab0190565b604051602081830303815290604052905061373a601054826142bb565b60016010600082825461374d9190614e6b565b9091555050505050505050565b60008181526005602090815260408083208151610140810183528154815260018201549381019390935260028101546001600160a01b0316918301919091526003810180546060840191906137ae90614e7e565b80601f01602080910402602001604051908101604052809291908181526020018280546137da90614e7e565b80156138275780601f106137fc57610100808354040283529160200191613827565b820191906000526020600020905b81548152906001019060200180831161380a57829003601f168201915b5050505050815260200160048201805461384090614e7e565b80601f016020809104026020016040519081016040528092919081815260200182805461386c90614e7e565b80156138b95780601f1061388e576101008083540402835291602001916138b9565b820191906000526020600020905b81548152906001019060200180831161389c57829003601f168201915b505050918352505060058201546020820152600682015460408201526007808301546060830152600883015460809092019160ff16908111156138fe576138fe61469e565b600781111561390f5761390f61469e565b8152600991909101546020909101529050600281610100015160078111156139395761393961469e565b036139475761394782612dd0565b600481610100015160078111156139605761396061469e565b0361396e5761396e82611adf565b600581610100015160078111156139875761398761469e565b0361108c5761108c82611a89565b6001600160a01b0383163b1561135757604051630a85bd0160e11b81526001600160a01b0384169063150b7a02906139d790339088908790879060040161504d565b6020604051808303816000875af1925050508015613a12575060408051601f3d908101601f19168201909252613a0f9181019061507f565b60015b613a7b573d808015613a40576040519150601f19603f3d011682016040523d82523d6000602084013e613a45565b606091505b508051600003613a7357604051633250574960e11b81526001600160a01b038516600482015260240161125c565b805181602001fd5b6001600160e01b03198116630a85bd0160e11b14613ab757604051633250574960e11b81526001600160a01b038516600482015260240161125c565b5050505050565b6060613ac9826130ec565b506000613ae160408051602081019091526000815290565b90506000815111613b0157604051806020016040528060008152506132c6565b80613b0b84613125565b604051602001613b1c92919061500a565b6040516020818303038152906040529392505050565b600160026000613b4433856001613ea9565b815260208082019290925260409081016000908120805460ff19169415159490941790935583835260018252808320546001600160a01b031683529082905281206006018054916134ce83614ff1565b6000807a184f03e93ff9f4daa797ed6e38ed64bf6a1f0100000000000000008310613bdd577a184f03e93ff9f4daa797ed6e38ed64bf6a1f010000000000000000830492506040015b6d04ee2d6d415b85acef81000000008310613c09576d04ee2d6d415b85acef8100000000830492506020015b662386f26fc100008310613c2757662386f26fc10000830492506010015b6305f5e1008310613c3f576305f5e100830492506008015b6127108310613c5357612710830492506004015b60648310613c65576064830492506002015b600a8310610c9a5760010192915050565b8080613c8a57506001600160a01b03821615155b15613d84576000613c9a846130ec565b90506001600160a01b03831615801590613cc65750826001600160a01b0316816001600160a01b031614155b8015613cf857506001600160a01b038082166000908152600e602090815260408083209387168352929052205460ff16155b15613d3a576040517fa9fbf51f0000000000000000000000000000000000000000000000000000000081526001600160a01b038416600482015260240161125c565b8115613d825783856001600160a01b0316826001600160a01b03167f8c5be1e5ebec7d5bd14f71427d1e84f3dd0314c0f7b2291e5b200ac8c7c3b92560405160405180910390a45b505b50506000908152600d6020526040902080546001600160a01b0319166001600160a01b0392909216919091179055565b613dbf838383614304565b611ada576001600160a01b038316613ded57604051637e27328960e01b81526004810182905260240161125c565b6040517f177e802f0000000000000000000000000000000000000000000000000000000081526001600160a01b03831660048201526024810182905260440161125c565b60008115613e635760026000613e48868686613ea9565b815260208101919091526040016000205460ff1690506132c6565b60036000613e48868686613ea9565b6000818152600160209081526040808320546001600160a01b031683529082905290206005018054600019019055611a9481613f78565b60408051606085901b6bffffffffffffffffffffffff191660208201526034810184905282151560f81b605482015281516035818303018152605590910191829052600091600290613efc90839061509c565b602060405180830381855afa158015613f19573d6000803e3d6000fd5b5050506040513d601f19601f82011682018060405250810190613f3c91906150b8565b95945050505050565b6000818152600160209081526040808320546001600160a01b031683529082905290206006018054600019019055611a94815b6000818152600160209081526040808320546001600160a01b0316835290829052902060068101546005909101541015613fd357600081815260016020819052604090912054611a94916001600160a01b0390911690614387565b6000818152600160209081526040808320546001600160a01b03168352908290529020600501541561402257600081815260016020526040902054611a94906001600160a01b03166002614387565b600081815260016020526040812054611a94916001600160a01b0390911690614387565b60608260006140568460026150d1565b614061906002614e6b565b67ffffffffffffffff81111561407957614079614886565b6040519080825280601f01601f1916602001820160405280156140a3576020820181803683370190505b5090507f3000000000000000000000000000000000000000000000000000000000000000816000815181106140da576140da614eb8565b60200101906001600160f81b031916908160001a9053507f78000000000000000000000000000000000000000000000000000000000000008160018151811061412557614125614eb8565b60200101906001600160f81b031916908160001a90535060006141498560026150d1565b614154906001614e6b565b90505b60018111156141d9577f303132333435363738396162636465660000000000000000000000000000000083600f166010811061419557614195614eb8565b1a60f81b8282815181106141ab576141ab614eb8565b60200101906001600160f81b031916908160001a90535060049290921c916141d2816150e8565b9050614157565b508115612d76576040517fe22e27eb000000000000000000000000000000000000000000000000000000008152600481018690526024810185905260440161125c565b6000808585858560405160200161423694939291906150ff565b6040516020818303038152906040529050600281604051614257919061509c565b602060405180830381855afa158015614274573d6000803e3d6000fd5b5050506040513d601f19601f8201168201806040525081019061429791906150b8565b9695505050505050565b61108c8282604051806020016040528060008152506143c8565b6000828152600f602052604090206142d38282614f31565b506040518281527ff8e1a15aba9398e019f0b49df1a4fde98ee17ae345cb5f6b5e2c27f5033e8ce7906020016133c7565b60006001600160a01b03831615801590612d765750826001600160a01b0316846001600160a01b0316148061435e57506001600160a01b038085166000908152600e602090815260408083209387168352929052205460ff165b80612d765750506000908152600d60205260409020546001600160a01b03908116911614919050565b6001600160a01b0382166000908152602081905260409020600401805482919060ff191660018360038111156143bf576143bf61469e565b02179055505050565b6143d283836143df565b611ada6000848484613995565b6001600160a01b03821661440957604051633250574960e11b81526000600482015260240161125c565b6000614417838360006131d2565b90506001600160a01b03811615611ada576040517f73c6ac6e0000000000000000000000000000000000000000000000000000000081526000600482015260240161125c565b604051806101400160405280600081526020016000815260200160006001600160a01b031681526020016060815260200160608152602001600081526020016000815260200160008152602001600060078111156144bd576144bd61469e565b8152602001600081525090565b6040518060e001604052806000815260200160006001600160a01b0316815260200160608152602001606081526020016000600381111561450d5761450d61469e565b815260200160008152602001600081525090565b634e487b7160e01b600052601160045260246000fd5b60008261455457634e487b7160e01b600052601260045260246000fd5b500490565b6001600160e01b031981168114611a9457600080fd5b60006020828403121561458157600080fd5b81356132c681614559565b60005b838110156145a757818101518382015260200161458f565b50506000910152565b600081518084526145c881602086016020860161458c565b601f01601f19169290920160200192915050565b6020815260006132c660208301846145b0565b60006020828403121561460157600080fd5b5035919050565b60008151808452602080850194506020840160005b838110156146395781518752958201959082019060010161461d565b509495945050505050565b60008282518085526020808601955060208260051b8401016020860160005b8481101561469157601f1986840301895261467f8383516145b0565b98840198925090830190600101614663565b5090979650505050505050565b634e487b7160e01b600052602160045260246000fd5b600481106146c4576146c461469e565b9052565b60c0815260006146db60c0830189614608565b602083820360208501526146ef828a614644565b915083820360408501526147038289614644565b848103606086015287518082526020808a0194509091019060005b81811015614741576147318386516146b4565b938301939183019160010161471e565b505084810360808601526147558188614608565b9250505082810360a084015261476b8185614608565b9998505050505050505050565b80356001600160a01b038116811461478f57600080fd5b919050565b600080604083850312156147a757600080fd5b6147b083614778565b946020939093013593505050565b600881106146c4576146c461469e565b60006101408c83528b60208401526001600160a01b038b1660408401528060608401526147fd8184018b6145b0565b90508281036080840152614811818a6145b0565b9150508660a08301528560c08301528460e08301526148346101008301856147be565b826101208301529b9a5050505050505050505050565b60008060006060848603121561485f57600080fd5b61486884614778565b925061487660208501614778565b9150604084013590509250925092565b634e487b7160e01b600052604160045260246000fd5b600067ffffffffffffffff808411156148b7576148b7614886565b604051601f8501601f19908116603f011681019082821181831017156148df576148df614886565b816040528093508581528686860111156148f857600080fd5b858560208301376000602087830101525050509392505050565b600082601f83011261492357600080fd5b6132c68383356020850161489c565b60008060006060848603121561494757600080fd5b833567ffffffffffffffff8082111561495f57600080fd5b61496b87838801614912565b9450602086013591508082111561498157600080fd5b5061498e86828701614912565b925050604084013590509250925092565b6000610140825184526020830151602085015260408301516149cc60408601826001600160a01b03169052565b5060608301518160608601526149e4828601826145b0565b915050608083015184820360808601526149fe82826145b0565b91505060a083015160a085015260c083015160c085015260e083015160e085015261010080840151614a32828701826147be565b5050610120928301519390920192909252919050565b6020815260006132c6602083018461499f565b60008060408385031215614a6e57600080fd5b50508035926020909101359150565b600060208083016020845280855180835260408601915060408160051b87010192506020870160005b82811015614ad457603f19888603018452614ac285835161499f565b94509285019290850190600101614aa6565b5092979650505050505050565b600060208284031215614af357600080fd5b6132c682614778565b8781526001600160a01b038716602082015260e060408201526000614b2460e08301886145b0565b8281036060840152614b3681886145b0565b915050614b4660808301866146b4565b60a082019390935260c0015295945050505050565b60208152815160208201526001600160a01b0360208301511660408201526000604083015160e06060840152614b956101008401826145b0565b90506060840151601f19848303016080850152614bb282826145b0565b9150506080840151614bc760a08501826146b4565b5060a084015160c084015260c084015160e08401528091505092915050565b60008060408385031215614bf957600080fd5b614c0283614778565b915060208301358015158114614c1757600080fd5b809150509250929050565b60008060408385031215614c3557600080fd5b823567ffffffffffffffff80821115614c4d57600080fd5b614c5986838701614912565b93506020850135915080821115614c6f57600080fd5b50614c7c85828601614912565b9150509250929050565b60008060008060808587031215614c9c57600080fd5b614ca585614778565b966020860135965060408601359560600135945092505050565b60c081526000614cd260c0830189614644565b60208382036020850152614ce6828a614644565b91508382036040850152614cfa8289614608565b91508382036060850152614d0e8288614608565b91508382036080850152614d228287614608565b84810360a08601528551808252602080880194509091019060005b81811015614d6057614d508386516147be565b9383019391830191600101614d3d565b50909b9a5050505050505050505050565b60008060008060808587031215614d8757600080fd5b614d9085614778565b9350614d9e60208601614778565b925060408501359150606085013567ffffffffffffffff811115614dc157600080fd5b8501601f81018713614dd257600080fd5b614de18782356020840161489c565b91505092959194509250565b60008060408385031215614e0057600080fd5b82359150602083013567ffffffffffffffff811115614e1e57600080fd5b614c7c85828601614912565b60008060408385031215614e3d57600080fd5b614e4683614778565b9150614e5460208401614778565b90509250929050565b60208101610c9a82846146b4565b80820180821115610c9a57610c9a614521565b600181811c90821680614e9257607f821691505b602082108103614eb257634e487b7160e01b600052602260045260246000fd5b50919050565b634e487b7160e01b600052603260045260246000fd5b81810381811115610c9a57610c9a614521565b601f821115611ada576000816000526020600020601f850160051c81016020861015614f0a5750805b601f850160051c820191505b81811015614f2957828155600101614f16565b505050505050565b815167ffffffffffffffff811115614f4b57614f4b614886565b614f5f81614f598454614e7e565b84614ee1565b602080601f831160018114614f945760008415614f7c5750858301515b600019600386901b1c1916600185901b178555614f29565b600085815260208120601f198616915b82811015614fc357888601518255948401946001909101908401614fa4565b5085821015614fe15787850151600019600388901b60f8161c191681555b5050505050600190811b01905550565b60006001820161500357615003614521565b5060010190565b6000835161501c81846020880161458c565b83519083019061503081836020880161458c565b01949350505050565b828152604081016132c660208301846147be565b60006001600160a01b0380871683528086166020840152508360408301526080606083015261429760808301846145b0565b60006020828403121561509157600080fd5b81516132c681614559565b600082516150ae81846020870161458c565b9190910192915050565b6000602082840312156150ca57600080fd5b5051919050565b8082028115828204841417610c9a57610c9a614521565b6000816150f7576150f7614521565b506000190190565b60008551615111818460208a0161458c565b855190830190615125818360208a0161458c565b01938452505060208201526040019291505056fea26469706673582212206d4c81fc7cb8ac81e0a87e090fa74b2c779e9fe8dc84be0958b12f0b147e640264736f6c63430008180033",
  "linkReferences": {},
  "deployedLinkReferences": {}
}