{
  "_format": "hh-sol-artifact-1",
  "contractName": "DAO_SLR",
  "sourceName": "contracts/DAO_SLR.sol",
  "abi": [
    {
      "inputs": [],
      "stateMutability": "nonpayable",
      "type": "constructor"
    },
    {
      "inputs": [
        {
          "internalType": "string",
          "name": "_organizationName",
          "type": "string"
        },
        {
          "internalType": "string",
          "name": "_organisationDescription",
          "type": "string"
        }
      ],
      "name": "createNewOrganization",
      "outputs": [],
      "stateMutability": "nonpayable",
      "type": "function"
    },
    {
      "inputs": [
        {
          "internalType": "string",
          "name": "_title",
          "type": "string"
        },
        {
          "internalType": "string",
          "name": "_description",
          "type": "string"
        },
        {
          "internalType": "uint256",
          "name": "_goal",
          "type": "uint256"
        }
      ],
      "name": "createProject",
      "outputs": [
        {
          "internalType": "uint256",
          "name": "",
          "type": "uint256"
        }
      ],
      "stateMutability": "nonpayable",
      "type": "function"
    },
    {
      "inputs": [
        {
          "internalType": "address",
          "name": "_recipient",
          "type": "address"
        },
        {
          "internalType": "uint256",
          "name": "_projectId",
          "type": "uint256"
        },
        {
          "internalType": "uint256",
          "name": "_donationAmount",
          "type": "uint256"
        },
        {
          "internalType": "uint256",
          "name": "_timestamp",
          "type": "uint256"
        }
      ],
      "name": "createReceipt",
      "outputs": [],
      "stateMutability": "nonpayable",
      "type": "function"
    },
    {
      "inputs": [],
      "name": "donationReceiptPrinter",
      "outputs": [
        {
          "internalType": "contract DonationReceipt",
          "name": "",
          "type": "address"
        }
      ],
      "stateMutability": "view",
      "type": "function"
    },
    {
      "inputs": [],
      "name": "getDonorTokenBalance",
      "outputs": [
        {
          "internalType": "uint256",
          "name": "",
          "type": "uint256"
        }
      ],
      "stateMutability": "view",
      "type": "function"
    },
    {
      "inputs": [
        {
          "internalType": "address",
          "name": "_projectOwner",
          "type": "address"
        }
      ],
      "name": "getProjectOwnerState",
      "outputs": [
        {
          "internalType": "enum OrganizationState",
          "name": "",
          "type": "uint8"
        }
      ],
      "stateMutability": "view",
      "type": "function"
    },
    {
      "inputs": [
        {
          "internalType": "address",
          "name": "",
          "type": "address"
        }
      ],
      "name": "hasReceivedNFT",
      "outputs": [
        {
          "internalType": "bool",
          "name": "",
          "type": "bool"
        }
      ],
      "stateMutability": "view",
      "type": "function"
    },
    {
      "inputs": [
        {
          "internalType": "address payable",
          "name": "_projectOwner",
          "type": "address"
        }
      ],
      "name": "isProjectOwnerDaoMember",
      "outputs": [
        {
          "internalType": "bool",
          "name": "",
          "type": "bool"
        }
      ],
      "stateMutability": "view",
      "type": "function"
    },
    {
      "inputs": [],
      "name": "organizationManager",
      "outputs": [
        {
          "internalType": "contract Organization",
          "name": "",
          "type": "address"
        }
      ],
      "stateMutability": "view",
      "type": "function"
    },
    {
      "inputs": [
        {
          "internalType": "address",
          "name": "",
          "type": "address"
        }
      ],
      "name": "organizations",
      "outputs": [
        {
          "internalType": "contract Organization",
          "name": "",
          "type": "address"
        }
      ],
      "stateMutability": "view",
      "type": "function"
    },
    {
      "inputs": [],
      "name": "projectCount",
      "outputs": [
        {
          "internalType": "uint256",
          "name": "",
          "type": "uint256"
        }
      ],
      "stateMutability": "view",
      "type": "function"
    },
    {
      "inputs": [
        {
          "internalType": "address",
          "name": "",
          "type": "address"
        }
      ],
      "name": "projectOwnerOnboarded",
      "outputs": [
        {
          "internalType": "enum OrganizationState",
          "name": "",
          "type": "uint8"
        }
      ],
      "stateMutability": "view",
      "type": "function"
    },
    {
      "inputs": [
        {
          "internalType": "uint256",
          "name": "",
          "type": "uint256"
        }
      ],
      "name": "projects",
      "outputs": [
        {
          "internalType": "contract Project",
          "name": "",
          "type": "address"
        }
      ],
      "stateMutability": "view",
      "type": "function"
    },
    {
      "inputs": [
        {
          "internalType": "uint256",
          "name": "_projectId",
          "type": "uint256"
        }
      ],
      "name": "showProjectDetails",
      "outputs": [
        {
          "internalType": "string",
          "name": "",
          "type": "string"
        },
        {
          "internalType": "uint256",
          "name": "",
          "type": "uint256"
        },
        {
          "internalType": "uint256",
          "name": "",
          "type": "uint256"
        },
        {
          "internalType": "uint256",
          "name": "",
          "type": "uint256"
        },
        {
          "internalType": "uint256",
          "name": "",
          "type": "uint256"
        }
      ],
      "stateMutability": "view",
      "type": "function"
    },
    {
      "inputs": [],
      "name": "tokenMultiplier",
      "outputs": [
        {
          "internalType": "uint256",
          "name": "",
          "type": "uint256"
        }
      ],
      "stateMutability": "view",
      "type": "function"
    },
    {
      "inputs": [
        {
          "internalType": "uint256",
          "name": "_projectId",
          "type": "uint256"
        },
        {
          "internalType": "uint256",
          "name": "_tokens",
          "type": "uint256"
        }
      ],
      "name": "voteForProject",
      "outputs": [],
      "stateMutability": "nonpayable",
      "type": "function"
    },
    {
      "inputs": [
        {
          "internalType": "address",
          "name": "",
          "type": "address"
        }
      ],
      "name": "votingTokens",
      "outputs": [
        {
          "internalType": "uint256",
          "name": "",
          "type": "uint256"
        }
      ],
      "stateMutability": "view",
      "type": "function"
    },
    {
      "stateMutability": "payable",
      "type": "receive"
    }
  ],
  "bytecode": "0x608060405260016006553480156200001657600080fd5b503060405162000026906200010f565b62000032919062000170565b604051809103906000f0801580156200004f573d6000803e3d6000fd5b50600760006101000a81548173ffffffffffffffffffffffffffffffffffffffff021916908373ffffffffffffffffffffffffffffffffffffffff160217905550306040516200009f906200011d565b620000ab919062000170565b604051809103906000f080158015620000c8573d6000803e3d6000fd5b50600860006101000a81548173ffffffffffffffffffffffffffffffffffffffff021916908373ffffffffffffffffffffffffffffffffffffffff1602179055506200018d565b6131e480620043e683390190565b61122580620075ca83390190565b600073ffffffffffffffffffffffffffffffffffffffff82169050919050565b600062000158826200012b565b9050919050565b6200016a816200014b565b82525050565b60006020820190506200018760008301846200015f565b92915050565b614249806200019d6000396000f3fe6080604052600436106200011b5760003560e01c80635e8f07fb11620000a3578063a6ad01cf116200006d578063a6ad01cf1462000441578063a8f1f525146200046f578063ba3f5a1214620004b3578063c86c6f0d14620004e3578063eca964e3146200052b5762000188565b80635e8f07fb14620003595780636f0e0622146200039d578063933e4fa314620003e15780639f4ed10514620004115762000188565b806336fbad2611620000e557806336fbad26146200027157806345aa61a514620002a1578063478e515814620002d15780635a1f740614620003155762000188565b8063107046bd146200018d5780631614e66814620001d157806323c5544814620001ff57806330ce6b0b14620002435762000188565b3662000188576006543462000131919062001197565b6000803373ffffffffffffffffffffffffffffffffffffffff1673ffffffffffffffffffffffffffffffffffffffff1681526020019081526020016000206000828254620001809190620011e2565b925050819055005b600080fd5b3480156200019a57600080fd5b50620001b96004803603810190620001b3919062001262565b6200056f565b604051620001c891906200131f565b60405180910390f35b348015620001de57600080fd5b50620001fd6004803603810190620001f791906200149e565b620005a2565b005b3480156200020c57600080fd5b506200022b600480360381019062000225919062001523565b6200063b565b6040516200023a9190620015ce565b60405180910390f35b3480156200025057600080fd5b506200026f6004803603810190620002699190620015eb565b62000853565b005b3480156200027e57600080fd5b506200028962000a1b565b604051620002989190620015ce565b60405180910390f35b348015620002ae57600080fd5b50620002b962000a21565b604051620002c89190620015ce565b60405180910390f35b348015620002de57600080fd5b50620002fd6004803603810190620002f7919062001677565b62000a67565b6040516200030c919062001729565b60405180910390f35b3480156200032257600080fd5b506200034160048036038101906200033b919062001677565b62000b1a565b6040516200035091906200176b565b60405180910390f35b3480156200036657600080fd5b506200038560048036038101906200037f919062001677565b62000b4d565b604051620003949190620017a5565b60405180910390f35b348015620003aa57600080fd5b50620003c96004803603810190620003c3919062001807565b62000b6d565b604051620003d89190620017a5565b60405180910390f35b348015620003ee57600080fd5b50620003f962000c67565b6040516200040891906200185e565b60405180910390f35b3480156200041e57600080fd5b506200042962000c8d565b6040516200043891906200176b565b60405180910390f35b3480156200044e57600080fd5b506200046d60048036038101906200046791906200187b565b62000cb3565b005b3480156200047c57600080fd5b506200049b600480360381019062000495919062001677565b62000d50565b604051620004aa919062001729565b60405180910390f35b348015620004c057600080fd5b50620004cb62000d70565b604051620004da9190620015ce565b60405180910390f35b348015620004f057600080fd5b506200050f600480360381019062000509919062001262565b62000d76565b6040516200052295949392919062001976565b60405180910390f35b3480156200053857600080fd5b5062000557600480360381019062000551919062001677565b62001138565b604051620005669190620015ce565b60405180910390f35b60016020528060005260406000206000915054906101000a900473ffffffffffffffffffffffffffffffffffffffff1681565b600860009054906101000a900473ffffffffffffffffffffffffffffffffffffffff1673ffffffffffffffffffffffffffffffffffffffff1663b80bf8273384846040518463ffffffff1660e01b81526004016200060393929190620019eb565b600060405180830381600087803b1580156200061e57600080fd5b505af115801562000633573d6000803e3d6000fd5b505050505050565b6000620006483362000b6d565b6200068a576040517f08c379a0000000000000000000000000000000000000000000000000000000008152600401620006819062001ad2565b60405180910390fd5b60016003811115620006a157620006a0620016a9565b5b620006ac3362000a67565b6003811115620006c157620006c0620016a9565b5b1462000704576040517f08c379a0000000000000000000000000000000000000000000000000000000008152600401620006fb9062001b6a565b60405180910390fd5b6003808111156200071a5762000719620016a9565b5b620007253362000a67565b60038111156200073a5762000739620016a9565b5b146200077d576040517f08c379a0000000000000000000000000000000000000000000000000000000008152600401620007749062001c28565b60405180910390fd5b60006200078a3362000a67565b905060003386868685604051620007a19062001150565b620007b195949392919062001c4a565b604051809103906000f080158015620007ce573d6000803e3d6000fd5b509050600060055490508160016000600554815260200190815260200160002060006101000a81548173ffffffffffffffffffffffffffffffffffffffff021916908373ffffffffffffffffffffffffffffffffffffffff16021790555060056000815480929190620008419062001cb5565b91905055508093505050509392505050565b60055482106200089a576040517f08c379a0000000000000000000000000000000000000000000000000000000008152600401620008919062001d52565b60405180910390fd5b806000803373ffffffffffffffffffffffffffffffffffffffff1673ffffffffffffffffffffffffffffffffffffffff1681526020019081526020016000205410156200091e576040517f08c379a0000000000000000000000000000000000000000000000000000000008152600401620009159062001dc4565b60405180910390fd5b806000803373ffffffffffffffffffffffffffffffffffffffff1673ffffffffffffffffffffffffffffffffffffffff16815260200190815260200160002060008282546200096e919062001de6565b925050819055506001600083815260200190815260200160002060009054906101000a900473ffffffffffffffffffffffffffffffffffffffff1673ffffffffffffffffffffffffffffffffffffffff16630121b93f826040518263ffffffff1660e01b8152600401620009e39190620015ce565b600060405180830381600087803b158015620009fe57600080fd5b505af115801562000a13573d6000803e3d6000fd5b505050505050565b60055481565b60008060003373ffffffffffffffffffffffffffffffffffffffff1673ffffffffffffffffffffffffffffffffffffffff16815260200190815260200160002054905090565b6000600860009054906101000a900473ffffffffffffffffffffffffffffffffffffffff1673ffffffffffffffffffffffffffffffffffffffff166369ad9617836040518263ffffffff1660e01b815260040162000ac6919062001e32565b600060405180830381865afa15801562000ae4573d6000803e3d6000fd5b505050506040513d6000823e3d601f19601f8201168201806040525081019062000b0f919062001fd9565b606001519050919050565b60046020528060005260406000206000915054906101000a900473ffffffffffffffffffffffffffffffffffffffff1681565b60036020528060005260406000206000915054906101000a900460ff1681565b600080600860009054906101000a900473ffffffffffffffffffffffffffffffffffffffff1673ffffffffffffffffffffffffffffffffffffffff166369ad9617846040518263ffffffff1660e01b815260040162000bcd91906200204f565b600060405180830381865afa15801562000beb573d6000803e3d6000fd5b505050506040513d6000823e3d601f19601f8201168201806040525081019062000c16919062001fd9565b9050600073ffffffffffffffffffffffffffffffffffffffff16816000015173ffffffffffffffffffffffffffffffffffffffff160362000c5c57600091505062000c62565b60019150505b919050565b600760009054906101000a900473ffffffffffffffffffffffffffffffffffffffff1681565b600860009054906101000a900473ffffffffffffffffffffffffffffffffffffffff1681565b600760009054906101000a900473ffffffffffffffffffffffffffffffffffffffff1673ffffffffffffffffffffffffffffffffffffffff1663a16297a0858585856040518563ffffffff1660e01b815260040162000d1694939291906200206c565b600060405180830381600087803b15801562000d3157600080fd5b505af115801562000d46573d6000803e3d6000fd5b5050505050505050565b60026020528060005260406000206000915054906101000a900460ff1681565b60065481565b6060600080600080600554861062000dc5576040517f08c379a000000000000000000000000000000000000000000000000000000000815260040162000dbc9062001d52565b60405180910390fd5b6001600087815260200190815260200160002060009054906101000a900473ffffffffffffffffffffffffffffffffffffffff1673ffffffffffffffffffffffffffffffffffffffff1663755f047b6040518163ffffffff1660e01b8152600401600060405180830381865afa15801562000e44573d6000803e3d6000fd5b505050506040513d6000823e3d601f19601f8201168201806040525081019062000e6f9190620020b9565b6001600088815260200190815260200160002060009054906101000a900473ffffffffffffffffffffffffffffffffffffffff1673ffffffffffffffffffffffffffffffffffffffff16637a3a0e846040518163ffffffff1660e01b8152600401602060405180830381865afa15801562000eee573d6000803e3d6000fd5b505050506040513d601f19601f8201168201806040525081019062000f14919062002121565b6001600089815260200190815260200160002060009054906101000a900473ffffffffffffffffffffffffffffffffffffffff1673ffffffffffffffffffffffffffffffffffffffff16630888b70d6040518163ffffffff1660e01b8152600401602060405180830381865afa15801562000f93573d6000803e3d6000fd5b505050506040513d601f19601f8201168201806040525081019062000fb9919062002121565b600160008a815260200190815260200160002060009054906101000a900473ffffffffffffffffffffffffffffffffffffffff1673ffffffffffffffffffffffffffffffffffffffff1663c19d93fb6040518163ffffffff1660e01b8152600401602060405180830381865afa15801562001038573d6000803e3d6000fd5b505050506040513d601f19601f820116820180604052508101906200105e91906200217b565b6007811115620010735762001072620016a9565b5b600160008b815260200190815260200160002060009054906101000a900473ffffffffffffffffffffffffffffffffffffffff1673ffffffffffffffffffffffffffffffffffffffff1663d8bff5a5336040518263ffffffff1660e01b8152600401620010e1919062001e32565b602060405180830381865afa158015620010ff573d6000803e3d6000fd5b505050506040513d601f19601f8201168201806040525081019062001125919062002121565b9450945094509450945091939590929450565b60006020528060005260406000206000915090505481565b61206680620021ae83390190565b6000819050919050565b7f4e487b7100000000000000000000000000000000000000000000000000000000600052601160045260246000fd5b6000620011a4826200115e565b9150620011b1836200115e565b9250828202620011c1816200115e565b91508282048414831517620011db57620011da62001168565b5b5092915050565b6000620011ef826200115e565b9150620011fc836200115e565b925082820190508082111562001217576200121662001168565b5b92915050565b6000604051905090565b600080fd5b600080fd5b6200123c816200115e565b81146200124857600080fd5b50565b6000813590506200125c8162001231565b92915050565b6000602082840312156200127b576200127a62001227565b5b60006200128b848285016200124b565b91505092915050565b600073ffffffffffffffffffffffffffffffffffffffff82169050919050565b6000819050919050565b6000620012df620012d9620012d38462001294565b620012b4565b62001294565b9050919050565b6000620012f382620012be565b9050919050565b60006200130782620012e6565b9050919050565b6200131981620012fa565b82525050565b60006020820190506200133660008301846200130e565b92915050565b600080fd5b600080fd5b6000601f19601f8301169050919050565b7f4e487b7100000000000000000000000000000000000000000000000000000000600052604160045260246000fd5b620013918262001346565b810181811067ffffffffffffffff82111715620013b357620013b262001357565b5b80604052505050565b6000620013c86200121d565b9050620013d6828262001386565b919050565b600067ffffffffffffffff821115620013f957620013f862001357565b5b620014048262001346565b9050602081019050919050565b82818337600083830152505050565b6000620014376200143184620013db565b620013bc565b90508281526020810184848401111562001456576200145562001341565b5b6200146384828562001411565b509392505050565b600082601f8301126200148357620014826200133c565b5b81356200149584826020860162001420565b91505092915050565b60008060408385031215620014b857620014b762001227565b5b600083013567ffffffffffffffff811115620014d957620014d86200122c565b5b620014e7858286016200146b565b925050602083013567ffffffffffffffff8111156200150b576200150a6200122c565b5b62001519858286016200146b565b9150509250929050565b6000806000606084860312156200153f576200153e62001227565b5b600084013567ffffffffffffffff81111562001560576200155f6200122c565b5b6200156e868287016200146b565b935050602084013567ffffffffffffffff8111156200159257620015916200122c565b5b620015a0868287016200146b565b9250506040620015b3868287016200124b565b9150509250925092565b620015c8816200115e565b82525050565b6000602082019050620015e56000830184620015bd565b92915050565b6000806040838503121562001605576200160462001227565b5b600062001615858286016200124b565b925050602062001628858286016200124b565b9150509250929050565b60006200163f8262001294565b9050919050565b620016518162001632565b81146200165d57600080fd5b50565b600081359050620016718162001646565b92915050565b60006020828403121562001690576200168f62001227565b5b6000620016a08482850162001660565b91505092915050565b7f4e487b7100000000000000000000000000000000000000000000000000000000600052602160045260246000fd5b60048110620016ec57620016eb620016a9565b5b50565b6000819050620016ff82620016d8565b919050565b60006200171182620016ef565b9050919050565b620017238162001704565b82525050565b600060208201905062001740600083018462001718565b92915050565b60006200175382620012e6565b9050919050565b620017658162001746565b82525050565b60006020820190506200178260008301846200175a565b92915050565b60008115159050919050565b6200179f8162001788565b82525050565b6000602082019050620017bc600083018462001794565b92915050565b6000620017cf8262001294565b9050919050565b620017e181620017c2565b8114620017ed57600080fd5b50565b6000813590506200180181620017d6565b92915050565b60006020828403121562001820576200181f62001227565b5b60006200183084828501620017f0565b91505092915050565b60006200184682620012e6565b9050919050565b620018588162001839565b82525050565b60006020820190506200187560008301846200184d565b92915050565b6000806000806080858703121562001898576200189762001227565b5b6000620018a88782880162001660565b9450506020620018bb878288016200124b565b9350506040620018ce878288016200124b565b9250506060620018e1878288016200124b565b91505092959194509250565b600081519050919050565b600082825260208201905092915050565b60005b83811015620019295780820151818401526020810190506200190c565b60008484015250505050565b60006200194282620018ed565b6200194e8185620018f8565b93506200196081856020860162001909565b6200196b8162001346565b840191505092915050565b600060a082019050818103600083015262001992818862001935565b9050620019a36020830187620015bd565b620019b26040830186620015bd565b620019c16060830185620015bd565b620019d06080830184620015bd565b9695505050505050565b620019e581620017c2565b82525050565b600060608201905062001a026000830186620019da565b818103602083015262001a16818562001935565b9050818103604083015262001a2c818462001935565b9050949350505050565b7f4f6e6c7920612070726f6a656374206f776e657220746861742068617320626560008201527f656e206f6e626f61726465642063616e2063616c6c20746869732066756e637460208201527f696f6e2e00000000000000000000000000000000000000000000000000000000604082015250565b600062001aba604483620018f8565b915062001ac78262001a36565b606082019050919050565b6000602082019050818103600083015262001aed8162001aab565b9050919050565b7f54686973206f7267616e69736174696f6e20686173206265656e2062616e6e6560008201527f642e000000000000000000000000000000000000000000000000000000000000602082015250565b600062001b52602283620018f8565b915062001b5f8262001af4565b604082019050919050565b6000602082019050818103600083015262001b858162001b43565b9050919050565b7f546865726520697320616e206163746976652070726f6a656374206f6e676f6960008201527f6e672e20506c6561736520636f6d706c657465206974206265666f726520637260208201527f656174696e672061206e6577206f6e652e000000000000000000000000000000604082015250565b600062001c10605183620018f8565b915062001c1d8262001b8c565b606082019050919050565b6000602082019050818103600083015262001c438162001c01565b9050919050565b600060a08201905062001c616000830188620019da565b818103602083015262001c75818762001935565b9050818103604083015262001c8b818662001935565b905062001c9c6060830185620015bd565b62001cab608083018462001718565b9695505050505050565b600062001cc2826200115e565b91507fffffffffffffffffffffffffffffffffffffffffffffffffffffffffffffffff820362001cf75762001cf662001168565b5b600182019050919050565b7f496e76616c69642070726f6a6563742049440000000000000000000000000000600082015250565b600062001d3a601283620018f8565b915062001d478262001d02565b602082019050919050565b6000602082019050818103600083015262001d6d8162001d2b565b9050919050565b7f496e73756666696369656e7420766f74696e6720746f6b656e73000000000000600082015250565b600062001dac601a83620018f8565b915062001db98262001d74565b602082019050919050565b6000602082019050818103600083015262001ddf8162001d9d565b9050919050565b600062001df3826200115e565b915062001e00836200115e565b925082820390508181111562001e1b5762001e1a62001168565b5b92915050565b62001e2c8162001632565b82525050565b600060208201905062001e49600083018462001e21565b92915050565b600080fd5b600080fd5b60008151905062001e6a81620017d6565b92915050565b600062001e8762001e8184620013db565b620013bc565b90508281526020810184848401111562001ea65762001ea562001341565b5b62001eb384828562001909565b509392505050565b600082601f83011262001ed35762001ed26200133c565b5b815162001ee584826020860162001e70565b91505092915050565b6004811062001efc57600080fd5b50565b60008151905062001f108162001eee565b92915050565b60006080828403121562001f2f5762001f2e62001e4f565b5b62001f3b6080620013bc565b9050600062001f4d8482850162001e59565b600083015250602082015167ffffffffffffffff81111562001f745762001f7362001e54565b5b62001f828482850162001ebb565b602083015250604082015167ffffffffffffffff81111562001fa95762001fa862001e54565b5b62001fb78482850162001ebb565b604083015250606062001fcd8482850162001eff565b60608301525092915050565b60006020828403121562001ff25762001ff162001227565b5b600082015167ffffffffffffffff8111156200201357620020126200122c565b5b620020218482850162001f16565b91505092915050565b60006200203782620012e6565b9050919050565b62002049816200202a565b82525050565b60006020820190506200206660008301846200203e565b92915050565b600060808201905062002083600083018762001e21565b620020926020830186620015bd565b620020a16040830185620015bd565b620020b06060830184620015bd565b95945050505050565b600060208284031215620020d257620020d162001227565b5b600082015167ffffffffffffffff811115620020f357620020f26200122c565b5b620021018482850162001ebb565b91505092915050565b6000815190506200211b8162001231565b92915050565b6000602082840312156200213a576200213962001227565b5b60006200214a848285016200210a565b91505092915050565b600881106200216157600080fd5b50565b600081519050620021758162002153565b92915050565b60006020828403121562002194576200219362001227565b5b6000620021a48482850162002164565b9150509291505056fe60806040523480156200001157600080fd5b506040516200206638038062002066833981810160405281019062000037919062000405565b846000806101000a81548173ffffffffffffffffffffffffffffffffffffffff021916908373ffffffffffffffffffffffffffffffffffffffff16021790555083600190816200008891906200070c565b5082600290816200009a91906200070c565b5081600381905550600060048190555060006003811115620000c157620000c0620007f3565b5b816003811115620000d757620000d6620007f3565b5b03620000f057620000ef60006200014160201b60201c565b5b60026003811115620001075762000106620007f3565b5b8160038111156200011d576200011c620007f3565b5b0362000136576200013560026200014160201b60201c565b5b505050505062000890565b80600760006101000a81548160ff02191690836007811115620001695762000168620007f3565b5b02179055507f551dc40198cc79684bb69e4931dba4ac16e4598792ee1c0a5000aeea366d7bb6816040516200019f919062000873565b60405180910390a150565b6000604051905090565b600080fd5b600080fd5b600073ffffffffffffffffffffffffffffffffffffffff82169050919050565b6000620001eb82620001be565b9050919050565b620001fd81620001de565b81146200020957600080fd5b50565b6000815190506200021d81620001f2565b92915050565b600080fd5b600080fd5b6000601f19601f8301169050919050565b7f4e487b7100000000000000000000000000000000000000000000000000000000600052604160045260246000fd5b62000278826200022d565b810181811067ffffffffffffffff821117156200029a57620002996200023e565b5b80604052505050565b6000620002af620001aa565b9050620002bd82826200026d565b919050565b600067ffffffffffffffff821115620002e057620002df6200023e565b5b620002eb826200022d565b9050602081019050919050565b60005b8381101562000318578082015181840152602081019050620002fb565b60008484015250505050565b60006200033b6200033584620002c2565b620002a3565b9050828152602081018484840111156200035a576200035962000228565b5b62000367848285620002f8565b509392505050565b600082601f83011262000387576200038662000223565b5b81516200039984826020860162000324565b91505092915050565b6000819050919050565b620003b781620003a2565b8114620003c357600080fd5b50565b600081519050620003d781620003ac565b92915050565b60048110620003eb57600080fd5b50565b600081519050620003ff81620003dd565b92915050565b600080600080600060a08688031215620004245762000423620001b4565b5b600062000434888289016200020c565b955050602086015167ffffffffffffffff811115620004585762000457620001b9565b5b62000466888289016200036f565b945050604086015167ffffffffffffffff8111156200048a5762000489620001b9565b5b62000498888289016200036f565b9350506060620004ab88828901620003c6565b9250506080620004be88828901620003ee565b9150509295509295909350565b600081519050919050565b7f4e487b7100000000000000000000000000000000000000000000000000000000600052602260045260246000fd5b600060028204905060018216806200051e57607f821691505b602082108103620005345762000533620004d6565b5b50919050565b60008190508160005260206000209050919050565b60006020601f8301049050919050565b600082821b905092915050565b6000600883026200059e7fffffffffffffffffffffffffffffffffffffffffffffffffffffffffffffffff826200055f565b620005aa86836200055f565b95508019841693508086168417925050509392505050565b6000819050919050565b6000620005ed620005e7620005e184620003a2565b620005c2565b620003a2565b9050919050565b6000819050919050565b6200060983620005cc565b620006216200061882620005f4565b8484546200056c565b825550505050565b600090565b6200063862000629565b62000645818484620005fe565b505050565b5b818110156200066d57620006616000826200062e565b6001810190506200064b565b5050565b601f821115620006bc5762000686816200053a565b62000691846200054f565b81016020851015620006a1578190505b620006b9620006b0856200054f565b8301826200064a565b50505b505050565b600082821c905092915050565b6000620006e160001984600802620006c1565b1980831691505092915050565b6000620006fc8383620006ce565b9150826002028217905092915050565b6200071782620004cb565b67ffffffffffffffff8111156200073357620007326200023e565b5b6200073f825462000505565b6200074c82828562000671565b600060209050601f8311600181146200078457600084156200076f578287015190505b6200077b8582620006ee565b865550620007eb565b601f19841662000794866200053a565b60005b82811015620007be5784890151825560018201915060208501945060208101905062000797565b86831015620007de5784890151620007da601f891682620006ce565b8355505b6001600288020188555050505b505050505050565b7f4e487b7100000000000000000000000000000000000000000000000000000000600052602160045260246000fd5b60088110620008365762000835620007f3565b5b50565b6000819050620008498262000822565b919050565b60006200085b8262000839565b9050919050565b6200086d816200084e565b82525050565b60006020820190506200088a600083018462000862565b92915050565b6117c680620008a06000396000f3fe608060405234801561001057600080fd5b50600436106101005760003560e01c806398f1742211610097578063c3e20c9f11610066578063c3e20c9f14610256578063c7656f6e14610274578063d8bff5a51461027e578063e6120413146102ae57610100565b806398f17422146101f4578063a4475ce414610210578063c19d93fb1461022e578063c39664091461024c57610100565b80633c68eb81116100d35780633c68eb8114610179578063755f047b146101835780637a3a0e84146101a1578063840e78fd146101bf57610100565b80630121b93f146101055780630888b70d146101215780631479197f1461013f5780631ec6b60a1461016f575b600080fd5b61011f600480360381019061011a9190610c48565b6102ca565b005b610129610381565b6040516101369190610c84565b60405180910390f35b61015960048036038101906101549190610cfd565b610387565b6040516101669190610c84565b60405180910390f35b6101776103d0565b005b610181610452565b005b61018b610504565b6040516101989190610dba565b60405180910390f35b6101a9610592565b6040516101b69190610c84565b60405180910390f35b6101d960048036038101906101d49190610cfd565b610598565b6040516101eb96959493929190610e74565b60405180910390f35b61020e60048036038101906102099190611069565b610711565b005b6102186108d1565b604051610225919061111c565b60405180910390f35b6102366108f5565b6040516102439190611137565b60405180910390f35b610254610908565b005b61025e61098a565b60405161026b9190610dba565b60405180910390f35b61027c610a18565b005b61029860048036038101906102939190610cfd565b610ae1565b6040516102a59190610c84565b60405180910390f35b6102c860048036038101906102c39190611152565b610af9565b005b80600660003373ffffffffffffffffffffffffffffffffffffffff1673ffffffffffffffffffffffffffffffffffffffff168152602001908152602001600020600082825461031991906111ca565b92505081905550806004600082825461033291906111ca565b925050819055506003546004541061037e577fbdf8e8154212732e32053db049accdd4ff27639d7028ecf127e2353161b994bf6004546040516103759190610c84565b60405180910390a15b50565b60045481565b6000600660008373ffffffffffffffffffffffffffffffffffffffff1673ffffffffffffffffffffffffffffffffffffffff168152602001908152602001600020549050919050565b600260078111156103e4576103e3610dfd565b5b600760009054906101000a900460ff16600781111561040657610405610dfd565b5b03610446576040517f08c379a000000000000000000000000000000000000000000000000000000000815260040161043d90611270565b60405180910390fd5b6104506002610b9a565b565b6003546004541015610499576040517f08c379a0000000000000000000000000000000000000000000000000000000008152600401610490906112dc565b60405180910390fd5b60008054906101000a900473ffffffffffffffffffffffffffffffffffffffff1673ffffffffffffffffffffffffffffffffffffffff166108fc6004549081150290604051600060405180830381858888f19350505050158015610501573d6000803e3d6000fd5b50565b600280546105119061132b565b80601f016020809104026020016040519081016040528092919081815260200182805461053d9061132b565b801561058a5780601f1061055f5761010080835404028352916020019161058a565b820191906000526020600020905b81548152906001019060200180831161056d57829003601f168201915b505050505081565b60035481565b60056020528060005260406000206000915090508060000160009054906101000a900473ffffffffffffffffffffffffffffffffffffffff16908060010180546105e19061132b565b80601f016020809104026020016040519081016040528092919081815260200182805461060d9061132b565b801561065a5780601f1061062f5761010080835404028352916020019161065a565b820191906000526020600020905b81548152906001019060200180831161063d57829003601f168201915b50505050509080600201805461066f9061132b565b80601f016020809104026020016040519081016040528092919081815260200182805461069b9061132b565b80156106e85780601f106106bd576101008083540402835291602001916106e8565b820191906000526020600020905b8154815290600101906020018083116106cb57829003601f168201915b5050505050908060030154908060040154908060050160009054906101000a900460ff16905086565b6000600560008773ffffffffffffffffffffffffffffffffffffffff1673ffffffffffffffffffffffffffffffffffffffff1681526020019081526020016000209050858160000160006101000a81548173ffffffffffffffffffffffffffffffffffffffff021916908373ffffffffffffffffffffffffffffffffffffffff160217905550838160010190816107a89190611508565b50828160020190816107ba9190611508565b508181600301819055506000816004018190555060008160060160003373ffffffffffffffffffffffffffffffffffffffff1673ffffffffffffffffffffffffffffffffffffffff168152602001908152602001600020819055506000600381111561082957610828610dfd565b5b85600381111561083c5761083b610dfd565b5b0361086f5760008160050160006101000a81548160ff0219169083600781111561086957610868610dfd565b5b02179055505b6002600381111561088357610882610dfd565b5b85600381111561089657610895610dfd565b5b036108c95760028160050160006101000a81548160ff021916908360078111156108c3576108c2610dfd565b5b02179055505b505050505050565b60008054906101000a900473ffffffffffffffffffffffffffffffffffffffff1681565b600760009054906101000a900460ff1681565b6004600781111561091c5761091b610dfd565b5b600760009054906101000a900460ff16600781111561093e5761093d610dfd565b5b1461097e576040517f08c379a00000000000000000000000000000000000000000000000000000000081526004016109759061164c565b60405180910390fd5b6109886005610b9a565b565b600180546109979061132b565b80601f01602080910402602001604051908101604052809291908181526020018280546109c39061132b565b8015610a105780601f106109e557610100808354040283529160200191610a10565b820191906000526020600020905b8154815290600101906020018083116109f357829003601f168201915b505050505081565b60026007811115610a2c57610a2b610dfd565b5b600760009054906101000a900460ff166007811115610a4e57610a4d610dfd565b5b14610a8e576040517f08c379a0000000000000000000000000000000000000000000000000000000008152600401610a85906116de565b60405180910390fd5b6003546004541015610ad5576040517f08c379a0000000000000000000000000000000000000000000000000000000008152600401610acc906112dc565b60405180910390fd5b610adf6004610b9a565b565b60066020528060005260406000206000915090505481565b60008054906101000a900473ffffffffffffffffffffffffffffffffffffffff1673ffffffffffffffffffffffffffffffffffffffff163373ffffffffffffffffffffffffffffffffffffffff1614610b87576040517f08c379a0000000000000000000000000000000000000000000000000000000008152600401610b7e90611770565b60405180910390fd5b8060029081610b969190611508565b5050565b80600760006101000a81548160ff02191690836007811115610bbf57610bbe610dfd565b5b02179055507f551dc40198cc79684bb69e4931dba4ac16e4598792ee1c0a5000aeea366d7bb681604051610bf39190611137565b60405180910390a150565b6000604051905090565b600080fd5b600080fd5b6000819050919050565b610c2581610c12565b8114610c3057600080fd5b50565b600081359050610c4281610c1c565b92915050565b600060208284031215610c5e57610c5d610c08565b5b6000610c6c84828501610c33565b91505092915050565b610c7e81610c12565b82525050565b6000602082019050610c996000830184610c75565b92915050565b600073ffffffffffffffffffffffffffffffffffffffff82169050919050565b6000610cca82610c9f565b9050919050565b610cda81610cbf565b8114610ce557600080fd5b50565b600081359050610cf781610cd1565b92915050565b600060208284031215610d1357610d12610c08565b5b6000610d2184828501610ce8565b91505092915050565b600081519050919050565b600082825260208201905092915050565b60005b83811015610d64578082015181840152602081019050610d49565b60008484015250505050565b6000601f19601f8301169050919050565b6000610d8c82610d2a565b610d968185610d35565b9350610da6818560208601610d46565b610daf81610d70565b840191505092915050565b60006020820190508181036000830152610dd48184610d81565b905092915050565b6000610de782610c9f565b9050919050565b610df781610ddc565b82525050565b7f4e487b7100000000000000000000000000000000000000000000000000000000600052602160045260246000fd5b60088110610e3d57610e3c610dfd565b5b50565b6000819050610e4e82610e2c565b919050565b6000610e5e82610e40565b9050919050565b610e6e81610e53565b82525050565b600060c082019050610e896000830189610dee565b8181036020830152610e9b8188610d81565b90508181036040830152610eaf8187610d81565b9050610ebe6060830186610c75565b610ecb6080830185610c75565b610ed860a0830184610e65565b979650505050505050565b610eec81610ddc565b8114610ef757600080fd5b50565b600081359050610f0981610ee3565b92915050565b60048110610f1c57600080fd5b50565b600081359050610f2e81610f0f565b92915050565b600080fd5b600080fd5b7f4e487b7100000000000000000000000000000000000000000000000000000000600052604160045260246000fd5b610f7682610d70565b810181811067ffffffffffffffff82111715610f9557610f94610f3e565b5b80604052505050565b6000610fa8610bfe565b9050610fb48282610f6d565b919050565b600067ffffffffffffffff821115610fd457610fd3610f3e565b5b610fdd82610d70565b9050602081019050919050565b82818337600083830152505050565b600061100c61100784610fb9565b610f9e565b90508281526020810184848401111561102857611027610f39565b5b611033848285610fea565b509392505050565b600082601f8301126110505761104f610f34565b5b8135611060848260208601610ff9565b91505092915050565b600080600080600060a0868803121561108557611084610c08565b5b600061109388828901610efa565b95505060206110a488828901610f1f565b945050604086013567ffffffffffffffff8111156110c5576110c4610c0d565b5b6110d18882890161103b565b935050606086013567ffffffffffffffff8111156110f2576110f1610c0d565b5b6110fe8882890161103b565b925050608061110f88828901610c33565b9150509295509295909350565b60006020820190506111316000830184610dee565b92915050565b600060208201905061114c6000830184610e65565b92915050565b60006020828403121561116857611167610c08565b5b600082013567ffffffffffffffff81111561118657611185610c0d565b5b6111928482850161103b565b91505092915050565b7f4e487b7100000000000000000000000000000000000000000000000000000000600052601160045260246000fd5b60006111d582610c12565b91506111e083610c12565b92508282019050808211156111f8576111f761119b565b5b92915050565b7f50726f6a65637420697320616c726561647920696e20766f74696e672073746160008201527f7465000000000000000000000000000000000000000000000000000000000000602082015250565b600061125a602283610d35565b9150611265826111fe565b604082019050919050565b600060208201905081810360008301526112898161124d565b9050919050565b7f46756e64696e6720676f616c206e6f7420726561636865640000000000000000600082015250565b60006112c6601883610d35565b91506112d182611290565b602082019050919050565b600060208201905081810360008301526112f5816112b9565b9050919050565b7f4e487b7100000000000000000000000000000000000000000000000000000000600052602260045260246000fd5b6000600282049050600182168061134357607f821691505b602082108103611356576113556112fc565b5b50919050565b60008190508160005260206000209050919050565b60006020601f8301049050919050565b600082821b905092915050565b6000600883026113be7fffffffffffffffffffffffffffffffffffffffffffffffffffffffffffffffff82611381565b6113c88683611381565b95508019841693508086168417925050509392505050565b6000819050919050565b60006114056114006113fb84610c12565b6113e0565b610c12565b9050919050565b6000819050919050565b61141f836113ea565b61143361142b8261140c565b84845461138e565b825550505050565b600090565b61144861143b565b611453818484611416565b505050565b5b818110156114775761146c600082611440565b600181019050611459565b5050565b601f8211156114bc5761148d8161135c565b61149684611371565b810160208510156114a5578190505b6114b96114b185611371565b830182611458565b50505b505050565b600082821c905092915050565b60006114df600019846008026114c1565b1980831691505092915050565b60006114f883836114ce565b9150826002028217905092915050565b61151182610d2a565b67ffffffffffffffff81111561152a57611529610f3e565b5b611534825461132b565b61153f82828561147b565b600060209050601f8311600181146115725760008415611560578287015190505b61156a85826114ec565b8655506115d2565b601f1984166115808661135c565b60005b828110156115a857848901518255600182019150602085019450602081019050611583565b868310156115c557848901516115c1601f8916826114ce565b8355505b6001600288020188555050505b505050505050565b7f50726f6a656374206973206e6f7420696e20746865205374617274656420737460008201527f6174650000000000000000000000000000000000000000000000000000000000602082015250565b6000611636602383610d35565b9150611641826115da565b604082019050919050565b6000602082019050818103600083015261166581611629565b9050919050565b7f50726f6a656374206973206e6f7420696e2074686520566f74696e672073746160008201527f7465000000000000000000000000000000000000000000000000000000000000602082015250565b60006116c8602283610d35565b91506116d38261166c565b604082019050919050565b600060208201905081810360008301526116f7816116bb565b9050919050565b7f4f6e6c792070726f6a656374206f776e65722063616e2063616c6c207468697360008201527f2066756e6374696f6e0000000000000000000000000000000000000000000000602082015250565b600061175a602983610d35565b9150611765826116fe565b604082019050919050565b600060208201905081810360008301526117898161174d565b905091905056fea2646970667358221220ee5200389bc68c912fba66e639931a5bb8072bc3683ef0403d66adcaec02193764736f6c63430008180033a2646970667358221220d81d81a198aeb14f36d88d9aeca80a436bdbfe206ebe6643db2041fb9096dd0864736f6c6343000818003360806040523480156200001157600080fd5b50604051620031e4380380620031e4833981810160405281019062000037919062000183565b6040518060400160405280601381526020017f534c522d446f6e6174696f6e52656365697074000000000000000000000000008152506040518060400160405280600681526020017f534c522d445200000000000000000000000000000000000000000000000000008152508160009081620000b491906200042f565b508060019081620000c691906200042f565b50505080600860006101000a81548173ffffffffffffffffffffffffffffffffffffffff021916908373ffffffffffffffffffffffffffffffffffffffff16021790555060006007819055505062000516565b600080fd5b600073ffffffffffffffffffffffffffffffffffffffff82169050919050565b60006200014b826200011e565b9050919050565b6200015d816200013e565b81146200016957600080fd5b50565b6000815190506200017d8162000152565b92915050565b6000602082840312156200019c576200019b62000119565b5b6000620001ac848285016200016c565b91505092915050565b600081519050919050565b7f4e487b7100000000000000000000000000000000000000000000000000000000600052604160045260246000fd5b7f4e487b7100000000000000000000000000000000000000000000000000000000600052602260045260246000fd5b600060028204905060018216806200023757607f821691505b6020821081036200024d576200024c620001ef565b5b50919050565b60008190508160005260206000209050919050565b60006020601f8301049050919050565b600082821b905092915050565b600060088302620002b77fffffffffffffffffffffffffffffffffffffffffffffffffffffffffffffffff8262000278565b620002c3868362000278565b95508019841693508086168417925050509392505050565b6000819050919050565b6000819050919050565b6000620003106200030a6200030484620002db565b620002e5565b620002db565b9050919050565b6000819050919050565b6200032c83620002ef565b620003446200033b8262000317565b84845462000285565b825550505050565b600090565b6200035b6200034c565b6200036881848462000321565b505050565b5b8181101562000390576200038460008262000351565b6001810190506200036e565b5050565b601f821115620003df57620003a98162000253565b620003b48462000268565b81016020851015620003c4578190505b620003dc620003d38562000268565b8301826200036d565b50505b505050565b600082821c905092915050565b60006200040460001984600802620003e4565b1980831691505092915050565b60006200041f8383620003f1565b9150826002028217905092915050565b6200043a82620001b5565b67ffffffffffffffff811115620004565762000455620001c0565b5b6200046282546200021e565b6200046f82828562000394565b600060209050601f831160018114620004a7576000841562000492578287015190505b6200049e858262000411565b8655506200050e565b601f198416620004b78662000253565b60005b82811015620004e157848901518255600182019150602085019450602081019050620004ba565b86831015620005015784890151620004fd601f891682620003f1565b8355505b6001600288020188555050505b505050505050565b612cbe80620005266000396000f3fe608060405234801561001057600080fd5b50600436106101005760003560e01c806370a0823111610097578063b88d4fde11610066578063b88d4fde146102ab578063c87b56dd146102c7578063e985e9c5146102f7578063f97203af1461032757610100565b806370a082311461022557806395d89b4114610255578063a16297a014610273578063a22cb4651461028f57610100565b806323b872dd116100d357806323b872dd1461019f5780634162169f146101bb57806342842e0e146101d95780636352211e146101f557610100565b806301ffc9a71461010557806306fdde0314610135578063081812fc14610153578063095ea7b314610183575b600080fd5b61011f600480360381019061011a9190611d29565b610357565b60405161012c9190611d71565b60405180910390f35b61013d6103b8565b60405161014a9190611e1c565b60405180910390f35b61016d60048036038101906101689190611e74565b61044a565b60405161017a9190611ee2565b60405180910390f35b61019d60048036038101906101989190611f29565b610466565b005b6101b960048036038101906101b49190611f69565b61047c565b005b6101c361057e565b6040516101d09190611fdd565b60405180910390f35b6101f360048036038101906101ee9190611f69565b6105a4565b005b61020f600480360381019061020a9190611e74565b6105c4565b60405161021c9190611ee2565b60405180910390f35b61023f600480360381019061023a9190611ff8565b6105d6565b60405161024c9190612034565b60405180910390f35b61025d610690565b60405161026a9190611e1c565b60405180910390f35b61028d6004803603810190610288919061204f565b610722565b005b6102a960048036038101906102a491906120e2565b6108d5565b005b6102c560048036038101906102c09190612257565b6108eb565b005b6102e160048036038101906102dc9190611e74565b610908565b6040516102ee9190611e1c565b60405180910390f35b610311600480360381019061030c91906122da565b610a1b565b60405161031e9190611d71565b60405180910390f35b610341600480360381019061033c9190612350565b610aaf565b60405161034e9190611d71565b60405180910390f35b6000634906490660e01b7bffffffffffffffffffffffffffffffffffffffffffffffffffffffff1916827bffffffffffffffffffffffffffffffffffffffffffffffffffffffff191614806103b157506103b082610acf565b5b9050919050565b6060600080546103c7906123ac565b80601f01602080910402602001604051908101604052809291908181526020018280546103f3906123ac565b80156104405780601f1061041557610100808354040283529160200191610440565b820191906000526020600020905b81548152906001019060200180831161042357829003601f168201915b5050505050905090565b600061045582610bb1565b5061045f82610c39565b9050919050565b6104788282610473610c76565b610c7e565b5050565b600073ffffffffffffffffffffffffffffffffffffffff168273ffffffffffffffffffffffffffffffffffffffff16036104ee5760006040517f64a0ae920000000000000000000000000000000000000000000000000000000081526004016104e59190611ee2565b60405180910390fd5b600061050283836104fd610c76565b610c90565b90508373ffffffffffffffffffffffffffffffffffffffff168173ffffffffffffffffffffffffffffffffffffffff1614610578578382826040517f64283d7b00000000000000000000000000000000000000000000000000000000815260040161056f939291906123dd565b60405180910390fd5b50505050565b600860009054906101000a900473ffffffffffffffffffffffffffffffffffffffff1681565b6105bf838383604051806020016040528060008152506108eb565b505050565b60006105cf82610bb1565b9050919050565b60008073ffffffffffffffffffffffffffffffffffffffff168273ffffffffffffffffffffffffffffffffffffffff16036106495760006040517f89c62b640000000000000000000000000000000000000000000000000000000081526004016106409190611ee2565b60405180910390fd5b600360008373ffffffffffffffffffffffffffffffffffffffff1673ffffffffffffffffffffffffffffffffffffffff168152602001908152602001600020549050919050565b60606001805461069f906123ac565b80601f01602080910402602001604051908101604052809291908181526020018280546106cb906123ac565b80156107185780601f106106ed57610100808354040283529160200191610718565b820191906000526020600020905b8154815290600101906020018083116106fb57829003601f168201915b5050505050905090565b600860009054906101000a900473ffffffffffffffffffffffffffffffffffffffff1673ffffffffffffffffffffffffffffffffffffffff163373ffffffffffffffffffffffffffffffffffffffff16146107b2576040517f08c379a00000000000000000000000000000000000000000000000000000000081526004016107a990612486565b60405180910390fd5b60006107e86107d88673ffffffffffffffffffffffffffffffffffffffff166014610eaa565b6107e1866110f0565b85856111be565b90506009600082815260200190815260200160002060009054906101000a900460ff161561084b576040517f08c379a0000000000000000000000000000000000000000000000000000000008152600401610842906124f2565b60405180910390fd5b60016009600083815260200190815260200160002060006101000a81548160ff02191690831515021790555061088385600754611244565b6000836040516020016108969190612648565b60405160208183030381529060405290506108b360075482611262565b6001600760008282546108c691906126a8565b92505081905550505050505050565b6108e76108e0610c76565b83836112be565b5050565b6108f684848461047c565b6109028484848461142d565b50505050565b606061091382610bb1565b506000600660008481526020019081526020016000208054610934906123ac565b80601f0160208091040260200160405190810160405280929190818152602001828054610960906123ac565b80156109ad5780601f10610982576101008083540402835291602001916109ad565b820191906000526020600020905b81548152906001019060200180831161099057829003601f168201915b5050505050905060006109be6115e4565b905060008151036109d3578192505050610a16565b600082511115610a085780826040516020016109f092919061270d565b60405160208183030381529060405292505050610a16565b610a11846115fb565b925050505b919050565b6000600560008473ffffffffffffffffffffffffffffffffffffffff1673ffffffffffffffffffffffffffffffffffffffff16815260200190815260200160002060008373ffffffffffffffffffffffffffffffffffffffff1673ffffffffffffffffffffffffffffffffffffffff16815260200190815260200160002060009054906101000a900460ff16905092915050565b60096020528060005260406000206000915054906101000a900460ff1681565b60007f80ac58cd000000000000000000000000000000000000000000000000000000007bffffffffffffffffffffffffffffffffffffffffffffffffffffffff1916827bffffffffffffffffffffffffffffffffffffffffffffffffffffffff19161480610b9a57507f5b5e139f000000000000000000000000000000000000000000000000000000007bffffffffffffffffffffffffffffffffffffffffffffffffffffffff1916827bffffffffffffffffffffffffffffffffffffffffffffffffffffffff1916145b80610baa5750610ba982611664565b5b9050919050565b600080610bbd836116ce565b9050600073ffffffffffffffffffffffffffffffffffffffff168173ffffffffffffffffffffffffffffffffffffffff1603610c3057826040517f7e273289000000000000000000000000000000000000000000000000000000008152600401610c279190612034565b60405180910390fd5b80915050919050565b60006004600083815260200190815260200160002060009054906101000a900473ffffffffffffffffffffffffffffffffffffffff169050919050565b600033905090565b610c8b838383600161170b565b505050565b600080610c9c846116ce565b9050600073ffffffffffffffffffffffffffffffffffffffff168373ffffffffffffffffffffffffffffffffffffffff1614610cde57610cdd8184866118d0565b5b600073ffffffffffffffffffffffffffffffffffffffff168173ffffffffffffffffffffffffffffffffffffffff1614610d6f57610d2060008560008061170b565b6001600360008373ffffffffffffffffffffffffffffffffffffffff1673ffffffffffffffffffffffffffffffffffffffff168152602001908152602001600020600082825403925050819055505b600073ffffffffffffffffffffffffffffffffffffffff168573ffffffffffffffffffffffffffffffffffffffff1614610df2576001600360008773ffffffffffffffffffffffffffffffffffffffff1673ffffffffffffffffffffffffffffffffffffffff168152602001908152602001600020600082825401925050819055505b846002600086815260200190815260200160002060006101000a81548173ffffffffffffffffffffffffffffffffffffffff021916908373ffffffffffffffffffffffffffffffffffffffff160217905550838573ffffffffffffffffffffffffffffffffffffffff168273ffffffffffffffffffffffffffffffffffffffff167fddf252ad1be2c89b69c2b068fc378daa952ba7f163c4a11628f55a4df523b3ef60405160405180910390a4809150509392505050565b6060600083905060006002846002610ec29190612731565b610ecc91906126a8565b67ffffffffffffffff811115610ee557610ee461212c565b5b6040519080825280601f01601f191660200182016040528015610f175781602001600182028036833780820191505090505b5090507f300000000000000000000000000000000000000000000000000000000000000081600081518110610f4f57610f4e612773565b5b60200101907effffffffffffffffffffffffffffffffffffffffffffffffffffffffffffff1916908160001a9053507f780000000000000000000000000000000000000000000000000000000000000081600181518110610fb357610fb2612773565b5b60200101907effffffffffffffffffffffffffffffffffffffffffffffffffffffffffffff1916908160001a90535060006001856002610ff39190612731565b610ffd91906126a8565b90505b600181111561109d577f3031323334353637383961626364656600000000000000000000000000000000600f84166010811061103f5761103e612773565b5b1a60f81b82828151811061105657611055612773565b5b60200101907effffffffffffffffffffffffffffffffffffffffffffffffffffffffffffff1916908160001a905350600483901c925080611096906127a2565b9050611000565b50600082146110e55784846040517fe22e27eb0000000000000000000000000000000000000000000000000000000081526004016110dc9291906127cb565b60405180910390fd5b809250505092915050565b6060600060016110ff84611994565b01905060008167ffffffffffffffff81111561111e5761111d61212c565b5b6040519080825280601f01601f1916602001820160405280156111505781602001600182028036833780820191505090505b509050600082602001820190505b6001156111b3578080600190039150507f3031323334353637383961626364656600000000000000000000000000000000600a86061a8153600a85816111a7576111a66127f4565b5b0494506000850361115e575b819350505050919050565b600080858585856040516020016111d89493929190612823565b60405160208183030381529060405290506002816040516111f991906128b0565b602060405180830381855afa158015611216573d6000803e3d6000fd5b5050506040513d601f19601f8201168201806040525081019061123991906128dc565b915050949350505050565b61125e828260405180602001604052806000815250611ae7565b5050565b806006600084815260200190815260200160002090816112829190612ab5565b507ff8e1a15aba9398e019f0b49df1a4fde98ee17ae345cb5f6b5e2c27f5033e8ce7826040516112b29190612034565b60405180910390a15050565b600073ffffffffffffffffffffffffffffffffffffffff168273ffffffffffffffffffffffffffffffffffffffff160361132f57816040517f5b08ba180000000000000000000000000000000000000000000000000000000081526004016113269190611ee2565b60405180910390fd5b80600560008573ffffffffffffffffffffffffffffffffffffffff1673ffffffffffffffffffffffffffffffffffffffff16815260200190815260200160002060008473ffffffffffffffffffffffffffffffffffffffff1673ffffffffffffffffffffffffffffffffffffffff16815260200190815260200160002060006101000a81548160ff0219169083151502179055508173ffffffffffffffffffffffffffffffffffffffff168373ffffffffffffffffffffffffffffffffffffffff167f17307eab39ab6107e8899845ad3d59bd9653f200f220920489ca2b5937696c31836040516114209190611d71565b60405180910390a3505050565b60008373ffffffffffffffffffffffffffffffffffffffff163b11156115de578273ffffffffffffffffffffffffffffffffffffffff1663150b7a02611471610c76565b8685856040518563ffffffff1660e01b81526004016114939493929190612bd1565b6020604051808303816000875af19250505080156114cf57506040513d601f19601f820116820180604052508101906114cc9190612c32565b60015b611553573d80600081146114ff576040519150601f19603f3d011682016040523d82523d6000602084013e611504565b606091505b50600081510361154b57836040517f64a0ae920000000000000000000000000000000000000000000000000000000081526004016115429190611ee2565b60405180910390fd5b805181602001fd5b63150b7a0260e01b7bffffffffffffffffffffffffffffffffffffffffffffffffffffffff1916817bffffffffffffffffffffffffffffffffffffffffffffffffffffffff1916146115dc57836040517f64a0ae920000000000000000000000000000000000000000000000000000000081526004016115d39190611ee2565b60405180910390fd5b505b50505050565b606060405180602001604052806000815250905090565b606061160682610bb1565b5060006116116115e4565b90506000815111611631576040518060200160405280600081525061165c565b8061163b846110f0565b60405160200161164c92919061270d565b6040516020818303038152906040525b915050919050565b60007f01ffc9a7000000000000000000000000000000000000000000000000000000007bffffffffffffffffffffffffffffffffffffffffffffffffffffffff1916827bffffffffffffffffffffffffffffffffffffffffffffffffffffffff1916149050919050565b60006002600083815260200190815260200160002060009054906101000a900473ffffffffffffffffffffffffffffffffffffffff169050919050565b80806117445750600073ffffffffffffffffffffffffffffffffffffffff168273ffffffffffffffffffffffffffffffffffffffff1614155b1561187857600061175484610bb1565b9050600073ffffffffffffffffffffffffffffffffffffffff168373ffffffffffffffffffffffffffffffffffffffff16141580156117bf57508273ffffffffffffffffffffffffffffffffffffffff168173ffffffffffffffffffffffffffffffffffffffff1614155b80156117d257506117d08184610a1b565b155b1561181457826040517fa9fbf51f00000000000000000000000000000000000000000000000000000000815260040161180b9190611ee2565b60405180910390fd5b811561187657838573ffffffffffffffffffffffffffffffffffffffff168273ffffffffffffffffffffffffffffffffffffffff167f8c5be1e5ebec7d5bd14f71427d1e84f3dd0314c0f7b2291e5b200ac8c7c3b92560405160405180910390a45b505b836004600085815260200190815260200160002060006101000a81548173ffffffffffffffffffffffffffffffffffffffff021916908373ffffffffffffffffffffffffffffffffffffffff16021790555050505050565b6118db838383611b03565b61198f57600073ffffffffffffffffffffffffffffffffffffffff168373ffffffffffffffffffffffffffffffffffffffff160361195057806040517f7e2732890000000000000000000000000000000000000000000000000000000081526004016119479190612034565b60405180910390fd5b81816040517f177e802f000000000000000000000000000000000000000000000000000000008152600401611986929190612c5f565b60405180910390fd5b505050565b600080600090507a184f03e93ff9f4daa797ed6e38ed64bf6a1f01000000000000000083106119f2577a184f03e93ff9f4daa797ed6e38ed64bf6a1f01000000000000000083816119e8576119e76127f4565b5b0492506040810190505b6d04ee2d6d415b85acef81000000008310611a2f576d04ee2d6d415b85acef81000000008381611a2557611a246127f4565b5b0492506020810190505b662386f26fc100008310611a5e57662386f26fc100008381611a5457611a536127f4565b5b0492506010810190505b6305f5e1008310611a87576305f5e1008381611a7d57611a7c6127f4565b5b0492506008810190505b6127108310611aac576127108381611aa257611aa16127f4565b5b0492506004810190505b60648310611acf5760648381611ac557611ac46127f4565b5b0492506002810190505b600a8310611ade576001810190505b80915050919050565b611af18383611bc4565b611afe600084848461142d565b505050565b60008073ffffffffffffffffffffffffffffffffffffffff168373ffffffffffffffffffffffffffffffffffffffff1614158015611bbb57508273ffffffffffffffffffffffffffffffffffffffff168473ffffffffffffffffffffffffffffffffffffffff161480611b7c5750611b7b8484610a1b565b5b80611bba57508273ffffffffffffffffffffffffffffffffffffffff16611ba283610c39565b73ffffffffffffffffffffffffffffffffffffffff16145b5b90509392505050565b600073ffffffffffffffffffffffffffffffffffffffff168273ffffffffffffffffffffffffffffffffffffffff1603611c365760006040517f64a0ae92000000000000000000000000000000000000000000000000000000008152600401611c2d9190611ee2565b60405180910390fd5b6000611c4483836000610c90565b9050600073ffffffffffffffffffffffffffffffffffffffff168173ffffffffffffffffffffffffffffffffffffffff1614611cb85760006040517f73c6ac6e000000000000000000000000000000000000000000000000000000008152600401611caf9190611ee2565b60405180910390fd5b505050565b6000604051905090565b600080fd5b600080fd5b60007fffffffff0000000000000000000000000000000000000000000000000000000082169050919050565b611d0681611cd1565b8114611d1157600080fd5b50565b600081359050611d2381611cfd565b92915050565b600060208284031215611d3f57611d3e611cc7565b5b6000611d4d84828501611d14565b91505092915050565b60008115159050919050565b611d6b81611d56565b82525050565b6000602082019050611d866000830184611d62565b92915050565b600081519050919050565b600082825260208201905092915050565b60005b83811015611dc6578082015181840152602081019050611dab565b60008484015250505050565b6000601f19601f8301169050919050565b6000611dee82611d8c565b611df88185611d97565b9350611e08818560208601611da8565b611e1181611dd2565b840191505092915050565b60006020820190508181036000830152611e368184611de3565b905092915050565b6000819050919050565b611e5181611e3e565b8114611e5c57600080fd5b50565b600081359050611e6e81611e48565b92915050565b600060208284031215611e8a57611e89611cc7565b5b6000611e9884828501611e5f565b91505092915050565b600073ffffffffffffffffffffffffffffffffffffffff82169050919050565b6000611ecc82611ea1565b9050919050565b611edc81611ec1565b82525050565b6000602082019050611ef76000830184611ed3565b92915050565b611f0681611ec1565b8114611f1157600080fd5b50565b600081359050611f2381611efd565b92915050565b60008060408385031215611f4057611f3f611cc7565b5b6000611f4e85828601611f14565b9250506020611f5f85828601611e5f565b9150509250929050565b600080600060608486031215611f8257611f81611cc7565b5b6000611f9086828701611f14565b9350506020611fa186828701611f14565b9250506040611fb286828701611e5f565b9150509250925092565b6000611fc782611ea1565b9050919050565b611fd781611fbc565b82525050565b6000602082019050611ff26000830184611fce565b92915050565b60006020828403121561200e5761200d611cc7565b5b600061201c84828501611f14565b91505092915050565b61202e81611e3e565b82525050565b60006020820190506120496000830184612025565b92915050565b6000806000806080858703121561206957612068611cc7565b5b600061207787828801611f14565b945050602061208887828801611e5f565b935050604061209987828801611e5f565b92505060606120aa87828801611e5f565b91505092959194509250565b6120bf81611d56565b81146120ca57600080fd5b50565b6000813590506120dc816120b6565b92915050565b600080604083850312156120f9576120f8611cc7565b5b600061210785828601611f14565b9250506020612118858286016120cd565b9150509250929050565b600080fd5b600080fd5b7f4e487b7100000000000000000000000000000000000000000000000000000000600052604160045260246000fd5b61216482611dd2565b810181811067ffffffffffffffff821117156121835761218261212c565b5b80604052505050565b6000612196611cbd565b90506121a2828261215b565b919050565b600067ffffffffffffffff8211156121c2576121c161212c565b5b6121cb82611dd2565b9050602081019050919050565b82818337600083830152505050565b60006121fa6121f5846121a7565b61218c565b90508281526020810184848401111561221657612215612127565b5b6122218482856121d8565b509392505050565b600082601f83011261223e5761223d612122565b5b813561224e8482602086016121e7565b91505092915050565b6000806000806080858703121561227157612270611cc7565b5b600061227f87828801611f14565b945050602061229087828801611f14565b93505060406122a187828801611e5f565b925050606085013567ffffffffffffffff8111156122c2576122c1611ccc565b5b6122ce87828801612229565b91505092959194509250565b600080604083850312156122f1576122f0611cc7565b5b60006122ff85828601611f14565b925050602061231085828601611f14565b9150509250929050565b6000819050919050565b61232d8161231a565b811461233857600080fd5b50565b60008135905061234a81612324565b92915050565b60006020828403121561236657612365611cc7565b5b60006123748482850161233b565b91505092915050565b7f4e487b7100000000000000000000000000000000000000000000000000000000600052602260045260246000fd5b600060028204905060018216806123c457607f821691505b6020821081036123d7576123d661237d565b5b50919050565b60006060820190506123f26000830186611ed3565b6123ff6020830185612025565b61240c6040830184611ed3565b949350505050565b7f4f6e6c792044414f5f534c5220636f6e74726163742063616e2061636365737360008201527f20746869732066756e6374696f6e000000000000000000000000000000000000602082015250565b6000612470602e83611d97565b915061247b82612414565b604082019050919050565b6000602082019050818103600083015261249f81612463565b9050919050565b7f4e465420616c7265616479206372656174656400000000000000000000000000600082015250565b60006124dc601383611d97565b91506124e7826124a6565b602082019050919050565b6000602082019050818103600083015261250b816124cf565b9050919050565b600081905092915050565b7f646174613a6170706c69636174696f6e2f6a736f6e2c7b2250726f6a6563742060008201527f5469746c65223a22446f6e6174696f6e204e4654222c2264657363726970746960208201527f6f6e223a22202b2070726f6a656374735b5f70726f6a65637449645d2e70726f60408201527f6a6563744465736372697074696f6e2829202b20000000000000000000000000606082015250565b60006125c5607483612512565b91506125d08261251d565b607482019050919050565b6000819050919050565b6125f66125f182611e3e565b6125db565b82525050565b7f2045544820746f2074686520636f6e74726163742e227d000000000000000000600082015250565b6000612632601783612512565b915061263d826125fc565b601782019050919050565b6000612653826125b8565b915061265f82846125e5565b60208201915061266e82612625565b915081905092915050565b7f4e487b7100000000000000000000000000000000000000000000000000000000600052601160045260246000fd5b60006126b382611e3e565b91506126be83611e3e565b92508282019050808211156126d6576126d5612679565b5b92915050565b60006126e782611d8c565b6126f18185612512565b9350612701818560208601611da8565b80840191505092915050565b600061271982856126dc565b915061272582846126dc565b91508190509392505050565b600061273c82611e3e565b915061274783611e3e565b925082820261275581611e3e565b9150828204841483151761276c5761276b612679565b5b5092915050565b7f4e487b7100000000000000000000000000000000000000000000000000000000600052603260045260246000fd5b60006127ad82611e3e565b9150600082036127c0576127bf612679565b5b600182039050919050565b60006040820190506127e06000830185612025565b6127ed6020830184612025565b9392505050565b7f4e487b7100000000000000000000000000000000000000000000000000000000600052601260045260246000fd5b600061282f82876126dc565b915061283b82866126dc565b915061284782856125e5565b60208201915061285782846125e5565b60208201915081905095945050505050565b600081519050919050565b600081905092915050565b600061288a82612869565b6128948185612874565b93506128a4818560208601611da8565b80840191505092915050565b60006128bc828461287f565b915081905092915050565b6000815190506128d681612324565b92915050565b6000602082840312156128f2576128f1611cc7565b5b6000612900848285016128c7565b91505092915050565b60008190508160005260206000209050919050565b60006020601f8301049050919050565b600082821b905092915050565b60006008830261296b7fffffffffffffffffffffffffffffffffffffffffffffffffffffffffffffffff8261292e565b612975868361292e565b95508019841693508086168417925050509392505050565b6000819050919050565b60006129b26129ad6129a884611e3e565b61298d565b611e3e565b9050919050565b6000819050919050565b6129cc83612997565b6129e06129d8826129b9565b84845461293b565b825550505050565b600090565b6129f56129e8565b612a008184846129c3565b505050565b5b81811015612a2457612a196000826129ed565b600181019050612a06565b5050565b601f821115612a6957612a3a81612909565b612a438461291e565b81016020851015612a52578190505b612a66612a5e8561291e565b830182612a05565b50505b505050565b600082821c905092915050565b6000612a8c60001984600802612a6e565b1980831691505092915050565b6000612aa58383612a7b565b9150826002028217905092915050565b612abe82611d8c565b67ffffffffffffffff811115612ad757612ad661212c565b5b612ae182546123ac565b612aec828285612a28565b600060209050601f831160018114612b1f5760008415612b0d578287015190505b612b178582612a99565b865550612b7f565b601f198416612b2d86612909565b60005b82811015612b5557848901518255600182019150602085019450602081019050612b30565b86831015612b725784890151612b6e601f891682612a7b565b8355505b6001600288020188555050505b505050505050565b600082825260208201905092915050565b6000612ba382612869565b612bad8185612b87565b9350612bbd818560208601611da8565b612bc681611dd2565b840191505092915050565b6000608082019050612be66000830187611ed3565b612bf36020830186611ed3565b612c006040830185612025565b8181036060830152612c128184612b98565b905095945050505050565b600081519050612c2c81611cfd565b92915050565b600060208284031215612c4857612c47611cc7565b5b6000612c5684828501612c1d565b91505092915050565b6000604082019050612c746000830185611ed3565b612c816020830184612025565b939250505056fea26469706673582212207a25d69c4e1a352ff22c30cfbeaae1cdd6974f6263ed671024364dd467bec1b364736f6c6343000818003360806040523480156200001157600080fd5b5060405162001225380380620012258339818101604052810190620000379190620000e8565b806000806101000a81548173ffffffffffffffffffffffffffffffffffffffff021916908373ffffffffffffffffffffffffffffffffffffffff160217905550506200011a565b600080fd5b600073ffffffffffffffffffffffffffffffffffffffff82169050919050565b6000620000b08262000083565b9050919050565b620000c281620000a3565b8114620000ce57600080fd5b50565b600081519050620000e281620000b7565b92915050565b6000602082840312156200010157620001006200007e565b5b60006200011184828501620000d1565b91505092915050565b6110fb806200012a6000396000f3fe608060405234801561001057600080fd5b50600436106100575760003560e01c80634162169f1461005c5780635a1f74061461007a57806369ad9617146100ad57806389f066a2146100dd578063b80bf827146100f9575b600080fd5b610064610115565b6040516100719190610803565b60405180910390f35b610094600480360381019061008f919061085e565b610139565b6040516100a494939291906109b3565b60405180910390f35b6100c760048036038101906100c2919061085e565b6102a6565b6040516100d49190610ad8565b60405180910390f35b6100f760048036038101906100f29190610b1f565b6104b4565b005b610113600480360381019061010e9190610cc0565b6105b0565b005b60008054906101000a900473ffffffffffffffffffffffffffffffffffffffff1681565b60016020528060005260406000206000915090508060000160009054906101000a900473ffffffffffffffffffffffffffffffffffffffff169080600101805461018290610d7a565b80601f01602080910402602001604051908101604052809291908181526020018280546101ae90610d7a565b80156101fb5780601f106101d0576101008083540402835291602001916101fb565b820191906000526020600020905b8154815290600101906020018083116101de57829003601f168201915b50505050509080600201805461021090610d7a565b80601f016020809104026020016040519081016040528092919081815260200182805461023c90610d7a565b80156102895780601f1061025e57610100808354040283529160200191610289565b820191906000526020600020905b81548152906001019060200180831161026c57829003601f168201915b5050505050908060030160009054906101000a900460ff16905084565b6102ae610772565b600160008373ffffffffffffffffffffffffffffffffffffffff1673ffffffffffffffffffffffffffffffffffffffff1681526020019081526020016000206040518060800160405290816000820160009054906101000a900473ffffffffffffffffffffffffffffffffffffffff1673ffffffffffffffffffffffffffffffffffffffff1673ffffffffffffffffffffffffffffffffffffffff16815260200160018201805461035e90610d7a565b80601f016020809104026020016040519081016040528092919081815260200182805461038a90610d7a565b80156103d75780601f106103ac576101008083540402835291602001916103d7565b820191906000526020600020905b8154815290600101906020018083116103ba57829003601f168201915b505050505081526020016002820180546103f090610d7a565b80601f016020809104026020016040519081016040528092919081815260200182805461041c90610d7a565b80156104695780601f1061043e57610100808354040283529160200191610469565b820191906000526020600020905b81548152906001019060200180831161044c57829003601f168201915b505050505081526020016003820160009054906101000a900460ff1660038111156104975761049661093c565b5b60038111156104a9576104a861093c565b5b815250509050919050565b60008054906101000a900473ffffffffffffffffffffffffffffffffffffffff1673ffffffffffffffffffffffffffffffffffffffff163373ffffffffffffffffffffffffffffffffffffffff1614610542576040517f08c379a000000000000000000000000000000000000000000000000000000000815260040161053990610e1d565b60405180910390fd5b80600160008473ffffffffffffffffffffffffffffffffffffffff1673ffffffffffffffffffffffffffffffffffffffff16815260200190815260200160002060030160006101000a81548160ff021916908360038111156105a7576105a661093c565b5b02179055505050565b60008054906101000a900473ffffffffffffffffffffffffffffffffffffffff1673ffffffffffffffffffffffffffffffffffffffff163373ffffffffffffffffffffffffffffffffffffffff161461063e576040517f08c379a000000000000000000000000000000000000000000000000000000000815260040161063590610e1d565b60405180910390fd5b60405180608001604052808473ffffffffffffffffffffffffffffffffffffffff168152602001838152602001828152602001600060038111156106855761068461093c565b5b815250600160008573ffffffffffffffffffffffffffffffffffffffff1673ffffffffffffffffffffffffffffffffffffffff16815260200190815260200160002060008201518160000160006101000a81548173ffffffffffffffffffffffffffffffffffffffff021916908373ffffffffffffffffffffffffffffffffffffffff16021790555060208201518160010190816107239190610ff3565b5060408201518160020190816107399190610ff3565b5060608201518160030160006101000a81548160ff021916908360038111156107655761076461093c565b5b0217905550905050505050565b6040518060800160405280600073ffffffffffffffffffffffffffffffffffffffff1681526020016060815260200160608152602001600060038111156107bc576107bb61093c565b5b81525090565b600073ffffffffffffffffffffffffffffffffffffffff82169050919050565b60006107ed826107c2565b9050919050565b6107fd816107e2565b82525050565b600060208201905061081860008301846107f4565b92915050565b6000604051905090565b600080fd5b600080fd5b61083b816107e2565b811461084657600080fd5b50565b60008135905061085881610832565b92915050565b60006020828403121561087457610873610828565b5b600061088284828501610849565b91505092915050565b6000610896826107c2565b9050919050565b6108a68161088b565b82525050565b600081519050919050565b600082825260208201905092915050565b60005b838110156108e65780820151818401526020810190506108cb565b60008484015250505050565b6000601f19601f8301169050919050565b600061090e826108ac565b61091881856108b7565b93506109288185602086016108c8565b610931816108f2565b840191505092915050565b7f4e487b7100000000000000000000000000000000000000000000000000000000600052602160045260246000fd5b6004811061097c5761097b61093c565b5b50565b600081905061098d8261096b565b919050565b600061099d8261097f565b9050919050565b6109ad81610992565b82525050565b60006080820190506109c8600083018761089d565b81810360208301526109da8186610903565b905081810360408301526109ee8185610903565b90506109fd60608301846109a4565b95945050505050565b610a0f8161088b565b82525050565b600082825260208201905092915050565b6000610a31826108ac565b610a3b8185610a15565b9350610a4b8185602086016108c8565b610a54816108f2565b840191505092915050565b610a6881610992565b82525050565b6000608083016000830151610a866000860182610a06565b5060208301518482036020860152610a9e8282610a26565b91505060408301518482036040860152610ab88282610a26565b9150506060830151610acd6060860182610a5f565b508091505092915050565b60006020820190508181036000830152610af28184610a6e565b905092915050565b60048110610b0757600080fd5b50565b600081359050610b1981610afa565b92915050565b60008060408385031215610b3657610b35610828565b5b6000610b4485828601610849565b9250506020610b5585828601610b0a565b9150509250929050565b610b688161088b565b8114610b7357600080fd5b50565b600081359050610b8581610b5f565b92915050565b600080fd5b600080fd5b7f4e487b7100000000000000000000000000000000000000000000000000000000600052604160045260246000fd5b610bcd826108f2565b810181811067ffffffffffffffff82111715610bec57610beb610b95565b5b80604052505050565b6000610bff61081e565b9050610c0b8282610bc4565b919050565b600067ffffffffffffffff821115610c2b57610c2a610b95565b5b610c34826108f2565b9050602081019050919050565b82818337600083830152505050565b6000610c63610c5e84610c10565b610bf5565b905082815260208101848484011115610c7f57610c7e610b90565b5b610c8a848285610c41565b509392505050565b600082601f830112610ca757610ca6610b8b565b5b8135610cb7848260208601610c50565b91505092915050565b600080600060608486031215610cd957610cd8610828565b5b6000610ce786828701610b76565b935050602084013567ffffffffffffffff811115610d0857610d0761082d565b5b610d1486828701610c92565b925050604084013567ffffffffffffffff811115610d3557610d3461082d565b5b610d4186828701610c92565b9150509250925092565b7f4e487b7100000000000000000000000000000000000000000000000000000000600052602260045260246000fd5b60006002820490506001821680610d9257607f821691505b602082108103610da557610da4610d4b565b5b50919050565b7f43616e206f6e6c792062652063616c6c65642066726f6d2074686520534c522060008201527f44414f0000000000000000000000000000000000000000000000000000000000602082015250565b6000610e076023836108b7565b9150610e1282610dab565b604082019050919050565b60006020820190508181036000830152610e3681610dfa565b9050919050565b60008190508160005260206000209050919050565b60006020601f8301049050919050565b600082821b905092915050565b600060088302610e9f7fffffffffffffffffffffffffffffffffffffffffffffffffffffffffffffffff82610e62565b610ea98683610e62565b95508019841693508086168417925050509392505050565b6000819050919050565b6000819050919050565b6000610ef0610eeb610ee684610ec1565b610ecb565b610ec1565b9050919050565b6000819050919050565b610f0a83610ed5565b610f1e610f1682610ef7565b848454610e6f565b825550505050565b600090565b610f33610f26565b610f3e818484610f01565b505050565b5b81811015610f6257610f57600082610f2b565b600181019050610f44565b5050565b601f821115610fa757610f7881610e3d565b610f8184610e52565b81016020851015610f90578190505b610fa4610f9c85610e52565b830182610f43565b50505b505050565b600082821c905092915050565b6000610fca60001984600802610fac565b1980831691505092915050565b6000610fe38383610fb9565b9150826002028217905092915050565b610ffc826108ac565b67ffffffffffffffff81111561101557611014610b95565b5b61101f8254610d7a565b61102a828285610f66565b600060209050601f83116001811461105d576000841561104b578287015190505b6110558582610fd7565b8655506110bd565b601f19841661106b86610e3d565b60005b828110156110935784890151825560018201915060208501945060208101905061106e565b868310156110b057848901516110ac601f891682610fb9565b8355505b6001600288020188555050505b50505050505056fea26469706673582212201c104195625426a9c49f0244afab5c4d5ff725974c7ad3cf640ed83889025ca764736f6c63430008180033",
  "linkReferences": {},
  "deployedLinkReferences": {}
}