{
  "_format": "hh-sol-artifact-1",
  "contractName": "DAO_SLR",
  "sourceName": "contracts/DAO_SLR.sol",
  "abi": [
    {
      "inputs": [
        {
          "internalType": "address",
          "name": "sender",
          "type": "address"
        },
        {
          "internalType": "uint256",
          "name": "tokenId",
          "type": "uint256"
        },
        {
          "internalType": "address",
          "name": "owner",
          "type": "address"
        }
      ],
      "name": "ERC721IncorrectOwner",
      "type": "error"
    },
    {
      "inputs": [
        {
          "internalType": "address",
          "name": "operator",
          "type": "address"
        },
        {
          "internalType": "uint256",
          "name": "tokenId",
          "type": "uint256"
        }
      ],
      "name": "ERC721InsufficientApproval",
      "type": "error"
    },
    {
      "inputs": [
        {
          "internalType": "address",
          "name": "approver",
          "type": "address"
        }
      ],
      "name": "ERC721InvalidApprover",
      "type": "error"
    },
    {
      "inputs": [
        {
          "internalType": "address",
          "name": "operator",
          "type": "address"
        }
      ],
      "name": "ERC721InvalidOperator",
      "type": "error"
    },
    {
      "inputs": [
        {
          "internalType": "address",
          "name": "owner",
          "type": "address"
        }
      ],
      "name": "ERC721InvalidOwner",
      "type": "error"
    },
    {
      "inputs": [
        {
          "internalType": "address",
          "name": "receiver",
          "type": "address"
        }
      ],
      "name": "ERC721InvalidReceiver",
      "type": "error"
    },
    {
      "inputs": [
        {
          "internalType": "address",
          "name": "sender",
          "type": "address"
        }
      ],
      "name": "ERC721InvalidSender",
      "type": "error"
    },
    {
      "inputs": [
        {
          "internalType": "uint256",
          "name": "tokenId",
          "type": "uint256"
        }
      ],
      "name": "ERC721NonexistentToken",
      "type": "error"
    },
    {
      "inputs": [
        {
          "internalType": "uint256",
          "name": "value",
          "type": "uint256"
        },
        {
          "internalType": "uint256",
          "name": "length",
          "type": "uint256"
        }
      ],
      "name": "StringsInsufficientHexLength",
      "type": "error"
    },
    {
      "anonymous": false,
      "inputs": [
        {
          "indexed": true,
          "internalType": "address",
          "name": "owner",
          "type": "address"
        },
        {
          "indexed": true,
          "internalType": "address",
          "name": "approved",
          "type": "address"
        },
        {
          "indexed": true,
          "internalType": "uint256",
          "name": "tokenId",
          "type": "uint256"
        }
      ],
      "name": "Approval",
      "type": "event"
    },
    {
      "anonymous": false,
      "inputs": [
        {
          "indexed": true,
          "internalType": "address",
          "name": "owner",
          "type": "address"
        },
        {
          "indexed": true,
          "internalType": "address",
          "name": "operator",
          "type": "address"
        },
        {
          "indexed": false,
          "internalType": "bool",
          "name": "approved",
          "type": "bool"
        }
      ],
      "name": "ApprovalForAll",
      "type": "event"
    },
    {
      "anonymous": false,
      "inputs": [
        {
          "indexed": false,
          "internalType": "uint256",
          "name": "_fromTokenId",
          "type": "uint256"
        },
        {
          "indexed": false,
          "internalType": "uint256",
          "name": "_toTokenId",
          "type": "uint256"
        }
      ],
      "name": "BatchMetadataUpdate",
      "type": "event"
    },
    {
      "anonymous": false,
      "inputs": [
        {
          "indexed": false,
          "internalType": "uint256",
          "name": "_projectId",
          "type": "uint256"
        },
        {
          "indexed": false,
          "internalType": "uint256",
          "name": "_amount",
          "type": "uint256"
        }
      ],
      "name": "FundingGoalReached",
      "type": "event"
    },
    {
      "anonymous": false,
      "inputs": [
        {
          "indexed": false,
          "internalType": "uint256",
          "name": "_tokenId",
          "type": "uint256"
        }
      ],
      "name": "MetadataUpdate",
      "type": "event"
    },
    {
      "anonymous": false,
      "inputs": [
        {
          "indexed": false,
          "internalType": "uint256",
          "name": "_projectId",
          "type": "uint256"
        },
        {
          "indexed": false,
          "internalType": "enum ProjectState",
          "name": "_newState",
          "type": "uint8"
        }
      ],
      "name": "StateChanged",
      "type": "event"
    },
    {
      "anonymous": false,
      "inputs": [
        {
          "indexed": true,
          "internalType": "address",
          "name": "from",
          "type": "address"
        },
        {
          "indexed": true,
          "internalType": "address",
          "name": "to",
          "type": "address"
        },
        {
          "indexed": true,
          "internalType": "uint256",
          "name": "tokenId",
          "type": "uint256"
        }
      ],
      "name": "Transfer",
      "type": "event"
    },
    {
      "inputs": [
        {
          "internalType": "address",
          "name": "to",
          "type": "address"
        },
        {
          "internalType": "uint256",
          "name": "tokenId",
          "type": "uint256"
        }
      ],
      "name": "approve",
      "outputs": [],
      "stateMutability": "nonpayable",
      "type": "function"
    },
    {
      "inputs": [
        {
          "internalType": "address",
          "name": "owner",
          "type": "address"
        }
      ],
      "name": "balanceOf",
      "outputs": [
        {
          "internalType": "uint256",
          "name": "",
          "type": "uint256"
        }
      ],
      "stateMutability": "view",
      "type": "function"
    },
    {
      "inputs": [
        {
          "internalType": "address payable",
          "name": "_walletAddress",
          "type": "address"
        },
        {
          "internalType": "string",
          "name": "_organizationName",
          "type": "string"
        },
        {
          "internalType": "string",
          "name": "_organizationDescription",
          "type": "string"
        }
      ],
      "name": "createOrganization",
      "outputs": [],
      "stateMutability": "nonpayable",
      "type": "function"
    },
    {
      "inputs": [
        {
          "internalType": "address payable",
          "name": "_owner",
          "type": "address"
        },
        {
          "internalType": "uint256",
          "name": "_organizationId",
          "type": "uint256"
        },
        {
          "internalType": "string",
          "name": "_title",
          "type": "string"
        },
        {
          "internalType": "string",
          "name": "_description",
          "type": "string"
        },
        {
          "internalType": "uint256",
          "name": "_goal",
          "type": "uint256"
        }
      ],
      "name": "createProject",
      "outputs": [],
      "stateMutability": "nonpayable",
      "type": "function"
    },
    {
      "inputs": [
        {
          "internalType": "address",
          "name": "_recipient",
          "type": "address"
        },
        {
          "internalType": "uint256",
          "name": "_projectId",
          "type": "uint256"
        },
        {
          "internalType": "uint256",
          "name": "_donationAmount",
          "type": "uint256"
        },
        {
          "internalType": "uint256",
          "name": "_timestamp",
          "type": "uint256"
        }
      ],
      "name": "createReceipt",
      "outputs": [],
      "stateMutability": "nonpayable",
      "type": "function"
    },
    {
      "inputs": [
        {
          "internalType": "address",
          "name": "_donor",
          "type": "address"
        }
      ],
      "name": "doesDonorExist",
      "outputs": [
        {
          "internalType": "bool",
          "name": "",
          "type": "bool"
        }
      ],
      "stateMutability": "view",
      "type": "function"
    },
    {
      "inputs": [
        {
          "internalType": "uint256",
          "name": "_projectId",
          "type": "uint256"
        }
      ],
      "name": "doesProjectExist",
      "outputs": [
        {
          "internalType": "bool",
          "name": "",
          "type": "bool"
        }
      ],
      "stateMutability": "view",
      "type": "function"
    },
    {
      "inputs": [
        {
          "internalType": "address",
          "name": "",
          "type": "address"
        }
      ],
      "name": "donors",
      "outputs": [
        {
          "internalType": "address",
          "name": "donorAddress",
          "type": "address"
        },
        {
          "internalType": "uint256",
          "name": "votingTokens",
          "type": "uint256"
        }
      ],
      "stateMutability": "view",
      "type": "function"
    },
    {
      "inputs": [
        {
          "internalType": "uint256",
          "name": "tokenId",
          "type": "uint256"
        }
      ],
      "name": "getApproved",
      "outputs": [
        {
          "internalType": "address",
          "name": "",
          "type": "address"
        }
      ],
      "stateMutability": "view",
      "type": "function"
    },
    {
      "inputs": [
        {
          "internalType": "address",
          "name": "_donor",
          "type": "address"
        }
      ],
      "name": "getDonorTokenBalance",
      "outputs": [
        {
          "internalType": "uint256",
          "name": "",
          "type": "uint256"
        }
      ],
      "stateMutability": "view",
      "type": "function"
    },
    {
      "inputs": [],
      "name": "getLastTenProjects",
      "outputs": [
        {
          "components": [
            {
              "internalType": "uint256",
              "name": "projectId",
              "type": "uint256"
            },
            {
              "internalType": "uint256",
              "name": "organizationId",
              "type": "uint256"
            },
            {
              "internalType": "address payable",
              "name": "projectOwner",
              "type": "address"
            },
            {
              "internalType": "string",
              "name": "projectTitle",
              "type": "string"
            },
            {
              "internalType": "string",
              "name": "projectDescription",
              "type": "string"
            },
            {
              "internalType": "uint256",
              "name": "fundingGoal",
              "type": "uint256"
            },
            {
              "internalType": "uint256",
              "name": "currentFunding",
              "type": "uint256"
            },
            {
              "internalType": "uint256",
              "name": "totalVotes",
              "type": "uint256"
            },
            {
              "internalType": "enum ProjectState",
              "name": "state",
              "type": "uint8"
            }
          ],
          "internalType": "struct Project[]",
          "name": "",
          "type": "tuple[]"
        }
      ],
      "stateMutability": "view",
      "type": "function"
    },
    {
      "inputs": [
        {
          "internalType": "address",
          "name": "_walletAddress",
          "type": "address"
        }
      ],
      "name": "getOrganization",
      "outputs": [
        {
          "components": [
            {
              "internalType": "uint256",
              "name": "organizationId",
              "type": "uint256"
            },
            {
              "internalType": "address payable",
              "name": "walletAddress",
              "type": "address"
            },
            {
              "internalType": "string",
              "name": "organizationName",
              "type": "string"
            },
            {
              "internalType": "string",
              "name": "organizationDescription",
              "type": "string"
            },
            {
              "internalType": "enum OrganizationState",
              "name": "state",
              "type": "uint8"
            },
            {
              "internalType": "uint256",
              "name": "votes",
              "type": "uint256"
            },
            {
              "internalType": "uint256",
              "name": "downVotes",
              "type": "uint256"
            }
          ],
          "internalType": "struct Organization",
          "name": "",
          "type": "tuple"
        }
      ],
      "stateMutability": "view",
      "type": "function"
    },
    {
      "inputs": [
        {
          "internalType": "uint256",
          "name": "_orgId",
          "type": "uint256"
        }
      ],
      "name": "getOrganizationById",
      "outputs": [
        {
          "components": [
            {
              "internalType": "uint256",
              "name": "organizationId",
              "type": "uint256"
            },
            {
              "internalType": "address payable",
              "name": "walletAddress",
              "type": "address"
            },
            {
              "internalType": "string",
              "name": "organizationName",
              "type": "string"
            },
            {
              "internalType": "string",
              "name": "organizationDescription",
              "type": "string"
            },
            {
              "internalType": "enum OrganizationState",
              "name": "state",
              "type": "uint8"
            },
            {
              "internalType": "uint256",
              "name": "votes",
              "type": "uint256"
            },
            {
              "internalType": "uint256",
              "name": "downVotes",
              "type": "uint256"
            }
          ],
          "internalType": "struct Organization",
          "name": "",
          "type": "tuple"
        }
      ],
      "stateMutability": "view",
      "type": "function"
    },
    {
      "inputs": [
        {
          "internalType": "address",
          "name": "_walletAddress",
          "type": "address"
        }
      ],
      "name": "getOrganizationState",
      "outputs": [
        {
          "internalType": "enum OrganizationState",
          "name": "",
          "type": "uint8"
        }
      ],
      "stateMutability": "view",
      "type": "function"
    },
    {
      "inputs": [
        {
          "internalType": "uint256",
          "name": "_from",
          "type": "uint256"
        },
        {
          "internalType": "uint256",
          "name": "_to",
          "type": "uint256"
        }
      ],
      "name": "getProjectsInRange",
      "outputs": [
        {
          "components": [
            {
              "internalType": "uint256",
              "name": "projectId",
              "type": "uint256"
            },
            {
              "internalType": "uint256",
              "name": "organizationId",
              "type": "uint256"
            },
            {
              "internalType": "address payable",
              "name": "projectOwner",
              "type": "address"
            },
            {
              "internalType": "string",
              "name": "projectTitle",
              "type": "string"
            },
            {
              "internalType": "string",
              "name": "projectDescription",
              "type": "string"
            },
            {
              "internalType": "uint256",
              "name": "fundingGoal",
              "type": "uint256"
            },
            {
              "internalType": "uint256",
              "name": "currentFunding",
              "type": "uint256"
            },
            {
              "internalType": "uint256",
              "name": "totalVotes",
              "type": "uint256"
            },
            {
              "internalType": "enum ProjectState",
              "name": "state",
              "type": "uint8"
            }
          ],
          "internalType": "struct Project[]",
          "name": "",
          "type": "tuple[]"
        }
      ],
      "stateMutability": "view",
      "type": "function"
    },
    {
      "inputs": [
        {
          "internalType": "uint256",
          "name": "_orgaId",
          "type": "uint256"
        }
      ],
      "name": "hasEnoughVotesForOnboarding",
      "outputs": [
        {
          "internalType": "bool",
          "name": "",
          "type": "bool"
        }
      ],
      "stateMutability": "view",
      "type": "function"
    },
    {
      "inputs": [
        {
          "internalType": "uint256",
          "name": "_projectId",
          "type": "uint256"
        }
      ],
      "name": "hasReachedFundingGoal",
      "outputs": [
        {
          "internalType": "bool",
          "name": "",
          "type": "bool"
        }
      ],
      "stateMutability": "view",
      "type": "function"
    },
    {
      "inputs": [
        {
          "internalType": "address",
          "name": "owner",
          "type": "address"
        },
        {
          "internalType": "address",
          "name": "operator",
          "type": "address"
        }
      ],
      "name": "isApprovedForAll",
      "outputs": [
        {
          "internalType": "bool",
          "name": "",
          "type": "bool"
        }
      ],
      "stateMutability": "view",
      "type": "function"
    },
    {
      "inputs": [
        {
          "internalType": "uint256",
          "name": "_orgaId",
          "type": "uint256"
        }
      ],
      "name": "isControversial",
      "outputs": [
        {
          "internalType": "bool",
          "name": "",
          "type": "bool"
        }
      ],
      "stateMutability": "view",
      "type": "function"
    },
    {
      "inputs": [],
      "name": "name",
      "outputs": [
        {
          "internalType": "string",
          "name": "",
          "type": "string"
        }
      ],
      "stateMutability": "view",
      "type": "function"
    },
    {
      "inputs": [
        {
          "internalType": "bytes32",
          "name": "",
          "type": "bytes32"
        }
      ],
      "name": "nftsCreated",
      "outputs": [
        {
          "internalType": "bool",
          "name": "",
          "type": "bool"
        }
      ],
      "stateMutability": "view",
      "type": "function"
    },
    {
      "inputs": [
        {
          "internalType": "uint256",
          "name": "",
          "type": "uint256"
        }
      ],
      "name": "organizationIdToAddress",
      "outputs": [
        {
          "internalType": "address",
          "name": "",
          "type": "address"
        }
      ],
      "stateMutability": "view",
      "type": "function"
    },
    {
      "inputs": [
        {
          "internalType": "address",
          "name": "",
          "type": "address"
        }
      ],
      "name": "organizations",
      "outputs": [
        {
          "internalType": "uint256",
          "name": "organizationId",
          "type": "uint256"
        },
        {
          "internalType": "address payable",
          "name": "walletAddress",
          "type": "address"
        },
        {
          "internalType": "string",
          "name": "organizationName",
          "type": "string"
        },
        {
          "internalType": "string",
          "name": "organizationDescription",
          "type": "string"
        },
        {
          "internalType": "enum OrganizationState",
          "name": "state",
          "type": "uint8"
        },
        {
          "internalType": "uint256",
          "name": "votes",
          "type": "uint256"
        },
        {
          "internalType": "uint256",
          "name": "downVotes",
          "type": "uint256"
        }
      ],
      "stateMutability": "view",
      "type": "function"
    },
    {
      "inputs": [],
      "name": "organizationsCount",
      "outputs": [
        {
          "internalType": "uint256",
          "name": "",
          "type": "uint256"
        }
      ],
      "stateMutability": "view",
      "type": "function"
    },
    {
      "inputs": [
        {
          "internalType": "uint256",
          "name": "tokenId",
          "type": "uint256"
        }
      ],
      "name": "ownerOf",
      "outputs": [
        {
          "internalType": "address",
          "name": "",
          "type": "address"
        }
      ],
      "stateMutability": "view",
      "type": "function"
    },
    {
      "inputs": [
        {
          "internalType": "uint256",
          "name": "",
          "type": "uint256"
        }
      ],
      "name": "projectToOrganization",
      "outputs": [
        {
          "internalType": "uint256",
          "name": "",
          "type": "uint256"
        }
      ],
      "stateMutability": "view",
      "type": "function"
    },
    {
      "inputs": [
        {
          "internalType": "uint256",
          "name": "",
          "type": "uint256"
        }
      ],
      "name": "projects",
      "outputs": [
        {
          "internalType": "uint256",
          "name": "projectId",
          "type": "uint256"
        },
        {
          "internalType": "uint256",
          "name": "organizationId",
          "type": "uint256"
        },
        {
          "internalType": "address payable",
          "name": "projectOwner",
          "type": "address"
        },
        {
          "internalType": "string",
          "name": "projectTitle",
          "type": "string"
        },
        {
          "internalType": "string",
          "name": "projectDescription",
          "type": "string"
        },
        {
          "internalType": "uint256",
          "name": "fundingGoal",
          "type": "uint256"
        },
        {
          "internalType": "uint256",
          "name": "currentFunding",
          "type": "uint256"
        },
        {
          "internalType": "uint256",
          "name": "totalVotes",
          "type": "uint256"
        },
        {
          "internalType": "enum ProjectState",
          "name": "state",
          "type": "uint8"
        }
      ],
      "stateMutability": "view",
      "type": "function"
    },
    {
      "inputs": [
        {
          "internalType": "address",
          "name": "from",
          "type": "address"
        },
        {
          "internalType": "address",
          "name": "to",
          "type": "address"
        },
        {
          "internalType": "uint256",
          "name": "tokenId",
          "type": "uint256"
        }
      ],
      "name": "safeTransferFrom",
      "outputs": [],
      "stateMutability": "nonpayable",
      "type": "function"
    },
    {
      "inputs": [
        {
          "internalType": "address",
          "name": "from",
          "type": "address"
        },
        {
          "internalType": "address",
          "name": "to",
          "type": "address"
        },
        {
          "internalType": "uint256",
          "name": "tokenId",
          "type": "uint256"
        },
        {
          "internalType": "bytes",
          "name": "data",
          "type": "bytes"
        }
      ],
      "name": "safeTransferFrom",
      "outputs": [],
      "stateMutability": "nonpayable",
      "type": "function"
    },
    {
      "inputs": [
        {
          "internalType": "address",
          "name": "operator",
          "type": "address"
        },
        {
          "internalType": "bool",
          "name": "approved",
          "type": "bool"
        }
      ],
      "name": "setApprovalForAll",
      "outputs": [],
      "stateMutability": "nonpayable",
      "type": "function"
    },
    {
      "inputs": [
        {
          "internalType": "uint256",
          "name": "_projectId",
          "type": "uint256"
        }
      ],
      "name": "startVoting",
      "outputs": [],
      "stateMutability": "nonpayable",
      "type": "function"
    },
    {
      "inputs": [
        {
          "internalType": "bytes4",
          "name": "interfaceId",
          "type": "bytes4"
        }
      ],
      "name": "supportsInterface",
      "outputs": [
        {
          "internalType": "bool",
          "name": "",
          "type": "bool"
        }
      ],
      "stateMutability": "view",
      "type": "function"
    },
    {
      "inputs": [],
      "name": "symbol",
      "outputs": [
        {
          "internalType": "string",
          "name": "",
          "type": "string"
        }
      ],
      "stateMutability": "view",
      "type": "function"
    },
    {
      "inputs": [],
      "name": "tokenMultiplier",
      "outputs": [
        {
          "internalType": "uint256",
          "name": "",
          "type": "uint256"
        }
      ],
      "stateMutability": "view",
      "type": "function"
    },
    {
      "inputs": [
        {
          "internalType": "uint256",
          "name": "tokenId",
          "type": "uint256"
        }
      ],
      "name": "tokenURI",
      "outputs": [
        {
          "internalType": "string",
          "name": "",
          "type": "string"
        }
      ],
      "stateMutability": "view",
      "type": "function"
    },
    {
      "inputs": [
        {
          "internalType": "address",
          "name": "from",
          "type": "address"
        },
        {
          "internalType": "address",
          "name": "to",
          "type": "address"
        },
        {
          "internalType": "uint256",
          "name": "tokenId",
          "type": "uint256"
        }
      ],
      "name": "transferFrom",
      "outputs": [],
      "stateMutability": "nonpayable",
      "type": "function"
    },
    {
      "inputs": [
        {
          "internalType": "uint256",
          "name": "_projectId",
          "type": "uint256"
        }
      ],
      "name": "transferFundsToProject",
      "outputs": [],
      "stateMutability": "nonpayable",
      "type": "function"
    },
    {
      "inputs": [
        {
          "internalType": "uint256",
          "name": "_projectId",
          "type": "uint256"
        },
        {
          "internalType": "uint256",
          "name": "_amount",
          "type": "uint256"
        }
      ],
      "name": "vote",
      "outputs": [],
      "stateMutability": "nonpayable",
      "type": "function"
    },
    {
      "inputs": [
        {
          "internalType": "uint256",
          "name": "_orgaId",
          "type": "uint256"
        }
      ],
      "name": "voteAgainstOrganization",
      "outputs": [],
      "stateMutability": "nonpayable",
      "type": "function"
    },
    {
      "inputs": [
        {
          "internalType": "uint256",
          "name": "_orgaId",
          "type": "uint256"
        }
      ],
      "name": "voteForOrganization",
      "outputs": [],
      "stateMutability": "nonpayable",
      "type": "function"
    },
    {
      "inputs": [
        {
          "internalType": "uint256",
          "name": "_projectId",
          "type": "uint256"
        },
        {
          "internalType": "uint256",
          "name": "_tokens",
          "type": "uint256"
        }
      ],
      "name": "voteForProject",
      "outputs": [],
      "stateMutability": "nonpayable",
      "type": "function"
    },
    {
      "inputs": [
        {
          "internalType": "address",
          "name": "",
          "type": "address"
        }
      ],
      "name": "votes",
      "outputs": [
        {
          "internalType": "uint256",
          "name": "",
          "type": "uint256"
        }
      ],
      "stateMutability": "view",
      "type": "function"
    },
    {
      "inputs": [
        {
          "internalType": "bytes32",
          "name": "",
          "type": "bytes32"
        }
      ],
      "name": "votesAgainstOrga",
      "outputs": [
        {
          "internalType": "bool",
          "name": "",
          "type": "bool"
        }
      ],
      "stateMutability": "view",
      "type": "function"
    },
    {
      "inputs": [
        {
          "internalType": "bytes32",
          "name": "",
          "type": "bytes32"
        }
      ],
      "name": "votesForOrga",
      "outputs": [
        {
          "internalType": "bool",
          "name": "",
          "type": "bool"
        }
      ],
      "stateMutability": "view",
      "type": "function"
    },
    {
      "inputs": [
        {
          "internalType": "uint256",
          "name": "_amount",
          "type": "uint256"
        }
      ],
      "name": "withdrawFunds",
      "outputs": [],
      "stateMutability": "nonpayable",
      "type": "function"
    },
    {
      "stateMutability": "payable",
      "type": "receive"
    }
  ],
  "bytecode": "0x608060405260016013553480156200001657600080fd5b506040518060400160405280601381526020017f534c522d446f6e6174696f6e52656365697074000000000000000000000000008152506040518060400160405280600681526020016529a62916a22960d11b81525081600990816200007d919062000141565b50600a6200008c828262000141565b50506000601055506200020d565b634e487b7160e01b600052604160045260246000fd5b600181811c90821680620000c557607f821691505b602082108103620000e657634e487b7160e01b600052602260045260246000fd5b50919050565b601f8211156200013c576000816000526020600020601f850160051c81016020861015620001175750805b601f850160051c820191505b81811015620001385782815560010162000123565b5050505b505050565b81516001600160401b038111156200015d576200015d6200009a565b62000175816200016e8454620000b0565b84620000ec565b602080601f831160018114620001ad5760008415620001945750858301515b600019600386901b1c1916600185901b17855562000138565b600085815260208120601f198616915b82811015620001de57888601518255948401946001909101908401620001bd565b5085821015620001fd5787850151600019600388901b60f8161c191681555b5050505050600190811b01905550565b613d1f806200021d6000396000f3fe6080604052600436106102f65760003560e01c806391a345e81161018f578063ca0cdea8116100e1578063e218ec7b1161008a578063ed7ae14611610064578063ed7ae146146109f1578063f157e40e14610a3a578063f97203af14610a7357600080fd5b8063e218ec7b14610942578063e6607bb814610972578063e985e9c5146109a857600080fd5b8063d848c634116100bb578063d848c634146108ae578063d8bff5a5146108f5578063d9062de11461092257600080fd5b8063ca0cdea81461080f578063d2c30a6d1461086e578063d7352ed71461088e57600080fd5b8063a6ad01cf11610143578063ba3f5a121161011d578063ba3f5a12146107ac578063c3e91729146107c2578063c87b56dd146107ef57600080fd5b8063a6ad01cf1461074c578063b384abef1461076c578063b88d4fde1461078c57600080fd5b806395d89b411161017457806395d89b41146106f5578063974918281461070a578063a22cb4651461072c57600080fd5b806391a345e814610699578063953de570146106b957600080fd5b80633d2f5bda116102485780635a1f7406116101fc57806367b44d8a116101d657806367b44d8a1461063957806370a08231146106595780637452ea221461067957600080fd5b80635a1f7406146105b95780636352211e146105ec578063635c54551461060c57600080fd5b80634243c5411161022d5780634243c5411461055357806342842e0e1461057557806359987f911461059557600080fd5b80633d2f5bda1461051557806340a5835c1461053357600080fd5b8063107046bd116102aa57806323b872dd1161028457806323b872dd1461049a5780633027ffd4146104ba57806330ce6b0b146104f557600080fd5b8063107046bd146103f8578063155dd5ee1461042d5780631fd0862f1461044d57600080fd5b8063081812fc116102db578063081812fc14610370578063095ea7b3146103a85780630fdf190b146103c857600080fd5b806301ffc9a71461031957806306fdde031461034e57600080fd5b3661031457610312336013543461030d919061335c565b610aa3565b005b600080fd5b34801561032557600080fd5b50610339610334366004613389565b610b27565b60405190151581526020015b60405180910390f35b34801561035a57600080fd5b50610363610b6b565b60405161034591906133f6565b34801561037c57600080fd5b5061039061038b366004613409565b610bfd565b6040516001600160a01b039091168152602001610345565b3480156103b457600080fd5b506103126103c3366004613437565b610c26565b3480156103d457600080fd5b506103396103e3366004613409565b60026020526000908152604090205460ff1681565b34801561040457600080fd5b50610418610413366004613409565b610c35565b6040516103459998979695949392919061348d565b34801561043957600080fd5b50610312610448366004613409565b610d9c565b34801561045957600080fd5b50610339610468366004613409565b6000908152600160209081526040808320546001600160a01b0316835290829052902060068101546005909101541090565b3480156104a657600080fd5b506103126104b5366004613501565b610e57565b3480156104c657600080fd5b506103396104d5366004613409565b600090815260056020819052604090912090810154600690910154101590565b34801561050157600080fd5b50610312610510366004613542565b610efb565b34801561052157600080fd5b50610312610530366004613409565b50565b34801561053f57600080fd5b5061031261054e366004613610565b610fc2565b34801561055f57600080fd5b50610568611234565b6040516103459190613698565b34801561058157600080fd5b50610312610590366004613501565b61125c565b3480156105a157600080fd5b506105ab60045481565b604051908152602001610345565b3480156105c557600080fd5b506105d96105d4366004613784565b61127c565b60405161034597969594939291906137b1565b3480156105f857600080fd5b50610390610607366004613409565b6113d7565b34801561061857600080fd5b5061062c610627366004613409565b6113e2565b6040516103459190613810565b34801561064557600080fd5b50610568610654366004613542565b6115a1565b34801561066557600080fd5b506105ab610674366004613784565b611912565b34801561068557600080fd5b50610312610694366004613409565b611973565b3480156106a557600080fd5b506103126106b4366004613409565b6119fa565b3480156106c557600080fd5b506103396106d4366004613784565b6001600160a01b039081166000818152601260205260409020549091161490565b34801561070157600080fd5b50610363611c6b565b34801561071657600080fd5b50610339610725366004613409565b6007541190565b34801561073857600080fd5b5061031261074736600461389b565b611c7a565b34801561075857600080fd5b506103126107673660046138d9565b611c85565b34801561077857600080fd5b50610312610787366004613542565b611d4b565b34801561079857600080fd5b506103126107a7366004613914565b611e06565b3480156107b857600080fd5b506105ab60135481565b3480156107ce57600080fd5b506105ab6107dd366004613409565b60066020526000908152604090205481565b3480156107fb57600080fd5b5061036361080a366004613409565b611e1d565b34801561081b57600080fd5b5061084f61082a366004613784565b601260205260009081526040902080546001909101546001600160a01b039091169082565b604080516001600160a01b039093168352602083019190915201610345565b34801561087a57600080fd5b5061062c610889366004613784565b611f2e565b34801561089a57600080fd5b506103126108a9366004613994565b611f80565b3480156108ba57600080fd5b506103396108c9366004613409565b6000908152600160209081526040808320546001600160a01b0316835290829052902060050154151590565b34801561090157600080fd5b506105ab610910366004613784565b60086020526000908152604090205481565b34801561092e57600080fd5b5061031261093d366004613409565b6120a2565b34801561094e57600080fd5b5061033961095d366004613409565b60036020526000908152604090205460ff1681565b34801561097e57600080fd5b5061039061098d366004613409565b6001602052600090815260409020546001600160a01b031681565b3480156109b457600080fd5b506103396109c3366004613a0a565b6001600160a01b039182166000908152600e6020908152604080832093909416825291909152205460ff1690565b3480156109fd57600080fd5b50610a2d610a0c366004613784565b6001600160a01b031660009081526020819052604090206004015460ff1690565b6040516103459190613a38565b348015610a4657600080fd5b506105ab610a55366004613784565b6001600160a01b031660009081526012602052604090206001015490565b348015610a7f57600080fd5b50610339610a8e366004613409565b60116020526000908152604090205460ff1681565b6001600160a01b0380831660008181526012602052604090205490911614610af357610af3826001600160a01b0316600081815260126020526040902080546001600160a01b0319169091179055565b6001600160a01b03821660009081526012602052604081206001018054839290610b1e908490613a46565b90915550505050565b60006001600160e01b031982167f49064906000000000000000000000000000000000000000000000000000000001480610b655750610b6582612129565b92915050565b606060098054610b7a90613a59565b80601f0160208091040260200160405190810160405280929190818152602001828054610ba690613a59565b8015610bf35780601f10610bc857610100808354040283529160200191610bf3565b820191906000526020600020905b815481529060010190602001808311610bd657829003601f168201915b5050505050905090565b6000610c08826121c4565b506000828152600d60205260409020546001600160a01b0316610b65565b610c318282336121fd565b5050565b6005602052600090815260409020805460018201546002830154600384018054939492936001600160a01b039092169291610c6f90613a59565b80601f0160208091040260200160405190810160405280929190818152602001828054610c9b90613a59565b8015610ce85780601f10610cbd57610100808354040283529160200191610ce8565b820191906000526020600020905b815481529060010190602001808311610ccb57829003601f168201915b505050505090806004018054610cfd90613a59565b80601f0160208091040260200160405190810160405280929190818152602001828054610d2990613a59565b8015610d765780601f10610d4b57610100808354040283529160200191610d76565b820191906000526020600020905b815481529060010190602001808311610d5957829003601f168201915b505050506005830154600684015460078501546008909501549394919390925060ff1689565b33600090815260126020526040902060010154811115610e035760405162461bcd60e51b815260206004820152601260248201527f496e73756666696369656e742066756e6473000000000000000000000000000060448201526064015b60405180910390fd5b3360009081526012602052604081206001018054839290610e25908490613a93565b9091555050604051339082156108fc029083906000818181858888f19350505050158015610c31573d6000803e3d6000fd5b6001600160a01b038216610e8157604051633250574960e11b815260006004820152602401610dfa565b6000610e8e83833361220a565b9050836001600160a01b0316816001600160a01b031614610ef5576040517f64283d7b0000000000000000000000000000000000000000000000000000000081526001600160a01b0380861660048301526024820184905282166044820152606401610dfa565b50505050565b6007548210610f4c5760405162461bcd60e51b815260206004820152601260248201527f496e76616c69642070726f6a65637420494400000000000000000000000000006044820152606401610dfa565b33600090815260126020526040902060010154811115610fae5760405162461bcd60e51b815260206004820152601a60248201527f496e73756666696369656e7420766f74696e6720746f6b656e730000000000006044820152606401610dfa565b610fb83382612305565b610c318282611d4b565b336000818152602081905260409020600101546001600160a01b0316146110515760405162461bcd60e51b815260206004820152603360248201527f4f6e6c7920746865206f7267616e697a6174696f6e206f776e65722063616e2060448201527f63616c6c20746869732066756e6374696f6e2e000000000000000000000000006064820152608401610dfa565b3360009081526020819052604081206004015460ff16600381111561107857611078613463565b036111125760405162461bcd60e51b8152602060048201526044602482018190527f4f6e6c7920616e206f7267616e697a6174696f6e207468617420686173206265908201527f656e206f6e626f61726465642063616e2063616c6c20746869732066756e637460648201527f696f6e2e00000000000000000000000000000000000000000000000000000000608482015260a401610dfa565b60013360009081526020819052604090206004015460ff16600381111561113b5761113b613463565b036111ae5760405162461bcd60e51b815260206004820152602260248201527f54686973206f7267616e69736174696f6e20686173206265656e2062616e6e6560448201527f642e0000000000000000000000000000000000000000000000000000000000006064820152608401610dfa565b6007546000908152600560205260409020600181018590556002810180546001600160a01b0319166001600160a01b038816179055600381016111f18582613af6565b50600481016112008482613af6565b506005810182905560088101805460ff191660021790556007805490600061122783613bb6565b9190505550505050505050565b6060611257600a6007546112489190613a93565b60016007546106549190613a93565b905090565b61127783838360405180602001604052806000815250611e06565b505050565b60006020819052908152604090208054600182015460028301805492936001600160a01b03909216926112ae90613a59565b80601f01602080910402602001604051908101604052809291908181526020018280546112da90613a59565b80156113275780601f106112fc57610100808354040283529160200191611327565b820191906000526020600020905b81548152906001019060200180831161130a57829003601f168201915b50505050509080600301805461133c90613a59565b80601f016020809104026020016040519081016040528092919081815260200182805461136890613a59565b80156113b55780601f1061138a576101008083540402835291602001916113b5565b820191906000526020600020905b81548152906001019060200180831161139857829003601f168201915b5050505060048301546005840154600690940154929360ff9091169290915087565b6000610b65826121c4565b6113ea61328a565b6000828152600160208181526040808420546001600160a01b03908116855284835293819020815160e0810183528154815293810154909416918301919091526002830180549293929184019161144090613a59565b80601f016020809104026020016040519081016040528092919081815260200182805461146c90613a59565b80156114b95780601f1061148e576101008083540402835291602001916114b9565b820191906000526020600020905b81548152906001019060200180831161149c57829003601f168201915b505050505081526020016003820180546114d290613a59565b80601f01602080910402602001604051908101604052809291908181526020018280546114fe90613a59565b801561154b5780601f106115205761010080835404028352916020019161154b565b820191906000526020600020905b81548152906001019060200180831161152e57829003601f168201915b5050509183525050600482015460209091019060ff16600381111561157257611572613463565b600381111561158357611583613463565b81526005820154602082015260069091015460409091015292915050565b6060818311156115f35760405162461bcd60e51b815260206004820152600d60248201527f496e76616c69642072616e6765000000000000000000000000000000000000006044820152606401610dfa565b600754821061164e5760405162461bcd60e51b815260206004820152602160248201527f52616e676520657863656564732070726f6a656374206c697374206c656e67746044820152600d60fb1b6064820152608401610dfa565b60075483106116a95760405162461bcd60e51b815260206004820152602160248201527f52616e676520657863656564732070726f6a656374206c697374206c656e67746044820152600d60fb1b6064820152608401610dfa565b60006116b58484613a93565b6116c0906001613a46565b67ffffffffffffffff8111156116d8576116d8613564565b60405190808252806020026020018201604052801561171157816020015b6116fe6132e1565b8152602001906001900390816116f65790505b509050835b83811161190a576000818152600560209081526040918290208251610120810184528154815260018201549281019290925260028101546001600160a01b03169282019290925260038201805491929160608401919061177590613a59565b80601f01602080910402602001604051908101604052809291908181526020018280546117a190613a59565b80156117ee5780601f106117c3576101008083540402835291602001916117ee565b820191906000526020600020905b8154815290600101906020018083116117d157829003601f168201915b5050505050815260200160048201805461180790613a59565b80601f016020809104026020016040519081016040528092919081815260200182805461183390613a59565b80156118805780601f1061185557610100808354040283529160200191611880565b820191906000526020600020905b81548152906001019060200180831161186357829003601f168201915b505050918352505060058201546020820152600682015460408201526007808301546060830152600883015460809092019160ff16908111156118c5576118c5613463565b60078111156118d6576118d6613463565b815250508282815181106118ec576118ec613bcf565b6020026020010181905250808061190290613bb6565b915050611716565b509392505050565b60006001600160a01b038216611957576040517f89c62b6400000000000000000000000000000000000000000000000000000000815260006004820152602401610dfa565b506001600160a01b03166000908152600c602052604090205490565b336000818152601260205260409020546001600160a01b0316146119e55760405162461bcd60e51b815260206004820152602360248201527f4f6e6c7920646f6e6f72732063616e2063616c6c20746869732066756e63746960448201526237b71760e91b6064820152608401610dfa565b6119f13382600161239b565b61053081612434565b6000818152600560208190526040909120908101546006909101541015611a635760405162461bcd60e51b815260206004820152601860248201527f46756e64696e6720676f616c206e6f74207265616368656400000000000000006044820152606401610dfa565b60008181526005602090815260408083208151610120810183528154815260018201549381019390935260028101546001600160a01b031691830191909152600381018054606084019190611ab790613a59565b80601f0160208091040260200160405190810160405280929190818152602001828054611ae390613a59565b8015611b305780601f10611b0557610100808354040283529160200191611b30565b820191906000526020600020905b815481529060010190602001808311611b1357829003601f168201915b50505050508152602001600482018054611b4990613a59565b80601f0160208091040260200160405190810160405280929190818152602001828054611b7590613a59565b8015611bc25780601f10611b9757610100808354040283529160200191611bc2565b820191906000526020600020905b815481529060010190602001808311611ba557829003601f168201915b505050918352505060058201546020820152600682015460408201526007808301546060830152600883015460809092019160ff1690811115611c0757611c07613463565b6007811115611c1857611c18613463565b815250509050611c2b8160400151611f2e565b602001516001600160a01b03166108fc8260c001519081150290604051600060405180830381858888f19350505050158015611277573d6000803e3d6000fd5b6060600a8054610b7a90613a59565b610c313383836124a4565b6007548310611cd65760405162461bcd60e51b815260206004820152601260248201527f496e76616c69642070726f6a65637420494400000000000000000000000000006044820152606401610dfa565b6000838152600560208190526040909120908101546006909101541015611d3f5760405162461bcd60e51b815260206004820152601660248201527f50726f6a656374206e6f742066756e64656420796574000000000000000000006044820152606401610dfa565b610ef58484848461255c565b60008281526005602052604081206007018054839290611d6c908490613a46565b909155505060008281526005602052604081206006018054839290611d92908490613a46565b909155505060008281526005602081905260409091209081015460069091015410610c3157600082815260056020908152604091829020600601548251858152918201527f5bc6714ccad33557efe1cb9d18fa771135ab68961f6add3d4bb6f115adec81a491015b60405180910390a15050565b611e11848484610e57565b610ef584848484612722565b6060611e28826121c4565b506000828152600f602052604081208054611e4290613a59565b80601f0160208091040260200160405190810160405280929190818152602001828054611e6e90613a59565b8015611ebb5780601f10611e9057610100808354040283529160200191611ebb565b820191906000526020600020905b815481529060010190602001808311611e9e57829003601f168201915b505050505090506000611ed960408051602081019091526000815290565b90508051600003611eeb575092915050565b815115611f1d578082604051602001611f05929190613be5565b60405160208183030381529060405292505050919050565b611f268461284b565b949350505050565b611f3661328a565b6001600160a01b0380831660009081526020818152604091829020825160e08101845281548152600182015490941691840191909152600281018054919284019161144090613a59565b6040805160e08101825260045481526001600160a01b03851660208201529081018390526060810182905260808101600081526000602080830182905260409283018290526001600160a01b0387811683528282529183902084518155908401516001820180546001600160a01b031916919093161790915590820151600282019061200c9082613af6565b50606082015160038201906120219082613af6565b50608082015160048201805460ff1916600183600381111561204557612045613463565b021790555060a0820151600582015560c09091015160069091015560048054600090815260016020526040812080546001600160a01b0319166001600160a01b0387161790558154919061209883613bb6565b9190505550505050565b336000818152601260205260409020546001600160a01b0316146121145760405162461bcd60e51b815260206004820152602360248201527f4f6e6c7920646f6e6f72732063616e2063616c6c20746869732066756e63746960448201526237b71760e91b6064820152608401610dfa565b6121203382600061239b565b610530816128bf565b60006001600160e01b031982167f80ac58cd00000000000000000000000000000000000000000000000000000000148061218c57506001600160e01b031982167f5b5e139f00000000000000000000000000000000000000000000000000000000145b80610b6557507f01ffc9a7000000000000000000000000000000000000000000000000000000006001600160e01b0319831614610b65565b6000818152600b60205260408120546001600160a01b031680610b6557604051637e27328960e01b815260048101849052602401610dfa565b6112778383836001612921565b6000828152600b60205260408120546001600160a01b039081169083161561223757612237818486612a5f565b6001600160a01b0381161561227557612254600085600080612921565b6001600160a01b0381166000908152600c6020526040902080546000190190555b6001600160a01b038516156122a4576001600160a01b0385166000908152600c60205260409020805460010190555b6000848152600b602052604080822080546001600160a01b0319166001600160a01b0389811691821790925591518793918516917fddf252ad1be2c89b69c2b068fc378daa952ba7f163c4a11628f55a4df523b3ef91a490505b9392505050565b6001600160a01b0382166000908152601260205260409020600101548111156123705760405162461bcd60e51b815260206004820152601a60248201527f496e73756666696369656e7420766f74696e6720746f6b656e730000000000006044820152606401610dfa565b6001600160a01b03821660009081526012602052604081206001018054839290610b1e908490613a93565b6123a6838383612adc565b156123e5576123b482612b1d565b6000600260006123c5868686612b54565b81526020810191909152604001600020805460ff19169115159190911790555b6123f183838315612adc565b15611277576123ff82612bf0565b600060036000612410868686612b54565b81526020810191909152604001600020805460ff1916911515919091179055505050565b60016002600061244633856001612b54565b815260208082019290925260409081016000908120805460ff19169415159490941790935583835260018252808320546001600160a01b0316835290829052812060050180549161249683613bb6565b919050555061053081612c23565b6001600160a01b0382166124ef576040517f5b08ba180000000000000000000000000000000000000000000000000000000081526001600160a01b0383166004820152602401610dfa565b6001600160a01b038381166000818152600e6020908152604080832094871680845294825291829020805460ff191686151590811790915591519182527f17307eab39ab6107e8899845ad3d59bd9653f200f220920489ca2b5937696c31910160405180910390a3505050565b6000612585612575866001600160a01b03166014612cf1565b61257e86612ec7565b8585612f67565b60008181526011602052604090205490915060ff16156125e75760405162461bcd60e51b815260206004820152601360248201527f4e465420616c72656164792063726561746564000000000000000000000000006044820152606401610dfa565b6000818152601160205260409020805460ff1916600117905560105461260e908690612fec565b6000836040516020016126e591907f646174613a6170706c69636174696f6e2f6a736f6e2c7b2250726f6a6563742081527f5469746c65223a22446f6e6174696f6e204e4654222c2264657363726970746960208201527f6f6e223a22202b2070726f6a656374735b5f70726f6a65637449645d2e70726f60408201527f6a6563744465736372697074696f6e2829202b20000000000000000000000000606082015260748101919091527f2045544820746f2074686520636f6e74726163742e227d000000000000000000609482015260ab0190565b604051602081830303815290604052905061270260105482613006565b6001601060008282546127159190613a46565b9091555050505050505050565b6001600160a01b0383163b15610ef557604051630a85bd0160e11b81526001600160a01b0384169063150b7a0290612764903390889087908790600401613c14565b6020604051808303816000875af192505050801561279f575060408051601f3d908101601f1916820190925261279c91810190613c46565b60015b612808573d8080156127cd576040519150601f19603f3d011682016040523d82523d6000602084013e6127d2565b606091505b50805160000361280057604051633250574960e11b81526001600160a01b0385166004820152602401610dfa565b805181602001fd5b6001600160e01b03198116630a85bd0160e11b1461284457604051633250574960e11b81526001600160a01b0385166004820152602401610dfa565b5050505050565b6060612856826121c4565b50600061286e60408051602081019091526000815290565b9050600081511161288e57604051806020016040528060008152506122fe565b8061289884612ec7565b6040516020016128a9929190613be5565b6040516020818303038152906040529392505050565b6001600260006128d133856001612b54565b815260208082019290925260409081016000908120805460ff19169415159490941790935583835260018252808320546001600160a01b0316835290829052812060060180549161249683613bb6565b808061293557506001600160a01b03821615155b15612a2f576000612945846121c4565b90506001600160a01b038316158015906129715750826001600160a01b0316816001600160a01b031614155b80156129a357506001600160a01b038082166000908152600e602090815260408083209387168352929052205460ff16155b156129e5576040517fa9fbf51f0000000000000000000000000000000000000000000000000000000081526001600160a01b0384166004820152602401610dfa565b8115612a2d5783856001600160a01b0316826001600160a01b03167f8c5be1e5ebec7d5bd14f71427d1e84f3dd0314c0f7b2291e5b200ac8c7c3b92560405160405180910390a45b505b50506000908152600d6020526040902080546001600160a01b0319166001600160a01b0392909216919091179055565b612a6a83838361304f565b611277576001600160a01b038316612a9857604051637e27328960e01b815260048101829052602401610dfa565b6040517f177e802f0000000000000000000000000000000000000000000000000000000081526001600160a01b038316600482015260248101829052604401610dfa565b60008115612b0e5760026000612af3868686612b54565b815260208101919091526040016000205460ff1690506122fe565b60036000612af3868686612b54565b6000818152600160209081526040808320546001600160a01b03168352908290529020600501805460001901905561053081612c23565b60408051606085901b6bffffffffffffffffffffffff191660208201526034810184905282151560f81b605482015281516035818303018152605590910191829052600091600290612ba7908390613c63565b602060405180830381855afa158015612bc4573d6000803e3d6000fd5b5050506040513d601f19601f82011682018060405250810190612be79190613c7f565b95945050505050565b6000818152600160209081526040808320546001600160a01b031683529082905290206006018054600019019055610530815b6000818152600160209081526040808320546001600160a01b0316835290829052902060068101546005909101541015612c7e57600081815260016020819052604090912054610530916001600160a01b03909116906130d2565b6000818152600160209081526040808320546001600160a01b031683529082905290206005015415612ccd57600081815260016020526040902054610530906001600160a01b031660026130d2565b600081815260016020526040812054610530916001600160a01b03909116906130d2565b6060826000612d0184600261335c565b612d0c906002613a46565b67ffffffffffffffff811115612d2457612d24613564565b6040519080825280601f01601f191660200182016040528015612d4e576020820181803683370190505b5090507f300000000000000000000000000000000000000000000000000000000000000081600081518110612d8557612d85613bcf565b60200101906001600160f81b031916908160001a9053507f780000000000000000000000000000000000000000000000000000000000000081600181518110612dd057612dd0613bcf565b60200101906001600160f81b031916908160001a9053506000612df485600261335c565b612dff906001613a46565b90505b6001811115612e84577f303132333435363738396162636465660000000000000000000000000000000083600f1660108110612e4057612e40613bcf565b1a60f81b828281518110612e5657612e56613bcf565b60200101906001600160f81b031916908160001a90535060049290921c91612e7d81613c98565b9050612e02565b508115611f26576040517fe22e27eb0000000000000000000000000000000000000000000000000000000081526004810186905260248101859052604401610dfa565b60606000612ed483613113565b600101905060008167ffffffffffffffff811115612ef457612ef4613564565b6040519080825280601f01601f191660200182016040528015612f1e576020820181803683370190505b5090508181016020015b600019017f3031323334353637383961626364656600000000000000000000000000000000600a86061a8153600a8504945084612f2857509392505050565b60008085858585604051602001612f819493929190613caf565b6040516020818303038152906040529050600281604051612fa29190613c63565b602060405180830381855afa158015612fbf573d6000803e3d6000fd5b5050506040513d601f19601f82011682018060405250810190612fe29190613c7f565b9695505050505050565b610c318282604051806020016040528060008152506131f5565b6000828152600f6020526040902061301e8282613af6565b506040518281527ff8e1a15aba9398e019f0b49df1a4fde98ee17ae345cb5f6b5e2c27f5033e8ce790602001611dfa565b60006001600160a01b03831615801590611f265750826001600160a01b0316846001600160a01b031614806130a957506001600160a01b038085166000908152600e602090815260408083209387168352929052205460ff165b80611f265750506000908152600d60205260409020546001600160a01b03908116911614919050565b6001600160a01b0382166000908152602081905260409020600401805482919060ff1916600183600381111561310a5761310a613463565b02179055505050565b6000807a184f03e93ff9f4daa797ed6e38ed64bf6a1f010000000000000000831061315c577a184f03e93ff9f4daa797ed6e38ed64bf6a1f010000000000000000830492506040015b6d04ee2d6d415b85acef81000000008310613188576d04ee2d6d415b85acef8100000000830492506020015b662386f26fc1000083106131a657662386f26fc10000830492506010015b6305f5e10083106131be576305f5e100830492506008015b61271083106131d257612710830492506004015b606483106131e4576064830492506002015b600a8310610b655760010192915050565b6131ff838361320c565b6112776000848484612722565b6001600160a01b03821661323657604051633250574960e11b815260006004820152602401610dfa565b60006132448383600061220a565b90506001600160a01b03811615611277576040517f73c6ac6e00000000000000000000000000000000000000000000000000000000815260006004820152602401610dfa565b6040518060e001604052806000815260200160006001600160a01b031681526020016060815260200160608152602001600060038111156132cd576132cd613463565b815260200160008152602001600081525090565b604051806101200160405280600081526020016000815260200160006001600160a01b0316815260200160608152602001606081526020016000815260200160008152602001600081526020016000600781111561334157613341613463565b905290565b634e487b7160e01b600052601160045260246000fd5b8082028115828204841417610b6557610b65613346565b6001600160e01b03198116811461053057600080fd5b60006020828403121561339b57600080fd5b81356122fe81613373565b60005b838110156133c15781810151838201526020016133a9565b50506000910152565b600081518084526133e28160208601602086016133a6565b601f01601f19169290920160200192915050565b6020815260006122fe60208301846133ca565b60006020828403121561341b57600080fd5b5035919050565b6001600160a01b038116811461053057600080fd5b6000806040838503121561344a57600080fd5b823561345581613422565b946020939093013593505050565b634e487b7160e01b600052602160045260246000fd5b6008811061348957613489613463565b9052565b60006101208b83528a60208401526001600160a01b038a1660408401528060608401526134bc8184018a6133ca565b905082810360808401526134d081896133ca565b9150508560a08301528460c08301528360e08301526134f3610100830184613479565b9a9950505050505050505050565b60008060006060848603121561351657600080fd5b833561352181613422565b9250602084013561353181613422565b929592945050506040919091013590565b6000806040838503121561355557600080fd5b50508035926020909101359150565b634e487b7160e01b600052604160045260246000fd5b600067ffffffffffffffff8084111561359557613595613564565b604051601f8501601f19908116603f011681019082821181831017156135bd576135bd613564565b816040528093508581528686860111156135d657600080fd5b858560208301376000602087830101525050509392505050565b600082601f83011261360157600080fd5b6122fe8383356020850161357a565b600080600080600060a0868803121561362857600080fd5b853561363381613422565b945060208601359350604086013567ffffffffffffffff8082111561365757600080fd5b61366389838a016135f0565b9450606088013591508082111561367957600080fd5b50613686888289016135f0565b95989497509295608001359392505050565b600060208083018184528085518083526040925060408601915060408160051b87010184880160005b8381101561377657888303603f190185528151805184528781015188850152868101516001600160a01b038116888601526101209050606080830151828288015261370e838801826133ca565b925050506080808301518683038288015261372983826133ca565b60a0858101519089015260c0808601519089015260e0808601519089015261010094850151949093509150613762905081870184613479565b5095880195935050908601906001016136c1565b509098975050505050505050565b60006020828403121561379657600080fd5b81356122fe81613422565b6004811061348957613489613463565b8781526001600160a01b038716602082015260e0604082015260006137d960e08301886133ca565b82810360608401526137eb81886133ca565b9150506137fb60808301866137a1565b60a082019390935260c0015295945050505050565b60208152815160208201526001600160a01b0360208301511660408201526000604083015160e0606084015261384a6101008401826133ca565b90506060840151601f1984830301608085015261386782826133ca565b915050608084015161387c60a08501826137a1565b5060a084015160c084015260c084015160e08401528091505092915050565b600080604083850312156138ae57600080fd5b82356138b981613422565b9150602083013580151581146138ce57600080fd5b809150509250929050565b600080600080608085870312156138ef57600080fd5b84356138fa81613422565b966020860135965060408601359560600135945092505050565b6000806000806080858703121561392a57600080fd5b843561393581613422565b9350602085013561394581613422565b925060408501359150606085013567ffffffffffffffff81111561396857600080fd5b8501601f8101871361397957600080fd5b6139888782356020840161357a565b91505092959194509250565b6000806000606084860312156139a957600080fd5b83356139b481613422565b9250602084013567ffffffffffffffff808211156139d157600080fd5b6139dd878388016135f0565b935060408601359150808211156139f357600080fd5b50613a00868287016135f0565b9150509250925092565b60008060408385031215613a1d57600080fd5b8235613a2881613422565b915060208301356138ce81613422565b60208101610b6582846137a1565b80820180821115610b6557610b65613346565b600181811c90821680613a6d57607f821691505b602082108103613a8d57634e487b7160e01b600052602260045260246000fd5b50919050565b81810381811115610b6557610b65613346565b601f821115611277576000816000526020600020601f850160051c81016020861015613acf5750805b601f850160051c820191505b81811015613aee57828155600101613adb565b505050505050565b815167ffffffffffffffff811115613b1057613b10613564565b613b2481613b1e8454613a59565b84613aa6565b602080601f831160018114613b595760008415613b415750858301515b600019600386901b1c1916600185901b178555613aee565b600085815260208120601f198616915b82811015613b8857888601518255948401946001909101908401613b69565b5085821015613ba65787850151600019600388901b60f8161c191681555b5050505050600190811b01905550565b600060018201613bc857613bc8613346565b5060010190565b634e487b7160e01b600052603260045260246000fd5b60008351613bf78184602088016133a6565b835190830190613c0b8183602088016133a6565b01949350505050565b60006001600160a01b03808716835280861660208401525083604083015260806060830152612fe260808301846133ca565b600060208284031215613c5857600080fd5b81516122fe81613373565b60008251613c758184602087016133a6565b9190910192915050565b600060208284031215613c9157600080fd5b5051919050565b600081613ca757613ca7613346565b506000190190565b60008551613cc1818460208a016133a6565b855190830190613cd5818360208a016133a6565b01938452505060208201526040019291505056fea2646970667358221220f22cfb4d8173a569e8e3fe8000e76fbfd529dfd88f5765eb82eaec4521e6f75e64736f6c63430008180033",
  "linkReferences": {},
  "deployedLinkReferences": {}
}